:100000000C9450030C9478030C9478030C947803AC
:100010000C9478030C9478030C9478030C94780374
:100020000C9478030C9478030C9410200C947803AF
:100030000C9478030C9478030C9478030C94780354
:100040000C9478030C9478030C9478030C94780344
:100050000C9478030C9478030C9478030C94C61FCA
:100060000C9478030C9478030C9478030C94780324
:100070000C9478030C9478030C9478030C94780314
:100080000C9478030C9478030C9478030C94780304
:100090000C9478030C9478030C9478030C947803F4
:1000A0000C9478030C9478030C947803AED580A854
:1000B0003FD300408D142002A1C8DA12817FD9F10C
:1000C000DB40A4A6AF1201000200000040D0167E63
:1000D0001200010102030112010002000000400DA4
:1000E0000F920000010102030112010002FFFFFF55
:1000F000405E048E021401010203010904000001A4
:1001000003000000092111010001224600070581BA
:10011000034000010902220001010080320902228D
:100120000001010080320904000001030000000901
:10013000211101000122510007058103400001093E
:1001400004000001030000000921110100012256F2
:100150000007058103400001090229000101008018
:10016000FA09211101000122460005010905A1013A
:10017000150025013500450175019518050919017E
:100180002918810205012507463B01750495016583
:10019000140939814265009501810126FF0046FF5F
:1001A000000930093109350936750895048102C006
:1001B00005010905A10105091901290315002501FA
:1001C0007501950355006500810275019505810350
:1001D00005010901150026FF0375109502A100090C
:1001E0003009318102C0C005010905A1018501A1C5
:1001F0000005091901290C150025019510750181CB
:100200000205010939150025073500463B0175082F
:10021000950165148142C0C005010902A101850252
:100220000901A100093009311581257F3581457FFC
:10023000950275088106C0C005010904A101A1004D
:100240000509190129101500250195107501810274
:1002500005010901A100093009311580257F9502AA
:1002600075088102C009371580257F9501750881C1
:10027000060938150026FF00950175088102093925
:10028000150025073500463B017508950165148169
:1002900042C0C005010905A1011500250135004531
:1002A000017501950E05091901290E81029502813A
:1002B0000105012507463B017504950165140939BF
:1002C000814265009501810126FF0046FF0009304B
:1002D000093275089502810205027508950315001B
:1002E00026FF0009BB09C509C88102C0050109052F
:1002F000A10115002501350045017501951005097D
:1003000019012910810205012507463B0175049555
:100310000165140939814265009501810126FF00BC
:1003200046FF000930093109320935750895048105
:10033000020600FF092009210922092309240925B1
:100340000926092709280929092A092B950C810260
:100350000A21269508B102C056424F59004E545406
:1003600000534E4553004E4553004D554C54492DB6
:10037000544150005043452D36005043452D320026
:100380004D554C54492D54415000504144004E2F7E
:1003900041004E4F4E450053574954434800455283
:1003A000524F52004849440058494E505554004E4F
:1003B00045532B534E45532B56424F59004E36341E
:1003C000204D4F52452052414E47450050432D4548
:1003D0004E47494E4500000000002300260029003A
:1003E0002C002F0000000000250028002B002E000C
:1003F000310000000000240027002A002D003000FA
:1004000004040404040304050202020204030202B9
:10041000020206060606060604040202020404049A
:1004200008020110408040102040804080080204F3
:100430000180402010020110801020404020000365
:100440000C0F30333C3FC0C3CCCFF0F3FCFF44452E
:10045000564943452057494C4C205245535441522C
:1004600054004D4F44453A20005341564544210A1B
:1004700000484F4C443A2020534156450A00505200
:100480004553533A204348414E4745004F55545039
:100490005554204D4F44450A005245464C4558009E
:1004A000000005072061000000000000005F000060
:1004B0006070787060605048506003070F07030356
:1004C00005090503081C3E7F7F081C22417F7F7FB2
:1004D0003E1C087F41221C08082A1C2A0808083EE6
:1004E0000808005030000008080808080060600094
:1004F0000020100804023E5149453E00427F400062
:1005000042615149462141454B311814127F102751
:10051000454545393C4A4949300171090503364989
:10052000494936064949291E00363600003C7E7E80
:100530007E3C3C4242423C1414141414F0F0F0F09F
:10054000F0F0909090F0324979413E7E1111117E89
:100550007F494949363E414141227F4141221C7F2A
:10056000494949417F090901013E414151327F0812
:1005700008087F00417F41002040413F017F08146F
:1005800022417F404040407F0204027F7F040810E8
:100590007F3E4141413E7F090909063E4151215EAE
:1005A0007F09192946464949493101017F01013F27
:1005B0004040403F1F2040201F7F2018207F6314B1
:1005C0000814630304780403615149454300007F24
:1005D0004141020408102041417F0000383C1E0FB9
:1005E00007404040404038241209072054545478B2
:1005F0007F484444383844444420384444487F3891
:1006000054545418087E090102081454543C7F08BD
:1006100004047800447D40002040443D00007F10E9
:10062000284400417F40007C041804787C080404BE
:100630007838444444387C14141408081414187C82
:100640007C080404084854545420043F4440203C8F
:100650004040207C1C2040201C3C4030403C442832
:100660001028440C5050503C4464544C44E0E0E0AA
:10067000E0E000007F0000E0A0A0A0E008082A1C45
:1006800008081C2A08080006090906AC0019804061
:10069000005245424F4F54494E472E2E2E00352BC7
:1006A00011241FBECFEFDAE0DEBFCDBF14E0A0E023
:1006B000B1E0EAE1FAE502C005900D92AA3FB10768
:1006C000D9F727E0AAEFB4E001C01D92A435B20724
:1006D000E1F713E0C0E5D3E004C02197FE010E94DA
:1006E000BE2BCF34D107C9F70E94F2200C940B2DFA
:1006F0000C940000CF93DF93EC018AEB94E0998394
:1007000088831A8280E093E09C838B8380E09CE066
:100710009E838D831F82188681E089878EE1EFE9B1
:10072000F1E0DE01509601900D928A95E1F71FA647
:100730001EA619AA18AA1BAA1AAAFE01F49688E0F6
:10074000DF011D928A95E9F71CAE1DAE1FAE1EAEED
:100750003C961182108232968FEF9FE791838083BF
:1007600032969183808332969183808332969183EF
:10077000808332961082C55BDF4F1882DF91CF9164
:1007800008953FB7F89480913A0790913B07A09164
:100790003C07B0913D0726B5A89B05C02F3F19F037
:1007A0000196A11DB11D3FBFBA2FA92F982F8827F1
:1007B000BC01CD01620F711D811D911D42E0660FCC
:1007C000771F881F991F4A95D1F708958F929F929E
:1007D000AF92BF92CF92DF92EF92FF924B015C01FA
:1007E0000E94C1036B017C010E94C1036C197D0949
:1007F0008E099F09683E734081059105A8F321E0A9
:10080000821A9108A108B10888EEC80E83E0D81EAC
:10081000E11CF11C81149104A104B10429F7FF909B
:10082000EF90DF90CF90BF90AF909F908F90089502
:10083000AF92BF92CF92DF92EF92FF920F931F93EE
:10084000CF93DF936C017B018B01040F151FEB012C
:100850005E01AE18BF08C017D10759F06991D601E3
:10086000ED91FC910190F081E02DC6010995892B55
:1008700079F7C501DF91CF911F910F91FF90EF9014
:10088000DF90CF90BF90AF900895CF93DF93EC01AE
:100890008A85882329F081508A87DF91CF91089536
:1008A0009C818E819817C8F78D856827E881F9812A
:1008B0000084F185E02D42E0CE0109958C818F5FA7
:1008C0008C83EBCFEF920F931F93F901DA012C91F8
:1008D0003E2D309532233C9330813E293083FC01FC
:1008E000D80198E080E030E020E04C914E2189F082
:1008F0002A95D9F720E04C914E2159F02A95D9F745
:1009000020E84C914E2129F02A95D9F73A9561F7C4
:1009100017C047E04A95F1F7000031E0550F4C91C0
:100920004E2109F051609A9529F45193839598E0EE
:10093000681731F020E84C914E2111F72A95D9F72C
:100940001F910F91EF9008950F931F93F90120814C
:10095000202B2083DA012C91202B2C9320814081A5
:10096000202B30E010E00095109550E00423152373
:10097000DC015D9148E00083550F40F474E07A9506
:10098000F1F720837AE07A95F1F705C07EE07A9559
:10099000F1F7000020834A9529F073E07A95F1F78A
:1009A0000000E9CF6A9529F071E07A95F1F700002F
:1009B000E0CF72E07A95F1F700000000008374E068
:1009C0007A95F1F70000000020831F910F910895A0
:1009D0007F928F929F92AF92BF92CF92DF92EF92CF
:1009E000FF920F931F93CF93DF93DB01642F590185
:1009F000F02E282F30E0F901E15EFB4FE49020500B
:100A00003C4FF901249130E0220F331FF901EE50E1
:100A1000FC4FC591D491F901EC51FC4FC590D49095
:100A2000F901EA52FC4F859094907FB6F8940E2D10
:100A30009601AE01CD010E94A40484019601AE018D
:100A40006F2DC5010E9462047FBEDF91CF911F917F
:100A50000F91FF90EF90DF90CF90BF90AF909F905D
:100A60008F907F900895CF93DF93FC0187812FEFC4
:100A70003FE7813011F420E830E8462F50E0DF01F5
:100A80008FE0689FA00DB11D112450969C91618547
:100A9000892F8370823021F1833029F0813021F554
:100AA000809396061BC0611111C081E08093960669
:100AB0009C70983009F457C09C30D1F0943009F004
:100AC00055C0846093E0909395061CC0623061F439
:100AD00080919606882341F0813021F081E0E8CFB3
:100AE0008093960682E0E4CF1092960680E0E0CFF5
:100AF0006230E1F5909195069923C1F1933089F127
:100B000094E0892B9FE0949FD001959FB00D112414
:100B1000AE0FBF1F50968C9350978085EF01C40F86
:100B2000D51F813031F1823009F46CC088A9811160
:100B300008C056963C932E93559758963C932E9307
:100B400057978AA9811155C06FE0649FC001659FC6
:100B5000900D1124E80FF91F328F218F348F238FCE
:100B600048C098E0CECF886094E0ADCF1092950653
:100B7000C9CF8AA9811108C05A963C932E935997E0
:100B80005C963C932E935B978FE0849FD001859F6A
:100B9000B00D1124AE0FBF1F50968C918C70843015
:100BA00071F1883049F58FEF9FEF2FE0249FD0013E
:100BB000259FB00D1124AE0FBF1F56969C938E93A8
:100BC000559750968C91837030E020E0813031F061
:100BD0002FEF3FEF823011F02FEF3FE76FE0649F80
:100BE000C001659F900D1124E80FF91F308F278BEE
:100BF000108ADF91CF9108958FEF9FE7D6CF90E0D5
:100C000080E0D3CF88A9811108C056963C932E93DB
:100C1000559758963C932E9357978FE0849FD00119
:100C2000859FB00D1124AE0FBF1F50968C918C7014
:100C3000843059F1883031F58FEF9FEF2FE0249FFA
:100C4000D001259FB00D1124AE0FBF1F5A969C9363
:100C50008E93599750968C91837030E020E08130CC
:100C600031F02FEF3FEF823011F02FEF3FE76FE0D1
:100C7000649FC001659F900D1124E80FF91F348F08
:100C8000238FB6CF8FEF9FE7D9CF90E080E0D6CF0C
:100C9000CF93DF93DC0113962D913C911497C62FCF
:100CA000D0E0FC018FE0689FE00DF11D1124618907
:100CB0007289C901862397232817390709F04BC089
:100CC00080898F70823071F128F48130C9F190E011
:100CD00080E021C0843089F08830C9F782E018961E
:100CE0008C93108A20953095818992892823392305
:100CF000328B218B84E090E00EC081E018968C93BB
:100D0000108A209530958189928928233923328B46
:100D1000218B82E090E09093940680939306DF917C
:100D2000CF91089518961C92108A2095309581894C
:100D3000928928233923328B218B81E090E0EBCFFD
:100D4000108A20953095262337233061328B218BF2
:100D500088E090E0E0CF15964D915C911697642362
:100D600075234617570709F0B2CF80898F708230FC
:100D700009F440C088F4813009F0A9CF19961C927B
:100D8000108A409550958189928948235923528B26
:100D9000418B80E290E0BFCF8430D9F1883009F0F8
:100DA00096CF80919306909194068115924041F0E0
:100DB0001B968C911B9791E089271B968C931B9710
:100DC0002FE02C9FC0012D9F900D1124A80FB91F5B
:100DD00050961C9250974095509551968D919C91AC
:100DE00052974823592352965C934E93519780E033
:100DF00092E091CF81E019968C93108A409550959E
:100E00008189928948235923528B418B80E490E059
:100E100082CF82E019968C93108A409550958189F3
:100E2000928948235923528B418B80E890E073CFFD
:100E300084E98093BC0085E69091BC0094FF03C0D8
:100E40008150D1F7089581E00895DF92EF92FF92EB
:100E50000F931F93CF93DF93FC0186818387878154
:100E60009085958784878185928597878687D480AA
:100E700014822C9A8BE290E00197F1F72C9883E191
:100E800090E00197F1F7208930E0326750E040E0D0
:100E900090E080E0C3E1EC2EF12C37FF71C05C9A4A
:100EA000220F331F6CB166FB002700F910E0B80178
:100EB000042E02C0660F771F0A94E2F7862B972B49
:100EC0002D98E7012197F1F72D9AE7012197F1F786
:100ED0004F5F5F4F4031510501F75C98492F4295B4
:100EE0004F7051E04D3009F450E170E060E030E0C7
:100EF00020E0A3E1EA2EF12C1CB116FBAA27A0F9F1
:100F0000B0E08D01062E02C0000F111F0A94E2F717
:100F1000202B312B2D98E7012197F1F72D9AE7012E
:100F20002197F1F76F5F7F4F651730F380959095AC
:100F3000209530954F3029F42E3FDFEF3D0709F41F
:100F400044C0548161E0650F648361E070E0511139
:100F500002C070E060E0411115C0A92FBB27AF703F
:100F6000BB271F9779F44AE0469FD001479FB00DF9
:100F70001124AE0FBF1F4FE016964C93169715C065
:100F80005C988ECF542F509552FF47C02AE0269F81
:100F9000D001279FB00D1124AE0FBF1F24E016967D
:100FA0002C9316975370252F30E01A963C932E936E
:100FB00019972AE0269FD001279FB00D1124AE0F6C
:100FC000BF1F18969C938E93179784818D15E8F414
:100FD0004AE09FEF21E030E0811102C030E020E0E4
:100FE000429FD001439FB00D1124AE0FBF1F169634
:100FF0009C93169718961C921E9217971A961C92FD
:101000001E9219978F5FD812E5CFDF91CF911F9174
:101010000F91FF90EF90DF9008955AE0569FD00116
:10102000579FB00D1124AE0FBF1F5FE04527A4CF1F
:10103000809129078F5F843018F4809329070895E1
:1010400081E0FBCF0895CF93DF93EC0165E070E082
:1010500080E090E00E94E60382E08093960181E0C8
:1010600088AB89AB62E370E080E090E0DF91CF91E4
:101070000C94E60387E091E0089582EC94E00895F3
:101080003E9A4698549A5C9825982D982D9A2498C3
:101090002C982C9A6E987698769A57985F985F9AC3
:1010A000FC01EC56FF4F17823896AC0146545F4F57
:1010B0002FEF3FEF10823283218313823583248305
:1010C0003696E417F507B1F7239A2B98229A2A98B7
:1010D00085988D988D9A86988E988E9A87988F98F5
:1010E0008F9A21982998299A1782FC01EE53FF4F75
:1010F00080529F4F2FEF3FEF108232832183138264
:101100003583248336968E179F07B1F783E290E0EC
:101110000197F1F782E08093960162E370E080E04E
:1011200090E00C94E60383E091E0089589EC94E06C
:101130000895DC0116961C92169717961C92179725
:101140008EE1EDEBF1E0189601900D928A95E1F7B2
:1011500008958A549F4FFC018081811103C081E072
:1011600091E0089582E091E008958A549F4FFC0138
:101170008081811103C088ED94E0089580ED94E0B2
:101180000895FC019081911106C08381948101969C
:1011900099F080E008959F3049F4228130E02F706B
:1011A00033272F30310561F482E00895923031F019
:1011B000943031F485E0089583E0089584E0089543
:1011C00081E00895AF92BF92CF92DF92EF92FF92AB
:1011D0000F931F93CF93DF93FC01E756FF4F1082CD
:1011E000249A2C98259A2D9A6E987698769A549AE5
:1011F0005C98DC01A655BF4F1C92869A8E98859A02
:101200008D9A87988F988F9A229A2A98A3E2B0E0B5
:101210001197F1F7208121113EC0EC0182E080930B
:1012200096018E010C561F4FC8010E942507FE0132
:10123000E856FF4FB080D12C780186E0E80EF11C13
:10124000CA54DF4F3AE0A32ECC24CA94DB1461F1D8
:10125000D11008C0C7010E94C10891E0853009F093
:1012600090E0988381E090E0D11002C090E080E0AF
:10127000A89EF001A99EF00D1124E00FF11FC68277
:101280001086178212861186C386158614861786E5
:101290001686D394DBCF82E08093960188EE93E0AC
:1012A0009093980180939701809197019091980174
:1012B0008230910538F0880F991F880F991F059784
:1012C0000197F1F7DF91CF911F910F91FF90EF9070
:1012D000DF90CF90BF90AF900895FC016093BC0069
:1012E0002FEF3FEF8091BC0087FF06C09091B900BF
:1012F000987F908381E008952150310999F780E02B
:101300000895CF93DF93EC016093BB0064E80E94E3
:101310006D09882329F081E09881983209F080E0F6
:10132000DF91CF910895DF92EF92FF920F931F9379
:10133000CF93DF93EC01D62EF42E8989882329F0F0
:10134000411103C00E941807198A8E01015F1F4FC7
:101350008989811119C0E88864EAC8010E946D0971
:10136000882361F08F85883011F0803139F4EE0CDC
:10137000E092BB0064E8C8010E946D0960E0F110D2
:1013800060E4C8010E9481096D2DC8010E94810995
:1013900082E0F8120BC089898F5F898BDF91CF9132
:1013A0001F910F91FF90EF90DF9008950E94180712
:1013B000198AF4CFDC01ED91FC910084F185E02DD8
:1013C00040E00994FC012781269526952695621711
:1013D00020F46583606B0C94DA0908950F931F93D2
:1013E000CF93FC012681621798F4C62F8C01648389
:1013F0006085C60F6C2F6F700E94DA096C2F6295A2
:101400006F706061C801CF911F910F910C94DA0940
:10141000CF911F910F9108951F93CF93DF93EC010C
:10142000142F0E94EE09612FCE01DF91CF911F9101
:101430000C94E2092F923F924F925F926F927F92AB
:101440008F929F92AF92BF92CF92DF92EF92FF92D4
:101450000F931F93CF93DF9300D000D000D0CDB770
:10146000DEB7FC01238534852115310509F416C149
:101470009E838D83F9013296649031964491E42ED7
:10148000F12CF7E0EF0EF11C53E0F594E7945A9538
:10149000E1F7E982F901349654913196E4916D3087
:1014A000F1F460E00E94EE0981E090E026960FB62C
:1014B000F894DEBF0FBECDBFDF91CF911F910F918A
:1014C000FF90EF90DF90CF90BF90AF909F908F9064
:1014D0007F906F905F904F903F902F9008956A306B
:1014E00081F460E08D819E810E94EE09ED81FE8194
:1014F000868565818E9D600D1124CF010E94E209D1
:10150000D3CF651708F4CAC08E2F90E0FC01E50F19
:10151000F11D6E171F060CF0C1C089010A5F1F4F35
:10152000651BED81FE8171855685759F502D1124B7
:101530005C83F90154912F5F3F4FF9012491352FBE
:101540002230310508F06AC06E9CC0016F9C900D7E
:101550001124689FF001699FF00D11240E0F1F1FC9
:10156000512CED81FE81F481FA83ED81FE8125808D
:10157000F285FB83862C912CAA24A394B12C312CC8
:101580008981381608F086C0412CED81FE81868560
:10159000481608F078C08B818287311002C0442041
:1015A00041F0ED81FE8145814F5F6A81CF010E944C
:1015B0000C0AD12CC12CC61408F058C0F801EC0D4F
:1015C000FD1D7490552061F0EA14FB0449F4E72DE9
:1015D000F0E0052C02C0F595E7950A94E2F77E2E1F
:1015E000ED81FE818685823081F4442009F43AC081
:1015F00072948FE07822E72DF0E0E25CFB4F74906C
:10160000672D8D819E810E944504672D8D819E816D
:101610000E9445048FEFC81AD80ACDCF477028E042
:10162000522E541A411101C0512CF801612C30E0A6
:1016300020E0661631F04491240F311D63943196F9
:10164000F8CF600E712E711CF3016490E29EF001E0
:10165000E39EF00DF29EF00D11248E0F9F1F080FD8
:10166000191F7FCFF72DFF707F2EC5CFD12CEC81B6
:10167000DE1639F060E08D819E810E944504D3948E
:10168000F6CF439482CF3394080D191DFFEFAF1AA4
:10169000BF0A76CF622D8D819E8130CF90E080E0B1
:1016A00005CF0F931F93CF93DF938C01D0E0C0E061
:1016B000F801EC0FFD1F6491662341F08EE397E083
:1016C0000E941A0A892B11F02196F2CFCE01DF91E8
:1016D000CF911F910F910895811104C088EA93E082
:1016E0000C94510B813019F487E993E0F9CF8250C3
:1016F000853018F484EA93E0F3CF8EE993E0F0CFDD
:10170000682F8EE397E00C941A0ACF92DF92EF9243
:10171000FF920F931F93CF93DF93EC01F62EC42E0D
:10172000D22E1A868F81869586958695081710F099
:101730000FEF080F1D2D011780F0412F6F2DCE01E7
:101740000E940C0AEF2CCE1430F06D85CE010E9461
:101750004504E394F8CF1F5FEECF4D2D6F2DCE01E2
:10176000DF91CF911F910F91FF90EF90DF90CF907D
:101770000C940C0A0F93FC010781069506950695BB
:1017800001504681415020E060E00E94850B0F919E
:1017900008954F925F926F927F928F92AF92CF9205
:1017A000EF92FF920F931F93CF93DF93CDB7DEB7E6
:1017B0002701380194E0899F80011124F801E8583D
:1017C000F94F80819181A281B3818E219521A6213B
:1017D000B72131E0892B8A2B8B2B09F430E03C11A7
:1017E00003C088898823F1F0C11001C0A82C2D5FA7
:1017F000640F422F8EE397E00E940C0A8A2D0E940C
:10180000800BF801E858F94FCC20D1F0808191810C
:10181000A281B38184299529A629B7298083918340
:10182000A283B383DF91CF911F910F91FF90EF902F
:10183000CF90AF908F907F906F905F904F90089572
:10184000409450946094709480819181A281B3817E
:1018500084219521A621B721E1CF6F927F928F92AB
:101860009F92AF92BF92CF92DF92EF92FF920F932F
:101870001F93CF93DF933C01D62EC42FE62FF0E0C9
:10188000EE0FFF1FE259FB4FB08007E023E04181DC
:101890006B2D8EE397E00E94850B47E06B2D8EE366
:1018A00097E00E940C0AC13091F58AE893E00E940B
:1018B000510B81E08D15E0F0E301C256DF4F82EF5E
:1018C000681A8EEF780A99249394E880F9800A8147
:1018D0001B819F928F80AE80C12C2C814D816B2DFE
:1018E0008D2D0E94C90B28960F90C615D70569F754
:1018F000DF91CF911F910F91FF90EF90DF90CF90EC
:10190000BF90AF909F908F907F906F90089582E9E5
:1019100093E0DF91CF911F910F91FF90EF90DF90B7
:10192000CF90BF90AF909F908F907F906F900C94CE
:10193000510B3F924F925F926F927F928F929F9244
:10194000AF92BF92CF92DF92EF92FF920F931F93CD
:10195000CF93DF93B62E942E2901302EEC01C05286
:10196000DF4FD12C662E712C660C771CC301825977
:101970009B4F3C0192E0991203C0E7E0ED15E8F0BF
:10198000E880F9800A811B812C814D81AE808F8097
:1019900081E04114510449F0F201618172816E21AC
:1019A0007F2181E0672B09F080E03F92C82EF30190
:1019B00060818B2D0E94C90B0F90D3942896FCE078
:1019C000DF12D8CFDF91CF911F910F91FF90EF9051
:1019D000DF90CF90BF90AF909F908F907F906F904F
:1019E0005F904F903F900895EF92FF920F931F9357
:1019F000CF93DF937C01C62FD42FE62FF0E0EE0FBC
:101A0000FF1FE259FB4F108107E023E04181612F66
:101A10008EE397E00E94850B47E0612F8EE397E00D
:101A20000E940C0AD23061F0D330F9F082E993E0E1
:101A3000DF91CF911F910F91FF90EF900C94510B7C
:101A40008AE793E00E94510BC23041F001E030E0A0
:101A500020E04D2F6C2FC7010E94990CDF91CF9190
:101A60001F910F91FF90EF90089584E793E0EACFE4
:101A70006F927F928F929F92AF92BF92CF92DF929E
:101A8000EF92FF920F931F93CF93DF93EC01D62E2B
:101A9000742EE62FF0E0EE0FFF1FE259FB4FB080EF
:101AA00007E023E041816B2D8EE397E00E94850BD8
:101AB00047E06B2D8EE397E00E940C0A83E07816D6
:101AC00019F18715B8F0E2E086E693E07E16F1F0B2
:101AD00082E993E0DF91CF911F910F91FF90EF90FA
:101AE000DF90CF90BF90AF909F908F907F906F903E
:101AF0000C94510BF4E07F1609F442C085E0781293
:101B0000E7CF88E593E002C081E693E00E94510BA5
:101B1000E2E0DE1631F1FE01EA54FF4F80818823B6
:101B200091F13E01F9EC6F1AFEEF7F0AC955DE4FC5
:101B300099249394F301E080F180028113819F92B4
:101B40008780A680CC24C394248145816B2D8D2D64
:101B50000E94C90BF8E06F0E711C0F906C167D0689
:101B600049F7DF91CF911F910F91FF90EF90DF9098
:101B7000CF90BF90AF909F908F907F906F9008957F
:101B80008DE593E0C3CFC954DF4F612C9924939422
:101B900082E078121FC0E7E0E615B0F0F3E0F6153A
:101BA000C8F0FE01E05AFF4FE080F180028113810E
:101BB0009F928780A680CC24C394248145816B2D7D
:101BC0008D2D0E94C90B0F90639428968CE06812AB
:101BD000DFCFC7CFFE01E8CF0F9307E022E04FE74A
:101BE00060E08EE397E00E94850B809129078230A8
:101BF00071F08330A1F08130D1F46CE08EE397E096
:101C00000E94EE098FEA93E00F910C94510B64E26D
:101C10008EE397E00E94EE098CEC93E0F5CF66E04E
:101C20008EE397E00E94EE098DEB93E0EDCF0F91EC
:101C30000895809395016EEA81116FEA8EE397E033
:101C40000E94DA092FB7F8948091360790913707F0
:101C5000A0913807B09139072FBF80932A0790933E
:101C60002B07A0932C07B0932D07089590E080E0F8
:101C70000895CF93DF93CDB7DEB72F970FB6F894C3
:101C8000DEBF0FBECDBF209196016217E0F42FE0BA
:101C9000FE013196DF01322F1D923A95E9F74FEFA1
:101CA0005FE75F834E83598748875B874A875D87F5
:101CB0004C87DC01269FA00DB11D11245096019088
:101CC0000D922A95E1F72F960FB6F894DEBF0FBE5E
:101CD000CDBFDF91CF9108952F923F924F925F92A7
:101CE0006F927F928F929F92AF92BF92CF92DF922C
:101CF000EF92FF920F931F93CF93DF93CDB7DEB791
:101D000029970FB6F894DEBF0FBECDBF6C019E01C0
:101D10002F5F3F4F290186E0D9011D928A95E9F78F
:101D200080914F01882381F010924F01809196019C
:101D3000833050F045E06EE18EE397E00E940C0A9C
:101D400080E893E00E94510BF601E456FF4F360104
:101D50005601BAEBAB0EB11C8081838381819281E5
:101D6000958384833696AE16BF06B1F74601E4E943
:101D70008E0E911CD4011696EC90169716961C9216
:101D8000169717961C92469A5C9A83E090E001970A
:101D9000F1F729B18CB193B133B186FB442740F9F7
:101DA000440F440F822F881F8827881F880F880FB1
:101DB000880F480F35FB882780F9480F94FB882748
:101DC00080F9880F480F09F07AC0F401868191E00C
:101DD000980F9683863008F085E0082F10E0F6E033
:101DE0008F9FC0011124FC013896E80DF91D880D64
:101DF000991DDC0118968C91882319F051E08330ED
:101E000009F452E0F12C63E070E05C98CB0101979B
:101E1000F1F7A9B19CB123B133B196FB882780F9C2
:101E2000880F880F9A2F991F9927991F990F990F3B
:101E3000990F890F35FB332730F9830F24FB99273E
:101E400090F9990F890F4698DB011197F1F7B9B115
:101E50009CB133B1A3B196FB222720F9220F220FA8
:101E60009B2F991F9927991F990F990F990F290F48
:101E7000A5FBAA27A0F92A0F34FB992790F9990FFF
:101E8000290FA181B28130E0811141C0B07F322F92
:101E90002227A20FB31FB283A183FF24F3944F5FC5
:101EA00054132CC083E0F11001C082E096E0909FB3
:101EB000F001919FF00D1124E80DF91D80874698DF
:101EC0005C9883E290E00197F1F7F401268180E0CD
:101ED00036E04FEF5FEF281749F1982F863008F072
:101EE00095E0F401399FE00DF11D11246085938583
:101EF000691711F0528741878F5FEDCF413009F0AC
:101F000084CF469A5C9ACB010197F1F77ECFA07FF0
:101F10008A0F9B2F911D8F70A4E0220F331FAA956B
:101F2000E1F7280F391F32832183B9CF8E1590F442
:101F300046E02FEF3FEF982F863008F095E0F40150
:101F4000499FE00DF11D11241086328721878F5F94
:101F5000E812F1CFF601EE53FF4FC60180529F4FBA
:101F60002081238321813281358324833696E817AB
:101F7000F907B1F7D5011696EC90169716961C92B4
:101F8000169717961C922B9A2A9A83E090E0019755
:101F9000F1F743B19FB18FB12FB146954170440F16
:101FA000440F440F991F9927991F990F990F490FB3
:101FB00025FB992790F9490F86FB882780F9880F20
:101FC000480F09F076C0F501868191E0980F96835D
:101FD000863008F085E0082F10E0F6E08F9FC00102
:101FE0001124FC013896EA0DFB1D8A0D9B1DDC01B6
:101FF00018968C91882319F051E0833009F452E04F
:10200000F12C63E070E02A98CB010197F1F783B1DE
:102010002FB19FB13FB186958170880F880F880FCF
:10202000221F2227221F220F220F820F35FB332768
:1020300030F9830F96FB992790F9990F890F2B9808
:10204000DB011197F1F723B13FB19FB1AFB12695F5
:102050002170220F220F220F331F3327331F330F1C
:10206000330F230FA5FBAA27A0F92A0F96FB992768
:1020700090F9990F290FA181B28130E0811142C0FE
:10208000B07F322F2227A20FB31FB283A183FF2478
:10209000F3944F5F54132DC083E0F11001C082E030
:1020A00096E0909FF001919FF00D1124EA0DFB1D29
:1020B00080872B982A9883E290E00197F1F7F50149
:1020C0009681312C26E04FEF5FEF931551F1832D70
:1020D000F5E0F31508F485E0F501289FE00DF11D0A
:1020E000112430858385381711F052874187339446
:1020F000ECCF413009F087CF2B9A2A9ACB01019778
:10210000F1F781CFA07F8A0F9B2F911D8F70A4E0E4
:10211000220F331FAA95E1F7280F391F328321833D
:10212000B8CF3E1498F4832D46E02FEF3FEF982F61
:10213000863008F095E0F501499FE00DF11D11246E
:102140001086328721878F5FE812F1CFF601E656BD
:10215000FF4F2080222D230D288710E01986009143
:1021600096013885131709F4DBC0101709F4D8C09D
:1021700041E04F83121508F41F82812F121570F56C
:10218000163008F085E0D401E6E08E9FA00DB11D69
:1021900011249D01285F3F4F7901023049F422202C
:1021A00069F1D9018C91F201BF81EB0FF11D8083A0
:1021B000D7019C9113968C911397981328C0119670
:1021C0002D913C91129714968D919C912817390767
:1021D00051F51F5FFFE06F0E711CC1CF8219863071
:1021E00008F085E0D501E6E08E9FA00DB11D112419
:1021F0009D01285F3F4F79010230D1F63320C1F2B3
:10220000F7018081F2012F81E20FF11DD0CF612F04
:10221000C6010E94390E023031F4F70140816F810E
:10222000C6010E94F40CD70111962D913C91A90191
:10223000409550954170552782E022FD80E0842B27
:1022400094E023FD90E0892B98E021FD90E0892B1C
:10225000F301808BD70111964D915C91CA0125E065
:10226000969587952A95E1F7B1E08B279C0121701F
:10227000332782E090E044FF02C090E080E0822BB0
:10228000932B20E031E046FF02C030E020E0822BBB
:10229000932B20E032E047FF02C030E020E0822BA9
:1022A000932BF301928B818BD7014C91433041F5F5
:1022B00011966D917C91E4E0F0E072FF02C0F0E0D5
:1022C000E0E028E030E073FF02C030E020E08E2B39
:1022D0009F2BE0E1F0E071FF02C0F0E0E0E0822B34
:1022E000932B20E230E070FF02C030E020E0E82BCA
:1022F000F92BE22BF32BD3015296FC93EE935197DB
:1023000080919601823049F400E097016F81C60107
:102310000E94990CB1E0B9875CCFE1E0E98759CF21
:102320001981023059F480914901811739F0111156
:1023300005C040E060E0C6010E94F40C1093490122
:102340001A8180919601823059F480914A01811757
:1023500039F0111105C040E061E0C6010E94F40CA3
:1023600010934A01009181062885201760F4122FEE
:1023700080919601811739F0612FC6010E94390EB4
:102380001F5F1017A8F33885309381068985299639
:102390000FB6F894DEBF0FBECDBFDF91CF911F9176
:1023A0000F91FF90EF90DF90CF90BF90AF909F90F4
:1023B0008F907F906F905F904F903F902F900895F7
:1023C0002F923F924F925F926F927F928F929F9245
:1023D000AF92BF92CF92DF92EF92FF920F931F9333
:1023E000CF93DF93CDB7DEB766970FB6F894DEBF15
:1023F0000FBECDBF3C0186E0FE013196DF011D928C
:102400008A95E9F780914801882381F0109248016C
:1024100080919601833050F045E064E28EE397E0CE
:102420000E940C0A8AE693E00E94510BF301EC55DE
:10243000FF4FD301D5969C91D597907FD7968C91DD
:1024400082958F70892B80837097FA8BE98BCF01EF
:102450000E942507F301E555FF4F80818583818127
:102460009281978386838381948191878087369731
:10247000D48014828E9A8BE290E00197F1F78E98C7
:1024800083E190E00197F1F7408950E0526770E0F6
:1024900060E090E080E003E110E057FF76C02A9A08
:1024A000440F551F2FB1022E000C330B2227330F80
:1024B000221F3327062E02C0220F331F0A94E2F791
:1024C000822B932B8D98D8011197F1F78D9AD80113
:1024D0001197F1F76F5F7F4F60317105F1F62A9820
:1024E000492F42954F7050E14D3009F051E070E0B6
:1024F00060E030E020E003E110E0AFB10A2E000C14
:10250000BB0BAA27BB0FAA1FBB27062E02C0AA0F10
:10251000BB1F0A94E2F72A2B3B2B8D98D801119709
:10252000F1F78D9AD8011197F1F76F5F7F4F65171B
:1025300020F38C0100951095209530954F3029F4AB
:102540002E3FBFEF3B0709F447C0848191E0980F0D
:10255000948361E070E0811102C070E060E041119D
:1025600016C0812F99278F7099270F9781F44AE021
:10257000469FC001479F900D11248E0F9F1F4FE073
:10258000DC0116964C93169716C02A9889CF942F83
:10259000909592FF8AC08AE0869FA001879F500D88
:1025A00011244E0F5F1F84E0DA0116968C93169764
:1025B0009370292F30E01A963C932E9319972AE0B6
:1025C000269FC001279F900D11248E0F9F1FDC01B5
:1025D00018961C930E931797B481BE87BD15F0F41F
:1025E0008B2F4AE09FEF21E030E0811102C030E004
:1025F00020E0429FD001439FB00D1124AE0FBF1FBA
:1026000016969C93169718961C921E9217971A96D8
:102610001C921E9219978F5FD812E5CFF301E856EE
:10262000FF4F9080EE85E90DED8779866886788A80
:102630006F86B12CF12C93012B553F4F3C8B2B8B8C
:10264000C3018A549F4F9E8B8D8B109196019D855F
:10265000B91609F452C2B11609F44FC2DD24D3945D
:10266000B91408F4D12C21E030E0B91448F5B110C8
:1026700002C030E020E04AE0429FC001439F900D3D
:102680001124069629883A88280E391E123061F5E1
:10269000992039F1C1010E94C108E1E0F0E0EC0F9E
:1026A000FD1FED0DF11D80831FC05AE0569FC00134
:1026B000579F900D11248E0F9F1F5FE0452760CF1D
:1026C000B91002C030E020E04AE0429FC001439FC1
:1026D000900D112406962B883C88280E391E123046
:1026E00019F4AE85A111D6CFF1019081858198139F
:1026F0000FC021813281868197812817390741F4E3
:1027000023813481808591852817390709F477C0A2
:10271000AF85B889D2961C92F10180819581891389
:102720000CC0811118C0838194810196A1F4D1015C
:1027300018968D919C91019671F06B2DC3010E94AA
:10274000390E123041F4C1010E94C108482F6D2D8D
:10275000C3010E94380DC1010E94C1088A87F1019E
:1027600021813281C90154E0969587955A95E1F708
:10277000982F917082E025FF80E0892B94E026FF5E
:1027800090E0892B98E027FF90E0892BA885B985F8
:1027900050968C93F10121813281FA85A901417013
:1027A0005527F230C1F582E090E021FD02C090E0B3
:1027B00080E0842B952BA885B98552969C938E93A7
:1027C0005197D10111962C9180E091E022FD02C039
:1027D00090E080E023FFF4C020E032E0E885F98556
:1027E00041895289842B952B822B932B928B818B41
:1027F00080919601823009F4E6C0FF24F394B394EB
:10280000888599850F9699878887AF85B8891196AD
:10281000B88BAF871ACF82E090E030FD02C090E025
:1028200080E0842B952B44E050E021FD02C050E075
:1028300040E0842B952B48E050E031FD02C050E091
:1028400040E0842B952B40E150E032FD02C050E087
:1028500040E0842B952B33FF8EC020E230E0822BAA
:10286000932BE885F985928B818BFA85F43009F0FA
:1028700088C0D10113964D915C9160E470E052FDE7
:1028800002C070E060E020E830E055FD02C030E0BA
:1028900020E0862B972BE0E0F4E053FD02C0F0E04F
:1028A000E0E0282B392B60E078E054FD02C070E0B6
:1028B00060E02E2B3F2B80E090E157FD02C090E0BE
:1028C00080E0262B372B282B392BE885F985328B96
:1028D000218BD10113962D913C91A901417055276F
:1028E00082E090E021FD02C090E080E0842B952BF7
:1028F00044E050E022FD02C050E040E0842B952BE4
:1029000048E050E023FD02C050E040E0842B952BCE
:1029100040E150E024FD02C050E040E0842B952BC4
:1029200040E250E025FD02C050E040E0842B952BB2
:1029300040E450E026FD02C050E040E0842B952B9F
:1029400040E850E027FD02C050E040E0842B952B8A
:1029500040E051E030FD02C050E040E0842B952B78
:1029600031FF0CC020E032E0822B932BE885F98503
:10297000948B838B26CF30E020E071CF30E020E0D5
:10298000F3CFFA85F53009F01CCFD10113962D91C4
:102990003C91A9014170552720FF02C040E450E05E
:1029A00021FF0BC020E830E0842B952B822B932B4A
:1029B000E885F985928B818B04CF30E020E0F4CF5D
:1029C00030E020E00BCFAD89BE898C9123018823B4
:1029D00009F455C0B9EC4B1ABEEF5B0A1F82ED2D0E
:1029E000F0E0EE0FFF1FE259FB4F20812B87D20151
:1029F000ED90FD900D911C91139714962C911497C6
:102A000015964C9115971696AC90169717968C9034
:102A1000BF81BC3010F5EA85E23091F4B83080F027
:102A20001F92C12C6B858D2D0E94C90B0F90FF81C9
:102A3000FF5FFF8328E0420E511CFE30C1F6DDCE61
:102A4000D10111968D919C918E219F21CC24C3940C
:102A5000892B09F4C12C1F92E5CFBA85B530D1F787
:102A6000F10163817481D801C7013CE0B695A79557
:102A7000979587953A95D1F786239723E7CF37EB3C
:102A8000430E511C1F828D2D90E0880F991FDC0191
:102A9000A259BB4FBC87AB87BA85B23061F5EF81D5
:102AA000E83000F5E43038F5F201E05AFF4FE080FD
:102AB000F18002811381D10111968D919C918E211B
:102AC0009F21CC24C394892B09F4C12C1F928780A9
:102AD000A68024814581EB85FC8560818D2D0E9437
:102AE000C90B0F90FF81FF5FFF8328E0420E511C4E
:102AF000FC3091F682CEF201DACF0981123059F41E
:102B000080914201801739F0011105C040E060E07A
:102B1000C3010E94380D009342011A8180919601F1
:102B2000823059F480914301811739F0111105C0A9
:102B300040E061E0C3010E94380D10934301109101
:102B40008006BD85B11760F4DB2E809196018D154E
:102B500039F06D2DC3010E94390ED394D116A8F31C
:102B6000ED85E09380068F2D66960FB6F894DEBF54
:102B70000FBECDBFDF91CF911F910F91FF90EF90CE
:102B8000DF90CF90BF90AF909F908F907F906F908D
:102B90005F904F903F902F900895FC0180913606F2
:102BA0009091370686179707A0F06115710529F4F3
:102BB0009091E8009E779093E80090E06115710590
:102BC00051F4911108C08091E80082FF35C080E087
:102BD0000895BC01F2CF809125078823C9F1853083
:102BE000C9F18091E80083FD31C08091E80082FD49
:102BF000EACF8091E80080FFE1CF2091F30080913F
:102C0000F200322F282F6115710519F0203431059B
:102C100058F091E02034310509F090E02091E8006F
:102C20002E772093E800CACF81918093F100615004
:102C300071092F5F3F4FE7CF80912507882341F02F
:102C4000853041F08091E80083FFBDCF81E0089599
:102C500082E0089583E008952091E4003091E5003A
:102C600085E69091EC0090FF06C09091E80090FFFF
:102C700006C080E008959091E80092FDFACF90910F
:102C80002507992391F0953091F09091EB0095FDF7
:102C900010C04091E4005091E5002417350709F376
:102CA00081509A01F1F684E0089582E0089583E06E
:102CB000089581E008958091300687FF13C08091C8
:102CC000E80082FF06C08091E8008B778093E800DF
:102CD00004C0809125078111F2CF089580912507C6
:102CE0008823D9F38091E80080FFF8CF8091E80035
:102CF0008E77ECCF982F973028F08F708093E90073
:102D000081E008959093E900242F762F50E09817E2
:102D100031F07091EC002091ED005091F00021FD18
:102D200002C09F5FE8CF3091EB003E7F3093EB0015
:102D30003091ED003D7F3093ED003091EB0031603C
:102D40003093EB007093EC002093ED005093F00073
:102D50002091EE0027FDE5CF80E0089542E050E0AD
:102D600060EE74E08EE397E00C941804CF93DF9349
:102D70000E94510BEC010E94AE168C0F9D1FDF913B
:102D8000CF9108950F931F93CF93DF93CDB7DEB705
:102D9000A4970FB6F894DEBF0FBECDBF182F83E007
:102DA000898380EC8A838BE18B8370E040E250E082
:102DB000CE0104960E94042D01E09E012C5D3F4F40
:102DC00043E2BE016F5F7F4F812F0E94E804A4960B
:102DD0000FB6F894DEBF0FBECDBFDF91CF911F912C
:102DE0000F9108950F931F93CF93DF93CDB7DEB765
:102DF000C754D1090FB6F894DEBF0FBECDBF182F50
:102E000083E0898380E88A8381E08B8370E040E2FD
:102E100050E0CE0104960E94042D01E09E01295B42
:102E20003F4F43E2BE016F5F7F4F812F0E94E80456
:102E30008091DB019091DC01A091DD0127968DAF9F
:102E40009EAFAFAF279700E29E012C5D3F4F43E05E
:102E5000BE016C5B7F4F812F0E94E804C95BDF4F8E
:102E60000FB6F894DEBF0FBECDBFDF91CF911F919B
:102E70000F910895EF92FF920F931F93CF93DF93DB
:102E80001F92CDB7DEB77C01FC018781198203E078
:102E9000970141E0BE016F5F7F4F0E94E804F70198
:102EA000833061F010821182128280E00F90DF91F6
:102EB000CF911F910F91FF90EF90089582818770BD
:102EC0008130C9F40BE811E0C8010197F1F76EEE0B
:102ED00087810E94F216C8010197F1F760E8F701B7
:102EE00087810E94F216C8010197F1F760E0F701AF
:102EF00087810E94C2168BE097E20197F1F781E08B
:102F0000D5CF2F923F924F925F926F927F928F9286
:102F10009F92AF92BF92CF92DF92EF92FF920F9368
:102F20001F93CF93DF93CDB7DEB7E5970FB6F89435
:102F3000DEBF0FBECDBF1C0180919106811152C032
:102F40008091920681114EC080918F06811109C037
:102F5000F101EA56FF4F808191810E943A178093D8
:102F60008F068093910680919006811109C0F1012E
:102F7000E856FF4F808191810E943A178093900616
:102F80008093920681E00E94190E07E027E04FE748
:102F900060E08EE397E00E94850B67E08EE397E0A8
:102FA0000E94E20960E08EE397E00E94EE098091C2
:102FB0009106882309F464C041E060E0C1010E94E9
:102FC0002D0C62E48EE397E00E94EE099091910649
:102FD0008091920691115BC0811159C082E993E002
:102FE0000E94510B1D8E1E8E10E0510124E9A20E8D
:102FF000B11CBBE86B2E772473948091960118174F
:1030000008F0F7C0E12EF12CF701E55BFF4FEE0F62
:10301000FF1FE20DF31DC080D180D501CD92DC925F
:10302000F701E357F94F4F011082F701EF56F94FBF
:103030008081882309F49DC097012157394F2901C8
:10304000D9018C9181112EC0C6010E943A178823A4
:1030500009F48FC021E0F2012083F701E557F94F11
:103060001082612FC1010E94390E41E0612FC10120
:103070000E942D0C7EC08EE893E00E94510BA1CFE0
:10308000809192068111F7CF82E993E0F6CF81110A
:1030900003C08EE893E0A4CF41E061E0C1010E944B
:1030A0002D0CA0CFD6018D919C91892BB9F1F60101
:1030B0006281862F8770813099F463FB882780F9BD
:1030C00090918206891761F0C3010197F1F763FBC4
:1030D000662760F987810E94C216C3010197F1F744
:1030E000F601828183FB882780F98093820687819D
:1030F000F1E0FE8B04E096012D5F3F4F41E0BE0101
:103100006A5E7F4F0E94E8048430A9F1D6011C92C8
:1031100011961C92119712961C9205C0C6010E942E
:103120003A178111C4CFD4018C91F701E557F94FBB
:10313000882309F450C01082F1019781911119C0C0
:10314000F501A081B181EE0CFF1CEE0CFF1CF1011A
:10315000EE0DFF1D95A9911105C081E097A9911170
:1031600001C080E012969C91129780FB93F9129611
:103170009C931F5F42CFD501ED91FC9187E0DE016A
:10318000569601900D928A95E1F787E0FE017696BA
:10319000DE011F9601900D928A95E1F7B7E0BE9D82
:1031A000C001BF9D900D1124E1E0F0E0EC0FFD1F88
:1031B0008E0F9F1F3E96DC0127E001900D922A950D
:1031C000E1F721E0DC018D919C91892B09F420E04D
:1031D000F4012083A8CF80818F5F8083823048F202
:1031E000D2011C921082612FC1010E94390E40E071
:1031F0003DCFD12CF101E656FF4FFDA7ECA7910181
:1032000025563F4F3FA72EA7A10143565F4F59AB0D
:1032100048ABC10184569F4F9BAB8AABD101A25FE3
:10322000BE4FBDABACAB80919601D81608F084C2FE
:103230006D2C712CF301E157F94F8081882309F43B
:103240005CC2F301E357F94F8081882309F455C22A
:1032500087E0869DF001879DF00D112421E030E08C
:103260002C0F3D1FE20FF31F2381822F82958F7059
:1032700090E0982F88279295907F2F7030E0322F22
:103280002227820F931F2481422F42954F7030E1F5
:10329000439FA0011124840F951F2F70AC01420F92
:1032A000511D58A34F8FC301880F991F9BA38AA359
:1032B000DC01A957B94F8D919C912581D301AB5762
:1032C000B94FBFA3AEA33C91231308C04681F301BD
:1032D000ED57F94F3081431709F457C2EDE1F0E0A3
:1032E000EC0FFD1FE60DF71D31E04F8D58A184173F
:1032F000950709F430E0308387E0869DF001879DD3
:10330000F00D112481E090E08C0F9D1FE80FF91F54
:10331000938193FB332730F982E092FF80E0832B87
:1033200097E0969DF001979DF00D1124A1E0B0E08B
:10333000AC0FBD1FEA0FFB1F938191FFE0C194E02A
:10334000892B97E0969DF001979DF00D112441E0A7
:1033500050E04C0F5D1FE40FF51F938190FFD1C12A
:1033600098E03FE0369DF001379DF00D1124E20D0D
:10337000F31D892B808B87E0869DF001879DF00DE2
:10338000112481E090E08C0F9D1FE80FF91F8481CC
:1033900082FB992790F99CA31DA280FFB4C182E013
:1033A00090E0ACA1BDA18A2B9B2B37E0369DF001AC
:1033B000379DF00D112441E050E04C0F5D1FE40FEC
:1033C000F51F348144E050E031FD02C050E040E0A0
:1033D000842B952B37E0369DF001379DF00D11249D
:1033E000A1E0B0E0AC0FBD1FEA0FFB1F348148E045
:1033F00050E033FD02C050E040E0842B952B37E0D5
:10340000369DF001379DF00D112441E050E04C0F46
:103410005D1FE40FF51F348140E150E035FD02C02F
:1034200050E040E0842B952B37E0369DF001379D2E
:10343000F00D1124A1E0B0E0AC0FBD1FEA0FFB1F9F
:10344000348140E250E034FD02C050E040E0842B83
:10345000952B37E0369DF001379DF00D112441E0AA
:1034600050E04C0F5D1FE40FF51F338140E450E046
:1034700036FD02C050E040E0842B952B37E0369DAE
:10348000F001379DF00D1124A1E0B0E0AC0FBD1F9D
:10349000EA0FFB1F338140E850E037FD02C050E0E7
:1034A00040E0842B952B37E0369DF001379DF00DE1
:1034B000112441E050E04C0F5D1FE40FF51F3381F4
:1034C00040E051E035FD02C050E040E0842B952BF8
:1034D00037E0369DF001379DF00D1124A1E0B0E0FA
:1034E000AC0FBD1FEA0FFB1F338140E052E034FDFB
:1034F00002C050E040E03FE0369DF001379DF00D06
:103500001124E20DF31D842B952B928B818B2F3B85
:103510000CF0FCC087E0869DF001879DF00D112422
:1035200021E030E02C0F3D1FE20FF31F8FEB85836E
:1035300087E0869DF001879DF00D112481E090E0E9
:103540008C0F9D1FE80FF91F86818F3B0CF0EFC099
:103550008FEB8683ACA5BDA58C90082C000C990838
:10356000AA08BB0887E0869DF001879DF00D112415
:1035700021E030E02C0F3D1FE20FF31F358139A30E
:10358000232F330F330B440B550B281939094A09E4
:103590005B09AFEFB0E00E94822BAEA5BFA52C91D6
:1035A000022E000C330B440B550B281939094A091C
:1035B0005B090E94632B822F2757233108F480E890
:1035C00090E02FE0269DF001279DF00D1124E20DE3
:1035D000F31D382F2227820F931F968B858BE8A926
:1035E000F9A9E0800E2C000CFF08000B110B87E0FE
:1035F000869DF001879DF00D112421E030E02C0F15
:103600003D1FE20FF31F9680292D092C000C330B70
:10361000440B550B2E193F09400B510BAFEFB0E097
:103620000E94822BAAA9BBA92C91022E000C330B5D
:10363000440B550B2E193F09400B510B0E94632B75
:10364000822F2757233108F480E890E02FE0269D51
:10365000F001279DF00D1124E20DF31D382F2227D4
:10366000820F931F908F878B2101BEE94B0E511C57
:103670004F8D58A19A0150E040E028A739A74AA7EA
:103680005BA7EAA1FBA1E259FB4FB080D201ED900C
:10369000FD900D911C9188A599A5AAA5BBA58E2189
:1036A0009F21A023B123CC24C394892B8A2B8B2B5D
:1036B00009F4C12C1F92F2018780A68024814581E4
:1036C0006B2D8D2D0E94C90BF8E04F0E511C0F90F1
:1036D0002CA93DA942165306C9F6EAA1FBA1E95758
:1036E000F94F4F8D58A151834083E9A1AEA1BFA1ED
:1036F000EC93F301ED57F94F9082D39494CD90E081
:103700001FCE90E02ECE90E080E04BCE22340CF421
:103710000FCF87E0869DF001879DF00D112441E0D9
:1037200050E04C0F5D1FE40FF51F81E400CF8234A1
:103730000CF410CF81E40DCF80918F06811104C06D
:1037400080919006882321F08BE097E20197F1F7B2
:103750008D8D811101C08E8DE5960FB6F894DEBF78
:103760000FBECDBFDF91CF911F910F91FF90EF90D2
:10377000DF90CF90BF90AF909F908F907F906F9091
:103780005F904F903F902F9008954F8D58A18417D0
:10379000950709F4B2CFA2CD0E94E92CEF92FF92D7
:1037A0000F931F93CF93DF9300D0CDB7DEB78091F7
:1037B0002507882309F4DBC08091E9008F70909180
:1037C000EC0090FF4FC090E8F92EF82A1092E90023
:1037D0008091E80083FFC7C0E0E3F6E08091F1004C
:1037E000819326E0E833F207C9F7E090310681E0E3
:1037F000E8121DC080913006813AC9F48091E8003A
:10380000877F8093E800809132069091330681157E
:10381000934051F568E070E080E091E00E94CD15A2
:10382000E0922E078091E8008B778093E8008091EA
:10383000E80083FF8AC080913006909131069A306B
:1038400008F083C0E92FF0E0E85DF34E0C94BE2B46
:10385000781C9E1CA51C9E1CA51CFF1C211DA51CC4
:10386000541F611F90E0B0CFE0912407E730D0F6FD
:10387000F0E0E35CF34E0C94BE2B441C4B1C501C3C
:10388000551C5A1C5F1C731C64E170E080E395E0DA
:103890000E94CD15C7CF60E470E08DE195E0F8CFD0
:1038A00060E470E085E195E0F3CF60E470E08DE0E6
:1038B00095E0EECF60E470E086E095E0E9CF81E04E
:1038C0008093020582E08093FF04809134069091FA
:1038D000350660E470E0892B19F482E095E0D8CFDA
:1038E0008FEF94E0D5CF60E470E08AEF94E0D0CF22
:1038F000803889F0823849F5809134068F7087309E
:1039000020F58093E9008091EB0085FB882780F902
:103910001092E90004C08091970681110DC090912A
:10392000E800977F9093E8008093F1001092F100F7
:103930008091E8008E7732C082E0F1CF282F2D7F72
:1039400021F48823E9F0823071F18091E80083FF4F
:103950000AC08091E800877F8093E8008091EB00A7
:1039600080628093EB008F2D8F708093E9000F9021
:103970000F90DF91CF911F910F91FF90EF900895DD
:1039800080913206813009F7933009F080E080930E
:1039900097061092E9008091E800877F8093E80005
:1039A0000E945B16D2CF809132068111F2CF8091B6
:1039B00034068F702FEF280F263038F68093E900F9
:1039C0002091EB0020FFE5CF933031F48091EB00A4
:1039D00080628093EB00DDCF9091EB00906190933B
:1039E000EB0021E030E001C0220F8A95EAF7209336
:1039F000EA001092EA008091EB008860EACF811122
:103A0000A4CF109132061F778091E3008078812B3C
:103A10008093E3008091E800877F8093E8000E9414
:103A20005B168091E80080FFFCCF8091E300806806
:103A30008093E30083E0111101C082E080932507A9
:103A400084CF8058823008F080CF209132063091A8
:103A500033061A821982832F99278330910509F43E
:103A60001CC1D0F481309105A9F1029709F45DC021
:103A700069817A816115710509F467CF8091E80049
:103A8000877F8093E800C8010E94CD158091E800EF
:103A90008B778093E80059CF8132910509F49FC15B
:103AA000829731F780912407843009F4E7C108F048
:103AB000BBC1813009F4C8C1833009F4D4C146E4E4
:103AC00050E06AE671E08AE995E00E94442B86E4C2
:103AD00090E0C4C180912407882399F0813001F1DE
:103AE00000919D0610919E0642E150E065EC70E069
:103AF00084E495E00E94442B0093500510935105F7
:103B000008C042E150E069EE70E084E495E00E9474
:103B1000442B82E190E09A83898304E415E0A8CFE6
:103B200042E150E067ED70E0F0CF00919C0610910B
:103B30002407113009F456C008F44DC0153009F4BB
:103B400096C01350143008F0A1C0E12FF0E0E45B00
:103B5000FB4F108149E050E064E171E086E595E0BB
:103B60000E94442B99E1099F902D1124975F909317
:103B7000580500935A05002309F48AC049E150E032
:103B80006BEF70E08FE595E00E94442B1092610589
:103B900010936F0581E880937305023008F478C0B4
:103BA00049E150E06BEF70E088E795E00E94442B1C
:103BB00081E080937A051093880582E880938C05D4
:103BC000023009F465C049E150E06BEF70E081E933
:103BD00095E00E94442B81E390E09A8389830BE176
:103BE00014E046CF49E050E068E571E086E595E0F5
:103BF0000E94442B99E1099F902D1124975F909387
:103C0000580500935A05002361F149E150E06FE344
:103C100071E08FE595E00E94442B109261054CE61F
:103C2000E42EE0926F0581E8809373050230C8F0BE
:103C300049E150E06FE371E088E795E00E94442B92
:103C400010937A05E092880582E880938C05023013
:103C500041F049E150E06FE371E081E995E00E94B5
:103C6000442BB9E10B9FC001112409960AC042E21E
:103C700050E06DE171E086E595E00E94442B82E220
:103C800090E09A83898306E515E0F2CE16E462CFD0
:103C9000E9E10E9FC0011124E8CFC90199278230C4
:103CA000910549F18330910509F441C081309105B6
:103CB00009F04AC080912407813089F444E351E03F
:103CC000DA010D900020E9F7AD014553514064E35E
:103CD00071E0CE0101960E94C4208C01C9CE47E25A
:103CE00051E0FA0101900020E9F7AF01485251403C
:103CF00067E271E0EECF80912407813061F445E105
:103D000051E0DA010D900020E9F7AD014651514034
:103D100065E171E0DECF48E051E0FA01019000205A
:103D2000E9F7AF014950514068E071E0D2CF6091AE
:103D30009A0670919B06FB0101900020E9F73197EC
:103D4000AF01461B570BC5CF69E174E0E1E02223C8
:103D500031F1253039F520E634E0E0E0FCE0FE0FFB
:103D6000D9011D919D018E2F90E0019670E060E0D9
:103D7000412F42954F7050E04D515B4FDA014C910D
:103D8000DC014C93EE5F90E0A12FAF70B0E0AD513D
:103D9000BB4F4C91DC0111964C93EF13E1CF4E2FAA
:103DA00050E097CF20912407880F991F222329F0F4
:103DB000213049F0805B9B4F02C08A599B4FFC0128
:103DC0006081718105C0885A9B4FDC016D917C91A7
:103DD000FB0101900020E9F73197E61BE0CF10913D
:103DE000240749E050E061E671E081E995E00E9436
:103DF000442B8BE5143079F040F48CE6113059F007
:103E000089E5133041F086E406C081E5153019F0EC
:103E100087E31630C1F78093980589E090E09A8394
:103E2000898301E915E024CE853099F1863009F0C7
:103E300046CE47E350E060EB71E08AE995E00E94EE
:103E4000442B87E390E00AC04CE650E06CEE72E051
:103E50008AE995E00E94442B8CE690E09A8389835E
:103E60000AE915E005CE49E550E063E972E08AE928
:103E700095E00E94442B89E590E0F0CF4BE550E0BF
:103E800068E372E08AE995E00E94442B8BE590E0BC
:103E9000E5CF41E550E067EE71E08AE995E00E94E8
:103EA000442B81E590E0DACF803809F04ECD809147
:103EB000E800877F8093E800809198068093F10066
:103EC00037CD811142CD10913206123008F03DCD30
:103ED0008091E800877F8093E800109398060E9405
:103EE0005B161123F9F084E08093250700912407E5
:103EF0000023F1F042E360EC82E00E947A1611E0C8
:103F000080919C06811708F420CD812F8F70873017
:103F100020F442E361EC0E947A16053009F415CDD5
:103F20001F5FEECF8091E30087FDDDCF81E0DCCF26
:103F300042E261EC81E00E947A1646E260EC82E0A7
:103F40000E947A1602CD0F931F93CF93DF938C01BB
:103F5000EB018091E80085FD10C08091E8008B772F
:103F60008093E8000E94CE1B0E942C16882389F3C0
:103F7000DF91CF911F910F9108958091F100F80189
:103F800081938F01219729F780E0F2CF1F920F9242
:103F90000FB60F9211242F933F938F939F93AF935C
:103FA000BF938091360790913707A0913807B09161
:103FB00039073091350723E0230F2D3758F5019647
:103FC000A11DB11D209335078093360790933707C5
:103FD000A0933807B093390780913A0790913B0737
:103FE000A0913C07B0913D070196A11DB11D8093A2
:103FF0003A0790933B07A0933C07B0933D07BF91CE
:10400000AF919F918F913F912F910F900FBE0F9085
:104010001F90189526E8230F0296A11DB11DD2CF3F
:104020001F920F920FB60F9211242F933F934F932D
:104030005F936F937F938F939F93AF93BF93EF9310
:10404000FF938091DA0080FF17C08091D80080FF35
:1040500013C08091DA008E7F8093DA008091D900BE
:1040600080FF86C080E189BD82E189BD09B400FE80
:10407000FDCF81E0809325078091E10080FF17C08C
:104080008091E20080FF13C08091E2008E7F8093D8
:10409000E2008091E20080618093E2008091D8008C
:1040A00080628093D80019BC85E0809325078091B9
:1040B000E10084FF26C08091E20084FF22C080E1FD
:1040C00089BD82E189BD09B400FEFDCF8091D80091
:1040D0008F7D8093D8008091E1008F7E8093E100F6
:1040E0008091E2008F7E8093E2008091E200816007
:1040F0008093E200809198068823F1F184E0809318
:1041000025078091E10083FF22C08091E20083FFB8
:104110001EC08091E100877F8093E10082E0809360
:104120002507109298068091E1008E7F8093E10030
:104130008091E2008E7F8093E2008091E2008061B6
:104140008093E20042E360E080E00E947A16FF91F3
:10415000EF91BF91AF919F918F917F916F915F91FF
:104160004F913F912F910F900FBE0F901F90189578
:1041700019BC1092250780CF8091E30087FD02C013
:1041800081E0BDCF83E0BBCFCF93DF93DC01403232
:10419000510514F04FE150E090E0292F30E0241752
:1041A000350784F04F5F5F4F440F551F4D935C936D
:1041B0005360509339064093380688E396E0DF91C8
:1041C000CF910895F901EE0FFF1FE65CF94F260F1E
:1041D000371FE9012881022E000C330B3183208325
:1041E0009F5FDBCFCF93DF93CDB7DEB729970FB6B5
:1041F000F894DEBF0FBECDBF789484B5826084BDD5
:1042000084B5816084BD85B5826085BD85B58160DA
:1042100085BD80916E00816080936E001092810058
:104220008091810082608093810080918100816013
:1042300080938100809180008160809380008091D4
:1042400091008260809391008091910081608093C1
:104250009100809190008160809390008091C100D6
:1042600084608093C1008091C10082608093C1000E
:104270008091C10081608093C1008091C300816002
:104280008093C3008091C00082608093C0008091C1
:10429000C20081608093C20080917A008460809324
:1042A0007A0080917A00826080937A0080917A000F
:1042B000816080937A0080917A00806880937A0090
:1042C00056985E9A10922E0790E080E00E944D2B47
:1042D000843008F083C080932907809129078230B9
:1042E00009F47EC0833009F498C0813009F03FC0E2
:1042F00087EA91E00E94C42B8C010E947A0384E833
:1043000094E0D8018D939C93F801EC56FF4F1482F2
:1043100015828AE09F012A5F3F4FD901B82E1D9276
:10432000BA94E9F7108A7196148215822F5E3F4F76
:10433000D9011D928A95E9F7108A71961082D801E9
:10434000A954BF4F80E8EEEDF1E001900D928A95FF
:10435000E1F7D801A95CBE4F80E7EEE5F2E00190FD
:104360000D928A95E1F71093300700932F07109272
:104370004F078CE380934E071092B90084E480933A
:10438000BC008CE08093B800109242071092430763
:10439000EBE8F6E0C590D490EDE8F6E0F490EEE8B6
:1043A000F6E0E491E0934407EFE8F6E0E491E0936F
:1043B0004507E0E9F6E0E491E093460710E000E00D
:1043C0000F1508F060C0F601E00FF11F64918EE355
:1043D00097E00E94DA090F5F1F4FF2CF81E07BCF99
:1043E00080E491E00E94C42B8C010E947A0386E94C
:1043F00094E0F80191838083C8018C569F4F0E94FE
:104400009908C80186549F4F0E949908D801A0526C
:10441000BF4F80E6EEECF2E0A2CF8EE091E00E948A
:10442000C42B8C010E947A0388EA94E0D8018D9312
:104430009C9388E090E00E94C42B25E1FC01278337
:10444000F801EA56FF4F9183808388E090E00E9454
:10445000C42B25E0DC0117962C93F801E856FF4F9A
:104460009183808332969FEB9083319681E48083A1
:104470003196908331968083D801A256BF4F80E752
:10448000EEE2F3E06CCF8EE397E00E94BA0B61E8B6
:104490008EE397E00E94DA0961E08EE397E00E94E4
:1044A000DA09E0EAF4E0F0934A07E09349078491DF
:1044B000E1EAF4E0E491F82F319709F0F1C01092AD
:1044C00047078EE397E00E94BA0B11E010934C0768
:1044D0006EE18EE397E00E94EE0982E080934C0744
:1044E00089E994E00E94510B10934C0762E08EE33F
:1044F00097E00E94E2090E94EC0D81E090E00E94AA
:104500004D2B873008F080E0A0912F07B091300745
:1045100017968C931797ED91FC9111970190F0816C
:10452000E02DCD01099564E170E080E090E00E940B
:10453000E60380912F0790913007DC01ED91FC910B
:104540000280F381E02D099564E170E080E090E065
:104550000E94E60380912F0790913007DC01ED91D6
:10456000FC910280F381E02D0995A0912F07B09175
:10457000300751968C91519780FF96C081E0179635
:104580008C9317974E99B6C017961C918EE397E0BF
:104590000E94BA0B45E050E064EF74E08EE397E0D0
:1045A0000E9418040E94AE166CED75E080E090E069
:1045B0000E94E6038EE397E00E94BA0B8CE894E039
:1045C0000E94B6168EE794E00E94B61681E794E04A
:1045D0000E94B61664EF71E080E090E00E94E6036E
:1045E00081E0812C912C540101E0FF24F3944E9939
:1045F00061C0F12C813089F48FB7F8948090360730
:1046000090903707A0903807B09039078FBF60E1CE
:1046100070E080E090E00E94E6032FB7F89480916C
:10462000360790913707A0913807B09139072FBF0F
:1046300088199909AA09BB09893E9340A105B105CA
:1046400010F40C94302B8EE397E00E94BA0B89E6AD
:1046500094E00E94B61682E694E00E94510B812FEE
:104660000E946C0B0E94AE160E94AE168EE494E07F
:104670000E94510B60ED77E080E090E00E94E6033D
:10468000612F81E090E00E94552B88E19EE00FB6FB
:10469000F894A895809360000FBE90936000FFCFC0
:1046A00081E0809347070DCF81FF6CCF17961C9256
:1046B000179768CF81110C942D2B60E170E080E09A
:1046C00090E00E94E60381E0011106C0882379F0A2
:1046D0001F5F133008F010E007E025E04FE760E0CF
:1046E0008EE397E00E94850B812F0E946C0B00E007
:1046F0008F2D7BCFED91FC9111970484F585E02DF2
:10470000CD01099561E08EE397E00E94E20960E047
:104710008EE397E00E94EE09E0912F07F0913007B9
:10472000878181111DC188E50E94800B80912F0730
:104730009091300721E032E0DC0114963C932E93F7
:104740001397ED91FC910084F185E02D09958C0182
:1047500080912F0790913007DC01ED91FC9102844C
:10476000F385E02D099520919601E0912F07F091B6
:10477000300737813093240790939E0680939D06DF
:1047800020939C0610939B0600939A0684B7877F1C
:1047900084BF0FB6F894A8958091600088618093DB
:1047A0006000109260000FBE80E830E020E00FB69D
:1047B000F89480936100209361000FBE8091D8002F
:1047C0008F7E8093D8008091D70081608093D7003E
:1047D00084E082BF81E0809399068091D8008E7F2B
:1047E0008093D8001092E2001092DA001092E1005B
:1047F0008091D8008F778093D8008091D80080680E
:104800008093D8008091D8008F7D8093D80019BC08
:104810001092250710929806109297068091E0005A
:104820008B7F8093E0008091D80081608093D800D6
:1048300042E360E080E00E947A168091E1008E7F82
:104840008093E1008091E20081608093E20080919A
:10485000E20088608093E2008091E0008E7F809388
:10486000E0008091D80080618093D80078940E9405
:10487000C103009131071091320720913307309125
:104880003407AB01BC01401B510B620B730B8091D1
:10489000970190919801B0E0A0E0C12C481759070A
:1048A0006A077B07B0F080912F0790913007DC01F9
:1048B000ED91FC910280F381E02D0995C82E0E94B4
:1048C000C10360933107709332078093330790934D
:1048D0003407D12C80919601D81608F01CC680911F
:1048E0002F0790913007DC01ED91FC910680F78154
:1048F000E02D6D2D099500912F0710913007ED2CBB
:10490000F12CF8018781843009F487C108F037C0A1
:10491000882309F469C093E1813009F400C298E06A
:10492000833009F0B8C18FE08E9DF0018F9DF00DAE
:104930001124E00FF11FE089EF70E150EA3008F038
:10494000A9C3F0E0EA55FB4D0C94BE2BD5274228B5
:104950004A284628482844284A283E283A284028F9
:10496000813011F483E5E0CE823011F488E4DCCEAE
:104970008350843010F48DE4D7CE85E4D5CE8530D5
:1049800009F469C195E0863009F0C9CF8FE08E9DAA
:10499000F0018F9DF00D1124E00FF11F2189328964
:1049A000A9014170552782E021FF80E0842B22FF7E
:1049B00067C424E0822B80939F068FE08E9DF001D8
:1049C0008F9DF00D1124E00FF11F2589368930935A
:1049D000A1062093A0062789308D3093A30620934B
:1049E000A2062FE936E08EC094E18FE08E9DF001A3
:1049F0008F9DF00D1124E00FF11F2089822F81700F
:104A000032E021FF30E0832B34E022FF30E0832BC3
:104A100023FF6FC128E0822B2FE02E9DF0012F9DF8
:104A2000F00D1124E00FF11F2189328940E131FF9F
:104A300040E0842B40E230FF40E0842B40E432FF32
:104A400040E0842B40E833FF40E0842B8093520108
:104A5000A901E4E056954795EA95E1F7417082E0B7
:104A600025FF80E0842B44E034FF40E0842B40E1CC
:104A700020FF40E0842B40E221FF40E0842B40E413
:104A800022FF40E0842B40E823FF40E0842B80930A
:104A900053018FE08E9DF0018F9DF00D1124E00FEA
:104AA000F11F45895689505850935701409356013C
:104AB0004FEF5FE76789708DDA01A61BB70BB093E4
:104AC0005901A0935801618D728D705870935B01EC
:104AD00060935A01638D748D461B570B50935D0193
:104AE00040935C01D801AE0DBF1D9E968C9188232A
:104AF00009F401C1858D80935401868D8093550101
:104B000020E531E03093280720932707909326076C
:104B100080912507843009F074C082E08093E90019
:104B20008091E80082FF2AC08091E80085FF21C0C3
:104B3000809124078111C2C40E942C16811108C0E3
:104B400050E040E068E070E0CE0101960E94A31FB3
:104B5000898181110EC08A81883059F4F701EE0FE6
:104B6000FF1FEE0FFF1FE00FF11F8C8185AB8D81C2
:104B700087AB8091E8008B778093E800870186E01F
:104B8000000F111F8A95E1F70C55194F4091260728
:104B900050E06091270770912807C8010E94EE2C11
:104BA000892B79F180912407853009F094C481E044
:104BB0008093E9008091E80080FF23C0E090260701
:104BC000A0902707B09028070E942C16F12C88236C
:104BD00009F494C48091E8008E778093E800E09017
:104BE0002607F12CA0902707B0902807A701B50150
:104BF000C8010E94FB2CA70170E060E0C5010E9483
:104C0000042D0E94CE1BE0912F07F0913007878181
:104C1000882309F480C4D3945DCE97E08FE08E9D05
:104C2000F0018F9DF00D1124E00FF11FE089EF706E
:104C3000E150EA3008F09BC2F0E0EF5DF94D0C94D2
:104C4000BE2B4C28AF28B728B328B528B128B728E1
:104C5000AB28A728AD2894E0DD2019F093E0D1100F
:104C600002C381E080938601D8015096EC91EF70E9
:104C7000E150EA3008F0F2C2F0E0EF5BF94D0C943D
:104C8000BE2BB92826292E292A292C2928292E2964
:104C900022291E292429843018F5882309F4A5CE59
:104CA000813009F43CC08FE08E9DF0018F9DF00DA6
:104CB0001124E00FF11FE089EF70E150EA3008F0B5
:104CC000F8C3F0E0EA59F94D0C94BE2B4229512A61
:104CD000592A552A572A532A592A4D2A492A4F2AEE
:104CE000853009F4BCCF08F499CF863009F44ECE54
:104CF000DACF20E090CEA90166E0569547956A95F7
:104D0000E1F74170419540935401220F232F221F58
:104D1000330B31952170219520935501F1CE8FE011
:104D20008E9DF0018F9DF00D1124E00FF11F808901
:104D3000E82FEF70E150EA3008F028C1F0E0ED55BF
:104D4000F94D0C94BE2BAD26BE27C627C227C4271B
:104D5000C027C627BA27B627BC27109266012FE0C6
:104D60002E9DF0012F9DF00D1124E00FF11F2189E0
:104D700032891901B1E02B223324E2E0F0E020FD7A
:104D800002C0F0E0E0E0B90162707727A4E0B0E093
:104D900021FD02C0B0E0A0E05901B694A794B694FA
:104DA000A7944A2D41704987AF01B9844B294A2BFA
:104DB0005B2BF901E870FF27A8E0B0E023FD02C0FB
:104DC000B0E0A0E04A2B5B2B5901A0E1AA22BB2452
:104DD000A0E1B0E024FD02C0B0E0A0E04A2B5B2BD4
:104DE0004901B0E28B229924A0E2B0E025FD02C087
:104DF000B0E0A0E04A2B5B2B3901A0E46A227724C3
:104E0000A0E4B0E026FD02C0B0E0A0E0A42BB52BEA
:104E1000290140E84422552440E850E027FD02C023
:104E200050E040E0A42BB52BA9014427517030FF7E
:104E300002C040E051E0A42BB52BA90144275270D9
:104E400031FF02C040E052E0A42BB52BA90144275A
:104E5000547032FF02C040E054E0A42BB52BA901EE
:104E60004427587033FF02C040E058E0A42BB52B14
:104E7000A9014427507134FF02C040E050E14A2BA1
:104E80005B2BD901AA27B07235FF02C0A0E0B0E2C7
:104E90004A2B5B2B50936501409364012FE02E9DBC
:104EA000D0012F9DB00D1124A00FB11F56962C914B
:104EB00056972093670158962C9158972093680134
:104EC0005A962C915A97209369015C962C912093C5
:104ED0006A01282F2870219520936B01282F2470B8
:104EE000219520936C01282F2170219520936D012D
:104EF0008270819580936E0181E0EF2B09F480E050
:104F0000819580936F0181E0672B09F480E08195A2
:104F100080937001219420927101498541954093BD
:104F2000720181E0AB2809F480E0819580937301E0
:104F300081E0892809F480E0819580937401F8016B
:104F4000EE0DFF1D86A5882319F18FE08E9DF001DF
:104F50008F9DF00D1124E00FF11F858D8093750159
:104F6000868D8093760124E631E0CCCD21E020933C
:104F70006601F5CE22E0FBCF23E0F9CF24E0F7CFA6
:104F800025E0F5CF26E0F3CF27E0F1CF28E0EFCF03
:104F900081E0672809F480E081958093750181E0C4
:104FA000452809F480E08195DCCF109279018FE0EB
:104FB0008E9DF0018F9DF00D1124E00FF11F2189CE
:104FC00032898091770120FB81F9A9015695479597
:104FD00040FB82F9B9017695679576956795A901A9
:104FE000B3E056954795BA95E1F760FB80F940FB31
:104FF00083F9A90164E0569547956A95E1F740FB6E
:1050000084F9A90175E0569547957A95E1F740FB3B
:1050100085F9A901A6E056954795AA95E1F740FBC9
:1050200086F9A901440F452F441F550B519540FBAC
:1050300087F9809377018091780130FB80F931FB0B
:1050400081F932FB82F933FB83F934FB84F98093D5
:105050007801868980937A01208D20937B01228DAF
:1050600020937C01248D20937D0180937E0127E78E
:1050700031E048CD81E08093790199CF82E0FBCF88
:1050800083E0F9CF84E0F7CF85E0F5CF86E0F3CF7A
:1050900087E0F1CF88E0EFCF109285018FE08E9D01
:1050A000F0018F9DF00D1124E00FF11F218932894D
:1050B0008091800120FB86F9A9015695479540FB18
:1050C00085F9A901569547955695479540FB87F96F
:1050D000A90163E0569547956A95E1F740FB84F98D
:1050E000A90174E0569547957A95E1F740FB82F95E
:1050F000A901A5E056954795AA95E1F740FB83F9EC
:10510000B901B6E076956795BA95E1F7A901440F24
:10511000452F441F550B519560FB80F940FB81F9E9
:105120008093800180917F0130FB82F931FB83F90C
:1051300032FB80F933FB81F980937F01858980936D
:1051400084018389809383012FE731E0DBCC81E008
:1051500080938501A3CF82E0FBCF83E0F9CF84E089
:10516000F7CF85E0F5CF86E0F3CF87E0F1CF88E099
:10517000EFCF10928901F801418952899A0121707B
:10518000332762E070E041FD02C070E060E0262B52
:10519000372B60E170E042FD02C070E060E0262B3A
:1051A000372B68E070E043FD02C070E060E0262B22
:1051B000372B60E470E044FD02C070E060E0262B15
:1051C000372B60E870E045FD02C070E060E0262B00
:1051D000372B60E071E046FD02C070E060E0262BF6
:1051E000372B60E072E047FD02C070E060E0262BE4
:1051F000372B60E074E050FD02C070E060E0262BC9
:10520000372B60E078E051FD02C070E060E0262BB3
:10521000372B60E070E252FD02C070E060E0262BA8
:10522000372B53FF1DC040E050E4242B352B309327
:1052300088012093870126E831E064CC81E08093E7
:10524000890199CF82E0FBCF83E0F9CF84E0F7CFEB
:1052500085E0F5CF86E0F3CF87E0F1CF88E0EFCFB0
:1052600050E040E0E2CF82E080939201D801539673
:105270008C91809393011092940122E931E042CC09
:1052800020E098CB10928D018FE08E9DF0018F9DD4
:10529000F00D1124E00FF11F41895289BA016170AC
:1052A000772722E030E041FD02C030E020E0262BED
:1052B000372B60E170E042FD02C070E060E0262B19
:1052C000372B68E070E043FD02C070E060E0262B01
:1052D000372B60E470E044FD02C070E060E0262BF4
:1052E000372B60E870E045FD02C070E060E0262BDF
:1052F000372B60E071E046FD02C070E060E0262BD5
:10530000372B60E072E047FD02C070E060E0262BC2
:10531000372B60E074E050FD02C070E060E0262BA7
:10532000372B60E078E051FD02C070E060E0262B92
:10533000372B60E070E252FD02C070E060E0262B87
:10534000372B60E070E453FD02C070E060E0262B74
:10535000372B54FFB0C040E050E1242B352B8FE0B9
:105360008E9DF0018F9DF00D1124E00FF11F6389D8
:10537000748944E050E060FD02C050E040E0242B1E
:10538000352B40E250E061FD02C050E040E0242BAC
:10539000352B032E000C440B612CE0E87E2E812C73
:1053A00062FD03C0612C712C812C262937294829E4
:1053B000612C712C8824839463FD03C0612C712CB3
:1053C000812C262937294829612C712C82E0882ECE
:1053D00064FD03C0612C712C812C262937294829B2
:1053E000612C712CB4E08B2E65FD03C0612C712CF7
:1053F000812C262937294829612C712CA8E08A2E76
:1054000066FD03C0612C712C812C2629372948297F
:10541000612C712CF0E18F2E67FD03C0612C712C83
:10542000812C262937294829612C712CE0E28E2E07
:1054300070FD03C0612C712C812C26293729482945
:10544000612C712C50E4852E71FD03C0612C712CF0
:10545000812C26293729482920938A0130938B01F2
:1054600040938C018FE08E9DF0018F9DF00D1124F3
:10547000E00FF11F868980938E01808D80938F01CC
:10548000828D80939001848D809391012AE831E090
:1054900039CB81E080938D01F7CE82E0FBCF83E0B2
:1054A000F9CF84E0F7CF85E0F5CF86E0F3CF87E052
:1054B000F1CF88E0EFCF50E040E04FCF0E942C16B4
:1054C000811157CB50E040E067E070E0CE010196DB
:1054D0000E94A31F4ECB81E08D0D8F7069CB809110
:1054E000E80085FD0FC08091E8008E778093E8008A
:1054F0000E94CE1B0E942C1681116CCBE114F1048A
:1055000071F768CBF50181915F018093F100F1E0C3
:10551000EF1AF108F3CF80912E07882379F01092CB
:105520002E0761E08EE397E00E94E20960E08EE3DF
:1055300097E00E94EE0980E50E94800B8FB7F894F7
:105540008090360790903707A0903807B0903907C1
:105550008FBFCC2039F080919501811135C081E059
:105560000E94190E809195018823B9F080912A0735
:1055700090912B07A0912C07B0912D07881A990ABA
:10558000AA0ABB0A20EC821624ED920621E0A206AC
:10559000B10418F080E00E94190E4E990DC06CE223
:1055A00071E080E090E00E94E60380919501811116
:1055B00014C081E00E94190E80E090E0892B09F46C
:1055C00056C90E94000053C980922A0790922B0767
:1055D000A0922C07B0922D07C5CFF09029070E940A
:1055E00018080E94EC0D10E000E062E070E080E03E
:1055F00090E00E94E6034E990CC06CE271E080E0FE
:1056000090E00E94E6030E9418080E94EC0D10E052
:1056100000E00F5F1F4F003D47E0140731F7609136
:105620002907F61203C00E94EC0DC6CF90E080E07F
:105630000E94552B8EE397E00E94BA0B81E996E019
:105640000E94510B88E19EE00FB6F894A8958093D4
:1056500060000FBE90936000FFCF80E00C94642345
:1056600001110C946C230C947723EEE3F7E0138282
:105670001282128614861386158681E0868786E755
:1056800094E0918380830895FB01DC0102C00590C2
:105690000D9241505040D8F70895F999FECF92BD30
:1056A00081BDF89A992780B50895262FF999FECFE4
:1056B0001FBA92BD81BD20BD0FB6F894FA9AF99A2F
:1056C0000FBE01960895052E97FB1EF400940E94CC
:1056D0007A2B57FD07D00E948D2B07FC03D04EF488
:1056E0000C947A2B50954095309521953F4F4F4F14
:1056F0005F4F089590958095709561957F4F8F4F7E
:105700009F4F08950E94AF2BA59F900DB49F900DC1
:10571000A49F800D911D11240895A1E21A2EAA1BA9
:10572000BB1BFD010DC0AA1FBB1FEE1FFF1FA21751
:10573000B307E407F50720F0A21BB30BE40BF50B4E
:10574000661F771F881F991F1A9469F760957095D7
:10575000809590959B01AC01BD01CF010895A29F5A
:10576000B001B39FC001A39F700D811D1124911D35
:10577000B29F700D811D1124911D0895EE0FFF1F22
:105780000590F491E02D09940F931F93CF93DF932D
:105790008230910510F482E090E0E0915207F091A0
:1057A000530730E020E0B0E0A0E0309799F42115F5
:1057B000310509F44AC0281B390B24303105D8F5CE
:1057C0008A819B816115710589F1FB019383828335
:1057D000FE0111C040815181028113814817590790
:1057E000E0F04817590799F4109761F012960C935E
:1057F000129713961C933296CF01DF91CF911F9190
:105800000F9108950093520710935307F4CF211579
:10581000310551F04217530738F0A901DB019A0115
:10582000BD01DF01F801C1CFEF01F9CF909353071C
:1058300080935207CDCFFE01E20FF31F8193919326
:105840002250310939832883D7CF209150073091D6
:105850005107232B41F420919B0130919C013093FF
:105860005107209350072091990130919A012115F9
:10587000310541F42DB73EB740919D0150919E01F5
:10588000241B350BE0915007F0915107E217F30705
:10589000A0F42E1B3F0B2817390778F0AC014E5FA0
:1058A0005F4F2417350748F04E0F5F1F5093510785
:1058B00040935007819391939FCFF0E0E0E09CCF1D
:1058C000CF93DF930097E9F0FC01329713821282A5
:1058D000A0915207B0915307ED0130E020E01097FE
:1058E000A1F420813181820F931F209150073091C4
:1058F00051072817390709F061C0F0935107E09369
:105900005007DF91CF910895EA01CE17DF07E8F540
:105910004A815B819E0141155105B1F7E901FB8385
:10592000EA8349915991C40FD51FEC17FD0761F423
:10593000808191810296840F951FE9019983888364
:10594000828193819B838A83F0E0E0E012968D91BF
:105950009C9113970097B9F52D913C911197CD012A
:105960000296820F931F20915007309151072817FC
:10597000390739F6309751F51092530710925207B4
:10598000B0935107A0935007BCCFD383C28340810B
:105990005181840F951FC817D90761F44E5F5F4F7F
:1059A00088819981480F591F518340838A819B8147
:1059B000938382832115310509F0B0CFF09353070B
:1059C000E09352079ECFFD01DC01C0CF138212820B
:1059D000D7CF81E090E0F8940C940B2DFB01DC0113
:1059E00004C08D910190801921F441505040C8F7B6
:1059F000881B990B0895FB01DC0102C001900D92F8
:105A000041505040D8F70895DC0101C06D934150DA
:0A5A10005040E0F70895F894FFCF2E
:105A1A0021260107000000005265666C6578204166
:105A2A006461707400504F4B4B454E20434F4E54A7
:105A3A00524F4C4C4552004D69535465724164644F
:105A4A006F6E7300484F524920434F2E2C4C5444DA
:105A5A002E00010101010101010101010101010100
:105A6A00001400000000FF7FFF7FFF7FFF7F000020
:105A7A000000000000000880808080000000000014
:105A8A000000000000000000000880808080800084
:105A9A0000000000000801000008000000088080E3
:105AAA0080800200000101C8000000540780000045
:105ABA0000000000FF7FFF7FFF7FFF7F00000000E4
:105ACA00000000FF7FFF7FFF7FFF7F000000FFFFD6
