:100000000C9464030C948C030C948C030C948C035C
:100010000C948C030C948C030C948C030C948C0324
:100020000C948C030C948C030C9421270C948C035B
:100030000C948C030C948C030C948C030C948C0304
:100040000C948C030C948C030C948C030C948C03F4
:100050000C948C030C948C030C948C030C94111E44
:100060000C948C030C948C030C948C030C948C03D4
:100070000C948C030C948C030C948C030C948C03C4
:100080000C948C030C948C030C948C030C948C03B4
:100090000C948C030C948C030C948C030C948C03A4
:1000A0000C948C030C948C030C948C03AED580A818
:1000B0003FD300408D142002A1C8DA12817FD9F10C
:1000C000DB40A4A6AF1201000200000040D0167E63
:1000D0001200010102030112010002000000400DA4
:1000E0000F920000010102030112010002FFFFFF55
:1000F000405E048E021401010203010904000001A4
:1001000003000000092111010001224600070581BA
:10011000034000010902220001010080320902228D
:100120000001010080320904000001030000000901
:10013000211101000122510007058103400001093E
:1001400004000001030000000921110100012256F2
:100150000007058103400001090229000101008018
:10016000FA09211101000122460005010905A1013A
:10017000150025013500450175019518050919017E
:100180002918810205012507463B01750495016583
:10019000140939814265009501810126FF0046FF5F
:1001A000000930093109350936750895048102C006
:1001B00005010905A10105091901290315002501FA
:1001C0007501950355006500810275019505810350
:1001D00005010901150026FF0375109502A100090C
:1001E0003009318102C0C005010905A1018501A1C5
:1001F0000005091901290C150025019510750181CB
:100200000205010939150025073500463B0175082F
:10021000950165148142C0C005010902A101850252
:100220000901A100093009311581257F3581457FFC
:10023000950275088106C0C005010904A101A1004D
:100240000509190129101500250195107501810274
:1002500005010901A100093009311580257F9502AA
:1002600075088102C009371580257F9501750881C1
:10027000060938150026FF00950175088102093925
:10028000150025073500463B017508950165148169
:1002900042C0C005010905A1011500250135004531
:1002A000017501950E05091901290E81029502813A
:1002B0000105012507463B017504950165140939BF
:1002C000814265009501810126FF0046FF0009304B
:1002D000093275089502810205027508950315001B
:1002E00026FF0009BB09C509C88102C0050109052F
:1002F000A10115002501350045017501951005097D
:1003000019012910810205012507463B0175049555
:100310000165140939814265009501810126FF00BC
:1003200046FF000930093109320935750895048105
:10033000020600FF092009210922092309240925B1
:100340000926092709280929092A092B950C810260
:100350000A21269508B102C056424F59004E545406
:1003600000534E4553004E4553004D554C54492DB6
:1003700054415000504144004E2F410053574954BE
:100380004348004552524F52004849440058494E94
:10039000505554004E45532B534E45532B56424F08
:1003A0005900574949004E3634204D4F524520528E
:1003B000414E474500000000002300260029002C84
:1003C000002F0000000000250028002B002E003127
:1003D0000000000000240027002A002D0030000447
:1003E00004040404030405020202020403020202DC
:1003F00002060606060606040402020204040408B5
:10040000020110408040102040804080080204011A
:100410008040201002011080102040402000030C7A
:100420000F30333C3FC0C3CCCFF0F3FCFF44455604
:100430004943452057494C4C20524553544152544E
:10044000004D4F44453A20005341564544210A008F
:10045000484F4C443A2020534156450A00505245DB
:1004600053533A204348414E4745004F5554505549
:1004700054204D4F44450A005245464C4558000013
:100480000005072061000000000000005F00006020
:1004900070787060605048506003070F07030305D1
:1004A000090503081C3E7F7F081C22417F7F7F3E99
:1004B0001C087F41221C08082A1C2A0808083E083C
:1004C00008005030000008080808080060600000BC
:1004D00020100804023E5149453E00427F40004240
:1004E000615149462141454B311814127F1027456F
:1004F0004545393C4A4949300171090503364949A6
:100500004936064949291E00363600003C7E7E7E6B
:100510003C3C4242423C1414141414F0F0F0F0F04D
:10052000F0909090F0324979413E7E1111117E7F1A
:10053000494949363E414141227F4141221C7F4980
:100540004949417F090901013E414151327F080873
:10055000087F00417F41002040413F017F08142275
:10056000417F404040407F0204027F7F0408107FAB
:100570003E4141413E7F090909063E4151215E7FCE
:1005800009192946464949493101017F01013F4086
:1005900040403F1F2040201F7F2018207F63140809
:1005A00014630304780403615149454300007F410B
:1005B00041020408102041417F0000383C1E0F0713
:1005C0004040404040382412090720545454787F5A
:1005D000484444383844444420384444487F3854DC
:1005E000545418087E090102081454543C7F08042E
:1005F000047800447D40002040443D00007F1028E6
:100600004400417F40007C041804787C080404788E
:1006100038444444387C14141408081414187C7C9E
:10062000080404084854545420043F4440203C40EB
:1006300040207C1C2040201C3C4030403C44281082
:1006400028440C5050503C4464544C44E0E0E0E0FA
:10065000E000007F0000E0A0A0A0E008082A1C083D
:10066000081C2A08080006090906AC001980400089
:100670005245424F4F54494E472E2E2E004E4F4E5C
:1006800045004E4F5420535550504F52544544004E
:1006900044524157534F4D45005544524157005421
:1006A00055524E5441424C45004452554D00475519
:1006B0004954415200434C4153534943004E554E17
:1006C0004348554B0000273211241FBECFEFDAE01C
:1006D000DEBFCDBF15E0A0E0B1E0EEE1F8E602C07C
:1006E00005900D92AC31B107D9F727E0ACE1B5E048
:1006F00001C01D92A13BB207E1F713E0C4E6D3E0CD
:1007000004C02197FE010E94C032C336D107C9F749
:100710000E9403280C940D340C940000CF93DF93B7
:10072000EC018CED94E0998388831A8280E093E059
:100730009C838B8380E09CE09E838D831F82188640
:1007400081E089878EE1EDE9F1E0DE0150960190CC
:100750000D928A95E1F71FA61EA619AA18AA1BAA30
:100760001AAAFE01F49688E0DF011D928A95E9F746
:100770001CAE1DAE1FAE1EAE3C961182108232968C
:100780008FEF9FE7918380833296918380833296A7
:100790009183808332969183808332961082C55BE9
:1007A000DF4F1882DF91CF9108953FB7F894809181
:1007B000970790919807A0919907B0919A0726B54D
:1007C000A89B05C02F3F19F00196A11DB11D3FBF89
:1007D000BA2FA92F982F8827BC01CD01620F711D58
:1007E000811D911D42E0660F771F881F991F4A9552
:1007F000D1F708958F929F92AF92BF92CF92DF92DE
:10080000EF92FF924B015C010E94D5036B017C01CA
:100810000E94D5036C197D098E099F09683E7340BB
:1008200081059105A8F321E0821A9108A108B10879
:1008300088EEC80E83E0D81EE11CF11C81149104DF
:10084000A104B10429F7FF90EF90DF90CF90BF9003
:10085000AF909F908F9008952FB7F8946091930771
:100860007091940780919507909196072FBF0895F6
:100870004F925F926F927F92AF92BF92CF92DF9230
:10088000EF92FF920F931F93CF93DF93EC016B01D5
:100890007B01E40EF51E8B015801AC18BD080E1546
:1008A0001F0511F10E942C04688779878A879B872E
:1008B000E881F9810284F385E02DCE01099597FF47
:1008C00023C00E942C04488459846A847B84641960
:1008D0007509860997094C805D806E807F8064155C
:1008E00075058605970520F3C501DF91CF911F910E
:1008F0000F91FF90EF90DF90CF90BF90AF907F90DF
:100900006F905F904F900895F80181938F01C4CF4D
:10091000AF92BF92CF92DF92EF92FF920F931F930D
:10092000CF93DF936C017B018B01040F151FEB014B
:100930005E01AE18BF08C017D10759F06991D60102
:10094000ED91FC910190F081E02DC6010995892B74
:1009500079F7C501DF91CF911F910F91FF90EF9033
:10096000DF90CF90BF90AF900895CF93DF93EC01CD
:100970008A85882329F081508A87DF91CF91089555
:100980009C818E819817C8F78D856827E881F98149
:100990000084F185E02D42E0CE0109958C818F5FC6
:1009A0008C83EBCF81E00895CF93DF93EC01E88156
:1009B000F9810280F381E02D0995EA81FB81928122
:1009C000981731F0813011F4911103C080E001C01B
:1009D00081E0DF91CF91089581E0089583E008954B
:1009E000DC011296ED91FC91139714968C91811174
:1009F0000BC0808590E023E0959587952A95E1F7D7
:100A000080959095817008958285F4CFDC011296CF
:100A1000ED91FC91139714968C9181110BC08085F8
:100A200090E024E0959587952A95E1F7809590953B
:100A3000817008958285F4CFDC011296ED91FC91CE
:100A4000139714968C9181110AC0808590E095953A
:100A50008795959587958095909581700895828565
:100A6000F5CFDC011296ED91FC91139714968C91C1
:100A700081110AC0818590E0959587959595879518
:100A800080959095817008958385F5CFDC0112964D
:100A9000ED91FC91139714968C9181110AC0818578
:100AA00090E0880F892F881F990BB1E08B27817008
:100AB0000895838590E0880F892F881F990B21E086
:100AC0008227F5CFDC011296ED91FC9113971496D5
:100AD0008C91811108C0808590E0959587958095CF
:100AE0009095817008958285F7CFDC011296ED9183
:100AF000FC91139714968C9181110BC0808590E026
:100B000025E0959587952A95E1F7809590958170D8
:100B100008958285F4CFDC011296ED91FC91139734
:100B200014968C9181110BC0818590E025E09595FC
:100B300087952A95E1F78095909581700895838532
:100B4000F4CFDC011296ED91FC91139714968C91E1
:100B500081110BC0818590E023E0959587952A95BA
:100B6000E1F780959095817008958385F4CFDC013D
:100B70001296ED91FC91139714968C9181110BC0F4
:100B8000818590E026E0959587952A95E1F78095F7
:100B90009095817008958385F4CFDC011296ED91D4
:100BA000FC91139714968C9181110BC0818590E074
:100BB00024E0959587952A95E1F780959095817029
:100BC00008958385F4CFDC011296ED91FC91139783
:100BD00014968C91811108C0818590E09595879538
:100BE00080959095817008958385F7CFDC011296EA
:100BF000ED91FC91139714968C9181110BC0808517
:100C000090E026E0959587952A95E1F78095909557
:100C1000817008958285F4CF84E00895EF920F9358
:100C20001F93F901DA012C913E2D309532233C932C
:100C300030813E293083FC01D80198E080E030E02B
:100C400020E04C914E2189F02A95D9F720E04C9173
:100C50004E2159F02A95D9F720E84C914E2129F0E0
:100C60002A95D9F73A9561F717C047E04A95F1F709
:100C7000000031E0550F4C914E2109F051609A95DA
:100C800029F45193839598E0681731F020E84C914E
:100C90004E2111F72A95D9F71F910F91EF900895E2
:100CA0000F931F93F9012081202B2083DA012C91CF
:100CB000202B2C9320814081202B30E010E00095E8
:100CC000109550E004231523DC015D9148E000837A
:100CD000550F40F474E07A95F1F720837AE07A9525
:100CE000F1F705C07EE07A95F1F7000020834A9580
:100CF00029F073E07A95F1F70000E9CF6A9529F0C1
:100D000071E07A95F1F70000E0CF72E07A95F1F7A3
:100D100000000000008374E07A95F1F70000000005
:100D200020831F910F9108957F928F929F92AF928F
:100D3000BF92CF92DF92EF92FF920F931F93CF93C8
:100D4000DF93DB01642F5901F02E282F30E0F901E9
:100D5000E250FC4FE49021523C4FF901249130E0E5
:100D6000220F331FF901EF52FC4FC591D491F901C5
:100D7000ED53FC4FC590D490F901EB54FC4F859096
:100D800094907FB6F8940E2D9601AE01CD010E948D
:100D9000500684019601AE016F2DC5010E940E061A
:100DA0007FBEDF91CF911F910F91FF90EF90DF9069
:100DB000CF90BF90AF909F908F907F900895CF93EA
:100DC000DF93FC0187812FEF3FE7813011F420E8AA
:100DD00030E8462F50E0DF018FE0689FA00DB11D85
:100DE000112450969C916185892F8370823021F166
:100DF000833029F0813021F58093F2061BC0611108
:100E000011C081E08093F2069C70983009F457C0BD
:100E10009C30D1F0943009F055C0846093E09093F9
:100E2000F1061CC0623061F48091F206882341F023
:100E3000813021F081E0E8CF8093F20682E0E4CFB8
:100E40001092F20680E0E0CF6230E1F59091F10679
:100E50009923C1F1933089F194E0892B9FE0949F0D
:100E6000D001959FB00D1124AE0FBF1F50968C93EB
:100E700050978085EF01C40FD51F813031F182304A
:100E800009F46CC088A9811108C056963C932E9332
:100E9000559758963C932E9357978AA9811155C020
:100EA0006FE0649FC001659F900D1124E80FF91F4A
:100EB000328F218F348F238F48C098E0CECF886047
:100EC00094E0ADCF1092F106C9CF8AA9811108C074
:100ED0005A963C932E9359975C963C932E935B972E
:100EE0008FE0849FD001859FB00D1124AE0FBF1FEE
:100EF00050968C918C70843071F1883049F58FEF69
:100F00009FEF2FE0249FD001259FB00D1124AE0F3D
:100F1000BF1F56969C938E93559750968C918370D5
:100F200030E020E0813031F02FEF3FEF823011F0E0
:100F30002FEF3FE76FE0649FC001659F900D112484
:100F4000E80FF91F308F278B108ADF91CF9108951A
:100F50008FEF9FE7D6CF90E080E0D3CF88A98111B3
:100F600008C056963C932E93559758963C932E93D3
:100F700057978FE0849FD001859FB00D1124AE0F4D
:100F8000BF1F50968C918C70843059F1883031F5A8
:100F90008FEF9FEF2FE0249FD001259FB00D1124EC
:100FA000AE0FBF1F5A969C938E93599750968C9173
:100FB000837030E020E0813031F02FEF3FEF82305E
:100FC00011F02FEF3FE76FE0649FC001659F900D28
:100FD0001124E80FF91F348F238FB6CF8FEF9FE7CF
:100FE000D9CF90E080E0D6CFCF93DF93DC0113968A
:100FF0002D913C911497C62FD0E0FC018FE0689FA3
:10100000E00DF11D112461897289C901862397239E
:101010002817390709F04BC080898F70823071F131
:1010200028F48130C9F190E080E021C0843089F05B
:101030008830C9F782E018968C93108A20953095F5
:101040008189928928233923328B218B84E090E097
:101050000EC081E018968C93108A20953095818976
:10106000928928233923328B218B82E090E0909360
:10107000F0068093EF06DF91CF91089518961C92A9
:10108000108A209530958189928928233923328BC3
:10109000218B81E090E0EBCF108A209530952623BC
:1010A00037233061328B218B88E090E0E0CF1596BA
:1010B0004D915C911697642375234617570709F0E5
:1010C000B2CF80898F70823009F440C088F48130BB
:1010D00009F0A9CF19961C92108A409550958189E4
:1010E000928948235923528B418B80E290E0BFCFF5
:1010F0008430D9F1883009F096CF8091EF06909135
:10110000F0068115924041F01B968C911B9791E05F
:1011100089271B968C931B972FE02C9FC0012D9F36
:10112000900D1124A80FB91F50961C92509740950E
:10113000509551968D919C915297482359235296E0
:101140005C934E93519780E092E091CF81E01996A5
:101150008C93108A40955095818992894823592310
:10116000528B418B80E490E082CF82E019968C9381
:10117000108A409550958189928948235923528B32
:10118000418B80E890E073CF84E98093BC0085E6D2
:101190009091BC0094FF03C08150D1F7089581E085
:1011A0000895DF92EF92FF920F931F93CF93DF93F7
:1011B000FC018681838787819085958784878185D7
:1011C000928597878687D48014822C9A8BE290E050
:1011D0000197F1F72C9883E190E00197F1F72089CE
:1011E00030E0326750E040E090E080E0C3E1EC2E78
:1011F000F12C37FF71C05C9A220F331F6CB166FB74
:10120000002700F910E0B801042E02C0660F771F16
:101210000A94E2F7862B972B2D98E7012197F1F797
:101220002D9AE7012197F1F74F5F5F4F403151054C
:1012300001F75C98492F42954F7051E04D3009F409
:1012400050E170E060E030E020E0A3E1EA2EF12C14
:101250001CB116FBAA27A0F9B0E08D01062E02C032
:10126000000F111F0A94E2F7202B312B2D98E70174
:101270002197F1F72D9AE7012197F1F76F5F7F4FE3
:10128000651730F380959095209530954F3029F46F
:101290002E3FDFEF3D0709F444C0548161E0650F44
:1012A000648361E070E0511102C070E060E04111C0
:1012B00015C0A92FBB27AF70BB271F9779F44AE051
:1012C000469FD001479FB00D1124AE0FBF1F4FE0C6
:1012D00016964C93169715C05C988ECF542F509548
:1012E00052FF47C02AE0269FD001279FB00D11244E
:1012F000AE0FBF1F24E016962C9316975370252F20
:1013000030E01A963C932E9319972AE0269FD0013D
:10131000279FB00D1124AE0FBF1F18969C938E937C
:10132000179784818D15E8F44AE09FEF21E030E0C3
:10133000811102C030E020E0429FD001439FB00DF8
:101340001124AE0FBF1F16969C93169718961C92E9
:101350001E9217971A961C921E9219978F5FD81299
:10136000E5CFDF91CF911F910F91FF90EF90DF902C
:1013700008955AE0569FD001579FB00D1124AE0F2B
:10138000BF1F5FE04527A4CF809185078F5F843022
:1013900018F480938507089581E0FBCF86569F4F10
:1013A00021E0FC012083089589E091E0089584EE16
:1013B00094E008950895DC019C96EC919C979D968D
:1013C0002C91E21730F4E80FF92FF11D848590E09D
:1013D00008958FEF9FEF0895FC0194A585A52FEF49
:1013E0003FEF981740F4DF01A90FB11D1C962C9117
:1013F00030E09F5F94A7C9010895FC0185A594A5DD
:10140000891B990B0895CF92DF92EF92FF920F9371
:101410001F93CF93DF936C01EB017B01E40EF51E6C
:1014200010E000E0CE15DF0561F06991D601ED9185
:10143000FC910190F081E02DC6010995080F191F5C
:10144000F1CFC801DF91CF911F910F91FF90EF90E5
:10145000DF90CF9008950895CF93DF93EC0165E07E
:1014600070E080E090E00E94FA0382E080939401B3
:1014700081E088AB89AB62E370E080E090E0DF91CF
:10148000CF910C94FA0387E091E008958BEE94E0FD
:1014900008958A549F4FFC018081811103C081E02F
:1014A00091E0089582E091E008958A549F4FFC01F5
:1014B0008081811103C08AEF94E0089582EF94E067
:1014C0000895FC019081911106C083819481019659
:1014D00099F080E008959F3049F4228130E02F7028
:1014E00033272F30310561F482E00895923031F0D6
:1014F000943031F485E0089583E0089584E0089500
:1015000081E00895AF92BF92CF92DF92EF92FF9267
:101510000F931F93CF93DF93FC01E756FF4F108289
:10152000249A2C98259A2D9A6E987698769A549AA1
:101530005C98DC01A655BF4F1C92869A8E98859ABE
:101540008D9A87988F988F9A229A2A98A3E2B0E072
:101550001197F1F7208121113EC0EC0182E08093C8
:1015600094018E010C561F4FC8010E94D108FE0144
:10157000E856FF4FB080D12C780186E0E80EF11CD0
:10158000CA54DF4F3AE0A32ECC24CA94DB1461F195
:10159000D11008C0C7010E94610A91E0853009F0AE
:1015A00090E0988381E090E0D11002C090E080E06C
:1015B000A89EF001A99EF00D1124E00FF11FC68234
:1015C0001086178212861186C386158614861786A2
:1015D0001686D394DBCF82E08093940188EE93E06B
:1015E0009093960180939501809195019091960139
:1015F0008230910538F0880F991F880F991F059741
:101600000197F1F7DF91CF911F910F91FF90EF902C
:10161000DF90CF90BF90AF900895FC016093BC0025
:101620002FEF3FEF8091BC0087FF06C09091B9007B
:10163000987F908381E008952150310999F780E0E7
:101640000895CF93DF93EC016093BB0064E80E94A0
:101650000D0B882329F081E09881983209F080E011
:10166000DF91CF910895DF92EF92FF920F931F9336
:10167000CF93DF93EC01D62EF42E8989882329F0AD
:10168000411103C00E94C408198A8E01015F1F4FD7
:101690008989811119C0E88864EAC8010E940D0B8C
:1016A000882361F08F85883011F0803139F4EE0C99
:1016B000E092BB0064E8C8010E940D0B60E0F110ED
:1016C00060E4C8010E94210B6D2DC8010E94210B0E
:1016D00082E0F8120BC089898F5F898BDF91CF91EF
:1016E0001F910F91FF90EF90DF9008950E94C40822
:1016F000198AF4CFDC01ED91FC910084F185E02D95
:1017000040E00994FC0127812695269526956217CD
:1017100020F46583606B0C947A0B08950F931F93EC
:10172000CF93FC012681621798F4C62F8C01648345
:101730006085C60F6C2F6F700E947A0B6C2F6295BC
:101740006F706061C801CF911F910F910C947A0B5B
:10175000CF911F910F9108951F93CF93DF93EC01C9
:10176000142F0E948E0B612FCE01DF91CF911F911C
:101770000C94820B2F923F924F925F926F927F92C6
:101780008F929F92AF92BF92CF92DF92EF92FF9291
:101790000F931F93CF93DF9300D000D000D0CDB72D
:1017A000DEB7FC01238534852115310509F416C106
:1017B0009E838D83F9013296649031964491E42E94
:1017C000F12CF7E0EF0EF11C53E0F594E7945A95F5
:1017D000E1F7E982F901349654913196E4916D3044
:1017E000F1F460E00E948E0B81E090E026960FB647
:1017F000F894DEBF0FBECDBFDF91CF911F910F9147
:10180000FF90EF90DF90CF90BF90AF909F908F9020
:101810007F906F905F904F903F902F9008956A3027
:1018200081F460E08D819E810E948E0BED81FE81AE
:10183000868565818E9D600D1124CF010E94820BEB
:10184000D3CF651708F4CAC08E2F90E0FC01E50FD6
:10185000F11D6E171F060CF0C1C089010A5F1F4FF2
:10186000651BED81FE8171855685759F502D112474
:101870005C83F90154912F5F3F4FF9012491352F7B
:101880002230310508F06AC06E9CC0016F9C900D3B
:101890001124689FF001699FF00D11240E0F1F1F86
:1018A000512CED81FE81F481FA83ED81FE8125804A
:1018B000F285FB83862C912CAA24A394B12C312C85
:1018C0008981381608F086C0412CED81FE8186851D
:1018D000481608F078C08B818287311002C04420FE
:1018E00041F0ED81FE8145814F5F6A81CF010E9409
:1018F000AC0BD12CC12CC61408F058C0F801EC0D6B
:10190000FD1D7490552061F0EA14FB0449F4E72DA5
:10191000F0E0052C02C0F595E7950A94E2F77E2EDB
:10192000ED81FE818685823081F4442009F43AC03D
:1019300072948FE07822E72DF0E0E35EFB4F749025
:10194000672D8D819E810E94B504672D8D819E81BA
:101950000E94B5048FEFC81AD80ACDCF477028E08F
:10196000522E541A411101C0512CF801612C30E063
:1019700020E0661631F04491240F311D63943196B6
:10198000F8CF600E712E711CF3016490E29EF0019D
:10199000E39EF00DF29EF00D11248E0F9F1F080F95
:1019A000191F7FCFF72DFF707F2EC5CFD12CEC8173
:1019B000DE1639F060E08D819E810E94B504D394DB
:1019C000F6CF439482CF3394080D191DFFEFAF1A61
:1019D000BF0A76CF622D8D819E8130CF90E080E06E
:1019E00005CF0F931F93CF93DF938C01D0E0C0E01E
:1019F000F801EC0FFD1F6491662341F08BE997E03D
:101A00000E94BA0B892B11F02196F2CFCE01DF9103
:101A1000CF911F910F910895811104C08DE893E03B
:101A20000C94F10C813019F48CE793E0F9CF8250DB
:101A3000853018F489E893E0F3CF83E893E0F0CFA2
:101A4000682F8BE997E00C94BA0BCF92DF92EF925C
:101A5000FF920F931F93CF93DF93EC01F62EC42ECA
:101A6000D22E1A868F81869586958695081710F056
:101A70000FEF080F1D2D011780F0412F6F2DCE01A4
:101A80000E94AC0BEF2CCE1430F06D85CE010E947D
:101A9000B504E394F8CF1F5FEECF4D2D6F2DCE012F
:101AA000DF91CF911F910F91FF90EF90DF90CF903A
:101AB0000C94AC0B0F93FC010781069506950695D7
:101AC00001504681415020E060E00E94250D0F91B9
:101AD00008954F925F926F927F928F92AF92CF92C2
:101AE000EF92FF920F931F93CF93DF93CDB7DEB7A3
:101AF0002701380194E0899F80011124F801E656FE
:101B0000F94F80819181A281B3818E219521A621F7
:101B1000B72131E0892B8A2B8B2B09F430E03C1163
:101B200003C088898823F1F0C11001C0A82C2D5F63
:101B3000640F422F8BE997E00E94AC0B8A2D0E9424
:101B4000200DF801E656F94FCC20D1F0808191812B
:101B5000A281B38184299529A629B72980839183FD
:101B6000A283B383DF91CF911F910F91FF90EF90EC
:101B7000CF90AF908F907F906F905F904F9008952F
:101B8000409450946094709480819181A281B3813B
:101B900084219521A621B721E1CF6F927F928F9268
:101BA000AF92CF92DF92EF92FF920F931F93CF935A
:101BB000DF93EC01162F07E023E04CE360E08BE9B4
:101BC00097E00E94250D47E060E08BE997E00E94D6
:101BD000AC0B1250183008F0A4C0E12FF0E0ED502B
:101BE000F24F0C94C0328E0EFB0D4E0E720E820E12
:101BF000850E880E8B0E8DEB96E00E94F10C9E01F7
:101C00002E553F4FCE018F559F4FFE01E556FF4F9A
:101C1000E080F18002811381DE01A156BF4FAE0149
:101C200040565F4F772473947F92F9018080FC01C6
:101C3000A080CC24C3942C91FA01408160E080E024
:101C40000E94690DCE0186559F4FDE01A755BF4FFB
:101C5000FE01ED55FF4FE080F180028113819E016E
:101C600029553F4FC855DF4F7F92FC018080AC90D3
:101C7000F9012081488160E080E00E94690D0F90A9
:101C80000F90DF91CF911F910F91FF90EF90DF9018
:101C9000CF90AF908F907F906F90089585EB96E0F6
:101CA0000E94F10C3E01FBE96F0E711CCD5EDE4F10
:101CB000DD24D394F301E080F18002811381DF926F
:101CC0008780A680CC24C3942481458160E080E095
:101CD0000E94690DF8E06F0E711C0F906C167D0666
:101CE00049F7CFCF8EEA96E0DF91CF911F910F9108
:101CF000FF90EF90DF90CF90AF908F907F906F909C
:101D00000C94F10C89EA96E0EFCF8FE996E0ECCFE6
:101D100089E996E0E9CF80E996E0E6CF82E896E0AF
:101D2000E3CF8DE796E0E0CF6F927F928F929F9204
:101D3000AF92BF92CF92DF92EF92FF920F931F93D9
:101D4000CF93DF933C01D62EC42FE62FF0E0EE0FA9
:101D5000FF1FEC52FB4FB08007E023E041816B2D69
:101D60008BE997E00E94250D47E06B2D8BE997E00A
:101D70000E94AC0BC13091F584E793E00E94F10C16
:101D800081E08D15E0F0E301C256DF4F82EF681A63
:101D90008EEF780A99249394E880F9800A811B8158
:101DA0009F928F80AE80C12C2C814D816B2D8D2D0B
:101DB0000E94690D28960F90C615D70569F7DF9127
:101DC000CF911F910F91FF90EF90DF90CF90BF9038
:101DD000AF909F908F907F906F9008958DE796E0E1
:101DE000DF91CF911F910F91FF90EF90DF90CF90F7
:101DF000BF90AF909F908F907F906F900C94F10C5C
:101E00006F927F928F929F92AF92BF92CF92DF920A
:101E1000EF92FF920F931F93CF93DF93EC01D62E97
:101E2000742EE62FF0E0EE0FFF1FEC52FB4FB08058
:101E300007E023E041816B2D8BE997E00E94250D9F
:101E400047E06B2D8BE997E00E94AC0B83E078169E
:101E500019F18715B8F0E2E086E693E07E16F1F01E
:101E60008DE796E0DF91CF911F910F91FF90EF905A
:101E7000DF90CF90BF90AF909F908F907F906F90AA
:101E80000C94F10CF4E07F1609F442C085E078125E
:101E9000E7CF88E593E002C081E693E00E94F10C71
:101EA000E2E0DE1631F1FE01EA54FF4F8081882323
:101EB00091F13E01F9EC6F1AFEEF7F0AC955DE4F32
:101EC00099249394F301E080F180028113819F9221
:101ED0008780A680CC24C394248145816B2D8D2DD1
:101EE0000E94690DF8E06F0E711C0F906C167D0654
:101EF00049F7DF91CF911F910F91FF90EF90DF9005
:101F0000CF90BF90AF909F908F907F906F900895EB
:101F10008DE593E0C3CFC954DF4F612C992493948E
:101F200082E078121FC0E7E0E615B0F0F3E0F615A6
:101F3000C8F0FE01E05AFF4FE080F180028113817A
:101F40009F928780A680CC24C394248145816B2DE9
:101F50008D2D0E94690D0F90639428968CE0681275
:101F6000DFCFC7CFFE01E8CF0F9307E022E04FE7B6
:101F700060E08BE997E00E94250D80918507823013
:101F800071F08330A1F08130D1F46CE08BE997E0FF
:101F90000E948E0B84E993E00F910C94F10C66E0A3
:101FA0008BE997E00E948E0B86EA93E0F5CF66E31B
:101FB0008BE997E00E948E0B82EA93E0EDCF0F91C0
:101FC0000895809393016EEA81116FEA8BE997E09F
:101FD0000E947A0B0E942C046093860770938707F7
:101FE0008093880790938907089590E080E0089592
:101FF000CF93DF93CDB7DEB72F970FB6F894DEBF40
:102000000FBECDBF209194016217E0F42FE0FE01D6
:102010003196DF01322F1D923A95E9F74FEF5FE7D6
:102020005F834E83598748875B874A875D874C87E4
:10203000DC01269FA00DB11D1124509601900D9238
:102040002A95E1F72F960FB6F894DEBF0FBECDBFED
:10205000DF91CF9108952F923F924F925F926F92AE
:102060007F928F929F92AF92BF92CF92DF92EF9228
:10207000FF920F931F93CF93DF93CDB7DEB7669791
:102080000FB6F894DEBF0FBECDBF3C0186E0FE0167
:102090003196DF011D928A95E9F7809148018823E6
:1020A00081F01092480180919401833050F045E016
:1020B00064E28BE997E00E94AC0B8AE693E00E9411
:1020C000F10CF301EC55FF4FD301D5969C91D597B8
:1020D000907FD7968C9182958F70892B8083709793
:1020E000FA8BE98BCF010E94D108F301E555FF4F30
:1020F0008081858381819281978386838381948186
:10210000918780873697D48014828E9A8BE290E0F4
:102110000197F1F78E9883E190E00197F1F74089FC
:1021200050E0526770E060E090E080E003E110E092
:1021300057FF76C02A9A440F551F2FB1022E000C6C
:10214000330B2227330F221F3327062E02C0220F04
:10215000331F0A94E2F7822B932B8D98D8011197A5
:10216000F1F78D9AD8011197F1F76F5F7F4F6031CA
:102170007105F1F62A98492F42954F7050E14D3084
:1021800009F051E070E060E030E020E003E110E0B1
:10219000AFB10A2E000CBB0BAA27BB0FAA1FBB278F
:1021A000062E02C0AA0FBB1F0A94E2F72A2B3B2B74
:1021B0008D98D8011197F1F78D9AD8011197F1F701
:1021C0006F5F7F4F651720F38C0100951095209568
:1021D00030954F3029F42E3FBFEF3B0709F447C03D
:1021E000848191E0980F948361E070E0811102C0D6
:1021F00070E060E0411116C0812F99278F709927F8
:102200000F9781F44AE0469FC001479F900D11242B
:102210008E0F9F1F4FE0DC0116964C93169716C049
:102220002A9889CF942F909592FF8AC08AE0869F42
:10223000A001879F500D11244E0F5F1F84E0DA012B
:1022400016968C9316979370292F30E01A963C932C
:102250002E9319972AE0269FC001279F900D1124E5
:102260008E0F9F1FDC0118961C930E931797B48155
:10227000BE87BD15F0F48B2F4AE09FEF21E030E0E0
:10228000811102C030E020E0429FD001439FB00D99
:102290001124AE0FBF1F16969C93169718961C928A
:1022A0001E9217971A961C921E9219978F5FD8123A
:1022B000E5CFF301E856FF4F9080EE85E90DED87FD
:1022C00079866886788A6F86B12CF12C93012B551C
:1022D0003F4F3C8B2B8BC3018A549F4F9E8B8D8B22
:1022E000109194019D85B91609F452C2B11609F4F2
:1022F0004FC2DD24D394B91408F4D12C21E030E08E
:10230000B91448F5B11002C030E020E04AE0429F25
:10231000C001439F900D1124069629883A88280E03
:10232000391E123061F5992039F1C1010E94610A0C
:10233000E1E0F0E0EC0FFD1FED0DF11D80831FC00B
:102340005AE0569FC001579F900D11248E0F9F1F7A
:102350005FE0452760CFB91002C030E020E04AE0DE
:10236000429FC001439F900D112406962B883C8804
:10237000280E391E123019F4AE85A111D6CFF10105
:102380009081858198130FC0218132818681978148
:102390002817390741F423813481808591852817D6
:1023A000390709F477C0AF85B889D2961C92F1013C
:1023B0008081958189130CC0811118C0838194811B
:1023C0000196A1F4D10118968D919C91019671F01E
:1023D0006B2DC3010E94F80F123041F4C1010E941D
:1023E000610A482F6D2DC3010E94000FC1010E9498
:1023F000610A8A87F10121813281C90154E09695F1
:1024000087955A95E1F7982F917082E025FF80E03B
:10241000892B94E026FF90E0892B98E027FF90E03D
:10242000892BA885B98550968C93F1012181328141
:10243000FA85A90141705527F230C1F582E090E09C
:1024400021FD02C090E080E0842B952BA885B98502
:1024500052969C938E935197D10111962C9180E0C6
:1024600091E022FD02C090E080E023FFF4C020E074
:1024700032E0E885F98541895289842B952B822B9E
:10248000932B928B818B80919401823009F4E6C06A
:10249000FF24F394B394888599850F96998788874C
:1024A000AF85B8891196B88BAF871ACF82E090E0DC
:1024B00030FD02C090E080E0842B952B44E050E09A
:1024C00021FD02C050E040E0842B952B48E050E015
:1024D00031FD02C050E040E0842B952B40E150E0FC
:1024E00032FD02C050E040E0842B952B33FF8EC0BC
:1024F00020E230E0822B932BE885F985928B818B4B
:10250000FA85F43009F088C0D10113964D915C91A1
:1025100060E470E052FD02C070E060E020E830E06E
:1025200055FD02C030E020E0862B972BE0E0F4E080
:1025300053FD02C0F0E0E0E0282B392B60E078E0AA
:1025400054FD02C070E060E02E2B3F2B80E090E154
:1025500057FD02C090E080E0262B372B282B392B2B
:10256000E885F985328B218BD10113962D913C9111
:10257000A9014170552782E090E021FD02C090E062
:1025800080E0842B952B44E050E022FD02C050E017
:1025900040E0842B952B48E050E023FD02C050E042
:1025A00040E0842B952B40E150E024FD02C050E038
:1025B00040E0842B952B40E250E025FD02C050E026
:1025C00040E0842B952B40E450E026FD02C050E013
:1025D00040E0842B952B40E850E027FD02C050E0FE
:1025E00040E0842B952B40E051E030FD02C050E0EC
:1025F00040E0842B952B31FF0CC020E032E0822B91
:10260000932BE885F985948B838B26CF30E020E0EF
:1026100071CF30E020E0F3CFFA85F53009F01CCF20
:10262000D10113962D913C91A9014170552720FFAE
:1026300002C040E450E021FF0BC020E830E0842BD2
:10264000952B822B932BE885F985928B818B04CF78
:1026500030E020E0F4CF30E020E00BCFAD89BE8940
:102660008C912301882309F455C0B9EC4B1ABEEFB5
:102670005B0A1F82ED2DF0E0EE0FFF1FEC52FB4FC7
:1026800020812B87D201ED90FD900D911C91139725
:1026900014962C91149715964C9115971696AC900C
:1026A000169717968C90BF81BC3010F5EA85E23002
:1026B00091F4B83080F01F92C12C6B858D2D0E9453
:1026C000690D0F90FF81FF5FFF8328E0420E511CD0
:1026D000FE30C1F6DDCED10111968D919C918E21F7
:1026E0009F21CC24C394892B09F4C12C1F92E5CFE0
:1026F000BA85B530D1F7F10163817481D801C70182
:102700003CE0B695A795979587953A95D1F786239E
:102710009723E7CF37EB430E511C1F828D2D90E09E
:10272000880F991FDC01AC52BB4FBC87AB87BA85C1
:10273000B23061F5EF81E83000F5E43038F5F201B0
:10274000E05AFF4FE080F18002811381D1011196A0
:102750008D919C918E219F21CC24C394892B09F4C7
:10276000C12C1F928780A68024814581EB85FC8542
:1027700060818D2D0E94690D0F90FF81FF5FFF83A7
:1027800028E0420E511CFC3091F682CEF201DACFE5
:102790000981123059F480914201801739F00111FA
:1027A00005C040E060E0C3010E94000F00934201B9
:1027B0001A8180919401823059F4809143018117EC
:1027C00039F0111105C040E061E0C3010E94000F23
:1027D000109343011091A206BD85B11760F4DB2E62
:1027E000809194018D1539F06D2DC3010E94F80F71
:1027F000D394D116A8F3ED85E093A2068F2D6696AB
:102800000FB6F894DEBF0FBECDBFDF91CF911F9101
:102810000F91FF90EF90DF90CF90BF90AF909F907F
:102820008F907F906F905F904F903F902F90089582
:10283000FC01809158069091590686179707A0F0E1
:102840006115710529F49091E8009E779093E80056
:1028500090E06115710551F4911108C08091E80074
:1028600082FF35C080E00895BC01F2CF80918107DE
:102870008823C9F18530C9F18091E80083FD31C01A
:102880008091E80082FDEACF8091E80080FFE1CFEF
:102890002091F3008091F200322F282F61157105ED
:1028A00019F02034310558F091E02034310509F059
:1028B00090E02091E8002E772093E800CACF819124
:1028C0008093F100615071092F5F3F4FE7CF8091F6
:1028D0008107882341F0853041F08091E80083FF33
:1028E000BDCF81E0089582E0089583E008952091AE
:1028F000E4003091E50085E69091EC0090FF06C081
:102900009091E80090FF06C080E008959091E80063
:1029100092FDFACF90918107992391F0953091F033
:102920009091EB0095FD10C04091E4005091E500BE
:102930002417350709F381509A01F1F684E00895D0
:1029400082E0089583E0089581E008958091520621
:1029500087FF13C08091E80082FF06C08091E800E5
:102960008B778093E80004C0809181078111F2CFBA
:102970000895809181078823D9F38091E80080FF32
:10298000F8CF8091E8008E77ECCF982F973028F021
:102990008F708093E90081E008959093E900242FDF
:1029A000762F50E0981731F07091EC002091ED00F7
:1029B0005091F00021FD02C09F5FE8CF3091EB0005
:1029C0003E7F3093EB003091ED003D7F3093ED0082
:1029D0003091EB0031603093EB007093EC0020936A
:1029E000ED005093F0002091EE0027FDE5CF80E050
:1029F000089542E050E062E075E08BE997E00C94C6
:102A00008804CF93DF930E94F10CEC010E94F9142B
:102A10008C0F9D1FDF91CF9108950F931F93CF933C
:102A2000DF93CDB7DEB7A4970FB6F894DEBF0FBE25
:102A3000CDBF182F83E0898380EC8A838BE18B8361
:102A400070E040E250E0CE0104960E94063401E0BE
:102A50009E012C5D3F4F43E2BE016F5F7F4F812F90
:102A60000E949406A4960FB6F894DEBF0FBECDBFA9
:102A7000DF91CF911F910F9108950F931F93CF93E3
:102A8000DF93CDB7DEB7C754D1090FB6F894DEBFD8
:102A90000FBECDBF182F83E0898380E88A8381E051
:102AA0008B8370E040E250E0CE0104960E94063431
:102AB00001E09E01295B3F4F43E2BE016F5F7F4F04
:102AC000812F0E9494068091BB019091BC01A0913E
:102AD000BD0127968DAF9EAFAFAF279700E29E0155
:102AE0002C5D3F4F43E0BE016C5B7F4F812F0E9406
:102AF0009406C95BDF4F0FB6F894DEBF0FBECDBFA3
:102B0000DF91CF911F910F910895EF92FF920F9354
:102B10001F93CF93DF931F92CDB7DEB77C01FC01EB
:102B20008781198203E0970141E0BE016F5F7F4F0B
:102B30000E949406F701833061F0108211821282A4
:102B400080E00F90DF91CF911F910F91FF90EF9058
:102B50000895828187708130C9F40BE811E0C801C3
:102B60000197F1F76EEE87810E943D15C80101972C
:102B7000F1F760E8F70187810E943D15C8010197D0
:102B8000F1F760E0F70187810E940D158BE097E275
:102B90000197F1F781E0D5CF2F923F924F925F924C
:102BA0006F927F928F929F92AF92BF92CF92DF925D
:102BB000EF92FF920F931F93CF93DF93CDB7DEB7C2
:102BC000E5970FB6F894DEBF0FBECDBF1C01809114
:102BD000B206811152C08091B30681114EC080911E
:102BE000B006811109C0F101EA56FF4F8081918141
:102BF0000E9485158093B0068093B2068091B1063D
:102C0000811109C0F101E856FF4F808191810E9436
:102C100085158093B1068093B30681E00E94E10F91
:102C200007E027E04FE760E08BE997E00E94250D81
:102C300067E08BE997E00E94820B60E08BE997E008
:102C40000E948E0B8091B206882309F464C041E093
:102C500060E0C1010E94940E62E48BE997E00E945B
:102C60008E0B9091B2068091B30691115BC08111D9
:102C700059C08DE796E00E94F10C1D8E1E8E10E06B
:102C8000510124E9A20EB11CBBE86B2E772473948A
:102C900080919401181708F0F7C0E12EF12CF7018C
:102CA000E55BFF4FEE0FFF1FE20DF31DC080D180EB
:102CB000D501CD92DC92F701E255F94F4F01108218
:102CC000F701EE54F94F8081882309F49DC09701E4
:102CD0002055394F2901D9018C9181112EC0C6018F
:102CE0000E948515882309F48FC021E0F20120831A
:102CF000F701E455F94F1082612FC1010E94F80FCE
:102D000041E0612FC1010E94940E7EC088E793E0EC
:102D10000E94F10CA1CF8091B3068111F7CF8DE70E
:102D200096E0F6CF811103C088E793E0A4CF41E09D
:102D300061E0C1010E94940EA0CFD6018D919C91BB
:102D4000892BB9F1F6016281862F8770813099F461
:102D500063FB882780F99091A306891761F0C3016E
:102D60000197F1F763FB662760F987810E940D15D3
:102D7000C3010197F1F7F601828183FB882780F96F
:102D80008093A3068781F1E0FE8B04E096012D5F1E
:102D90003F4F41E0BE016A5E7F4F0E94940684303F
:102DA000A9F1D6011C9211961C92119712961C92B1
:102DB00005C0C6010E9485158111C4CFD4018C9134
:102DC000F701E455F94F882309F450C01082F1014E
:102DD0009781911119C0F501A081B181EE0CFF1C02
:102DE000EE0CFF1CF101EE0DFF1D95A9911105C020
:102DF00081E097A9911101C080E012969C911297F1
:102E000080FB93F912969C931F5F42CFD501ED9101
:102E1000FC9187E0DE01569601900D928A95E1F7CC
:102E200087E0FE017696DE011F9601900D928A954D
:102E3000E1F7B7E0BE9DC001BF9D900D1124E1E018
:102E4000F0E0EC0FFD1F8E0F9F1F3E96DC0127E088
:102E500001900D922A95E1F721E0DC018D919C9182
:102E6000892B09F420E0F4012083A8CF80818F5FB3
:102E70008083823048F2D2011C921082612FC101FE
:102E80000E94F80F40E03DCFD12CF101E656FF4FF4
:102E9000FDA7ECA7910125563F4F3FA72EA7A10103
:102EA00043565F4F59AB48ABC10184569F4F9BAB14
:102EB0008AABD101A25FBE4FBDABACAB8091940198
:102EC000D81608F084C26D2C712CF301E055F94F2F
:102ED0008081882309F45CC2F301E255F94F8081B7
:102EE000882309F455C287E0869DF001879DF00D87
:102EF000112421E030E02C0F3D1FE20FF31F23814E
:102F0000822F82958F7090E0982F88279295907FDE
:102F10002F7030E0322F2227820F931F2481422FFF
:102F200042954F7030E1439FA0011124840F951FFB
:102F30002F70AC01420F511D58A34F8FC301880F52
:102F4000991F9BA38AA3DC01A855B94F8D919C9131
:102F50002581D301AA55B94FBFA3AEA33C9123133A
:102F600008C04681F301EC55F94F3081431709F44D
:102F700057C2EDE1F0E0EC0FFD1FE60DF71D31E06B
:102F80004F8D58A18417950709F430E0308387E00E
:102F9000869DF001879DF00D112481E090E08C0F5B
:102FA0009D1FE80FF91F938193FB332730F982E0CF
:102FB00092FF80E0832B97E0969DF001979DF00DA6
:102FC0001124A1E0B0E0AC0FBD1FEA0FFB1F9381FD
:102FD00091FFE0C194E0892B97E0969DF001979DC9
:102FE000F00D112441E050E04C0F5D1FE40FF51F80
:102FF000938190FFD1C198E03FE0369DF001379D6D
:10300000F00D1124E20DF31D892B808B87E0869D46
:10301000F001879DF00D112481E090E08C0F9D1F41
:10302000E80FF91F848182FB992790F99CA31DA2C8
:1030300080FFB4C182E090E0ACA1BDA18A2B9B2BA4
:1030400037E0369DF001379DF00D112441E050E04E
:103050004C0F5D1FE40FF51F348144E050E031FD5B
:1030600002C050E040E0842B952B37E0369DF00104
:10307000379DF00D1124A1E0B0E0AC0FBD1FEA0FA9
:10308000FB1F348148E050E033FD02C050E040E0D7
:10309000842B952B37E0369DF001379DF00D1124E0
:1030A00041E050E04C0F5D1FE40FF51F348140E11B
:1030B00050E035FD02C050E040E0842B952B37E016
:1030C000369DF001379DF00D1124A1E0B0E0AC0F6A
:1030D000BD1FEA0FFB1F348140E250E034FD02C007
:1030E00050E040E0842B952B37E0369DF001379D72
:1030F000F00D112441E050E04C0F5D1FE40FF51F6F
:10310000338140E450E036FD02C050E040E0842BC3
:10311000952B37E0369DF001379DF00D1124A1E08D
:10312000B0E0AC0FBD1FEA0FFB1F338140E850E059
:1031300037FD02C050E040E0842B952B37E0369DF0
:10314000F001379DF00D112441E050E04C0F5D1F60
:10315000E40FF51F338140E051E035FD02C050E03F
:1031600040E0842B952B37E0369DF001379DF00D24
:103170001124A1E0B0E0AC0FBD1FEA0FFB1F3381AB
:1031800040E052E034FD02C050E040E03FE0369DB8
:10319000F001379DF00D1124E20DF31D842B952BCA
:1031A000928B818B2F3B0CF0FCC087E0869DF00159
:1031B000879DF00D112421E030E02C0F3D1FE20F20
:1031C000F31F8FEB858387E0869DF001879DF00DCF
:1031D000112481E090E08C0F9D1FE80FF91F86817C
:1031E0008F3B0CF0EFC08FEB8683ACA5BDA58C9018
:1031F000082C000C9908AA08BB0887E0869DF001FE
:10320000879DF00D112421E030E02C0F3D1FE20FCF
:10321000F31F358139A3232F330F330B440B550B89
:10322000281939094A095B09AFEFB0E00E948432DE
:10323000AEA5BFA52C91022E000C330B440B550BF1
:10324000281939094A095B090E946532822F2757DC
:10325000233108F480E890E02FE0269DF001279DBF
:10326000F00D1124E20DF31D382F2227820F931F3A
:10327000968B858BE8A9F9A9E0800E2C000CFF083D
:10328000000B110B87E0869DF001879DF00D112446
:1032900021E030E02C0F3D1FE20FF31F9680292D17
:1032A000092C000C330B440B550B2E193F09400B16
:1032B000510BAFEFB0E00E948432AAA9BBA92C91B8
:1032C000022E000C330B440B550B2E193F09400BFB
:1032D000510B0E946532822F2757233108F480E872
:1032E00090E02FE0269DF001279DF00D1124E20DC6
:1032F000F31D382F2227820F931F908F878B210178
:10330000BEE94B0E511C4F8D58A19A0150E040E090
:1033100028A739A74AA75BA7EAA1FBA1EC52FB4F5C
:10332000B080D201ED90FD900D911C9188A599A5DA
:10333000AAA5BBA58E219F21A023B123CC24C39491
:10334000892B8A2B8B2B09F4C12C1F92F2018780C9
:10335000A680248145816B2D8D2D0E94690DF8E09A
:103360004F0E511C0F902CA93DA942165306C9F6C9
:10337000EAA1FBA1E855F94F4F8D58A15183408335
:10338000E9A1AEA1BFA1EC93F301EC55F94F9082F6
:10339000D39494CD90E01FCE90E02ECE90E080E0CC
:1033A0004BCE22340CF40FCF87E0869DF001879D31
:1033B000F00D112441E050E04C0F5D1FE40FF51FAC
:1033C00081E400CF82340CF410CF81E40DCF8091E2
:1033D000B006811104C08091B106882321F08BE0F2
:1033E00097E20197F1F78D8D811101C08E8DE596E1
:1033F0000FB6F894DEBF0FBECDBFDF91CF911F9106
:103400000F91FF90EF90DF90CF90BF90AF909F9083
:103410008F907F906F905F904F903F902F90089586
:103420004F8D58A18417950709F4B2CFA2CD0E9401
:10343000EB33EF92FF920F931F93CF93DF9300D064
:10344000CDB7DEB780918107882309F4DBC0809176
:10345000E9008F709091EC0090FF4FC090E8F92E3A
:10346000F82A1092E9008091E80083FFC7C0E2E5E6
:10347000F6E08091F100819326E0EA35F207C9F782
:10348000E090530681E0E8121DC080915206813A17
:10349000C9F48091E800877F8093E800809154060A
:1034A000909155068115934051F568E070E080E0F9
:1034B00091E00E941814E0928B078091E8008B77CE
:1034C0008093E8008091E80083FF8AC080915206D3
:1034D000909153069A3008F083C0E92FF0E0ED5840
:1034E000F54E0C94C032C31AE91AF01AE91AF01A10
:1034F0004A1B6C1BF01A9F1DAC1D90E0B0CFE091F1
:103500008007E730D0F6F0E0E857F54E0C94C03273
:103510008F1A961A9B1AA01AA51AAA1ABE1A64E143
:1035200070E082E595E00E941814C7CF60E470E077
:103530008FE395E0F8CF60E470E087E395E0F3CFA8
:1035400060E470E08FE295E0EECF60E470E088E246
:1035500095E0E9CF81E08093240582E08093210506
:10356000809156069091570660E470E0892B19F41B
:1035700084E295E0D8CF81E295E0D5CF60E470E0B9
:103580008CE195E0D0CF803889F0823849F5809180
:1035900056068F70873020F58093E9008091EB000C
:1035A00085FB882780F91092E90004C08091F3061A
:1035B00081110DC09091E800977F9093E80080936F
:1035C000F1001092F1008091E8008E7732C082E025
:1035D000F1CF282F2D7F21F48823E9F0823071F17B
:1035E0008091E80083FF0AC08091E800877F809384
:1035F000E8008091EB0080628093EB008F2D8F704C
:103600008093E9000F900F90DF91CF911F910F9160
:10361000FF90EF90089580915406813009F7933020
:1036200009F080E08093F3061092E9008091E800B1
:10363000877F8093E8000E94A614D2CF8091540621
:103640008111F2CF809156068F702FEF280F263010
:1036500038F68093E9002091EB0020FFE5CF93300E
:1036600031F48091EB0080628093EB00DDCF90918C
:10367000EB0090619093EB0021E030E001C0220F5D
:103680008A95EAF72093EA001092EA008091EB0015
:103690008860EACF8111A4CF109154061F778091E2
:1036A000E3008078812B8093E3008091E800877F9E
:1036B0008093E8000E94A6148091E80080FFFCCF70
:1036C0008091E30080688093E30083E0111101C0E2
:1036D00082E08093810784CF8058823008F080CFC9
:1036E00020915406309155061A821982832F99270A
:1036F0008330910509F41CC1D0F481309105A9F102
:10370000029709F45DC069817A816115710509F438
:1037100067CF8091E800877F8093E800C8010E940E
:1037200018148091E8008B778093E80059CF81329C
:10373000910509F49FC1829731F780918007843009
:1037400009F4E7C108F0BBC1813009F4C8C1833076
:1037500009F4D4C146E450E06AE671E08CEB95E0F0
:103760000E94463286E490E0C4C18091800788239D
:1037700099F0813001F10091F9061091FA0642E1C9
:1037800050E065EC70E086E695E00E9446320093DA
:1037900072051093730508C042E150E069EE70E0D5
:1037A00086E695E00E94463282E190E09A83898322
:1037B00006E615E0A8CF42E150E067ED70E0F0CFFB
:1037C0000091F80610918007113009F456C008F4F2
:1037D0004DC0153009F496C01350143008F0A1C044
:1037E000E12FF0E0EC5BFB4F108149E050E064E139
:1037F00071E088E795E00E94463299E1099F902D9B
:103800001124975F90937A0500937C05002309F4B7
:103810008AC049E150E06BEF70E081E895E00E94DA
:103820004632109283051093910581E880939505A7
:10383000023008F478C049E150E06BEF70E08AE9AB
:1038400095E00E94463281E080939C051093AA0582
:1038500082E88093AE05023009F465C049E150E08A
:103860006BEF70E083EB95E00E94463281E390E0DD
:103870009A83898303E114E046CF49E050E068E58C
:1038800071E088E795E00E94463299E1099F902D0A
:103890001124975F90937A0500937C05002361F1D2
:1038A00049E150E06FE371E081E895E00E94463223
:1038B000109283054CE6E42EE092910581E8809316
:1038C00095050230C8F049E150E06FE371E08AE904
:1038D00095E00E94463210939C05E092AA0582E88A
:1038E0008093AE05023041F049E150E06FE371E0B2
:1038F00083EB95E00E944632B9E10B9FC001112491
:1039000009960AC042E250E06DE171E088E795E077
:103910000E94463282E290E09A83898308E715E0AC
:10392000F2CE16E462CFE9E10E9FC0011124E8CF88
:10393000C90199278230910549F18330910509F435
:1039400041C08130910509F04AC0809180078130E3
:1039500089F444E351E0DA010D900020E9F7AD016C
:103960004553514064E371E0CE0101960E94D52792
:103970008C01C9CE47E251E0FA0101900020E9F73D
:10398000AF014852514067E271E0EECF809180076D
:10399000813061F445E151E0DA010D900020E9F752
:1039A000AD014651514065E171E0DECF48E051E0A4
:1039B000FA0101900020E9F7AF014950514068E059
:1039C00071E0D2CF6091F6067091F706FB0101908D
:1039D0000020E9F73197AF01461B570BC5CF61E1D6
:1039E00074E0E1E0222331F1253039F528E534E0B7
:1039F000E0E0FCE0FE0FD9011D919D018E2F90E0CB
:103A0000019670E060E0412F42954F7050E04B5FAF
:103A10005A4FDA014C91DC014C93EE5F90E0A12FFC
:103A2000AF70B0E0AB5FBA4F4C91DC0111964C9394
:103A3000EF13E1CF4E2F50E097CF20918007880FF2
:103A4000991F222329F0213049F0885B9B4F02C047
:103A5000825A9B4FFC016081718105C0805B9B4F46
:103A6000DC016D917C91FB0101900020E9F7319719
:103A7000E61BE0CF1091800749E050E061E671E07D
:103A800083EB95E00E9446328BE5143079F040F4E8
:103A90008CE6113059F089E5133041F086E406C018
:103AA00081E5153019F087E31630C1F78093BA0528
:103AB00089E090E09A83898303EB15E024CE85307A
:103AC00099F1863009F046CE47E350E060EB71E0B3
:103AD0008CEB95E00E94463287E390E00AC04CE60A
:103AE00050E06CEE72E08CEB95E00E9446328CE682
:103AF00090E09A8389830CEB15E005CE49E550E010
:103B000063E972E08CEB95E00E94463289E590E033
:103B1000F0CF4BE550E068E372E08CEB95E00E945B
:103B200046328BE590E0E5CF41E550E067EE71E08D
:103B30008CEB95E00E94463281E590E0DACF803848
:103B400009F04ECD8091E800877F8093E800809156
:103B5000F4068093F10037CD811142CD10915406C7
:103B6000123008F03DCD8091E800877F8093E80017
:103B70001093F4060E94A6141123F9F084E08093B8
:103B80008107009180070023F1F042E360EC82E0BE
:103B90000E94C51411E08091F806811708F420CD29
:103BA000812F8F70873020F442E361EC0E94C514AE
:103BB000053009F415CD1F5FEECF8091E30087FD3E
:103BC000DDCF81E0DCCF42E261EC81E00E94C514F0
:103BD00046E260EC82E00E94C51402CD0F931F9371
:103BE000CF93DF938C01EB018091E80085FD10C03D
:103BF0008091E8008B778093E8000E94191A0E9458
:103C00007714882389F3DF91CF911F910F91089545
:103C10008091F100F80181938F01219729F780E0CD
:103C2000F2CF1F920F920FB60F9211242F933F9352
:103C30008F939F93AF93BF93809193079091940735
:103C4000A0919507B09196073091920723E0230F3A
:103C50002D3758F50196A11DB11D20939207809331
:103C6000930790939407A0939507B093960780913C
:103C7000970790919807A0919907B0919A0701969C
:103C8000A11DB11D8093970790939807A093990762
:103C9000B0939A07BF91AF919F918F913F912F91D0
:103CA0000F900FBE0F901F90189526E8230F0296D5
:103CB000A11DB11DD2CF71E02D98259A24982C9A80
:103CC0000000000000000E941C2725982D9A0E94E9
:103CD0001C27A8940000000000001D9B0E940427E0
:103CE000F2F088941C990894771F30F72D98259A44
:103CF000803021F024982C9A0C94801E2C98249AC1
:103D00000000000000000E941C2725982D9AA8940E
:103D1000000000001D9B0E9404270E941C27000039
:103D200000002D98259A872F9927089580E20895FD
:103D30000894881F0C949D1E880F11F12D98259AC8
:103D400000000000000028F4000024982C9A0C9435
:103D5000AD1E2C98249A0C94AD1E0E941C27259809
:103D60002D9AA8940000000000001D9B0E940427CB
:103D70001AF488270C94D61E0E941C270C949C1EB3
:103D80002D98259A0000000024982C9A0E941C2748
:103D90009927882725982D9AA89400001D9B0E949A
:103DA00004273AF31C9B81E00E941C2700000000BE
:103DB0002D98259A089581E00895CF93DF93EC0123
:103DC000862F0E94981E811108C08FA5811102C004
:103DD00083E08FA790E080E002C081E090E0DF9177
:103DE000CF9108952D98259A2C98249A0E941C27EB
:103DF00025982D9A0E941C271D9B0E940427249819
:103E00002C9A0E941C2708958F93F1E0E4EF8F9184
:103E10008F931D9B0E9404272C98249A0E941C2794
:103E20000E94981E882331F40E94F21E319711F0EF
:103E30000C94071F99270F90089581E008952D98FD
:103E4000259A0E941C2724982C9A0E941C272598AA
:103E50002D9A0E941C271D9B0E9404272C98249AAF
:103E60000E941C270E94981E089581E008951D9BC2
:103E70000E9404272C98249A0E941C270E94981EB6
:103E8000089581E008951F93CF93DF93EC011EA561
:103E900084EA112371F00E941F1F811108C082E083
:103EA0008FA781E08EA7DF91CF911F91089580E0C9
:103EB000F7CF0E94371F811101C012E01FA7F1CF79
:103EC000FF920F931F93CF93DF93EC01F62E042FF5
:103ED000122F0E94431FE881F9810190F081E02DAB
:103EE0006F2DCE010995E881F9810190F081E02DD7
:103EF000602FCE0109950FA50E94F21E1EA61FA6D7
:103F000080E0011107C0112321F087EB92E00197B7
:103F1000F1F781E0DF91CF911F910F91FF9008950C
:103F2000AF92BF92CF92DF92EF92FF921F93CF9307
:103F3000DF93EC011FA6162F613208F010E28EA568
:103F4000882331F185EA0E941F1F91E089279FA5F0
:103F5000911104C0882311F082E08FA76E018CE0DC
:103F6000C80ED11CF12CE12CE12FE150FF0B5F01B9
:103F7000E11690F481E0AE14BF0409F080E00E94E5
:103F80005B1EF60181936F01FFEFEF1AFF0AF0CF7E
:103F900085EA0E94371FD9CF1CA68FA5811110E09A
:103FA0001DA71EA60E94F21E8DA5DF91CF911F9125
:103FB000FF90EF90DF90CF90BF90AF900895EF9279
:103FC000FF920F931F93CF93DF93EC01162F7A018B
:103FD0000E94431FE881F9810190F081E02D60E0AB
:103FE000CE0109950FA50E94F21E1EA61FA6011163
:103FF00010C087EB92E00197F1F7612FCE010E948C
:10400000901F482F50E0B701CE010E94380491E084
:10401000181390E0892FDF91CF911F910F91FF909E
:10402000EF900895AF92BF92CF92DF92EF92FF92FE
:104030000F931F93CF93DF93CDB7DEB760970FB683
:10404000F894DEBF0FBECDBF8C0197EBE92E92E056
:10405000F92EC7010197F1F7D8011296ED91FC9165
:1040600021E043E06EEF808191810E94601FFE019C
:1040700031966F01811111C0D8011296ED91FC911A
:10408000A60166E070E0808191810E94DF1F882395
:1040900009F443C0C7010197F1F788E05E01B9E078
:1040A000AB0EB11CF501282F11922A95E9F7D60124
:1040B0001D928A95E9F787EBE82E82E0F82ED80169
:1040C0001296ED91FC91A50168E070E080819181EC
:1040D0000E94DF1F882309F443C0C7010197F1F74D
:1040E000D8011296ED91FC91A60168E070E0808104
:1040F00091810E94DF1F882399F1298599812913D5
:104100001DC02A859A81291319C09F8591111AC053
:104110009889911117C0F801148260960FB6F8942F
:10412000DEBF0FBECDBFDF91CF911F910F91FF90EA
:10413000EF90DF90CF90BF90AF900895C7010197A7
:10414000F1F7BDCF91E0D80114969C931497129685
:10415000ED91FC919381983000F798E09383DDCF47
:1041600080E0DBCF2F923F924F925F926F927F92CF
:104170008F929F92AF92BF92CF92DF92EF92FF9277
:104180000F931F93CF93DF93CDB7DEB72E970FB664
:10419000F894DEBF0FBECDBF8C0180914D01882306
:1041A00031F010924D0160E0C8010E94CD0DB09039
:1041B000BE06380124E9620E711CD301ED90FC901B
:1041C000B1101CC1D7011296ED91FC91C080D18035
:1041D00020E045E560EFC6010E94601F882309F4D6
:1041E000A9C06AE070E080E090E00E94FA0320E05D
:1041F00040E06BEFC6010E94601F882309F49AC05B
:1042000064E170E080E090E00E94FA03F7018280B0
:104210009380D401CD90DC90C6010E94431FD6014B
:10422000ED91FC910190F081E02D6AEFC6010995B6
:10423000F601A7A40E94F21ED6019E961C929E979C
:104240009F961C92AA2031F180E0F4018283C7017D
:104250000E94D404D82E8823D1F0D7011296ED9174
:10426000FC91349685E1DF011D928A95E9F7D7012B
:104270001296ED91FC91139786E08383ED91FC916A
:104280000190F081E02DC7010995811159C080E5A9
:1042900093EC8EC087EB92E00197F1F766E0C601E0
:1042A0000E94901F482F50E0BE016F5F7F4FC601F4
:1042B0000E943804863041F68B81843A49F58C811E
:1042C000803231F58D81811103C09E81992381F166
:1042D00099812A81923048F421111CC0843008F55C
:1042E0002E81213021F484E0B0CF211113C0813020
:1042F000C1F48E81833081F485E0992309F4A5CF40
:1043000086E0913009F4A1CF87E0933009F49DCF86
:1043100082E09BCF813029F48E818231C9F788E019
:1043200094CF8111F5CF8E81833191F789E08DCFC4
:1043300083E08BCFD7011296ED91FC911282A7CF2B
:10434000F701E58CF68CE114F10409F453C0D701B0
:104350008D909C90C4010E94D404882309F446C027
:10436000D401ED91FC910190F081E02DC4010995FB
:10437000D82E8823D9F181E08093BE06F801E65655
:10438000FF4F80831092BD0680919401882321F015
:1043900060E0C8010E94F80FD301ED91FC9102800A
:1043A000F381E02D6281C8010E94CD0D88EC90E080
:1043B00090939601809395018B2D2E960FB6F894CD
:1043C000DEBF0FBECDBFDF91CF911F910F91FF9048
:1043D000EF90DF90CF90BF90AF909F908F907F90A5
:1043E0006F905F904F903F902F900895F701E48079
:1043F000F580A9CFDD2009F44ACFBDCFC7010E94C7
:10440000D404882309F4BDC1D7011296ED91FC9123
:10441000AF014C5F5F4F638170E0808191810E94AA
:10442000DF1FB82E882309F4ACC1F7018281938184
:10443000DC0113964C910496FC012FEF30E050E024
:10444000BF01681B790B6417750724F46191362B43
:104450002623F6CF332309F494C12F3F09F491C1E9
:10446000D301ED91FC910280F381E02D22808DEF4C
:10447000820D823008F4A2C1BFEFB987EFEFE88761
:10448000C12C512CD12CA12C1F82712C612C80911C
:10449000BB069091BC068615970541F4BB24B394E6
:1044A0008091B606FF818F1301C0B12C80914C0121
:1044B0008A1117C080914B018D1113C080914A0160
:1044C00085110FC0809149018C110BC08091B506F8
:1044D0002885821306C08091B4063985831709F4B4
:1044E000E0C38091BA064A2D481B550B9A01473EFE
:1044F000510514F026EE30E08091B9066D2D681B51
:10450000770B7B0177EEE716F1041CF0E6EEEE2E5A
:10451000F12C8091B806A52DA81BBB0B4D01B7EE61
:104520008B1691041CF076EE872E912C8091B706A5
:10453000C81ADD08E7EECE16D1041CF066EEC62ED2
:10454000D12C2931310514F429E130E0032E000C7F
:10455000440B550B2951310941095109AFEFB0E026
:104560000E9484322DEC30E040E050E00E94653241
:104570002A8797012931310514F429E130E0032E0F
:10458000000C440B550B2951310941095109AFEF7A
:10459000B0E00E9484322DEC30E040E050E00E9418
:1045A00065322C8794012931310514F429E130E07A
:1045B000032E000C440B550B2951310941095109B7
:1045C000AFEFB0E00E9484322DEC30E040E050E0EC
:1045D0000E946532922E96012931310514F429E1A9
:1045E00030E0032E000C440B550B295131094109D1
:1045F0005109AFEFB0E00E9484322DEC30E040E092
:1046000050E00E946532D22E8A858757833108F4A4
:1046100031C38A8590E0382F2227820F931FD8015B
:1046200056969C938E9355978C85809599E8980F14
:10463000933108F480E890E0382F2227820F931FEF
:10464000F801908F878B89E8890D833108F414C3B2
:10465000892D90E0382F2227820F931FD8015A9678
:104660009C938E9359978D2D809599E8980F93314F
:1046700008F480E890E0382F2227820F931FF8017A
:10468000948F838F8091BD068823D9F0F885FE3002
:1046900008F4188629852E3008F41986F801EA56A0
:1046A000FF4FE080F180C7010E947505882311F05B
:1046B0003FEF3887C7010E946205882311F04FEF52
:1046C0004987E885D8015D96EC935D97F9855E96FC
:1046D000FC938CEF820D823008F0D0C22FE02B8744
:1046E00028014BE9440E511C312C212C7F81672F6E
:1046F00070E07E876D87D201ED90FD900D911C9149
:10470000139714962C91149715964C91159716960D
:10471000AC90169717968C90BAE0B21508F4B1C217
:10472000C301022C02C0969587950A94E2F7E82F00
:10473000E170CE2E1F9260E080E00E94690D0F9024
:104740008FEF281A380A98E0490E511CAB852A16BB
:1047500090F27092BC066092BB06BF81B093B60621
:10476000EA85E0934C01FC85F0934B0190924A015D
:10477000D092490128852093B50639853093B40637
:104780001BCE1092BE06D8019E961C9280E593EC3B
:10479000909396018093950180919401882321F054
:1047A00060E0C8010E94F80F1092BC061092BB0690
:1047B00060E0C8010E94CD0DB12CFECDB4E0F8013F
:1047C0002B122CC2EA56FF4FE080F180F7013480B3
:1047D00082809380311091C1D40119968C9180957B
:1047E000817091E089278F83C7010E94F6058111AE
:1047F00003C0FF81F260FF83C7010E94E3058111BE
:1048000003C02F8124602F8331107AC1D401189600
:104810008C9190E0880F892F881F990BB1E08B272E
:10482000817019F42F8128602F83C7010E948B05A6
:10483000682E712CC7010E94B705882311F0689477
:1048400061F8C7010E94CD05882311F0689462F8D1
:10485000C7010E94A105882311F0689463F8C7017D
:104860000E947505882311F0689464F8C7010E94BE
:104870006205882311F0689465F8C7010E94460517
:10488000882311F0689466F8C7010E9431058823D7
:1048900011F0689467F8C7010E940605882311F09B
:1048A000689470F8C7010E941C05882311F0689471
:1048B00071F8C7010E94F004882311F0689472F81F
:1048C000D4011496AC9014971696DC901697159612
:1048D0005C9015971796CC90179731101BC1852DBA
:1048E0008F739A2D907C969596959695B52DB07C64
:1048F0005B2E5294569437E05322592A2D2D20785E
:1049000030E0220F232F221F330B522A550C550C57
:10491000550C9D2D9F712D2D207626952695DC2CEE
:10492000D294D69457E0D522D22ADD0CDD0CDD0CD2
:10493000D886CC0CCC0CCC0CC986AA0CAA0CD82ED0
:10494000DD0CDD0CC92ECC0CCC0CCC0CF801E656E1
:10495000FF4F8081882369F11082EEE781E88A0D9C
:10496000EA1510F08FE78A198093BA06FEE781E80E
:104970008D0DFD1510F08FE78D198093B9062EE788
:1049800081E8850D251510F08FE785198093B8060D
:104990003EE781E88C0D3C1510F08FE78C19809371
:1049A000B7064885442319F059855111BAC01092B1
:1049B000BD063110CAC0D40119964C904094B42D54
:1049C000B1704B2EC7010E94F605882309F4C4C0BC
:1049D00082E0482AC7010E94E305882309F4BEC08B
:1049E00084E0482A3110BCC0D40118968C9190E024
:1049F000880F892F881F990BB1E08B27817009F4EC
:104A0000B9C088E0482AD80150964C92C7010E944C
:104A1000B705882E912CC7010E94CD05882309F483
:104A2000ABC082E090E0882A992AC7010E948B05DA
:104A3000882309F4A4C084E090E0882A992AC70159
:104A40000E94A105882309F49DC088E090E0882A8F
:104A5000992AC7010E940605882309F496C080E0C0
:104A600091E0882A992AC7010E941C05882309F42D
:104A70008FC080E092E0882A992AC7010E94F00442
:104A8000882309F488C080E090E1882A992AF801F7
:104A9000928A818A8091BD06882309F48BC0C70160
:104AA0000E944605882309F479C080E190E0882AB5
:104AB000992AC7010E943105882309F472C080E257
:104AC00090E0882A992AC7010E947505882309F475
:104AD0006BC080E490E0882A992AC7010E94620591
:104AE000882309F464C080E890E0882A992AD801D4
:104AF00052969C928E925197CACCF40183856FCEC8
:104B0000F401828590E0880F892F881F990BF1E0CE
:104B10008F2786CEF401F085F8871996BC91B98766
:104B200015CF81E08093BD06D80117968C9188231C
:104B300041F090918A07992309F43BCF813009F025
:104B400038CF81E0F80186A734CFF4014384409444
:104B5000F42DF1704F2E36CF80E03BCF80E041CF77
:104B6000F401828590E0880F892F881F990BF1E06E
:104B70008F2744CF80E046CF90E080E054CF90E094
:104B800080E05BCF90E080E062CF90E080E069CF92
:104B900090E080E070CF90E080E077CF90E080E020
:104BA00086CF90E080E08DCF90E080E094CF90E0E1
:104BB00080E09BCFC7010E947505882319F180E131
:104BC00090E0882A992AC7010E9462058823E9F0AB
:104BD00080E290E0882A992AC7010E94460588232E
:104BE000B9F080E490E0882A992AC7010E94310533
:104BF000882389F080E890E0882A992AF801928A2F
:104C0000818A45CC90E080E0DCCF90E080E0E2CF8C
:104C100090E080E0E8CF90E080E0EECFE856FF4FF4
:104C20000190F081E02D0280F381E02D2185822F1B
:104C300090E09595879580959095817099273C0196
:104C400020FD15C0689461F822E030E0822B932BA0
:104C5000D80152969C938E935197A480D580BFEF34
:104C6000B987EFEFE887C12C512C1F8210CC30E0C0
:104C700020E0ECCF80E8CECC80E8EBCC32E03B8784
:104C80002FCDC1010B976D857E8502C07595679507
:104C90008A95E2F7CB0180959095782F7170C72E99
:104CA00049CDBB2009F488CB1CCC249825982C9A9C
:104CB0002D9A882799271C9B08951D9B089581E0B4
:104CC000089581E00895AF92BF92CF92DF92EF9264
:104CD000FF920F931F93CF93DF938C0165E070E0F9
:104CE00080E090E00E94FA031092EB061092EC062E
:104CF0001092EE061092ED060E9455268FE190E08C
:104D00000E94C632EC016C0184E0C80ED11C8FEB0E
:104D100096E09D838C831E8286E08F83DB82CA822D
:104D20008AE694E099838883F801EC56FF4FD1839B
:104D3000C0838BE090E00E94C632FC01D382C28225
:104D4000148282E794E0918380837F01A5E0EA0EDC
:104D5000F11C5E01BDE1AB0EB11CF683E583B086AC
:104D6000A78212861186FE8EED8ED801AA56BF4FFD
:104D7000ED93FC938AE090E00E94C632FC01D3825E
:104D8000C2828AE794E091838083CF010496F58301
:104D9000E483B782A68211861086E114F10439F506
:104DA0009E8F8D8FD801A856BF4FED93FC93EC8159
:104DB000FD8114A615A617A616A60E94552681E009
:104DC000F80180AB82ABE656FF4F808362E370E070
:104DD00080E090E0DF91CF911F910F91FF90EF90D5
:104DE000DF90CF90BF90AF900C94FA037901D70178
:104DF00014962D913C91159721153105B9F715960B
:104E00009C938E931497CECFBFE0A0EA00240E941B
:104E100014273AF40A94D9F71197C1F728940C94FF
:104E20001B27A8940C941B27A8941D990C94192750
:104E3000289400000895089597E19A95F1F7089550
:104E400008951F920F920FB60F9211242F933F9344
:104E50004F935F936F937F938F939F93AF93BF9382
:104E6000EF93FF938091DA0080FF17C08091D80004
:104E700080FF13C08091DA008E7F8093DA008091EA
:104E8000D90080FF86C080E189BD82E189BD09B477
:104E900000FEFDCF81E0809381078091E10080FFDB
:104EA00017C08091E20080FF13C08091E2008E7FE6
:104EB0008093E2008091E20080618093E200809123
:104EC000D80080628093D80019BC85E08093810768
:104ED0008091E10084FF26C08091E20084FF22C01F
:104EE00080E189BD82E189BD09B400FEFDCF8091DA
:104EF000D8008F7D8093D8008091E1008F7E8093D1
:104F0000E1008091E2008F7E8093E2008091E200D8
:104F100081608093E2008091F4068823F1F184E0BF
:104F2000809381078091E10083FF22C08091E2009D
:104F300083FF1EC08091E100877F8093E10082E0C3
:104F4000809381071092F4068091E1008E7F809318
:104F5000E1008091E2008E7F8093E2008091E20088
:104F600080618093E20042E360E080E00E94C5142B
:104F7000FF91EF91BF91AF919F918F917F916F9131
:104F80005F914F913F912F910F900FBE0F901F9007
:104F9000189519BC1092810780CF8091E30087FD9E
:104FA00002C081E0BDCF83E0BBCFCF93DF93DC01B4
:104FB0004032510514F04FE150E090E0292F30E0ED
:104FC0002417350784F04F5F5F4F440F551F4D93F3
:104FD0005C93536050935B0640935A068AE596E0D3
:104FE000DF91CF910895F901EE0FFF1FE45AF94FB9
:104FF000260F371FE9012881022E000C330B318365
:1050000020839F5FDBCFCF93DF93CDB7DEB72997A8
:105010000FB6F894DEBF0FBECDBF789484B5826022
:1050200084BD84B5816084BD85B5826085BD85B54C
:10503000816085BD80916E00816080936E001092CA
:105040008100809181008260809381008091810045
:1050500081608093810080918000816080938000D6
:105060008091910082608093910080919100816095
:105070008093910080919000816080939000809156
:10508000C10084608093C1008091C10082608093E0
:10509000C1008091C10081608093C1008091C300F4
:1050A00081608093C3008091C00082608093C000C3
:1050B0008091C20081608093C20080917A008460F8
:1050C00080937A0080917A00826080937A00809148
:1050D0007A00816080937A0080917A008068809362
:1050E0007A0056985E9A10928B0790E080E00E94BA
:1050F0004F32843008F083C0809385078091850704
:10510000823009F47EC0833009F4B1C0813009F0E7
:105110003FC087EA91E00E94C6328C010E948E0354
:1051200082EA94E0D8018D939C93F801EC56FF4FEE
:10513000148215828AE09F012A5F3F4FD901B82E61
:105140001D92BA94E9F7108A7196148215822F5E27
:105150003F4FD9011D928A95E9F7108A7196108206
:10516000D801A954BF4F80E8EEEBF1E001900D9219
:105170008A95E1F7D801A95CBE4F80E7EEE3F2E043
:1051800001900D928A95E1F710938D0700938C079B
:105190001092AC078CE38093AB071092B90084E4C3
:1051A0008093BC008CE08093B80010929F0710920F
:1051B000A007EAE6F6E0C590D490ECE6F6E0F490BD
:1051C000EDE6F6E0E491E093A107EEE6F6E0E49187
:1051D000E093A207EFE6F6E0E491E093A30710E086
:1051E00000E00F1508F056C0F601E00FF11F6491C2
:1051F0008BE997E00E947A0B0F5F1F4FF2CF81E09F
:105200007BCF8EE091E00E94C6328C010E948E031B
:1052100084EB94E0F8019183808388E090E00E9421
:10522000C63225E1DC0117962C93F801EA56FF4FB0
:105230009183808388E090E00E94C63225E0FC01E3
:105240002783F801E856FF4F9183808332969FEBC6
:105250009083319681E48083319690833196808368
:10526000D801A256BF4F80E7EEEAF2E089CF83E192
:1052700091E00E94C6328C010E948E0386EC94E07D
:10528000D80111969C938E93A556BF4F88E7EEE107
:10529000F3E076CF8BE997E00E945A0D61E88BE945
:1052A00097E00E947A0B61E08BE997E00E947A0B0D
:1052B000EFE7F4E0F093A707E093A6078491E0E816
:1052C000F4E0E491F82F319709F0E1C01092A407BF
:1052D0008BE997E00E945A0D11E01093A9076EE147
:1052E0008BE997E00E948E0B82E08093A90788E704
:1052F00094E00E94F10C1093A90762E08BE997E01B
:105300000E94820B0E94B40F81E090E00E944F3215
:10531000873008F080E0A0918C07B0918D07179638
:105320008C931797ED91FC9111970190F081E02DEE
:10533000CD01099564E170E080E090E00E94FA03FD
:1053400080918C0790918D07DC01ED91FC9102809A
:10535000F381E02D099564E170E080E090E00E9427
:10536000FA0380918C0790918D07DC01ED91FC91FF
:105370000280F381E02D0995A0918C07B0918D07F3
:1053800051968C91519780FF86C081E017968C933F
:1053900017974E99A6C017961C918BE997E00E942B
:1053A0005A0D45E050E066E175E08BE997E00E9418
:1053B00088040E94F9146CED75E080E090E00E9492
:1053C000FA038BE997E00E945A0D8BE694E00E9465
:1053D00001158DE594E00E94011580E594E00E949E
:1053E000011564EF71E080E090E00E94FA0381E033
:1053F000812C912C540101E0FF24F3944E9951C06B
:10540000F12C813051F40E942C044B015C0160E1CD
:1054100070E080E090E00E94FA030E942C0468197A
:1054200079098A099B09693E73408105910510F449
:105430000C9422328BE997E00E945A0D88E494E0A4
:105440000E94011581E494E00E94F10C812F0E94DA
:105450000C0D0E94F9140E94F9148DE294E00E9450
:10546000F10C60ED77E080E090E00E94FA03612F9C
:1054700081E090E00E94573288E19EE00FB6F894F8
:10548000A895809360000FBE90936000FFCF81E0ED
:105490008093A4071DCF81FF7CCF17961C9217978E
:1054A00078CF81110C941F3260E170E080E090E0D1
:1054B0000E94FA0381E0011106C0882379F01F5F82
:1054C000133008F010E007E025E04FE760E08BE9DB
:1054D00097E00E94250D812F0E940C0D00E08F2D7A
:1054E0008BCFED91FC9111970484F585E02DCD01D2
:1054F000099561E08BE997E00E94820B60E08BE9FF
:1055000097E00E948E0BE0918C07F0918D078781C8
:1055100081111CC188E50E94200D80918C0790911B
:105520008D0721E032E0FC01348323830190F08178
:10553000E02D0084F185E02D09958C0180918C0788
:1055400090918D07DC01ED91FC910284F385E02DB3
:10555000099520919401E0918C07F0918D07378196
:10556000309380079093FA068093F9062093F8060B
:105570001093F7060093F60684B7877F84BF0FB6B3
:10558000F894A895809160008861809360001092E3
:1055900060000FBE80E830E020E00FB6F894809302
:1055A0006100209361000FBE8091D8008F7E8093B0
:1055B000D8008091D70081608093D70084E082BFBB
:1055C00081E08093F5068091D8008E7F8093D8008B
:1055D0001092E2001092DA001092E1008091D8005F
:1055E0008F778093D8008091D80080688093D8000E
:1055F0008091D8008F7D8093D80019BC10928107CC
:105600001092F4061092F3068091E0008B7F809355
:10561000E0008091D80081608093D80042E360E090
:1056200080E00E94C5148091E1008E7F8093E100AC
:105630008091E20081608093E2008091E2008860C6
:105640008093E2008091E0008E7F8093E000809163
:10565000D80080618093D80078940E94D50300918F
:105660008E0710918F072091900730919107AB0121
:10567000BC01401B510B620B730B80919501909103
:105680009601B0E0A0E0C12C481759076A077B07D4
:10569000B0F080918C0790918D07DC01ED91FC9129
:1056A0000280F381E02D0995C82E0E94D5036093F6
:1056B0008E0770938F078093900790939107D12C5A
:1056C00080919401D81608F01CC680918C079091A7
:1056D0008D07DC01ED91FC910680F781E02D6D2DA9
:1056E000099500918C0710918D07ED2CF12CF80194
:1056F0008781843009F487C108F037C0882309F412
:1057000069C093E1813009F400C298E0833009F068
:10571000B8C18FE08E9DF0018F9DF00D1124E00F38
:10572000F11FE089EF70E150EA3008F0A9C3F0E022
:10573000E456F44D0C94C032CB2E382F402F3C2F22
:105740003E2F3A2F402F342F302F362F813011F437
:1057500083E5E1CE823011F488E4DDCE83508430DD
:1057600010F48DE4D8CE85E4D6CE853009F469C135
:1057700095E0863009F0C9CF8FE08E9DF0018F9DB6
:10578000F00D1124E00FF11F21893289A901417028
:10579000552782E021FF80E0842B22FF67C424E0AC
:1057A000822B8093FB068FE08E9DF0018F9DF00D84
:1057B0001124E00FF11F258936893093FD062093CF
:1057C000FC062789308D3093FF062093FE062BEFD1
:1057D00036E08EC094E18FE08E9DF0018F9DF00D3C
:1057E0001124E00FF11F2089822F817032E021FF08
:1057F00030E0832B34E022FF30E0832B23FF6FC1A6
:1058000028E0822B2FE02E9DF0012F9DF00D11241A
:10581000E00FF11F2189328940E131FF40E0842B04
:1058200040E230FF40E0842B40E432FF40E0842B34
:1058300040E833FF40E0842B80935001A901E4E06D
:1058400056954795EA95E1F7417082E025FF80E0A3
:10585000842B44E034FF40E0842B40E120FF40E013
:10586000842B40E221FF40E0842B40E422FF40E013
:10587000842B40E823FF40E0842B809351018FE08C
:105880008E9DF0018F9DF00D1124E00FF11F4589D1
:105890005689505850935501409354014FEF5FE79C
:1058A0006789708DDA01A61BB70BB0935701A093DF
:1058B0005601618D728D7058709359016093580133
:1058C000638D748D461B570B50935B0140935A01B7
:1058D000D801AE0DBF1D9E968C91882309F401C19D
:1058E000858D80935201868D809353012EE431E0A3
:1058F00030938407209383079093820780918107D8
:10590000843009F074C082E08093E9008091E8005F
:1059100082FF2AC08091E80085FF21C08091800726
:105920008111C2C40E947714811108C050E040E088
:1059300068E070E0CE0101960E94EE1D8981811120
:105940000EC08A81883059F4F701EE0FFF1FEE0F69
:10595000FF1FE00FF11F8C8185AB8D8187AB80919C
:10596000E8008B778093E800870186E0000F111F25
:105970008A95E1F70050194F4091820750E06091FD
:10598000830770918407C8010E94F033892B79F155
:1059900080918007853009F094C481E08093E9000C
:1059A0008091E80080FF23C0E0908207A0908307E9
:1059B000B09084070E947714F12C882309F494C4D2
:1059C0008091E8008E778093E800E0908207F12CC8
:1059D000A0908307B0908407A701B501C8010E9479
:1059E000FD33A70170E060E0C5010E9406340E940B
:1059F000191AE0918C07F0918D078781882309F4AB
:105A000080C4D3945DCE97E08FE08E9DF0018F9D92
:105A1000F00D1124E00FF11FE089EF70E150EA3042
:105A200008F09BC2F0E0E95EF24D0C94C032422FC8
:105A3000A52FAD2FA92FAB2FA72FAD2FA12F9D2FB6
:105A4000A32F94E0DD2019F093E0D11002C381E090
:105A500080938401D8015096EC91EF70E150EA30C8
:105A600008F0F2C2F0E0E95CF24D0C94C032AF2FC6
:105A70001C302430203022301E30243018301430B6
:105A80001A30843018F5882309F4A5CE813009F442
:105A90003CC08FE08E9DF0018F9DF00D1124E00F32
:105AA000F11FE089EF70E150EA3008F0F8C3F0E050
:105AB000E45AF24D0C94C032383047314F314B31FB
:105AC0004D3149314F3143313F314531853009F452
:105AD000BCCF08F499CF863009F44ECEDACF20E05F
