:100000000C9432030C945A030C945A030C945A0324
:100010000C945A030C945A030C945A030C945A03EC
:100020000C945A030C945A030C94DE260C945A0335
:100030000C945A030C945A030C945A030C945A03CC
:100040000C945A030C945A030C945A030C945A03BC
:100050000C945A030C945A030C945A030C9494264F
:100060000C945A030C945A030C945A030C945A039C
:100070000C945A030C945A030C945A030C945A038C
:100080000C945A030C945A030C945A030C945A037C
:100090000C945A030C945A030C945A030C945A036C
:1000A0000C945A030C945A030C945A03AED580A8AE
:1000B0003FD300408D142002A1C8DA12817FD9F10C
:1000C000DB40A4A6AF1201000200000040D0167E63
:1000D0001200010102030112010002000000400DA4
:1000E0000F920000010102030112010002FFFFFF55
:1000F000405E048E021401010203010904000001A4
:1001000003000000092111010001224600070581BA
:10011000034000010902220001010080320902228D
:100120000001010080320904000001030000000901
:10013000211101000122510007058103400001093E
:1001400004000001030000000921110100012256F2
:100150000007058103400001090229000101008018
:10016000FA09211101000122460005010905A1013A
:10017000150025013500450175019518050919017E
:100180002918810205012507463B01750495016583
:10019000140939814265009501810126FF0046FF5F
:1001A000000930093109350936750895048102C006
:1001B00005010905A10105091901290315002501FA
:1001C0007501950355006500810275019505810350
:1001D00005010901150026FF0375109502A100090C
:1001E0003009318102C0C005010905A1018501A1C5
:1001F0000005091901290C150025019510750181CB
:100200000205010939150025073500463B0175082F
:10021000950165148142C0C005010902A101850252
:100220000901A100093009311581257F3581457FFC
:10023000950275088106C0C005010904A101A1004D
:100240000509190129101500250195107501810274
:1002500005010901A100093009311580257F9502AA
:1002600075088102C009371580257F9501750881C1
:10027000060938150026FF00950175088102093925
:10028000150025073500463B017508950165148169
:1002900042C0C005010905A1011500250135004531
:1002A000017501950E05091901290E81029502813A
:1002B0000105012507463B017504950165140939BF
:1002C000814265009501810126FF0046FF0009304B
:1002D000093275089502810205027508950315001B
:1002E00026FF0009BB09C509C88102C0050109052F
:1002F000A10115002501350045017501951005097D
:1003000019012910810205012507463B0175049555
:100310000165140939814265009501810126FF00BC
:1003200046FF000930093109320935750895048105
:10033000020600FF092009210922092309240925B1
:100340000926092709280929092A092B950C810260
:100350000A21269508B102C05341542D57484545FE
:100360004C005341542D33440053415455524E00D8
:1003700047454E455349532D360047454E45534951
:10038000532D330056424F59004E545400534E459E
:1003900053004E4553004D554C54492D5441500087
:1003A0004E4F4E45005043452D36005043452D32AB
:1003B000004D554C54492D54415000535749544316
:1003C00048004552524F52004849440058494E5047
:1003D00055540047454E455349532B5341545552AC
:1003E0004E004E454F2D47454F0050432D454E473B
:1003F000494E45004E45532B534E45532B56424FC5
:10040000590000030C0F30333C3FC0C3CCCFF0F396
:10041000FCFF4445564943452057494C4C20524522
:100420005354415254004D4F44453A2000534156D5
:100430004544210A00484F4C443A20205341564538
:100440000A0050524553533A204348414E47450015
:100450004F5554505554204D4F44450A005245467F
:100460004C45580000000507206100000000000016
:10047000005F000060707870606050485060030753
:100480000F07030305090503081C3E7F7F081C2294
:10049000417F7F7F3E1C087F41221C08082A1C2ABE
:1004A0000808083E0808005030000008080808083E
:1004B000006060000020100804023E5149453E00E3
:1004C000427F400042615149462141454B31181459
:1004D000127F1027454545393C4A49493001710989
:1004E00005033649494936064949291E0036360072
:1004F000003C7E7E7E3C3C4242423C141414141468
:10050000F0F0F0F0F0F0909090F0324979413E7EBA
:100510001111117E7F494949363E414141227F41B7
:1005200041221C7F494949417F090901013E41415E
:1005300051327F0808087F00417F41002040413F41
:10054000017F081422417F404040407F0204027F27
:100550007F0408107F3E4141413E7F090909063E64
:100560004151215E7F091929464649494931010116
:100570007F01013F4040403F1F2040201F7F201847
:10058000207F631408146303047804036151494510
:100590004300007F4141020408102041417F0000D8
:1005A000383C1E0F074040404040382412090720C5
:1005B000545454787F4844443838444444203844A0
:1005C00044487F3854545418087E090102081454D2
:1005D000543C7F0804047800447D40002040443DA2
:1005E00000007F10284400417F40007C04180478FC
:1005F0007C0804047838444444387C1414140808F3
:100600001414187C7C080404084854545420043FF3
:100610004440203C4040207C1C2040201C3C40307A
:10062000403C44281028440C5050503C4464544CE6
:1006300044E0E0E0E0E000007F0000E0A0A0A0E0F7
:1006400008082A1C08081C2A08080006090906AC24
:1006500000198040005245424F4F54494E472E2EBC
:100660002E00053211241FBECFEFDAE0DEBFCDBF72
:1006700028E0A0ECB5E001C01D92AB30B207E1F775
:1006800015E0A0E0B1E0E4E0F7E602C005900D92CD
:10069000A03CB107D9F713E0C2E3D3E004C021972F
:1006A000FE010E943332C133D107C9F70E94C0272F
:1006B0000C9480330C940000CF93DF93EC0185E71A
:1006C00095E0998388831A8280E093E09C838B83F2
:1006D00080E09CE09E838D831F82188681E089875D
:1006E0008EE1E9EAF1E0DE01509601900D928A95E3
:1006F000E1F71FA61EA619AA18AA1BAA1AAAFE018C
:10070000F49688E0DF011D928A95E9F71CAE1DAED4
:100710001FAE1EAE3C961182108232968FEF9FE77D
:1007200091838083329691838083329691838083F4
:1007300032969183808332961082C55BDF4F188298
:10074000DF91CF910895FC01611109C081819281EF
:10075000807F480F592F511D528341830895613086
:1007600051F4818192818F7020E1429FA001112478
:10077000480F591FF1CF623039F481819281907F07
:1007800050E0542F4427F4CF633049F481819281A3
:100790009F7050E0542F44275295507FE9CF64302A
:1007A00011F443830895653011F44483089566304D
:1007B00011F445830895673009F4468308953FB7DF
:1007C000F8948091F1079091F207A091F307B0910E
:1007D000F40726B5A89B05C02F3F19F00196A11D6F
:1007E000B11D3FBFBA2FA92F982F8827BC01CD017B
:1007F000620F711D811D911D42E0660F771F881FDA
:10080000991F4A95D1F708958F929F92AF92BF9208
:10081000CF92DF92EF92FF924B015C010E94DF03C7
:100820006B017C010E94DF036C197D098E099F0911
:10083000683E734081059105A8F321E0821A910872
:10084000A108B10888EEC80E83E0D81EE11CF11C97
:1008500081149104A104B10429F7FF90EF90DF9077
:10086000CF90BF90AF909F908F900895AF92BF921E
:10087000CF92DF92EF92FF920F931F93CF93DF936C
:100880006C017B018B01040F151FEB015E01AE189B
:10089000BF08C017D10759F06991D601ED91FC91BD
:1008A0000190F081E02DC6010995892B79F7C501EA
:1008B000DF91CF911F910F91FF90EF90DF90CF903C
:1008C000BF90AF900895CF93DF93EC018A85882382
:1008D00029F081508A87DF91CF9108959C818E8184
:1008E0009817C8F78D856827E881F9810084F1851C
:1008F000E02D42E0CE0109958C818F5F8C83EBCF98
:10090000CF93DF93FC0187812FEF3FE7813011F414
:1009100020E830E8462F50E0DF018FE0689FA00D0F
:10092000B11D112450969C916185892F837082306E
:1009300021F1833029F0813021F580934C071BC0D1
:10094000611111C081E080934C079C70983009F4CC
:1009500057C09C30D1F0943009F055C0846093E0CA
:1009600090934B071CC0623061F480914C07882340
:1009700041F0813021F081E0E8CF80934C0782E0A4
:10098000E4CF10924C0780E0E0CF6230E1F5909127
:100990004B079923C1F1933089F194E0892B9FE0B3
:1009A000949FD001959FB00D1124AE0FBF1F50969C
:1009B0008C9350978085EF01C40FD51F813031F1A2
:1009C000823009F46CC088A9811108C056963C9306
:1009D0002E93559758963C932E9357978AA9811139
:1009E00055C06FE0649FC001659F900D1124E80F12
:1009F000F91F328F218F348F238F48C098E0CECFDC
:100A0000886094E0ADCF10924B07C9CF8AA98111BD
:100A100008C05A963C932E9359975C963C932E931C
:100A20005B978FE0849FD001859FB00D1124AE0F9E
:100A3000BF1F50968C918C70843071F1883049F5CD
:100A40008FEF9FEF2FE0249FD001259FB00D112441
:100A5000AE0FBF1F56969C938E93559750968C91D0
:100A6000837030E020E0813031F02FEF3FEF8230B3
:100A700011F02FEF3FE76FE0649FC001659F900D7D
:100A80001124E80FF91F308F278B108ADF91CF9147
:100A900008958FEF9FE7D6CF90E080E0D3CF88A96D
:100AA000811108C056963C932E93559758963C93C7
:100AB0002E9357978FE0849FD001859FB00D11240E
:100AC000AE0FBF1F50968C918C70843059F18830D6
:100AD00031F58FEF9FEF2FE0249FD001259FB00DC0
:100AE0001124AE0FBF1F5A969C938E935997509620
:100AF0008C91837030E020E0813031F02FEF3FEFB8
:100B0000823011F02FEF3FE76FE0649FC001659FD7
:100B1000900D1124E80FF91F348F238FB6CF8FEF7C
:100B20009FE7D9CF90E080E0D6CFCF93DF93DC0171
:100B300013962D913C911497C62FD0E0FC018FE0C5
:100B4000689FE00DF11D112461897289C901862316
:100B500097232817390709F04BC080898F7082309E
:100B600071F128F48130C9F190E080E021C0843037
:100B700089F08830C9F782E018968C93108A209506
:100B800030958189928928233923328B218B84E007
:100B900090E00EC081E018968C93108A20953095D5
:100BA0008189928928233923328B218B82E090E03E
:100BB00090934A0780934907DF91CF910895189643
:100BC0001C92108A20953095818992892823392397
:100BD000328B218B81E090E0EBCF108A209530950D
:100BE000262337233061328B218B88E090E0E0CFE1
:100BF00015964D915C9116976423752346175707F8
:100C000009F0B2CF80898F70823009F440C088F437
:100C1000813009F0A9CF19961C92108A4095509501
:100C20008189928948235923528B418B80E290E03D
:100C3000BFCF8430D9F1883009F096CF8091490731
:100C400090914A078115924041F01B968C911B9719
:100C500091E089271B968C931B972FE02C9FC00156
:100C60002D9F900D1124A80FB91F50961C925097DC
:100C70004095509551968D919C91529748235923B8
:100C800052965C934E93519780E092E091CF81E031
:100C900019968C93108A40955095818992894823A2
:100CA0005923528B418B80E490E082CF82E01996E9
:100CB0008C93108A409550958189928948235923B5
:100CC000528B418B80E890E073CF93B13FB12FB14D
:100CD0004FB196959170990F990F990F331F332744
:100CE000331F330F330F930F45FB332730F9930F27
:100CF00026FB222720F9220F920F813021F01B9929
:100D000090611E999062892F089549B12CB133B139
:100D100053B126FB992790F9990F990F242F221F81
:100D20002227221F220F220F220F920F55FB22276C
:100D300020F9920F34FB222720F9220F920F8130E5
:100D400021F03699906137999062892F0895982FF4
:100D50008F3479F0823069F0863169F0833169F03F
:100D6000803E69F0813E69F081E09F3F59F480E068
:100D7000089584E0089585E0089586E0089582E06E
:100D8000089583E0089584E98093BC0085E69091FE
:100D9000BC0094FF03C08150D1F7089581E008950D
:100DA000DF92EF92FF920F931F93CF93DF93FC019B
:100DB00086818387878190859587848781859285C1
:100DC00097878687D48014822C9A8BE290E00197D3
:100DD000F1F72C9883E190E00197F1F7208930E05A
:100DE000326750E040E090E080E0C3E1EC2EF12C6F
:100DF00037FF71C05C9A220F331F6CB166FB00276E
:100E000000F910E0B801042E02C0660F771F0A94A3
:100E1000E2F7862B972B2D98E7012197F1F72D9A72
:100E2000E7012197F1F74F5F5F4F4031510501F71F
:100E30005C98492F42954F7051E04D3009F450E1D4
:100E400070E060E030E020E0A3E1EA2EF12C1CB17C
:100E500016FBAA27A0F9B0E08D01062E02C0000FF4
:100E6000111F0A94E2F7202B312B2D98E7012197CF
:100E7000F1F72D9AE7012197F1F76F5F7F4F651723
:100E800030F380959095209530954F3029F42E3F82
:100E9000DFEF3D0709F444C0548161E0650F6483CE
:100EA00061E070E0511102C070E060E0411115C0D6
:100EB000A92FBB27AF70BB271F9779F44AE0469F45
:100EC000D001479FB00D1124AE0FBF1F4FE0169603
:100ED0004C93169715C05C988ECF542F509552FFA7
:100EE00047C02AE0269FD001279FB00D1124AE0FE6
:100EF000BF1F24E016962C9316975370252F30E0D1
:100F00001A963C932E9319972AE0269FD001279F8B
:100F1000B00D1124AE0FBF1F18969C938E93179798
:100F200084818D15E8F44AE09FEF21E030E08111E3
:100F300002C030E020E0429FD001439FB00D112459
:100F4000AE0FBF1F16969C93169718961C921E9272
:100F500017971A961C921E9219978F5FD812E5CF99
:100F6000DF91CF911F910F91FF90EF90DF90089547
:100F70005AE0569FD001579FB00D1124AE0FBF1FEE
:100F80005FE04527A4CF8091DF078F5F853018F49D
:100F90008093DF07089581E0FBCF08952198299879
:100FA000299A3E984698469A3F984798479A579864
:100FB0005F985F9A22982A982A9A6E987698769ADD
:100FC00054985C985C9A24982C982C9A25982D9883
:100FD0002D9A23982B982B9A1092A2011092A1017E
:100FE00064E170E080E090E00C94040484E091E01F
:100FF00008958DE795E008953E9A4698549A5C9836
:1010000025982D982D9A24982C982C9A6E9876983D
:10101000769A57985F985F9AFC01EC56FF4F1782BB
:101020003896AC0146545F4F2FEF3FEF108232836A
:1010300021831382358324833696E417F507B1F7AD
:10104000239A2B98229A2A9885988D988D9A86981B
:101050008E988E9A87988F988F9A21982998299A96
:101060001782FC01EE53FF4F80529F4F2FEF3FEF4F
:1010700010823283218313823583248336968E1720
:101080009F07B1F783E290E00197F1F782E0809348
:10109000A00162E370E080E090E00C94040483E03F
:1010A00091E0089587E895E00895DC0116961C927A
:1010B000169717961C9217978EE1E7ECF1E01896B9
:1010C00001900D928A95E1F708958A549F4FFC0193
:1010D0008081811103C081E091E0089582E091E078
:1010E00008958A549F4FFC018081811103C086E9D5
:1010F00095E008958EE895E00895FC0190819111A6
:1011000006C083819481019699F080E008959F3014
:1011100049F4228130E02F7033272F30310561F4FC
:1011200082E00895923031F0943031F485E00895F2
:1011300083E0089584E0089581E00895AF92BF921E
:10114000CF92DF92EF92FF920F931F93CF93DF9393
:10115000FC01E756FF4F1082249A2C98259A2D9A6D
:101160006E987698769A549A5C98DC01A655BF4F93
:101170001C92869A8E98859A8D9A87988F988F9AC6
:10118000229A2A98A3E2B0E01197F1F72081211169
:101190003EC0EC0182E08093A0018E010C561F4FEF
:1011A000C8010E94D006FE01E856FF4FB080D12C46
:1011B000780186E0E80EF11CCA54DF4F3AE0A32E16
:1011C000CC24CA94DB1461F1D11008C0C7010E947D
:1011D0007D0891E0853009F090E0988381E090E00F
:1011E000D11002C090E080E0A89EF001A99EF00D11
:1011F0001124E00FF11FC682108617821286118615
:10120000C3861586148617861686D394DBCF82E0B4
:101210008093A00188EE93E09093A2018093A101B6
:101220008091A1019091A2018230910538F0880F40
:10123000991F880F991F05970197F1F7DF91CF91BB
:101240001F910F91FF90EF90DF90CF90BF90AF90E4
:1012500008958CE091E008958EE995E00895DC0111
:1012600017961C92179718961C92189719961C920D
:1012700019978AE5E5EEF1E01A9601900D928A95AC
:10128000E1F70895FC0180818783818192819187B4
:101290008087838182878481838785818487868113
:1012A000858708958F929F92AF92BF92CF92DF92DF
:1012B000EF92FF920F931F93CF93DF937C01549A89
:1012C0005C9A25982D982D9A24982C982C9A6E9893
:1012D0007698769A57985F985F9A3E984698469A7D
:1012E0003F984798479AEC01CC56DF4F18868C01FF
:1012F00002561F4F5C0188EFA80EB11CCC24CA9483
:1013000088248A94982C30E8D32EF801C08216865F
:1013100092828182D382D48215821682C8010E9471
:101320004209015F1F4F0A151B0579F7229A2A9A75
:1013300085988D988D9A86988E988E9A87988F9892
:101340008F9A21982998299A23982B982B9A269836
:101350002E982E9AF801108687010E5F1E4FF4EA30
:10136000EF1AFEEFFF0ACC24CA94AA24AA94BA2C3E
:1013700090E8D92EF801C0821686B282A182D3826B
:10138000D48215821682C8010E944209015F1F4F54
:10139000E016F10679F762E370E080E090E00E94E9
:1013A000040480ED97E02BE030E0369940C0F9016D
:1013B0003197F1F70197C9F782E08093A00162E3CA
:1013C00070E080E090E0DF91CF911F910F91FF904E
:1013D000EF90DF90CF90BF90AF909F908F900C9444
:1013E0000404213009F06AC0813009F067C0998592
:1013F000913019F089873F9A479AE1E060E0F1E087
:101400004BE050E04798362F3F2780ED97E026B11C
:1014100026FB222720F932135BC0DA011197F1F77E
:101420000197A9F7C9CFE82F61E0479AECCF39B10E
:101430008CB193B143B186FB222720F9220F220FF2
:10144000832F881F8827881F880F880F880F280FF1
:1014500045FB882780F9280F94FB882780F9880F9F
:10146000280F5C988BE090E00197F1F749B19CB1AF
:1014700033B153B196FB882780F9880F880F942FDA
:10148000991F9927991F990F990F990F890F55FB4C
:10149000992790F9890F34FB992790F9990F890FB3
:1014A000233009F09ECF8F3049F48985813021F0B7
:1014B00081E089873F9A479A84E088875C9A89858A
:1014C000813009F4479A8BE090E00197F1F774CFEF
:1014D000CA010197F1F739B19CB123B173B196FB01
:1014E000882780F9880F880F932F991F9927991FB4
:1014F000990F990F990F890F75FB992790F9890F0B
:1015000024FB992790F9990F890F662309F48BCF53
:10151000613009F089CFE43089F6813079F686E0D0
:10152000CCCFFC016093BC002FEF3FEF8091BC005B
:1015300087FF06C09091B900987F908381E008955D
:101540002150310999F780E00895CF93DF93EC01A2
:101550006093BB0064E80E94910A882329F081E02F
:101560009881983209F080E0DF91CF910895DF9261
:10157000EF92FF920F931F93CF93DF93EC01D62E40
:10158000F42E8989882329F0411103C00E94C306E3
:10159000198A8E01015F1F4F8989811119C0E8885E
:1015A00064EAC8010E94910A882361F08F8588301F
:1015B00011F0803139F4EE0CE092BB0064E8C80110
:1015C0000E94910A60E0F11060E4C8010E94A50A3F
:1015D0006D2DC8010E94A50A82E0F8120BC089890E
:1015E0008F5F898BDF91CF911F910F91FF90EF90CB
:1015F000DF9008950E94C306198AF4CFDC01ED91B3
:10160000FC910084F185E02D40E00994FC012781E4
:10161000269526952695621720F46583606B0C94B9
:10162000FE0A08950F931F93CF93FC012681621742
:1016300098F4C62F8C0164836085C60F6C2F6F7081
:101640000E94FE0A6C2F62956F706061C801CF9195
:101650001F910F910C94FE0ACF911F910F91089545
:101660001F93CF93DF93EC01142F0E94120B612F75
:10167000CE01DF91CF911F910C94060B2F923F92D8
:101680004F925F926F927F928F929F92AF92BF9292
:10169000CF92DF92EF92FF920F931F93CF93DF933E
:1016A00000D000D000D0CDB7DEB7FC012385348553
:1016B0002115310509F416C19E838D83F9013296F7
:1016C000649031964491E42EF12CF7E0EF0EF11C7A
:1016D00053E0F594E7945A95E1F7E982F9013496DD
:1016E00054913196E4916D30F1F460E00E94120B58
:1016F00081E090E026960FB6F894DEBF0FBECDBF16
:10170000DF91CF911F910F91FF90EF90DF90CF90DD
:10171000BF90AF909F908F907F906F905F904F9011
:101720003F902F9008956A3081F460E08D819E8112
:101730000E94120BED81FE81868565818E9D600D74
:101740001124CF010E94060BD3CF651708F4CAC03D
:101750008E2F90E0FC01E50FF11D6E171F060CF0B7
:10176000C1C089010A5F1F4F651BED81FE81718534
:101770005685759F502D11245C83F90154912F5F7C
:101780003F4FF9012491352F2230310508F06AC00E
:101790006E9CC0016F9C900D1124689FF001699FA1
:1017A000F00D11240E0F1F1F512CED81FE81F481CD
:1017B000FA83ED81FE812580F285FB83862C912CB6
:1017C000AA24A394B12C312C8981381608F086C044
:1017D000412CED81FE818685481608F078C08B810A
:1017E0008287311002C0442041F0ED81FE814581A5
:1017F0004F5F6A81CF010E94300BD12CC12CC614DF
:1018000008F058C0F801EC0DFD1D7490552061F0F2
:10181000EA14FB0449F4E72DF0E0052C02C0F5952D
:10182000E7950A94E2F77E2EED81FE81868582306F
:1018300081F4442009F43AC072948FE07822E72DB5
:10184000F0E0EE5FFB4F7490672D8D819E810E94CA
:101850006304672D8D819E810E9463048FEFC81AF7
:10186000D80ACDCF477028E0522E541A411101C03A
:10187000512CF801612C30E020E0661631F04491E3
:10188000240F311D63943196F8CF600E712E711CB8
:10189000F3016490E29EF001E39EF00DF29EF00DE4
:1018A00011248E0F9F1F080F191F7FCFF72DFF7078
:1018B0007F2EC5CFD12CEC81DE1639F060E08D8112
:1018C0009E810E946304D394F6CF439482CF3394D5
:1018D000080D191DFFEFAF1ABF0A76CF622D8D815B
:1018E0009E8130CF90E080E005CF0F931F93CF9380
:1018F000DF938C01D0E0C0E0F801EC0FFD1F649194
:10190000662341F085EF97E00E943E0B892B11F092
:101910002196F2CFCE01DF91CF911F910F910895C3
:10192000811104C08CEC93E00C94750C813019F497
:101930008BEB93E0F9CF8250853018F488EC93E07C
:10194000F3CF82EC93E0F0CF682F85EF97E00C9413
:101950003E0BCF92DF92EF92FF920F931F93CF93A4
:10196000DF93EC01F62EC42ED22E1A868F81869537
:1019700086958695081710F00FEF080F1D2D01179B
:1019800080F0412F6F2DCE010E94300BEF2CCE1432
:1019900030F06D85CE010E946304E394F8CF1F5FA1
:1019A000EECF4D2D6F2DCE01DF91CF911F910F9175
:1019B000FF90EF90DF90CF900C94300B0F93FC01D1
:1019C000078106950695069501504681415020E015
:1019D00060E00E94A90C0F9108954F925F926F9260
:1019E0007F928F92AF92CF92EF92FF920F931F93BD
:1019F000CF93DF93CDB7DEB72701380194E0899FFD
:101A000080011124F801E25CF84F80819181A2816C
:101A1000B3818E219521A621B72131E0892B8A2B14
:101A20008B2B09F430E03C1103C088898823F1F046
:101A3000C11001C0A82C2D5F640F422F85EF97E0E5
:101A40000E94300B8A2D0E94A40CF801E25CF84F32
:101A5000CC20D1F080819181A281B3818429952904
:101A6000A629B72980839183A283B383DF91CF9185
:101A70001F910F91FF90EF90CF90AF908F907F903C
:101A80006F905F904F90089540945094609470943C
:101A900080819181A281B38184219521A621B721E2
:101AA000E1CF2F923F924F925F926F927F928F92EF
:101AB000AF92CF92DF92EF92FF920F931F93CF934B
:101AC000DF93CDB7DEB760970FB6F894DEBF0FBED9
:101AD000CDBF3C01809159018823C1F11092590179
:101AE00007E023E04CE360E085EF97E00E94A90C5B
:101AF00047E060E085EF97E00E94300B13010EE9AC
:101B0000200E311C23011EEE410E511CDD24D39406
:101B1000D101ED90FD900D911C911397DF921796D6
:101B20008C9017971696AC901697C12C14962C9102
:101B3000149715964C9163E280E00E94ED0CB8E09A
:101B40002B0E311C0F904214530411F763B133B1C3
:101B500073B1E9B15CB193B149B186B126B1F3B1CA
:101B600063FB662760F9660F688B1F8635FB33279A
:101B700030F93A8319820F851889A981BA810A2B15
:101B80001B2BF695F170FB831C82AB81BC810A2B69
:101B90001B2B729571707D831E826D817E8176957F
:101BA000762F662777956795062B172BE295E170C0
:101BB000EF8318866F817885E6E0660F771FEA95D8
:101BC000E1F7062B172B56FB552750F959871A8634
:101BD00069857A85F5E0660F771FFA95E1F7062BA0
:101BE000172B92FB992790F99B871C866B857C8528
:101BF000A4E0660F771FAA95E1F7062B172B042E9A
:101C0000000C550B4427550F441F552793E0440FF4
:101C1000551F9A95E1F7042B152B082E000C990BF4
:101C20008827990F881F9927880F991F880F991F58
:101C3000082B192B26FB222720F92D871E868D8540
:101C40009E85880F991F082B192B1A830983809171
:101C50005701909158018017910709F4ACC0109377
:101C60005801009357019801209530952170332732
:101C700080E001FF82E0822BB98190E0B2FF94E026
:101C8000892BE98190E0E3FF98E0892BD3015096FE
:101C90008C9389819A8124E0969587952A95E1F71E
:101CA000B1E08B279C0121703327E98190E080E02F
:101CB000E5FD02C082E090E0822B932BF98130E0B9
:101CC00020E0F6FD02C024E030E0822B932B098156
:101CD00030E020E007FD02C028E030E0822B932BAB
:101CE00029813A8130FF64C030E020E0822B932BC1
:101CF00049815A8130E020E051FD02C020E032E00D
:101D0000822B932BD30152969C938E935197BEE9CD
:101D10006B0E711C312C212C44244394512CC20194
:101D2000022C02C0880F991F0A94E2F7E981FA8118
:101D30008E239F23CC24C394892B09F0C12CD3017B
:101D4000ED90FD900D911C9113971F9217968C901A
:101D500017971696AC90169714962C911497159683
:101D60004C9163E280E00E94ED0CBFEF2B1A3B0A1E
:101D7000E8E06E0E711C0F90FAE02F16310479F630
:101D800081E060960FB6F894DEBF0FBECDBFDF9145
:101D9000CF911F910F91FF90EF90DF90CF90AF9078
:101DA0008F907F906F905F904F903F902F9008950D
:101DB00020E031E09BCF80E0E4CF3F924F925F92F2
:101DC0006F927F928F929F92AF92BF92CF92DF924B
:101DD000EF92FF920F931F93CF93DF93B62E942E23
:101DE0002901302EEC01C052DF4FD12C662E712C10
:101DF000660C771CC301895E9A4F3C0192E09912F0
:101E000003C0E7E0ED15E8F0E880F9800A811B8166
:101E10002C814D81AE808F8081E04114510449F0C6
:101E2000F201618172816E217F2181E0672B09F0CF
:101E300080E03F92C82EF30160818B2D0E94ED0C53
:101E40000F90D3942896FCE0DF12D8CFDF91CF918A
:101E50001F910F91FF90EF90DF90CF90BF90AF90C8
:101E60009F908F907F906F905F904F903F900895DC
:101E7000EF92FF920F931F93CF93DF937C01C62FB6
:101E8000D42FE62FF0E0EE0FFF1FE95EFA4F10812E
:101E900007E023E04181612F85EF97E00E94A90CC4
:101EA00047E0612F85EF97E00E94300BD23061F060
:101EB000D330F9F080EA93E0DF91CF911F910F9139
:101EC000FF90EF900C94750C8BEA93E00E94750CD8
:101ED000C23041F001E030E020E04D2F6C2FC7010F
:101EE0000E94DD0EDF91CF911F910F91FF90EF9037
:101EF000089585EA93E0EACF6F927F928F929F9246
:101F0000AF92BF92CF92DF92EF92FF920F931F9307
:101F1000CF93DF93EC01D62E742EE62FF0E0EE0F78
:101F2000FF1FE95EFA4FB08007E023E041816B2D8F
:101F300085EF97E00E94A90C47E06B2D85EF97E0B5
:101F40000E94300B83E0781619F18715B8F0E2E0B3
:101F500082E993E07E16F1F080EA93E0DF91CF9181
:101F60001F910F91FF90EF90DF90CF90BF90AF90B7
:101F70009F908F907F906F900C94750CF4E07F167B
:101F800009F442C085E07812E7CF84E893E002C00C
:101F90008DE893E00E94750CE2E0DE1631F1FE015F
:101FA000EA54FF4F8081882391F13E01F9EC6F1ACA
:101FB000FEEF7F0AC955DE4F99249394F301E08028
:101FC000F180028113819F928780A680CC24C394E4
:101FD000248145816B2D8D2D0E94ED0CF8E06F0E54
:101FE000711C0F906C167D0649F7DF91CF911F9100
:101FF0000F91FF90EF90DF90CF90BF90AF909F90A8
:102000008F907F906F90089589E893E0C3CFC95473
:10201000DF4F612C9924939482E078121FC0E7E08F
:10202000E615B0F0F3E0F615C8F0FE01E05AFF4FF8
:10203000E080F180028113819F928780A680CC246A
:10204000C394248145816B2D8D2D0E94ED0C0F9042
:10205000639428968CE06812DFCFC7CFFE01E8CFEB
:102060003F924F925F926F927F928F929F92AF9228
:10207000BF92CF92DF92EF92FF920F931F93CF9375
:10208000DF93B62E942E2901302EEC01C45ADE4F78
:10209000D12C662E712C660C771CC301895E9A4F79
:1020A0003C0192E0991215C0E8E0DE1218C0DF9101
:1020B000CF911F910F91FF90EF90DF90CF90BF9045
:1020C000AF909F908F907F906F905F904F903F90D8
:1020D0000895F3E09F1203C08CE0D816E9F0E88081
:1020E000F9800A811B812C814D81AE808F8081E037
:1020F0004114510449F0F201618172816E217F2106
:1021000081E0672B09F080E03F92C82EF3016081E7
:102110008B2D0E94ED0C0F90D3942896FDE0DF12DA
:10212000C0CFC5CFEF92FF920F931F93CF93DF9352
:102130007C01D62FC42FE62FF0E0EE0FFF1FE95EE3
:10214000FA4F108107E023E04181612F85EF97E08E
:102150000E94A90C47E0612F85EF97E00E94300BA9
:10216000C43069F180F4C23039F180E793E0C330C4
:1021700081F080EA93E0DF91CF911F910F91FF9062
:10218000EF900C94750CC530E9F088E593E0C6300B
:1021900081F70E94750CD23041F001E030E020E080
:1021A0004C2F6D2FC7010E943010DF91CF911F91EE
:1021B0000F91FF90EF9008958AE793E0EACF89E6C8
:1021C00093E0E7CF82E693E0E4CF0F9307E022E0CD
:1021D0004FE760E085EF97E00E94A90C8091DF0750
:1021E0008230D9F020F4813071F00F91089583305E
:1021F000E1F08430D1F76AE285EF97E00E94120B9C
:1022000082EE93E007C06CE085EF97E00E94120B2E
:1022100083ED93E00F910C94750C6CE085EF97E0E3
:102220000E94120B84EF93E0F5CF64E285EF97E014
:102230000E94120B8AEE93E0EDCF80939F016EEA2D
:1022400081116FEA85EF97E00E94FE0A2FB7F8949C
:102250008091ED079091EE07A091EF07B091F00704
:102260002FBF8093E0079093E107A093E207B0931C
:10227000E307089590E080E00895CF93DF93CDB712
:10228000DEB72F970FB6F894DEBF0FBECDBF2091FB
:10229000A0016217E0F42FE0FE013196DF01322F3A
:1022A0001D923A95E9F74FEF5FE75F834E835987B9
:1022B00048875B874A875D874C87DC01269FA00D96
:1022C000B11D1124509601900D922A95E1F72F9699
:1022D0000FB6F894DEBF0FBECDBFDF91CF9108954A
:1022E0002F923F924F925F926F927F928F929F9226
:1022F000AF92BF92CF92DF92EF92FF920F931F9314
:10230000CF93DF93CDB7DEB729970FB6F894DEBF32
:102310000FBECDBF6C019E012F5F3F4F290186E0AC
:10232000D9011D928A95E9F780915601882381F0A1
:10233000109256018091A001833050F045E06EE18B
:1023400085EF97E00E94300B81EB93E00E94750CC3
:10235000F601E456FF4F36015601BAEBAB0EB11C45
:102360008081838381819281958384833696AE16A2
:10237000BF06B1F74601E4E98E0E911CD401169612
:10238000EC90169716961C92169717961C92469AE2
:102390005C9A83E090E00197F1F729B18CB193B199
:1023A00033B186FB442740F9440F440F822F881F26
:1023B0008827881F880F880F880F480F35FB8827CC
:1023C00080F9480F94FB882780F9880F480F09F09F
:1023D0007AC0F401868191E0980F9683863008F0E8
:1023E00085E0082F10E0F6E08F9FC0011124FC016A
:1023F0003896E80DF91D880D991DDC0118968C9111
:10240000882319F051E0833009F452E0F12C63E0A5
:1024100070E05C98CB010197F1F7A9B19CB123B1B1
:1024200033B196FB882780F9880F880F9A2F991F60
:102430009927991F990F990F990F890F35FB33270A
:1024400030F9830F24FB992790F9990F890F46984B
:10245000DB011197F1F7B9B19CB133B1A3B196FB90
:10246000222720F9220F220F9B2F991F9927991FAE
:10247000990F990F990F290FA5FBAA27A0F92A0FE9
:1024800034FB992790F9990F290FA181B28130E08F
:10249000811141C0B07F322F2227A20FB31FB28318
:1024A000A183FF24F3944F5F54132CC083E0F110F9
:1024B00001C082E096E0909FF001919FF00D112401
:1024C000E80DF91D808746985C9883E290E00197BB
:1024D000F1F7F401268180E036E04FEF5FEF281737
:1024E00049F1982F863008F095E0F401399FE00D0E
:1024F000F11D112460859385691711F0528741877A
:102500008F5FEDCF413009F084CF469A5C9ACB01C2
:102510000197F1F77ECFA07F8A0F9B2F911D8F70BF
:10252000A4E0220F331FAA95E1F7280F391F328349
:102530002183B9CF8E1590F446E02FEF3FEF982F0F
:10254000863008F095E0F401499FE00DF11D11245B
:102550001086328721878F5FE812F1CFF601EE53A4
:10256000FF4FC60180529F4F2081238321813281FA
:10257000358324833696E817F907B1F7D501169607
:10258000EC90169716961C92169717961C922B9AFB
:102590002A9A83E090E00197F1F743B19FB18FB1A0
:1025A0002FB146954170440F440F440F991F99274E
:1025B000991F990F990F490F25FB992790F9490FFA
:1025C00086FB882780F9880F480F09F076C0F5014F
:1025D000868191E0980F9683863008F085E0082F79
:1025E00010E0F6E08F9FC0011124FC013896EA0D3F
:1025F000FB1D8A0D9B1DDC0118968C91882319F018
:1026000051E0833009F452E0F12C63E070E02A9845
:10261000CB010197F1F783B12FB19FB13FB18695FF
:102620008170880F880F880F221F2227221F220FF8
:10263000220F820F35FB332730F9830F96FB992742
:1026400090F9990F890F2B98DB011197F1F723B1BE
:102650003FB19FB1AFB126952170220F220F220FFB
:10266000331F3327331F330F330F230FA5FBAA2745
:10267000A0F92A0F96FB992790F9990F290FA181AC
:10268000B28130E0811142C0B07F322F2227A20FE9
:10269000B31FB283A183FF24F3944F5F54132DC063
:1026A00083E0F11001C082E096E0909FF001919FDD
:1026B000F00D1124EA0DFB1D80872B982A9883E2E8
:1026C00090E00197F1F7F5019681312C26E04FEF6C
:1026D0005FEF931551F1832DF5E0F31508F485E0D4
:1026E000F501289FE00DF11D1124308583853817F1
:1026F00011F0528741873394ECCF413009F087CFF6
:102700002B9A2A9ACB010197F1F781CFA07F8A0FEC
:102710009B2F911D8F70A4E0220F331FAA95E1F724
:10272000280F391F32832183B8CF3E1498F4832DAC
:1027300046E02FEF3FEF982F863008F095E0F50147
:10274000499FE00DF11D11241086328721878F5F8C
:10275000E812F1CFF601E656FF4F2080222D230D1F
:10276000288710E019860091A0013885131709F415
:10277000DBC0101709F4D8C041E04F83121508F4EC
:102780001F82812F121570F5163008F085E0D401F4
:10279000E6E08E9FA00DB11D11249D01285F3F4FE3
:1027A0007901023049F4222069F1D9018C91F201BA
:1027B000BF81EB0FF11D8083D7019C9113968C9103
:1027C0001397981328C011962D913C911297149647
:1027D0008D919C912817390751F51F5FFFE06F0E0F
:1027E000711CC1CF8219863008F085E0D501E6E082
:1027F0008E9FA00DB11D11249D01285F3F4F7901CF
:102800000230D1F63320C1F2F7018081F2012F812D
:10281000E20FF11DD0CF612FC6010E943D110230A1
:1028200031F4F70140816F81C6010E94380FD70152
:1028300011962D913C91A9014095509541705527D5
:1028400082E022FD80E0842B94E023FD90E0892B40
:1028500098E021FD90E0892BF301808BD701119640
:102860004D915C91CA0125E0969587952A95E1F7EF
:10287000B1E08B279C012170332782E090E044FF78
:1028800002C090E080E0822B932B20E031E046FFF5
:1028900002C030E020E0822B932B20E032E047FFA3
:1028A00002C030E020E0822B932BF301928B818BCE
:1028B000D7014C91433041F511966D917C91E4E044
:1028C000F0E072FF02C0F0E0E0E028E030E073FFEB
:1028D00002C030E020E08E2B9F2BE0E1F0E071FFA2
:1028E00002C0F0E0E0E0822B932B20E230E070FFAA
:1028F00002C030E020E0E82BF92BE22BF32BD301D0
:102900005296FC93EE9351978091A001823049F446
:1029100000E097016F81C6010E94DD0EB1E0B9872A
:102920005CCFE1E0E98759CF1981023059F48091F9
:102930005001811739F0111105C040E060E0C60177
:102940000E94380F109350011A818091A0018230AB
:1029500059F480915101811739F0111105C040E0FF
:1029600061E0C6010E94380F1093510100914807A1
:102970002885201760F4122F8091A001811739F06B
:10298000612FC6010E943D111F5F1017A8F3388503
:1029900030934807898529960FB6F894DEBF0FBE9D
:1029A000CDBFDF91CF911F910F91FF90EF90DF90FE
:1029B000CF90BF90AF909F908F907F906F905F90DF
:1029C0004F903F902F9008952F923F924F925F9299
:1029D0006F927F928F929F92AF92BF92CF92DF922F
:1029E000EF92FF920F931F93CF93DF93CDB7DEB794
:1029F00066970FB6F894DEBF0FBECDBF3C0186E0F0
:102A0000FE013196DF011D928A95E9F780914F0111
:102A1000882381F010924F018091A001833050F003
:102A200045E064E285EF97E00E94300B86E993E091
:102A30000E94750CF301EC55FF4FD301D5969C9184
:102A4000D597907FD7968C9182958F70892B8083B4
:102A50007097FA8BE98BCF010E94D006F301E55500
:102A6000FF4F8081858381819281978386838381D3
:102A70009481918780873697D48014828E9A8BE2D6
:102A800090E00197F1F78E9883E190E00197F1F7DC
:102A9000408950E0526770E060E090E080E003E140
:102AA00010E057FF76C02A9A440F551F2FB1022E0F
:102AB000000C330B2227330F221F3327062E02C0B0
:102AC000220F331F0A94E2F7822B932B8D98D801A3
:102AD0001197F1F78D9AD8011197F1F76F5F7F4F3A
:102AE00060317105F1F62A98492F42954F7050E1F7
:102AF0004D3009F051E070E060E030E020E003E1AB
:102B000010E0AFB10A2E000CBB0BAA27BB0FAA1F07
:102B1000BB27062E02C0AA0FBB1F0A94E2F72A2B7E
:102B20003B2B8D98D8011197F1F78D9AD801119709
:102B3000F1F76F5F7F4F651720F38C0100951095BB
:102B4000209530954F3029F42E3FBFEF3B0709F415
:102B500047C0848191E0980F948361E070E0811117
:102B600002C070E060E0411116C0812F99278F707C
:102B700099270F9781F44AE0469FC001479F900D27
:102B800011248E0F9F1F4FE0DC0116964C93169771
:102B900016C02A9889CF942F909592FF8AC08AE018
:102BA000869FA001879F500D11244E0F5F1F84E068
:102BB000DA0116968C9316979370292F30E01A96A7
:102BC0003C932E9319972AE0269FC001279F900DD2
:102BD00011248E0F9F1FDC0118961C930E931797DC
:102BE000B481BE87BD15F0F48B2F4AE09FEF21E042
:102BF00030E0811102C030E020E0429FD001439FCD
:102C0000B00D1124AE0FBF1F16969C931697189601
:102C10001C921E9217971A961C921E9219978F5FFC
:102C2000D812E5CFF301E856FF4F9080EE85E90D0D
:102C3000ED8779866886788A6F86B12CF12C9301AE
:102C40002B553F4F3C8B2B8BC3018A549F4F9E8B40
:102C50008D8B1091A0019D85B91609F452C2B11651
:102C600009F44FC2DD24D394B91408F4D12C21E027
:102C700030E0B91448F5B11002C030E020E04AE07D
:102C8000429FC001439F900D1124069629883A88DF
:102C9000280E391E123061F5992039F1C1010E94C8
:102CA0007D08E1E0F0E0EC0FFD1FED0DF11D8083EC
:102CB0001FC05AE0569FC001579F900D11248E0FE0
:102CC0009F1F5FE0452760CFB91002C030E020E0D1
:102CD0004AE0429FC001439F900D112406962B8825
:102CE0003C88280E391E123019F4AE85A111D6CFBA
:102CF000F1019081858198130FC0218132818681F5
:102D000097812817390741F4238134818085918583
:102D10002817390709F477C0AF85B889D2961C9275
:102D2000F1018081958189130CC0811118C08381C4
:102D300094810196A1F4D10118968D919C910196F0
:102D400071F06B2DC3010E943D11123041F4C1019D
:102D50000E947D08482F6D2DC3010E947C0FC10188
:102D60000E947D088A87F10121813281C90154E0E6
:102D7000969587955A95E1F7982F917082E025FFF7
:102D800080E0892B94E026FF90E0892B98E027FFD4
:102D900090E0892BA885B98550968C93F10121810B
:102DA0003281FA85A90141705527F230C1F582E0E0
:102DB00090E021FD02C090E080E0842B952BA88557
:102DC000B98552969C938E935197D10111962C916F
:102DD00080E091E022FD02C090E080E023FFF4C09B
:102DE00020E032E0E885F98541895289842B952BD2
:102DF000822B932B928B818B8091A001823009F4DE
:102E0000E6C0FF24F394B394888599850F9699873B
:102E10008887AF85B8891196B88BAF871ACF82E0C3
:102E200090E030FD02C090E080E0842B952B44E0E0
:102E300050E021FD02C050E040E0842B952B48E09B
:102E400050E031FD02C050E040E0842B952B40E182
:102E500050E032FD02C050E040E0842B952B33FF60
:102E60008EC020E230E0822B932BE885F985928B8F
:102E7000818BFA85F43009F088C0D10113964D9109
:102E80005C9160E470E052FD02C070E060E020E818
:102E900030E055FD02C030E020E0862B972BE0E0CB
:102EA000F4E053FD02C0F0E0E0E0282B392B60E0B5
:102EB00078E054FD02C070E060E02E2B3F2B80E0F4
:102EC00090E157FD02C090E080E0262B372B282BA5
:102ED000392BE885F985328B218BD10113962D9101
:102EE0003C91A9014170552782E090E021FD02C08C
:102EF00090E080E0842B952B44E050E022FD02C05E
:102F000050E040E0842B952B48E050E023FD02C0C8
:102F100050E040E0842B952B40E150E024FD02C0BE
:102F200050E040E0842B952B40E250E025FD02C0AC
:102F300050E040E0842B952B40E450E026FD02C099
:102F400050E040E0842B952B40E850E027FD02C084
:102F500050E040E0842B952B40E051E030FD02C072
:102F600050E040E0842B952B31FF0CC020E032E094
:102F7000822B932BE885F985948B838B26CF30E0C9
:102F800020E071CF30E020E0F3CFFA85F53009F092
:102F90001CCFD10113962D913C91A9014170552769
:102FA00020FF02C040E450E021FF0BC020E830E0E9
:102FB000842B952B822B932BE885F985928B818B23
:102FC00004CF30E020E0F4CF30E020E00BCFAD893B
:102FD000BE898C912301882309F455C0B9EC4B1AA2
:102FE000BEEF5B0A1F82ED2DF0E0EE0FFF1FE95EE2
:102FF000FA4F20812B87D201ED90FD900D911C910D
:10300000139714962C91149715964C911597169624
:10301000AC90169717968C90BF81BC3010F5EA855E
:10302000E23091F4B83080F01F92C12C6B858D2D69
:103030000E94ED0C0F90FF81FF5FFF8328E0420E9E
:10304000511CFE30C1F6DDCED10111968D919C91BF
:103050008E219F21CC24C394892B09F4C12C1F926B
:10306000E5CFBA85B530D1F7F10163817481D8011C
:10307000C7013CE0B695A795979587953A95D1F706
:1030800086239723E7CF37EB430E511C1F828D2DEC
:1030900090E0880F991FDC01A95EBA4FBC87AB870F
:1030A000BA85B23061F5EF81E83000F5E43038F5EB
:1030B000F201E05AFF4FE080F18002811381D101DB
:1030C00011968D919C918E219F21CC24C394892BA4
:1030D00009F4C12C1F928780A68024814581EB854D
:1030E000FC8560818D2D0E94ED0C0F90FF81FF5FAC
:1030F000FF8328E0420E511CFC3091F682CEF20193
:10310000DACF0981123059F480914901801739F0E2
:10311000011105C040E060E0C3010E947C0F0093F4
:1031200049011A818091A001823059F480914A01AD
:10313000811739F0111105C040E061E0C3010E9420
:103140007C0F10934A0110914707BD85B11760F4B9
:10315000DB2E8091A0018D1539F06D2DC3010E94E9
:103160003D11D394D116A8F3ED85E09347078F2D39
:1031700066960FB6F894DEBF0FBECDBFDF91CF913C
:103180001F910F91FF90EF90DF90CF90BF90AF9085
:103190009F908F907F906F905F904F903F902F9077
:1031A0000895FC018091FC069091FD068617970713
:1031B000A0F06115710529F49091E8009E77909335
:1031C000E80090E06115710551F4911108C08091FB
:1031D000E80082FF35C080E00895BC01F2CF809105
:1031E000DB078823C9F18530C9F18091E80083FDB0
:1031F00031C08091E80082FDEACF8091E80080FF35
:10320000E1CF2091F3008091F200322F282F611539
:10321000710519F02034310558F091E02034310562
:1032200009F090E02091E8002E772093E800CACFC3
:1032300081918093F100615071092F5F3F4FE7CF7B
:103240008091DB07882341F0853041F08091E800D0
:1032500083FFBDCF81E0089582E0089583E0089563
:103260002091E4003091E50085E69091EC0090FF1C
:1032700006C09091E80090FF06C080E0089590910C
:10328000E80092FDFACF9091DB07992391F09530F9
:1032900091F09091EB0095FD10C04091E4005091A9
:1032A000E5002417350709F381509A01F1F684E00F
:1032B000089582E0089583E0089581E00895809163
:1032C000F60687FF13C08091E80082FF06C0809158
:1032D000E8008B778093E80004C08091DB078111C0
:1032E000F2CF08958091DB078823D9F38091E8001D
:1032F00080FFF8CF8091E8008E77ECCF982F973041
:1033000028F08F708093E90081E008959093E900A0
:10331000242F762F50E0981731F07091EC00209117
:10332000ED005091F00021FD02C09F5FE8CF309189
:10333000EB003E7F3093EB003091ED003D7F30930A
:10334000ED003091EB0031603093EB007093EC00B6
:103350002093ED005093F0002091EE0027FDE5CF83
:1033600080E0089542E050E065EA75E085EF97E07F
:103370000C943604CF93DF930E94750CEC010E94ED
:10338000B2198C0F9D1FDF91CF9108950E945E337B
:103390002F923F924F925F926F927F928F929F9265
:1033A000AF92BF92CF92DF92EF92FF920F931F9353
:1033B000CF93DF93CDB7DEB764970FB6F894DEBF37
:1033C0000FBECDBF6C019E012F5F3F4F38872F830B
:1033D00086E0D9011D928A95E9F7809148018823FA
:1033E00081F0109248018091A001833050F045E0B7
:1033F0006EE185EF97E00E94300B81EB93E00E9435
:10340000750C860102561F4FDA86C9861601B8EF81
:103410002B0E311CC8010E944209015F1F4F02158B
:103420001305C1F72601E4E94E0E511CD20117968F
:103430009C90179717961C92179718961C925C9A57
:103440000BE010E0C8010197F1F77601BDE9EB0E42
:10345000F11CF70180810E948506782E5C98C801D6
:103460000197F1F7D7018C910E948506272D2770CF
:10347000F2019185372D3F70243009F0B5C09130AD
:1034800021F091E091873F9A479AD20117969C913B
:10349000179721E0290F17962C93973008F096E0A4
:1034A000F201BFE09B9FE00DF11D11249FE4928784
:1034B000438554855F70232F30E0322F22273295C9
:1034C000307F240F351F207F8F70280F311D3487E8
:1034D00023875C9A47982BE030E0C9010197F1F708
:1034E00059B19CB143B163B196FB882780F9880F2D
:1034F000880F952F991F9927991F990F990F990F49
:10350000890F65FB992790F9890F44FB992790F95A
:10351000990F890F40E1849FC00111244385548590
:103520004F70840F951F948783875C984798C901D3
:103530000197F1F739B19CB123B143B196FB8827CC
:1035400080F9880F880F932F991F9927991F990F3A
:10355000990F990F890F45FB992790F9890F24FB43
:10356000992790F9990F890F90E0982F8827238544
:103570003485307F820F931F948783875C9AF20192
:103580008185813009F4479A83E290E00197F1F751
:10359000D20117961C9160E07FE04FEF5FEF00E8EB
:1035A000161709F414C2862F673008F086E0282F1A
:1035B00030E0F201789FE00DF11D112492858189A0
:1035C000981781F054874387058706872F5F3F4F01
:1035D000729FC001739F900D1124840D951DDC0115
:1035E0001C92108A6F5FDCCF313009F03AC1282F6E
:1035F0002F70213009F035C1913019F021873F9AA1
:10360000479A60E041E02BE030E04798762F74273E
:1036100080ED97E056B156FB552750F97513F5C666
:10362000F9013197F1F70197A9F7A8CF79B19CB1CA
:1036300053B1E3B196FB882780F9880F880F972F45
:10364000991F9927991F990F990F990F890FE5FBDA
:10365000992790F9890F54FB992790F9990F890FB1
:10366000613009F0F1C6B4E0BB1203C0813009F447
:1036700085CFF82EFF0CB11020C0823029F190E0E8
:1036800080E051E06BE070E0F91609F477CF882311
:1036900009F494C0479A8527A82FA17020ED37E040
:1036A00046B146FB442740F9FB01A413D0C631972D
:1036B000F1F721503109A1F761CFE1E0BE1270C0EE
:1036C000863011F08330D9F6D20117969C91179766
:1036D00021E0290F17962C93973008F096E0292FB8
:1036E00030E06FE0A201969F400D511D1124FA01B8
:1036F0003A96FC87EB87629FA001639F500D1124CF
:10370000FEE0440D551DBF125BC0BB24BA94B80E39
:1037100080EEB826DA011A96BC9210E0E12C00E0A7
:1037200083E0682E712C8FE0829F5001839FB00C44
:103730001124A40CB51CA501405F5F4F5E874D8727
:103740002F5F3F4F829FA001839F500D1124B20134
:10375000640F751F788B6F87C5010E969A8B898BC6
:10376000D5011D96BC8BAB8BBBE0AB0EB11CF1162B
:1037700009F404CFEE2069F1479A81E0E8263E2D56
:10378000317080ED97E026B126FB222720F9321315
:1037900062C6EBE0F0E03197F1F70197A1F7EECECA
:1037A000FEE0BF1204C0833008F48ECF68CF2FE054
:1037B000B21265CF8F3009F062CFE0CE47986BCF61
:1037C000B0E1BB9EB0011124B82EB626FA01B28634
:1037D000A4CF4798D2CF133079F4F50120813181FD
:1037E0003F70487050E0542F44275295507F420F4D
:1037F000531F5183408352C6143089F1153049F468
:10380000F0E10F9FC0011124482BAB89BC894C9378
:1038100045C6163021F1173049F4B0E10B9FC001C5
:103820001124482BE989FA89408338C61830B9F049
:10383000193041F4F0E10F9FC0011124482BAF85EE
:10384000B889E5CF1A3059F01B3009F027C6B0E12E
:103850000B9FC0011124482BED85FE85E5CF042F79
:103860001DC6282F2C7009F09BC0992331F0D2017E
:1038700019961C923F984798479AF201978121E048
:10388000290F2783973008F096E0A92EB12CF2017A
:103890002FE0929FE00DF11D112490EE9287972D5D
:1038A0009C7009F46BCE43855485407FBA01630F49
:1038B000711D9B012F707294AFE07A2286958695D8
:1038C000782A70E1779EC0011124280F391F3487B0
:1038D000238784E091E04BE050E021E0992309F454
:1038E0005DC05C9AFA013197F1F792278150B1F7E8
:1038F000D7018C910E9485069FE09A9DF0019B9DC7
:10390000F00D1124E40DF51D908D992321F021EE89
:1039100022879150908F8F7009F030CE8FE08A9D72
:1039200080018B9D100D1124040D151D84E6F801F6
:10393000808F5C9A3BE0A32EB12CC5010197F1F773
:10394000D7018C910E948506782E5C98C50101975D
:10395000F1F7F70180810E94850691EED8011A9651
:103960009C931A971B962D913C911C97307F472D65
:103970004F7050E0542F4427240F351F3F70880F9D
:10398000880F880F90E0982F88279295907F280FB6
:10399000391F1C963C932E931B97F0CD5C98A2CFB9
:1039A000333061F48F708F3049F4913009F4E6CDF3
:1039B00081E0F20181873F9A479AE0CD992309F48B
:1039C000DDCDD20119961C923F984798F5CF691525
:1039D00028F57FE01FEF4FEF5FEF00E8862F67309D
:1039E00008F086E0282F30E0F201789FE00DF11D0D
:1039F00011241287108E54874387058706872F5F0F
:103A00003F4F729FC001739F900D1124840D951D2F
:103A1000DC011C92108A6F5F9612E0CF7601BEEF38
:103A2000EB1AFB0A8601045A1E4FC7010E94420985
:103A3000EFE0EE0EF11C0E151F05B9F7D101179638
:103A40009C90179717961C92179718961C922A9A73
:103A50000BE010E0C8010197F1F77601B1E0EB0E41
:103A6000FB1EF70180810E946506782E2A98C80106
:103A70000197F1F7D7018C910E946506272D2770D9
:103A8000F1019185372D3F70243009F0B2C091309B
:103A900021F091E09187269A2E9AD10117969C9158
:103AA000179721E0290F17962C93973008F096E08E
:103AB000F101BFE09B9FE00DF11D11249FE492876F
:103AC000438554855F70232F30E0322F22273295B3
:103AD000307F240F351F207F8F70280F311D3487D2
:103AE00023872A9A2E982BE030E0C9010197F1F73D
:103AF00083B14FB19FB15FB186958170880F880FF8
:103B0000880F441F4427441F440F440F840F55FB64
:103B1000442740F9840F96FB992790F9990F890F54
:103B200040E1849FC0011124438554854F70840F68
:103B3000951F948783872A982E98C9010197F1F7DA
:103B400083B12FB19FB13FB186958170880F880FE7
:103B5000880F221F2227221F220F220F820F35FBE0
:103B6000222720F9820F96FB992790F9990F890F48
:103B700090E0982F882723853485307F820F931F0C
:103B8000948783872A9AF1018185813009F42E9ADE
:103B900083E290E00197F1F7D10117961C91A12CD7
:103BA0006FE04FEF5FEF70E81A1509F41BC28A2D22
:103BB000B6E0BA1508F486E0282F30E0F101689FDE
:103BC000E00DF11D112492858189981781F05487A9
:103BD0004387758776872F5F3F4F629FC001639F42
:103BE000900D1124820D931DDC011C92108AA39468
:103BF000DBCF313009F03EC1282F2F70213009F082
:103C000039C1913019F02187269A2E9A60E041E05F
:103C10002BE030E02E98762F742780ED97E053B19B
:103C200053FB552750F975133BC4F9013197F1F750
:103C30000197A9F7A7CF83B15FB19FB17FB18695F7
:103C40008170880F880F880F551F5527551F550FF6
:103C5000550F850F75FB552750F9850F96FB992752
:103C600090F9990F890F613009F038C4B4E08B12D4
:103C700003C0813009F486CF782E770C811020C0E4
:103C8000823029F190E080E051E06BE070E079163D
:103C900009F478CF882309F491C02E9A8527A82F9C
:103CA000A17020ED37E043B143FB442740F9FB010D
:103CB000A41317C43197F1F721503109A1F762CF4E
:103CC000E1E08E126DC0863011F08330D9F6D1015B
:103CD00017969C91179721E0290F17962C939730F0
:103CE00008F096E0492F50E06FE09101969F200D7B
:103CF000311D1124F9013A96FC87EB87649F9001EE
:103D0000659F300D1124FEE0220D331D8F1258C027
:103D1000815090EE8927D9011A968C93B12C812C71
:103D2000A12C6FE0649F8001659F100D1124C601D6
:103D300088509F4F7C01E00EF11E9701205F3F4F9E
:103D40003E872D874F5F5F4F649F9001659F300DC9
:103D50001124AC01420F531F588B4F87B701625F8C
:103D60007F4F7A8B698B020D131D055F1F4F7B14EC
:103D700009F408CF882069F12E9A81E08826382D31
:103D8000317080ED97E023B123FB222720F9321315
:103D9000ACC3EBE0F0E03197F1F70197A1F7F2CE79
:103DA000FEE08F1204C0833008F491CF6BCF2FE078
:103DB000821268CF8F3009F065CFE4CE2E986ECF97
:103DC000B0E18B9EB0011124882E8626F9018286EF
:103DD000A5CF2E98D2CF73E0B71210C0D8012D9185
:103DE0003C9111973F70487050E0542F44275295F2
:103DF000507F420F531F4D935C939CC3B4E0BB169E
:103E0000B9F1E5E0BE1209C0F0E1AF9EC001112496
:103E1000482BD7011D964C938DC3B6E0BB1641F1DC
:103E2000E7E0BE1209C0F0E1AF9EC0011124482BAB
:103E3000A989BA894C937EC3B8E0BB16C9F0E9E002
:103E4000BE1208C0F0E1AF9EC0011124482BAF851F
:103E5000B889F0CFBAE0BB1659F0EBE0BE126AC3E6
:103E6000F0E1AF9EC0011124482BAD85BE85E2CFA5
:103E7000A42E60C3282F2C7009F09DC0992329F02F
:103E8000F101118626982E982E9AD10117969C91B1
:103E9000179721E0290F17962C93973008F096E09A
:103EA000A92EB12CF101BFE09B9FE00DF11D112463
:103EB00090EE9287972D9C7009F464CE43855485CB
:103EC000407FBA01630F711D9B012F707294AFE0A8
:103ED0007A2286958695782A70E1779EC001112412
:103EE000280F391F3487238784E091E04BE050E0AE
:103EF00021E0992309F45DC02A9AFA013197F1F77C
:103F000092278150B1F7D7018C910E9465069FE0FE
:103F10009A9DF0019B9DF00D1124E20DF31D908DF3
:103F2000992321F021EE22879150908F8F7009F014
:103F300029CE8FE08A9D80018B9D100D1124020DEA
:103F4000131D84E6F801808F2A9A5BE0A52EB12C20
:103F5000C5010197F1F7D7018C910E946506882E63
:103F60002A98C5010197F1F7F70180810E94650643
:103F700091EED8011A969C931A971B962D913C911D
:103F80001C97307F482D4F7050E0542F4427240F4A
:103F9000351F3F70880F880F880F90E0982F882773
:103FA0009295907F280F391F1C963C932E931B9758
:103FB000E9CD2A98A2CF333061F48F708F3049F465
:103FC000913009F4DFCD81E0F1018187269A2E9AA4
:103FD000D9CD992309F4D6CDD10119961C922698F2
:103FE0002E98F5CFA91430F56A2D7FE01FEF4FEF23
:103FF0005FEF00E8862F673008F086E0282F30E07A
:10400000F101789FE00DF11D11241287108E548765
:104010004387058706872F5F3F4F729FC001739FBD
:10402000900D1124820D931DDC011C92108A6F5F8C
:104030009612E0CFF601E556FF4F6080B62CBA0C21
:10404000460110E01B860091A0011B1509F468C110
:10405000101709F465C177247394161508F4712CB0
:10406000812F161508F032C1173008F086E0F201F2
:104070002FE0829FE00DF11D1124AF01465F5F4FDD
:104080007A01033008F438C1D7019C9117968C91BE
:10409000179798132BC011962D913C911297189653
:1040A0008D919C9119972817390701F513969C91CA
:1040B00013971A968C911A97981318C014969C917E
:1040C00014971B968C911B97981310C015969C9172
:1040D00015971C968C911C97981308C016969C9166
:1040E00016971D968C91981709F4E5C0F40116A651
:1040F00010AAD7019C9117968C91981779F0612F8F
:10410000C6010E943D11033048F4F70180810E94EE
:10411000A706482F672DC6010E949210D70111965D
:104120002D913C91A901409550954170552782E011
:1041300021FD80E0842B94E022FD90E0892B98E023
:1041400023FD90E0892BE985FA85808BD7011196B4
:104150002D913C91C90146E0969587954A95E1F7E6
:10416000B1E08B27AC014170552782E090E024FF3D
:1041700002C090E080E0842B952B44E050E032FFB9
:1041800002C050E040E0842B952B48E050E031FF26
:1041900002C050E040E0842B952B40E150E030FF1E
:1041A00002C050E040E0842B952B40E250E025FF18
:1041B00002C050E040E0842B952B40E450E037FFF4
:1041C00002C050E040E0842B952B40E850E033FFE4
:1041D00002C050E040E0842B952B27FD9BC020E0DF
:1041E00032E0822B932BE985FA85928B818BD70164
:1041F0008C91807F803109F04AC021E0F40120AB2E
:1042000013968C9199E8980F933108F480E890E028
:10421000382F2227820F931FA985BA8556969C9323
:104220008E935597F701848199E8980F933108F49C
:1042300080E890E0382F2227820F931FA985BA8546
:1042400058969C938E935797F6018781882331F077
:104250009091E407992381F0813071F4E1E0D40179
:104260009E96EC93D70116968C911697E985FA8560
:10427000858F15968C91868FD7018C910E94A70609
:10428000863029F4E985FA8580898360808B809166
:10429000A001833008F041C0E1E0F0E0EC0FFD1F29
:1042A000E70DF11D00E097014081672DC6010E94D6
:1042B0003010F1E0FB871F5F49855A85415F5F4FF2
:1042C0005A8749875FEF851A950ABDCE86198730D0
:1042D00008F086E0B101AFE08A9F600D711D1124E6
:1042E000FB013A967F01033008F0CECEAA2009F4F4
:1042F000CBCEF701808104C06620C1F3DA018C9136
:104300000E94A706E1E0F0E0EC0FFD1FE70DF11DB4
:104310008083BACE30E020E064CF21E02B87CBCF82
:104320001981033058F480914201811739F011113D
:1043300005C040E060E0C6010E9492101093420167
:104340001A818091A001833058F480914301811734
:1043500039F0111105C040E061E0C6010E949210E1
:104360001093430100914607B01660F41B2D809115
:10437000A001811739F0612FC6010E943D111F5F16
:104380001017A8F3B0924607F601E456FF4F80815C
:10439000843089F1EC59FF4F9081943061F1890F9D
:1043A00089F18B2D90E0019644EF51E0849F9001BC
:1043B000859F300D949F300D11243093A2012093DE
:1043C000A1018B8564960FB6F894DEBF0FBECDBFFA
:1043D000DF91CF911F910F91FF90EF90DF90CF90E1
:1043E000BF90AF909F908F907F906F905F904F9015
:1043F0003F902F90089580ED97E09093A2018093D5
:10440000A101DFCF84E690E0F8CFC9010197F1F771
:1044100061110CC959B18CB193B163B186FBBB2456
:10442000B0F8BB0CBB0C852F881F8827881F880F0E
:10443000880F880FB80E65FB882780F9B80E94FBAB
:10444000882780F9880FB80E61E0479ADFC8319756
:10445000F1F79F5F19C9C3010197F1F799B14CB109
:1044600083B123B146FB442740F9440F440F991F01
:104470009927991F990F990F990F490F25FB992794
:1044800090F9490F82958170880F480F133008F01A
:10449000A2C9612F8B859C850E94A3031F5F67C9FA
:1044A000C9010197F1F76111C6CB83B09FB18FB1FC
:1044B0005FB181FA882480F8880C880C880C991FD9
:1044C0009927991F990F990F890E55FB992790F9F4
:1044D000890E86FB882780F9880F880E61E02E9A66
:1044E0009ACB3197F1F79F5FD2CB83E090E00197B1
:1044F000F1F743B19FB18FB12FB146954170440F91
:10450000440F440F991F9927991F990F990F490F2D
:1045100025FB992790F9490F86FB882780F9880F9A
:10452000480F62E06B1508F456CC6B2D8B859C858B
:104530000E94A303B3941BCCEF92FF920F931F939F
:10454000CF93DF9300D0CDB7DEB78091DB07882310
:1045500009F4DBC08091E9008F709091EC0090FF2E
:104560004FC090E8F92EF82A1092E9008091E800F7
:1045700083FFC7C0E6EFF6E08091F100819326E06B
:10458000EE3FF207C9F7E090F70681E0E8121DC0A0
:104590008091F606813AC9F48091E800877F809384
:1045A000E8008091F8069091F9068115934051F545
:1045B00068E070E080E091E00E94D118E092E507A9
:1045C0008091E8008B778093E8008091E80083FF7A
:1045D0008AC08091F6069091F7069A3008F083C061
:1045E000E92FF0E0EA50FD4D0C94333246236C2362
:1045F00073236C237323CD23EF23732322262F26CB
:1046000090E0B0CFE091DA07E730D0F6F0E0E55F78
:10461000FC4D0C943332122319231E232323282309
:104620002D23412364E170E086EF95E00E94D118CC
:10463000C7CF60E470E083EE95E0F8CF60E470E00F
:104640008BED95E0F3CF60E470E083ED95E0EECF85
:1046500060E470E08CEC95E0E9CF81E08093C805E0
:1046600082E08093C5058091FA069091FB0660E494
:1046700070E0892B19F488EC95E0D8CF85EC95E0B3
:10468000D5CF60E470E080EC95E0D0CF803889F041
:10469000823849F58091FA068F70873020F5809333
:1046A000E9008091EB0085FB882780F91092E900F2
:1046B00004C080914D0781110DC09091E800977F53
:1046C0009093E8008093F1001092F1008091E8004F
:1046D0008E7732C082E0F1CF282F2D7F21F48823FE
:1046E000E9F0823071F18091E80083FF0AC0809187
:1046F000E800877F8093E8008091EB0080628093E0
:10470000EB008F2D8F708093E9000F900F90DF9159
:10471000CF911F910F91FF90EF9008958091F8062F
:10472000813009F7933009F080E080934D071092B3
:10473000E9008091E800877F8093E8000E945F197C
:10474000D2CF8091F8068111F2CF8091FA068F7056
:104750002FEF280F263038F68093E9002091EB00E8
:1047600020FFE5CF933031F48091EB00806280939D
:10477000EB00DDCF9091EB0090619093EB0021E096
:1047800030E001C0220F8A95EAF72093EA001092E8
:10479000EA008091EB008860EACF8111A4CF1091EC
:1047A000F8061F778091E3008078812B8093E300E7
:1047B0008091E800877F8093E8000E945F198091D4
:1047C000E80080FFFCCF8091E30080688093E300E5
:1047D00083E0111101C082E08093DB0784CF805811
:1047E000823008F080CF2091F8063091F9061A82C5
:1047F0001982832F99278330910509F41CC1D0F4C5
:1048000081309105A9F1029709F45DC069817A812F
:104810006115710509F467CF8091E800877F809367
:10482000E800C8010E94D1188091E8008B7780933E
:10483000E80059CF8132910509F49FC1829731F781
:104840008091DA07843009F4E7C108F0BBC18130F8
:1048500009F4C8C1833009F4D4C146E450E06AE6E3
:1048600071E080E696E00E94143286E490E0C4C1D4
:104870008091DA07882399F0813001F10091530784
:104880001091540742E150E065EC70E08AE096E058
:104890000E941432009316061093170608C042E1D6
:1048A00050E069EE70E08AE096E00E94143282E106
:1048B00090E09A8389830AE016E0A8CF42E150E0B5
:1048C00067ED70E0F0CF009152071091DA071130D8
:1048D00009F456C008F44DC0153009F496C01350C1
:1048E000143008F0A1C0E12FF0E0EB50FB4F108135
:1048F00049E050E064E171E08CE196E00E941432FE
:1049000099E1099F902D1124975F90931E060093C3
:104910002006002309F48AC049E150E06BEF70E003
:1049200085E296E00E941432109227061093350615
:1049300081E880933906023008F478C049E150E0FC
:104940006BEF70E08EE396E00E94143281E080937A
:10495000400610934E0682E880935206023009F416
:1049600065C049E150E06BEF70E087E596E00E949A
:10497000143281E390E09A83898304EC14E046CFFB
:1049800049E050E068E571E08CE196E00E94143265
:1049900099E1099F902D1124975F90931E06009333
:1049A0002006002361F149E150E06FE371E085E208
:1049B00096E00E941432109227064CE6E42EE09214
:1049C000350681E8809339060230C8F049E150E0AD
:1049D0006FE371E08EE396E00E941432109340067C
:1049E000E0924E0682E880935206023041F049E19F
:1049F00050E06FE371E087E596E00E941432B9E180
:104A00000B9FC001112409960AC042E250E06DE1FB
:104A100071E08CE196E00E94143282E290E09A8389
:104A200089830CE116E0F2CE16E462CFE9E10E9F35
:104A3000C0011124E8CFC90199278230910549F1BD
:104A40008330910509F441C08130910509F04AC0D5
:104A50008091DA07813089F444E351E0DA010D9066
:104A60000020E9F7AD014553514064E371E0CE0108
:104A700001960E9492278C01C9CE47E251E0FA01CB
:104A800001900020E9F7AF014852514067E271E020
:104A9000EECF8091DA07813061F445E151E0DA012F
:104AA0000D900020E9F7AD014651514065E171E0FC
:104AB000DECF48E051E0FA0101900020E9F7AF01B4
:104AC0004950514068E071E0D2CF60915007709139
:104AD0005107FB0101900020E9F73197AF01461B18
:104AE000570BC5CF62EC74E0E1E0222331F12530B1
:104AF00039F529E035E0E0E0FCE0FE0FD9011D9139
:104B00009D018E2F90E0019670E060E0412F42956C
:104B10004F7050E048555A4FDA014C91DC014C93EC
:104B2000EE5F90E0A12FAF70B0E0A855BA4F4C9166
:104B3000DC0111964C93EF13E1CF4E2F50E097CF4D
:104B40002091DA07880F991F222329F0213049F09C
:104B500087509B4F02C0815F9A4FFC016081718139
:104B600005C08F5F9A4FDC016D917C91FB01019034
:104B70000020E9F73197E61BE0CF1091DA0749E012
:104B800050E061E671E087E596E00E9414328BE523
:104B9000143079F040F48CE6113059F089E5133087
:104BA00041F086E406C081E5153019F087E3163040
:104BB000C1F780935E0689E090E09A83898307E5D8
:104BC00016E024CE853099F1863009F046CE47E3D1
:104BD00050E060EB71E080E696E00E94143287E3DB
:104BE00090E00AC04CE650E06CEE72E080E696E0A1
:104BF0000E9414328CE690E09A83898300E616E0E6
:104C000005CE49E550E063E972E080E696E00E9457
:104C1000143289E590E0F0CF4BE550E068E372E0B4
:104C200080E696E00E9414328BE590E0E5CF41E506
:104C300050E067EE71E080E696E00E94143281E574
:104C400090E0DACF803809F04ECD8091E800877F80
:104C50008093E80080914E078093F10037CD811159
:104C600042CD1091F806123008F03DCD8091E80059
:104C7000877F8093E80010934E070E945F191123ED
:104C8000F9F084E08093DB070091DA070023F1F06C
:104C900042E360EC82E00E947E1911E080915207AD
:104CA000811708F420CD812F8F70873020F442E3E4
:104CB00061EC0E947E19053009F415CD1F5FEECF1F
:104CC0008091E30087FDDDCF81E0DCCF42E261EC43
:104CD00081E00E947E1946E260EC82E00E947E192B
:104CE00002CD0F931F93CF93DF938C01EB01809143
:104CF000E80085FD10C08091E8008B778093E80084
:104D00000E949C220E943019882389F3DF91CF9161
:104D10001F910F9108958091F100F80181938F0107
:104D2000219729F780E0F2CF1F920F920FB60F92D2
:104D300011242F933F938F939F93AF93BF938091B1
:104D4000ED079091EE07A091EF07B091F007309139
:104D5000EC0723E0230F2D3758F50196A11DB11D57
:104D60002093EC078093ED079093EE07A093EF0755
:104D7000B093F0078091F1079091F207A091F307AB
:104D8000B091F4070196A11DB11D8093F107909396
:104D9000F207A093F307B093F407BF91AF919F91EF
:104DA0008F913F912F910F900FBE0F901F901895EC
:104DB00026E8230F0296A11DB11DD2CF1F920F929C
:104DC0000FB60F9211242F933F934F935F936F93DE
:104DD0007F938F939F93AF93BF93EF93FF938091B4
:104DE000DA0080FF17C08091D80080FF13C0809147
:104DF000DA008E7F8093DA008091D90080FF86C030
:104E000080E189BD82E189BD09B400FEFDCF81E06A
:104E10008093DB078091E10080FF17C08091E20062
:104E200080FF13C08091E2008E7F8093E20080912A
:104E3000E20080618093E2008091D80080628093DC
:104E4000D80019BC85E08093DB078091E10084FFE6
:104E500026C08091E20084FF22C080E189BD82E10A
:104E600089BD09B400FEFDCF8091D8008F7D80936D
:104E7000D8008091E1008F7E8093E1008091E20074
:104E80008F7E8093E2008091E20081608093E20057
:104E900080914E078823F1F184E08093DB078091B5
:104EA000E10083FF22C08091E20083FF1EC0809159
:104EB000E100877F8093E10082E08093DB0710921E
:104EC0004E078091E1008E7F8093E1008091E200A7
:104ED0008E7F8093E2008091E20080618093E20007
:104EE00042E360E080E00E947E19FF91EF91BF9164
:104EF000AF919F918F917F916F915F914F913F9172
:104F00002F910F900FBE0F901F90189519BC109203
:104F1000DB0780CF8091E30087FD02C081E0BDCF39
:104F200083E0BBCFCF93DF93DC014032510514F017
:104F30004FE150E090E0292F30E02417350784F04E
:104F40004F5F5F4F440F551F4D935C9353605093D9
:104F5000FF064093FE068EEF96E0DF91CF91089515
:104F6000F901EE0FFF1FE050F94F260F371FE9013F
:104F70002881022E000C330B318320839F5FDBCF0F
:104F8000CF93DF93CDB7DEB729970FB6F894DEBF86
:104F90000FBECDBF789484B5826084BD84B5816036
:104FA00084BD85B5826085BD85B5816085BD8091F4
:104FB0006E00816080936E0010928100809181006C
:104FC0008260809381008091810081608093810064
:104FD0008091800081608093800080919100826048
:104FE00080939100809191008160809391008091E5
:104FF00090008160809390008091C10084608093D4
:10500000C1008091C10082608093C1008091C10085
:1050100081608093C1008091C30081608093C30050
:105020008091C00082608093C0008091C200816046
:105030008093C20080917A00846080937A0080918E
:105040007A00826080937A0080917A0081608093F8
:105050007A0080917A00806880937A0056985E9AF0
:105060001092E50790E080E00E941D32853008F044
:1050700043C08093DF078091DF07823009F47CC052
:1050800008F03CC0813009F452C0109206088CE34D
:10509000809305081092B90084E48093BC008CE0F2
:1050A0008093B8001092F9071092FA07EFE4F6E047
:1050B000C590D490E1E5F6E0F490E2E5F6E0E49105
:1050C000E093FB07E3E5F6E0E491E093FC07E4E519
:1050D000F6E0E491E093FD0710E000E00F1508F022
:1050E0009FC0F601E00FF11F649185EF97E00E94E9
:1050F000FE0A0F5F1F4FF2CF81E0BBCF833009F470
:1051000072C0843009F0C1CF8EEE90E00E94393237
:105110008C010E945C0383E695E0D80111969C9374
:105120008E93A256BF4F80E5EFE3F2E01CC084EC03
:1051300091E00E9439328C010E945C038DE295E07F
:10514000D8018D939C93C8018C569F4F0E942F09C4
:10515000C80188509F4F0E942F09D801A45ABE4F02
:1051600088E6EFE8F2E001900D928A95E1F710935E
:10517000E7070093E60789CF87EA91E00E9439327A
:105180008C010E945C038FE395E0F801918380839A
:10519000EC56FF4F148215828AE09F012A5F3F4F31
:1051A000D901B82E1D92BA94E9F7108A719614822B
:1051B00015822F5E3F4FD9011D928A95E9F7108A1B
:1051C00071961082D801A954BF4F80E8E7EFF2E052
:1051D00001900D928A95E1F7D801A95CBE4F80E756
:1051E000E7E7F3E0C0CF80E491E00E9439328C0120
:1051F0000E945C0381E595E0F80191838083C801FA
:105200008C569F4F0E945508C80186549F4F0E949C
:105210005508D801A052BF4F80E6E7EEF3E0A3CFD8
:1052200085EF97E00E94DE0C61E885EF97E00E9431
:10523000FE0A61E085EF97E00E94FE0AE4E6F4E0F2
:10524000F0930108E09300088491E5E6F4E0E4912E
:10525000F82F319709F0F1C01092FE0785EF97E023
:105260000E94DE0C11E0109303086EE185EF97E0D9
:105270000E94120B82E0809303088DE594E00E9467
:10528000750C1093030862E085EF97E00E94060B0F
:105290000E94E51081E090E00E941D32873008F006
:1052A00080E0A091E607B091E70717968C931797D7
:1052B000ED91FC9111970190F081E02DCD010995C0
:1052C00064E170E080E090E00E9404048091E607D1
:1052D0009091E707DC01ED91FC910280F381E02DD4
:1052E000099564E170E080E090E00E940404809100
:1052F000E6079091E707DC01ED91FC910280F381D4
:10530000E02D0995A091E607B091E70751968C91A1
:10531000519780FF96C081E017968C9317974E990E
:10532000B6C017961C9185EF97E00E94DE0C45E011
:1053300050E069EB75E085EF97E00E9436040E942B
:10534000B2196CED75E080E090E00E94040485EFF6
:1053500097E00E94DE0C80E594E00E94BA1982E496
:1053600094E00E94BA1985E394E00E94BA1964EFB0
:1053700071E080E090E00E94040481E0812C912C97
:10538000540101E0FF24F3944E9961C0F12C813067
:1053900089F48FB7F8948090ED079090EE07A09075
:1053A000EF07B090F0078FBF60E170E080E090E021
:1053B0000E9404042FB7F8948091ED079091EE07B6
:1053C000A091EF07B091F0072FBF88199909AA099A
:1053D000BB09893E9340A105B10510F40C9400323D
:1053E00085EF97E00E94DE0C8DE294E00E94BA19EE
:1053F00086E294E00E94750C812F0E94900C0E941E
:10540000B2190E94B21982E194E00E94750C60ED1D
:1054100077E080E090E00E940404612F81E090E05A
:105420000E94253288E19EE00FB6F894A8958093FB
:1054300060000FBE90936000FFCF81E08093FE0775
:105440000DCF81FF6CCF17961C92179768CF8111F3
:105450000C94FD3160E170E080E090E00E94040473
:1054600081E0011106C0882379F01F5F133008F036
:1054700010E007E025E04FE760E085EF97E00E944D
:10548000A90C812F0E94900C00E08F2D7BCFED9115
:10549000FC9111970484F585E02DCD01099561E01B
:1054A00085EF97E00E94060B60E085EF97E00E9491
:1054B000120BE091E607F091E707878181111DC18A
:1054C00088E50E94A40C8091E6079091E70721E00F
:1054D00032E0DC0114963C932E931397ED91FC91EE
:1054E0000084F185E02D09958C018091E60790916B
:1054F000E707DC01ED91FC910284F385E02D09952D
:105500002091A001E091E607F091E7073781309301
:10551000DA07909354078093530720935207109310
:1055200051070093500784B7877F84BF0FB6F89464
:10553000A89580916000886180936000109260005F
:105540000FBE80E830E020E00FB6F8948093610051
:10555000209361000FBE8091D8008F7E8093D80089
:105560008091D70081608093D70084E082BF81E082
:1055700080934F078091D8008E7F8093D80010923F
:10558000E2001092DA001092E1008091D8008F774B
:105590008093D8008091D80080688093D800809153
:1055A000D8008F7D8093D80019BC1092DB07109231
:1055B0004E0710924D078091E0008B7F8093E000B2
:1055C0008091D80081608093D80042E360E080E061
:1055D0000E947E198091E1008E7F8093E10080918E
:1055E000E20081608093E2008091E2008860809315
:1055F000E2008091E0008E7F8093E0008091D800EF
:1056000080618093D80078940E94DF030091E807BE
:105610001091E9072091EA073091EB07AB01BC013B
:10562000401B510B620B730B8091A1019091A20161
:10563000B0E0A0E0C12C481759076A077B07B0F01B
:105640008091E6079091E707DC01ED91FC910280E3
:10565000F381E02D0995C82E0E94DF036093E807CF
:105660007093E9078093EA079093EB07D12C809120
:10567000A001D81608F01CC68091E6079091E707B4
:10568000DC01ED91FC910680F781E02D6D2D0995EF
:105690000091E6071091E707ED2CF12CF8018781C6
:1056A000843009F487C108F037C0882309F469C041
:1056B00093E1813009F400C298E0833009F0B8C169
:1056C0008FE08E9DF0018F9DF00D1124E00FF11FF2
:1056D000E089EF70E150EA3008F0A9C3F0E0ED583E
:1056E000F44D0C943332A22E0F2F172F132F152F9A
:1056F000112F172F0B2F072F0D2F813011F483E55A
:10570000E0CE823011F488E4DCCE8350843010F493
:105710008DE4D7CE85E4D5CE853009F469C195E016
:10572000863009F0C9CF8FE08E9DF0018F9DF00D7E
:105730001124E00FF11F21893289A90141705527F9
:1057400082E021FF80E0842B22FF67C424E0822BCB
:10575000809355078FE08E9DF0018F9DF00D1124F1
:10576000E00FF11F2589368930935707209356079C
:105770002789308D309359072093580725E537E066
:105780008EC094E18FE08E9DF0018F9DF00D11246D
:10579000E00FF11F2089822F817032E021FF30E07D
:1057A000832B34E022FF30E0832B23FF6FC128E0FE
:1057B000822B2FE02E9DF0012F9DF00D1124E00F84
:1057C000F11F2189328940E131FF40E0842B40E222
:1057D00030FF40E0842B40E432FF40E0842B40E87F
:1057E00033FF40E0842B80935C01A901E4E05695EF
:1057F0004795EA95E1F7417082E025FF80E0842B30
:1058000044E034FF40E0842B40E120FF40E0842B63
:1058100040E221FF40E0842B40E422FF40E0842B63
:1058200040E823FF40E0842B80935D018FE08E9D54
:10583000F0018F9DF00D1124E00FF11F458956896D
:10584000505850936101409360014FEF5FE76789C3
:10585000708DDA01A61BB70BB0936301A0936201B0
:10586000618D728D70587093650160936401638DD2
:10587000748D461B570B5093670140936601D80106
:10588000AE0DBF1D9E968C91882309F401C1858DB4
:1058900080935E01868D80935F012AE531E030932D
:1058A000DE072093DD079093DC078091DB078430CF
:1058B00009F074C082E08093E9008091E80082FFE3
:1058C0002AC08091E80085FF21C08091DA0781110C
:1058D000C2C40E943019811108C050E040E068E065
:1058E00070E0CE0101960E947126898181110EC05F
:1058F0008A81883059F4F701EE0FFF1FEE0FFF1F6A
:10590000E00FF11F8C8185AB8D8187AB8091E80022
:105910008B778093E800870186E0000F111F8A953E
:10592000E1F7065A184F4091DC0750E06091DD071F
:105930007091DE07C8010E946333892B79F1809151
:10594000DA07853009F094C481E08093E900809102
:10595000E80080FF23C0E090DC07A090DD07B09056
:10596000DE070E943019F12C882309F494C4809139
:10597000E8008E778093E800E090DC07F12CA0909F
:10598000DD07B090DE07A701B501C8010E947033A2
:10599000A70170E060E0C5010E9479330E949C225B
:1059A000E091E607F091E7078781882309F480C436
:1059B000D3945DCE97E08FE08E9DF0018F9DF00D2A
:1059C0001124E00FF11FE089EF70E150EA3008F098
:1059D0009BC2F0E0E251F34D0C943332192F7C2F2F
:1059E000842F802F822F7E2F842F782F742F7A2F51
:1059F00094E0DD2019F093E0D11002C381E08093A0
:105A00009001D8015096EC91EF70E150EA3008F027
:105A1000F2C2F0E0E25FF24D0C943332862FF32FA6
:105A2000FB2FF72FF92FF52FFB2FEF2FEB2FF12F58
:105A3000843018F5882309F4A5CE813009F43CC0E0
:105A40008FE08E9DF0018F9DF00D1124E00FF11F6E
:105A5000E089EF70E150EA3008F0F8C3F0E0ED5C67
:105A6000F24D0C9433320F301E3126312231243165
:105A7000203126311A3116311C31853009F4BCCF62
:105A800008F499CF863009F44ECEDACF20E090CEDC
:105A9000A90166E0569547956A95E1F741704195F1
:105AA00040935E01220F232F221F330B319521706B
:105AB000219520935F01F1CE8FE08E9DF0018F9DA7
:105AC000F00D1124E00FF11F8089E82FEF70E150F5
:105AD000EA3008F028C1F0E0E059F24D0C9433327E
