:100000000C9447030C946F030C946F030C946F03D0
:100010000C946F030C946F030C946F030C946F0398
:100020000C946F030C946F030C9488180C946F035A
:100030000C946F030C946F030C946F030C946F0378
:100040000C946F030C946F030C946F030C946F0368
:100050000C946F030C946F030C946F030C94F017C3
:100060000C946F030C946F030C946F030C946F0348
:100070000C946F030C946F030C946F030C946F0338
:100080000C946F030C946F030C946F030C946F0328
:100090000C946F030C946F030C946F030C946F0318
:1000A0000C946F030C946F030C946F03AED580A86F
:1000B0003FD300408D142002A1C8DA12817FD9F10C
:1000C000DB40A4A6AF1201000200000040D0167E63
:1000D0001200010102030112010002000000400DA4
:1000E0000F920000010102030112010002FFFFFF55
:1000F000405E048E021401010203010904000001A4
:1001000003000000092111010001224600070581BA
:10011000034000010902220001010080320902228D
:100120000001010080320904000001030000000901
:10013000211101000122510007058103400001093E
:1001400004000001030000000921110100012256F2
:100150000007058103400001090229000101008018
:10016000FA09211101000122460005010905A1013A
:10017000150025013500450175019518050919017E
:100180002918810205012507463B01750495016583
:10019000140939814265009501810126FF0046FF5F
:1001A000000930093109350936750895048102C006
:1001B00005010905A10105091901290315002501FA
:1001C0007501950355006500810275019505810350
:1001D00005010901150026FF0375109502A100090C
:1001E0003009318102C0C005010905A1018501A1C5
:1001F0000005091901290C150025019510750181CB
:100200000205010939150025073500463B0175082F
:10021000950165148142C0C005010902A101850252
:100220000901A100093009311581257F3581457FFC
:10023000950275088106C0C005010904A101A1004D
:100240000509190129101500250195107501810274
:1002500005010901A100093009311580257F9502AA
:1002600075088102C009371580257F9501750881C1
:10027000060938150026FF00950175088102093925
:10028000150025073500463B017508950165148169
:1002900042C0C005010905A1011500250135004531
:1002A000017501950E05091901290E81029502813A
:1002B0000105012507463B017504950165140939BF
:1002C000814265009501810126FF0046FF0009304B
:1002D000093275089502810205027508950315001B
:1002E00026FF0009BB09C509C88102C0050109052F
:1002F000A10115002501350045017501951005097D
:1003000019012910810205012507463B0175049555
:100310000165140939814265009501810126FF00BC
:1003200046FF000930093109320935750895048105
:10033000020600FF092009210922092309240925B1
:100340000926092709280929092A092B950C810260
:100350000A21269508B102C04A4F47434F4E004636
:100360004C49474854535449434B004455414C531E
:10037000484F434B004A4554004449474954414C77
:10038000004E4547434F4E00504F50204E004E2FD9
:1003900041004E4F4E450053574954434800455283
:1003A000524F52004849440058494E50555400504D
:1003B00053580000030C0F30333C3FC0C3CCCFF088
:1003C000F3FCFF0000000200090F0000030401001D
:1003D0000C00000000000000000000000000000011
:1003E00000004445564943452057494C4C2052454E
:1003F0005354415254004D4F44453A200053415606
:100400004544210A00484F4C443A20205341564568
:100410000A0050524553533A204348414E47450045
:100420004F5554505554204D4F44450A00524546AF
:100430004C45580000000507206100000000000046
:10044000005F000060707870606050485060030783
:100450000F07030305090503081C3E7F7F081C22C4
:10046000417F7F7F3E1C087F41221C08082A1C2AEE
:100470000808083E0808005030000008080808086E
:10048000006060000020100804023E5149453E0013
:10049000427F400042615149462141454B31181489
:1004A000127F1027454545393C4A494930017109B9
:1004B00005033649494936064949291E00363600A2
:1004C000003C7E7E7E3C3C4242423C141414141498
:1004D000F0F0F0F0F0F0909090F0324979413E7EEB
:1004E0001111117E7F494949363E414141227F41E8
:1004F00041221C7F494949417F090901013E41418F
:1005000051327F0808087F00417F41002040413F71
:10051000017F081422417F404040407F0204027F57
:100520007F0408107F3E4141413E7F090909063E94
:100530004151215E7F091929464649494931010146
:100540007F01013F4040403F1F2040201F7F201877
:10055000207F631408146303047804036151494540
:100560004300007F4141020408102041417F000008
:10057000383C1E0F074040404040382412090720F5
:10058000545454787F4844443838444444203844D0
:1005900044487F3854545418087E09010208145402
:1005A000543C7F0804047800447D40002040443DD2
:1005B00000007F10284400417F40007C041804782C
:1005C0007C0804047838444444387C141414080823
:1005D0001414187C7C080404084854545420043F24
:1005E0004440203C4040207C1C2040201C3C4030AB
:1005F000403C44281028440C5050503C4464544C17
:1006000044E0E0E0E0E000007F0000E0A0A0A0E027
:1006100008082A1C08081C2A08080006090906AC54
:1006200000198040005245424F4F54494E472E2EEC
:100630002E0000000000250028002B002E003100B5
:1006400000000000240027002A002D0030000404D0
:10065000040404030405020202020403020202026B
:100660000606060606060404020202040404080242
:10067000011040804010204080408008020401802A
:10068000402010020110801020404020A52311249A
:100690001FBECFEFDAE0DEBFCDBF26E0A4E3B4E0BB
:1006A00001C01D92AF38B207E1F714E0A0E0B1E05D
:1006B000EEE4FAE402C005900D92A433B107D9F735
:1006C00013E0C7E4D3E004C02197FE010E94D823C1
:1006D000C634D107C9F70E946A190C9425250C94D9
:1006E000000090E0FC01E359F94F2491825B994F9F
:1006F000FC018491882399F090E0880F991FFC01F8
:10070000E05CF94FA591B491FC01EE5CF94F859145
:1007100094918FB7F894EC91E22BEC938FBF0895EE
:100720003FB7F8948091750690917606A091770670
:10073000B091780626B5A89B05C02F3F19F0019609
:10074000A11DB11D3FBFBA2FA92F982F8827BC012B
:10075000CD01620F711D811D911D42E0660F771F53
:10076000881F991F4A95D1F708958F929F92AF9253
:10077000BF92CF92DF92EF92FF924B015C010E94F9
:1007800090036B017C010E9490036C197D098E0916
:100790009F09683E734081059105A8F321E0821A04
:1007A0009108A108B10888EEC80E83E0D81EE11CAC
:1007B000F11C81149104A104B10429F7FF90EF907A
:1007C000DF90CF90BF90AF909F908F9008952FB7FC
:1007D000F894609171067091720680917306909101
:1007E00074062FBF0895AF92BF92CF92DF92EF921F
:1007F000FF920F931F93CF93DF936C017B018B01CB
:10080000040F151FEB015E01AE18BF08C017D1071A
:1008100059F06991D601ED91FC910190F081E02DA4
:10082000C6010995892B79F7C501DF91CF911F91F9
:100830000F91FF90EF90DF90CF90BF90AF90089511
:10084000CF93CFB7F8948091D10581115AC04FE56D
:1008500056E0FA0194912EE736E0F9018491E92FF0
:10086000F0E0EE0FFF1FE05CF94FA591B4919C9171
:10087000982309F037C0E4EDF3E09491F901249155
:10088000FA018491882309F42DC09923E9F091504D
:100890009F30D0F4E92FF0E0E05BFB4F0C94D823BD
:1008A000910495045F0489048D0464046404640461
:1008B00098049E04A204A604AC046404B0049091BD
:1008C00080009F7790938000E82FF0E0EE0FFF1FED
:1008D000EE5CF94FA591B4918FB7F8949C91292BB8
:1008E0002C938FBF81E10E9471038CB580618CBD18
:1008F0008CB580648CBD8FE00E94710380E10E9402
:1009000071038091D1058F5F8093D105CFBFCF91C7
:100910000895909180009F7DD5CF90918000977F22
:10092000D1CF94B59F7794BDCFCF94B59F7DFBCFAA
:10093000909190009F7790939000C6CF90919000F7
:100940009F7DF9CF90919000977FF5CF9091C00057
:100950009F779093C000B8CF9091C0009F7DF9CF52
:100960009091C200977F9093C200AECFCF93DF9358
:10097000EC018A85882329F081508A87DF91CF9105
:1009800008959C818E819817C8F78D856827E88126
:10099000F9810084F185E02D42E0CE0109958C813A
:1009A0008F5F8C83EBCFCF93DF93FC0187812FEF99
:1009B0003FE7813011F420E830E8462F50E0DF01B6
:1009C0008FE0689FA00DB11D112450969C91618508
:1009D000892F8370823021F1833029F0813021F515
:1009E0008093D0051BC0611111C081E08093D005B8
:1009F0009C70983009F457C09C30D1F0943009F0C5
:100A000055C0846093E09093CF051CC0623061F4C0
:100A10008091D005882341F0813021F081E0E8CF3A
:100A20008093D00582E0E4CF1092D00580E0E0CF43
:100A30006230E1F59091CF059923C1F1933089F1AE
:100A400094E0892B9FE0949FD001959FB00D1124D5
:100A5000AE0FBF1F50968C9350978085EF01C40F47
:100A6000D51F813031F1823009F46CC088A9811121
:100A700008C056963C932E93559758963C932E93C8
:100A800057978AA9811155C06FE0649FC001659F87
:100A9000900D1124E80FF91F328F218F348F238F8F
:100AA00048C098E0CECF886094E0ADCF1092CF05DB
:100AB000C9CF8AA9811108C05A963C932E935997A1
:100AC0005C963C932E935B978FE0849FD001859F2B
:100AD000B00D1124AE0FBF1F50968C918C708430D6
:100AE00071F1883049F58FEF9FEF2FE0249FD001FF
:100AF000259FB00D1124AE0FBF1F56969C938E9369
:100B0000559750968C91837030E020E0813031F021
:100B10002FEF3FEF823011F02FEF3FE76FE0649F40
:100B2000C001659F900D1124E80FF91F308F278BAE
:100B3000108ADF91CF9108958FEF9FE7D6CF90E095
:100B400080E0D3CF88A9811108C056963C932E939C
:100B5000559758963C932E9357978FE0849FD001DA
:100B6000859FB00D1124AE0FBF1F50968C918C70D5
:100B7000843059F1883031F58FEF9FEF2FE0249FBB
:100B8000D001259FB00D1124AE0FBF1F5A969C9324
:100B90008E93599750968C91837030E020E081308D
:100BA00031F02FEF3FEF823011F02FEF3FE76FE092
:100BB000649FC001659F900D1124E80FF91F348FC9
:100BC000238FB6CF8FEF9FE7D9CF90E080E0D6CFCD
:100BD000CF93DF93DC0113962D913C911497C62F90
:100BE000D0E0FC018FE0689FE00DF11D11246189C8
:100BF0007289C901862397232817390709F04BC04A
:100C000080898F70823071F128F48130C9F190E0D1
:100C100080E021C0843089F08830C9F782E01896DE
:100C20008C93108A209530958189928928233923C5
:100C3000328B218B84E090E00EC081E018968C937B
:100C4000108A209530958189928928233923328B07
:100C5000218B82E090E09093CE058093CD05DF91CB
:100C6000CF91089518961C92108A2095309581890D
:100C7000928928233923328B218B81E090E0EBCFBE
:100C8000108A20953095262337233061328B218BB3
:100C900088E090E0E0CF15964D915C911697642323
:100CA00075234617570709F0B2CF80898F708230BD
:100CB00009F440C088F4813009F0A9CF19961C923C
:100CC000108A409550958189928948235923528BE7
:100CD000418B80E290E0BFCF8430D9F1883009F0B9
:100CE00096CF8091CD059091CE058115924041F02F
:100CF0001B968C911B9791E089271B968C931B97D1
:100D00002FE02C9FC0012D9F900D1124A80FB91F1B
:100D100050961C9250974095509551968D919C916C
:100D200052974823592352965C934E93519780E0F3
:100D300092E091CF81E019968C93108A409550955E
:100D40008189928948235923528B418B80E490E01A
:100D500082CF82E019968C93108A409550958189B4
:100D6000928948235923528B418B80E890E073CFBE
:100D70008FB7F8948091CC058FBF089584E9809354
:100D8000BC0085E69091BC0094FF03C08150D1F770
:100D9000089581E008956EBD00000DB407FEFDCFFB
:100DA0008EB508952A9A299A8C9A83E092E0019749
:100DB000F1F708952A9A299A469A83E092E00197DA
:100DC000F1F70895809164068F5F823018F4809364
:100DD0006406089581E0FBCF08958DE091E00895C9
:100DE000FC01E456FF4F208121111CC03297208165
:100DF000222349F083569F4FFC018081811115C049
:100E000087EE93E00895FC01E556FF4F20812223F1
:100E100079F08D559F4FFC01808181110CC083EFCB
:100E200093E008958DEC93E0089589ED93E00895A3
:100E300080E194E0089584E094E008958CBD9DBD28
:100E400008958C988091CA059091CB050E941E0749
:100E500083E092E00197F1F7089546988091CA05E2
:100E60009091CB050E941E0783E092E00197F1F775
:100E700008958F929F92AF92BF92CF92DF92EF929E
:100E8000FF920F931F93CF93DF937C016B015A0165
:100E9000022F10E0D0E0C0E083EC882E912CC01728
:100EA000D107E1F0D701ED91FC910480F581E02DAF
:100EB0006AE5C114D10421F0D601AC0FBD1F6C91BD
:100EC000C7010995A114B10421F0F501EC0FFD1F34
:100ED0008083C4010197F1F72196E1CFDF91CF9193
:100EE0001F910F91FF90EF90DF90CF90BF90AF9048
:100EF0009F908F900895CF92DF92EF92FF920F9381
:100F00001F93CF93DF937C016B01D42F8C010E5F75
:100F10001F4F23E0A8010E943907F70123812F3FCB
:100F200061F410E000E0C801DF91CF911F910F91B3
:100F3000FF90EF90DF90CF90089584818A3511F073
:100F40008111EFCF2F70C22FCC0FD33059F0B601E3
:100F50006D5F7F4F2DEF2D0FA7014B5F5F4FC701D7
:100F60000E9439072C2F2D1B2D5FE9F24D2F50E0E9
:100F7000CA01820F911D8197A4F6400F511F70E0A6
:100F800060E0C7010E943907CECFCF92DF92EF9287
:100F9000FF920F931F93CF93DF93EC010E94E7031F
:100FA0006B017C01E881F9810190F081E02DCE0197
:100FB000099544E06FE573E0CE010E947B078C0148
:100FC000E881F9810280F381E02DCE0109950115B8
:100FD000110529F0F8018181807F803F11F56AE0D9
:100FE00070E080E090E00E94B5030E94E7036C1976
:100FF0007D098E099F096B3F71058105910590F26E
:10100000C0E062E370E080E090E00E94B5038C2FC6
:10101000DF91CF911F910F91FF90EF90DF90CF90D4
:101020000895C1E0EECF4F925F926F927F928F92C0
:101030009F92AF92BF92CF92DF92EF92FF920F9367
:101040001F93CF93DF93CDB7DEB729970FB6F894F0
:10105000DEBF0FBECDBFFC01E556FF4FA080A11043
:101060000FC1B62E8C017C0184E9E80EF11CD7017A
:10107000CD90DC900E94E7032B013C01D601ED915D
:10108000FC910190F081E02DC601099544E06DE6E8
:1010900073E0C6010E947B074C01D601ED91FC91E3
:1010A0000280F381E02DC60109958114910431F08D
:1010B000F4018181807F803F09F4F9C06AE070E02B
:1010C00080E090E00E94B5030E94E703641975096F
:1010D000860997096B3F71058105910578F262E3F6
:1010E00070E080E090E00E94B503AA2009F4C8C037
:1010F000B1100AC0F801E656FF4F808181114BC044
:1011000032968081811147C0D7010D911C9189E0F1
:10111000E8E8F3E0DE01119601900D928A95E1F77F
:101120001D820E94E7034B015C01712CD801ED91F7
:10113000FC910190F081E02DC801099545E0BE01C8
:101140006F5F7F4FC8010E947B076C01D801ED9152
:10115000FC910280F381E02DC8010995CD2809F0AA
:101160007394B2E0B71588F06AE070E080E090E038
:101170000E94B5030E94E703681979098A099B094F
:101180006B3F71058105910588F262E370E080E0B4
:1011900090E00E94B503F7010081118189E0EFE73B
:1011A000F3E0DE01119601900D928A95E1F70E941D
:1011B000E7034B015C01712CD801ED91FC9101908A
:1011C000F081E02DC801099545E0BE016F5F7F4FBA
:1011D000C8010E947B076C01D801ED91FC9102804F
:1011E000F381E02DC8010995CD2809F07394B2E090
:1011F000B71588F06AE070E080E090E00E94B503E7
:101200000E94E703681979098A099B096B3F7105F8
:101210008105910588F262E370E080E090E00E9431
:10122000B50381E0F80181AFD7010D911C91D80180
:10123000ED91FC910190F081E02DC801099543E00A
:1012400066E773E0C8010E947B076C01D801ED914D
:10125000FC910280F381E02DC8010995C114D104ED
:1012600051F0F6018381833031F488EB9BE0909359
:10127000920180939101D7018D919C910E94C507A5
:1012800029960FB6F894DEBF0FBECDBFDF91CF9188
:101290001F910F91FF90EF90DF90CF90BF90AF9094
:1012A0009F908F907F906F905F904F900895AA24A9
:1012B000A39415CFCF92DF92EF92FF921F93CF931B
:1012C000DF93EC01849A3E9A8C9A469AFC01EA5686
:1012D000FF4F808191817E0124E9E20EF11CD7014C
:1012E0008D939C9324EF30E03093920120939101F1
:1012F000DC01ED91FC910680F781E02D0995FE015E
:10130000E656FF4F6F0110E08823A9F091E0359673
:101310009083D701ED91FC91119716A11D961C9316
:101320001730E9F581E0FE01E456FF4F808360E06D
:10133000CE010E941308F6018081811128C0FE01B0
:10134000E556FF4F8081811122C031968081811145
:101350001EC01130D9F5D701ED91FC9184A195A162
:10136000809590959C01207C3327203C310539F4F1
:1013700085FF05C08EE0FE01E256FF4F808382E0CC
:101380008093900181E088AB8AAB89AB8BABDF9116
:10139000CF911F91FF90EF90DF90CF90089515307F
:1013A00071F4D6019C9324A135A12095309535FF89
:1013B000BECFFE01E356FF4F80818927B7CF84A1BE
:1013C00095A18095909580FDADCFB1CF1230B9F643
:1013D000D701ED91FC9184A195A1807A9927892B61
:1013E00071F681A593A5992351F28F3F41F688EEBE
:1013F00093E090939201809391018CE0BCCFEF92A7
:10140000FF920F931F93CF93DF9300D000D01F92D2
:10141000CDB7DEB78C01DC019B961C929B97D896CA
:101420001C92D897ED91FC910190F081E02D0995E7
:10143000F80181AD811108C082AD803409F044C04B
:1014400083AD813009F040C085E0E8E6F3E0DE01DD
:10145000119601900D928A95E1F7D80196968C919C
:101460009697863059F5DC968C918C8345E0BE01C9
:101470006F5F7F4FC8010E947B077C01D801ED910F
:10148000FC910280F381E02DC8010995E114F1047B
:1014900041F0F7018181807F803FD1F4C8010E9433
:1014A000C50780E00F900F900F900F900F90DF9185
:1014B000CF911F910F91FF90EF900895F80182ADA9
:1014C0008C8383AD8D83D2CF43E068E673E0D2CFC7
:1014D000D80194968D919C91959793969C938E9319
:1014E00092972381348195963C932E939497818192
:1014F000893781F483E096968C93D80196968C91E7
:101500009697843041F108F5823029F18330C9F192
:1015100081E0C8CF982F907F903719F482E0D801EE
:10152000EACF903521F484E0F80186A3E6CF833238
:1015300011F485E0F4CF903E11F486E0F5CF8336C8
:1015400011F487E0ECCF81E0EFCF863009F45CC086
:1015500030F18730E9F681E0D8019B968C939B9718
:10156000F701858199968C93999786819A968C93A9
:101570009A97878197968C939797808598968C9366
:10158000C7CF81E0F80180AFF70139969C96C7017B
:10159000459621912D93E817F907D9F7DCCF81E023
:1015A0009B968C939B97F701958197969C93979721
:1015B000D8968C93D8978681D2968C93D297978120
:1015C000D3969C93D3974085D4964C93D49797FF0A
:1015D00005C03F7795963C932E93949787FF0AC05A
:1015E000D80194968D919C9195979F7B95969C930D
:1015F0008E939497403F08F48BCFF80184A195A176
:101600009B7F95A384A384CF81E09B968C93F70165
:101610009681858197FD1AC087FD8FE7D80197963F
:101620008C93D80197968C919797805897968C9326
:101630009797F70185819C968C939C9786819D96C0
:101640008C939D9787819E968C9362CF813808F406
:1016500081E8F80187A3E5CFFC016093BC002FEF80
:101660003FEF8091BC0087FF06C09091B900987F42
:10167000908381E008952150310999F780E0089521
:10168000CF93DF93EC016093BB0064E80E942C0BC6
:10169000882329F081E09881983209F080E0DF9179
:1016A000CF910895DF92EF92FF920F931F93CF9304
:1016B000DF93EC01D62EF42E8989882329F041117D
:1016C00003C00E94BE06198A8E01015F1F4F8989DF
:1016D000811119C0E88864EAC8010E942C0B882394
:1016E00061F08F85883011F0803139F4EE0CE09292
:1016F000BB0064E8C8010E942C0B60E0F11060E4BC
:10170000C8010E94400B6D2DC8010E94400B82E071
:10171000F8120BC089898F5F898BDF91CF911F9160
:101720000F91FF90EF90DF9008950E94BE06198AF6
:10173000F4CFDC01ED91FC910084F185E02D40E0D7
:101740000994FC012781269526952695621720F499
:101750006583606B0C94990B08950F931F93CF933F
:10176000FC012681621798F4C62F8C016483608582
:10177000C60F6C2F6F700E94990B6C2F62956F7063
:101780006061C801CF911F910F910C94990BCF917B
:101790001F910F9108951F93CF93DF93EC01142FA6
:1017A0000E94AD0B612FCE01DF91CF911F910C9460
:1017B000A10B2F923F924F925F926F927F928F92E6
:1017C0009F92AF92BF92CF92DF92EF92FF920F93D0
:1017D0001F93CF93DF9300D000D000D0CDB7DEB7FA
:1017E000FC01238534852115310509F416C19E833A
:1017F0008D83F9013296649031964491E42EF12C58
:10180000F7E0EF0EF11C53E0F594E7945A95E1F7F9
:10181000E982F901349654913196E4916D30F1F4F6
:1018200060E00E94AD0B81E090E026960FB6F89440
:10183000DEBF0FBECDBFDF91CF911F910F91FF9003
:10184000EF90DF90CF90BF90AF909F908F907F9060
:101850006F905F904F903F902F9008956A3081F481
:1018600060E08D819E810E94AD0BED81FE818685B9
:1018700065818E9D600D1124CF010E94A10BD3CFF5
:10188000651708F4CAC08E2F90E0FC01E50FF11D2A
:101890006E171F060CF0C1C089010A5F1F4F651B40
:1018A000ED81FE8171855685759F502D11245C83D5
:1018B000F90154912F5F3F4FF9012491352F2230C8
:1018C000310508F06AC06E9CC0016F9C900D112418
:1018D000689FF001699FF00D11240E0F1F1F512CFE
:1018E000ED81FE81F481FA83ED81FE812580F28510
:1018F000FB83862C912CAA24A394B12C312C8981B2
:10190000381608F086C0412CED81FE818685481688
:1019100008F078C08B818287311002C0442041F0EA
:10192000ED81FE8145814F5F6A81CF010E94CB0B23
:10193000D12CC12CC61408F058C0F801EC0DFD1DC7
:101940007490552061F0EA14FB0449F4E72DF0E0AF
:10195000052C02C0F595E7950A94E2F77E2EED81FD
:10196000FE818685823081F4442009F43AC0729465
:101970008FE07822E72DF0E0ED54FC4F7490672D56
:101980008D819E810E94B604672D8D819E810E946B
:10199000B6048FEFC81AD80ACDCF477028E0522E70
:1019A000541A411101C0512CF801612C30E020E0A3
:1019B000661631F04491240F311D63943196F8CFAF
:1019C000600E712E711CF3016490E29EF001E39EA3
:1019D000F00DF29EF00D11248E0F9F1F080F191F9E
:1019E0007FCFF72DFF707F2EC5CFD12CEC81DE1677
:1019F00039F060E08D819E810E94B604D394F6CFC9
:101A0000439482CF3394080D191DFFEFAF1ABF0A1C
:101A100076CF622D8D819E8130CF90E080E005CF22
:101A20000F931F93CF93DF938C01D0E0C0E0F801B8
:101A3000EC0FFD1F6491662341F089E796E00E9458
:101A4000D90B892B11F02196F2CFCE01DF91CF91E6
:101A50001F910F910895811104C088EA93E00C94BE
:101A6000100D813019F487E993E0F9CF8250853069
:101A700018F484EA93E0F3CF8EE993E0F0CF682F77
:101A800089E796E00C94D90BCF92DF92EF92FF9208
:101A90000F931F93CF93DF93EC01F62EC42ED22E1B
:101AA0001A868F81869586958695081710F00FEF18
:101AB000080F1D2D011780F0412F6F2DCE010E94C0
:101AC000CB0BEF2CCE1430F06D85CE010E94B60406
:101AD000E394F8CF1F5FEECF4D2D6F2DCE01DF9138
:101AE000CF911F910F91FF90EF90DF90CF900C94CA
:101AF000CB0B0F93FC0107810695069506950150C7
:101B00004681415020E060E00E94440D0F9108950D
:101B10004F925F926F927F928F92AF92CF92EF929D
:101B2000FF920F931F93CF93DF93CDB7DEB72701BB
:101B3000380194E0899F80011124F801EE54FA4F96
:101B400080819181A281B3818E219521A621B72127
:101B500031E0892B8A2B8B2B09F430E03C1103C038
:101B600088898823F1F0C11001C0A82C2D5F640F73
:101B7000422F89E796E00E94CB0B8A2D0E943F0DF1
:101B8000F801EE54FA4FCC20D1F080819181A281EE
:101B9000B38184299529A629B72980839183A283BB
:101BA000B383DF91CF911F910F91FF90EF90CF9072
:101BB000AF908F907F906F905F904F90089540947A
:101BC00050946094709480819181A281B38184212A
:101BD0009521A621B721E1CF2F923F924F925F929C
:101BE0006F927F928F929F92AF92BF92CF92DF922D
:101BF000EF92FF920F931F93CF93DF93D62E342E45
:101C00003901B02EFC01E256FF4F2081EC012E304D
:101C100009F042C0CB5DDE4F2C0123E8421A2EEFC3
:101C2000520AE62FF0E0EE0FFF1FEF56FC4F9080B8
:101C3000E880F9800A811B812C814D81AE808F80E4
:101C40006114710459F0F30184A195A180959095D8
:101C50008E219F21CC24C394892B09F4C12CBF92DF
:101C6000692D8D2D0E94880D28960F90C415D505DD
:101C7000F9F6DF91CF911F910F91FF90EF90DF90D8
:101C8000CF90BF90AF909F908F907F906F905F901C
:101C90004F903F902F900895CB55DF4F912C8EEFB2
:101CA000282E240E462E512C440C551CC2018F5652
:101CB0009C4F2C0191E0921568F48FEF890D8230D2
:101CC00038F1E5E03E1206C0992011F188EF890D48
:101CD0008230F0F0E880F9800A811B812C814D81EF
:101CE000AE808F806114710459F0F30184A195A135
:101CF000809590958E219F21CC24C394892B09F443
:101D0000C12CBF92F20160818D2D0E94880D0F9031
:101D100093942896F0E19F12CDCFABCFEF92FF9234
:101D20000F931F93CF93DF937C01D62FC42FE62F01
:101D3000F0E0EE0FFF1FEF56FC4F108107E023E0AD
:101D40004181612F89E796E00E94440D47E0612FB1
:101D500089E796E00E94CB0BC43009F449C070F4C7
:101D6000C13029F1C230C1F182E993E0DF91CF9116
:101D70001F910F91FF90EF900C94100DC530B9F0AA
:101D800088E593E0C63081F70E94100DD23040F410
:101D900001E030E020E04C2F6D2FC7010E94EC0DD8
:101DA000DF91CF911F910F91FF90EF900895F70170
:101DB000E256FF4F80818E3019F488E893E0E4CF3B
:101DC000F701E656FF4F8081811103C089E793E058
:101DD000DBCF81E893E0D8CFF701E256FF4F808157
:101DE0008C3019F485E793E0CFCF8BE693E0CCCF2E
:101DF0008FE593E0C9CF0F9307E022E04FE760E063
:101E000089E796E00E94440D80916406813051F488
:101E100066E389E796E00E94AD0B8FEA93E00F91AD
:101E20000C94100D0F91089580938F016EEA81112B
:101E30006FEA89E796E00E94990B0E94E70360939E
:101E4000650670936606809367069093680608950A
:101E50002F923F924F925F926F927F928F929F92BA
:101E6000AF92BF92CF92DF92EF92FF920F931F93A8
:101E7000CF93DF93CDB7DEB762970FB6F894DEBF8E
:101E80000FBECDBF9C012C553F4F3E832D83D90102
:101E90001C92FC01E556FF4F2080211094C34C0199
:101EA0008091C80534967F012E5031093901811186
:101EB00062C08091C90581115EC0808181110CC012
:101EC000D9018D919C91DC01ED91FC910680F78107
:101ED000E02D0995F70180838093C80584010056A1
:101EE0001F4FD8018C9181110EC0F401E856FF4FAD
:101EF00080819181DC01ED91FC910680F781E02DDC
:101F00000995F80180838093C90581E00E94140F30
:101F100007E027E04FE760E089E796E00E94440D84
:101F200067E089E796E00E94A10B60E089E796E010
:101F30000E94AD0B8091C80581110BC08091C9052D
:101F4000811103C082E993E002C08EE893E00E9411
:101F5000100D62E489E796E00E94AD0B9091C805F0
:101F60008091C905992309F464C0811104C08EE8E9
:101F700093E00E94100D26EC35E03C832B8388EC27
:101F800095E098878F8387016401F12CE12C24016F
:101F900094E9490E511CD401A456BF4FBA87A987B2
:101FA000F401E656FF4FFC87EB873E2CD3018D9161
:101FB0009D913D01F20191838083AB81BC811D9293
:101FC000BC83AB83EF81F8858191F887EF83882309
:101FD00009F4ECC262E070E080E090E00E94B5039A
:101FE000D8012C91F20180819181211127C0DC015F
:101FF000ED91FC910680F781E02D0995882309F485
:1020000076C081E0F8018083F701EC53FA4F10822B
:1020100060E0C4010E941308F701EE53FA4F1082EA
:10202000D201ED91FC9146A16E2DC4010E948E0E4D
:102030005EC081119ACF82E993E09BCFFC01B6A0EC
:1020400012968C918B1521F060E0C4010E94130858
:10205000F801B282D201ED91FC91D601D7969C9104
:10206000D79781AD882309F437C2D5962C9181E0AA
:10207000911101C080E0819582AF23AFF201808190
:1020800091810E94FF09AB80BC80D5018E935D01D8
:10209000882321F1EB85FC85808181111FC0A985F2
:1020A000BA858C9181111AC0D201ED91FC9186A163
:1020B000F701EE53FA4F813009F018C28081823067
:1020C00068F48F5F808361E0C4010E941308F2010D
:1020D000808191810E94FF09D5018C93F501808157
:1020E000F701EC53FA4F882309F403C21082E98503
:1020F000FA858081882309F459C2C12C940126569F
:102100003F4F3C872B87C40184569F4F9E878D8706
:10211000D401A256BF4FBA87A987F401EC56FF4FEE
:10212000F88BEF8710E8A12EBA2C80919001C81689
:1021300008F04AC28C2D90E0F401E80FF91FE15637
:10214000FF4F2081222309F4C0C1FC01EA53FA4F5A
:102150000081002309F4B9C1AD81BE81EC90FC017E
:10216000E55BFF4FEE0FFF1FE80DF91D0190F081B9
:10217000E02DD201ED93FC93AB85BC858C91811150
:10218000A4C1AD85BE85FC90F1109FC116A16E2C37
:10219000712CF301E054FA4FFC83EB838081181714
:1021A00029F0412F6E2DC4010E948E0EE1E0F0E077
:1021B000EC0FFD1FE60DF71D10838FEF810F8530AB
:1021C00008F078C1D201ED91FC9124A135A12095B0
:1021D0003095C901A4E096958795AA95E1F7982FC7
:1021E000917082E026FF80E0892B94E027FF90E049
:1021F000892B25FF8EC128E0AD81BE819C91822B69
:10220000292F30E0B401BFE09B9F600D711D1124A8
:10221000DB0150968C93A985BA85FC90FF2029F0AC
:102220008F298F70DB0150968C9384A195A18095A6
:102230009095AC0144E0549F412D552711244170E5
:102240005527BC016627707295FF02C062E070E0FE
:10225000462B572B64E070E097FD02C070E060E011
:10226000462B572BBC016627707194FF02C068E0B3
:1022700070E0462B572BBC016627747092FF02C09A
:1022800060E170E0642B752BAC014427587093FF1C
:1022900002C040E250E0642B752BAC014427517022
:1022A00090FF02C040E450E0642B752BAC01442742
:1022B000527091FF02C040E850E0642B752BAC01D6
:1022C0004170552780FF02C040E051E0642B752B20
:1022D000AC014870552783FF02C040E052E0462B16
:1022E000572BBC016270772781FF02C060E074E069
:1022F000462B572BBC016470772782FF02C060E039
:1023000078E08FE0829FD001839FB00D1124CD0132
:10231000880D991D9A8B898B462B572BDC01529681
:102320005C934E935197C90182549A4F98878F833B
:10233000DC018C91F11009C0A989BA8950969C9151
:1023400050979F3011F450968C939FE0929FD0014C
:10235000939FB00D1124A80DB91D50969C915097D4
:10236000F02E981311C0C901880F991F86549A4FF7
:10237000FF24F39451964D915C91DC018D919C91D9
:102380004817590709F4F12C83A5882309F4C7C01D
:10239000153009F4C4C077A189E8870F833108F4A8
:1023A000BAC0872F60A590E04FE0429FD001439FC5
:1023B000B00D1124A80DB91D582F4427840F951F67
:1023C00056969C938E93559789E8860F833108F42F
:1023D000A4C0862F90E04FE0429FD001439FB00DF4
:1023E0001124A80DB91D582F4427840F951F589606
:1023F0009C938E935797C901885B9E4FDC014C914B
:10240000D901AA5BBE4FBA8BA98B471303C04C916D
:10241000DF2C4613D02EDC017C93A989BA896C93FA
:1024200083A5882319F0153009F08CC08FE0829FB6
:10243000F001839FF00D1124E80DF91DB28EA18EDD
:10244000B48EA38E90E880E8D901AC5BBE4F4C916E
:10245000F901EE5BFE4F481304C04081491301C0EF
:102460000D2D8C9390838FE0829FD001839FB00DC0
:102470001124A80DB91D50968C915097EF81F885C5
:102480008083220F331FF901E654FA4F51968D9144
:102490009C9191838083002369F0F1E0FE1550F058
:1024A000AF85B8892D913C9100E0412F6E2DC4017C
:1024B0000E94EC0DE1E0F0E0EC0FFD1FE60DF71DD2
:1024C0008081EB81FC8180832F28AD81BE818C913E
:1024D0008F5F8C93C39429CE992329F0B0E4B2AFD7
:1024E00081E083AFCBCD12AE13AEC8CDB2E0B083E6
:1024F000F5CD80818F5F8083823008F4F8CDD801DC
:102500001C921082F701EE53FA4F108240E0632DC7
:102510008CCD20E071CE80E845CF80E85BCF8FE0A6
:10252000829FD001839FB00D1124A80DB91D56962E
:10253000BC92AE9255975896BC92AE92579760E86F
:1025400070E859CF81A5A985BA859C919C3009F482
:1025500080E899E8980F482F933108F440E892A555
:1025600050E06FE0629FF001639FF00D1124E80DD1
:10257000F91D742F6627460F571F528F418F49E868
:10258000490F433188F0492F50E06FE0629FF0011E
:10259000639FF00D1124E80DF91D742F6627460F77
:1025A000571F548F438F50CF40E8EECF0F5F1F4F20
:1025B000B4E0CB0ED11CEA94EF2809F49ECDEE24B2
:1025C000E394F12CF2CC212C822D62960FB6F89474
:1025D000DEBF0FBECDBFDF91CF911F910F91FF9056
:1025E000EF90DF90CF90BF90AF909F908F907F90B3
:1025F0006F905F904F903F902F90089590E080E013
:102600000895FC01809170059091710586179707D8
:10261000A0F06115710529F49091E8009E779093E0
:10262000E80090E06115710551F4911108C08091A6
:10263000E80082FF35C080E00895BC01F2CF8091B0
:1026400060068823C9F18530C9F18091E80083FDD7
:1026500031C08091E80082FDEACF8091E80080FFE0
:10266000E1CF2091F3008091F200322F282F6115E5
:10267000710519F02034310558F091E0203431050E
:1026800009F090E02091E8002E772093E800CACF6F
:1026900081918093F100615071092F5F3F4FE7CF27
:1026A00080916006882341F0853041F08091E800F8
:1026B00083FFBDCF81E0089582E0089583E008950F
:1026C0002091E4003091E50085E69091EC0090FFC8
:1026D00006C09091E80090FF06C080E008959091B8
:1026E000E80092FDFACF90916006992391F0953021
:1026F00091F09091EB0095FD10C04091E400509155
:10270000E5002417350709F381509A01F1F684E0BA
:10271000089582E0089583E0089581E0089580910E
:102720006A0587FF13C08091E80082FF06C0809190
:10273000E8008B778093E80004C0809160068111E7
:10274000F2CF0895809160068823D9F38091E80044
:1027500080FFF8CF8091E8008E77ECCF982F9730EC
:1027600028F08F708093E90081E008959093E9004C
:10277000242F762F50E0981731F07091EC002091C3
:10278000ED005091F00021FD02C09F5FE8CF309135
:10279000EB003E7F3093EB003091ED003D7F3093B6
:1027A000ED003091EB0031603093EB007093EC0062
:1027B0002093ED005093F0002091EE0027FDE5CF2F
:1027C00080E0089542E050E069E174E089E796E036
:1027D0000C94F303CF93DF930E94100DEC010E9441
:1027E000E2138C0F9D1FDF91CF9108950E94032566
:1027F000EF92FF920F931F93CF93DF9300D0CDB74B
:10280000DEB780916006882309F4DBC08091E9007F
:102810008F709091EC0090FF4FC090E8F92EF82A4D
:102820001092E9008091E80083FFC7C0EAE6F5E076
:102830008091F100819325E0E237F207C9F7E0903B
:102840006B0581E0E8121DC080916A05813AC9F4E8
:102850008091E800877F8093E80080916C059091DB
:102860006D058115934051F568E070E080E091E0DE
:102870000E940113E09269068091E8008B778093B3
:10288000E8008091E80083FF8AC080916A059091FA
:102890006B059A3008F083C0E92FF0E0EE5AFB4E4A
:1028A0000C94D823A214C814CF14C814CF1429151B
:1028B0004B15CF147E178B1790E0B0CFE0915F06D9
:1028C000E730D0F6F0E0E959FB4E0C94D8236E14B3
:1028D00075147A147F14841489149D1464E170E0D3
:1028E0008AE694E00E940113C7CF60E470E087E5B8
:1028F00094E0F8CF60E470E08FE494E0F3CF60E41C
:1029000070E087E494E0EECF60E470E080E494E06F
:10291000E9CF81E080933C0482E080933904809188
:102920006E0590916F0560E470E0892B19F48CE3DB
:1029300094E0D8CF89E394E0D5CF60E470E084E3FD
:1029400094E0D0CF803889F0823849F580916E05C7
:102950008F70873020F58093E9008091EB0085FB34
:10296000882780F91092E90004C08091D205811176
:102970000DC09091E800977F9093E8008093F1005C
:102980001092F1008091E8008E7732C082E0F1CFA2
:10299000282F2D7F21F48823E9F0823071F1809176
:1029A000E80083FF0AC08091E800877F8093E800F9
:1029B0008091EB0080628093EB008F2D8F7080936D
:1029C000E9000F900F90DF91CF911F910F91FF9031
:1029D000EF90089580916C05813009F7933009F0EC
:1029E00080E08093D2051092E9008091E800877F13
:1029F0008093E8000E948F13D2CF80916C058111E3
:102A0000F2CF80916E058F702FEF280F263038F6A9
:102A10008093E9002091EB0020FFE5CF933031F463
:102A20008091EB0080628093EB00DDCF9091EB0012
:102A300090619093EB0021E030E001C0220F8A9575
:102A4000EAF72093EA001092EA008091EB00886098
:102A5000EACF8111A4CF10916C051F778091E3001C
:102A60008078812B8093E3008091E800877F8093BA
:102A7000E8000E948F138091E80080FFFCCF8091D6
:102A8000E30080688093E30083E0111101C082E0DD
:102A90008093600684CF8058823008F080CF2091E8
:102AA0006C0530916D051A821982832F9927833026
:102AB000910509F41CC1D0F481309105A9F1029768
:102AC00009F45DC069817A816115710509F467CFE8
:102AD0008091E800877F8093E800C8010E9401137D
:102AE0008091E8008B778093E80059CF813291057F
:102AF00009F49FC1829731F780915F06843009F411
:102B0000E7C108F0BBC1813009F4C8C1833009F4C2
:102B1000D4C146E450E06AE671E084ED94E00E949E
:102B2000B92386E490E0C4C180915F06882399F0C0
:102B3000813001F10091D8051091D90542E150E0B2
:102B400065EC70E08EE794E00E94B92300938A045C
:102B500010938B0408C042E150E069EE70E08EE70C
:102B600094E00E94B92382E190E09A8389830EE782
:102B700014E0A8CF42E150E067ED70E0F0CF0091A3
:102B8000D70510915F06113009F456C008F44DC006
:102B9000153009F496C01350143008F0A1C0E12F8D
:102BA000F0E0E35CFC4F108149E050E064E171E04B
:102BB00080E994E00E94B92399E1099F902D1124A6
:102BC000975F9093920400939404002309F48AC0C1
:102BD00049E150E06BEF70E089E994E00E94B9238D
:102BE00010929B041093A90481E88093AD040230F5
:102BF00008F478C049E150E06BEF70E082EB94E0BC
:102C00000E94B92381E08093B4041093C20482E847
:102C10008093C604023009F465C049E150E06BEFCF
:102C200070E08BEC94E00E94B92381E390E09A83FA
:102C300089830CE013E046CF49E050E068E571E09D
:102C400080E994E00E94B92399E1099F902D112415
:102C5000975F9093920400939404002361F149E1FB
:102C600050E06FE371E089E994E00E94B92310928B
:102C70009B044CE6E42EE092A90481E88093AD0425
:102C80000230C8F049E150E06FE371E082EB94E07C
:102C90000E94B9231093B404E092C20482E88093A6
:102CA000C604023041F049E150E06FE371E08BEC83
:102CB00094E00E94B923B9E10B9FC0011124099649
:102CC0000AC042E250E06DE171E080E994E00E94C8
:102CD000B92382E290E09A83898300E914E0F2CE7E
:102CE00016E462CFE9E10E9FC0011124E8CFC901CB
:102CF00099278230910549F18330910509F441C04B
:102D00008130910509F04AC080915F06813089F4D5
:102D100044E351E0DA010D900020E9F7AD0145539D
:102D2000514064E371E0CE0101960E943C198C0190
:102D3000C9CE47E251E0FA0101900020E9F7AF0166
:102D40004852514067E271E0EECF80915F068130DA
:102D500061F445E151E0DA010D900020E9F7AD01A1
:102D60004651514065E171E0DECF48E051E0FA01A3
:102D700001900020E9F7AF014950514068E071E04F
:102D8000D2CF6091D5057091D605FB01019000204E
:102D9000E9F73197AF01461B570BC5CF6AE073E0E7
:102DA000E1E0222331F1253039F521E533E0E0E09F
:102DB000FCE0FE0FD9011D919D018E2F90E0019640
:102DC00070E060E0412F42954F7050E0445E5B4FF1
:102DD000DA014C91DC014C93EE5F90E0A12FAF70D3
:102DE000B0E0A45EBB4F4C91DC0111964C93EF1305
:102DF000E1CF4E2F50E097CF20915F06880F991FAB
:102E0000222329F0213049F08F5B9C4F02C0895A60
:102E10009C4FFC016081718105C0875B9C4FDC0188
:102E20006D917C91FB0101900020E9F73197E61B41
:102E3000E0CF10915F0649E050E061E671E08BEC75
:102E400094E00E94B9238BE5143079F040F48CE6CD
:102E5000113059F089E5133041F086E406C081E570
:102E6000153019F087E31630C1F78093D20489E05A
:102E700090E09A8389830BEC14E024CE853099F19D
:102E8000863009F046CE47E350E060EB71E084ED18
:102E900094E00E94B92387E390E00AC04CE650E03A
:102EA0006CEE72E084ED94E00E94B9238CE690E031
:102EB0009A83898304ED14E005CE49E550E063E987
:102EC00072E084ED94E00E94B92389E590E0F0CFB0
:102ED0004BE550E068E372E084ED94E00E94B92392
:102EE0008BE590E0E5CF41E550E067EE71E084EDE1
:102EF00094E00E94B92381E590E0DACF803809F0B0
:102F00004ECD8091E800877F8093E8008091D305C3
:102F10008093F10037CD811142CD10916C051230B4
:102F200008F03DCD8091E800877F8093E800109302
:102F3000D3050E948F131123F9F084E0809360067B
:102F400000915F060023F1F042E360EC82E00E9412
:102F5000AE1311E08091D705811708F420CD812FA1
:102F60008F70873020F442E361EC0E94AE1305308D
:102F700009F415CD1F5FEECF8091E30087FDDDCF13
:102F800081E0DCCF42E261EC81E00E94AE1346E2D8
:102F900060EC82E00E94AE1302CD0F931F93CF939B
:102FA000DF938C01EB018091E80085FD10C08091DA
:102FB000E8008B778093E8000E94F8130E9460136A
:102FC000882389F3DF91CF911F910F91089580910C
:102FD000F100F80181938F01219729F780E0F2CF6A
:102FE0001F920F920FB60F9211242F933F938F933E
:102FF0009F93AF93BF938091710690917206A091B9
:103000007306B09174063091700623E0230F2D37BC
:1030100058F50196A11DB11D20937006809371068D
:1030200090937206A0937306B09374068091750610
:1030300090917606A0917706B09178060196A11D31
:10304000B11D8093750690937606A0937706B09392
:103050007806BF91AF919F918F913F912F910F90E3
:103060000FBE0F901F90189526E8230F0296A11D02
:10307000B11DD2CF1F93CF93DF93EC0180E88FA3D4
:1030800088A789A78AA71BA6FE01BC968CE0DF0152
:103090001D928A95E9F71EA219AE1AAE1BAE1CAEA0
:1030A00015E0CE010E94FF0961E070E080E090E051
:1030B0000E94B5031150A9F7CE01DF91CF911F9166
:1030C0000C94FF09CF93DF93EC01849A8C9A229A97
:1030D0002A9A219A299A23982B982B9A0E942004A5
:1030E000CE01DF91CF910C943A18CF93DF93EC018E
:1030F0003E9A469A229A2A9A219A299A23982B989C
:103100002B9A0E942004CE01DF91CF910C943A18A3
:103110001F920F920FB60F9211242F933F934F934C
:103120005F936F937F938F939F93AF93BF93EF932F
:10313000FF938091DA0080FF17C08091D80080FF54
:1031400013C08091DA008E7F8093DA008091D900DD
:1031500080FF86C080E189BD82E189BD09B400FE9F
:10316000FDCF81E0809360068091E10080FF17C071
:103170008091E20080FF13C08091E2008E7F8093F7
:10318000E2008091E20080618093E2008091D800AB
:1031900080628093D80019BC85E08093600680919E
:1031A000E10084FF26C08091E20084FF22C080E11C
:1031B00089BD82E189BD09B400FEFDCF8091D800B0
:1031C0008F7D8093D8008091E1008F7E8093E10015
:1031D0008091E2008F7E8093E2008091E200816026
:1031E0008093E2008091D3058823F1F184E08093FD
:1031F00060068091E10083FF22C08091E20083FF9E
:103200001EC08091E100877F8093E10082E080937F
:1032100060061092D3058091E1008E7F8093E100DB
:103220008091E2008E7F8093E2008091E2008061D5
:103230008093E20042E360E080E00E94AE13FF91E1
:10324000EF91BF91AF919F918F917F916F915F911E
:103250004F913F912F910F900FBE0F901F90189597
:1032600019BC1092600680CF8091E30087FD02C0F8
:1032700081E0BDCF83E0BBCFCF93DF93DC01403251
:10328000510514F04FE150E090E0292F30E0241771
:10329000350784F04F5F5F4F440F551F4D935C938C
:1032A0005360509373054093720582E795E0DF9178
:1032B000CF910895F901EE0FFF1FEC58FA4F260F3A
:1032C000371FE9012881022E000C330B3183208344
:1032D0009F5FDBCFCF93DF93CDB7DEB729970FB6D4
:1032E000F894DEBF0FBECDBF789484B5826084BDF4
:1032F00084B5816084BD85B5826085BD85B58160FA
:1033000085BD80916E00816080936E001092810077
:103310008091810082608093810080918100816032
:1033200080938100809180008160809380008091F3
:1033300091008260809391008091910081608093E0
:103340009100809190008160809390008091C100F5
:1033500084608093C1008091C10082608093C1002D
:103360008091C10081608093C1008091C300816021
:103370008093C3008091C00082608093C0008091E0
:10338000C20081608093C20080917A008460809343
:103390007A0080917A00826080937A0080917A002E
:1033A000816080937A0080917A00806880937A00AF
:1033B00056985E9A1092690690E080E00E94C223BF
:1033C000823008F0E6C080936406F0906406BB2467
:1033D000B394FB10A8C08DE791E00E94DE238C011E
:1033E000DC0112961C92129780E093E014969C9355
:1033F0008E93139780E09CE016969C938E9315977E
:1034000017961C92179718961C9218971996FC926B
:1034100019978EE1E9E9F1E0509601900D928A95B5
:10342000E1F7F80117A616A611AA10AA13AA12AA64
:10343000F49688E0DF011D928A95E9F7F80114AE51
:1034400015AE17AE16AEE05CFF4F118210823296B9
:103450008FEF9FE7918380833296918380833296AA
:103460009183808332969183808332961082319645
:1034700010828FEB93E0D8018D939C9381E490E0D0
:103480000E94DE23F1E4FF2EFC01BF2C1192BA94BE
:10349000E9F723EB33E0DC012D933C93F801EA5686
:1034A000FF4F9183808381E490E00E94DE23FC0142
:1034B0001192FA94E9F727EA33E0DC012D933C936B
:1034C000F801E856FF4F918380833296108231963F
:1034D0001082319610823196108231961082319688
:1034E0001082319610823196108231961082319678
:1034F000108231961082D801AB55BF4F80E8E7EBC0
:10350000F1E001900D928A95E1F7D801AB5DBE4FD5
:1035100088E5E7E3F2E001900D928A95E1F71093D8
:103520006B0600936A0610928A068CE380938906E4
:103530001092B90084E48093BC008CE08093B800C2
:1035400010927D0610927E06EFE1F6E0C590D490D1
:10355000E1E2F6E0F490E2E2F6E0E491E0937F0647
:10356000E3E2F6E0E491E0938006E4E2F6E0E49141
:10357000E093810610E000E00F1568F4F601E00F1B
:10358000F11F649189E796E00E94990B0F5F1F4F2E
:10359000F3CF81E018CF89E796E00E94790D61E8CA
:1035A00089E796E00E94990B61E089E796E00E9426
:1035B000990BE4E3F4E0F0938506E09384068491AC
:1035C000E5E3F4E0E491F82F319709F0E1C01092BF
:1035D000820689E796E00E94790D11E01093870634
:1035E0006EE189E796E00E94AD0B82E0809387064A
:1035F0008DE294E00E94100D1093870662E089E747
:1036000096E00E94A10B0E94FB0E81E090E00E94D8
:10361000C223873008F080E0A0916A06B0916B0663
:1036200017968C931797ED91FC9111970190F0816B
:10363000E02DCD01099564E170E080E090E00E940A
:10364000B50380916A0690916B06DC01ED91FC91C7
:103650000280F381E02D099564E170E080E090E064
:103660000E94B50380916A0690916B06DC01ED9192
:10367000FC910280F381E02D0995A0916A06B0913A
:103680006B0651968C91519780FF86C081E017960A
:103690008C9317974E99A6C017961C9189E796E0D0
:1036A0000E94790D45E050E06DE274E089E796E014
:1036B0000E94F3030E94E2136CED75E080E090E05D
:1036C0000E94B50389E796E00E94790D80E294E0BC
:1036D0000E94EA1382E194E00E94EA1385E094E0FC
:1036E0000E94EA1364EF71E080E090E00E94B5036D
:1036F00081E0812C912C540101E0FF24F3944E9938
:1037000051C0F12C813051F40E94E7034B015C0160
:1037100060E170E080E090E00E94B5030E94E70362
:10372000681979098A099B09693E734081059105E9
:1037300010F40C94A02389E796E00E94790D8DEF98
:1037400093E00E94EA1386EF93E00E94100D812F10
:103750000E942B0D0E94E2130E94E21382EE93E07E
:103760000E94100D60ED77E080E090E00E94B503CC
:10377000612F81E090E00E94CA2388E19EE00FB6AD
:10378000F894A895809360000FBE90936000FFCFDF
:1037900081E0809382061DCF81FF7CCF17961C921B
:1037A000179778CF81110C949D2360E170E080E041
:1037B00090E00E94B50381E0011106C0882379F0F2
:1037C0001F5F133008F010E007E025E04FE760E0EE
:1037D00089E796E00E94440D812F0E942B0D00E0A6
:1037E0008F2D8BCFED91FC9111970484F585E02D01
:1037F000CD01099561E089E796E00E94A10B60E0A8
:1038000089E796E00E94AD0BE0916A06F0916B06A5
:10381000878181111CC188E50E943F0D80916A0655
:1038200090916B0621E032E0FC0134832383019008
:10383000F081E02D0084F185E02D09958C018091C7
:103840006A0690916B06DC01ED91FC910284F38590
:10385000E02D099520919001E0916A06F0916B06A8
:10386000378130935F069093D9058093D8052093D4
:10387000D7051093D6050093D50584B7877F84BFFD
:103880000FB6F894A89580916000886180936000DD
:10389000109260000FBE80E830E020E00FB6F89490
:1038A00080936100209361000FBE8091D8008F7ECD
:1038B0008093D8008091D70081608093D70084E006
:1038C00082BF81E08093D4058091D8008E7F809361
:1038D000D8001092E2001092DA001092E10080917C
:1038E000D8008F778093D8008091D800806880932B
:1038F000D8008091D8008F7D8093D80019BC109299
:1039000060061092D3051092D2058091E0008B7F63
:103910008093E0008091D80081608093D80042E3DA
:1039200060E080E00E94AE138091E1008E7F809382
:10393000E1008091E20081608093E2008091E200EA
:1039400088608093E2008091E0008E7F8093E000A9
:103950008091D80080618093D80078940E94900371
:1039600000916C0610916D0620916E0630916F06E5
:10397000AB01BC01401B510B620B730B8091910199
:1039800090919201B0E0A0E0C12C481759076A0756
:103990007B07B0F080916A0690916B06DC01ED9197
:1039A000FC910280F381E02D0995C82E0E949003BE
:1039B00060936C0670936D0680936E0690936F060D
:1039C000D12C80919001D81608F01CC680916A060F
:1039D00090916B06DC01ED91FC910680F781E02D62
:1039E0006D2D099500916A0610916B06ED2CF12C56
:1039F000F8018781843009F487C108F037C0882333
:103A000009F469C093E1813009F400C298E0833081
:103A100009F0B8C18FE08E9DF0018F9DF00D11244B
:103A2000E00FF11FE089EF70E150EA3008F0A9C320
:103A3000F0E0E35EF24E0C94D8234C20B920C12074
:103A4000BD20BF20BB20C120B520B120B7208130D0
:103A500011F483E5E1CE823011F488E4DDCE8350A9
:103A6000843010F48DE4D8CE85E4D6CE853009F4C8
:103A700069C195E0863009F0C9CF8FE08E9DF001D5
:103A80008F9DF00D1124E00FF11F21893289A901CA
:103A90004170552782E021FF80E0842B22FF67C41C
:103AA00024E0822B8093DA058FE08E9DF0018F9DBC
:103AB000F00D1124E00FF11F258936893093DC05C4
:103AC0002093DB052789308D3093DE052093DD05BB
:103AD0002AED35E08EC094E18FE08E9DF0018F9D40
:103AE000F00D1124E00FF11F2089822F817032E048
:103AF00021FF30E0832B34E022FF30E0832B23FFD3
:103B00006FC128E0822B2FE02E9DF0012F9DF00D3C
:103B10001124E00FF11F2189328940E131FF40E09B
:103B2000842B40E230FF40E0842B40E432FF40E051
:103B3000842B40E833FF40E0842B80934C01A901A3
:103B4000E4E056954795EA95E1F7417082E025FF5C
:103B500080E0842B44E034FF40E0842B40E120FFF0
:103B600040E0842B40E221FF40E0842B40E422FF30
:103B700040E0842B40E823FF40E0842B80934D01FC
:103B80008FE08E9DF0018F9DF00D1124E00FF11F4D
:103B900045895689505850935101409350014FEF39
:103BA0005FE76789708DDA01A61BB70BB0935301ED
:103BB000A0935201618D728D70587093550160937E
:103BC0005401638D748D461B570B509357014093DE
:103BD0005601D801AE0DBF1D9E968C91882309F425
:103BE00001C1858D80934E01868D80934F012AE41B
:103BF00031E03093630620936206909361068091D2
:103C00006006843009F074C082E08093E9008091FE
:103C1000E80082FF2AC08091E80085FF21C08091E2
:103C20005F068111C2C40E946013811108C050E078
:103C300040E068E070E0CE0101960E94CD178981D6
:103C400081110EC08A81883059F4F701EE0FFF1FF1
:103C5000EE0FFF1FE00FF11F8C8185AB8D8187ABCD
:103C60008091E8008B778093E800870186E0000F61
:103C7000111F8A95E1F701521A4F4091610650E0F9
:103C80006091620670916306C8010E940825892B25
:103C900079F180915F06853009F094C481E08093CA
:103CA000E9008091E80080FF23C0E0906106A090C9
:103CB0006206B09063060E946013F12C882309F419
:103CC00094C48091E8008E778093E800E0906106CC
:103CD000F12CA0906206B0906306A701B501C8015F
:103CE0000E941525A70170E060E0C5010E941E2515
:103CF0000E94F813E0916A06F0916B068781882391
:103D000009F480C4D3945DCE97E08FE08E9DF001DE
:103D10008F9DF00D1124E00FF11FE089EF70E1504D
:103D2000EA3008F09BC2F0E0E856F14E0C94D8233C
:103D3000C32026212E212A212C2128212E21222197
:103D40001E21242194E0DD2019F093E0D11002C35C
:103D500081E080938001D8015096EC91EF70E150A2
:103D6000EA3008F0F2C2F0E0E854F14E0C94D823A7
:103D700030219D21A521A121A3219F21A5219921A8
:103D800095219B21843018F5882309F4A5CE813034
:103D900009F43CC08FE08E9DF0018F9DF00D112441
:103DA000E00FF11FE089EF70E150EA3008F0F8C34E
:103DB000F0E0E352F14E0C94D823B921C822D0226E
:103DC000CC22CE22CA22D022C422C022C6228530D2
:103DD00009F4BCCF08F499CF863009F44ECEDACF7F
:103DE00020E090CEA90166E0569547956A95E1F7E7
:103DF0004170419540934E01220F232F221F330B18
:103E000031952170219520934F01F1CE8FE08E9D49
:103E1000F0018F9DF00D1124E00FF11F8089E82F34
:103E2000EF70E150EA3008F028C1F0E0E65EF04EB5
:103E30000C94D823241F35203D2039203B203720E7
:103E40003D2031202D203320109260012FE02E9D47
:103E5000F0012F9DF00D1124E00FF11F218932890F
:103E60001901B1E02B223324E2E0F0E020FD02C092
:103E7000F0E0E0E0B90162707727A4E0B0E021FD56
:103E800002C0B0E0A0E05901B694A794B694A794FC
:103E90004A2D41704987AF01B9844B294A2B5B2BCE
:103EA000F901E870FF27A8E0B0E023FD02C0B0E010
:103EB000A0E04A2B5B2B5901A0E1AA22BB24A0E180
:103EC000B0E024FD02C0B0E0A0E04A2B5B2B49012A
:103ED000B0E28B229924A0E2B0E025FD02C0B0E060
:103EE000A0E04A2B5B2B3901A0E46A227724A0E4EE
:103EF000B0E026FD02C0B0E0A0E0A42BB52B290164
:103F000040E84422552440E850E027FD02C050E03C
:103F100040E0A42BB52BA9014427517030FF02C00B
:103F200040E051E0A42BB52BA9014427527031FF8A
:103F300002C040E052E0A42BB52BA90144275470E5
:103F400032FF02C040E054E0A42BB52BA901442766
:103F5000587033FF02C040E058E0A42BB52BA901F4
:103F60004427507134FF02C040E050E14A2B5B2BE4
:103F7000D901AA27B07235FF02C0A0E0B0E24A2BF7
:103F80005B2B50935F0140935E012FE02E9DD0018B
:103F90002F9DB00D1124A00FB11F56962C9156974E
:103FA0002093610158962C915897209362015A965C
:103FB0002C915A97209363015C962C912093640175
:103FC000282F2870219520936501282F2470219592
:103FD00020936601282F217021952093670182701C
:103FE00081958093680181E0EF2B09F480E0819551
:103FF0008093690181E0672B09F480E081958093CB
:104000006A01219420926B014985419540936C018E
:1040100081E0AB2809F480E0819580936D0181E017
:10402000892809F480E0819580936E01F801EE0DF6
:10403000FF1D86A5882319F18FE08E9DF0018F9DCD
:10404000F00D1124E00FF11F858D80936F01868D97
:10405000809370012EE531E0CCCD21E0209360010A
:10406000F5CE22E0FBCF23E0F9CF24E0F7CF25E027
:10407000F5CF26E0F3CF27E0F1CF28E0EFCF81E0C6
:10408000672809F480E0819580936F0181E04528DD
:1040900009F480E08195DCCF109273018FE08E9D52
:1040A000F0018F9DF00D1124E00FF11F218932895D
:1040B0008091710120FB81F9A9015695479540FB3C
:1040C00082F9B9017695679576956795A901B3E070
:1040D00056954795BA95E1F760FB80F940FB83F967
:1040E000A90164E0569547956A95E1F740FB84F98C
:1040F000A90175E0569547957A95E1F740FB85F95A
:10410000A901A6E056954795AA95E1F740FB86F9E7
:10411000A901440F452F441F550B519540FB87F9CA
:10412000809371018091720130FB80F931FB81F93C
:1041300032FB82F933FB83F934FB84F980937201FB
:10414000868980937401208D20937501228D2093A0
:104150007601248D209377018093780121E731E067
:1041600048CD81E08093730199CF82E0FBCF83E05B
:10417000F9CF84E0F7CF85E0F5CF86E0F3CF87E095
:10418000F1CF88E0EFCF10927F018FE08E9DF0019C
:104190008F9DF00D1124E00FF11F2189328980914C
:1041A0007A0120FB86F9A9015695479540FB85F9D0
:1041B000A901569547955695479540FB87F9A90162
:1041C00063E0569547956A95E1F740FB84F9A901AC
:1041D00074E0569547957A95E1F740FB82F9A9017D
:1041E000A5E056954795AA95E1F740FB83F9B901FB
:1041F000B6E076956795BA95E1F7A901440F452F8A
:10420000441F550B519560FB80F940FB81F9809369
:104210007A018091790130FB82F931FB83F932FB1D
:1042200080F933FB81F980937901858980937E0140
:10423000838980937D0129E731E0DBCC81E08093A5
:104240007F01A3CF82E0FBCF83E0F9CF84E0F7CFFB
:1042500085E0F5CF86E0F3CF87E0F1CF88E0EFCFC0
:1042600010928301F801418952899A012170332704
:1042700062E070E041FD02C070E060E0262B372B69
:1042800060E170E042FD02C070E060E0262B372B59
:1042900068E070E043FD02C070E060E0262B372B41
:1042A00060E470E044FD02C070E060E0262B372B34
:1042B00060E870E045FD02C070E060E0262B372B1F
:1042C00060E071E046FD02C070E060E0262B372B15
:1042D00060E072E047FD02C070E060E0262B372B03
:1042E00060E074E050FD02C070E060E0262B372BE8
:1042F00060E078E051FD02C070E060E0262B372BD3
:1043000060E070E252FD02C070E060E0262B372BC7
:1043100053FF1DC040E050E4242B352B3093820125
:104320002093810120E831E064CC81E08093830117
:1043300099CF82E0FBCF83E0F9CF84E0F7CF85E02F
:10434000F5CF86E0F3CF87E0F1CF88E0EFCF50E004
:1043500040E0E2CF82E080938C01D80153968C91AB
:1043600080938D0110928E012CE831E042CC20E048
:1043700098CB109287018FE08E9DF0018F9DF00DFC
:104380001124E00FF11F41895289BA01617077272A
:1043900022E030E041FD02C030E020E0262B372B48
:1043A00060E170E042FD02C070E060E0262B372B38
:1043B00068E070E043FD02C070E060E0262B372B20
:1043C00060E470E044FD02C070E060E0262B372B13
:1043D00060E870E045FD02C070E060E0262B372BFE
:1043E00060E071E046FD02C070E060E0262B372BF4
:1043F00060E072E047FD02C070E060E0262B372BE2
:1044000060E074E050FD02C070E060E0262B372BC6
:1044100060E078E051FD02C070E060E0262B372BB1
:1044200060E070E252FD02C070E060E0262B372BA6
:1044300060E070E453FD02C070E060E0262B372B93
:1044400054FFB0C040E050E1242B352B8FE08E9D0F
:10445000F0018F9DF00D1124E00FF11F6389748925
:1044600044E050E060FD02C050E040E0242B352BDA
:1044700040E250E061FD02C050E040E0242B352BCB
:10448000032E000C440B612CE0E87E2E812C62FD93
:1044900003C0612C712C812C262937294829612CD5
:1044A000712C8824839463FD03C0612C712C812CB2
:1044B000262937294829612C712C82E0882E64FD39
:1044C00003C0612C712C812C262937294829612CA5
:1044D000712CB4E08B2E65FD03C0612C712C812CF6
:1044E000262937294829612C712CA8E08A2E66FDDF
:1044F00003C0612C712C812C262937294829612C75
:10450000712CF0E18F2E67FD03C0612C712C812C82
:10451000262937294829612C712CE0E28E2E70FD66
:1045200003C0612C712C812C262937294829612C44
:10453000712C50E4852E71FD03C0612C712C812CEF
:1045400026293729482920938401309385014093F7
:1045500086018FE08E9DF0018F9DF00D1124E00FFC
:10456000F11F868980938801808D80938901828DD7
:1045700080938A01848D80938B0124E831E039CBCC
:1045800081E080938701F7CE82E0FBCF83E0F9CF13
:1045900084E0F7CF85E0F5CF86E0F3CF87E0F1CF79
:1045A00088E0EFCF50E040E04FCF0E9460138111D0
:1045B00057CB50E040E067E070E0CE0101960E94EA
:1045C000CD174ECB81E08D0D8F7069CB8091E800C7
:1045D00085FD0FC08091E8008E778093E8000E94EF
:1045E000F8130E94601381116CCBE114F10471F790
:1045F00068CBF50181915F018093F100F1E0EF1A42
:10460000F108F3CF80916906882379F0109269064A
:1046100061E089E796E00E94A10B60E089E796E0FF
:104620000E94AD0B80E50E943F0D0E94E7034B0105
:104630005C01CC2039F080918F01811135C081E07F
:104640000E94140F80918F018823B9F08091650634
:1046500090916606A0916706B0916806881A990A3B
:10466000AA0ABB0A20EC821624ED920621E0A206DB
:10467000B10418F080E00E94140F4E990DC06CE256
:1046800071E080E090E00E94B50380918F0181117C
:1046900014C081E00E94140F80E090E0892B09F49F
:1046A0005DC90E9400005AC9809265069092660614
:1046B000A0926706B0926806C5CFF09064060E948B
:1046C000E2060E94FB0E10E000E062E070E080E095
:1046D00090E00E94B5034E990CC06CE271E080E05E
:1046E00090E00E94B5030E94E2060E94FB0E10E0DB
:1046F00000E00F5F1F4F003D47E0140731F7609166
:104700006406F61203C00E94FB0EC6CF90E080E064
:104710000E94CA2389E796E00E94790D85E296E01F
:104720000E94100D88E19EE00FB6F894A895809342
:1047300060000FBE90936000FFCF80E00C94DC1B04
:1047400001110C94E41B0C94EF1BE9E7F6E01382D3
:104750001282128614861386158681E0868789E97F
:1047600093E091838083EAECF5E08EE78083118209
:104770000895FB01DC0102C005900D9241505040AC
:10478000D8F70895F999FECF92BD81BDF89A99277F
:1047900080B50895262FF999FECF1FBA92BD81BD2D
:1047A00020BD0FB6F894FA9AF99A0FBE01960895B3
:1047B000EE0FFF1F0590F491E02D09940F931F93C6
:1047C000CF93DF938230910510F482E090E0E09186
:1047D0008D06F0918E0630E020E0B0E0A0E030974A
:1047E00099F42115310509F44AC0281B390B2430EE
:1047F0003105D8F58A819B816115710589F1FB012D
:1048000093838283FE0111C0408151810281138113
:1048100048175907E0F04817590799F4109761F0C5
:1048200012960C93129713961C933296CF01DF9138
:10483000CF911F910F91089500938D0610938E06CE
:10484000F4CF2115310551F04217530738F0A90173
:10485000DB019A01BD01DF01F801C1CFEF01F9CF02
:1048600090938E0680938D06CDCFFE01E20FF31F4D
:10487000819391932250310939832883D7CF209196
:104880008B0630918C06232B41F4209195013091B9
:10489000960130938C0620938B06209193013091E2
:1048A00094012115310541F42DB73EB74091970190
:1048B00050919801241B350BE0918B06F0918C06EA
:1048C000E217F307A0F42E1B3F0B2817390778F0E7
:1048D000AC014E5F5F4F2417350748F04E0F5F1F46
:1048E00050938C0640938B06819391939FCFF0E079
:1048F000E0E09CCFCF93DF930097E9F0FC01329783
:1049000013821282A0918D06B0918E06ED0130E0E7
:1049100020E01097A1F420813181820F931F209114
:104920008B0630918C062817390709F061C0F09387
:104930008C06E0938B06DF91CF910895EA01CE17A4
:10494000DF07E8F54A815B819E0141155105B1F70A
:10495000E901FB83EA8349915991C40FD51FEC17F4
:10496000FD0761F4808191810296840F951FE90112
:1049700099838883828193819B838A83F0E0E0E03E
:1049800012968D919C9113970097B9F52D913C91BA
:104990001197CD010296820F931F20918B063091C3
:1049A0008C062817390739F6309751F510928E0684
:1049B00010928D06B0938C06A0938B06BCCFD38348
:1049C000C28340815181840F951FC817D90761F4B4
:1049D0004E5F5F4F88819981480F591F51834083F3
:1049E0008A819B81938382832115310509F0B0CFA1
:1049F000F0938E06E0938D069ECFFD01DC01C0CFC3
:104A000013821282D7CF81E090E0F8940C94252590
:104A1000FB01DC0104C08D910190801921F441500B
:104A20005040C8F7881B990B0895FB01DC0102C0B8
:104A300001900D9241505040D8F70895DC0101C01B
:0E4A40006D9341505040E0F70895F894FFCF79
:104A4E0021260107000000005265666C6578204142
:104A5E006461707400504F4B4B454E20434F4E5483
:104A6E00524F4C4C4552004D69535465724164642B
:104A7E006F6E7300484F524920434F2E2C4C5444B6
:104A8E002E008080808080808080001400000000D6
:104A9E00FF7FFF7FFF7FFF7F000000000000000010
:104AAE0008808080800000000000000000000000F0
:104ABE000000000880808080800000000000000858
:104ACE0001000008000000088080808002000001C4
:104ADE0001C80000008F0680000000000000FF7F6C
:104AEE00FF7FFF7FFF7F00000000000000FF7FFFC1
:104AFE007FFF7FFF7F00000100000002187B7D0218
:104B0E0000000003183B3C04000000031E3B3C0861
:104B1E00000000021E7B7D100000000106222320F3
:104B2E00000000020C282940000000030624258006
:104B3E000000000200262700010000000C3E3F008E
:104B4E0002000000363E3F0004000000003E3F0021
:104B5E00080000002A3E3F0010000001303B3C00E0
:104B6E0020000002363B3C0040000003303B3C007E
:104B7E00800000022A3B3C0100000000127B7D08F1
:104B8E00000000001E7B7D0020000001063B3C0063
:104B9E0040000001123B3C00800000011E3B3C1017
:104BAE00000000012A3B3C0010000002003B3C00CC
:104BBE00080000020C3B3C0004000002183B3C00C5
:104BCE0002000002243B3C0001000002303B3C315D
:104BDE002E30004750323034302D43452028442D9E
:104BEE00496E70757429004F70656E205374696339
:104BFE006B20436F6D6D756E697479000904312EEB
:104C0E003000504F4B4B454E20434F4E54524F4C5D
:104C1E004C455200484F524920434F2E2C4C544481
:104C2E002E000904312E300058496E7075742053D1
:104C3E0054414E444152442047414D455041440059
:104C4E004D6963726F736F66740009040902310057
:104C5E00010100A0FA0904000002FF5D010011210C
:104C6E000001012581140000000013020800000756
:104C7E0005810320000107050203200004595B464D
:104C8E0037BC02A70293028F02E202D402C202BE16
:104C9E00020202846A96000A030003E802E402019B
:104CAE004300005A5A5A5A5A014200FFFF0143006C
:104CBE00015A5A5A5A5A0145005A5A5A5A5A5A01C0
:104CCE004D000001FFFFFFFF014400010300000043
:104CDE0000003C427F00000000D90BF303FE12ECF3
:104CEE0006520B000000002D07DA06CB06751800E1
:104CFE000000002107D206CB066218000000005A01
:104D0E0009280FE805D304F006ED06EC0652656699
:104D1E006C6578505347756E005265666C657850B9
:104D2E0053576865656C00525A4D50734E65476314
:104D3E006F6E004D69535465722D4131204A6F6775
:104D4E00436F6E00525A4D50534A6F67436F6E0059
:104D5E00525A4D5073445331000D0A0030313233E4
:104D6E00343536373839414243444546005345546D
:044D7E00555000008C
:00000001FF
