:100000000C9463030C948B030C948B030C948B0360
:100010000C948B030C948B030C948B030C948B0328
:100020000C948B030C948B030C9432270C948B034D
:100030000C948B030C948B030C948B030C948B0308
:100040000C948B030C948B030C948B030C948B03F8
:100050000C948B030C948B030C948B030C94E82668
:100060000C948B030C948B030C948B030C948B03D8
:100070000C948B030C948B030C948B030C948B03C8
:100080000C948B030C948B030C948B030C948B03B8
:100090000C948B030C948B030C948B030C948B03A8
:1000A0000C948B030C948B030C948B03AED580A81B
:1000B0003FD300408D142002A1C8DA12817FD9F10C
:1000C000DB40A4A6AF1201000200000040D0167E63
:1000D0001200010102030112010002000000400DA4
:1000E0000F920000010102030112010002FFFFFF55
:1000F000405E048E021401010203010904000001A4
:1001000003000000092111010001224600070581BA
:10011000034000010902220001010080320902228D
:100120000001010080320904000001030000000901
:10013000211101000122510007058103400001093E
:1001400004000001030000000921110100012256F2
:100150000007058103400001090229000101008018
:10016000FA09211101000122460005010905A1013A
:10017000150025013500450175019518050919017E
:100180002918810205012507463B01750495016583
:10019000140939814265009501810126FF0046FF5F
:1001A000000930093109350936750895048102C006
:1001B00005010905A10105091901290315002501FA
:1001C0007501950355006500810275019505810350
:1001D00005010901150026FF0375109502A100090C
:1001E0003009318102C0C005010905A1018501A1C5
:1001F0000005091901290C150025019510750181CB
:100200000205010939150025073500463B0175082F
:10021000950165148142C0C005010902A101850252
:100220000901A100093009311581257F3581457FFC
:10023000950275088106C0C005010904A101A1004D
:100240000509190129101500250195107501810274
:1002500005010901A100093009311580257F9502AA
:1002600075088102C009371580257F9501750881C1
:10027000060938150026FF00950175088102093925
:10028000150025073500463B017508950165148169
:1002900042C0C005010905A1011500250135004531
:1002A000017501950E05091901290E81029502813A
:1002B0000105012507463B017504950165140939BF
:1002C000814265009501810126FF0046FF0009304B
:1002D000093275089502810205027508950315001B
:1002E00026FF0009BB09C509C88102C0050109052F
:1002F000A10115002501350045017501951005097D
:1003000019012910810205012507463B0175049555
:100310000165140939814265009501810126FF00BC
:1003200046FF000930093109320935750895048105
:10033000020600FF092009210922092309240925B1
:100340000926092709280929092A092B950C810260
:100350000A21269508B102C05341542D57484545FE
:100360004C005341542D33440053415455524E00D8
:1003700047454E455349532D360047454E45534951
:10038000532D33004D554C54492D54415000564285
:100390004F59004E545400534E4553004E455300A0
:1003A0004D554C54492D54415000504144004E2F5E
:1003B00041004E4F4E450053574954434800455263
:1003C000524F52004849440058494E505554004736
:1003D000454E455349532B53415455524E004E36CA
:1003E00034204D4F52452052414E4745004E455313
:1003F0002B534E45532B56424F590000000000230B
:1004000000260029002C002F0000000000250028F5
:10041000002B002E00310000000000240027002ADD
:10042000002D003000040404040403040502020249
:10043000020403020202020606060606060404027D
:100440000202040404080201104080401020408091
:10045000408008020401804020100201108010201A
:1004600040402000030C0F30333C3FC0C3CCCFF0E2
:10047000F3FCFF4445564943452057494C4C205214
:10048000455354415254004D4F44453A2000534186
:10049000564544210A00484F4C443A2020534156C7
:1004A000450A0050524553533A204348414E474570
:1004B000004F5554505554204D4F44450A00524565
:1004C000464C455800000005072061000000000070
:1004D00000005F00006070787060605048506003FA
:1004E000070F07030305090503081C3E7F7F081C4F
:1004F00022417F7F7F3E1C087F41221C08082A1C66
:100500002A0808083E0808005030000008080808BB
:1005100008006060000020100804023E5149453E7A
:1005200000427F400042615149462141454B31180C
:1005300014127F1027454545393C4A49493001711D
:100540000905033649494936064949291E00363608
:1005500000003C7E7E7E3C3C4242423C141414141B
:1005600014F0F0F0F0F0F0909090F0324979413EC4
:100570007E1111117E7F494949363E414141227F1A
:100580004141221C7F494949417F090901013E41FE
:100590004151327F0808087F00417F4100204041DF
:1005A0003F017F081422417F404040407F02040207
:1005B0007F7F0408107F3E4141413E7F09090906C3
:1005C0003E4151215E7F0919294646494949310179
:1005D000017F01013F4040403F1F2040201F7F20FE
:1005E00018207F63140814630304780403615149DD
:1005F000454300007F4141020408102041417F0033
:1006000000383C1E0F074040404040382412090784
:1006100020545454787F4844443838444444203863
:100620004444487F3854545418087E090102081481
:1006300054543C7F0804047800447D40002040442A
:100640003D00007F10284400417F40007C041804D6
:10065000787C0804047838444444387C1414140822
:10066000081414187C7C08040408485454542004CA
:100670003F4440203C4040207C1C2040201C3C400B
:1006800030403C44281028440C5050503C446454A2
:100690004C44E0E0E0E0E000007F0000E0A0A0A02B
:1006A000E008082A1C08081C2A0808000609090690
:1006B000AC00198040005245424F4F54494E472EDE
:1006C0002E2E0000583211241FBECFEFDAE0DEBF1D
:1006D000CDBF15E0A0E0B1E0E0E6F8E602C005908D
:1006E0000D92AE33B107D9F727E0AEE3B5E001C014
:1006F0001D92A939B207E1F713E0C3E6D3E004C0C5
:100700002197FE010E94E132C236D107C9F70E944B
:1007100014280C942E340C940000CF93DF93EC013A
:100720008EEF94E0998388831A8280E093E09C8323
:100730008B8380E09CE09E838D831F82188681E0FE
:1007400089878EE1EFE9F1E0DE01509601900D928C
:100750008A95E1F71FA61EA619AA18AA1BAA1AAA0B
:10076000FE01F49688E0DF011D928A95E9F71CAE40
:100770001DAE1FAE1EAE3C961182108232968FEFD8
:100780009FE7918380833296918380833296918311
:10079000808332969183808332961082C55BDF4FCF
:1007A0001882DF91CF910895FC01611109C0818108
:1007B0009281807F480F592F511D528341830895A4
:1007C000613051F4818192818F7020E1429FA001BC
:1007D0001124480F591FF1CF623039F48181928181
:1007E000907F50E0542F4427F4CF633049F4818147
:1007F00092819F7050E0542F44275295507FE9CF4B
:10080000643011F443830895653011F444830895EE
:10081000663011F445830895673009F446830895DE
:100820003FB7F89480917F0790918007A09181074E
:10083000B091820726B5A89B05C02F3F19F00196FD
:10084000A11DB11D3FBFBA2FA92F982F8827BC012A
:10085000CD01620F711D811D911D42E0660F771F52
:10086000881F991F4A95D1F708958F929F92AF9252
:10087000BF92CF92DF92EF92FF924B015C010E94F8
:1008800010046B017C010E9410046C197D098E0913
:100890009F09683E734081059105A8F321E0821A03
:1008A0009108A108B10888EEC80E83E0D81EE11CAB
:1008B000F11C81149104A104B10429F7FF90EF9079
:1008C000DF90CF90BF90AF909F908F900895AF92A0
:1008D000BF92CF92DF92EF92FF920F931F93CF932D
:1008E000DF936C017B018B01040F151FEB015E018F
:1008F000AE18BF08C017D10759F06991D601ED9124
:10090000FC910190F081E02DC6010995892B79F7C2
:10091000C501DF91CF911F910F91FF90EF90DF9074
:10092000CF90BF90AF900895CF93DF93EC018A856D
:10093000882329F081508A87DF91CF9108959C8187
:100940008E819817C8F78D856827E881F981008422
:10095000F185E02D42E0CE0109958C818F5F8C837B
:10096000EBCFEF920F931F93F901DA012C913E2DFB
:10097000309532233C9330813E293083FC01D801ED
:1009800098E080E030E020E04C914E2189F02A95FB
:10099000D9F720E04C914E2159F02A95D9F720E85B
:1009A0004C914E2129F02A95D9F73A9561F717C055
:1009B00047E04A95F1F7000031E0550F4C914E2188
:1009C00009F051609A9529F45193839598E068173E
:1009D00031F020E84C914E2111F72A95D9F71F915B
:1009E0000F91EF9008950F931F93F9012081202B11
:1009F0002083DA012C91202B2C9320814081202B05
:100A000030E010E00095109550E004231523DC0140
:100A10005D9148E00083550F40F474E07A95F1F75A
:100A200020837AE07A95F1F705C07EE07A95F1F7B8
:100A3000000020834A9529F073E07A95F1F70000D1
:100A4000E9CF6A9529F071E07A95F1F70000E0CFDF
:100A500072E07A95F1F700000000008374E07A9567
:100A6000F1F70000000020831F910F9108957F92FD
:100A70008F929F92AF92BF92CF92DF92EF92FF92AE
:100A80000F931F93CF93DF93DB01642F5901F02E57
:100A9000282F30E0F901EC5BFB4FE4902B5D3B4FDE
:100AA000F901249130E0220F331FF901E95EFB4F79
:100AB000C591D491F901E75FFB4FC590D490F9013E
:100AC000E550FC4F859094907FB6F8940E2D9601DA
:100AD000AE01CD010E94F30484019601AE016F2D99
:100AE000C5010E94B1047FBEDF91CF911F910F918C
:100AF000FF90EF90DF90CF90BF90AF909F908F903E
:100B00007F900895CF93DF93FC0187812FEF3FE71C
:100B1000813011F420E830E8462F50E0DF018FE00B
:100B2000689FA00DB11D112450969C916185892F5D
:100B30008370823021F1833029F0813021F5809358
:100B4000DA061BC0611111C081E08093DA069C7047
:100B5000983009F457C09C30D1F0943009F055C05A
:100B6000846093E09093D9061CC0623061F4809158
:100B7000DA06882341F0813021F081E0E8CF8093CC
:100B8000DA0682E0E4CF1092DA0680E0E0CF62304D
:100B9000E1F59091D9069923C1F1933089F194E060
:100BA000892B9FE0949FD001959FB00D1124AE0F2B
:100BB000BF1F50968C9350978085EF01C40FD51FAF
:100BC000813031F1823009F46CC088A9811108C0EC
:100BD00056963C932E93559758963C932E93579741
:100BE0008AA9811155C06FE0649FC001659F900D77
:100BF0001124E80FF91F328F218F348F238F48C0C3
:100C000098E0CECF886094E0ADCF1092D906C9CFDE
:100C10008AA9811108C05A963C932E9359975C96E5
:100C20003C932E935B978FE0849FD001859FB00DFE
:100C30001124AE0FBF1F50968C918C70843071F1CF
:100C4000883049F58FEF9FEF2FE0249FD001259F3B
:100C5000B00D1124AE0FBF1F56969C938E935597DF
:100C600050968C91837030E020E0813031F02FEF8E
:100C70003FEF823011F02FEF3FE76FE0649FC0013C
:100C8000659F900D1124E80FF91F308F278B108A74
:100C9000DF91CF9108958FEF9FE7D6CF90E080E06E
:100CA000D3CF88A9811108C056963C932E935597AF
:100CB00058963C932E9357978FE0849FD001859F41
:100CC000B00D1124AE0FBF1F50968C918C708430E4
:100CD00059F1883031F58FEF9FEF2FE0249FD0013D
:100CE000259FB00D1124AE0FBF1F5A969C938E9373
:100CF000599750968C91837030E020E0813031F02C
:100D00002FEF3FEF823011F02FEF3FE76FE0649F4E
:100D1000C001659F900D1124E80FF91F348F238FB8
:100D2000B6CF8FEF9FE7D9CF90E080E0D6CFCF93BB
:100D3000DF93DC0113962D913C911497C62FD0E0E0
:100D4000FC018FE0689FE00DF11D1124618972891B
:100D5000C901862397232817390709F04BC08089DA
:100D60008F70823071F128F48130C9F190E080E019
:100D700021C0843089F08830C9F782E018968C93BE
:100D8000108A209530958189928928233923328BC6
:100D9000218B84E090E00EC081E018968C93108A3D
:100DA000209530958189928928233923328B218B94
:100DB00082E090E09093D8068093D706DF91CF91A0
:100DC000089518961C92108A2095309581899289F1
:100DD00028233923328B218B81E090E0EBCF108ADE
:100DE00020953095262337233061328B218B88E084
:100DF00090E0E0CF15964D915C9116976423752392
:100E00004617570709F0B2CF80898F70823009F4F6
:100E100040C088F4813009F0A9CF19961C92108A3D
:100E2000409550958189928948235923528B418B53
:100E300080E290E0BFCF8430D9F1883009F096CFBE
:100E40008091D7069091D8068115924041F01B966B
:100E50008C911B9791E089271B968C931B972FE011
:100E60002C9FC0012D9F900D1124A80FB91F5096E3
:100E70001C9250974095509551968D919C91529708
:100E80004823592352965C934E93519780E092E009
:100E900091CF81E019968C93108A40955095818965
:100EA000928948235923528B418B80E490E082CF72
:100EB00082E019968C93108A409550958189928989
:100EC00048235923528B418B80E890E073CF93B134
:100ED0003FB12FB14FB196959170990F990F990F1E
:100EE000331F3327331F330F330F930F45FB332744
:100EF00030F9930F26FB222720F9220F920F813021
:100F000021F01B9990611E999062892F089549B133
:100F10002CB133B153B126FB992790F9990F990F52
:100F2000242F221F2227221F220F220F220F920F6F
:100F300055FB222720F9920F34FB222720F9220F9C
:100F4000920F813021F03699906137999062892F04
:100F50000895982F8F3479F0823069F0863169F0E6
:100F6000833169F0803E69F0813E69F081E09F3F06
:100F700059F480E0089584E0089585E0089586E0BE
:100F8000089582E0089583E0089584E98093BC0089
:100F900085E69091BC0094FF03C08150D1F708957D
:100FA00081E00895DF92EF92FF920F931F93CF930A
:100FB000DF93FC018681838787819085958784876D
:100FC0008185928597878687D48014822C9A8BE2BC
:100FD00090E00197F1F72C9883E190E00197F1F709
:100FE000208930E0326750E040E090E080E0C3E1EB
:100FF000EC2EF12C37FF71C05C9A220F331F6CB1BD
:1010000066FB002700F910E0B801042E02C0660F4D
:10101000771F0A94E2F7862B972B2D98E7012197EB
:10102000F1F72D9AE7012197F1F74F5F5F4F4031BC
:10103000510501F75C98492F42954F7051E04D30B2
:1010400009F450E170E060E030E020E0A3E1EA2E36
:10105000F12C1CB116FBAA27A0F9B0E08D01062ED9
:1010600002C0000F111F0A94E2F7202B312B2D989C
:10107000E7012197F1F72D9AE7012197F1F76F5FCB
:101080007F4F651730F380959095209530954F30C0
:1010900029F42E3FDFEF3D0709F444C0548161E09D
:1010A000650F648361E070E0511102C070E060E0A0
:1010B000411115C0A92FBB27AF70BB271F9779F42B
:1010C0004AE0469FD001479FB00D1124AE0FBF1FCD
:1010D0004FE016964C93169715C05C988ECF542F00
:1010E000509552FF47C02AE0269FD001279FB00DA0
:1010F0001124AE0FBF1F24E016962C931697537041
:10110000252F30E01A963C932E9319972AE0269FBC
:10111000D001279FB00D1124AE0FBF1F18969C93CE
:101120008E93179784818D15E8F44AE09FEF21E0B4
:1011300030E0811102C030E020E0429FD001439FA7
:10114000B00D1124AE0FBF1F16969C9316971896DC
:101150001C921E9217971A961C921E9219978F5FD7
:10116000D812E5CFDF91CF911F910F91FF90EF90B3
:10117000DF9008955AE0569FD001579FB00D11247B
:10118000AE0FBF1F5FE04527A4CF80916D078F5F33
:10119000843018F480936D07089581E0FBCF0895A3
:1011A000CF93DF93EC0165E070E080E090E00E9477
:1011B000350482E08093960181E088AB89AB62E3DD
:1011C00070E080E090E0DF91CF910C94350487E0EF
:1011D00091E0089586E095E008958A549F4FFC01C0
:1011E0008081811103C081E091E0089582E091E067
:1011F00008958A549F4FFC018081811103C085E1CD
:1012000095E008958DE095E00895FC01908191119D
:1012100006C083819481019699F080E008959F3003
:1012200049F4228130E02F7033272F30310561F4EB
:1012300082E00895923031F0943031F485E00895E1
:1012400083E0089584E0089581E00895AF92BF920D
:10125000CF92DF92EF92FF920F931F93CF93DF9382
:10126000FC01E756FF4F1082249A2C98259A2D9A5C
:101270006E987698769A549A5C98DC01A655BF4F82
:101280001C92869A8E98859A8D9A87988F988F9AB5
:10129000229A2A98A3E2B0E01197F1F72081211158
:1012A0003EC0EC0182E0809396018E010C561F4FE8
:1012B000C8010E94D207FE01E856FF4FB080D12C32
:1012C000780186E0E80EF11CCA54DF4F3AE0A32E05
:1012D000CC24CA94DB1461F1D11008C0C7010E946C
:1012E000050991E0853009F090E0988381E090E075
:1012F000D11002C090E080E0A89EF001A99EF00D00
:101300001124E00FF11FC682108617821286118603
:10131000C3861586148617861686D394DBCF82E0A3
:101320008093960188EE93E09093980180939701C3
:1013300080919701909198018230910538F0880F43
:10134000991F880F991F05970197F1F7DF91CF91AA
:101350001F910F91FF90EF90DF90CF90BF90AF90D3
:1013600008958CE091E008958DE195E00895DC0109
:1013700017961C92179718961C92189719961C92FC
:1013800019978AE5EDEBF1E01A9601900D928A9596
:10139000E1F70895FC0180818783818192819187A3
:1013A0008087838182878481838785818487868102
:1013B000858708958F929F92AF92BF92CF92DF92CE
:1013C000EF92FF920F931F93CF93DF937C01549A78
:1013D0005C9A25982D982D9A24982C982C9A6E9882
:1013E0007698769A57985F985F9A3E984698469A6C
:1013F0003F984798479AEC01CC56DF4F18868C01EE
:1014000002561F4F5C0188EFA80EB11CCC24CA9471
:1014100088248A94982C30E8D32EF801C08216864E
:1014200092828182D382D48215821682C8010E9460
:10143000CA09015F1F4F0A151B0579F7229A2A9ADC
:1014400085988D988D9A86988E988E9A87988F9881
:101450008F9A21982998299A23982B982B9A269825
:101460002E982E9AF801108687010E5F1E4FF4EA1F
:10147000EF1AFEEFFF0ACC24CA94AA24AA94BA2C2D
:1014800090E8D92EF801C0821686B282A182D3825A
:10149000D48215821682C8010E94CA09015F1F4FBB
:1014A000E016F10679F762E370E080E090E00E94D8
:1014B000350480ED97E02BE030E0369940C0F9012B
:1014C0003197F1F70197C9F782E08093960162E3C3
:1014D00070E080E090E0DF91CF911F910F91FF903D
:1014E000EF90DF90CF90BF90AF909F908F900C9433
:1014F0003504213009F06AC0813009F067C0998550
:10150000913019F089873F9A479AE1E060E0F1E075
:101510004BE050E04798362F3F2780ED97E026B10B
:1015200026FB222720F932135BC0DA011197F1F76D
:101530000197A9F7C9CFE82F61E0479AECCF39B1FD
:101540008CB193B143B186FB222720F9220F220FE1
:10155000832F881F8827881F880F880F880F280FE0
:1015600045FB882780F9280F94FB882780F9880F8E
:10157000280F5C988BE090E00197F1F749B19CB19E
:1015800033B153B196FB882780F9880F880F942FC9
:10159000991F9927991F990F990F990F890F55FB3B
:1015A000992790F9890F34FB992790F9990F890FA2
:1015B000233009F09ECF8F3049F48985813021F0A6
:1015C00081E089873F9A479A84E088875C9A898579
:1015D000813009F4479A8BE090E00197F1F774CFDE
:1015E000CA010197F1F739B19CB123B173B196FBF0
:1015F000882780F9880F880F932F991F9927991FA3
:10160000990F990F990F890F75FB992790F9890FF9
:1016100024FB992790F9990F890F662309F48BCF42
:10162000613009F089CFE43089F6813079F686E0BF
:10163000CCCFFC016093BC002FEF3FEF8091BC004A
:1016400087FF06C09091B900987F908381E008954C
:101650002150310999F780E00895CF93DF93EC0191
:101660006093BB0064E80E94190B882329F081E095
:101670009881983209F080E0DF91CF910895DF9250
:10168000EF92FF920F931F93CF93DF93EC01D62E2F
:10169000F42E8989882329F0411103C00E94C507CF
:1016A000198A8E01015F1F4F8989811119C0E8884D
:1016B00064EAC8010E94190B882361F08F85883085
:1016C00011F0803139F4EE0CE092BB0064E8C801FF
:1016D0000E94190B60E0F11060E4C8010E942D0B1C
:1016E0006D2DC8010E942D0B82E0F8120BC0898974
:1016F0008F5F898BDF91CF911F910F91FF90EF90BA
:10170000DF9008950E94C507198AF4CFDC01ED919E
:10171000FC910084F185E02D40E00994FC012781D3
:10172000269526952695621720F46583606B0C94A8
:10173000860B08950F931F93CF93FC0126816217A8
:1017400098F4C62F8C0164836085C60F6C2F6F7070
:101750000E94860B6C2F62956F706061C801CF91FB
:101760001F910F910C94860BCF911F910F910895AB
:101770001F93CF93DF93EC01142F0E949A0B612FDC
:10178000CE01DF91CF911F910C948E0B2F923F923F
:101790004F925F926F927F928F929F92AF92BF9281
:1017A000CF92DF92EF92FF920F931F93CF93DF932D
:1017B00000D000D000D0CDB7DEB7FC012385348542
:1017C0002115310509F416C19E838D83F9013296E6
:1017D000649031964491E42EF12CF7E0EF0EF11C69
:1017E00053E0F594E7945A95E1F7E982F9013496CC
:1017F00054913196E4916D30F1F460E00E949A0BBF
:1018000081E090E026960FB6F894DEBF0FBECDBF04
:10181000DF91CF911F910F91FF90EF90DF90CF90CC
:10182000BF90AF909F908F907F906F905F904F9000
:101830003F902F9008956A3081F460E08D819E8101
:101840000E949A0BED81FE81868565818E9D600DDB
:101850001124CF010E948E0BD3CF651708F4CAC0A4
:101860008E2F90E0FC01E50FF11D6E171F060CF0A6
:10187000C1C089010A5F1F4F651BED81FE81718523
:101880005685759F502D11245C83F90154912F5F6B
:101890003F4FF9012491352F2230310508F06AC0FD
:1018A0006E9CC0016F9C900D1124689FF001699F90
:1018B000F00D11240E0F1F1F512CED81FE81F481BC
:1018C000FA83ED81FE812580F285FB83862C912CA5
:1018D000AA24A394B12C312C8981381608F086C033
:1018E000412CED81FE818685481608F078C08B81F9
:1018F0008287311002C0442041F0ED81FE81458194
:101900004F5F6A81CF010E94B80BD12CC12CC61445
:1019100008F058C0F801EC0DFD1D7490552061F0E1
:10192000EA14FB0449F4E72DF0E0052C02C0F5951C
:10193000E7950A94E2F77E2EED81FE81868582305E
:1019400081F4442009F43AC072948FE07822E72DA4
:10195000F0E0ED59FB4F7490672D8D819E810E94C0
:101960009404672D8D819E810E9494048FEFC81A84
:10197000D80ACDCF477028E0522E541A411101C029
:10198000512CF801612C30E020E0661631F04491D2
:10199000240F311D63943196F8CF600E712E711CA7
:1019A000F3016490E29EF001E39EF00DF29EF00DD3
:1019B00011248E0F9F1F080F191F7FCFF72DFF7067
:1019C0007F2EC5CFD12CEC81DE1639F060E08D8101
:1019D0009E810E949404D394F6CF439482CF339493
:1019E000080D191DFFEFAF1ABF0A76CF622D8D814A
:1019F0009E8130CF90E080E005CF0F931F93CF936F
:101A0000DF938C01D0E0C0E0F801EC0FFD1F649182
:101A1000662341F083E897E00E94C60B892B11F002
:101A20002196F2CFCE01DF91CF911F910F910895B2
:101A3000811104C088EC93E00C94FD0C813019F402
:101A400087EB93E0F9CF8250853018F484EC93E073
:101A5000F3CF8EEB93E0F0CF682F83E897E00C9400
:101A6000C60BCF92DF92EF92FF920F931F93CF930B
:101A7000DF93EC01F62EC42ED22E1A868F81869526
:101A800086958695081710F00FEF080F1D2D01178A
:101A900080F0412F6F2DCE010E94B80BEF2CCE1499
:101AA00030F06D85CE010E949404E394F8CF1F5F5F
:101AB000EECF4D2D6F2DCE01DF91CF911F910F9164
:101AC000FF90EF90DF90CF900C94B80B0F93FC0138
:101AD000078106950695069501504681415020E004
:101AE00060E00E94310D0F9108954F925F926F92C6
:101AF0007F928F92AF92CF92EF92FF920F931F93AC
:101B0000CF93DF93CDB7DEB72701380194E0899FEB
:101B100080011124F801E454F94F80819181A28160
:101B2000B3818E219521A621B72131E0892B8A2B03
:101B30008B2B09F430E03C1103C088898823F1F035
:101B4000C11001C0A82C2D5F640F422F83E897E0DD
:101B50000E94B80B8A2D0E942C0DF801E454F94F15
:101B6000CC20D1F080819181A281B38184299529F3
:101B7000A629B72980839183A283B383DF91CF9174
:101B80001F910F91FF90EF90CF90AF908F907F902B
:101B90006F905F904F90089540945094609470942B
:101BA00080819181A281B38184219521A621B721D1
:101BB000E1CF6F927F928F929F92AF92BF92CF921E
:101BC000DF92EF92FF920F931F93CF93DF933C012D
:101BD000D62EC42FE62FF0E0EE0FFF1FEE54FB4F82
:101BE000B08007E023E041816B2D83E897E00E94FD
:101BF000310D47E06B2D83E897E00E94B80BC130B0
:101C000091F58AEA93E00E94FD0C81E08D15E0F0E9
:101C1000E301C256DF4F82EF681A8EEF780A9924EB
:101C20009394E880F9800A811B819F928F80AE8017
:101C3000C12C2C814D816B2D8D2D0E94750D289608
:101C40000F90C615D70569F7DF91CF911F910F91BE
:101C5000FF90EF90DF90CF90BF90AF909F908F90CC
:101C60007F906F90089582EB93E0DF91CF911F9169
:101C70000F91FF90EF90DF90CF90BF90AF909F902B
:101C80008F907F906F900C94FD0C6F927F928F924B
:101C90009F92AF92BF92CF92DF92EF92FF920F93FB
:101CA0001F93CF93DF93EC01D62E742EE62FF0E036
:101CB000EE0FFF1FEE54FB4FB08007E023E04181A1
:101CC0006B2D83E897E00E94310D47E06B2D83E890
:101CD00097E00E94B80B83E0781619F18715B8F0E9
:101CE000E2E08CE993E07E16F1F082EB93E0DF9185
:101CF000CF911F910F91FF90EF90DF90CF90BF9009
:101D0000AF909F908F907F906F900C94FD0CF4E0BB
:101D10007F1609F442C085E07812E7CF8EE893E0A1
:101D200002C087E993E00E94FD0CE2E0DE1631F18B
:101D3000FE01EA54FF4F8081882391F13E01F9ECC6
:101D40006F1AFEEF7F0AC955DE4F99249394F30171
:101D5000E080F180028113819F928780A680CC244D
:101D6000C394248145816B2D8D2D0E94750DF8E063
:101D70006F0E711C0F906C167D0649F7DF91CF91A5
:101D80001F910F91FF90EF90DF90CF90BF90AF9099
:101D90009F908F907F906F90089583E993E0C3CFD9
:101DA000C954DF4F612C9924939482E078121FC0AC
:101DB000E7E0E615B0F0F3E0F615C8F0FE01E05AF2
:101DC000FF4FE080F180028113819F928780A6807F
:101DD000CC24C394248145816B2D8D2D0E94750DDB
:101DE0000F90639428968CE06812DFCFC7CFFE0176
:101DF000E8CF3F924F925F926F927F928F929F9225
:101E0000AF92BF92CF92DF92EF92FF920F931F9308
:101E1000CF93DF93B62E942E2901302EEC01C45AB5
:101E2000DE4FD12C662E712C660C771CC3018E54AC
:101E30009B4F3C0192E0991215C0E8E0DE1218C0F9
:101E4000DF91CF911F910F91FF90EF90DF90CF9096
:101E5000BF90AF909F908F907F906F905F904F90CA
:101E60003F900895F3E09F1203C08CE0D816E9F08C
:101E7000E880F9800A811B812C814D81AE808F80A2
:101E800081E04114510449F0F201618172816E21B7
:101E90007F2181E0672B09F080E03F92C82EF3019B
:101EA00060818B2D0E94750D0F90D3942896FDE0D4
:101EB000DF12C0CFC5CFEF92FF920F931F93CF9346
:101EC000DF937C01D62FC42FE62FF0E0EE0FFF1F2B
:101ED000EE54FB4F108107E023E04181612F83E83E
:101EE00097E00E94310D47E0612F83E897E00E9460
:101EF000B80BC43069F180F4C23039F180E793E067
:101F0000C33081F082EB93E0DF91CF911F910F916D
:101F1000FF90EF900C94FD0CC530E9F088E593E05C
:101F2000C63081F70E94FD0CD23041F001E030E074
:101F300020E04C2F6D2FC7010E94F90EDF91CF9149
:101F40001F910F91FF90EF9008958AE793E0EACFF9
:101F500089E693E0E7CF82E693E0E4CF0F9307E0D2
:101F600022E04FE760E083E897E00E94310D809126
:101F70006D07823071F08330A1F08130D1F46CE0D4
:101F800083E897E00E949A0B8FEC93E00F910C94FA
:101F9000FD0C6CE083E897E00E949A0B8DEE93E0D5
:101FA000F5CF66E083E897E00E949A0B8EED93E010
:101FB000EDCF0F910895809395016EEA81116FEA3C
:101FC00083E897E00E94860B2FB7F89480917B07F7
:101FD00090917C07A0917D07B0917E072FBF8093E1
:101FE0006E0790936F07A0937007B09371070895E1
:101FF00090E080E00895CF93DF93CDB7DEB72F97C1
:102000000FB6F894DEBF0FBECDBF209196016217C8
:10201000E0F42FE0FE013196DF01322F1D923A9558
:10202000E9F74FEF5FE75F834E83598748875B8708
:102030004A875D874C87DC01269FA00DB11D1124C6
:10204000509601900D922A95E1F72F960FB6F894CD
:10205000DEBF0FBECDBFDF91CF9108952F923F928B
:102060004F925F926F927F928F929F92AF92BF92A8
:10207000CF92DF92EF92FF920F931F93CF93DF9354
:10208000CDB7DEB766970FB6F894DEBF0FBECDBFF3
:102090003C0186E0FE013196DF011D928A95E9F749
:1020A00080914F01882381F010924F018091960119
:1020B000833050F045E064E283E897E00E94B80B7B
:1020C00080EA93E00E94FD0CF301EC55FF4FD30131
:1020D000D5969C91D597907FD7968C9182958F704D
:1020E000892B80837097FA8BE98BCF010E94D207EE
:1020F000F301E555FF4F808185838181928197832C
:10210000868383819481918780873697D4801482D7
:102110008E9A8BE290E00197F1F78E9883E190E040
:102120000197F1F7408950E0526770E060E090E07D
:1021300080E003E110E057FF76C02A9A440F551F54
:102140002FB1022E000C330B2227330F221F33270F
:10215000062E02C0220F331F0A94E2F7822B932B24
:102160008D98D8011197F1F78D9AD8011197F1F751
:102170006F5F7F4F60317105F1F62A98492F4295C4
:102180004F7050E14D3009F051E070E060E030E018
:1021900020E003E110E0AFB10A2E000CBB0BAA2730
:1021A000BB0FAA1FBB27062E02C0AA0FBB1F0A9493
:1021B000E2F72A2B3B2B8D98D8011197F1F78D9AD6
:1021C000D8011197F1F76F5F7F4F651720F38C01EE
:1021D00000951095209530954F3029F42E3FBFEF94
:1021E0003B0709F447C0848191E0980F948361E034
:1021F00070E0811102C070E060E0411116C0812FD3
:1022000099278F7099270F9781F44AE0469FC00164
:10221000479F900D11248E0F9F1F4FE0DC011696F3
:102220004C93169716C02A9889CF942F909592FFB9
:102230008AC08AE0869FA001879F500D11244E0F0F
:102240005F1F84E0DA0116968C9316979370292FFE
:1022500030E01A963C932E9319972AE0269FC001EE
:10226000279F900D11248E0F9F1FDC0118961C9341
:102270000E931797B481BE87BD15F0F48B2F4AE0FB
:102280009FEF21E030E0811102C030E020E0429F6A
:10229000D001439FB00D1124AE0FBF1F16969C9323
:1022A000169718961C921E9217971A961C921E92B9
:1022B00019978F5FD812E5CFF301E856FF4F908052
:1022C000EE85E90DED8779866886788A6F86B12C70
:1022D000F12C93012B553F4F3C8B2B8BC3018A5420
:1022E0009F4F9E8B8D8B109196019D85B91609F499
:1022F00052C2B11609F44FC2DD24D394B91408F4C4
:10230000D12C21E030E0B91448F5B11002C030E022
:1023100020E04AE0429FC001439F900D11240696A1
:1023200029883A88280E391E123061F5992039F132
:10233000C1010E940509E1E0F0E0EC0FFD1FED0D89
:10234000F11D80831FC05AE0569FC001579F900D1A
:1023500011248E0F9F1F5FE0452760CFB91002C088
:1023600030E020E04AE0429FC001439F900D1124DD
:1023700006962B883C88280E391E123019F4AE853B
:10238000A111D6CFF1019081858198130FC02181D1
:102390003281868197812817390741F4238134815E
:1023A000808591852817390709F477C0AF85B889EA
:1023B000D2961C92F1018081958189130CC0811104
:1023C00018C0838194810196A1F4D10118968D9152
:1023D0009C91019671F06B2DC3010E94FB0F12308E
:1023E00041F4C1010E940509482F6D2DC3010E94CF
:1023F000450EC1010E9405098A87F10121813281C0
:10240000C90154E0969587955A95E1F7982F9170F8
:1024100082E025FF80E0892B94E026FF90E0892B65
:1024200098E027FF90E0892BA885B98550968C937A
:10243000F10121813281FA85A90141705527F230DD
:10244000C1F582E090E021FD02C090E080E0842BA5
:10245000952BA885B98552969C938E935197D1015F
:1024600011962C9180E091E022FD02C090E080E086
:1024700023FFF4C020E032E0E885F98541895289E4
:10248000842B952B822B932B928B818B80919601A1
:10249000823009F4E6C0FF24F394B39488859985CB
:1024A0000F9699878887AF85B8891196B88BAF87C3
:1024B0001ACF82E090E030FD02C090E080E0842BF3
:1024C000952B44E050E021FD02C050E040E0842B19
:1024D000952B48E050E031FD02C050E040E0842BF5
:1024E000952B40E150E032FD02C050E040E0842BEB
:1024F000952B33FF8EC020E230E0822B932BE885B2
:10250000F985928B818BFA85F43009F088C0D1016E
:1025100013964D915C9160E470E052FD02C070E052
:1025200060E020E830E055FD02C030E020E0862B7E
:10253000972BE0E0F4E053FD02C0F0E0E0E0282B50
:10254000392B60E078E054FD02C070E060E02E2B93
:102550003F2B80E090E157FD02C090E080E0262B09
:10256000372B282B392BE885F985328B218BD1012C
:1025700013962D913C91A9014170552782E090E07E
:1025800021FD02C090E080E0842B952B44E050E0D8
:1025900022FD02C050E040E0842B952B48E050E043
:1025A00023FD02C050E040E0842B952B40E150E039
:1025B00024FD02C050E040E0842B952B40E250E027
:1025C00025FD02C050E040E0842B952B40E450E014
:1025D00026FD02C050E040E0842B952B40E850E0FF
:1025E00027FD02C050E040E0842B952B40E051E0F5
:1025F00030FD02C050E040E0842B952B31FF0CC031
:1026000020E032E0822B932BE885F985948B838B35
:1026100026CF30E020E071CF30E020E0F3CFFA8524
:10262000F53009F01CCFD10113962D913C91A901F1
:102630004170552720FF02C040E450E021FF0BC04D
:1026400020E830E0842B952B822B932BE885F985AD
:10265000928B818B04CF30E020E0F4CF30E020E09B
:102660000BCFAD89BE898C912301882309F455C015
:10267000B9EC4B1ABEEF5B0A1F82ED2DF0E0EE0FB6
:10268000FF1FEE54FB4F20812B87D201ED90FD9070
:102690000D911C91139714962C91149715964C91AB
:1026A00015971696AC90169717968C90BF81BC30F4
:1026B00010F5EA85E23091F4B83080F01F92C12C19
:1026C0006B858D2D0E94750D0F90FF81FF5FFF833D
:1026D00028E0420E511CFE30C1F6DDCED10111962C
:1026E0008D919C918E219F21CC24C394892B09F438
:1026F000C12C1F92E5CFBA85B530D1F7F1016381C6
:102700007481D801C7013CE0B695A7959795879548
:102710003A95D1F786239723E7CF37EB430E511C29
:102720001F828D2D90E0880F991FDC01AE54BB4FA6
:10273000BC87AB87BA85B23061F5EF81E83000F530
:10274000E43038F5F201E05AFF4FE080F180028179
:102750001381D10111968D919C918E219F21CC24C2
:10276000C394892B09F4C12C1F928780A6802481F1
:102770004581EB85FC8560818D2D0E94750D0F9044
:10278000FF81FF5FFF8328E0420E511CFC3091F671
:1027900082CEF201DACF0981123059F480914901D9
:1027A000801739F0011105C040E060E0C3010E94CC
:1027B000450E009349011A8180919601823059F4A7
:1027C00080914A01811739F0111105C040E061E0A4
:1027D000C3010E94450E10934A011091C506BD85A4
:1027E000B11760F4DB2E809196018D1539F06D2DB7
:1027F000C3010E94FB0FD394D116A8F3ED85E0939B
:10280000C5068F2D66960FB6F894DEBF0FBECDBFFE
:10281000DF91CF911F910F91FF90EF90DF90CF90BC
:10282000BF90AF909F908F907F906F905F904F90F0
:102830003F902F900895FC0180917A0690917B063D
:1028400086179707A0F06115710529F49091E800AB
:102850009E779093E80090E06115710551F4911115
:1028600008C08091E80082FF35C080E00895BC0177
:10287000F2CF809169078823C9F18530C9F1809131
:10288000E80083FD31C08091E80082FDEACF8091AD
:10289000E80080FFE1CF2091F3008091F200322F19
:1028A000282F6115710519F02034310558F091E099
:1028B0002034310509F090E02091E8002E77209334
:1028C000E800CACF81918093F100615071092F5FB8
:1028D0003F4FE7CF80916907882341F0853041F071
:1028E0008091E80083FFBDCF81E0089582E00895E4
:1028F00083E008952091E4003091E50085E6909111
:10290000EC0090FF06C09091E80090FF06C080E0C8
:1029100008959091E80092FDFACF9091690799236C
:1029200091F0953091F09091EB0095FD10C04091A1
:10293000E4005091E5002417350709F381509A010E
:10294000F1F684E0089582E0089583E0089581E03F
:1029500008958091740687FF13C08091E80082FF7C
:1029600006C08091E8008B778093E80004C08091D6
:1029700069078111F2CF0895809169078823D9F3FF
:102980008091E80080FFF8CF8091E8008E77ECCF4F
:10299000982F973028F08F708093E90081E0089598
:1029A0009093E900242F762F50E0981731F0709122
:1029B000EC002091ED005091F00021FD02C09F5FDE
:1029C000E8CF3091EB003E7F3093EB003091ED008B
:1029D0003D7F3093ED003091EB0031603093EB00A0
:1029E0007093EC002093ED005093F0002091EE00E6
:1029F00027FDE5CF80E0089542E050E064E275E015
:102A000083E897E00C946704CF93DF930E94FD0C5A
:102A1000EC010E94FC148C0F9D1FDF91CF91089553
:102A20000F931F93CF93DF93CDB7DEB7A4970FB665
:102A3000F894DEBF0FBECDBF182F83E0898380ECF2
:102A40008A838BE18B8370E040E250E0CE010496F4
:102A50000E94273401E09E012C5D3F4F43E2BE01FE
:102A60006F5F7F4F812F0E943705A4960FB6F894B1
:102A7000DEBF0FBECDBFDF91CF911F910F910895A3
:102A80000F931F93CF93DF93CDB7DEB7C754D10910
:102A90000FB6F894DEBF0FBECDBF182F83E0898339
:102AA00080E88A8381E08B8370E040E250E0CE01D1
:102AB00004960E94273401E09E01295B3F4F43E2C8
:102AC000BE016F5F7F4F812F0E94370580911702F3
:102AD00090911802A091190227968DAF9EAFAFAFCB
:102AE000279700E29E012C5D3F4F43E0BE016C5BE7
:102AF0007F4F812F0E943705C95BDF4F0FB6F894D7
:102B0000DEBF0FBECDBFDF91CF911F910F91089512
:102B1000EF92FF920F931F93CF93DF931F92CDB746
:102B2000DEB77C01FC018781198203E0970141E057
:102B3000BE016F5F7F4F0E943705F701833061F060
:102B400010821182128280E00F90DF91CF911F914D
:102B50000F91FF90EF900895828187708130C9F4C2
:102B60000BE811E0C8010197F1F76EEE87810E9432
:102B70004015C8010197F1F760E8F70187810E94CD
:102B80004015C8010197F1F760E0F70187810E94C5
:102B900010158BE097E20197F1F781E0D5CF2F92E6
:102BA0003F924F925F926F927F928F929F92AF92DD
:102BB000BF92CF92DF92EF92FF920F931F93CF932A
:102BC000DF93CDB7DEB7E5970FB6F894DEBF0FBE43
:102BD000CDBF1C018091D506811152C08091D606CF
:102BE00081114EC08091D306811109C0F101EA56CE
:102BF000FF4F808191810E9488158093D306809336
:102C0000D5068091D406811109C0F101E856FF4F25
:102C1000808191810E9488158093D4068093D60686
:102C200081E00E94DB0F07E027E04FE760E083E8E8
:102C300097E00E94310D67E083E897E00E948E0BD9
:102C400060E083E897E00E949A0B8091D506882384
:102C500009F464C041E060E0C1010E94D90D62E462
:102C600083E897E00E949A0B9091D5068091D60652
:102C700091115BC0811159C082EB93E00E94FD0C61
:102C80001D8E1E8E10E0510124E9A20EB11CBBE87E
:102C90006B2E7724739480919601181708F0F7C073
:102CA000E12EF12CF701E55BFF4FEE0FFF1FE20D68
:102CB000F31DC080D180D501CD92DC92F701EF5297
:102CC000F94F4F011082F701EB52F94F80818823B1
:102CD00009F49DC097012D52394F2901D9018C91DA
:102CE00081112EC0C6010E948815882309F48FC067
:102CF00021E0F2012083F701E153F94F1082612FA7
:102D0000C1010E94FB0F41E0612FC1010E94D90D5A
:102D10007EC08EEA93E00E94FD0CA1CF8091D60682
:102D20008111F7CF82EB93E0F6CF811103C08EEAD9
:102D300093E0A4CF41E061E0C1010E94D90DA0CF92
:102D4000D6018D919C91892BB9F1F6016281862F74
:102D50008770813099F463FB882780F99091C606CB
:102D6000891761F0C3010197F1F763FB662760F9EA
:102D700087810E941015C3010197F1F7F601828146
:102D800083FB882780F98093C6068781F1E0FE8B5C
:102D900004E096012D5F3F4F41E0BE016A5E7F4F28
:102DA0000E9437058430A9F1D6011C9211961C921D
:102DB000119712961C9205C0C6010E9488158111B8
:102DC000C4CFD4018C91F701E153F94F882309F462
:102DD00050C01082F1019781911119C0F501A081B5
:102DE000B181EE0CFF1CEE0CFF1CF101EE0DFF1D7E
:102DF00095A9911105C081E097A9911101C080E0CA
:102E000012969C91129780FB93F912969C931F5FE8
:102E100042CFD501ED91FC9187E0DE0156960190FD
:102E20000D928A95E1F787E0FE017696DE011F9606
:102E300001900D928A95E1F7B7E0BE9DC001BF9D5C
:102E4000900D1124E1E0F0E0EC0FFD1F8E0F9F1FAD
:102E50003E96DC0127E001900D922A95E1F721E0F2
:102E6000DC018D919C91892B09F420E0F4012083F1
:102E7000A8CF80818F5F8083823048F2D2011C927C
:102E80001082612FC1010E94FB0F40E03DCFD12C89
:102E9000F101E656FF4FFDA7ECA7910125563F4FE4
:102EA0003FA72EA7A10143565F4F59AB48ABC101C5
:102EB00084569F4F9BAB8AABD101A25FBE4FBDAB87
:102EC000ACAB80919601D81608F084C26D2C712CA1
:102ED000F301ED52F94F8081882309F45CC2F301BC
:102EE000EF52F94F8081882309F455C287E0869D0F
:102EF000F001879DF00D112421E030E02C0F3D1FE3
:102F0000E20FF31F2381822F82958F7090E0982F1C
:102F100088279295907F2F7030E0322F2227820FE2
:102F2000931F2481422F42954F7030E1439FA001AF
:102F30001124840F951F2F70AC01420F511D58A30F
:102F40004F8FC301880F991F9BA38AA3DC01A55350
:102F5000B94F8D919C912581D301A753B94FBFA340
:102F6000AEA33C91231308C04681F301E953F94F06
:102F70003081431709F457C2EDE1F0E0EC0FFD1F7B
:102F8000E60DF71D31E04F8D58A18417950709F420
:102F900030E0308387E0869DF001879DF00D11249D
:102FA00081E090E08C0F9D1FE80FF91F938193FB48
:102FB000332730F982E092FF80E0832B97E0969DE3
:102FC000F001979DF00D1124A1E0B0E0AC0FBD1F02
:102FD000EA0FFB1F938191FFE0C194E0892B97E0FA
:102FE000969DF001979DF00D112441E050E04C0FAB
:102FF0005D1FE40FF51F938190FFD1C198E03FE082
:10300000369DF001379DF00D1124E20DF31D892B43
:10301000808B87E0869DF001879DF00D112481E073
:1030200090E08C0F9D1FE80FF91F848182FB992788
:1030300090F99CA31DA280FFB4C182E090E0ACA1F6
:10304000BDA18A2B9B2B37E0369DF001379DF00DFB
:10305000112441E050E04C0F5D1FE40FF51F348157
:1030600044E050E031FD02C050E040E0842B952B5D
:1030700037E0369DF001379DF00D1124A1E0B0E05E
:10308000AC0FBD1FEA0FFB1F348148E050E033FD59
:1030900002C050E040E0842B952B37E0369DF001D4
:1030A000379DF00D112441E050E04C0F5D1FE40FFF
:1030B000F51F348140E150E035FD02C050E040E0B2
:1030C000842B952B37E0369DF001379DF00D1124B0
:1030D000A1E0B0E0AC0FBD1FEA0FFB1F348140E25E
:1030E00050E034FD02C050E040E0842B952B37E0E7
:1030F000369DF001379DF00D112441E050E04C0F5A
:103100005D1FE40FF51F338140E450E036FD02C03F
:1031100050E040E0842B952B37E0369DF001379D41
:10312000F00D1124A1E0B0E0AC0FBD1FEA0FFB1FB2
:10313000338140E850E037FD02C050E040E0842B8E
:10314000952B37E0369DF001379DF00D112441E0BD
:1031500050E04C0F5D1FE40FF51F338140E051E05C
:1031600035FD02C050E040E0842B952B37E0369DC2
:10317000F001379DF00D1124A1E0B0E0AC0FBD1FB0
:10318000EA0FFB1F338140E052E034FD02C050E003
:1031900040E03FE0369DF001379DF00D1124E20D37
:1031A000F31D842B952B928B818B2F3B0CF0FCC055
:1031B00087E0869DF001879DF00D112421E030E02D
:1031C0002C0F3D1FE20FF31F8FEB858387E0869D59
:1031D000F001879DF00D112481E090E08C0F9D1F80
:1031E000E80FF91F86818F3B0CF0EFC08FEB8683D1
:1031F000ACA5BDA58C90082C000C9908AA08BB08AA
:1032000087E0869DF001879DF00D112421E030E0DC
:103210002C0F3D1FE20FF31F358139A3232F330FEE
:10322000330B440B550B281939094A095B09AFEFD9
:10323000B0E00E94A532AEA5BFA52C91022E000CD5
:10324000330B440B550B281939094A095B090E94B5
:103250008632822F2757233108F480E890E02FE050
:10326000269DF001279DF00D1124E20DF31D382F4E
:103270002227820F931F968B858BE8A9F9A9E080FE
:103280000E2C000CFF08000B110B87E0869DF0014F
:10329000879DF00D112421E030E02C0F3D1FE20F3F
:1032A000F31F9680292D092C000C330B440B550B72
:1032B0002E193F09400B510BAFEFB0E00E94A53231
:1032C000AAA9BBA92C91022E000C330B440B550B61
:1032D0002E193F09400B510B0E948632822F27572F
:1032E000233108F480E890E02FE0269DF001279D2F
:1032F000F00D1124E20DF31D382F2227820F931FAA
:10330000908F878B2101BEE94B0E511C4F8D58A128
:103310009A0150E040E028A739A74AA75BA7EAA195
:10332000FBA1EE54FB4FB080D201ED90FD900D91CA
:103330001C9188A599A5AAA5BBA58E219F21A02394
:10334000B123CC24C394892B8A2B8B2B09F4C12C59
:103350001F92F2018780A680248145816B2D8D2DDF
:103360000E94750DF8E04F0E511C0F902CA93DA93D
:1033700042165306C9F6EAA1FBA1E553F94F4F8D5A
:1033800058A151834083E9A1AEA1BFA1EC93F30101
:10339000E953F94F9082D39494CD90E01FCE90E002
:1033A0002ECE90E080E04BCE22340CF40FCF87E09D
:1033B000869DF001879DF00D112441E050E04C0FF7
:1033C0005D1FE40FF51F81E400CF82340CF410CFB1
:1033D00081E40DCF8091D306811104C08091D40681
:1033E000882321F08BE097E20197F1F78D8D811111
:1033F00001C08E8DE5960FB6F894DEBF0FBECDBF2F
:10340000DF91CF911F910F91FF90EF90DF90CF90C0
:10341000BF90AF909F908F907F906F905F904F90F4
:103420003F902F9008954F8D58A18417950709F468
:10343000B2CFA2CD0E940C342F923F924F925F9256
:103440006F927F928F929F92AF92BF92CF92DF92B4
:10345000EF92FF920F931F93CF93DF93CDB7DEB719
:1034600064970FB6F894DEBF0FBECDBF6C019E010E
:103470002F5F3F4F38872F8386E0D9011D928A95B1
:10348000E9F780914801882381F0109248018091EA
:103490009601833050F045E06EE183E897E00E94AA
:1034A000B80B84E893E00E94FD0C860102561F4F82
:1034B000DA86C9861601B8EF2B0E311CC8010E94AE
:1034C000CA09015F1F4F02151305C1F72601E4E980
:1034D0004E0E511CD20117969C90179717961C926E
:1034E000179718961C925C9A0BE010E0C8010197A0
:1034F000F1F77601BDE9EB0EF11CF70180810E9426
:103500008707782E5C98C8010197F1F7D7018C9155
:103510000E948707272D2770F2019185372D3F7074
:10352000243009F0B5C0913021F091E091873F9AA5
:10353000479AD20117969C91179721E0290F179669
:103540002C93973008F096E0F201BFE09B9FE00DCE
:10355000F11D11249FE49287438554855F70232FCA
:1035600030E0322F22273295307F240F351F207F05
:103570008F70280F311D348723875C9A47982BE082
:1035800030E0C9010197F1F759B19CB143B163B182
:1035900096FB882780F9880F880F952F991F992708
:1035A000991F990F990F990F890F65FB992790F92A
:1035B000890F44FB992790F9990F890F40E1849F67
:1035C000C0011124438554854F70840F951F948743
:1035D00083875C984798C9010197F1F739B19CB18D
:1035E00023B143B196FB882780F9880F880F932F6A
:1035F000991F9927991F990F990F990F890F45FBCB
:10360000992790F9890F24FB992790F9990F890F31
:1036100090E0982F882723853485307F820F931F71
:10362000948783875C9AF2018185813009F4479AF7
:1036300083E290E00197F1F7D20117961C9160E0C8
:103640007FE04FEF5FEF00E8161709F414C2862FF2
:10365000673008F086E0282F30E0F201789FE00D17
:10366000F11D112492858189981781F05487438731
:10367000058706872F5F3F4F729FC001739F900D94
:103680001124840D951DDC011C92108A6F5FDCCF24
:10369000313009F03AC1282F2F70213009F035C19F
:1036A000913019F021873F9A479A60E041E02BE082
:1036B00030E04798762F742780ED97E056B156FB9F
:1036C000552750F97513F5C6F9013197F1F70197B0
:1036D000A9F7A8CF79B19CB153B1E3B196FB882784
:1036E00080F9880F880F972F991F9927991F990F95
:1036F000990F990F890FE5FB992790F9890F54FBD2
:10370000992790F9990F890F613009F0F1C6B4E05B
:10371000BB1203C0813009F485CFF82EFF0CB11025
:1037200020C0823029F190E080E051E06BE070E051
:10373000F91609F477CF882309F494C0479A8527AE
:10374000A82FA17020ED37E046B146FB442740F991
:10375000FB01A413D0C63197F1F721503109A1F72D
:1037600061CFE1E0BE1270C0863011F08330D9F62F
:10377000D20117969C91179721E0290F17962C9349
:10378000973008F096E0292F30E06FE0A201969F75
:10379000400D511D1124FA013A96FC87EB87629F78
:1037A000A001639F500D1124FEE0440D551DBF1272
:1037B0005BC0BB24BA94B80E80EEB826DA011A9624
:1037C000BC9210E0E12C00E083E0682E712C8FE0C9
:1037D000829F5001839FB00C1124A40CB51CA5013D
:1037E000405F5F4F5E874D872F5F3F4F829FA001F5
:1037F000839F500D1124B201640F751F788B6F8762
:10380000C5010E969A8B898BD5011D96BC8BAB8B0F
:10381000BBE0AB0EB11CF11609F404CFEE2069F148
:10382000479A81E0E8263E2D317080ED97E026B181
:1038300026FB222720F9321362C6EBE0F0E0319735
:10384000F1F70197A1F7EECEFEE0BF1204C083307E
:1038500008F48ECF68CF2FE0B21265CF8F3009F019
:1038600062CFE0CE47986BCFB0E1BB9EB001112490
:10387000B82EB626FA01B286A4CF4798D2CF13301D
:1038800079F4F501208131813F70487050E0542F68
:1038900044275295507F420F531F5183408352C695
:1038A000143089F1153049F4F0E10F9FC001112463
:1038B000482BAB89BC894C9345C6163021F1173093
:1038C00049F4B0E10B9FC0011124482BE989FA8922
:1038D000408338C61830B9F0193041F4F0E10F9F39
:1038E000C0011124482BAF85B889E5CF1A3059F0B3
:1038F0001B3009F027C6B0E10B9FC0011124482BF3
:10390000ED85FE85E5CF042F1DC6282F2C7009F00C
:103910009BC0992331F0D20119961C923F98479889
:10392000479AF201978121E0290F2783973008F009
:1039300096E0A92EB12CF2012FE0929FE00DF11D2F
:10394000112490EE9287972D9C7009F46BCE4385DD
:103950005485407FBA01630F711D9B012F707294D3
:10396000AFE07A2286958695782A70E1779EC0012D
:103970001124280F391F3487238784E091E04BE01E
:1039800050E021E0992309F45DC05C9AFA01319777
:10399000F1F792278150B1F7D7018C910E948707E8
:1039A0009FE09A9DF0019B9DF00D1124E40DF51D03
:1039B000908D992321F021EE22879150908F8F7066
:1039C00009F030CE8FE08A9D80018B9D100D11246F
:1039D000040D151D84E6F801808F5C9A3BE0A32E50
:1039E000B12CC5010197F1F7D7018C910E9487078F
:1039F000782E5C98C5010197F1F7F70180810E944C
:103A0000870791EED8011A969C931A971B962D91D1
:103A10003C911C97307F472D4F7050E0542F442726
:103A2000240F351F3F70880F880F880F90E0982F64
:103A300088279295907F280F391F1C963C932E93D0
:103A40001B97F0CD5C98A2CF333061F48F708F302C
:103A500049F4913009F4E6CD81E0F20181873F9A83
:103A6000479AE0CD992309F4DDCDD20119961C9235
:103A70003F984798F5CF691528F57FE01FEF4FEF86
:103A80005FEF00E8862F673008F086E0282F30E0EF
:103A9000F201789FE00DF11D11241287108E5487DA
:103AA0004387058706872F5F3F4F729FC001739F33
:103AB000900D1124840D951DDC011C92108A6F5FFE
:103AC0009612E0CF7601BEEFEB1AFB0A8601045A8C
:103AD0001E4FC7010E94CA09EFE0EE0EF11C0E1541
:103AE0001F05B9F7D10117969C90179717961C924E
:103AF000179718961C922A9A0BE010E0C8010197BC
:103B0000F1F77601B1E0EB0EFB1EF70180810E9418
:103B10006707782E2A98C8010197F1F7D7018C9191
:103B20000E946707272D2770F1019185372D3F707F
:103B3000243009F0B2C0913021F091E09187269AAB
:103B40002E9AD10117969C91179721E0290F17966D
:103B50002C93973008F096E0F101BFE09B9FE00DB9
:103B6000F11D11249FE49287438554855F70232FB4
:103B700030E0322F22273295307F240F351F207FEF
:103B80008F70280F311D348723872A9A2E982BE0B7
:103B900030E0C9010197F1F783B14FB19FB15FB137
:103BA00086958170880F880F880F441F4427441F13
:103BB000440F440F840F55FB442740F9840F96FBB4
:103BC000992790F9990F890F40E1849FC001112432
:103BD000438554854F70840F951F948783872A9857
:103BE0002E98C9010197F1F783B12FB19FB13FB171
:103BF00086958170880F880F880F221F2227221F29
:103C0000220F220F820F35FB222720F9820F96FB0D
:103C1000992790F9990F890F90E0982F882723858D
:103C20003485307F820F931F948783872A9AF1010E
:103C30008185813009F42E9A83E290E00197F1F7B3
:103C4000D10117961C91A12C6FE04FEF5FEF70E848
:103C50001A1509F41BC28A2DB6E0BA1508F486E0DD
:103C6000282F30E0F101689FE00DF11D11249285AD
:103C70008189981781F054874387758776872F5FEE
:103C80003F4F629FC001639F900D1124820D931DD1
:103C9000DC011C92108AA394DBCF313009F03EC1C5
:103CA000282F2F70213009F039C1913019F0218768
:103CB000269A2E9A60E041E02BE030E02E98762F95
:103CC000742780ED97E053B153FB552750F97513D6
:103CD0003BC4F9013197F1F70197A9F7A7CF83B159
:103CE0005FB19FB17FB186958170880F880F880F73
:103CF000551F5527551F550F550F850F75FB552718
:103D000050F9850F96FB992790F9990F890F61302B
:103D100009F038C4B4E08B1203C0813009F486CFB7
:103D2000782E770C811020C0823029F190E080E05D
:103D300051E06BE070E0791609F478CF882309F43C
:103D400091C02E9A8527A82FA17020ED37E043B1AE
:103D500043FB442740F9FB01A41317C43197F1F743
:103D600021503109A1F762CFE1E08E126DC086309B
:103D700011F08330D9F6D10117969C91179721E065
:103D8000290F17962C93973008F096E0492F50E0B2
:103D90006FE09101969F200D311D1124F9013A9693
:103DA000FC87EB87649F9001659F300D1124FEE036
:103DB000220D331D8F1258C0815090EE8927D901F2
:103DC0001A968C93B12C812CA12C6FE0649F8001FA
:103DD000659F100D1124C60188509F4F7C01E00E95
:103DE000F11E9701205F3F4F3E872D874F5F5F4F4A
:103DF000649F9001659F300D1124AC01420F531F49
:103E0000588B4F87B701625F7F4F7A8B698B020DAA
:103E1000131D055F1F4F7B1409F408CF882069F13B
:103E20002E9A81E08826382D317080ED97E023B1FD
:103E300023FB222720F93213ACC3EBE0F0E03197EB
:103E4000F1F70197A1F7F2CEFEE08F1204C08330A4
:103E500008F491CF6BCF2FE0821268CF8F3009F03A
:103E600065CFE4CE2E986ECFB0E18B9EB0011124C9
:103E7000882E8626F9018286A5CF2E98D2CF73E0B0
:103E8000B71210C0D8012D913C9111973F70487026
:103E900050E0542F44275295507F420F531F4D93AB
:103EA0005C939CC3B4E0BB16B9F1E5E0BE1209C057
:103EB000F0E1AF9EC0011124482BD7011D964C9311
:103EC0008DC3B6E0BB1641F1E7E0BE1209C0F0E1D8
:103ED000AF9EC0011124482BA989BA894C937EC397
:103EE000B8E0BB16C9F0E9E0BE1208C0F0E1AF9E31
:103EF000C0011124482BAF85B889F0CFBAE0BB16BA
:103F000059F0EBE0BE126AC3F0E1AF9EC00111248C
:103F1000482BAD85BE85E2CFA42E60C3282F2C7020
:103F200009F09DC0992329F0F101118626982E9859
:103F30002E9AD10117969C91179721E0290F179679
:103F40002C93973008F096E0A92EB12CF101BFE038
:103F50009B9FE00DF11D112490EE9287972D9C7090
:103F600009F464CE43855485407FBA01630F711D07
:103F70009B012F707294AFE07A2286958695782AFD
:103F800070E1779EC0011124280F391F34872387E1
:103F900084E091E04BE050E021E0992309F45DC01A
:103FA0002A9AFA013197F1F792278150B1F7D70198
:103FB0008C910E9467079FE09A9DF0019B9DF00DF8
:103FC0001124E20DF31D908D992321F021EE22871B
:103FD0009150908F8F7009F029CE8FE08A9D8001DB
:103FE0008B9D100D1124020D131D84E6F801808FA6
:103FF0002A9A5BE0A52EB12CC5010197F1F7D701F4
:104000008C910E946707882E2A98C5010197F1F7C5
:10401000F70180810E94670791EED8011A969C9360
:104020001A971B962D913C911C97307F482D4F700D
:1040300050E0542F4427240F351F3F70880F880FFE
:10404000880F90E0982F88279295907F280F391F2E
:104050001C963C932E931B97E9CD2A98A2CF333020
:1040600061F48F708F3049F4913009F4DFCD81E035
:10407000F1018187269A2E9AD9CD992309F4D6CDBC
:10408000D10119961C9226982E98F5CFA91430F5D7
:104090006A2D7FE01FEF4FEF5FEF00E8862F67305C
:1040A00008F086E0282F30E0F101789FE00DF11D47
:1040B00011241287108E54874387058706872F5F48
:1040C0003F4F729FC001739F900D1124820D931D6D
:1040D000DC011C92108A6F5F9612E0CFF601E55664
:1040E000FF4F6080B62CBA0C460110E01B86009191
:1040F00096011B1509F468C1101709F465C17724EE
:104100007394161508F4712C812F161508F032C11E
:10411000173008F086E0F2012FE0829FE00DF11DDC
:104120001124AF01465F5F4F7A01033008F438C1B4
:10413000D7019C9117968C91179798132BC01196C5
:104140002D913C91129718968D919C911997281753
:10415000390701F513969C9113971A968C911A972B
:10416000981318C014969C9114971B968C911B97CA
:10417000981310C015969C9115971C968C911C97BE
:10418000981308C016969C9116971D968C919817B7
:1041900009F4E5C0F40116A610AAD7019C91179660
:1041A0008C91981779F0612FC6010E94FB0F0330A4
:1041B00048F4F70180810E94A907482F672DC601A6
:1041C0000E945B0FD70111962D913C91A90140955A
:1041D00050954170552782E021FD80E0842B94E0CA
:1041E00022FD90E0892B98E023FD90E0892BE98562
:1041F000FA85808BD70111962D913C91C90146E03B
:10420000969587954A95E1F7B1E08B27AC0141700F
:10421000552782E090E024FF02C090E080E0842BEC
:10422000952B44E050E032FF02C050E040E0842B88
:10423000952B48E050E031FF02C050E040E0842B75
:10424000952B40E150E030FF02C050E040E0842B6D
:10425000952B40E250E025FF02C050E040E0842B67
:10426000952B40E450E037FF02C050E040E0842B43
:10427000952B40E850E033FF02C050E040E0842B33
:10428000952B27FD9BC020E032E0822B932BE98504
:10429000FA85928B818BD7018C91807F803109F0D8
:1042A0004AC021E0F40120AB13968C9199E8980F55
:1042B000933108F480E890E0382F2227820F931F73
:1042C000A985BA8556969C938E935597F70184815C
:1042D00099E8980F933108F480E890E0382F22276E
:1042E000820F931FA985BA8558969C938E935797F2
:1042F000F6018781882331F090917207992381F02C
:10430000813071F4E1E0D4019E96EC93D7011696CA
:104310008C911697E985FA85858F15968C91868FF5
:10432000D7018C910E94A907863029F4E985FA8586
:1043300080898360808B80919601833008F041C032
:10434000E1E0F0E0EC0FFD1FE70DF11D00E097014B
:104350004081672DC6010E94F90EF1E0FB871F5FC7
:1043600049855A85415F5F4F5A8749875FEF851AB4
:10437000950ABDCE8619873008F086E0B101AFE01E
:104380008A9F600D711D1124FB013A967F01033055
:1043900008F0CECEAA2009F4CBCEF701808104C06C
:1043A0006620C1F3DA018C910E94A907E1E0F0E0F8
:1043B000EC0FFD1FE70DF11D8083BACE30E020E049
:1043C00064CF21E02B87CBCF1981033058F4809143
:1043D0004201811739F0111105C040E060E0C601CB
:1043E0000E945B0F109342011A81809196018330E5
:1043F00058F480914301811739F0111105C040E054
:1044000061E0C6010E945B0F109343010091C40656
:10441000B01660F41B2D80919601811739F0612F41
:10442000C6010E94FB0F1F5F1017A8F3B092C406CD
:10443000F601E456FF4F8081843089F1EC59FF4F3B
:104440009081943061F1890F89F18B2D90E0019674
:1044500044EF51E0849F9001859F300D949F300D73
:10446000112430939801209397018B8564960FB6A1
:10447000F894DEBF0FBECDBFDF91CF911F910F919A
:10448000FF90EF90DF90CF90BF90AF909F908F9074
:104490007F906F905F904F903F902F90089580EDA8
:1044A00097E09093980180939701DFCF84E690E0A6
:1044B000F8CFC9010197F1F761110CC959B18CB15D
:1044C00093B163B186FBBB24B0F8BB0CBB0C852F4A
:1044D000881F8827881F880F880F880FB80E65FBF4
:1044E000882780F9B80E94FB882780F9880FB80ECA
:1044F00061E0479ADFC83197F1F79F5F19C9C3019F
:104500000197F1F799B14CB183B123B146FB442730
:1045100040F9440F440F991F9927991F990F990F3C
:10452000990F490F25FB992790F9490F82958170C2
:10453000880F480F133008F0A2C9612F8B859C8526
:104540000E94D4031F5F67C9C9010197F1F7611188
:10455000C6CB83B09FB18FB15FB181FA882480F858
:10456000880C880C880C991F9927991F990F990F0F
:10457000890E55FB992790F9890E86FB882780F9CB
:10458000880F880E61E02E9A9ACB3197F1F79F5FE2
:10459000D2CB83E090E00197F1F743B19FB18FB1A7
:1045A0002FB146954170440F440F440F991F99272E
:1045B000991F990F990F490F25FB992790F9490FDA
:1045C00086FB882780F9880F480F62E06B1508F496
:1045D00056CC6B2D8B859C850E94D403B3941BCC49
:1045E000EF92FF920F931F93CF93DF9300D0CDB73D
:1045F000DEB780916907882309F4DBC08091E90068
:104600008F709091EC0090FF4FC090E8F92EF82A3F
:104610001092E9008091E80083FFC7C0E4E7F6E06C
:104620008091F100819326E0EC37F207C9F7E09022
:10463000750681E0E8121DC080917406813AC9F4C4
:104640008091E800877F8093E800809176069091C2
:1046500077068115934051F568E070E080E091E0C5
:104660000E941B14E09273078091E8008B7780937F
:10467000E8008091E80083FF8AC0809174069091E1
:1046800075069A3008F083C0E92FF0E0E65BFC4D38
:104690000C94E1329A23C023C723C023C7232124CB
:1046A0004324C7237626832690E0B0CFE0916807A5
:1046B000E730D0F6F0E0E15AFC4D0C94E13266238D
:1046C0006D23722377237C238123952364E170E09B
:1046D00084E795E00E941B14C7CF60E470E081E698
:1046E00095E0F8CF60E470E089E595E0F3CF60E411
:1046F00070E081E595E0EECF60E470E08AE495E05B
:10470000E9CF81E08093460582E080934305809164
:1047100078069091790660E470E0892B19F486E4BC
:1047200095E0D8CF83E495E0D5CF60E470E08EE3E8
:1047300095E0D0CF803889F0823849F580917806AD
:104740008F70873020F58093E9008091EB0085FB26
:10475000882780F91092E90004C08091DB0681115E
:104760000DC09091E800977F9093E8008093F1004E
:104770001092F1008091E8008E7732C082E0F1CF94
:10478000282F2D7F21F48823E9F0823071F1809168
:10479000E80083FF0AC08091E800877F8093E800EB
:1047A0008091EB0080628093EB008F2D8F7080935F
:1047B000E9000F900F90DF91CF911F910F91FF9023
:1047C000EF90089580917606813009F7933009F0D3
:1047D00080E08093DB061092E9008091E800877FFB
:1047E0008093E8000E94A914D2CF809176068111AF
:1047F000F2CF809178068F702FEF280F263038F691
:104800008093E9002091EB0020FFE5CF933031F455
:104810008091EB0080628093EB00DDCF9091EB0004
:1048200090619093EB0021E030E001C0220F8A9567
:10483000EAF72093EA001092EA008091EB0088608A
:10484000EACF8111A4CF109176061F778091E30003
:104850008078812B8093E3008091E800877F8093AC
:10486000E8000E94A9148091E80080FFFCCF8091AD
:10487000E30080688093E30083E0111101C082E0CF
:104880008093690784CF8058823008F080CF2091D0
:104890007606309177061A821982832F9927833002
:1048A000910509F41CC1D0F481309105A9F102975A
:1048B00009F45DC069817A816115710509F467CFDA
:1048C0008091E800877F8093E800C8010E941B1454
:1048D0008091E8008B778093E80059CF8132910571
:1048E00009F49FC1829731F780916807843009F4F9
:1048F000E7C108F0BBC1813009F4C8C1833009F4B5
:10490000D4C146E450E06AE671E08EED95E00E9485
:10491000673286E490E0C4C180916807882399F0EB
:10492000813001F10091E1061091E20642E150E090
:1049300065EC70E088E895E00E946732009394058A
:104940001093950508C042E150E069EE70E088E8F8
:1049500095E00E94673282E190E09A83898308E8BB
:1049600015E0A8CF42E150E067ED70E0F0CF009194
:10497000E00610916807113009F456C008F44DC0E4
:10498000153009F496C01350143008F0A1C0E12F7F
:10499000F0E0E057FB4F108149E050E064E171E046
:1049A0008AE995E00E94673299E1099F902D1124D0
:1049B000975F90939C0500939E05002309F48AC09D
:1049C00049E150E06BEF70E083EA95E00E946732C6
:1049D0001092A5051093B30581E88093B7050230C6
:1049E00008F478C049E150E06BEF70E08CEB95E0A3
:1049F0000E94673281E08093BE051093CC0582E867
:104A00008093D005023009F465C049E150E06BEFB6
:104A100070E085ED95E00E94673281E390E09A8333
:104A200089830FE514E046CF49E050E068E571E086
:104A30008AE995E00E94673299E1099F902D11243F
:104A4000975F90939C0500939E05002361F149E1D7
:104A500050E06FE371E083EA95E00E9467321092C4
:104A6000A5054CE6E42EE092B30581E88093B705F6
:104A70000230C8F049E150E06FE371E08CEB95E063
:104A80000E9467321093BE05E092CC0582E88093C5
:104A9000D005023041F049E150E06FE371E085ED6F
:104AA00095E00E946732B9E10B9FC001112409967D
:104AB0000AC042E250E06DE171E08AE995E00E94AF
:104AC000673282E290E09A8389830AE915E0F2CEA8
:104AD00016E462CFE9E10E9FC0011124E8CFC901BD
:104AE00099278230910549F18330910509F441C03D
:104AF0008130910509F04AC080916807813089F4BE
:104B000044E351E0DA010D900020E9F7AD0145538F
:104B1000514064E371E0CE0101960E94E6278C01CA
:104B2000C9CE47E251E0FA0101900020E9F7AF0158
:104B30004852514067E271E0EECF809168078130C2
:104B400061F445E151E0DA010D900020E9F7AD0193
:104B50004651514065E171E0DECF48E051E0FA0195
:104B600001900020E9F7AF014950514068E071E041
:104B7000D2CF6091DE067091DF06FB01019000202C
:104B8000E9F73197AF01461B570BC5CF6DE574E0D0
:104B9000E1E0222331F1253039F524EA34E0E0E088
:104BA000FCE0FE0FD9011D919D018E2F90E0019632
:104BB00070E060E0412F42954F7050E0495D5A4FE0
:104BC000DA014C91DC014C93EE5F90E0A12FAF70C5
:104BD000B0E0A95DBA4F4C91DC0111964C93EF13F4
:104BE000E1CF4E2F50E097CF20916807880F991F93
:104BF000222329F0213049F08C569B4F02C0865564
:104C00009B4FFC016081718105C084569B4FDC0184
:104C10006D917C91FB0101900020E9F73197E61B33
:104C2000E0CF1091680749E050E061E671E085ED62
:104C300095E00E9467328BE5143079F040F48CE601
:104C4000113059F089E5133041F086E406C081E562
:104C5000153019F087E31630C1F78093DC0589E041
:104C600090E09A83898305ED15E024CE853099F193
:104C7000863009F046CE47E350E060EB71E08EED00
:104C800095E00E94673287E390E00AC04CE650E06E
:104C90006CEE72E08EED95E00E9467328CE690E05B
:104CA0009A8389830EED15E005CE49E550E063E96E
:104CB00072E08EED95E00E94673289E590E0F0CFDA
:104CC0004BE550E068E372E08EED95E00E946732BC
:104CD0008BE590E0E5CF41E550E067EE71E08EEDC9
:104CE00095E00E94673281E590E0DACF803809F0E4
:104CF0004ECD8091E800877F8093E8008091DC06AC
:104D00008093F10037CD811142CD1091760612309B
:104D100008F03DCD8091E800877F8093E8001093F4
:104D2000DC060E94A9141123F9F084E0809369073E
:104D3000009168070023F1F042E360EC82E00E94FA
:104D4000C81411E08091E006811708F420CD812F6E
:104D50008F70873020F442E361EC0E94C814053064
:104D600009F415CD1F5FEECF8091E30087FDDDCF05
:104D700081E0DCCF42E261EC81E00E94C81446E2AF
:104D800060EC82E00E94C81402CD0F931F93CF9372
:104D9000DF938C01EB018091E80085FD10C08091CC
:104DA000E8008B778093E8000E94F0220E947A143A
:104DB000882389F3DF91CF911F910F9108958091FE
:104DC000F100F80181938F01219729F780E0F2CF5C
:104DD0001F920F920FB60F9211242F933F938F9330
:104DE0009F93AF93BF9380917B0790917C07A09195
:104DF0007D07B0917E0730917A0723E0230F2D378E
:104E000058F50196A11DB11D20937A0780937B0769
:104E100090937C07A0937D07B0937E0780917F07D6
:104E200090918007A0918107B09182070196A11D02
:104E3000B11D80937F0790938007A0938107B09363
:104E40008207BF91AF919F918F913F912F910F90CA
:104E50000FBE0F901F90189526E8230F0296A11DF4
:104E6000B11DD2CF1F920F920FB60F9211242F9324
:104E70003F934F935F936F937F938F939F93AF93E2
:104E8000BF93EF93FF938091DA0080FF17C080916A
:104E9000D80080FF13C08091DA008E7F8093DA0003
:104EA0008091D90080FF86C080E189BD82E189BD03
:104EB00009B400FEFDCF81E0809369078091E10095
:104EC00080FF17C08091E20080FF13C08091E20054
:104ED0008E7F8093E2008091E20080618093E20007
:104EE0008091D80080628093D80019BC85E08093BF
:104EF00069078091E10084FF26C08091E20084FF71
:104F000022C080E189BD82E189BD09B400FEFDCFE8
:104F10008091D8008F7D8093D8008091E1008F7EB2
:104F20008093E1008091E2008F7E8093E200809187
:104F3000E20081608093E2008091DC068823F1F139
:104F400084E0809369078091E10083FF22C0809113
:104F5000E20083FF1EC08091E100877F8093E10023
:104F600082E0809369071092DC068091E1008E7FD9
:104F70008093E1008091E2008E7F8093E200809137
:104F8000E20080618093E20042E360E080E00E9402
:104F9000C814FF91EF91BF91AF919F918F917F9135
:104FA0006F915F914F913F912F910F900FBE0F9096
:104FB0001F90189519BC1092690780CF8091E3006B
:104FC00087FD02C081E0BDCF83E0BBCFCF93DF93ED
:104FD000DC014032510514F04FE150E090E0292F00
:104FE00030E02417350784F04F5F5F4F440F551FA3
:104FF0004D935C93536050937D0640937C068CE701
:1050000096E0DF91CF910895F901EE0FFF1FE2586E
:10501000F94F260F371FE9012881022E000C330BB0
:10502000318320839F5FDBCFCF93DF93CDB7DEB794
:1050300029970FB6F894DEBF0FBECDBF789484B524
:10504000826084BD84B5816084BD85B5826085BD84
:1050500085B5816085BD80916E00816080936E0012
:105060001092810080918100826080938100809104
:1050700081008160809381008091800081608093B5
:1050800080008091910082608093910080919100D6
:105090008160809391008091900081608093900066
:1050A0008091C10084608093C1008091C1008260C2
:1050B0008093C1008091C10081608093C100809184
:1050C000C30081608093C3008091C00082608093A0
:1050D000C0008091C20081608093C20080917A00FC
:1050E000846080937A0080917A00826080937A0055
:1050F00080917A00816080937A0080917A00806844
:1051000080937A0056985E9A1092730790E080E040
:105110000E947032843008F067C080936D078091E0
:105120006D07823009F462C0833009F496C0813083
:1051300021F584EC91E00E94E7328C010E948D03FE
:1051400088EC94E0D8018D939C93C8018C569F4FB6
:105150000E94B709C80188509F4F0E94B709D80123
:10516000A45ABE4F88E6EAE1F2E001900D928A95DA
:10517000E1F71093750700937407109294078CE37E
:10518000809393071092B90084E48093BC008CE074
:105190008093B8001092870710928807E0EBF6E042
:1051A000C590D490E2EBF6E0F490E3EBF6E0E49106
:1051B000E0938907E4EBF6E0E491E0938A07E5EBFE
:1051C000F6E0E491E0938B0710E000E00F1508F0A3
:1051D0007AC0F601E00FF11F649183E897E00E9426
:1051E000860B0F5F1F4FF2CF81E097CF87EA91E0E8
:1051F0000E94E7328C010E948D038AED94E0F80151
:1052000091838083EC56FF4F148215828AE09F01C0
:105210002A5F3F4FD901B82E1D92BA94E9F7108A40
:105220007196148215822F5E3F4FD9011D928A9587
:10523000E9F7108A71961082D801A954BF4F80E80F
:10524000E2E8F2E001900D928A95E1F7D801A95CBD
:10525000BE4F80E7E2E0F3E088CF8EE091E00E946D
:10526000E7328C010E948D038CEE94E0F80191836B
:10527000808388E090E00E94E73225E1DC01179608
:105280002C93F801EA56FF4F9183808388E090E0E9
:105290000E94E73225E0FC012783F801E856FF4F22
:1052A0009183808332969FEB9083319681E4808353
:1052B0003196908331968083D801A256BF4F80E704
:1052C000E2E7F3E052CF83E897E00E94660D61E8E1
:1052D00083E897E00E94860B61E083E897E00E94F4
:1052E000860BE5ECF4E0F0938F07E0938E07849152
:1052F000E6ECF4E0E491F82F319709F0F1C0109258
:105300008C0783E897E00E94660D11E010939107E7
:105310006EE183E897E00E949A0B82E08093910708
:105320008EEB94E00E94FD0C1093910762E083E8FD
:1053300097E00E948E0B0E94AE0F81E090E00E94E9
:105340007032873008F080E0A0917407B091750743
:1053500017968C931797ED91FC9111970190F0811E
:10536000E02DCD01099564E170E080E090E00E94BD
:1053700035048091740790917507DC01ED91FC91E3
:105380000280F381E02D099564E170E080E090E017
:105390000E9435048091740790917507DC01ED91AE
:1053A000FC910280F381E02D0995A0917407B091E2
:1053B000750751968C91519780FF96C081E01796A2
:1053C0008C9317974E99B6C017961C9183E897E077
:1053D0000E94660D45E050E068E375E083E897E0E1
:1053E0000E9467040E94FC146CED75E080E090E080
:1053F0000E94350483E897E00E94660D81EB94E0FB
:105400000E94041583EA94E00E94041586E994E062
:105410000E94041564EF71E080E090E00E94350482
:1054200081E0812C912C540101E0FF24F3944E99EA
:1054300061C0F12C813089F48FB7F89480907B079C
:1054400090907C07A0907D07B0907E078FBF60E1B1
:1054500070E080E090E00E9435042FB7F8948091CE
:105460007B0790917C07A0917D07B0917E072FBFAD
:1054700088199909AA09BB09893E9340A105B1057C
:1054800010F40C94533283E897E00E94660D8EE886
:1054900094E00E94041587E894E00E94FD0C812F9F
:1054A0000E94180D0E94FC140E94FC1483E794E0F3
:1054B0000E94FD0C60ED77E080E090E00E943504F2
:1054C000612F81E090E00E94783288E19EE00FB683
:1054D000F894A895809360000FBE90936000FFCF72
:1054E00081E080938C070DCF81FF6CCF17961C92C3
:1054F000179768CF81110C94503260E170E080E022
:1055000090E00E94350481E0011106C0882379F003
:105510001F5F133008F010E007E025E04FE760E080
:1055200083E897E00E94310D812F0E94180D00E062
:105530008F2D7BCFED91FC9111970484F585E02DA3
:10554000CD01099561E083E897E00E948E0B60E051
:1055500083E897E00E949A0BE0917407F091750739
:10556000878181111DC188E50E942C0D80917407EF
:105570009091750721E032E0DC0114963C932E9364
:105580001397ED91FC910084F185E02D09958C0134
:105590008091740790917507DC01ED91FC91028474
:1055A000F385E02D099520919601E0917407F09123
:1055B00075073781309368079093E2068093E10680
:1055C0002093E0061093DF060093DE0684B7877F02
:1055D00084BF0FB6F894A89580916000886180938D
:1055E0006000109260000FBE80E830E020E00FB64F
:1055F000F89480936100209361000FBE8091D800E1
:105600008F7E8093D8008091D70081608093D700EF
:1056100084E082BF81E08093DD068091D8008E7F98
:105620008093D8001092E2001092DA001092E1000C
:105630008091D8008F778093D8008091D8008068BF
:105640008093D8008091D8008F7D8093D80019BCBA
:10565000109269071092DC061092DB068091E00040
:105660008B7F8093E0008091D80081608093D80088
:1056700042E360E080E00E94C8148091E1008E7FE8
:105680008093E1008091E20081608093E20080914C
:10569000E20088608093E2008091E0008E7F80933A
:1056A000E0008091D80080618093D80078940E94B7
:1056B00010040091760710917707209178073091B8
:1056C0007907AB01BC01401B510B620B730B80913E
:1056D000970190919801B0E0A0E0C12C48175907BC
:1056E0006A077B07B0F08091740790917507DC0121
:1056F000ED91FC910280F381E02D0995C82E0E9466
:1057000010046093760770937707809378079093DF
:105710007907D12C80919601D81608F01CC680918B
:10572000740790917507DC01ED91FC910680F7817B
:10573000E02D6D2D09950091740710917507ED2CE2
:10574000F12CF8018781843009F487C108F037C053
:10575000882309F469C093E1813009F400C298E01C
:10576000833009F0B8C18FE08E9DF0018F9DF00D60
:105770001124E00FF11FE089EF70E150EA3008F0EA
:10578000A9C3F0E0EA53F44D0C94E132F52E622FF8
:105790006A2F662F682F642F6A2F5E2F5A2F602F73
:1057A000813011F483E5E0CE823011F488E4DCCE60
:1057B0008350843010F48DE4D7CE85E4D5CE853087
:1057C00009F469C195E0863009F0C9CF8FE08E9D5C
:1057D000F0018F9DF00D1124E00FF11F2189328916
:1057E000A9014170552782E021FF80E0842B22FF30
:1057F00067C424E0822B8093E3068FE08E9DF00146
:105800008F9DF00D1124E00FF11F2589368930930B
:10581000E5062093E4062789308D3093E706209330
:10582000E60623EE36E08EC094E18FE08E9DF00117
:105830008F9DF00D1124E00FF11F2089822F8170C0
:1058400032E021FF30E0832B34E022FF30E0832B75
:1058500023FF6FC128E0822B2FE02E9DF0012F9DAA
:10586000F00D1124E00FF11F2189328940E131FF51
:1058700040E0842B40E230FF40E0842B40E432FFE4
:1058800040E0842B40E833FF40E0842B80935201BA
:10589000A901E4E056954795EA95E1F7417082E069
:1058A00025FF80E0842B44E034FF40E0842B40E17E
:1058B00020FF40E0842B40E221FF40E0842B40E4C5
:1058C00022FF40E0842B40E823FF40E0842B8093BC
:1058D00053018FE08E9DF0018F9DF00D1124E00F9C
:1058E000F11F4589568950585093570140935601EE
:1058F0004FEF5FE76789708DDA01A61BB70BB09396
:105900005901A0935801618D728D705870935B019D
:1059100060935A01638D748D461B570B50935D0144
:1059200040935C01D801AE0DBF1D9E968C918823DB
:1059300009F401C1858D80935401868D80935501B2
:1059400020E531E030936C0720936B0790936A0752
:1059500080916907843009F074C082E08093E90087
:105960008091E80082FF2AC08091E80085FF21C075
:10597000809168078111C2C40E947A14811108C005
:1059800050E040E068E070E0CE0101960E94C5263C
:10599000898181110EC08A81883059F4F701EE0F98
:1059A000FF1FEE0FFF1FE00FF11F8C8185AB8D8174
:1059B00087AB8091E8008B778093E800870186E0D1
:1059C000000F111F8A95E1F70851194F40916A079E
:1059D00050E060916B0770916C07C8010E94113410
:1059E000892B79F180916807853009F094C481E0B2
:1059F0008093E9008091E80080FF23C0E0906A076F
:105A0000A0906B07B0906C070E947A14F12C882349
:105A100009F494C48091E8008E778093E800E090C8
:105A20006A07F12CA0906B07B0906C07A701B50135
:105A3000C8010E941E34A70170E060E0C5010E9409
:105A400027340E94F022E0917407F0917507878156
:105A5000882309F480C4D3945DCE97E08FE08E9DB7
:105A6000F0018F9DF00D1124E00FF11FE089EF7020
:105A7000E150EA3008F09BC2F0E0EF5BF24D0C948D
:105A8000E1326C2FCF2FD72FD32FD52FD12FD72F58
:105A9000CB2FC72FCD2F94E0DD2019F093E0D1104C
:105AA00002C381E080938601D8015096EC91EF709B
:105AB000E150EA3008F0F2C2F0E0EF59F24D0C94F8
:105AC000E132D92F46304E304A304C3048304E30DB
:105AD00042303E304430843018F5882309F4A5CE96
