:100000000C946D030C9495030C9495030C94950338
:100010000C9495030C9495030C9495030C94950300
:100020000C9495030C9495030C9453260C9495030F
:100030000C9495030C9495030C9495030C949503E0
:100040000C9495030C9495030C9495030C949503D0
:100050000C9495030C9495030C9495030C94F51C47
:100060000C9495030C9495030C9495030C949503B0
:100070000C9495030C9495030C9495030C949503A0
:100080000C9495030C9495030C9495030C94950390
:100090000C9495030C9495030C9495030C94950380
:1000A0000C9495030C9495030C949503AED580A8FD
:1000B0003FD300408D142002A1C8DA12817FD9F10C
:1000C000DB40A4A6AF1201000200000040D0167E63
:1000D0001200010102030112010002000000400DA4
:1000E0000F920000010102030112010002FFFFFF55
:1000F000405E048E021401010203010904000001A4
:1001000003000000092111010001224600070581BA
:10011000034000010902220001010080320902228D
:100120000001010080320904000001030000000901
:10013000211101000122510007058103400001093E
:1001400004000001030000000921110100012256F2
:100150000007058103400001090229000101008018
:10016000FA09211101000122460005010905A1013A
:10017000150025013500450175019518050919017E
:100180002918810205012507463B01750495016583
:10019000140939814265009501810126FF0046FF5F
:1001A000000930093109350936750895048102C006
:1001B00005010905A10105091901290315002501FA
:1001C0007501950355006500810275019505810350
:1001D00005010901150026FF0375109502A100090C
:1001E0003009318102C0C005010905A1018501A1C5
:1001F0000005091901290C150025019510750181CB
:100200000205010939150025073500463B0175082F
:10021000950165148142C0C005010902A101850252
:100220000901A100093009311581257F3581457FFC
:10023000950275088106C0C005010904A101A1004D
:100240000509190129101500250195107501810274
:1002500005010901A100093009311580257F9502AA
:1002600075088102C009371580257F9501750881C1
:10027000060938150026FF00950175088102093925
:10028000150025073500463B017508950165148169
:1002900042C0C005010905A1011500250135004531
:1002A000017501950E05091901290E81029502813A
:1002B0000105012507463B017504950165140939BF
:1002C000814265009501810126FF0046FF0009304B
:1002D000093275089502810205027508950315001B
:1002E00026FF0009BB09C509C88102C0050109052F
:1002F000A10115002501350045017501951005097D
:1003000019012910810205012507463B0175049555
:100310000165140939814265009501810126FF00BC
:1003200046FF000930093109320935750895048105
:10033000020600FF092009210922092309240925B1
:100340000926092709280929092A092B950C810260
:100350000A21269508B102C04A4F47434F4E004636
:100360004C49474854535449434B004455414C531E
:10037000484F434B004A4554004E4547434F4E00BB
:10038000504F50204E004E2F4100444947495441A0
:100390004C00535749544348004552524F5200486D
:1003A00049440058494E505554005053580057493D
:1003B000490033444F0000030C0F30333C3FC0C3AF
:1003C000CCCFF0F3FCFF0000000200090F00000397
:1003D0000401000C0000000000000000000000000C
:1003E00000000000004445564943452057494C4C05
:1003F0002052455354415254004D4F44453A200039
:100400005341564544210A00484F4C443A2020535A
:100410004156450A0050524553533A204348414EF5
:100420004745004F5554505554204D4F44450A0000
:100430005245464C45580000000507206100000069
:10044000000000005F0000607078706060504850ED
:100450006003070F07030305090503081C3E7F7FA0
:10046000081C22417F7F7F3E1C087F41221C080818
:100470002A1C2A0808083E08080050300000080816
:10048000080808006060000020100804023E51497E
:10049000453E00427F400042615149462141454B63
:1004A000311814127F1027454545393C4A494930D7
:1004B00001710905033649494936064949291E0093
:1004C000363600003C7E7E7E3C3C4242423C141468
:1004D000141414F0F0F0F0F0F0909090F0324979AC
:1004E000413E7E1111117E7F494949363E414141CD
:1004F000227F4141221C7F494949417F090901016D
:100500003E414151327F0808087F00417F41002071
:1005100040413F017F081422417F404040407F021C
:1005200004027F7F0408107F3E4141413E7F09095C
:1005300009063E4151215E7F09192946464949492C
:100540003101017F01013F4040403F1F2040201FFB
:100550007F2018207F631408146303047804036168
:100560005149454300007F414102040810204141A8
:100570007F0000383C1E0F074040404040382412A6
:10058000090720545454787F48444438384444443C
:1005900020384444487F3854545418087E090102D6
:1005A000081454543C7F0804047800447D40002023
:1005B00040443D00007F10284400417F40007C04FF
:1005C0001804787C0804047838444444387C1414B3
:1005D0001408081414187C7C080404084854545463
:1005E00020043F4440203C4040207C1C2040201CF4
:1005F0003C4030403C44281028440C5050503C446F
:1006000064544C44E0E0E0E0E000007F0000E0A043
:10061000A0A0E008082A1C08081C2A0808000609EF
:100620000906AC00198040005245424F4F54494ED4
:10063000472E2E2E004E4F4E45004E4F5420535500
:1006400050504F525445440044524157534F4D452A
:10065000005544524157005455524E5441424C4566
:10066000004452554D0047554954415200434C41B6
:1006700053534943004E554E4348554B000000002C
:1006800000250028002B002E00310000000000246F
:100690000027002A002D0030000404040404030491
:1006A0000502020202040302020202060606060610
:1006B00006040402020204040408020110408040FF
:1006C0001020408040800802040180402010020178
:1006D0001080102040402000613111241FBECFEF58
:1006E000DAE0DEBFCDBF15E0A0E0B1E0ECE9F6E670
:1006F00002C005900D92AE36B107D9F728E0AEE6FC
:10070000B5E001C01D92A430B207E1F713E0CDE6D9
:10071000D3E004C02197FE010E94FF31CC36D107FF
:10072000C9F70E9435270C944C330C940000CF93EA
:10073000DF93EC0181EF94E0998388831A8280E053
:1007400093E09C838B8380E09CE09E838D831F825B
:10075000188681E089878EE1E4EAF1E0DE015096B7
:1007600001900D928A95E1F71FA61EA619AA18AA54
:100770001BAA1AAAFE01F49688E0DF011D928A9551
:10078000E9F71CAE1DAE1FAE1EAE3C961182108264
:1007900032968FEF9FE79183808332969183808397
:1007A0003296918380833296918380833296108231
:1007B000C55BDF4F1882DF91CF91089590E0FC0177
:1007C000E854F94F24918756994FFC01849188236E
:1007D00099F090E0880F991FFC01E557F94FA5911A
:1007E000B491FC01E358F94F859194918FB7F89437
:1007F000EC91E22BEC938FBF08953FB7F894809172
:10080000EA079091EB07A091EC07B091ED0726B5B0
:10081000A89B05C02F3F19F00196A11DB11D3FBF38
:10082000BA2FA92F982F8827BC01CD01620F711D07
:10083000811D911D42E0660F771F881F991F4A9501
:10084000D1F708958F929F92AF92BF92CF92DF928D
:10085000EF92FF924B015C010E94FD036B017C0152
:100860000E94FD036C197D098E099F09683E734043
:1008700081059105A8F321E0821A9108A108B10829
:1008800088EEC80E83E0D81EE11CF11C811491048F
:10089000A104B10429F7FF90EF90DF90CF90BF90B3
:1008A000AF909F908F9008952FB7F8946091E607CE
:1008B0007091E7078091E8079091E9072FBF0895AD
:1008C0004F925F926F927F92AF92BF92CF92DF92E0
:1008D000EF92FF920F931F93CF93DF93EC016B0185
:1008E0007B01E40EF51E8B015801AC18BD080E15F6
:1008F0001F0511F10E945404688779878A879B87B6
:10090000E881F9810284F385E02DCE01099597FFF6
:1009100023C00E945404488459846A847B846419E7
:100920007509860997094C805D806E807F8064150B
:1009300075058605970520F3C501DF91CF911F91BD
:100940000F91FF90EF90DF90CF90BF90AF907F908E
:100950006F905F904F900895F80181938F01C4CFFD
:10096000AF92BF92CF92DF92EF92FF920F931F93BD
:10097000CF93DF936C017B018B01040F151FEB01FB
:100980005E01AE18BF08C017D10759F06991D601B2
:10099000ED91FC910190F081E02DC6010995892B24
:1009A00079F7C501DF91CF911F910F91FF90EF90E3
:1009B000DF90CF90BF90AF900895CF93CFB7F894CA
:1009C0008091450781115AC04AEA56E0FA01949194
:1009D00029EC36E0F9018491E92FF0E0EE0FFF1FDA
:1009E000E557F94FA591B4919C91982309F037C030
:1009F000E7EDF3E09491F9012491FA0184918823C1
:100A000009F42DC09923E9F091509F30D0F4E92FDB
:100A1000F0E0E35FFA4F0C94FF314E0552051C05E0
:100A200046054A0521052105210555055B055F059C
:100A30006305690521056D05909180009F7790936E
:100A40008000E82FF0E0EE0FFF1FE358F94FA5916B
:100A5000B4918FB7F8949C91292B2C938FBF81E18F
:100A60000E94DE038CB580618CBD8CB580648CBD2A
:100A70008FE00E94DE0380E10E94DE038091450743
:100A80008F5F80934507CFBFCF91089590918000ED
:100A90009F7DD5CF90918000977FD1CF94B59F77E0
:100AA00094BDCFCF94B59F7DFBCF909190009F7761
:100AB00090939000C6CF909190009F7DF9CF909138
:100AC0009000977FF5CF9091C0009F779093C000E2
:100AD000B8CF9091C0009F7DF9CF9091C200977FD1
:100AE0009093C200AECFCF93DF93EC018A85882329
:100AF00029F081508A87DF91CF9108959C818E8162
:100B00009817C8F78D856827E881F9810084F185F9
:100B1000E02D42E0CE0109958C818F5F8C83EBCF75
:100B200081E00895CF93DF93EC01E881F9810280A1
:100B3000F381E02D0995EA81FB819281981731F0CC
:100B4000813011F4911103C080E001C081E0DF9198
:100B5000CF91089581E0089583E00895DC01129615
:100B6000ED91FC91139714968C9181110BC08085A7
:100B700090E023E0959587952A95E1F780959095EB
:100B8000817008958285F4CFDC011296ED91FC917D
:100B9000139714968C9181110BC0808590E024E00E
:100BA000959587952A95E1F78095909581700895A0
:100BB0008285F4CFDC011296ED91FC911397149687
:100BC0008C9181110AC0808590E0959587959595C7
:100BD000879580959095817008958285F5CFDC0189
:100BE0001296ED91FC91139714968C9181110AC085
:100BF000818590E0959587959595879580959095B9
:100C0000817008958385F5CFDC011296ED91FC91FA
:100C1000139714968C9181110AC0818590E0880FFA
:100C2000892F881F990BB1E08B27817008958385E8
:100C300090E0880F892F881F990B21E08227F5CF3C
:100C4000DC011296ED91FC91139714968C91811111
:100C500008C0808590E095958795809590958170E6
:100C600008958285F7CFDC011296ED91FC911397E0
:100C700014968C9181110BC0808590E025E09595AC
:100C800087952A95E1F780959095817008958285E2
:100C9000F4CFDC011296ED91FC91139714968C9190
:100CA00081110BC0818590E025E0959587952A9567
:100CB000E1F780959095817008958385F4CFDC01EC
:100CC0001296ED91FC91139714968C9181110BC0A3
:100CD000818590E023E0959587952A95E1F78095A9
:100CE0009095817008958385F4CFDC011296ED9183
:100CF000FC91139714968C9181110BC0818590E023
:100D000026E0959587952A95E1F7809590958170D5
:100D100008958385F4CFDC011296ED91FC91139731
:100D200014968C9181110BC0818590E024E09595FB
:100D300087952A95E1F78095909581700895838530
:100D4000F4CFDC011296ED91FC91139714968C91DF
:100D5000811108C0818590E0959587958095909543
:100D6000817008958385F7CFDC011296ED91FC9197
:100D7000139714968C9181110BC0808590E026E02A
:100D8000959587952A95E1F78095909581700895BE
:100D90008285F4CF84E00895CF93DF93FC018781AF
:100DA0002FEF3FE7813011F420E830E8462F50E084
:100DB000DF018FE0689FA00DB11D112450969C911A
:100DC0006185892F8370823021F1833029F0813051
:100DD00021F5809344071BC0611111C081E080930D
:100DE00044079C70983009F457C09C30D1F094307F
:100DF00009F055C0846093E0909343071CC06230B3
:100E000061F480914407882341F0813021F081E032
:100E1000E8CF8093440782E0E4CF1092440780E05B
:100E2000E0CF6230E1F5909143079923C1F193300F
:100E300089F194E0892B9FE0949FD001959FB00D9C
:100E40001124AE0FBF1F50968C9350978085EF01F1
:100E5000C40FD51F813031F1823009F46CC088A9EC
:100E6000811108C056963C932E93559758963C9303
:100E70002E9357978AA9811155C06FE0649FC001D6
:100E8000659F900D1124E80FF91F328F218F348F49
:100E9000238F48C098E0CECF886094E0ADCF109209
:100EA0004307C9CF8AA9811108C05A963C932E9353
:100EB00059975C963C932E935B978FE0849FD0016B
:100EC000859FB00D1124AE0FBF1F50968C918C7072
:100ED000843071F1883049F58FEF9FEF2FE0249F28
:100EE000D001259FB00D1124AE0FBF1F56969C93C5
:100EF0008E93559750968C91837030E020E081302E
:100F000031F02FEF3FEF823011F02FEF3FE76FE02E
:100F1000649FC001659F900D1124E80FF91F308F69
:100F2000278B108ADF91CF9108958FEF9FE7D6CF5F
:100F300090E080E0D3CF88A9811108C056963C93F9
:100F40002E93559758963C932E9357978FE0849FF6
:100F5000D001859FB00D1124AE0FBF1F50968C910C
:100F60008C70843059F1883031F58FEF9FEF2FE08E
:100F7000249FD001259FB00D1124AE0FBF1F5A969C
:100F80009C938E93599750968C91837030E020E01B
:100F9000813031F02FEF3FEF823011F02FEF3FE73C
:100FA0006FE0649FC001659F900D1124E80FF91F49
:100FB000348F238FB6CF8FEF9FE7D9CF90E080E0BB
:100FC000D6CFCF93DF93DC0113962D913C911497EC
:100FD000C62FD0E0FC018FE0689FE00DF11D1124C9
:100FE00061897289C901862397232817390709F077
:100FF0004BC080898F70823071F128F48130C9F143
:1010000090E080E021C0843089F08830C9F782E028
:1010100018968C93108A209530958189928928237F
:101020003923328B218B84E090E00EC081E018964A
:101030008C93108A209530958189928928233923B1
:10104000328B218B82E090E090934207809341079E
:10105000DF91CF91089518961C92108A20953095B3
:101060008189928928233923328B218B81E090E07A
:10107000EBCF108A20953095262337233061328BB1
:10108000218B88E090E0E0CF15964D915C9116970A
:10109000642375234617570709F0B2CF80898F70F4
:1010A000823009F440C088F4813009F0A9CF199644
:1010B0001C92108A40955095818992894823592322
:1010C000528B418B80E290E0BFCF8430D9F18830E1
:1010D00009F096CF80914107909142078115924087
:1010E00041F01B968C911B9791E089271B968C935E
:1010F0001B972FE02C9FC0012D9F900D1124A80F4E
:10110000B91F50961C9250974095509551968D91CD
:101110009C9152974823592352965C934E93519732
:1011200080E092E091CF81E019968C93108A4095EF
:1011300050958189928948235923528B418B80E4B1
:1011400090E082CF82E019968C93108A409550955A
:101150008189928948235923528B418B80E890E002
:1011600073CF8FB7F894809140078FBF089584E9BB
:101170008093BC0085E69091BC0094FF03C0815031
:10118000D1F7089581E008956EBD00000DB407FE0B
:10119000FDCF8EB508952A9A299A8C9A83EC90E017
:1011A0000197F1F708952A9A299A469A83EC90E0DC
:1011B0000197F1F708958091D8078F5F843018F474
:1011C0008093D807089581E0FBCF86569F4F21E09A
:1011D000FC012083089589E091E0089589EF94E06F
:1011E00008950895DC019C96EC919C979D962C9116
:1011F000E21730F4E80FF92FF11D848590E008958F
:101200008FEF9FEF0895FC0194A585A52FEF3FEF89
:10121000981740F4DF01A90FB11D1C962C9130E006
:101220009F5F94A7C9010895FC0185A594A5891B1A
:10123000990B0895CF92DF92EF92FF920F931F9335
:10124000CF93DF936C01EB017B01E40EF51E10E000
:1012500000E0CE15DF0561F06991D601ED91FC91BA
:101260000190F081E02DC6010995080F191FF1CFFB
:10127000C801DF91CF911F910F91FF90EF90DF9008
:10128000CF9008950895549A5C9A3E9A469A3F9852
:101290004798479A8BE891E00197F1F783E290E055
:1012A0000197F1F782E080939B0184EF91E09093A6
:1012B0009D0180939C0162E370E080E090E00C94DB
:1012C000220485E091E0089580E095E008958DE0A6
:1012D00091E00895FC01E456FF4F208121111CC0CC
:1012E00032972081222349F083569F4FFC01808151
:1012F000811115C081E295E00895FC01E556FF4F8C
:101300002081222379F08D559F4FFC01808181112E
:101310000CC08DE295E0089587E095E0089583E1A3
:1013200095E008958AE495E008958EE395E00895A8
:101330008CBD9DBD08958C9880913E0790913F078C
:101340000E94980983EC90E00197F1F70895469880
:1013500080913E0790913F070E94980983EC90E0AE
:101360000197F1F708958F929F92AF92BF92CF921B
:10137000DF92EF92FF920F931F93CF93DF937C0145
:101380006B015A01022F10E0D0E0C0E083EC882E00
:10139000912CC017D107E1F0D701ED91FC910480A9
:1013A000F581E02D6AE5C114D10421F0D601AC0F1E
:1013B000BD1F6C91C7010995A114B10421F0F5017D
:1013C000EC0FFD1F8083C4010197F1F72196E1CF57
:1013D000DF91CF911F910F91FF90EF90DF90CF9011
:1013E000BF90AF909F908F900895CF92DF92EF9231
:1013F000FF920F931F93CF93DF937C016B01D42F48
:101400008C010E5F1F4F23E0A8010E94B309F70172
:1014100023812F3F61F410E000E0C801DF91CF91FC
:101420001F910F91FF90EF90DF90CF9008958481EE
:101430008A3511F08111EFCF2F70C22FCC0FD3302E
:1014400059F0B6016D5F7F4F2DEF2D0FA7014B5F58
:101450005F4FC7010E94B3092C2F2D1B2D5FE9F2AE
:101460004D2F50E0CA01820F911D8197A4F6400FC5
:10147000511F70E060E0C7010E94B309CECFCF9248
:10148000DF92EF92FF920F931F93CF93DF93EC01C4
:101490000E9454046B017C01E881F9810190F08184
:1014A000E02DCE01099544E06AE374E0CE010E948C
:1014B000F5098C01E881F9810280F381E02DCE01EC
:1014C00009950115110529F0F8018181807F803F80
:1014D00011F56AE070E080E090E00E9422040E9432
:1014E00054046C197D098E099F096B3F71058105B4
:1014F000910590F2C0E062E370E080E090E00E942D
:1015000022048C2FDF91CF911F910F91FF90EF90CC
:10151000DF90CF900895C1E0EECF4F925F926F922F
:101520007F928F929F92AF92BF92CF92DF92EF9273
:10153000FF920F931F93CF93DF93CDB7DEB7299719
:101540000FB6F894DEBF0FBECDBFFC01E556FF4FCE
:10155000D080D110B9C08C010C561F4FD801ED902E
:10156000FC900E9454042B013C01D701ED91FC91A9
:101570000190F081E02DC701099544E068E474E032
:10158000C7010E94F5095C01D701ED91FC91028031
:10159000F381E02DC7010995A114B10431F0F501E3
:1015A0008181807F803F09F4A6C06AE070E080E01E
:1015B00090E00E9422040E9454046419750986096F
:1015C00097096B3F71058105910578F262E370E040
:1015D00080E090E00E942204DD2009F475C0D8016B
:1015E000ED90FC9089E0EAE5F4E0DE0111960190CF
:1015F0000D928A95E1F70E9454044B015C01712C15
:10160000D701ED91FC910190F081E02DC701099582
:1016100045E0BE016F5F7F4FC7010E94F5096C0175
:10162000D701ED91FC910280F381E02DC70109956E
:10163000CD2809F07394B2E0B71588F06AE070E045
:1016400080E090E00E9422040E9454046819790905
:101650008A099B096B3F71058105910588F262E358
:1016600070E080E090E00E94220481E0F70181AF09
:10167000D801ED90FC90D701ED91FC910190F081A3
:10168000E02DC701099543E061E574E0C7010E94C0
:10169000F5096C01D701ED91FC910280F381E02DF9
:1016A000C7010995C114D10451F0F601838183303B
:1016B00031F488EB9BE090939D0180939C01D801CD
:1016C0008D919C910E943F0A29960FB6F894DEBF37
:1016D0000FBECDBFDF91CF911F910F91FF90EF9083
:1016E000DF90CF90BF90AF909F908F907F906F9042
:1016F0005F904F900895DD24D39468CFCF92DF920E
:10170000EF92FF921F93CF93DF93EC01849A3E9A5E
:101710008C9A469AFC01EA56FF4F808191817E01A6
:1017200024E9E20EF11CD7018D939C932AEF30E05F
:1017300030939D0120939C01DC01ED91FC9106808A
:10174000F781E02D0995FE01E656FF4F6F0110E08D
:101750008823A1F091E035969083D701ED91FC911B
:10176000119716A11D961C931730E1F581E0FE013B
:10177000E456FF4F8083CE010E948D0AF6018081DE
:10178000811128C0FE01E556FF4F8081811122C0E2
:101790003196808181111EC01130D9F5D701ED91AC
:1017A000FC9184A195A1809590959C01207C332784
:1017B000203C310539F485FF05C08EE0FE01E2567C
:1017C000FF4F808382E080939B0181E088AB8AABEE
:1017D00089AB8BABDF91CF911F91FF90EF90DF90A2
:1017E000CF900895153071F4D6019C9324A135A1B2
:1017F0002095309535FFBFCFFE01E356FF4F808126
:101800008927B8CF84A195A18095909580FDAECF12
:10181000B2CF1230B9F6D701ED91FC9184A195A118
:10182000807A9927892B71F681A593A5992351F286
:101830008F3F41F688EE93E090939D0180939C0149
:101840008CE0BCCFEF92FF920F931F93CF93DF9367
:1018500000D000D01F92CDB7DEB78C01DC019B9683
:101860001C929B97D8961C92D897ED91FC91019071
:10187000F081E02D0995F80181AD811108C082AD9C
:10188000803409F044C083AD813009F040C085E068
:10189000E3E4F4E0DE01119601900D928A95E1F700
:1018A000D80196968C919697863059F5DC968C9156
:1018B0008C8345E0BE016F5F7F4FC8010E94F50930
:1018C0007C01D801ED91FC910280F381E02DC801EB
:1018D0000995E114F10441F0F7018181807F803F97
:1018E000D1F4C8010E943F0A80E00F900F900F9042
:1018F0000F900F90DF91CF911F910F91FF90EF907C
:101900000895F80182AD8C8383AD8D83D2CF43E0FF
:1019100063E474E0D2CFD80194968D919C91959711
:1019200093969C938E9392972381348195963C93C2
:101930002E9394978181893781F483E096968C93D6
:10194000D80196968C919697843041F108F58230B3
:1019500029F18330C9F181E0C8CF982F907F90376B
:1019600019F482E0D801EACF903521F484E0F8013F
:1019700086A3E6CF833211F485E0F4CF903E11F4D4
:1019800086E0F5CF833611F487E0ECCF81E0EFCF2E
:10199000863009F45CC030F18730E9F681E0D80187
:1019A0009B968C939B97F701858199968C93999739
:1019B00086819A968C939A97878197968C9397971E
:1019C000808598968C93C7CF81E0F80180AFF701AE
:1019D00039969C96C701459621912D93E817F907F2
:1019E000D9F7DCCF81E09B968C939B97F70195818B
:1019F00097969C939797D8968C93D8978681D296F2
:101A00008C93D2979781D3969C93D3974085D49605
:101A10004C93D49797FF05C03F7795963C932E93B0
:101A2000949787FF0AC0D80194968D919C919597C1
:101A30009F7B95969C938E939497403F08F48BCF11
:101A4000F80184A195A19B7F95A384A384CF81E015
:101A50009B968C93F7019681858197FD1AC087FD2F
:101A60008FE7D80197968C93D80197968C9197978A
:101A7000805897968C939797F70185819C968C93C5
:101A80009C9786819D968C939D9787819E968C933B
:101A900062CF813808F481E8F80187A3E5CFFC0123
:101AA0006093BC002FEF3FEF8091BC0087FF06C022
:101AB0009091B900987F908381E008952150310979
:101AC00099F780E00895CF93DF93EC016093BB001A
:101AD00064E80E944F0D882329F081E098819832B4
:101AE00009F080E0DF91CF910895DF92EF92FF92AD
:101AF0000F931F93CF93DF93EC01D62EF42E898999
:101B0000882329F0411103C00E94B708198A8E0169
:101B1000015F1F4F8989811119C0E88864EAC801F3
:101B20000E944F0D882361F08F85883011F080313D
:101B300039F4EE0CE092BB0064E8C8010E944F0D3E
:101B400060E0F11060E4C8010E94630D6D2DC801D2
:101B50000E94630D82E0F8120BC089898F5F898B28
:101B6000DF91CF911F910F91FF90EF90DF9008953B
:101B70000E94B708198AF4CFDC01ED91FC91008432
:101B8000F185E02D40E00994FC01278126952695FA
:101B90002695621720F46583606B0C94BC0D089544
:101BA0000F931F93CF93FC012681621798F4C62FE1
:101BB0008C0164836085C60F6C2F6F700E94BC0D12
:101BC0006C2F62956F706061C801CF911F910F916A
:101BD0000C94BC0DCF911F910F9108951F93CF933B
:101BE000DF93EC01142F0E94D00D612FCE01DF9105
:101BF000CF911F910C94C40D2F923F924F925F9200
:101C00006F927F928F929F92AF92BF92CF92DF920C
:101C1000EF92FF920F931F93CF93DF9300D000D0EA
:101C200000D0CDB7DEB7FC01238534852115310501
:101C300009F416C19E838D83F90132966490319622
:101C40004491E42EF12CF7E0EF0EF11C53E0F594F3
:101C5000E7945A95E1F7E982F90134965491319667
:101C6000E4916D30F1F460E00E94D00D81E090E0ED
:101C700026960FB6F894DEBF0FBECDBFDF91CF9191
:101C80001F910F91FF90EF90DF90CF90BF90AF909A
:101C90009F908F907F906F905F904F903F902F908C
:101CA00008956A3081F460E08D819E810E94D00D9C
:101CB000ED81FE81868565818E9D600D1124CF01A9
:101CC0000E94C40DD3CF651708F4CAC08E2F90E0D0
:101CD000FC01E50FF11D6E171F060CF0C1C0890154
:101CE0000A5F1F4F651BED81FE8171855685759FCB
:101CF000502D11245C83F90154912F5F3F4FF9015E
:101D00002491352F2230310508F06AC06E9CC00145
:101D10006F9C900D1124689FF001699FF00D1124B4
:101D20000E0F1F1F512CED81FE81F481FA83ED818E
:101D3000FE812580F285FB83862C912CAA24A39416
:101D4000B12C312C8981381608F086C0412CED81E8
:101D5000FE818685481608F078C08B818287311015
:101D600002C0442041F0ED81FE8145814F5F6A81D0
:101D7000CF010E94EE0DD12CC12CC61408F058C022
:101D8000F801EC0DFD1D7490552061F0EA14FB0480
:101D900049F4E72DF0E0052C02C0F595E7950A948B
:101DA000E2F77E2EED81FE818685823081F444202B
:101DB00009F43AC072948FE07822E72DF0E0EA54FB
:101DC000FC4F7490672D8D819E810E947305672D55
:101DD0008D819E810E9473058FEFC81AD80ACDCFDE
:101DE000477028E0522E541A411101C0512CF801BD
:101DF000612C30E020E0661631F04491240F311D53
:101E000063943196F8CF600E712E711CF3016490CB
:101E1000E29EF001E39EF00DF29EF00D11248E0F74
:101E20009F1F080F191F7FCFF72DFF707F2EC5CF83
:101E3000D12CEC81DE1639F060E08D819E810E940C
:101E40007305D394F6CF439482CF3394080D191DB4
:101E5000FFEFAF1ABF0A76CF622D8D819E8130CF02
:101E600090E080E005CF0F931F93CF93DF938C0119
:101E7000D0E0C0E0F801EC0FFD1F6491662341F053
:101E80008EEE97E00E94FC0D892B11F02196F2CF87
:101E9000CE01DF91CF911F910F910895811104C060
:101EA00083EA93E00C94330F813019F482E993E0D4
:101EB000F9CF8250853018F48FE993E0F3CF89E9A8
:101EC00093E0F0CF682F8EEE97E00C94FC0DCF924C
:101ED000DF92EF92FF920F931F93CF93DF93EC016A
:101EE000F62EC42ED22E1A868F81869586958695DB
:101EF000081710F00FEF080F1D2D011780F0412F6C
:101F00006F2DCE010E94EE0DEF2CCE1430F06D85BA
:101F1000CE010E947305E394F8CF1F5FEECF4D2DE5
:101F20006F2DCE01DF91CF911F910F91FF90EF9018
:101F3000DF90CF900C94EE0D0F93FC010781069576
:101F40000695069501504681415020E060E00E94D0
:101F5000670F0F9108954F925F926F927F928F92C9
:101F6000AF92CF92EF92FF920F931F93CF93DF9395
:101F7000CDB7DEB72701380194E0899F8001112495
:101F8000F801E451F94F80819181A281B3818E21C2
:101F90009521A621B72131E0892B8A2B8B2B09F4BF
:101FA00030E03C1103C088898823F1F0C11001C0E2
:101FB000A82C2D5F640F422F8EEE97E00E94EE0D4D
:101FC0008A2D0E94620FF801E451F94FCC20D1F024
:101FD00080819181A281B38184299529A629B7297D
:101FE00080839183A283B383DF91CF911F910F915F
:101FF000FF90EF90CF90AF908F907F906F905F9019
:102000004F90089540945094609470948081918191
:10201000A281B38184219521A621B721E1CF4F92DE
:102020005F926F927F928F929F92AF92BF92CF9268
:10203000DF92EF92FF920F931F93CF93DF93D62EF1
:102040002A01B22EEC01C853DF4F3C0120EE621A88
:102050002EEF720AE62FF0E0EE0FFF1FE751FB4F65
:102060009080E880F9800A811B812C814D81AE80AF
:102070008F8081E04114510449F0F2016181728145
:102080006E217F2181E0672B09F480E0BF92C82E8A
:10209000692D8D2D0E94AB0F28960F90C615D70580
:1020A00001F7DF91CF911F910F91FF90EF90DF909B
:1020B000CF90BF90AF909F908F907F906F905F90E8
:1020C0004F900895EF92FF920F931F93CF93DF935A
:1020D0007C01C62F142FE62FF0E0EE0FFF1FE75113
:1020E000FB4FD08107E023E041816D2F8EEE97E01A
:1020F0000E94670F47E06D2F8EEE97E00E94EE0D75
:102100001230E1F4C11111C08AE893E00E94330F4C
:1021100021E050E040E06C2FC701DF91CF911F918B
:102120000F91FF90EF900C940F10C13089F3DF9165
:10213000CF911F910F91FF90EF900895C111F7CFAC
:1021400085E396E0DF91CF911F910F91FF90EF9083
:102150000C94330F6F927F928F92AF92CF92DF9257
:10216000EF92FF920F931F93CF93DF93EC01162F03
:1021700007E023E04CE360E08EEE97E00E94670FFB
:1021800047E060E08EEE97E00E94EE0D12501830AE
:1021900008F0A4C0E12FF0E0E053FF4E0C94FF31B3
:1021A0006B11D8102B114F115F116211651168115D
:1021B00085E796E00E94330F9E012E553F4FCE01DA
:1021C0008F559F4FFE01E556FF4FE080F180028161
:1021D0001381DE01A156BF4FAE0140565F4F7724F9
:1021E00073947F92F9018080FC01A080CC24C39479
:1021F0002C91FA01408160E080E00E94AB0FCE019B
:1022000086559F4FDE01A755BF4FFE01ED55FF4F8D
:10221000E080F180028113819E0129553F4FC8550E
:10222000DF4F7F92FC018080AC90F90120814881D2
:1022300060E080E00E94AB0F0F900F90DF91CF9194
:102240001F910F91FF90EF90DF90CF90AF908F9004
:102250007F906F9008958DE696E00E94330F3E01C7
:10226000FBE96F0E711CCD5EDE4FDD24D394F301CC
:10227000E080F18002811381DF928780A680CC24E8
:10228000C3942481458160E080E00E94AB0FF8E0B8
:102290006F0E711C0F906C167D0649F7CFCF86E646
:1022A00096E0DF91CF911F910F91FF90EF90DF901B
:1022B000CF90AF908F907F906F900C94330F81E60A
:1022C00096E0EFCF87E596E0ECCF81E596E0E9CFA9
:1022D00088E496E0E6CF8AE396E0E3CF85E396E0F4
:1022E000E0CF2F923F924F925F926F927F928F92A8
:1022F0009F92AF92BF92CF92DF92EF92FF920F9395
:102300001F93CF93DF93D62E342E3901B02EFC01CC
:10231000E256FF4F2081EC012E3009F042C0CB5D28
:10232000DE4F2C0123E8421A2EEF520AE62FF0E08E
:10233000EE0FFF1FE751FB4F9080E880F9800A8184
:102340001B812C814D81AE808F806114710459F006
:10235000F30184A195A1809590958E219F21CC2495
:10236000C394892B09F4C12CBF92692D8D2D0E9435
:10237000AB0F28960F90C415D505F9F6DF91CF91D4
:102380001F910F91FF90EF90DF90CF90BF90AF9093
:102390009F908F907F906F905F904F903F902F9085
:1023A0000895CB55DF4F912C8EEF282E240E462E0C
:1023B000512C440C551CC20187519B4F2C0191E0BC
:1023C000921568F48FEF890D823038F1E5E03E1206
:1023D00006C0992011F188EF890D8230F0F0E88075
:1023E000F9800A811B812C814D81AE808F80611420
:1023F000710459F0F30184A195A1809590958E21E7
:102400009F21CC24C394892B09F4C12CBF92F201E3
:1024100060818D2D0E94AB0F0F9093942896F0E170
:102420009F12CDCFABCFEF92FF920F931F93CF931D
:10243000DF937C01D62FC42FE62FF0E0EE0FFF1FB5
:10244000E751FB4F108107E023E04181612F8EEEC1
:1024500097E00E94670F47E0612F8EEE97E00E94A1
:10246000EE0DC43009F449C070F4C13029F1C23016
:10247000C1F185E396E0DF91CF911F910F91FF901D
:10248000EF900C94330FC530B9F088E593E0C63077
:1024900081F70E94330FD23040F401E030E020E0B9
:1024A0004C2F6D2FC7010E947111DF91CF911F91A9
:1024B0000F91FF90EF900895F701E256FF4F808152
:1024C0008E3019F480E893E0E4CFF701E656FF4F31
:1024D0008081811103C08AE893E0DBCF89E793E034
:1024E000D8CFF701E256FF4F80818C3019F485E791
:1024F00093E0CFCF8BE693E0CCCF8FE593E0C9CFCD
:102500000F9307E022E04FE760E08EEE97E00E9435
:10251000670F8091D807823071F08330A1F081304D
:10252000D1F466E38EEE97E00E94D00D8AEA93E044
:102530000F910C94330F66E38EEE97E00E94D00D5E
:1025400082EB93E0F5CF66E38EEE97E00E94D00D2C
:102550008EEA93E0EDCF0F91089580939A016EEA91
:1025600081116FEA8EEE97E00E94BC0D0E94540428
:102570006093D9077093DA078093DB079093DC07A9
:1025800008952F923F924F925F926F927F928F9217
:102590009F92AF92BF92CF92DF92EF92FF920F93F2
:1025A0001F93CF93DF93CDB7DEB762970FB6F89442
:1025B000DEBF0FBECDBF9C012C553F4F38872F8308
:1025C000D9011C92FC01E556FF4F2080211053C316
:1025D0004C018091000734967F012E50310969012A
:1025E000811162C08091010781115EC080818111DB
:1025F0000CC0D9018D919C91DC01ED91FC9106807C
:10260000F781E02D0995F70180838093000784010D
:1026100000561F4FD8018C9181110EC0F401E8566D
:10262000FF4F80819181DC01ED91FC910680F78163
:10263000E02D0995F80180838093010781E00E94D5
:10264000AD1207E027E04FE760E08EEE97E00E94D2
:10265000670F67E08EEE97E00E94C40D60E08EEE9B
:1026600097E00E94D00D8091000781110BC08091EE
:102670000107811103C085E396E002C086E893E07C
:102680000E94330F62E48EEE97E00E94D00D90918D
:10269000000780910107992309F453C0811104C0F8
:1026A00086E893E00E94330F2EEF36E03E832D83C1
:1026B00000E0602E07E0702E87018CEFE82E86E0A8
:1026C000F82E5401512CC4018C569F4F9C838B8350
:1026D000D401A456BF4FBA87A98744244394F60176
:1026E000819191916F01AB81BC818D939C93ED8120
:1026F000FE811192FE83ED83D3012D913D012223B2
:1027000009F4AAC2F8012081211120C0DC01ED9159
:10271000FC910680F781E02D0995882309F446C0D5
:10272000F8014082D7011C92C4010E948D0AAB813E
:10273000BC81ED91FC9146A1652DC4010E9413124C
:1027400035C08111ABCF85E396E0ACCFFC0136A05C
:10275000D80112968C91831519F0C4010E948D0A3C
:10276000F8013282AB81BC81ED91FC91D501D79605
:102770009C91D79781AD882309F40DC2D5962C91F1
:1027800081E0911101C080E0819582AF23AFEB81A0
:10279000FC81808191810E94220CED81FE81319724
:1027A0008083882309F400C2D7011C92E985FA8549
:1027B0008081882309F450C2C12C940126563F4FD2
:1027C0003C872B87C40184569F4F9E878D872401A9
:1027D0009EE9490E511CD401AC56BF4FB88BAF8750
:1027E00010E8A12EBA2C80919B01C81608F044C2B3
:1027F0008C2D90E0F401E80FF91FE156FF4F208186
:10280000222309F4C1C1FC01E250F94F00810023E9
:1028100009F4BAC1EF81F885E080FC01E55BFF4F68
:10282000EE0FFF1FE80DF91D0190F081E02DAB8147
:10283000BC81ED93FC93AB85BC858C918111A4C1C7
:10284000AD85BE85FC90F1109FC116A16E2C712C38
:10285000F301E650F94FFE83ED838081181729F0CC
:10286000412F6E2DC4010E941312E1E0F0E0EC0F45
:10287000FD1FE60DF71D10838FEF810F853008F0E7
:1028800078C1AB81BC81ED91FC9124A135A120954B
:102890003095C901A4E096958795AA95E1F7982F00
:1028A000917082E026FF80E0892B94E027FF90E082
:1028B000892B25FF85C128E0AF81B8859C91822BAB
:1028C000292F30E0B401BFE09B9F600D711D1124E2
:1028D000DB0150968C93D201FC90FF2029F08F29C8
:1028E0008F70DB0150968C9384A195A18095909573
:1028F000AC0144E0549F412D5527112441705527C8
:10290000BC016627707295FF02C062E070E0462B42
:10291000572B64E070E097FD02C070E060E0462B4A
:10292000572BBC016627707194FF02C068E070E00D
:10293000462B572BBC016627747092FF02C060E1E2
:1029400070E0642B752BAC014427587093FF02C0D4
:1029500040E250E0642B752BAC014427517090FF8E
:1029600002C040E450E0642B752BAC014427527048
:1029700091FF02C040E850E0642B752BAC01417020
:10298000552780FF02C040E051E0642B752BAC015D
:102990004870552783FF02C040E052E0462B572B7A
:1029A000BC016270772781FF02C060E074E0462BB3
:1029B000572BBC016470772782FF02C060E078E08B
:1029C0008FE0829FD001839FB00D1124CD01880D2F
:1029D000991D9A8B898B462B572BDC0152965C9361
:1029E0004E935197C9018850994F9A878987DC0186
:1029F0008C91F11009C0A989BA8950969C91509781
:102A00009F3011F450968C939FE0929FD001939F3A
:102A1000B00D1124A80DB91D50969C915097F02E21
:102A2000981311C0C901880F991F8C50994FFF242A
:102A3000F39451964D915C91DC018D919C914817D6
:102A4000590709F4F12C83A5882309F4BFC0153078
:102A500009F4BCC077A189E8870F833108F4B2C0BC
:102A6000872F60A590E04FE0429FD001439FB00DBB
:102A70001124A80DB91D582F4427840F951F569671
:102A80009C938E93559789E8860F833108F49CC0F8
:102A9000862F90E04FE0429FD001439FB00D11245C
:102AA000A80DB91D582F4427840F951F58969C9345
:102AB0008E935797C901885B9E4FDC014C91D901D9
:102AC000AA5BBE4FBA8BA98B471303C04C91DF2C76
:102AD0004613D02EDC017C93A989BA896C9383A517
:102AE000882319F0153009F084C08FE0829FF0012F
:102AF000839FF00D1124E80DF91DB28EA18EB48EC6
:102B0000A38E90E880E8D901AC5BBE4F4C91F901EF
:102B1000EE5BFE4F481304C04081491301C00D2DE8
:102B20008C9390838FE0829FD001839FB00D1124FE
:102B3000A80DB91D50968C915097E985FA85808330
:102B4000220F331FF901EC50F94F51968D919C9152
:102B500091838083002369F0F1E0FE1550F0AF858A
:102B6000B8892D913C9100E0412F6E2DC4010E9447
:102B70007111E1E0F0E0EC0FFD1FE60DF71D808123
:102B8000ED81FE8180832F28AF81B8858C918F5F86
:102B90008C93C39428CE992321F0B0E4B2AF43AE16
:102BA000F6CD12AE13AEF3CDF70180818F5F808337
:102BB000823008F4FBCDD8011C92108240E0BCCDDD
:102BC00020E07ACE80E84DCF80E863CF8FE0829F0F
:102BD000D001839FB00D1124A80DB91D5696BC924B
:102BE000AE9255975896BC92AE92579760E870E8AF
:102BF00061CF81A5D2019C919C3009F480E899E8CD
:102C0000980F482F933108F440E892A550E06FE008
:102C1000629FF001639FF00D1124E80DF91D742FE0
:102C20006627460F571F528F418F49E8490F43319E
:102C300088F0492F50E06FE0629FF001639FF00D34
:102C40001124E80DF91D742F6627460F571F548F66
:102C5000438F59CF40E8EECF0F5F1F4FBFEFEB1A06
:102C6000FB0AE4E0AE0EB11CF1E05F1609F4A4CD5E
:102C70005524539434CD212C822D62960FB6F894AE
:102C8000DEBF0FBECDBFDF91CF911F910F91FF909F
:102C9000EF90DF90CF90BF90AF909F908F907F90FC
:102CA0006F905F904F903F902F90089590E080E05C
:102CB0000895CF93DF93CDB7DEB72F970FB6F89473
:102CC000DEBF0FBECDBF4FE0FE013196DF01242FE6
:102CD0001D922A95E9F72FEF3FE73F832E8339872F
:102CE00028873B872A873D872C87469F800D911D2B
:102CF0001124DC0150968FE001900D928A95E1F746
:102D00002F960FB6F894DEBF0FBECDBFDF91CF91E7
:102D100008956F927F928F929F92AF92BF92CF92BF
:102D2000DF92EF92FF920F931F93CF93DF938C016B
:102D3000DC01A856BF4F5C0188539F4FFD012081E5
:102D40002383218132813583248336968E179F0712
:102D5000B1F7680124E9C20ED11CE601FB801B8299
:102D60005C988BE090E00197F1F7469861E070E0A5
:102D70004BE050E0C2E0EC2E30E020E090E080E05C
:102D8000379B09C0EB01022E02C0CC0FDD1F0A9455
:102D9000E2F78C2B9D2B5C9AEA012197F1F75C9866
:102DA000EA012197F1F72F5F3F4F2031310541F7BD
:102DB0008F3F980799F09C012770307C21303105B6
:102DC00069F4E6012B812F5F2B83EC9212969C9382
:102DD0008E9311971696AE17BF0771F6469A8BE041
:102DE00090E0FC013197F1F75C9A0197F1F7F60159
:102DF000D381DF1588F48D2F26E0982F893008F0D5
:102E000098E0F601299FE00DF11D1124148216822D
:102E100015828F5FF812F1CF812C912CC0E0612CCC
:102E200046E0742ECD1721F090919B019C133DC07C
:102E300080914A01981639F0911005C040E060E099
:102E4000C8010E94621090924A0180914B0188153E
:102E500039F0811005C040E061E0C8010E946210B5
:102E600080924B01F0900207DF1508F4BFC0D093A9
:102E7000020784EF91E0DD2321F024E6D29FC00118
:102E8000112490939D0180939C01862DDF91CF9119
:102E90001F910F91FF90EF90DF90CF90BF90AF9078
:102EA0009F908F907F906F9008958C2FC93008F07D
:102EB00088E0282F30E0A601879D400D511D112488
:102EC000BA016C5F7F4F7B01C11187C0FB0190800D
:102ED000729EF001739EF00D1124EC0DFD1D848196
:102EE0002781821308C0458156812085318542178C
:102EF000530709F46DC0F7012381281771F0C91732
:102F000020F46C2FC8010E945916C23030F4F7012A
:102F100040816C2FC8010E946210F701218132812B
:102F2000C90134E0969587953A95E1F7982F91700D
:102F300080E023FD82E0892B90E026FD94E0892B40
:102F400090E025FD98E0892BF501808BF701218128
:102F50003281432F55274170552790E080E031FFA3
:102F600002C082E090E0842B952B50E040E027FFE8
:102F700002C044E050E0842B952B50E040E035FF48
:102F800002C040E150E0842B952B50E040E034FF3C
:102F900002C040E250E0842B952B50E040E033FF2C
:102FA00002C040E051E0842B952B32FD1CC030E084
:102FB00020E0822B932BF501928B818BC23030F471
:102FC00020E0A7016C2FC8010E940F1066246394B3
:102FD000CF5FFFE0AF0EB11C25CFC13009F078CF35
:102FE000FB01808075CF20E032E0E3CFCD2F8091D0
:102FF0009B018C1709F43BCFC81720F46C2FC80134
:103000000E945916CF5FCF1590F331CFFC0180910C
:10301000AA069091AB0686179707A0F06115710577
:1030200029F49091E8009E779093E80090E0611574
:10303000710551F4911108C08091E80082FF35C0FC
:1030400080E00895BC01F2CF8091D4078823C9F1B4
:103050008530C9F18091E80083FD31C08091E8009E
:1030600082FDEACF8091E80080FFE1CF2091F3005C
:103070008091F200322F282F6115710519F020344C
:10308000310558F091E02034310509F090E02091AD
:10309000E8002E772093E800CACF81918093F10059
:1030A000615071092F5F3F4FE7CF8091D40788238C
:1030B00041F0853041F08091E80083FFBDCF81E091
:1030C000089582E0089583E008952091E40030910E
:1030D000E50085E69091EC0090FF06C09091E80035
:1030E00090FF06C080E008959091E80092FDFACF2D
:1030F0009091D407992391F0953091F09091EB0045
:1031000095FD10C04091E4005091E500241735076B
:1031100009F381509A01F1F684E0089582E0089560
:1031200083E0089581E008958091A40687FF13C08D
:103130008091E80082FF06C08091E8008B77809341
:10314000E80004C08091D4078111F2CF08958091E6
:10315000D4078823D9F38091E80080FFF8CF8091CD
:10316000E8008E77ECCF982F973028F08F708093FF
:10317000E90081E008959093E900242F762F50E034
:10318000981731F07091EC002091ED005091F00013
:1031900021FD02C09F5FE8CF3091EB003E7F30936E
:1031A000EB003091ED003D7F3093ED003091EB006E
:1031B00031603093EB007093EC002093ED0050935E
:1031C000F0002091EE0027FDE5CF80E0089542E079
:1031D00050E063E575E08EEE97E00C94B004CF9379
:1031E000DF930E94330FEC010E94E7188C0F9D1FA4
:1031F000DF91CF9108950E942A33EF92FF920F93AF
:103200001F93CF93DF9300D0CDB7DEB78091D40763
:10321000882309F4DBC08091E9008F709091EC0065
:1032200090FF4FC090E8F92EF82A1092E9008091A3
:10323000E80083FFC7C0E4EAF6E08091F1008193E3
:1032400026E0EC3AF207C9F7E090A50681E0E81223
:103250001DC08091A406813AC9F48091E800877F5F
:103260008093E8008091A6069091A706811593406F
:1032700051F568E070E080E091E00E940618E0926D
:10328000DE078091E8008B778093E8008091E8006A
:1032900083FF8AC08091A4069091A5069A3008F019
:1032A00083C0E92FF0E0E95AF64E0C94FF31A719DC
:1032B000CD19D419CD19D4192E1A501AD419831C2A
:1032C000901C90E0B0CFE091D307E730D0F6F0E06B
:1032D000E459F64E0C94FF3173197A197F19841949
:1032E00089198E19A21964E170E084EA95E00E94C0
:1032F0000618C7CF60E470E081E995E0F8CF60E49C
:1033000070E089E895E0F3CF60E470E081E895E053
:10331000EECF60E470E08AE795E0E9CF81E080934A
:10332000760582E0809373058091A8069091A906A6
:1033300060E470E0892B19F486E795E0D8CF83E745
:1033400095E0D5CF60E470E08EE695E0D0CF803890
:1033500089F0823849F58091A8068F70873020F572
:103360008093E9008091EB0085FB882780F910921B
:10337000E90004C08091460781110DC09091E800DA
:10338000977F9093E8008093F1001092F100809174
:10339000E8008E7732C082E0F1CF282F2D7F21F414
:1033A0008823E9F0823071F18091E80083FF0AC040
:1033B0008091E800877F8093E8008091EB00806235
:1033C0008093EB008F2D8F708093E9000F900F900A
:1033D000DF91CF911F910F91FF90EF900895809111
:1033E000A606813009F7933009F080E08093460704
:1033F0001092E9008091E800877F8093E8000E94A6
:103400009418D2CF8091A6068111F2CF8091A806A0
:103410008F702FEF280F263038F68093E900209127
:10342000EB0020FFE5CF933031F48091EB00806218
:103430008093EB00DDCF9091EB0090619093EB00D7
:1034400021E030E001C0220F8A95EAF72093EA00DC
:103450001092EA008091EB008860EACF8111A4CF3E
:103460001091A6061F778091E3008078812B8093CE
:10347000E3008091E800877F8093E8000E94941821
:103480008091E80080FFFCCF8091E300806880930A
:10349000E30083E0111101C082E08093D40784CF60
:1034A0008058823008F080CF2091A6063091A70680
:1034B0001A821982832F99278330910509F41CC140
:1034C000D0F481309105A9F1029709F45DC06981BA
:1034D0007A816115710509F467CF8091E800877FD3
:1034E0008093E800C8010E9406188091E8008B775D
:1034F0008093E80059CF8132910509F49FC18297EA
:1035000031F78091D307843009F4E7C108F0BBC1DB
:10351000813009F4C8C1833009F4D4C146E450E0D5
:103520006AE671E08EE096E00E94853186E490E0E4
:10353000C4C18091D307882399F0813001F10091B3
:103540004C0710914D0742E150E065EC70E088EBCC
:1035500095E00E9485310093C4051093C50508C00D
:1035600042E150E069EE70E088EB95E00E94853121
:1035700082E190E09A83898308EB15E0A8CF42E1CD
:1035800050E067ED70E0F0CF00914B071091D3074A
:10359000113009F456C008F44DC0153009F496C036
:1035A0001350143008F0A1C0E12FF0E0E85EFB4FAB
:1035B000108149E050E064E171E08AEC95E00E94FE
:1035C000853199E1099F902D1124975F9093CC0547
:1035D0000093CE05002309F48AC049E150E06BEF67
:1035E00070E083ED95E00E9485311092D50510932F
:1035F000E30581E88093E705023008F478C049E1EB
:1036000050E06BEF70E08CEE95E00E94853181E038
:103610008093EE051093FC0582E88093000602304B
:1036200009F465C049E150E06BEF70E085E096E099
:103630000E94853181E390E09A83898307EE13E04D
:1036400046CF49E050E068E571E08AEC95E00E94E1
:10365000853199E1099F902D1124975F9093CC05B6
:103660000093CE05002361F149E150E06FE371E082
:1036700083ED95E00E9485311092D5054CE6E42E4D
:10368000E092E30581E88093E7050230C8F049E164
:1036900050E06FE371E08CEE95E00E94853110936D
:1036A000EE05E092FC0582E880930006023041F0CE
:1036B00049E150E06FE371E085E096E00E948531DA
:1036C000B9E10B9FC001112409960AC042E250E003
:1036D0006DE171E08AEC95E00E94853182E290E034
:1036E0009A8389830AEC15E0F2CE16E462CFE9E111
:1036F0000E9FC0011124E8CFC9019927823091059E
:1037000049F18330910509F441C08130910509F0F8
:103710004AC08091D307813089F444E351E0DA0153
:103720000D900020E9F7AD014553514064E371E08D
:10373000CE0101960E9407278C01C9CE47E251E0D5
:10374000FA0101900020E9F7AF014852514067E2C9
:1037500071E0EECF8091D307813061F445E151E013
:10376000DA010D900020E9F7AD014651514065E1C5
:1037700071E0DECF48E051E0FA0101900020E9F766
:10378000AF014950514068E071E0D2CF60914907E4
:1037900070914A07FB0101900020E9F73197AF01D2
:1037A000461B570BC5CF65EE73E0E1E0222331F1F4
:1037B000253039F52CE234E0E0E0FCE0FE0FD901E1
:1037C0001D919D018E2F90E0019670E060E0412FE9
:1037D00042954F7050E04A5A5A4FDA014C91DC0141
:1037E0004C93EE5F90E0A12FAF70B0E0AA5ABA4FB1
:1037F0004C91DC0111964C93EF13E1CF4E2F50E02A
:1038000097CF2091D307880F991F222329F02130C9
:1038100049F0845E9B4F02C08E5C9B4FFC0160812F
:10382000718105C08C5D9B4FDC016D917C91FB012A
:1038300001900020E9F73197E61BE0CF1091D30704
:1038400049E050E061E671E085E096E00E94853154
:103850008BE5143079F040F48CE6113059F089E5AD
:10386000133041F086E406C081E5153019F087E396
:103870001630C1F780930C0689E090E09A83898323
:1038800005E016E024CE853099F1863009F046CE69
:1038900047E350E060EB71E08EE096E00E948531F6
:1038A00087E390E00AC04CE650E06CEE72E08EE0F8
:1038B00096E00E9485318CE690E09A8389830EE041
:1038C00016E005CE49E550E063E972E08EE096E04F
:1038D0000E94853189E590E0F0CF4BE550E068E348
:1038E00072E08EE096E00E9485318BE590E0E5CFB6
:1038F00041E550E067EE71E08EE096E00E94853190
:1039000081E590E0DACF803809F04ECD8091E80073
:10391000877F8093E800809147078093F10037CD3F
:10392000811142CD1091A606123008F03DCD809154
:10393000E800877F8093E800109347070E9494185F
:103940001123F9F084E08093D4070091D30700237A
:10395000F1F042E360EC82E00E94B31811E0809144
:103960004B07811708F420CD812F8F70873020F40A
:1039700042E361EC0E94B318053009F415CD1F5FD6
:10398000EECF8091E30087FDDDCF81E0DCCF42E226
:1039900061EC81E00E94B31846E260EC82E00E9494
:1039A000B31802CD0F931F93CF93DF938C01EB01DC
:1039B0008091E80085FD10C08091E8008B778093AE
:1039C000E8000E94FD180E946518882389F3DF91A2
:1039D000CF911F910F9108958091F100F80181938B
:1039E0008F01219729F780E0F2CF1F920F920FB637
:1039F0000F9211242F933F938F939F93AF93BF9375
:103A00008091E6079091E707A091E807B091E90758
:103A10003091E50723E0230F2D3758F50196A11DBE
:103A2000B11D2093E5078093E6079093E707A093E5
:103A3000E807B093E9078091EA079091EB07A0911E
:103A4000EC07B091ED070196A11DB11D8093EA0727
:103A50009093EB07A093EC07B093ED07BF91AF9164
:103A60009F918F913F912F910F900FBE0F901F90BC
:103A7000189526E8230F0296A11DB11DD2CF71E043
:103A80002D98259A24982C9A0000000000000E948E
:103A9000002625982D9A0E940026A8940000000078
:103AA00000001D9B0E94E825F2F088941C99089460
:103AB000771F30F72D98259A803021F024982C9A82
:103AC0000C94641D2C98249A0000000000000E94B1
:103AD000002625982D9AA894000000001D9B0E94A6
:103AE000E8250E940026000000002D98259A872FC7
:103AF0009927089580E208950894881F0C94811DE9
:103B0000880F11F12D98259A00000000000028F47C
:103B1000000024982C9A0C94911D2C98249A0C94B3
:103B2000911D0E94002625982D9AA894000000005F
:103B300000001D9B0E94E8251AF488270C94BA1DEA
:103B40000E9400260C94801D2D98259A00000000EC
:103B500024982C9A0E9400269927882725982D9A28
:103B6000A89400001D9B0E94E8253AF31C9B81E06D
:103B70000E940026000000002D98259A089581E0FB
:103B80000895CF93DF93EC01862F0E947C1D811155
:103B900008C08FA5811102C083E08FA790E080E06C
:103BA00002C081E090E0DF91CF9108952D98259A91
:103BB0002C98249A0E94002625982D9A0E9400266F
:103BC0001D9B0E94E82524982C9A0E9400260895A7
:103BD0008F93F1E0E4EF8F918F931D9B0E94E82576
:103BE0002C98249A0E9400260E947C1D882331F480
:103BF0000E94D61D319711F00C94EB1D99270F9060
:103C0000089581E008952D98259A0E940026249811
:103C10002C9A0E94002625982D9A0E9400261D9B12
:103C20000E94E8252C98249A0E9400260E947C1D60
:103C3000089581E008951D9B0E94E8252C98249A00
:103C40000E9400260E947C1D089581E008951F9324
:103C5000CF93DF93EC011EA584EA112371F00E943B
:103C6000031E811108C082E08FA781E08EA7DF913B
:103C7000CF911F91089580E0F7CF0E941B1E811104
:103C800001C012E01FA7F1CFFF920F931F93CF93B4
:103C9000DF93EC01F62E042F122F0E94271EE881DD
:103CA000F9810190F081E02D6F2DCE010995E88119
:103CB000F9810190F081E02D602FCE0109950FA5CB
:103CC0000E94D61D1EA61FA680E0011107C0112369
:103CD00021F087EB92E00197F1F781E0DF91CF913E
:103CE0001F910F91FF900895AF92BF92CF92DF92F4
:103CF000EF92FF921F93CF93DF93EC011FA6162F35
:103D0000613208F010E28EA5882331F185EA0E9425
:103D1000031E91E089279FA5911104C0882311F00B
:103D200082E08FA76E018CE0C80ED11CF12CE12C33
:103D3000E12FE150FF0B5F01E11690F481E0AE143A
:103D4000BF0409F080E00E943F1DF60181936F01DE
:103D5000FFEFEF1AFF0AF0CF85EA0E941B1ED9CFB2
:103D60001CA68FA5811110E01DA71EA60E94D61DBE
:103D70008DA5DF91CF911F91FF90EF90DF90CF90B5
:103D8000BF90AF900895EF92FF920F931F93CF9340
:103D9000DF93EC01162F7A010E94271EE881F9813A
:103DA0000190F081E02D60E0CE0109950FA50E9401
:103DB000D61D1EA61FA6011110C087EB92E0019729
:103DC000F1F7612FCE010E94741E482F50E0B70119
:103DD000CE010E94600491E0181390E0892FDF91DA
:103DE000CF911F910F91FF90EF900895AF92BF92E6
:103DF000CF92DF92EF92FF920F931F93CF93DF93B7
:103E0000CDB7DEB760970FB6F894DEBF0FBECDBF5B
:103E10008C0197EBE92E92E0F92EC7010197F1F79B
:103E2000D8011296ED91FC9121E043E06EEF808184
:103E300091810E94441EFE0131966F01811111C0D3
:103E4000D8011296ED91FC91A60166E070E08081A8
:103E500091810E94C31E882309F443C0C7010197C2
:103E6000F1F788E05E01B9E0AB0EB11CF501282F37
:103E700011922A95E9F7D6011D928A95E9F787EB09
:103E8000E82E82E0F82ED8011296ED91FC91A50162
:103E900068E070E0808191810E94C31E882309F44C
:103EA00043C0C7010197F1F7D8011296ED91FC913B
:103EB000A60168E070E0808191810E94C31E882382
:103EC00099F12985998129131DC02A859A81291381
:103ED00019C09F8591111AC09889911117C0F801D6
:103EE000148260960FB6F894DEBF0FBECDBFDF918F
:103EF000CF911F910F91FF90EF90DF90CF90BF90E7
:103F0000AF900895C7010197F1F7BDCF91E0D801B7
:103F100014969C9314971296ED91FC91938198308E
:103F200000F798E09383DDCF80E0DBCF2F923F92C4
:103F30004F925F926F927F928F929F92AF92BF92B9
:103F4000CF92DF92EF92FF920F931F93CF93DF9365
:103F5000CDB7DEB72E970FB6F894DEBF0FBECDBF3C
:103F60008C0180915401882331F01092540160E05B
:103F7000C8010E94AA10B0900D07380124E9620E12
:103F8000711CD301ED90FC90B1101CC1D7011296A9
:103F9000ED91FC91C080D18020E045E560EFC60145
:103FA0000E94441E882309F4A9C06AE070E080E002
:103FB00090E00E94220420E040E06BEFC6010E94E6
:103FC000441E882309F49AC064E170E080E090E028
:103FD0000E942204F70182809380D401CD90DC906E
:103FE000C6010E94271ED601ED91FC910190F0813F
:103FF000E02D6AEFC6010995F601A7A40E94D61D1F
:10400000D6019E961C929E979F961C92AA2031F1F3
:1040100080E0F4018283C7010E949205D82E882394
:10402000D1F0D7011296ED91FC91349685E1DF0134
:104030001D928A95E9F7D7011296ED91FC9113979D
:1040400086E08383ED91FC910190F081E02DC70122
:104050000995811159C080E593EC8EC087EB92E001
:104060000197F1F766E0C6010E94741E482F50E0E8
:10407000BE016F5F7F4FC6010E946004863041F62B
:104080008B81843A49F58C81803231F58D818111A3
:1040900003C09E81992381F199812A81923048F44D
:1040A00021111CC0843008F52E81213021F484E0D8
:1040B000B0CF211113C08130C1F48E81833081F4DF
:1040C00085E0992309F4A5CF86E0913009F4A1CFCA
:1040D00087E0933009F49DCF82E09BCF813029F4B3
:1040E0008E818231C9F788E094CF8111F5CF8E811E
:1040F000833191F789E08DCF83E08BCFD701129682
:10410000ED91FC911282A7CFF701E58CF68CE114BA
:10411000F10409F453C0D7018D909C90C4010E9412
:104120009205882309F446C0D401ED91FC910190D9
:10413000F081E02DC4010995D82E8823D9F181E0C2
:1041400080930D07F801E656FF4F808310920C070D
:1041500080919B01882321F060E0C8010E945916DC
:10416000D301ED91FC910280F381E02D6281C801C1
:104170000E94AA1088EC90E090939D0180939C018E
:104180008B2D2E960FB6F894DEBF0FBECDBFDF91FC
:10419000CF911F910F91FF90EF90DF90CF90BF9044
:1041A000AF909F908F907F906F905F904F903F90D7
:1041B0002F900895F701E480F580A9CFDD2009F460
:1041C0004ACFBDCFC7010E949205882309F4BDC123
:1041D000D7011296ED91FC91AF014C5F5F4F638167
:1041E00070E0808191810E94C31EB82E882309F45B
:1041F000ACC1F70182819381DC0113964C91049646
:10420000FC012FEF30E050E0BF01681B790B641711
:10421000750724F46191362B2623F6CF332309F456
:1042200094C12F3F09F491C1D301ED91FC9102801B
:10423000F381E02D22808DEF820D823008F4A2C13F
:10424000BFEFB987EFEFE887C12CA12CD12C512CFF
:104250001F82712C612C80910A0790910B078615A3
:10426000970541F4BB24B39480910507FF818F1318
:1042700001C0B12C80915301851117C0809152016A
:104280008D1113C0809151018A110FC0809150018E
:104290008C110BC0809104072885821306C0809181
:1042A00003073985831709F4E0C380910907452D79
:1042B000481B550B9A01473E510514F026EE30E09D
:1042C000809108076D2D681B770B7B0177EEE71651
:1042D000F1041CF0E6EEEE2EF12C80910707AA2DDA
:1042E000A81BBB0B4D01B7EE8B1691041CF076EEAC
:1042F000872E912C80910607C81ADD08E7EECE16AE
:10430000D1041CF066EEC62ED12C2931310514F4EF
:1043100029E130E0032E000C440B550B29513109E3
:1043200041095109AFEFB0E00E94C3312DEC30E0FC
:1043300040E050E00E94A4312A87970129313105DD
:1043400014F429E130E0032E000C440B550B2951E5
:10435000310941095109AFEFB0E00E94C3312DECA2
:1043600030E040E050E00E94A4312C8794012931D4
:10437000310514F429E130E0032E000C440B550BF9
:104380002951310941095109AFEFB0E00E94C33111
:104390002DEC30E040E050E00E94A431922E9601D6
:1043A0002931310514F429E130E0032E000C440BCF
:1043B000550B2951310941095109AFEFB0E00E9475
:1043C000C3312DEC30E040E050E00E94A431D22E09
:1043D0008A858757833108F431C38A8590E0382F66
:1043E0002227820F931FD80156969C938E93559740
:1043F0008C85809599E8980F933108F480E890E0D7
:10440000382F2227820F931FF801908F878B89E81E
:10441000890D833108F414C3892D90E0382F2227A9
:10442000820F931FD8015A969C938E9359978D2D86
:10443000809599E8980F933108F480E890E0382F40
:104440002227820F931FF801948F838F80910C078E
:104450008823D9F0F885FE3008F4188629852E3097
:1044600008F41986F801EA56FF4FE080F180C70191
:104470000E943306882311F03FEF3887C7010E945E
:104480002006882311F04FEF4987E885D8015D9613
:10449000EC935D97F9855E96FC938CEF820D8230EC
:1044A00008F0D0C22FE02B8728014BE9440E511CA5
:1044B000312C212C7F81672F70E07E876D87D201A0
:1044C000ED90FD900D911C91139714962C911497DB
:1044D00015964C9115971696AC90169717968C904A
:1044E000BAE0B21508F4B1C2C301022C02C096951D
:1044F00087950A94E2F7E82FE170CE2E1F9260E0D4
:1045000080E00E94AB0F0F908FEF281A380A98E0D6
:10451000490E511CAB852A1690F270920B076092DF
:104520000A07BF81B0930507EA85E0935301FC8534
:10453000F093520190925101D0925001288520931E
:1045400004073985309303071BCE10920D07D8015D
:104550009E961C9280E593EC90939D0180939C0124
:1045600080919B01882321F060E0C8010E945916C8
:1045700010920B0710920A0760E0C8010E94AA106F
:10458000B12CFECDB4E0F8012B122CC2EA56FF4F3D
:10459000E080F180F701348082809380311091C1F6
:1045A000D40119968C918095817091E089278F8331
:1045B000C7010E94B406811103C0FF81F260FF832E
:1045C000C7010E94A106811103C02F8124602F839F
:1045D00031107AC1D40118968C9190E0880F892F00
:1045E000881F990BB1E08B27817019F42F81286007
:1045F0002F83C7010E944906682E712CC7010E94B3
:104600007506882311F0689461F8C7010E948B0633
:10461000882311F0689462F8C7010E945F0688231E
:1046200011F0689463F8C7010E943306882311F0E3
:10463000689464F8C7010E942006882311F06894EA
:1046400065F8C7010E940406882311F0689466F893
:10465000C7010E94EF05882311F0689467F8C7012D
:104660000E94C405882311F0689470F8C7010E9465
:10467000DA05882311F0689471F8C7010E94AE052D
:10468000882311F0689472F8D40114965C90149702
:104690001696DC9016971596AC9015971796CC90B9
:1046A000179731101BC18A2D8F73952D907C96958D
:1046B00096959695BA2DB07CAB2EA294A69437E031
:1046C000A322A92A2D2D207830E0220F232F221F8C
:1046D000330BA22AAA0CAA0CAA0C9D2D9F712D2D7A
:1046E000207626952695DC2CD294D69457E0D522B8
:1046F000D22ADD0CDD0CDD0CD886CC0CCC0CCC0C1D
:10470000C986550C550CD82EDD0CDD0CC92ECC0CF1
:10471000CC0CCC0CF801E656FF4F8081882369F160
:104720001082EEE781E8850DE51510F08FE7851919
:1047300080930907FEE781E88D0DFD1510F08FE7E6
:104740008D19809308072EE781E88A0D2A1510F04D
:104750008FE78A19809307073EE781E88C0D3C15A7
:1047600010F08FE78C19809306074885442319F0D1
:1047700059855111BAC010920C073110CAC0D4012A
:1047800019964C904094B42DB1704B2EC7010E94E5
:10479000B406882309F4C4C082E0482AC7010E94F5
:1047A000A106882309F4BEC084E0482A3110BCC0A9
:1047B000D40118968C9190E0880F892F881F990B4F
:1047C000B1E08B27817009F4B9C088E0482AD8018C
:1047D00050964C92C7010E947506882E912CC701F5
:1047E0000E948B06882309F4ABC082E090E0882AFF
:1047F000992AC7010E944906882309F4A4C084E0CD
:1048000090E0882A992AC7010E945F06882309F44C
:104810009DC088E090E0882A992AC7010E94C405BB
:10482000882309F496C080E091E0882A992AC7017C
:104830000E94DA05882309F48FC080E092E0882A7C
:10484000992AC7010E94AE05882309F488C080E038
:1048500090E1882A992AF801928A818A80910C072E
:10486000882309F48BC0C7010E940406882309F439
:1048700079C080E190E0882A992AC7010E94EF055B
:10488000882309F472C080E290E0882A992AC7013F
:104890000E943306882309F46BC080E490E0882AE4
:1048A000992AC7010E942006882309F464C080E881
:1048B00090E0882A992AD80152969C928E9251971C
:1048C000CACCF40183856FCEF401828590E0880F15
:1048D000892F881F990BF1E08F2786CEF401F08590
:1048E000F8871996BC91B98715CF81E080930C07A2
:1048F000D80117968C91882341F09091DD07992378
:1049000009F43BCF813009F038CF81E0F80186A768
:1049100034CFF40143844094F42DF1704F2E36CF00
:1049200080E03BCF80E041CFF401828590E0880FAA
:10493000892F881F990BF1E08F2744CF80E046CF65
:1049400090E080E054CF90E080E05BCF90E080E0AA
:1049500062CF90E080E069CF90E080E070CF90E09F
:1049600080E077CF90E080E086CF90E080E08DCF50
:1049700090E080E094CF90E080E09BCFC7010E9460
:104980003306882319F180E190E0882A992AC7012B
:104990000E9420068823E9F080E290E0882A992A84
:1049A000C7010E9404068823B9F080E490E0882AB9
:1049B000992AC7010E94EF05882389F080E890E0DA
:1049C000882A992AF801928A818A45CC90E080E071
:1049D000DCCF90E080E0E2CF90E080E0E8CF90E0B4
:1049E00080E0EECFE856FF4F0190F081E02D02808D
:1049F000F381E02D2185822F90E095958795809514
:104A00009095817099273C0120FD15C0689461F84C
:104A100022E030E0822B932BD80152969C938E9308
:104A200051975480D580BFEFB987EFEFE887C12C4D
:104A3000A12C1F8210CC30E020E0ECCF80E8CECC5F
:104A400080E8EBCC32E03B872FCDC1010B976D8521
:104A50007E8502C0759567958A95E2F7CB018095B2
:104A60009095782F7170C72E49CDBB2009F488CB63
:104A70001CCC249825982C9A2D9A882799271C9B22
:104A800008951D9B089581E0089581E00895AF92F7
:104A9000BF92CF92DF92EF92FF920F931F93CF932B
:104AA000DF938C0165E070E080E090E00E942204DA
:104AB00010923A0710923B0710923D0710923C0764
:104AC0000E9439258FE190E00E940532EC016C01D3
:104AD00084E0C80ED11C8EE097E09D838C831E82FB
:104AE00086E08F83DB82CA8287E694E0998388839D
:104AF000F801EC56FF4FD183C0838BE090E00E9419
:104B00000532FC01D382C28214828FE694E0918345
:104B100080837F01A5E0EA0EF11C5E01BDE1AB0ED2
:104B2000B11CF683E583B086A78212861186FE8EBD
:104B3000ED8ED801AA56BF4FED93FC938AE090E02A
:104B40000E940532FC01D382C28287E794E0918300
:104B50008083CF010496F583E483B782A682118611
:104B60001086E114F10439F59E8F8D8FD801A85677
:104B7000BF4FED93FC93EC81FD8114A615A617A6FB
:104B800016A60E94392581E0F80180AB82ABE6567B
:104B9000FF4F808362E370E080E090E0DF91CF918F
:104BA0001F910F91FF90EF90DF90CF90BF90AF904B
:104BB0000C9422047901D70114962D913C911597FC
:104BC00021153105B9F715969C938E931497CECF86
:104BD000BFE0A0EA00240E94F8253AF40A94D9F72D
:104BE0001197C1F728940C94FF25A8940C94FF25E5
:104BF000A8941D990C94FD2528940000089508950B
:104C000097E19A95F1F7089508951F93CF93DF9355
:104C1000EC0180E88FA388A789A78AA71BA6FE01BD
:104C2000BC968CE0DF011D928A95E9F71EA219AEB1
:104C30001AAE1BAE1CAE15E0CE010E94220C61E044
:104C400070E080E090E00E9422041150A9F7CE01AC
:104C5000DF91CF911F910C94220CCF93DF93EC0145
:104C6000849A8C9A229A2A9A219A299A23982B9884
:104C70002B9A0E94DD04CE01DF91CF910C94052682
:104C8000CF93DF93EC013E9A469A229A2A9A219A70
:104C9000299A23982B982B9A0E94DD04CE01DF914C
:104CA000CF910C9405261F920F920FB60F921124EC
:104CB0002F933F934F935F936F937F938F939F9324
:104CC000AF93BF93EF93FF938091DA0080FF17C0FB
:104CD0008091D80080FF13C08091DA008E7F80938E
:104CE000DA008091D90080FF86C080E189BD82E131
:104CF00089BD09B400FEFDCF81E08093D407809187
:104D0000E10080FF17C08091E20080FF13C0809116
:104D1000E2008E7F8093E2008091E20080618093C8
:104D2000E2008091D80080628093D80019BC85E0B1
:104D30008093D4078091E10084FF26C08091E20037
:104D400084FF22C080E189BD82E189BD09B400FEF3
:104D5000FDCF8091D8008F7D8093D8008091E100B5
:104D60008F7E8093E1008091E2008F7E8093E2004D
:104D70008091E20081608093E20080914707882360
:104D8000F1F184E08093D4078091E10083FF22C099
:104D90008091E20083FF1EC08091E100877F8093B5
:104DA000E10082E08093D407109247078091E100F0
:104DB0008E7F8093E1008091E2008E7F8093E200FD
:104DC0008091E20080618093E20042E360E080E055
:104DD0000E94B318FF91EF91BF91AF919F918F9176
:104DE0007F916F915F914F913F912F910F900FBEE7
:104DF0000F901F90189519BC1092D40780CF809106
:104E0000E30087FD02C081E0BDCF83E0BBCFCF933D
:104E1000DF93DC014032510514F04FE150E090E0A7
:104E2000292F30E02417350784F04F5F5F4F440F80
:104E3000551F4D935C9353605093AD064093AC0661
:104E40008CEA96E0DF91CF910895F901EE0FFF1FF4
:104E5000E255F94F260F371FE9012881022E000C79
:104E6000330B318320839F5FDBCFCF93DF93CDB7AD
:104E7000DEB729970FB6F894DEBF0FBECDBF78948A
:104E800084B5826084BD84B5816084BD85B582604F
:104E900085BD85B5816085BD80916E008160809300
:104EA0006E00109281008091810082608093810069
:104EB0008091810081608093810080918000816079
:104EC0008093800080919100826080939100809116
:104ED0009100816080939100809190008160809327
:104EE00090008091C10084608093C1008091C100D6
:104EF00082608093C1008091C10081608093C10075
:104F00008091C30081608093C3008091C000826063
:104F10008093C0008091C20081608093C200809124
:104F20007A00846080937A0080917A008260809316
:104F30007A0080917A00816080937A0080917A0073
:104F4000806880937A0056985E9A1092DE0790E00F
:104F500080E00E948E31843008F0A5C08093D8078D
:104F60008091D807823009F4A0C0833009F4B9C019
:104F7000813009F061C08DE791E00E9405328C011B
:104F80000E94970387EB94E0D8018D939C9381E472
:104F900090E00E940532F1E4FF2EFC01BF2C11923B
:104FA000BA94E9F72BEA34E0DC012D933C93F80145
:104FB000EA56FF4F9183808381E490E00E9405329E
:104FC000FC011192FA94E9F72FE934E0DC012D930A
:104FD0003C93F801E856FF4F91838083329610820C
:104FE000319610823196108231961082319610825D
:104FF000319610823196108231961082319610824D
:105000003196108231961082D801AB55BF4F80E89F
:10501000E2ECF1E001900D928A95E1F7D801AB5DE9
:10502000BE4F88E5E2E4F2E001900D928A95E1F747
:105030001093E0070093DF071092FF078CE3809343
:10504000FE071092B90084E48093BC008CE080934A
:10505000B8001092F2071092F307E2E2F6E0C59072
:10506000D490E4E2F6E0F490E5E2F6E0E491E09337
:10507000F407E6E2F6E0E491E093F507E7E2F6E014
:10508000E491E093F60710E000E00F1508F03CC053
:10509000F601E00FF11F64918EEE97E00E94BC0DC7
:1050A0000F5F1F4FF2CF81E059CF80E291E00E9465
:1050B00005328C010E94970389EC94E0F8019183FA
:1050C0008083EC56FF4F1382349680E3DF011D92FC
:1050D0008A95E9F7D801A853BF4F88E5EAE9F2E0DD
:1050E000A3CF83E191E00E9405328C010E949703D7
:1050F0008BED94E0F80191838083D801A556BF4FD2
:1051000088E7E2EFF2E090CF8EEE97E00E949C0FEE
:1051100061E88EEE97E00E94BC0D61E08EEE97E0B4
:105120000E94BC0DE7E3F4E0F093FA07E093F9077F
:105130008491E8E3F4E0E491F82F319709F0E1C0BD
:105140001092F7078EEE97E00E949C0F11E01093EB
:10515000FC076EE18EEE97E00E94D00D82E0809316
:10516000FC0780E394E00E94330F1093FC0762E099
:105170008EEE97E00E94C40D0E94801281E090E0C4
:105180000E948E31873008F080E0A091DF07B09157
:10519000E00717968C931797ED91FC91119701906A
:1051A000F081E02DCD01099564E170E080E090E0B0
:1051B0000E9422048091DF079091E007DC01ED91CD
:1051C000FC910280F381E02D099564E170E080E0BC
:1051D00090E00E9422048091DF079091E007DC01BB
:1051E000ED91FC910280F381E02D0995A091DF07FC
:1051F000B091E00751968C91519780FF86C081E075
:1052000017968C9317974E99A6C017961C918EEE01
:1052100097E00E949C0F45E050E067E675E08EEE57
:1052200097E00E94B0040E94E7186CED75E080E002
:1052300090E00E9422048EEE97E00E949C0F83E291
:1052400094E00E94EF1885E194E00E94EF1888E056
:1052500094E00E94EF1864EF71E080E090E00E941B
:10526000220481E0812C912C540101E0FF24F3946D
:105270004E9951C0F12C813051F40E9454044B01DD
:105280005C0160E170E080E090E00E9422040E94F6
:105290005404681979098A099B09693E734081059C
:1052A000910510F40C945C318EEE97E00E949C0FF7
:1052B00080E094E00E94EF1889EF93E00E94330FA2
:1052C000812F0E944E0F0E94E7180E94E71885EE7A
:1052D00093E00E94330F60ED77E080E090E00E9461
:1052E0002204612F81E090E00E94963188E19EE0E7
:1052F0000FB6F894A895809360000FBE909360005D
:10530000FFCF81E08093F7071DCF81FF7CCF1796F9
:105310001C92179778CF81110C94593160E170E09D
:1053200080E090E00E94220481E0011106C0882301
:1053300079F01F5F133008F010E007E025E04FE739
:1053400060E08EEE97E00E94670F812F0E944E0F63
:1053500000E08F2D8BCFED91FC9111970484F585A2
:10536000E02DCD01099561E08EEE97E00E94C40D1D
:1053700060E08EEE97E00E94D00DE091DF07F091A3
:10538000E007878181111CC188E50E94620F80912E
:10539000DF079091E00721E032E0FC0134832383B2
:1053A0000190F081E02D0084F185E02D09958C01BC
:1053B0008091DF079091E007DC01ED91FC91028480
:1053C000F385E02D099520919B01E091DF07F09195
:1053D000E00737813093D30790934D0780934C07B4
:1053E00020934B0710934A070093490784B7877FA0
:1053F00084BF0FB6F894A89580916000886180936F
:105400006000109260000FBE80E830E020E00FB630
:10541000F89480936100209361000FBE8091D800C2
:105420008F7E8093D8008091D70081608093D700D1
:1054300084E082BF81E0809348078091D8008E7F0E
:105440008093D8001092E2001092DA001092E100EE
:105450008091D8008F778093D8008091D8008068A1
:105460008093D8008091D8008F7D8093D80019BC9C
:105470001092D40710924707109246078091E000DF
:105480008B7F8093E0008091D80081608093D8006A
:1054900042E360E080E00E94B3188091E1008E7FDB
:1054A0008093E1008091E20081608093E20080912E
:1054B000E20088608093E2008091E0008E7F80931C
:1054C000E0008091D80080618093D80078940E9499
:1054D000FD030091E1071091E2072091E30730916D
:1054E000E407AB01BC01401B510B620B730B8091B5
:1054F0009C0190919D01B0E0A0E0C12C4817590794
:105500006A077B07B0F08091DF079091E007DC012C
:10551000ED91FC910280F381E02D0995C82E0E9447
:10552000FD036093E1077093E2078093E307909394
:10553000E407D12C80919B01D81608F01CC68091FD
:10554000DF079091E007DC01ED91FC910680F78187
:10555000E02D6D2D09950091DF071091E007ED2CEE
:10556000F12CF8018781843009F487C108F037C035
:10557000882309F469C093E1813009F400C298E0FE
:10558000833009F0B8C18FE08E9DF0018F9DF00D42
:105590001124E00FF11FE089EF70E150EA3008F0CC
:1055A000A9C3F0E0EA52F54D0C94FF31052E722E9E
:1055B0007A2E762E782E742E7A2E6E2E6A2E702EDD
:1055C000813011F483E5E1CE823011F488E4DDCE40
:1055D0008350843010F48DE4D8CE85E4D6CE853067
:1055E00009F469C195E0863009F0C9CF8FE08E9D3E
:1055F000F0018F9DF00D1124E00FF11F21893289F8
:10560000A9014170552782E021FF80E0842B22FF11
:1056100067C424E0822B80934E078FE08E9DF001BB
:105620008F9DF00D1124E00FF11F258936893093ED
:10563000500720934F072789308D309352072093CE
:1056400051072EE437E08EC094E18FE08E9DF0018B
:105650008F9DF00D1124E00FF11F2089822F8170A2
:1056600032E021FF30E0832B34E022FF30E0832B57
:1056700023FF6FC128E0822B2FE02E9DF0012F9D8C
:10568000F00D1124E00FF11F2189328940E131FF33
:1056900040E0842B40E230FF40E0842B40E432FFC6
:1056A00040E0842B40E833FF40E0842B8093570197
:1056B000A901E4E056954795EA95E1F7417082E04B
:1056C00025FF80E0842B44E034FF40E0842B40E160
:1056D00020FF40E0842B40E221FF40E0842B40E4A7
:1056E00022FF40E0842B40E823FF40E0842B80939E
:1056F00058018FE08E9DF0018F9DF00D1124E00F79
:10570000F11F45895689505850935C0140935B01C5
:105710004FEF5FE76789708DDA01A61BB70BB09377
:105720005E01A0935D01618D728D70587093600170
:1057300060935F01638D748D461B570B509362011C
:1057400040936101D801AE0DBF1D9E968C918823B8
:1057500009F401C1858D80935901868D80935A018A
:1057600025E531E03093D7072093D6079093D507EE
:105770008091D407843009F074C082E08093E900FE
:105780008091E80082FF2AC08091E80085FF21C057
:105790008091D3078111C2C40E946518811108C08D
:1057A00050E040E068E070E0CE0101960E94D21C1B
:1057B000898181110EC08A81883059F4F701EE0F7A
:1057C000FF1FEE0FFF1FE00FF11F8C8185AB8D8156
:1057D00087AB8091E8008B778093E800870186E0B3
:1057E000000F111F8A95E1F70D5A184F4091D50708
:1057F00050E06091D6077091D707C8010E942F33FF
:10580000892B79F18091D307853009F094C481E028
:105810008093E9008091E80080FF23C0E090D507E5
:10582000A090D607B090D7070E946518F12C882366
:1058300009F494C48091E8008E778093E800E090AA
:10584000D507F12CA090D607B090D707A701B501D6
:10585000C8010E943C33A70170E060E0C5010E94CE
:1058600045330E94FD18E091DF07F091E007878142
:10587000882309F480C4D3945DCE97E08FE08E9D99
:10588000F0018F9DF00D1124E00FF11FE089EF7002
:10589000E150EA3008F09BC2F0E0EF5AF34D0C946F
:1058A000FF317C2EDF2EE72EE32EE52EE12EE72EB4
:1058B000DB2ED72EDD2E94E0DD2019F093E0D11001
:1058C00002C381E080938B01D8015096EC91EF7078
:1058D000E150EA3008F0F2C2F0E0EF58F34D0C94DA
:1058E000FF31E92E562F5E2F5A2F5C2F582F5E2F37
:1058F000522F4E2F542F843018F5882309F4A5CE4B
:10590000813009F43CC08FE08E9DF0018F9DF00D39
:105910001124E00FF11FE089EF70E150EA3008F048
:10592000F8C3F0E0EA56F34D0C94FF31722F81304A
:10593000893085308730833089307D3079307F30D1
:10594000853009F4BCCF08F499CF863009F44ECEE7
:10595000DACF20E090CEA90166E0569547956A958A
:10596000E1F74170419540935901220F232F221FE7
:10597000330B31952170219520935A01F1CE8FE0A0
:105980008E9DF0018F9DF00D1124E00FF11F808995
:10599000E82FEF70E150EA3008F028C1F0E0ED5256
:1059A000F34D0C94FF31DD2CEE2DF62DF22DF42D60
:1059B000F02DF62DEA2DE62DEC2D10926B012FE047
:1059C0002E9DF0012F9DF00D1124E00FF11F218974
:1059D00032891901B1E02B223324E2E0F0E020FD0E
:1059E00002C0F0E0E0E0B90162707727A4E0B0E027
:1059F00021FD02C0B0E0A0E05901B694A794B6948E
:105A0000A7944A2D41704987AF01B9844B294A2B8D
:105A10005B2BF901E870FF27A8E0B0E023FD02C08E
:105A2000B0E0A0E04A2B5B2B5901A0E1AA22BB24E5
:105A3000A0E1B0E024FD02C0B0E0A0E04A2B5B2B67
:105A40004901B0E28B229924A0E2B0E025FD02C01A
:105A5000B0E0A0E04A2B5B2B3901A0E46A22772456
:105A6000A0E4B0E026FD02C0B0E0A0E0A42BB52B7E
:105A7000290140E84422552440E850E027FD02C0B7
:105A800050E040E0A42BB52BA9014427517030FF12
:105A900002C040E051E0A42BB52BA901442752706D
:105AA00031FF02C040E052E0A42BB52BA9014427EE
:105AB000547032FF02C040E054E0A42BB52BA90182
:105AC0004427587033FF02C040E058E0A42BB52BA8
:105AD000A9014427507134FF02C040E050E14A2B35
