:100000000C9461030C9489030C9489030C94890368
:100010000C9489030C9489030C9489030C94890330
:100020000C9489030C9489030C94B3280C948903D1
:100030000C9489030C9489030C9489030C94890310
:100040000C9489030C9489030C9489030C94890300
:100050000C9489030C9489030C9489030C946928EB
:100060000C9489030C9489030C9489030C948903E0
:100070000C9489030C9489030C9489030C948903D0
:100080000C9489030C9489030C9489030C948903C0
:100090000C9489030C9489030C9489030C948903B0
:1000A0000C9489030C9489030C948903AED580A821
:1000B0003FD300408D142002A1C8DA12817FD9F10C
:1000C000DB40A4A6AF1201000200000040D0167E63
:1000D0001200010102030112010002000000400DA4
:1000E0000F920000010102030112010002FFFFFF55
:1000F000405E048E021401010203010904000001A4
:1001000003000000092111010001224600070581BA
:10011000034000010902220001010080320902228D
:100120000001010080320904000001030000000901
:10013000211101000122510007058103400001093E
:1001400004000001030000000921110100012256F2
:100150000007058103400001090229000101008018
:10016000FA09211101000122460005010905A1013A
:10017000150025013500450175019518050919017E
:100180002918810205012507463B01750495016583
:10019000140939814265009501810126FF0046FF5F
:1001A000000930093109350936750895048102C006
:1001B00005010905A10105091901290315002501FA
:1001C0007501950355006500810275019505810350
:1001D00005010901150026FF0375109502A100090C
:1001E0003009318102C0C005010905A1018501A1C5
:1001F0000005091901290C150025019510750181CB
:100200000205010939150025073500463B0175082F
:10021000950165148142C0C005010902A101850252
:100220000901A100093009311581257F3581457FFC
:10023000950275088106C0C005010904A101A1004D
:100240000509190129101500250195107501810274
:1002500005010901A100093009311580257F9502AA
:1002600075088102C009371580257F9501750881C1
:10027000060938150026FF00950175088102093925
:10028000150025073500463B017508950165148169
:1002900042C0C005010905A1011500250135004531
:1002A000017501950E05091901290E81029502813A
:1002B0000105012507463B017504950165140939BF
:1002C000814265009501810126FF0046FF0009304B
:1002D000093275089502810205027508950315001B
:1002E00026FF0009BB09C509C88102C0050109052F
:1002F000A10115002501350045017501951005097D
:1003000019012910810205012507463B0175049555
:100310000165140939814265009501810126FF00BC
:1003200046FF000930093109320935750895048105
:10033000020600FF092009210922092309240925B1
:100340000926092709280929092A092B950C810260
:100350000A21269508B102C05341542D57484545FE
:100360004C005341542D33440053415455524E00D8
:1003700047454E455349532D360047454E45534951
:10038000532D33004D554C54492D54415000564285
:100390004F59004E545400534E4553004E455300A0
:1003A0004D554C54492D54415000504144004E2F5E
:1003B00041004E4F4E450053574954434800455263
:1003C000524F52004849440058494E505554004736
:1003D000454E455349532B53415455524E004741C6
:1003E0004D4543554245004E454F2D47454F004E24
:1003F00045532B534E4553000000000023002600B8
:1004000029002C002F0000000000250028002B00F0
:100410002E00310000000000240027002A002D00DB
:10042000300004040404040304050202020204036D
:10043000020202020606060606060404020202047E
:1004400004040802011040804010204080408008D1
:100450000204018040201002011080102040402042
:1004600000030C0F30333C3FC0C3CCCFF0F3FCFF94
:100470004445564943452057494C4C205245535416
:10048000415254004D4F44453A2000534156454493
:10049000210A00484F4C443A2020534156450A0057
:1004A00050524553533A204348414E4745004F551B
:1004B00054505554204D4F44450A005245464C4532
:1004C0005800000005072061000000000000005FE8
:1004D00000006070787060605048506003070F073C
:1004E000030305090503081C3E7F7F081C22417F8A
:1004F0007F7F3E1C087F41221C08082A1C2A08080E
:10050000083E08080050300000080808080800608D
:1005100060000020100804023E5149453E00427F21
:10052000400042615149462141454B311814127F28
:100530001027454545393C4A4949300171090503B1
:100540003649494936064949291E00363600003CDD
:100550007E7E7E3C3C4242423C1414141414F0F063
:10056000F0F0F0F0909090F0324979413E7E111118
:10057000117E7F494949363E414141227F41412216
:100580001C7F494949417F090901013E41415132DE
:100590007F0808087F00417F41002040413F017FE4
:1005A000081422417F404040407F0204027F7F04C4
:1005B00008107F3E4141413E7F090909063E4151F5
:1005C000215E7F09192946464949493101017F01C8
:1005D000013F4040403F1F2040201F7F2018207FC8
:1005E000631408146303047804036151494543000C
:1005F000007F4141020408102041417F0000383C47
:100600001E0F074040404040382412090720545430
:1006100054787F484444383844444420384444485B
:100620007F3854545418087E090102081454543C6D
:100630007F0804047800447D40002040443D0000D1
:100640007F10284400417F40007C041804787C0817
:1006500004047838444444387C14141408081414EE
:10066000187C7C080404084854545420043F444037
:10067000203C4040207C1C2040201C3C4030403C22
:1006800044281028440C5050503C4464544C44E0DE
:10069000E0E0E0E000007F0000E0A0A0A0E00808AB
:1006A0002A1C08081C2A08080006090906AC0019BB
:1006B0008040005245424F4F54494E472E2E2E0047
:1006C000E53311241FBECFEFDAE0DEBFCDBF15E06A
:1006D000A0E0B1E0EAE7FBE602C005900D92AC3283
:1006E000B107D9F727E0ACE2B5E001C01D92A6380A
:1006F000B207E1F713E0C1E6D3E004C02197FE01A1
:100700000E946E34C036D107C9F70E9495290C9417
:10071000BB350C940000CF93DF93EC0181EE94E0A5
:10072000998388831A8280E093E09C838B8380E0A6
:100730009CE09E838D831F82188681E089878EE1ED
:10074000E3EAF1E0DE01509601900D928A95E1F71F
:100750001FA61EA619AA18AA1BAA1AAAFE01F49679
:1007600088E0DF011D928A95E9F71CAE1DAE1FAE31
:100770001EAE3C961182108232968FEF9FE79183D6
:1007800080833296918380833296918380833296E0
:100790009183808332961082C55BDF4F1882DF9190
:1007A000CF910895FC01611109C081819281807F00
:1007B000480F592F511D528341830895613051F4E0
:1007C000818192818F7020E1429FA0011124480F06
:1007D000591FF1CF623039F481819281907F50E0CE
:1007E000542F4427F4CF633049F4818192819F7064
:1007F00050E0542F44275295507FE9CF643011F4D4
:1008000043830895653011F444830895663011F4EC
:1008100045830895673009F4468308953FB7F894F7
:1008200080916C0790916D07A0916E07B0916F0752
:1008300026B5A89B05C02F3F19F00196A11DB11D3B
:100840003FBFBA2FA92F982F8827BC01CD01620F77
:10085000711D811D911D42E0660F771F881F991F32
:100860004A95D1F708958F929F92AF92BF92CF92FF
:10087000DF92EF92FF924B015C010E940E046B012C
:100880007C010E940E046C197D098E099F09683E47
:10089000734081059105A8F321E0821A9108A1080F
:1008A000B10888EEC80E83E0D81EE11CF11C81144B
:1008B0009104A104B10429F7FF90EF90DF90CF904D
:1008C000BF90AF909F908F900895AF92BF92CF92BC
:1008D000DF92EF92FF920F931F93CF93DF936C0100
:1008E0007B018B01040F151FEB015E01AE18BF08E1
:1008F000C017D10759F06991D601ED91FC91019093
:10090000F081E02DC6010995892B79F7C501DF91AA
:10091000CF911F910F91FF90EF90DF90CF90BF90FC
:10092000AF900895CF93DF93EC018A85882329F057
:1009300081508A87DF91CF9108959C818E8198178D
:10094000C8F78D856827E881F9810084F185E02D5D
:1009500042E0CE0109958C818F5F8C83EBCFEF92C3
:100960000F931F93F901DA012C913E2D309532231C
:100970003C9330813E293083FC01D80198E080E02F
:1009800030E020E04C914E2189F02A95D9F720E003
:100990004C914E2159F02A95D9F720E84C914E21DF
:1009A00029F02A95D9F73A9561F717C047E04A959B
:1009B000F1F7000031E0550F4C914E2109F05160E4
:1009C0009A9529F45193839598E0681731F020E8BF
:1009D0004C914E2111F72A95D9F71F910F91EF9065
:1009E00008950F931F93F9012081202B2083DA01B2
:1009F0002C91202B2C9320814081202B30E010E083
:100A00000095109550E004231523DC015D9148E02A
:100A10000083550F40F474E07A95F1F720837AE073
:100A20007A95F1F705C07EE07A95F1F70000208312
:100A30004A9529F073E07A95F1F70000E9CF6A95BD
:100A400029F071E07A95F1F70000E0CF72E07A9535
:100A5000F1F700000000008374E07A95F1F70000E0
:100A6000000020831F910F9108957F928F929F9293
:100A7000AF92BF92CF92DF92EF92FF920F931F93AC
:100A8000CF93DF93DB01642F5901F02E282F30E044
:100A9000F901EF5BFB4FE4902E5D3B4FF901249190
:100AA00030E0220F331FF901EC5EFB4FC591D4916A
:100AB000F901EA5FFB4FC590D490F901E850FC4F73
:100AC000859094907FB6F8940E2D9601AE01CD01DD
:100AD0000E94F10484019601AE016F2DC5010E94B0
:100AE000AF047FBEDF91CF911F910F91FF90EF90E8
:100AF000DF90CF90BF90AF909F908F907F900895A0
:100B0000CF93DF93FC0187812FEF3FE7813011F412
:100B100020E830E8462F50E0DF018FE0689FA00D0D
:100B2000B11D112450969C916185892F837082306C
:100B300021F1833029F0813021F58093C7061BC055
:100B4000611111C081E08093C7069C70983009F450
:100B500057C09C30D1F0943009F055C0846093E0C8
:100B60009093C6061CC0623061F48091C70688234A
:100B700041F0813021F081E0E8CF8093C70682E028
:100B8000E4CF1092C70680E0E0CF6230E1F59091AB
:100B9000C6069923C1F1933089F194E0892B9FE037
:100BA000949FD001959FB00D1124AE0FBF1F50969A
:100BB0008C9350978085EF01C40FD51F813031F1A0
:100BC000823009F46CC088A9811108C056963C9304
:100BD0002E93559758963C932E9357978AA9811137
:100BE00055C06FE0649FC001659F900D1124E80F10
:100BF000F91F328F218F348F238F48C098E0CECFDA
:100C0000886094E0ADCF1092C606C9CF8AA9811141
:100C100008C05A963C932E9359975C963C932E931A
:100C20005B978FE0849FD001859FB00D1124AE0F9C
:100C3000BF1F50968C918C70843071F1883049F5CB
:100C40008FEF9FEF2FE0249FD001259FB00D11243F
:100C5000AE0FBF1F56969C938E93559750968C91CE
:100C6000837030E020E0813031F02FEF3FEF8230B1
:100C700011F02FEF3FE76FE0649FC001659F900D7B
:100C80001124E80FF91F308F278B108ADF91CF9145
:100C900008958FEF9FE7D6CF90E080E0D3CF88A96B
:100CA000811108C056963C932E93559758963C93C5
:100CB0002E9357978FE0849FD001859FB00D11240C
:100CC000AE0FBF1F50968C918C70843059F18830D4
:100CD00031F58FEF9FEF2FE0249FD001259FB00DBE
:100CE0001124AE0FBF1F5A969C938E93599750961E
:100CF0008C91837030E020E0813031F02FEF3FEFB6
:100D0000823011F02FEF3FE76FE0649FC001659FD5
:100D1000900D1124E80FF91F348F238FB6CF8FEF7A
:100D20009FE7D9CF90E080E0D6CFCF93DF93DC016F
:100D300013962D913C911497C62FD0E0FC018FE0C3
:100D4000689FE00DF11D112461897289C901862314
:100D500097232817390709F04BC080898F7082309C
:100D600071F128F48130C9F190E080E021C0843035
:100D700089F08830C9F782E018968C93108A209504
:100D800030958189928928233923328B218B84E005
:100D900090E00EC081E018968C93108A20953095D3
:100DA0008189928928233923328B218B82E090E03C
:100DB0009093C5068093C406DF91CF91089518964D
:100DC0001C92108A20953095818992892823392395
:100DD000328B218B81E090E0EBCF108A209530950B
:100DE000262337233061328B218B88E090E0E0CFDF
:100DF00015964D915C9116976423752346175707F6
:100E000009F0B2CF80898F70823009F440C088F435
:100E1000813009F0A9CF19961C92108A40955095FF
:100E20008189928948235923528B418B80E290E03B
:100E3000BFCF8430D9F1883009F096CF8091C406B5
:100E40009091C5068115924041F01B968C911B979D
:100E500091E089271B968C931B972FE02C9FC00154
:100E60002D9F900D1124A80FB91F50961C925097DA
:100E70004095509551968D919C91529748235923B6
:100E800052965C934E93519780E092E091CF81E02F
:100E900019968C93108A40955095818992894823A0
:100EA0005923528B418B80E490E082CF82E01996E7
:100EB0008C93108A409550958189928948235923B3
:100EC000528B418B80E890E073CF93B13FB12FB14B
:100ED0004FB196959170990F990F990F331F332742
:100EE000331F330F330F930F45FB332730F9930F25
:100EF00026FB222720F9220F920F813021F01B9927
:100F000090611E999062892F089549B12CB133B137
:100F100053B126FB992790F9990F990F242F221F7F
:100F20002227221F220F220F220F920F55FB22276A
:100F300020F9920F34FB222720F9220F920F8130E3
:100F400021F03699906137999062892F0895982FF2
:100F50008F3479F0823069F0863169F0833169F03D
:100F6000803E69F0813E69F081E09F3F59F480E066
:100F7000089584E0089585E0089586E0089582E06C
:100F8000089583E0089584E98093BC0085E69091FC
:100F9000BC0094FF03C08150D1F7089581E008950B
:100FA00080915A078F5F853018F480935A0708950F
:100FB00081E0FBCF089588E091E0089589EE94E008
:100FC0000895EF92FF920F93CF93DF931F92CDB7C7
:100FD000DEB77C01FC018589198203E0970141E0BD
:100FE000BE016F5F7F4F0E943505F701833029F006
:100FF00010821182128290E016C080819181883027
:101000009042C9F0F701858991E4998397012D5F9A
:101010003F4F0AE041E0BE016F5F7F4F0E94350500
:1010200091E08A3041F7892F0F90DF91CF910F9196
:10103000FF90EF90089591E0F6CF1F93CF93DF9349
:10104000EC0165E070E080E090E00E94330482E013
:1010500080939A01FE01EC56FF4F808191810E949E
:10106000E10711E018AB1AABFE01EA56FF4F808191
:1010700091810E94E10719AB1BAB62E370E080E055
:1010800090E0DF91CF911F910C943304EF92FF9287
:101090000F93CF93DF9300D01F92CDB7DEB77C01C3
:1010A000FC0180819181892BC9F09701235F3F4F1B
:1010B000F7018589408151814830504219F594E506
:1010C00099831A821B8208E043E0BE016F5F7F4F65
:1010D0000E943505883081F481E005C0C7010E9477
:1010E000E1078111E2CF0F900F900F90DF91CF9128
:1010F0000F91FF90EF900895F701108211821282F4
:1011000080E0F1CFF701928193FB992790F940E4B9
:10111000498343E04A839B8308E0D7CF21982998ED
:10112000299A3E984698469A3F984798479A5798E2
:101130005F985F9A22982A982A9A6E987698769A5B
:1011400054985C985C9A24982C982C9A25982D9801
:101150002D9A23982B982B9A10929C0110929B0108
:1011600064E170E080E090E00C94330484E091E06E
:10117000089580EF94E00895FC01E756FF4F108238
:10118000249A2C98259A2D9A6E987698769A549A45
:101190005C9886559F4FDC011C92869A8E98859AA2
:1011A0008D9A87988F988F9A229A2A9883E290E056
:1011B0000197F1F78081811112C082E080939A013A
:1011C00080919B0190919C018230910538F0880FAD
:1011D000991F880F991F05970197F1F7089582E0ED
:1011E00080939A0188EE93E090939C0180939B01F9
:1011F000E7CF8A549F4FFC018081811103C081E0B9
:1012000091E0089582E091E008958A549F4FFC0197
:101210008081811103C082E095E008958AEF94E017
:101220000895FC019081911106C0838194810196FB
:1012300099F080E008959F3049F4228130E02F70CA
:1012400033272F30310561F482E00895923031F078
:10125000943031F485E0089583E0089584E00895A2
:1012600081E008958CE091E008958AE095E008958A
:10127000DC0117961C92179718961C9218971996CE
:101280001C9219978AE5E1ECF1E01A9601900D9213
:101290008A95E1F70895FC0180818783818192819D
:1012A00091878087838182878481838785818487F2
:1012B0008681858708958F929F92AF92BF92CF9239
:1012C000DF92EF92FF920F931F93CF93DF937C01F6
:1012D000549A5C9A25982D982D9A24982C982C9A9B
:1012E0006E987698769A57985F985F9A3E98469847
:1012F000469A3F984798479AEC01CC56DF4F18869C
:101300008C0102561F4F5C0188EFA80EB11CCC2443
:10131000CA9488248A94982C30E8D32EF801C0828D
:10132000168692828182D382D48215821682C80167
:101330000E944B09015F1F4F0A151B0579F7229A7E
:101340002A9A85988D988D9A86988E988E9A8798E5
:101350008F988F9A21982998299A23982B982B9ABD
:1013600026982E982E9AF801108687010E5F1E4F40
:10137000F4EAEF1AFEEFFF0ACC24CA94AA24AA9436
:10138000BA2C90E8D92EF801C0821686B282A182CA
:10139000D382D48215821682C8010E944B09015F54
:1013A0001F4FE016F10679F762E370E080E090E00D
:1013B0000E94330480ED97E02BE030E0369940C086
:1013C000F9013197F1F70197C9F782E080939A010B
:1013D00062E370E080E090E0DF91CF911F910F9188
:1013E000FF90EF90DF90CF90BF90AF909F908F9045
:1013F0000C943304213009F06AC0813009F067C0D1
:101400009985913019F089873F9A479AE1E060E029
:10141000F1E04BE050E04798362F3F2780ED97E012
:1014200026B126FB222720F932135BC0DA0111977F
:10143000F1F70197A9F7C9CFE82F61E0479AECCF00
:1014400039B18CB193B143B186FB222720F9220F29
:10145000220F832F881F8827881F880F880F880FE7
:10146000280F45FB882780F9280F94FB882780F9EF
:10147000880F280F5C988BE090E00197F1F749B155
:101480009CB133B153B196FB882780F9880F880F40
:10149000942F991F9927991F990F990F990F890FC9
:1014A00055FB992790F9890F34FB992790F9990FEB
:1014B000890F233009F09ECF8F3049F48985813020
:1014C00021F081E089873F9A479A84E088875C9A77
:1014D0008985813009F4479A8BE090E00197F1F714
:1014E00074CFCA010197F1F739B19CB123B173B13F
:1014F00096FB882780F9880F880F932F991F9927CB
:10150000991F990F990F990F890F75FB992790F9DA
:10151000890F24FB992790F9990F890F662309F405
:101520008BCF613009F089CFE43089F6813079F6CC
:1015300086E0CCCFFC016093BC002FEF3FEF8091A1
:10154000BC0087FF06C09091B900987F908381E02E
:1015500008952150310999F780E00895CF93DF93E2
:10156000EC016093BB0064E80E949A0A882329F08A
:1015700081E09881983209F080E0DF91CF91089561
:10158000DF92EF92FF920F931F93CF93DF93EC01C3
:10159000D62EF42E8989882329F0411103C00E9498
:1015A000C307198A8E01015F1F4F8989811119C0F4
:1015B000E88864EAC8010E949A0A882361F08F854E
:1015C000883011F0803139F4EE0CE092BB0064E811
:1015D000C8010E949A0A60E0F11060E4C8010E940C
:1015E000AE0A6D2DC8010E94AE0A82E0F8120BC04F
:1015F00089898F5F898BDF91CF911F910F91FF9028
:10160000EF90DF9008950E94C307198AF4CFDC01A0
:10161000ED91FC910084F185E02D40E00994FC01FE
:101620002781269526952695621720F46583606BA1
:101630000C94070B08950F931F93CF93FC01268101
:10164000621798F4C62F8C0164836085C60F6C2FD7
:101650006F700E94070B6C2F62956F706061C801FC
:10166000CF911F910F910C94070BCF911F910F9168
:1016700008951F93CF93DF93EC01142F0E941B0B4F
:10168000612FCE01DF91CF911F910C940F0B2F9200
:101690003F924F925F926F927F928F929F92AF9202
:1016A000BF92CF92DF92EF92FF920F931F93CF934F
:1016B000DF9300D000D000D0CDB7DEB7FC0123858A
:1016C00034852115310509F416C19E838D83F901F6
:1016D0003296649031964491E42EF12CF7E0EF0EAF
:1016E000F11C53E0F594E7945A95E1F7E982F9018A
:1016F000349654913196E4916D30F1F460E00E949B
:101700001B0B81E090E026960FB6F894DEBF0FBE6B
:10171000CDBFDF91CF911F910F91FF90EF90DF90A0
:10172000CF90BF90AF909F908F907F906F905F9081
:101730004F903F902F9008956A3081F460E08D8142
:101740009E810E941B0BED81FE81868565818E9DA9
:10175000600D1124CF010E940F0BD3CF651708F441
:10176000CAC08E2F90E0FC01E50FF11D6E171F0619
:101770000CF0C1C089010A5F1F4F651BED81FE811E
:1017800071855685759F502D11245C83F901549104
:101790002F5F3F4FF9012491352F2230310508F09A
:1017A0006AC06E9CC0016F9C900D1124689FF0016F
:1017B000699FF00D11240E0F1F1F512CED81FE812A
:1017C000F481FA83ED81FE812580F285FB83862CEE
:1017D000912CAA24A394B12C312C8981381608F0BD
:1017E00086C0412CED81FE818685481608F078C0C0
:1017F0008B818287311002C0442041F0ED81FE814F
:1018000045814F5F6A81CF010E94390BD12CC12CD9
:10181000C61408F058C0F801EC0DFD1D7490552059
:1018200061F0EA14FB0449F4E72DF0E0052C02C056
:10183000F595E7950A94E2F77E2EED81FE81868587
:10184000823081F4442009F43AC072948FE0782207
:10185000E72DF0E0E05AFB4F7490672D8D819E815B
:101860000E949204672D8D819E810E9492048FEFC9
:10187000C81AD80ACDCF477028E0522E541A411109
:1018800001C0512CF801612C30E020E0661631F0E7
:101890004491240F311D63943196F8CF600E712E60
:1018A000711CF3016490E29EF001E39EF00DF29E44
:1018B000F00D11248E0F9F1F080F191F7FCFF72DDA
:1018C000FF707F2EC5CFD12CEC81DE1639F060E0A1
:1018D0008D819E810E949204D394F6CF439482CF4F
:1018E0003394080D191DFFEFAF1ABF0A76CF622D92
:1018F0008D819E8130CF90E080E005CF0F931F93C4
:10190000CF93DF938C01D0E0C0E0F801EC0FFD1F16
:101910006491662341F080E797E00E94470B892B92
:1019200011F02196F2CFCE01DF91CF911F910F914F
:101930000895811104C088EC93E00C947E0C8130F2
:1019400019F487EB93E0F9CF8250853018F484ECDA
:1019500093E0F3CF8EEB93E0F0CF682F80E797E032
:101960000C94470BCF92DF92EF92FF920F931F934D
:10197000CF93DF93EC01F62EC42ED22E1A868F81E0
:10198000869586958695081710F00FEF080F1D2D88
:10199000011780F0412F6F2DCE010E94390BEF2CE3
:1019A000CE1430F06D85CE010E949204E394F8CFFE
:1019B0001F5FEECF4D2D6F2DCE01DF91CF911F9187
:1019C0000F91FF90EF90DF90CF900C94390B0F9315
:1019D000FC01078106950695069501504681415008
:1019E00020E060E00E94B20C0F9108954F925F9248
:1019F0006F927F928F92AF92CF92EF92FF920F935E
:101A00001F93CF93DF93CDB7DEB72701380194E062
:101A1000899F80011124F801E655F94F8081918159
:101A2000A281B3818E219521A621B72131E0892B96
:101A30008A2B8B2B09F430E03C1103C08889882362
:101A4000F1F0C11001C0A82C2D5F640F422F80E778
:101A500097E00E94390B8A2D0E94AD0CF801E655E3
:101A6000F94FCC20D1F080819181A281B38184296A
:101A70009529A629B72980839183A283B383DF9117
:101A8000CF911F910F91FF90EF90CF90AF908F90DB
:101A90007F906F905F904F90089540945094609421
:101AA000709480819181A281B38184219521A621A6
:101AB000B721E1CF6F927F928F929F92AF92BF92A8
:101AC000CF92DF92EF92FF920F931F93CF93DF930A
:101AD0003C01D62EC42FE62FF0E0EE0FFF1FED578E
:101AE000FB4FB08007E023E041816B2D80E797E05A
:101AF0000E94B20C47E06B2D80E797E00E94390B03
:101B0000C13091F58AEA93E00E947E0C81E08D1548
:101B1000E0F0E301C656DF4F8AEF680E711C99248E
:101B20009394E880F9800A811B819F928F80AE8018
:101B3000CC24C3942C814D816B2D8D2D0E94F60CED
:101B400028960F90C615D70561F7DF91CF911F91A9
:101B50000F91FF90EF90DF90CF90BF90AF909F904C
:101B60008F907F906F90089582EB93E0DF91CF91FB
:101B70001F910F91FF90EF90DF90CF90BF90AF90AB
:101B80009F908F907F906F900C947E0C2F923F923D
:101B90004F925F926F927F928F92AF92CF92DF922D
:101BA000EF92FF920F931F93CF93DF93CDB7DEB7E2
:101BB00060970FB6F894DEBF0FBECDBF3C01809199
:101BC00052018823C1F11092520107E023E04CE357
:101BD00060E080E797E00E94B20C47E060E080E7B9
:101BE00097E00E94390B13010EE9200E311C2301EE
:101BF0001EEE410E511CDD24D394D101ED90FD90D9
:101C00000D911C911397DF9217968C90179716964B
:101C1000AC901697C12C14962C91149715964C9154
:101C200063E280E00E94F60CB8E02B0E311C0F90AE
:101C30004214530411F763B133B173B1E9B15CB12C
:101C400093B149B186B126B1F3B163FB662760F960
:101C5000660F688B1F8635FB332730F93A8319826C
:101C60000F851889A981BA810A2B1B2BF695F17073
:101C7000FB831C82AB81BC810A2B1B2B729571707C
:101C80007D831E826D817E817695762F662777957E
:101C90006795062B172BE295E170EF8318866F810D
:101CA0007885E6E0660F771FEA95E1F7062B172B9C
:101CB00056FB552750F959871A8669857A85F5E0CC
:101CC000660F771FFA95E1F7062B172B92FB9927E2
:101CD00090F99B871C866B857C85A4E0660F771F37
:101CE000AA95E1F7062B172B042E000C550B442761
:101CF000550F441F552793E0440F551F9A95E1F760
:101D0000042B152B082E000C990B8827990F881F80
:101D10009927880F991F880F991F082B192B26FBCD
:101D2000222720F92D871E868D859E85880F991F75
:101D3000082B192B1A83098380915001909151012E
:101D40008017910709F4ACC0109351010093500122
:101D50009801209530952170332780E001FF82E0C3
:101D6000822BB98190E0B2FF94E0892BE98190E069
:101D7000E3FF98E0892BD30150968C9389819A8157
:101D800024E0969587952A95E1F7B1E08B279C0191
:101D900021703327E98190E080E0E5FD02C082E018
:101DA00090E0822B932BF98130E020E0F6FD02C019
:101DB00024E030E0822B932B098130E020E007FD06
:101DC00002C028E030E0822B932B29813A8130FF3A
:101DD00064C030E020E0822B932B49815A8130E0AF
:101DE00020E051FD02C020E032E0822B932BD30192
:101DF00052969C938E935197BEE96B0E711C312CB9
:101E0000212C44244394512CC201022C02C0880F7F
:101E1000991F0A94E2F7E981FA818E239F23CC244B
:101E2000C394892B09F0C12CD301ED90FD900D9145
:101E30001C9113971F9217968C9017971696AC903B
:101E4000169714962C91149715964C9163E280E0A6
:101E50000E94F60CBFEF2B1A3B0AE8E06E0E711CD5
:101E60000F90FAE02F16310479F681E060960FB6F4
:101E7000F894DEBF0FBECDBFDF91CF911F910F91C0
:101E8000FF90EF90DF90CF90AF908F907F906F900A
:101E90005F904F903F902F90089520E031E09BCFCE
:101EA00080E0E4CF6F927F928F929F92AF92BF9229
:101EB000CF92DF92EF92FF920F931F93CF93DF9316
:101EC0003C01D62FC42FE62FF0E0EE0FFF1FED5799
:101ED000FB4FD08007E023E041816D2D80E797E044
:101EE0000E94B20C47E06D2D80E797E00E94390B0D
:101EF000C33009F45AC0B0F48CE993E0C230C9F0A1
:101F000082EB93E0DF91CF911F910F91FF90EF90C3
:101F1000DF90CF90BF90AF909F908F907F906F9009
:101F20000C947E0CC43009F443C08EE893E0C530B5
:101F300039F70E947E0CD23049F187EB680E711C94
:101F4000B12C99249394C23049F487E08B15B8F0F2
:101F500083E0F301E05AFF4F8B1508F4F301E080B2
:101F6000F180028113819F928780A680CC24C39444
:101F7000248145816D2D8D2F0E94F60C0F90B39416
:101F800088E0680E711C8CE0B812DDCFDF91CF9134
:101F90001F910F91FF90EF90DF90CF90BF90AF9087
:101FA0009F908F907F906F90089587E993E0C1CFC5
:101FB00083E993E0BECF3F924F925F926F927F9200
:101FC0008F929F92AF92BF92CF92DF92EF92FF9249
:101FD0000F931F93CF93DF93B62E942E2901302EAB
:101FE000EC01C45ADE4FD12C662E712C660C771C86
:101FF000C3018D579B4F3C0192E0991215C0E8E058
:10200000DE1218C0DF91CF911F910F91FF90EF90DA
:10201000DF90CF90BF90AF909F908F907F906F9008
:102020005F904F903F900895F3E09F1203C08CE0C3
:10203000D816E9F0E880F9800A811B812C814D8156
:10204000AE808F8081E04114510449F0F20161813A
:1020500072816E217F2181E0672B09F080E03F9241
:10206000C82EF30160818B2D0E94F60C0F90D39443
:102070002896FDE0DF12C0CFC5CFEF92FF920F93FD
:102080001F93CF93DF937C01D62FC42FE62FF0E070
:10209000EE0FFF1FED57FB4F108107E023E041815A
:1020A000612F80E797E00E94B20C47E0612F80E744
:1020B00097E00E94390BC43069F180F4C23039F1E5
:1020C00080E793E0C33081F082EB93E0DF91CF9122
:1020D0001F910F91FF90EF900C947E0CC530E9F0AA
:1020E00088E593E0C63081F70E947E0CD23041F043
:1020F00001E030E020E04C2F6D2FC7010E94DB0F84
:10210000DF91CF911F910F91FF90EF9008958AE793
:1021100093E0EACF89E693E0E7CF82E693E0E4CF6D
:102120000F9307E022E04FE760E080E797E00E942E
:10213000B20C80915A078230D9F020F4813071F0CE
:102140000F9108958330E1F08430D1F764E280E7A5
:1021500097E00E941B0B8EED93E007C06CE080E7D8
:1021600097E00E941B0B8FEC93E00F910C947E0C78
:1021700064E280E797E00E941B0B8FEE93E0F5CFBF
:102180006AE280E797E00E941B0B87EE93E0EDCFB9
:10219000809399016EEA81116FEA80E797E00E94CF
:1021A000070B2FB7F8948091680790916907A09169
:1021B0006A07B0916B072FBF80935B0790935C0712
:1021C000A0935D07B0935E07089590E080E00895C6
:1021D000CF93DF93CDB7DEB72F970FB6F894DEBF5E
:1021E0000FBECDBF20919A016217E0F42FE0FE01EF
:1021F0003196DF01322F1D923A95E9F74FEF5FE7F5
:102200005F834E83598748875B874A875D874C8702
:10221000DC01269FA00DB11D1124509601900D9256
:102220002A95E1F72F960FB6F894DEBF0FBECDBF0B
:10223000DF91CF9108952F923F924F925F926F92CC
:102240007F928F929F92AF92BF92CF92DF92EF9246
:10225000FF920F931F93CF93DF93CDB7DEB7C75590
:10226000D1090FB6F894DEBF0FBECDBF3C018091FF
:102270005301882339F01092530140E060E0C3011C
:102280000E945A0D8091C20681116AC08091C306D6
:10229000811166C08091C006811109C0F301EC561E
:1022A000FF4F808191810E9446088093C0068093F1
:1022B000C2068091C106811109C0F301EA56FF4FA1
:1022C000808191810E9446088093C1068093C30655
:1022D00081E00E94C81007E027E04FE760E080E758
:1022E00097E00E94B20C67E080E797E00E940F0B36
:1022F00060E080E797E00E941B0B8091C20681118D
:102300000BC08091C306811103C082EB93E002C031
:102310008EEA93E00E947E0C62E480E797E00E94E0
:102320001B0B9091C2068091C306992309F4A4C0A7
:10233000811104C08EEA93E00E947E0C8091C20657
:10234000882329F041E060E0C3010E945A0D80918A
:10235000C306882329F041E061E0C3010E945A0DC1
:1023600021961FAE219722961FAE2297512C10E581
:10237000A12E13ECB12E05E1402E88EC882E912C75
:1023800080919A01581608F08CC0052D10E0F801D4
:10239000EE53F94F8081882309F46CC07801EE0C6C
:1023A000FF1CE60CF71C24E9E20EF11CD7018D910D
:1023B0009C910E944608F801E054F94F6F01882370
:1023C00009F45FC0D7012D913C9195E1F901DE013F
:1023D0009B9601900D929A95E1F7409EA001419E37
:1023E000500D1124E1E0F0E0EC0FFD1F4E0F5F1FD8
:1023F000BA96DA01942D01900D929A95E1F7DA01DF
:102400004D915C91FF24F3944115510509F4F12C91
:10241000F3019781911119C041155105B1F0000FD9
:10242000111F000F111FE00FF11F95A9911105C099
:1024300081E097A9911101C080E0D90112969C9189
:10244000129780FB93F912969C93F601808181117B
:102450000FC0452B69F0652DC3010E94E8109092D2
:102460009C0180929B0141E0652DC3010E945A0DA1
:10247000D601FC92539484CF81115ACF82EB93E022
:102480005BCF652DC3010E94E810B0929C01A09221
:102490009B0140E0652DC3010E945A0DF601108298
:1024A000E9CF23961FAE2397930128563F4F64969A
:1024B0003FAF2EAF6497B30167567F4F66967FAFED
:1024C0006EAF6697C30186509F4F68969FAF8EAFE1
:1024D000689780919A0123969FAD2397981708F0EB
:1024E0008BC3492E512CF201E054F94F808188238F
:1024F00009F44DC385E1849DF001859DF00D112403
:10250000A1E0B0E0AC0FBD1FEA0FFB1F95858685EB
:102510009C0129963FAF2EAF2997D201AA0FBB1F6E
:10252000A454B94F2D913C914785D201A654B94F7F
:102530008C91082E000C990B4817190611F550893B
:10254000D201A854B94F8C91082E000C990B581742
:102550001906B9F45189D201AA54B94F8C91082EA9
:10256000000C990B5817190661F45289F201EC54CA
:10257000F94F8081082E000C990B5817190609F4A1
:102580005DC3E0E4F0E0EC0FFD1FE40DF51D81E01C
:1025900029966EAD7FAD29972617370709F480E09D
:1025A0008083F301E40DF51D16A685E1849DD0011D
:1025B000859DB00D112481E090E08C0F9D1FA80F28
:1025C000B91F1E969C9193FB222720F982E092FF6F
:1025D00080E0822B95E1949DD001959DB00D112452
:1025E00021E030E02C0F3D1FA20FB31F1E969C91DF
:1025F00090FFD5C294E0892B95E1949DD001959DE3
:10260000B00D112461E070E06C0F7D1FA60FB71FA5
:102610001E969C9191FFC5C298E02FE0249DD001A9
:10262000259DB00D1124A60DB71D892B50968C93B6
:1026300085E1849DD001859DB00D112481E090E05D
:102640008C0F9D1FA80FB91F1D968C9181FB992798
:1026500090F961969FAF619762961FAE629722E0F4
:1026600030E080FD02C030E020E06296AEADBFAD4C
:1026700062972A2B3B2B85E1849DD001859DB00D6F
:10268000112461E070E06C0F7D1FA60FB71F1D962F
:102690008C9183FF88C284E090E0282B392B85E160
:1026A000849DD001859DB00D112481E090E08C0FB8
:1026B0009D1FA80FB91F1D968C9182FF77C288E0DD
:1026C00090E0822B932B25E1249DD001259DB00D18
:1026D000112421E030E02C0F3D1FA20FB31F1E96E6
:1026E0002C9124FF66C220E230E0822B932B25E15F
:1026F000249DD001259DB00D112461E070E06C0F88
:102700007D1FA60FB71F53963C9160E470E03333F2
:1027100010F470E060E0862B972B25E1249DD0011A
:10272000259DB00D112461E070E06C0F7D1FA60F98
:10273000B71F54962C9160E870E0233310F470E0DA
:1027400060E0862B972B55E1549DD001559DB00D2F
:10275000112461E070E06C0F7D1FA60FB71F1D965E
:102760005C9160E072E054FD02C070E060E05FE008
:10277000549DD001559DB00D1124A60DB71D862B7B
:10278000972B52969C938E935197D30117968C91C9
:10279000882331F090915F07992391F1813081F581
:1027A000B1E0B6A7303208F430E0203208F420E07F
:1027B00085E1849DF001859DF00D112461E070E0BC
:1027C0006C0F7D1FE60FF71F868586FD3FEF85E1C5
:1027D000849DF001859DF00D112481E090E08C0F27
:1027E0009D1FE80FF91F868585FD2FEF8FE0849DE3
:1027F000F001859DF00D1124E60DF71D358F268F14
:102800006496AEADBFAD6497CC906696EEADFFAD6D
:10281000669780814C1508F0CFC195E1949DF00139
:10282000959DF00D112421E030E02C0F3D1FE20FAB
:10283000F31FC78695E1949DF001959DF00D11243D
:10284000A1E0B0E0AC0FBD1FEA0FFB1F90899C1503
:1028500008F0C3C1C08A95E1949DF001959DF00DEB
:10286000112421E030E02C0F3D1FE20FF31F91896E
:102870009C1508F0B7C1C18A95E1949DF001959D22
:10288000F00D112461E070E06C0F7D1FE60FF71F63
:1028900092899C1508F0ABC1C28A882E912CB12C6C
:1028A000A12CD12CF12CE12C85E1849DF001859D9A
:1028B000F00D112481E090E08C0F9D1FE80FF91FAF
:1028C00097852E969FAF2E97C501B4016C197D098F
:1028D0008E099F092D966CAF7DAF8EAF9FAF2D9760
:1028E0002E967FAD2E97272F30E050E040E02C1938
:1028F0003D094E095F09AFEFB0E00E9432342D96DA
:102900002CAD3DAD4EAD5FAD2D970E941334822F9F
:102910002757233108F480E8282F30E08FE0849D8A
:10292000F001859DF00D1124E60DF71D922F8827EB
:10293000820F931F968B858B85E1849DF001859D89
:10294000F00D112481E090E08C0F9D1FE80FF91F1E
:1029500090892F969FAF2F97C701B6016819790903
:102960008A099B0927966CAF7DAF8EAF9FAF2797E3
:102970002F967FAD2F97272F30E050E040E02819A9
:1029800039094A095B09AFEFB0E00E94323427965B
:102990002CAD3DAD4EAD5FAD27970E941334822F15
:1029A0002757233108F480E8282F30E08FE0849DFA
:1029B000F001859DF00D1124E60DF71D922F88275B
:1029C000820F931F908F878B85E1849DF001859DF9
:1029D000F00D112481E090E08C0F9D1FE80FF91F8E
:1029E000918960969FAF6097292F30E050E040E0DA
:1029F0002C193D094E095F09AFEFB0E00E94323457
:102A00002D962CAD3DAD4EAD5FAD2D970E9413348C
:102A1000822F2757233108F480E8282F30E08FE0F9
:102A2000849DF001859DF00D1124E60DF71D922F78
:102A30008827820F931F928F818F85E1849DF001FB
:102A4000859DF00D1124A1E0B0E0AC0FBD1FEA0F91
:102A5000FB1FD2882D2D30E050E040E028193909C5
:102A60004A095B09AFEFB0E00E94323427962CADE3
:102A70003DAD4EAD5FAD27970E941334822F27578F
:102A8000233108F480E890E02FE0249DF001259D9B
:102A9000F00D1124E60DF71D382F2227820F931F0A
:102AA000948F838F1301BAE92B0E311C29968EADBA
:102AB0009FAD2997BC0190E080E02D966CAF7DAF73
:102AC0008EAF9FAF2D97D201AA0FBB1F2596BFAF28
:102AD000AEAF2597FD01ED57FB4FB080F101E080CF
:102AE000F180028113812D968CAD9DADAEADBFAD51
:102AF0002D978E219F21A023B123CC24C394892B11
:102B00008A2B8B2B09F4C12C1F92D10117968C9024
:102B100017971696AC90169714962C9114971596B5
:102B20004C916B2D23968FAD23970E94F60CB8E045
:102B30002B0E311C0F906896EEADFFAD6897E21535
:102B4000F30561F62596EEADFFAD2597E454F94FF8
:102B500029962EAD3FAD299731832083F201E654AB
:102B6000F94F2E963FAD2E973083F201E854F94F7E
:102B70002F966FAD2F976083F201EA54F94F60965C
:102B80007FAD60977083F201EC54F94FD0822396A9
:102B90008FAD23978F5F23968FAF23979ACC90E0CA
:102BA0002ACD90E03ACD90E080E077CD90E080E0D3
:102BB00088CD30E020E099CD841708F03BCE95E138
:102BC000949DF001959DF00D112461E070E06C0F73
:102BD0007D1FE60FF71F87872DCE891708F03BCEA4
:102BE000808B39CE891708F047CE818B45CE891767
:102BF00008F053CE828B51CE21968FAD2197811153
:102C000003C022968FAD2297C95ADF4F0FB6F894B2
:102C1000DEBF0FBECDBFDF91CF911F910F91FF900F
:102C2000EF90DF90CF90BF90AF909F908F907F906C
:102C30006F905F904F903F902F9008952996AEAD82
:102C4000BFAD29972A173B0709F4A1CF9ACC2F9241
:102C50003F924F925F926F927F928F929F92AF922C
:102C6000BF92CF92DF92EF92FF920F931F93CF9379
:102C7000DF93CDB7DEB766970FB6F894DEBF0FBE11
:102C8000CDBF2C019E012F5F3F4F38872F8386E0F9
:102C9000D9011D928A95E9F780914F01882381F02F
:102CA00010924F0180919A01833050F045E064E228
:102CB00080E797E00E94390B80EA93E00E947E0C47
:102CC000F201EC55FF4FD201D5969C91D597907F9C
:102CD000D7968C9182958F70892B80833A978081CB
:102CE0008583818192819783868383819481918773
:102CF00080873697D48014822C9A8BE290E00197DB
:102D0000F1F72C9883E190E00197F1F7208930E00A
:102D1000326750E040E090E080E063E170E037FF30
:102D20003DC15C9A220F331FACB1A6FB222420F8D0
:102D3000312CD101042E02C0AA0FBB1F0A94E2F766
:102D40008A2B9B2B2D98DB011197F1F72D9ADB0134
:102D50001197F1F74F5F5F4F4031510501F75C98D4
:102D6000192F12951F7000E11D3009F001E050E0AD
:102D700040E030E020E063E170E0ACB1A6FB662407
:102D800060F8712CD301042E02C0AA0FBB1F0A9455
:102D9000E2F72A2B3B2B2D98DB011197F1F72D9AA7
:102DA000DB011197F1F74F5F5F4F401730F3AC0134
:102DB00040955095209530951F3021F42E3FBFEF60
:102DC0003B0779F1848191E0980F948361E070E092
:102DD000811102C070E060E01111E2C0852F9927D7
:102DE0008F7099270F9709F0DBC08AE0869FD0018A
:102DF000879FB00D1124AE0FBF1F8FE016968C93E6
:102E000016971A963C932E9319978AE0869FD001C5
:102E1000879FB00D1124AE0FBF1F18965C934E9381
:102E2000179784818D15E8F44AE09FEF21E030E0A8
:102E3000811102C030E020E0429FD001439FB00DDD
:102E40001124AE0FBF1F16969C93169718961C92CE
:102E50001E9217971A961C921E9219978F5FD8127E
:102E6000E5CFF201E555FF4F808185838181928115
:102E70009783868383819481918780873697148195
:102E800014828E9A8BE290E00197F1F78E9883E19D
:102E900090E00197F1F7408950E0526770E060E000
:102EA00090E080E023E1E22EF12C57FF93C02A9AB4
:102EB000440F551F2FB1022E000C330B2227330F66
:102EC000221F3327062E02C0220F331F0A94E2F777
:102ED000822B932B8D98D7011197F1F78D9AD701FB
:102EE0001197F1F76F5F7F4F60317105F1F62A9806
:102EF000492F42954F7050E14D3009F051E070E09C
:102F000060E030E020E0A3E1EA2EF12CAFB10A2E20
:102F1000000CBB0BAA27BB0FAA1FBB27062E02C0A3
:102F2000AA0FBB1F0A94E2F72A2B3B2B8D98D701DF
:102F30001197F1F78D9AD7011197F1F76F5F7F4FD6
:102F4000651720F37C01E094F094209530954F3084
:102F500029F42E3FBFEF3B0709F463C0848191E061
:102F6000980F948361E070E0811102C070E060E02E
:102F7000411132C08F2D99278F7099270F9761F5D6
:102F80004AE0469FC001479F900D11248E0F9F1F5E
:102F90004FE0DC0116964C93169732C05C98C2CE77
:102FA000912F90958AE0869FD001879FB00D1124C4
:102FB000AE0FBF1F92FF08C084E016968C93169741
:102FC0009370292F30E01DCF8FE0182716961C93A1
:102FD000169717CF2A986CCF942F909592FF8BC09D
:102FE0008AE0869FA001879F500D11244E0F5F1F1E
:102FF00084E0DA0116968C9316979370292F30E0AF
:103000001A963C932E9319972AE0269FC001279F7A
:10301000900D11248E0F9F1FDC011896FC92EE92EA
:103020001797B481BE87B117F0F48B2F4AE09FEF5A
:1030300021E030E0811102C030E020E0429FD00169
:10304000439FB00D1124AE0FBF1F16969C93169789
:1030500018961C921E9217971A961C921E921997F8
:103060008F5F1813E5CFF201E856FF4F9080EE8591
:10307000E90DEA871201588A4F86D12C00E09201AF
:103080002B553F4F3C8B2B8BC2018C569F4F9E8BF9
:103090008D8B10919A019A85D91609F407C2D11621
:1030A00009F404C2BB24B394D91408F4B12C81E010
:1030B00090E0D91458F5D11002C090E080E02AE0E9
:1030C000289F3001299F700C1124A6E06A0E711C04
:1030D000ED89FE896E0E7F1E123071F5992049F13F
:1030E000C3010E941109E1E0F0E0EC0FFD1FEB0DC0
:1030F000F11D808321C05AE0569FC001579F900D5B
:1031000011248E0F9F1F5FE0452743CFD91002C0C7
:1031100090E080E02AE0289F3001299F700C112464
:10312000F6E06F0E711C2B893C89620E731E123003
:1031300019F43E853111D4CFD3019C9115968C9111
:103140001597981316C011962D913C9112971696CB
:103150008D919C9117972817390759F413962D9143
:103160003C91149718968D919C912817390709F472
:1031700075C0EF85F88912AAD3018C9115969C91A0
:10318000159789130CC0811118C013968D919C91CD
:10319000019699F4F30180859185019671F06D2D6A
:1031A000C2010E94E810123041F4C3010E941109CB
:1031B000482F6B2DC2010E94520FC3010E941109BA
:1031C0008B87D30111962D913C91C90134E09695DE
:1031D00087953A95E1F7817092E025FF90E0892B81
:1031E00094E026FF90E0892B98E027FF90E0892B60
:1031F000F101808BD30111962D913C91BB85A901E2
:1032000041705527B230A1F582E090E021FD02C067
:1032100090E080E0842B952BF101928B818BF30160
:10322000218180E091E022FD02C090E080E023FF58
:10323000F5C020E032E0D10151964D915C9152975A
:10324000842B952B822B932B52969C938E93519784
:1032500080919A01823009F4E4C001E0D3943FE008
:10326000230E311C8F8598890196988B8F8711CFFB
:1032700082E090E030FD02C090E080E0842B952B4E
:1032800044E050E021FD02C050E040E0842B952B4B
:1032900048E050E031FD02C050E040E0842B952B27
:1032A00040E150E032FD02C050E040E0842B952B1D
:1032B00033FF8FC020E230E0822B932BD101529656
:1032C0009C938E935197BB85B43009F088C0F3016D
:1032D0004381548160E470E052FD02C070E060E020
:1032E00020E830E055FD02C030E020E0862B972B2F
:1032F000E0E0F4E053FD02C0F0E0E0E0282B392BE1
:1033000060E078E054FD02C070E060E02E2B3F2BBF
:1033100080E090E157FD02C090E080E0262B372B43
:10332000282B392BD10152963C932E935197F301C0
:1033300023813481A9014170552782E090E021FD6D
:1033400002C090E080E0842B952B44E050E022FD09
:1033500002C050E040E0842B952B48E050E023FD74
:1033600002C050E040E0842B952B40E150E024FD6A
:1033700002C050E040E0842B952B40E250E025FD58
:1033800002C050E040E0842B952B40E450E026FD45
:1033900002C050E040E0842B952B40E850E027FD30
:1033A00002C050E040E0842B952B40E051E030FD1E
:1033B00002C050E040E0842B952B31FF0DC020E08F
:1033C00032E0822B932BD10154969C938E9353978A
:1033D00026CF30E020E070CF30E020E0F2CFBB8598
:1033E000B53009F01CCFF30123813481A90141706C
:1033F000552720FF02C040E450E021FF0CC020E828
:1034000030E0842B952B822B932BD10152969C93E9
:103410008E93519704CF30E020E0F3CF30E020E0EE
:103420000ACFF201E954FF4FFD87EC8719868B2DF7
:1034300090E0880F991F9C012D573B4F3A8B298BA9
:103440003B85323081F58985883008F5843058F520
:10345000EC85FD85E05AFF4FE080F1800281138109
:10346000D30111968D919C918E219F21CC24C394E0
:10347000892B09F4C12C1F928780A6802481458165
:10348000E989FA8960818B2D0E94F60C0F90F985ED
:10349000FF5FF9872C853D85285F3F4F3D872C874F
:1034A000FC3071F6DACEEC85FD85D6CFD9801230AE
:1034B00059F4809149018D1539F0D11005C040E0D3
:1034C00060E0C2010E94520FD09249011A8180919E
:1034D0009A01823059F480914A01811739F0111113
:1034E00005C040E061E0C2010E94520F10934A0102
:1034F000D090B3069A859D1560F4192F80919A019A
:10350000811739F0612FC2010E94E8101F5F1D155D
:10351000A8F3AA85A093B306802F66960FB6F894F9
:10352000DEBF0FBECDBFDF91CF911F910F91FF90F6
:10353000EF90DF90CF90BF90AF909F908F907F9053
:103540006F905F904F903F902F900895FC01809175
:1035500068069091690686179707A0F061157105B6
:1035600029F49091E8009E779093E80090E061152F
:10357000710551F4911108C08091E80082FF35C0B7
:1035800080E00895BC01F2CF809156078823C9F1ED
:103590008530C9F18091E80083FD31C08091E80059
:1035A00082FDEACF8091E80080FFE1CF2091F30017
:1035B0008091F200322F282F6115710519F0203407
:1035C000310558F091E02034310509F090E0209168
:1035D000E8002E772093E800CACF81918093F10014
:1035E000615071092F5F3F4FE7CF809156078823C5
:1035F00041F0853041F08091E80083FFBDCF81E04C
:10360000089582E0089583E008952091E4003091C8
:10361000E50085E69091EC0090FF06C09091E800EF
:1036200090FF06C080E008959091E80092FDFACFE7
:1036300090915607992391F0953091F09091EB007D
:1036400095FD10C04091E4005091E5002417350726
:1036500009F381509A01F1F684E0089582E008951B
:1036600083E0089581E008958091620687FF13C08A
:103670008091E80082FF06C08091E8008B778093FC
:10368000E80004C0809156078111F2CF089580911F
:1036900056078823D9F38091E80080FFF8CF809106
:1036A000E8008E77ECCF982F973028F08F708093BA
:1036B000E90081E008959093E900242F762F50E0EF
:1036C000981731F07091EC002091ED005091F000CE
:1036D00021FD02C09F5FE8CF3091EB003E7F309329
:1036E000EB003091ED003D7F3093ED003091EB0029
:1036F00031603093EB007093EC002093ED00509319
:10370000F0002091EE0027FDE5CF80E0089542E033
:1037100050E061E175E080E797E00C946504CF9399
:10372000DF930E947E0CEC010E94871B8C0F9D1F73
:10373000DF91CF9108950E9499352F923F924F9239
:103740005F926F927F928F929F92AF92BF92CF9231
:10375000DF92EF92FF920F931F93CF93DF93CDB73A
:10376000DEB764970FB6F894DEBF0FBECDBF6C0115
:103770009E012F5F3F4F38872F8386E0D9011D922E
:103780008A95E9F780914801882381F010924801D9
:1037900080919A01833050F045E06EE180E797E038
:1037A0000E94390B84E893E00E947E0C8601025649
:1037B0001F4FDA86C9861601B8EF2B0E311CC801DF
:1037C0000E944B09015F1F4F02151305C1F7260127
:1037D000E4E94E0E511CD20117969C90179717964C
:1037E0001C92179718961C925C9A0BE010E0C80187
:1037F0000197F1F77601BDE9EB0EF11CF70180812D
:103800000E948507782E5C98C8010197F1F7D701CF
:103810008C910E948507272D2770F2019185372D05
:103820003F70243009F0B5C0913021F091E09187CC
:103830003F9A479AD20117969C91179721E0290F3A
:1038400017962C93973008F096E0F201BFE09B9F0B
:10385000E00DF11D11249FE49287438554855F702C
:10386000232F30E0322F22273295307F240F351F4F
:10387000207F8F70280F311D348723875C9A4798EB
:103880002BE030E0C9010197F1F759B19CB143B188
:1038900063B196FB882780F9880F880F952F991FB1
:1038A0009927991F990F990F990F890F65FB9927F0
:1038B00090F9890F44FB992790F9990F890F40E1FE
:1038C000849FC0011124438554854F70840F951F38
:1038D000948783875C984798C9010197F1F739B1BC
:1038E0009CB123B143B196FB882780F9880F880FDC
:1038F000932F991F9927991F990F990F990F890F46
:1039000045FB992790F9890F24FB992790F9990F86
:10391000890F90E0982F882723853485307F820F88
:10392000931F948783875C9AF2018185813009F423
:10393000479A83E290E00197F1F7D20117961C9124
:1039400060E07FE04FEF5FEF00E8161709F414C264
:10395000862F673008F086E0282F30E0F201789F4C
:10396000E00DF11D112492858189981781F054870B
:103970004387058706872F5F3F4F729FC001739F64
:10398000900D1124840D951DDC011C92108A6F5F2F
:10399000DCCF313009F03AC1282F2F70213009F0E7
:1039A00035C1913019F021873F9A479A60E041E094
:1039B0002BE030E04798762F742780ED97E056B1E2
:1039C00056FB552750F97513F5C6F9013197F1F7F4
:1039D0000197A9F7A8CF79B19CB153B1E3B196FB98
:1039E000882780F9880F880F972F991F9927991F8B
:1039F000990F990F990F890FE5FB992790F9890F76
:103A000054FB992790F9990F890F613009F0F1C69D
:103A1000B4E0BB1203C0813009F485CFF82EFF0C4F
:103A2000B11020C0823029F190E080E051E06BE0DD
:103A300070E0F91609F477CF882309F494C0479A07
:103A40008527A82FA17020ED37E046B146FB44271B
:103A500040F9FB01A413D0C63197F1F72150310989
:103A6000A1F761CFE1E0BE1270C0863011F0833063
:103A7000D9F6D20117969C91179721E0290F179636
:103A80002C93973008F096E0292F30E06FE0A201E8
:103A9000969F400D511D1124FA013A96FC87EB8741
:103AA000629FA001639F500D1124FEE0440D551D3F
:103AB000BF125BC0BB24BA94B80E80EEB826DA0100
:103AC0001A96BC9210E0E12C00E083E0682E712C85
:103AD0008FE0829F5001839FB00C1124A40CB51C71
:103AE000A501405F5F4F5E874D872F5F3F4F829FED
:103AF000A001839F500D1124B201640F751F788BB4
:103B00006F87C5010E969A8B898BD5011D96BC8B4C
:103B1000AB8BBBE0AB0EB11CF11609F404CFEE2069
:103B200069F1479A81E0E8263E2D317080ED97E0FB
:103B300026B126FB222720F9321362C6EBE0F0E023
:103B40003197F1F70197A1F7EECEFEE0BF1204C066
:103B5000833008F48ECF68CF2FE0B21265CF8F305C
:103B600009F062CFE0CE47986BCFB0E1BB9EB001C9
:103B70001124B82EB626FA01B286A4CF4798D2CF28
:103B8000133079F4F501208131813F70487050E0A5
:103B9000542F44275295507F420F531F5183408327
:103BA00052C6143089F1153049F4F0E10F9FC0017D
:103BB0001124482BAB89BC894C9345C6163021F1A2
:103BC000173049F4B0E10B9FC0011124482BE9895B
:103BD000FA89408338C61830B9F0193041F4F0E161
:103BE0000F9FC0011124482BAF85B889E5CF1A304B
:103BF00059F01B3009F027C6B0E10B9FC00111241A
:103C0000482BED85FE85E5CF042F1DC6282F2C708F
:103C100009F09BC0992331F0D20119961C923F986C
:103C20004798479AF201978121E0290F278397301F
:103C300008F096E0A92EB12CF2012FE0929FE00D42
:103C4000F11D112490EE9287972D9C7009F46BCE94
:103C500043855485407FBA01630F711D9B012F700E
:103C60007294AFE07A2286958695782A70E1779EE5
:103C7000C0011124280F391F3487238784E091E085
:103C80004BE050E021E0992309F45DC05C9AFA0111
:103C90003197F1F792278150B1F7D7018C910E94AB
:103CA00085079FE09A9DF0019B9DF00D1124E40D86
:103CB000F51D908D992321F021EE22879150908F50
:103CC0008F7009F030CE8FE08A9D80018B9D100DA2
:103CD0001124040D151D84E6F801808F5C9A3BE0E9
:103CE000A32EB12CC5010197F1F7D7018C910E9449
:103CF0008507782E5C98C5010197F1F7F70180815F
:103D00000E94850791EED8011A969C931A971B96EC
:103D10002D913C911C97307F472D4F7050E0542FD0
:103D20004427240F351F3F70880F880F880F90E0BD
:103D3000982F88279295907F280F391F1C963C93C7
:103D40002E931B97F0CD5C98A2CF333061F48F7027
:103D50008F3049F4913009F4E6CD81E0F20181879A
:103D60003F9A479AE0CD992309F4DDCDD201199607
:103D70001C923F984798F5CF691528F57FE01FEF13
:103D80004FEF5FEF00E8862F673008F086E0282FBE
:103D900030E0F201789FE00DF11D11241287108EA2
:103DA00054874387058706872F5F3F4F729FC00167
:103DB000739F900D1124840D951DDC011C92108AB7
:103DC0006F5F9612E0CF7601BEEFEB1AFB0A860119
:103DD000045A1E4FC7010E944B09EFE0EE0EF11C82
:103DE0000E151F05B9F7D10117969C9017971796D6
:103DF0001C92179718961C922A9A0BE010E0C801A3
:103E00000197F1F77601B1E0EB0EFB1EF70180811F
:103E10000E946507782E2A98C8010197F1F7D7010B
:103E20008C910E946507272D2770F1019185372D10
:103E30003F70243009F0B2C0913021F091E09187B9
:103E4000269A2E9AD10117969C91179721E0290F57
:103E500017962C93973008F096E0F101BFE09B9FF6
:103E6000E00DF11D11249FE49287438554855F7016
:103E7000232F30E0322F22273295307F240F351F39
:103E8000207F8F70280F311D348723872A9A2E9820
:103E90002BE030E0C9010197F1F783B14FB19FB139
:103EA0005FB186958170880F880F880F441F442763
:103EB000441F440F440F840F55FB442740F9840FDF
:103EC00096FB992790F9990F890F40E1849FC001D3
:103ED0001124438554854F70840F951F94878387E1
:103EE0002A982E98C9010197F1F783B12FB19FB19C
:103EF0003FB186958170880F880F880F221F222777
:103F0000221F220F220F820F35FB222720F9820F5A
:103F100096FB992790F9990F890F90E0982F8827A1
:103F200023853485307F820F931F948783872A9A55
:103F3000F1018185813009F42E9A83E290E00197A6
:103F4000F1F7D10117961C91A12C6FE04FEF5FEFB5
:103F500070E81A1509F41BC28A2DB6E0BA1508F4E8
:103F600086E0282F30E0F101689FE00DF11D11245B
:103F700092858189981781F0548743877587768762
:103F80002F5F3F4F629FC001639F900D1124820DF0
:103F9000931DDC011C92108AA394DBCF313009F011
:103FA0003EC1282F2F70213009F039C1913019F00E
:103FB0002187269A2E9A60E041E02BE030E02E988F
:103FC000762F742780ED97E053B153FB552750F9B6
:103FD00075133BC4F9013197F1F70197A9F7A7CF02
:103FE00083B15FB19FB17FB186958170880F880FD3
:103FF000880F551F5527551F550F550F850F75FBFA
:10400000552750F9850F96FB992790F9990F890F3D
:10401000613009F038C4B4E08B1203C0813009F478
:1040200086CF782E770C811020C0823029F190E065
:1040300080E051E06BE070E0791609F478CF8823D6
:1040400009F491C02E9A8527A82FA17020ED37E0A2
:1040500043B143FB442740F9FB01A41317C4319734
:10406000F1F721503109A1F762CFE1E08E126DC066
:10407000863011F08330D9F6D10117969C911797AD
:1040800021E0290F17962C93973008F096E0492FDE
:1040900050E06FE09101969F200D311D1124F90130
:1040A0003A96FC87EB87649F9001659F300D112441
:1040B000FEE0220D331D8F1258C0815090EE8927EB
:1040C000D9011A968C93B12C812CA12C6FE0649F9E
:1040D0008001659F100D1124C60188509F4F7C01FF
:1040E000E00EF11E9701205F3F4F3E872D874F5F07
:1040F0005F4F649F9001659F300D1124AC01420F0A
:10410000531F588B4F87B701625F7F4F7A8B698B44
:10411000020D131D055F1F4F7B1409F408CF882083
:1041200069F12E9A81E08826382D317080ED97E074
:1041300023B123FB222720F93213ACC3EBE0F0E0DC
:104140003197F1F70197A1F7F2CEFEE08F1204C08C
:10415000833008F491CF6BCF2FE0821268CF8F307D
:1041600009F065CFE4CE2E986ECFB0E18B9EB00102
:104170001124882E8626F9018286A5CF2E98D2CFCB
:1041800073E0B71210C0D8012D913C9111973F7088
:10419000487050E0542F44275295507F420F531FD0
:1041A0004D935C939CC3B4E0BB16B9F1E5E0BE123D
:1041B00009C0F0E1AF9EC0011124482BD7011D9624
:1041C0004C938DC3B6E0BB1641F1E7E0BE1209C0C7
:1041D000F0E1AF9EC0011124482BA989BA894C9304
:1041E0007EC3B8E0BB16C9F0E9E0BE1208C0F0E13A
:1041F000AF9EC0011124482BAF85B889F0CFBAE03B
:10420000BB1659F0EBE0BE126AC3F0E1AF9EC001ED
:104210001124482BAD85BE85E2CFA42E60C3282F84
:104220002C7009F09DC0992329F0F1011186269880
:104230002E982E9AD10117969C91179721E0290F5D
:1042400017962C93973008F096E0A92EB12CF10127
:10425000BFE09B9FE00DF11D112490EE9287972DFA
:104260009C7009F464CE43855485407FBA01630F86
:10427000711D9B012F707294AFE07A22869586950E
:10428000782A70E1779EC0011124280F391F3487E6
:10429000238784E091E04BE050E021E0992309F48A
:1042A0005DC02A9AFA013197F1F792278150B1F750
:1042B000D7018C910E9465079FE09A9DF0019B9D1C
:1042C000F00D1124E20DF31D908D992321F021EEC4
:1042D00022879150908F8F7009F029CE8FE08A9DB0
:1042E00080018B9D100D1124020D131D84E6F80131
:1042F000808F2A9A5BE0A52EB12CC5010197F1F7BA
:10430000D7018C910E946507882E2A98C5010197D4
:10431000F1F7F70180810E94650791EED8011A96A6
:104320009C931A971B962D913C911C97307F482D9A
:104330004F7050E0542F4427240F351F3F70880FD3
:10434000880F880F90E0982F88279295907F280FEC
:10435000391F1C963C932E931B97E9CD2A98A2CF28
:10436000333061F48F708F3049F4913009F4DFCD30
:1043700081E0F1018187269A2E9AD9CD992309F4FB
:10438000D6CDD10119961C9226982E98F5CFA91456
:1043900030F56A2D7FE01FEF4FEF5FEF00E8862FCB
:1043A000673008F086E0282F30E0F101789FE00DBB
:1043B000F11D11241287108E5487438705870687C5
:1043C0002F5F3F4F729FC001739F900D1124820D8C
:1043D000931DDC011C92108A6F5F9612E0CFF601EC
:1043E000E556FF4F6080B62CBA0C460110E01B86E4
:1043F00000919A011B1509F468C1101709F465C1F1
:1044000077247394161508F4712C812F161508F073
:1044100032C1173008F086E0F2012FE0829FE00DF4
:10442000F11D1124AF01465F5F4F7A01033008F49C
:1044300038C1D7019C9117968C91179798132BC070
:1044400011962D913C91129718968D919C911997E8
:104450002817390701F513969C9113971A968C919A
:104460001A97981318C014969C9114971B968C91C8
:104470001B97981310C015969C9115971C968C91BC
:104480001C97981308C016969C9116971D968C91B0
:10449000981709F4E5C0F40116A610AAD7019C915B
:1044A00017968C91981779F0612FC6010E94E81039
:1044B000033048F4F70180810E94A707482F672D39
:1044C000C6010E943D10D70111962D913C91A90182
:1044D000409550954170552782E021FD80E0842B66
:1044E00094E022FD90E0892B98E023FD90E0892B59
:1044F000E985FA85808BD70111962D913C91C901F0
:1045000046E0969587954A95E1F7B1E08B27AC0197
:104510004170552782E090E024FF02C090E080E0E7
:10452000842B952B44E050E032FF02C050E040E085
:10453000842B952B48E050E031FF02C050E040E072
:10454000842B952B40E150E030FF02C050E040E06A
:10455000842B952B40E250E025FF02C050E040E064
:10456000842B952B40E450E037FF02C050E040E040
:10457000842B952B40E850E033FF02C050E040E030
:10458000842B952B27FD9BC020E032E0822B932BC0
:10459000E985FA85928B818BD7018C91807F803160
:1045A00009F04AC021E0F40120AB13968C9199E800
:1045B000980F933108F480E890E0382F2227820F7B
:1045C000931FA985BA8556969C938E935597F701AC
:1045D000848199E8980F933108F480E890E0382FAF
:1045E0002227820F931FA985BA8558969C938E9394
:1045F0005797F6018781882331F090915F079923BF
:1046000081F0813071F4E1E0D4019E96EC93D70102
:1046100016968C911697E985FA85858F15968C915B
:10462000868FD7018C910E94A707863029F4E985EF
:10463000FA8580898360808B80919A01833008F0AD
:1046400041C0E1E0F0E0EC0FFD1FE70DF11D00E0DF
:1046500097014081672DC6010E94DB0FF1E0FB87C7
:104660001F5F49855A85415F5F4F5A8749875FEFD2
:10467000851A950ABDCE8619873008F086E0B1010B
:10468000AFE08A9F600D711D1124FB013A967F01F6
:10469000033008F0CECEAA2009F4CBCEF7018081FA
:1046A00004C06620C1F3DA018C910E94A707E1E003
:1046B000F0E0EC0FFD1FE70DF11D8083BACE30E076
:1046C00020E064CF21E02B87CBCF1981033058F451
:1046D00080914201811739F0111105C040E060E07E
:1046E000C6010E943D10109342011A8180919A01E7
:1046F000833058F480914301811739F0111105C0BE
:1047000040E061E0C6010E943D101093430100911A
:10471000B206B01660F41B2D80919A01811739F012
:10472000612FC6010E94E8101F5F1017A8F3B09216
:10473000B206F601E456FF4F8081843089F1EC59CE
:10474000FF4F9081943061F1890F89F18B2D90E0BA
:10475000019644EF51E0849F9001859F300D949F16
:10476000300D112430939C0120939B018B8564961E
:104770000FB6F894DEBF0FBECDBFDF91CF911F9172
:104780000F91FF90EF90DF90CF90BF90AF909F90F0
:104790008F907F906F905F904F903F902F900895F3
:1047A00080ED97E090939C0180939B01DFCF84E69E
:1047B00090E0F8CFC9010197F1F761110CC959B127
:1047C0008CB193B163B186FBBB24B0F8BB0CBB0CBE
:1047D000852F881F8827881F880F880F880FB80E9D
:1047E00065FB882780F9B80E94FB882780F9880F2D
:1047F000B80E61E0479ADFC83197F1F79F5F19C99A
:10480000C3010197F1F799B14CB183B123B146FBD4
:10481000442740F9440F440F991F9927991F990F76
:10482000990F990F490F25FB992790F9490F829508
:104830008170880F480F133008F0A2C9612F8B8553
:104840009C850E94D2031F5F67C9C9010197F1F7D8
:104850006111C6CB83B09FB18FB15FB181FA88245B
:1048600080F8880C880C880C991F9927991F990F3C
:10487000990F890E55FB992790F9890E86FB882799
:1048800080F9880F880E61E02E9A9ACB3197F1F764
:104890009F5FD2CB83E090E00197F1F743B19FB1E6
:1048A0008FB12FB146954170440F440F440F991FAB
:1048B0009927991F990F990F490F25FB992790F96F
:1048C000490F86FB882780F9880F480F62E06B1537
:1048D00008F456CC6B2D8B859C850E94D203B39433
:1048E0001BCCEF92FF920F931F93CF93DF9300D0D7
:1048F000CDB7DEB780915607882309F4DBC08091DD
:10490000E9008F709091EC0090FF4FC090E8F92E75
:10491000F82A1092E9008091E80083FFC7C0E2E620
:10492000F6E08091F100819326E0EA36F207C9F7BC
:10493000E090630681E0E8121DC080916206813A32
:10494000C9F48091E800877F8093E8008091640635
:10495000909165068115934051F568E070E080E024
:1049600091E00E94A61AE09260078091E8008B77A0
:104970008093E8008091E80083FF8AC080916206FE
:10498000909163069A3008F083C0E92FF0E0E55378
:10499000FB4D0C946E341B254125482541254825A7
:1049A000A225C4254825F727042890E0B0CFE09140
:1049B0005507E730D0F6F0E0E052FB4D0C946E3432
:1049C000E724EE24F324F824FD240225162564E1CF
:1049D00070E082E695E00E94A61AC7CF60E470E01E
:1049E0008FE495E0F8CF60E470E087E495E0F3CFE2
:1049F00060E470E08FE395E0EECF60E470E088E380
:104A000095E0E9CF81E08093340582E08093310521
:104A1000809166069091670660E470E0892B19F436
:104A200084E395E0D8CF81E395E0D5CF60E470E0F2
:104A30008CE295E0D0CF803889F0823849F58091BA
:104A400066068F70873020F58093E9008091EB0037
:104A500085FB882780F91092E90004C08091C80680
:104A600081110DC09091E800977F9093E8008093AA
:104A7000F1001092F1008091E8008E7732C082E060
:104A8000F1CF282F2D7F21F48823E9F0823071F1B6
:104A90008091E80083FF0AC08091E800877F8093BF
:104AA000E8008091EB0080628093EB008F2D8F7087
:104AB0008093E9000F900F90DF91CF911F910F919C
:104AC000FF90EF90089580916406813009F793304C
:104AD00009F080E08093C8061092E9008091E80018
:104AE000877F8093E8000E94341BD2CF80916406B8
:104AF0008111F2CF809166068F702FEF280F26303C
:104B000038F68093E9002091EB0020FFE5CF933049
:104B100031F48091EB0080628093EB00DDCF9091C7
:104B2000EB0090619093EB0021E030E001C0220F98
:104B30008A95EAF72093EA001092EA008091EB0050
:104B40008860EACF8111A4CF109164061F7780910D
:104B5000E3008078812B8093E3008091E800877FD9
:104B60008093E8000E94341B8091E80080FFFCCF16
:104B70008091E30080688093E30083E0111101C01D
:104B800082E08093560784CF8058823008F080CF2F
:104B900020916406309165061A821982832F992725
:104BA0008330910509F41CC1D0F481309105A9F13D
:104BB000029709F45DC069817A816115710509F474
:104BC00067CF8091E800877F8093E800C8010E944A
:104BD000A61A8091E8008B778093E80059CF813244
:104BE000910509F49FC1829731F780915507843070
:104BF00009F4E7C108F0BBC1813009F4C8C18330B2
:104C000009F4D4C146E450E06AE671E08CEC95E02A
:104C10000E94F43386E490E0C4C180915507882354
:104C200099F0813001F10091CE061091CF0642E15A
:104C300050E065EC70E086E795E00E94F433009365
:104C400082051093830508C042E150E069EE70E0F0
:104C500086E795E00E94F43382E190E09A838983AD
:104C600006E715E0A8CF42E150E067ED70E0F0CF35
:104C70000091CD0610915507113009F456C008F483
:104C80004DC0153009F496C01350143008F0A1C07F
:104C9000E12FF0E0EF59FB4F108149E050E064E173
:104CA00071E088E895E00E94F43399E1099F902D26
:104CB0001124975F90938A0500938C05002309F4D3
:104CC0008AC049E150E06BEF70E081E995E00E9415
:104CD000F433109293051093A10581E88093A50504
:104CE000023008F478C049E150E06BEF70E08AEAE6
:104CF00095E00E94F43381E08093AC051093BA05EF
:104D000082E88093BE05023009F465C049E150E0B5
:104D10006BEF70E083EC95E00E94F43381E390E068
:104D20009A83898300E314E046CF49E050E068E5C8
:104D300071E088E895E00E94F43399E1099F902D95
:104D40001124975F90938A0500938C05002361F1ED
:104D500049E150E06FE371E081E995E00E94F433AE
:104D6000109293054CE6E42EE092A10581E8809331
:104D7000A5050230C8F049E150E06FE371E08AEA2E
:104D800095E00E94F4331093AC05E092BA0582E8F6
:104D90008093BE05023041F049E150E06FE371E0DD
:104DA00083EC95E00E94F433B9E10B9FC00111241C
:104DB00009960AC042E250E06DE171E088E895E0B2
:104DC0000E94F43382E290E09A83898308E815E038
:104DD000F2CE16E462CFE9E10E9FC0011124E8CFC4
:104DE000C90199278230910549F18330910509F471
:104DF00041C08130910509F04AC08091550781304A
:104E000089F444E351E0DA010D900020E9F7AD01A7
:104E10004553514064E371E0CE0101960E94672939
:104E20008C01C9CE47E251E0FA0101900020E9F778
:104E3000AF014852514067E271E0EECF80915507D3
:104E4000813061F445E151E0DA010D900020E9F78D
:104E5000AD014651514065E171E0DECF48E051E0DF
:104E6000FA0101900020E9F7AF014950514068E094
:104E700071E0D2CF6091CB067091CC06FB0101901E
:104E80000020E9F73197AF01461B570BC5CF6EE203
:104E900074E0E1E0222331F1253039F525E734E0F3
:104EA000E0E0FCE0FE0FD9011D919D018E2F90E006
:104EB000019670E060E0412F42954F7050E04C5EEB
:104EC0005A4FDA014C91DC014C93EE5F90E0A12F38
:104ED000AF70B0E0AC5EBA4F4C91DC0111964C93D0
:104EE000EF13E1CF4E2F50E097CF20915507880F59
:104EF000991F222329F0213049F08B599B4F02C082
:104F000085589B4FFC016081718105C083599B4F7F
:104F1000DC016D917C91FB0101900020E9F7319754
:104F2000E61BE0CF1091550749E050E061E671E0E3
:104F300083EC95E00E94F4338BE5143079F040F473
:104F40008CE6113059F089E5133041F086E406C053
:104F500081E5153019F087E31630C1F78093CA0553
:104F600089E090E09A83898303EC15E024CE8530B4
:104F700099F1863009F046CE47E350E060EB71E0EE
:104F80008CEC95E00E94F43387E390E00AC04CE695
:104F900050E06CEE72E08CEC95E00E94F4338CE60D
:104FA00090E09A8389830CEC15E005CE49E550E04A
:104FB00063E972E08CEC95E00E94F43389E590E0BF
:104FC000F0CF4BE550E068E372E08CEC95E00E9496
:104FD000F4338BE590E0E5CF41E550E067EE71E01A
:104FE0008CEC95E00E94F43381E590E0DACF8038D4
:104FF00009F04ECD8091E800877F8093E800809192
:10500000C9068093F10037CD811142CD109164061D
:10501000123008F03DCD8091E800877F8093E80052
:105020001093C9060E94341B1123F9F084E0809389
:105030005607009155070023F1F042E360EC82E04F
:105040000E94531B11E08091CD06811708F420CDFA
:10505000812F8F70873020F442E361EC0E94531B54
:10506000053009F415CD1F5FEECF8091E30087FD79
:10507000DDCF81E0DCCF42E261EC81E00E94531B96
:1050800046E260EC82E00E94531B02CD0F931F9317
:10509000CF93DF938C01EB018091E80085FD10C078
:1050A0008091E8008B778093E8000E9471240E9431
:1050B000051B882389F3DF91CF911F910F910895EC
:1050C0008091F100F80181938F01219729F780E009
:1050D000F2CF1F920F920FB60F9211242F933F938E
:1050E0008F939F93AF93BF938091680790916907C7
:1050F000A0916A07B0916B073091670723E0230FF7
:105100002D3758F50196A11DB11D20936707809397
:10511000680790936907A0936A07B0936B07809123
:105120006C0790916D07A0916E07B0916F07019683
:10513000A11DB11D80936C0790936D07A0936E071E
:10514000B0936F07BF91AF919F918F913F912F9136
:105150000F900FBE0F901F90189526E8230F029610
:10516000A11DB11DD2CF1F920F920FB60F92112425
:105170002F933F934F935F936F937F938F939F935F
:10518000AF93BF93EF93FF938091DA0080FF17C036
:105190008091D80080FF13C08091DA008E7F8093C9
:1051A000DA008091D90080FF86C080E189BD82E16C
:1051B00089BD09B400FEFDCF81E080935607809140
:1051C000E10080FF17C08091E20080FF13C0809152
:1051D000E2008E7F8093E2008091E2008061809304
:1051E000E2008091D80080628093D80019BC85E0ED
:1051F000809356078091E10084FF26C08091E200F1
:1052000084FF22C080E189BD82E189BD09B400FE2E
:10521000FDCF8091D8008F7D8093D8008091E100F0
:105220008F7E8093E1008091E2008F7E8093E20088
:105230008091E20081608093E2008091C90688231A
:10524000F1F184E0809356078091E10083FF22C052
:105250008091E20083FF1EC08091E100877F8093F0
:10526000E10082E0809356071092C9068091E10028
:105270008E7F8093E1008091E2008E7F8093E20038
:105280008091E20080618093E20042E360E080E090
:105290000E94531BFF91EF91BF91AF919F918F910E
:1052A0007F916F915F914F913F912F910F900FBE22
:1052B0000F901F90189519BC1092560780CF8091BF
:1052C000E30087FD02C081E0BDCF83E0BBCFCF9379
:1052D000DF93DC014032510514F04FE150E090E0E3
:1052E000292F30E02417350784F04F5F5F4F440FBC
:1052F000551F4D935C93536050936B0640936A0621
:105300008AE696E0DF91CF910895F901EE0FFF1F35
:10531000E459F94F260F371FE9012881022E000CAE
:10532000330B318320839F5FDBCFCF93DF93CDB7E8
:10533000DEB729970FB6F894DEBF0FBECDBF7894C5
:1053400084B5826084BD84B5816084BD85B582608A
:1053500085BD85B5816085BD80916E00816080933B
:105360006E001092810080918100826080938100A4
:1053700080918100816080938100809180008160B4
:105380008093800080919100826080939100809151
:105390009100816080939100809190008160809362
:1053A00090008091C10084608093C1008091C10011
:1053B00082608093C1008091C10081608093C100B0
:1053C0008091C30081608093C3008091C00082609F
:1053D0008093C0008091C20081608093C200809160
:1053E0007A00846080937A0080917A008260809352
:1053F0007A0080917A00816080937A0080917A00AF
:10540000806880937A0056985E9A1092600790E0C8
:1054100080E00E94FD33853008F043C080935A0736
:1054200080915A07823009F49BC008F03CC081305B
:1054300009F471C0109281078CE380938007109269
:10544000B90084E48093BC008CE08093B800109293
:10545000740710927507EDEAF6E0C590D490EFEA74
:10546000F6E0F490E0EBF6E0E491E0937607E1EB10
:10547000F6E0E491E0937707E2EBF6E0E491E09365
:10548000780710E000E00F1508F0AAC0F601E00F61
:10549000F11F649180E797E00E94070B0F5F1F4F99
:1054A000F2CF81E0BBCF833009F487C0843009F0AC
:1054B000C1CF8AEF90E00E9474348C010E948B036C
:1054C0008FEC94E0D8018D939C9386E190E00E944C
:1054D000743425E1FC01258BF801EC56FF4F9183D4
:1054E000808386E190E00E94743425E0DC015596CB
:1054F0002C93F801EA56FF4F9183808332968EE118
:105500008083319681EE8083D801A656BF4F80E616
:10551000EBE1F2E01CC084EC91E00E9474348C0159
:105520000E948B0389E994E0D8018D939C93C80174
:105530008C569F4F0E943809C80188509F4F0E9487
:105540003809D801A45ABE4F88E6EBE7F2E0019093
:105550000D928A95E1F710936207009361076ACF75
:1055600087E391E00E9474348C010E948B038BEAE4
:1055700094E0F80191838083EC56FF4F14821582EA
:105580008AE09F012A5F3F4FD901B82E1D92BA943D
:10559000E9F7108A7196148215822F5E3F4FD90168
:1055A0001D928A95E9F7108A71961082D801A95444
:1055B000BF4F80E8E3EEF2E0CACF8EEE90E00E94AB
:1055C00074348C010E948B038DEB94E0F80191837D
:1055D0008083D801A256BF4F80E5E3E6F3E0B7CF62
:1055E00080E797E00E94E70C61E880E797E00E947F
:1055F000070B61E080E797E00E94070BE2ECF4E024
:10560000F0937C07E0937B078491E3ECF4E0E49172
:10561000F82F319709F0F1C01092790780E797E0F1
:105620000E94E70C11E010937E076EE180E797E09F
:105630000E941B0B82E080937E078BEB94E00E941C
:105640007E0C10937E0762E080E797E00E940F0BCC
:105650000E94901081E090E00E94FD33873008F0B6
:1056600080E0A0916107B091620717968C9317971D
:10567000ED91FC9111970190F081E02DCD010995FC
:1056800064E170E080E090E00E9433048091610763
:1056900090916207DC01ED91FC910280F381E02D95
:1056A000099564E170E080E090E00E94330480910D
:1056B000610790916207DC01ED91FC910280F3811A
:1056C000E02D0995A0916107B091620751968C91E8
:1056D000519780FF96C081E017968C9317974E994B
:1056E000B6C017961C9180E797E00E94E70C45E052
:1056F00050E065E275E080E797E00E9465040E9453
:10570000871B6CED75E080E090E00E94330480E739
:1057100097E00E94E70C8EEA94E00E948F1B80EADB
:1057200094E00E948F1B83E994E00E948F1B64EF3A
:1057300071E080E090E00E94330481E0812C912CA4
:10574000540101E0FF24F3944E9961C0F12C8130A3
:1057500089F48FB7F8948090680790906907A090BB
:105760006A07B0906B078FBF60E170E080E090E067
:105770000E9433042FB7F8948091680790916907CD
:10578000A0916A07B0916B072FBF88199909AA09E0
:10579000BB09893E9340A105B10510F40C94E03398
:1057A00080E797E00E94E70C8BE894E00E948F1B53
:1057B00084E894E00E947E0C812F0E94990C0E9444
:1057C000871B0E94871B80E794E00E947E0C60ED9F
:1057D00077E080E090E00E943304612F81E090E068
:1057E0000E94053488E19EE00FB6F894A895809356
:1057F00060000FBE90936000FFCF81E08093790737
:105800000DCF81FF6CCF17961C92179768CF81112F
:105810000C94DD3360E170E080E090E00E9433049E
:1058200081E0011106C0882379F01F5F133008F072
:1058300010E007E025E04FE760E080E797E00E9496
:10584000B20C812F0E94990C00E08F2D7BCFED913F
:10585000FC9111970484F585E02DCD01099561E057
:1058600080E797E00E940F0B60E080E797E00E94DE
:105870001B0BE0916107F0916207878181111DC1C7
:1058800088E50E94AD0C809161079091620721E04C
:1058900032E0DC0114963C932E931397ED91FC912A
:1058A0000084F185E02D09958C018091610790912C
:1058B0006207DC01ED91FC910284F385E02D0995EE
:1058C00020919A01E0916107F0916207378130934E
:1058D00055079093CF068093CE062093CD06109364
:1058E000CC060093CB0684B7877F84BF0FB6F894AD
:1058F000A89580916000886180936000109260009C
:105900000FBE80E830E020E00FB6F894809361008D
:10591000209361000FBE8091D8008F7E8093D800C5
:105920008091D70081608093D70084E082BF81E0BE
:105930008093CA068091D8008E7F8093D800109201
:10594000E2001092DA001092E1008091D8008F7787
:105950008093D8008091D80080688093D80080918F
:10596000D8008F7D8093D80019BC109256071092F2
:10597000C9061092C8068091E0008B7F8093E000FA
:105980008091D80081608093D80042E360E080E09D
:105990000E94531B8091E1008E7F8093E1008091F3
:1059A000E20081608093E2008091E2008860809351
:1059B000E2008091E0008E7F8093E0008091D8002B
:1059C00080618093D80078940E940E040091630750
:1059D000109164072091650730916607AB01BC0107
:1059E000401B510B620B730B80919B0190919C01AA
:1059F000B0E0A0E0C12C481759076A077B07B0F058
:105A00008091610790916207DC01ED91FC91028029
:105A1000F381E02D0995C82E0E940E046093630760
:105A2000709364078093650790936607D12C8091EB
:105A30009A01D81608F01CC6809161079091620700
:105A4000DC01ED91FC910680F781E02D6D2D09952B
:105A50000091610710916207ED2CF12CF80187810C
:105A6000843009F487C108F037C0882309F469C07D
:105A700093E1813009F400C298E0833009F0B8C1A5
:105A80008FE08E9DF0018F9DF00D1124E00FF11F2E
:105A9000E089EF70E150EA3008F0A9C3F0E0ED5A78
:105AA000F24D0C946E348230EF30F730F330F53035
:105AB000F130F730EB30E730ED30813011F483E531
:105AC000E0CE823011F488E4DCCE8350843010F4D0
:105AD0008DE4D7CE85E4D5CE853009F469C195E053
