:100000000C945F030C9487030C9487030C94870370
:100010000C9487030C9487030C9487030C94870338
:100020000C9487030C9487030C94F8260C94870394
:100030000C9487030C9487030C9487030C94870318
:100040000C9487030C9487030C9487030C94870308
:100050000C9487030C9487030C9487030C946026FC
:100060000C9487030C9487030C9487030C948703E8
:100070000C9487030C9487030C9487030C948703D8
:100080000C9487030C9487030C9487030C948703C8
:100090000C9487030C9487030C9487030C948703B8
:1000A0000C9487030C9487030C948703AED580A827
:1000B0003FD300408D142002A1C8DA12817FD9F10C
:1000C000DB40A4A6AF1201000200000040D0167E63
:1000D0001200010102030112010002000000400DA4
:1000E0000F920000010102030112010002FFFFFF55
:1000F000405E048E021401010203010904000001A4
:1001000003000000092111010001224600070581BA
:10011000034000010902220001010080320902228D
:100120000001010080320904000001030000000901
:10013000211101000122510007058103400001093E
:1001400004000001030000000921110100012256F2
:100150000007058103400001090229000101008018
:10016000FA09211101000122460005010905A1013A
:10017000150025013500450175019518050919017E
:100180002918810205012507463B01750495016583
:10019000140939814265009501810126FF0046FF5F
:1001A000000930093109350936750895048102C006
:1001B00005010905A10105091901290315002501FA
:1001C0007501950355006500810275019505810350
:1001D00005010901150026FF0375109502A100090C
:1001E0003009318102C0C005010905A1018501A1C5
:1001F0000005091901290C150025019510750181CB
:100200000205010939150025073500463B0175082F
:10021000950165148142C0C005010902A101850252
:100220000901A100093009311581257F3581457FFC
:10023000950275088106C0C005010904A101A1004D
:100240000509190129101500250195107501810274
:1002500005010901A100093009311580257F9502AA
:1002600075088102C009371580257F9501750881C1
:10027000060938150026FF00950175088102093925
:10028000150025073500463B017508950165148169
:1002900042C0C005010905A1011500250135004531
:1002A000017501950E05091901290E81029502813A
:1002B0000105012507463B017504950165140939BF
:1002C000814265009501810126FF0046FF0009304B
:1002D000093275089502810205027508950315001B
:1002E00026FF0009BB09C509C88102C0050109052F
:1002F000A10115002501350045017501951005097D
:1003000019012910810205012507463B0175049555
:100310000165140939814265009501810126FF00BC
:1003200046FF000930093109320935750895048105
:10033000020600FF092009210922092309240925B1
:100340000926092709280929092A092B950C810260
:100350000A21269508B102C04A4F47434F4E004636
:100360004C49474854535449434B004455414C531E
:10037000484F434B004A4554004449474954414C77
:10038000004E4547434F4E00504F50204E005041C5
:1003900044004E2F41004E4F4E45005357495443A1
:1003A00048004552524F52004849440058494E5067
:1003B0005554002B4E4547005053580047414D457A
:1003C00043554245004E3634204D4F524520524150
:1003D0004E474500000000002300260029002C00A5
:1003E0002F0000030C0F30333C3FC0C3CCCFF0F3E1
:1003F000FCFF0000000200090F0000030401000CD4
:1004000000000000000000000000000000000000EC
:10041000004445564943452057494C4C20524553CA
:1004200054415254004D4F44453A200053415645E3
:1004300044210A00484F4C443A2020534156450A73
:100440000050524553533A204348414E4745004FD0
:100450005554505554204D4F44450A005245464C82
:100460004558000000050720610000000000000062
:100470005F00006070787060605048506003070F44
:1004800007030305090503081C3E7F7F081C224162
:100490007F7F7F3E1C087F41221C08082A1C2A08F7
:1004A00008083E0808005030000008080808080046
:1004B0006060000020100804023E5149453E0042A1
:1004C0007F400042615149462141454B3118141289
:1004D0007F1027454545393C4A4949300171090596
:1004E000033649494936064949291E003636000077
:1004F0003C7E7E7E3C3C4242423C1414141414F078
:10050000F0F0F0F0F0909090F0324979413E7E1199
:1005100011117E7F494949363E414141227F414187
:10052000221C7F494949417F090901013E4141514E
:10053000327F0808087F00417F41002040413F0191
:100540007F081422417F404040407F0204027F7FA9
:100550000408107F3E4141413E7F090909063E41A2
:1005600051215E7F09192946464949493101017FD8
:1005700001013F4040403F1F2040201F7F201820A6
:100580007F631408146303047804036151494543ED
:1005900000007F4141020408102041417F000038E3
:1005A0003C1E0F07404040404038241209072054A9
:1005B0005454787F484444383844444420384444B0
:1005C000487F3854545418087E09010208145454C2
:1005D0003C7F0804047800447D40002040443D00F6
:1005E000007F10284400417F40007C041804787C80
:1005F0000804047838444444387C1414140808145B
:1006000014187C7C080404084854545420043F44C3
:1006100040203C4040207C1C2040201C3C4030407E
:100620003C44281028440C5050503C4464544C44E2
:10063000E0E0E0E0E000007F0000E0A0A0A0E00833
:10064000082A1C08081C2A08080006090906AC002C
:10065000198040005245424F4F54494E472E2E2E8E
:100660000000000000250028002B002E00310000B3
:10067000000000240027002A002D0030000404049C
:100680000404030405020202020403020202020639
:100690000606060606040402020204040408020117
:1006A00010408040102040804080080204018040BB
:1006B0002010020110801020404020003F32112401
:1006C0001FBECFEFDAE0DEBFCDBF15E0A0E0B1E0A6
:1006D000E8E3F8E602C005900D92A634B107D9F719
:1006E00027E0A6E4B5E001C01D92A13CB207E1F706
:1006F00013E0CFE5D3E004C02197FE010E94CD3284
:10070000CE35D107C9F70E94DA270C941A340C941D
:100710000000CF93DF93EC018AEC94E09983888307
:100720001A8280E093E09C838B8380E09CE09E8330
:100730008D831F82188681E089878EE1E4EAF1E0EB
:10074000DE01509601900D928A95E1F71FA61EA634
:1007500019AA18AA1BAA1AAAFE01F49688E0DF01BA
:100760001D928A95E9F71CAE1DAE1FAE1EAE3C96DB
:100770001182108232968FEF9FE7918380833296A9
:100780009183808332969183808332969183808394
:1007900032961082C55BDF4F1882DF91CF910895AA
:1007A00090E0FC01E456F94F24918358994FFC01E5
:1007B0008491882399F090E0880F991FFC01E159FA
:1007C000F94FA591B491FC01EF59F94F859194919E
:1007D0008FB7F894EC91E22BEC938FBF08953FB75D
:1007E000F8948091A7079091A807A091A907B091CC
:1007F000AA0726B5A89B05C02F3F19F00196A11D99
:10080000B11D3FBFBA2FA92F982F8827BC01CD015A
:10081000620F711D811D911D42E0660F771F881FB9
:10082000991F4A95D1F708958F929F92AF92BF92E8
:10083000CF92DF92EF92FF924B015C010E94EF0397
:100840006B017C010E94EF036C197D098E099F09E1
:10085000683E734081059105A8F321E0821A910852
:10086000A108B10888EEC80E83E0D81EE11CF11C77
:1008700081149104A104B10429F7FF90EF90DF9057
:10088000CF90BF90AF909F908F9008952FB7F8941E
:100890006091A3077091A4078091A5079091A60786
:1008A0002FBF0895AF92BF92CF92DF92EF92FF9247
:1008B0000F931F93CF93DF936C017B018B01040F88
:1008C000151FEB015E01AE18BF08C017D10759F024
:1008D0006991D601ED91FC910190F081E02DC60166
:1008E0000995892B79F7C501DF91CF911F910F9160
:1008F000FF90EF90DF90CF90BF90AF900895CF938F
:10090000CFB7F8948091020781115AC04EE856E0A3
:10091000FA0194912DEA36E0F9018491E92FF0E093
:10092000EE0FFF1FE159F94FA591B4919C919823C7
:1009300009F037C0E3E0F4E09491F9012491FA0161
:100940008491882309F42DC09923E9F091509F30B8
:10095000D0F4E92FF0E0E155FB4F0C94CD32F004D8
:10096000F404BE04E804EC04C304C304C304F704A1
:10097000FD04010505050B05C3040F0590918000DA
:100980009F7790938000E82FF0E0EE0FFF1FEF5964
:10099000F94FA591B4918FB7F8949C91292B2C9382
:1009A0008FBF81E10E94D0038CB580618CBD8CB576
:1009B00080648CBD8FE00E94D00380E10E94D00350
:1009C000809102078F5F80930207CFBFCF91089578
:1009D000909180009F7DD5CF90918000977FD1CF5F
:1009E00094B59F7794BDCFCF94B59F7DFBCF909169
:1009F00090009F7790939000C6CF909190009F7D3C
:100A0000F9CF90919000977FF5CF9091C0009F779C
:100A10009093C000B8CF9091C0009F7DF9CF909186
:100A2000C200977F9093C200AECFCF93DF93EC01CB
:100A30008A85882329F081508A87DF91CF91089594
:100A40009C818E819817C8F78D856827E881F98188
:100A50000084F185E02D42E0CE0109958C818F5F05
:100A60008C83EBCFEF920F931F93F901DA012C9156
:100A70003E2D309532233C9330813E293083FC015A
:100A8000D80198E080E030E020E04C914E2189F0E0
:100A90002A95D9F720E04C914E2159F02A95D9F7A3
:100AA00020E84C914E2129F02A95D9F73A9561F723
:100AB00017C047E04A95F1F7000031E0550F4C911F
:100AC0004E2109F051609A9529F45193839598E04D
:100AD000681731F020E84C914E2111F72A95D9F78B
:100AE0001F910F91EF9008950F931F93F9012081AB
:100AF000202B2083DA012C91202B2C932081408104
:100B0000202B30E010E00095109550E004231523D1
:100B1000DC015D9148E00083550F40F474E07A9564
:100B2000F1F720837AE07A95F1F705C07EE07A95B7
:100B3000F1F7000020834A9529F073E07A95F1F7E8
:100B40000000E9CF6A9529F071E07A95F1F700008D
:100B5000E0CF72E07A95F1F700000000008374E0C6
:100B60007A95F1F70000000020831F910F910895FE
:100B70007F928F929F92AF92BF92CF92DF92EF922D
:100B8000FF920F931F93CF93DF93DB01642F5901E3
:100B9000F02E282F30E0F901E456F94FE490235865
:100BA000394FF901249130E0220F331FF901E15947
:100BB000F94FC591D491F901EF59F94FC590D490EF
:100BC000F901EC52FC4F859094907FB6F8940E2D6D
:100BD0009601AE01CD010E94740584019601AE011B
:100BE0006F2DC5010E9432057FBEDF91CF911F910D
:100BF0000F91FF90EF90DF90CF90BF90AF909F90BC
:100C00008F907F900895CF93DF93FC0187812FEF22
:100C10003FE7813011F420E830E8462F50E0DF0153
:100C20008FE0689FA00DB11D112450969C916185A5
:100C3000892F8370823021F1833029F0813021F5B2
:100C4000809301071BC0611111C081E080930107EF
:100C50009C70983009F457C09C30D1F0943009F062
:100C600055C0846093E0909300071CC0623061F42B
:100C700080910107882341F0813021F081E0E8CFA5
:100C80008093010782E0E4CF1092010780E0E0CF7B
:100C90006230E1F5909100079923C1F1933089F119
:100CA00094E0892B9FE0949FD001959FB00D112473
:100CB000AE0FBF1F50968C9350978085EF01C40FE5
:100CC000D51F813031F1823009F46CC088A98111BF
:100CD00008C056963C932E93559758963C932E9366
:100CE00057978AA9811155C06FE0649FC001659F25
:100CF000900D1124E80FF91F328F218F348F238F2D
:100D000048C098E0CECF886094E0ADCF1092000745
:100D1000C9CF8AA9811108C05A963C932E9359973E
:100D20005C963C932E935B978FE0849FD001859FC8
:100D3000B00D1124AE0FBF1F50968C918C70843073
:100D400071F1883049F58FEF9FEF2FE0249FD0019C
:100D5000259FB00D1124AE0FBF1F56969C938E9306
:100D6000559750968C91837030E020E0813031F0BF
:100D70002FEF3FEF823011F02FEF3FE76FE0649FDE
:100D8000C001659F900D1124E80FF91F308F278B4C
:100D9000108ADF91CF9108958FEF9FE7D6CF90E033
:100DA00080E0D3CF88A9811108C056963C932E933A
:100DB000559758963C932E9357978FE0849FD00178
:100DC000859FB00D1124AE0FBF1F50968C918C7073
:100DD000843059F1883031F58FEF9FEF2FE0249F59
:100DE000D001259FB00D1124AE0FBF1F5A969C93C2
:100DF0008E93599750968C91837030E020E081302B
:100E000031F02FEF3FEF823011F02FEF3FE76FE02F
:100E1000649FC001659F900D1124E80FF91F348F66
:100E2000238FB6CF8FEF9FE7D9CF90E080E0D6CF6A
:100E3000CF93DF93DC0113962D913C911497C62F2D
:100E4000D0E0FC018FE0689FE00DF11D1124618965
:100E50007289C901862397232817390709F04BC0E7
:100E600080898F70823071F128F48130C9F190E06F
:100E700080E021C0843089F08830C9F782E018967C
:100E80008C93108A20953095818992892823392363
:100E9000328B218B84E090E00EC081E018968C9319
:100EA000108A209530958189928928233923328BA5
:100EB000218B82E090E09093FF068093FE06DF9105
:100EC000CF91089518961C92108A209530958189AB
:100ED000928928233923328B218B81E090E0EBCF5C
:100EE000108A20953095262337233061328B218B51
:100EF00088E090E0E0CF15964D915C9116976423C1
:100F000075234617570709F0B2CF80898F7082305A
:100F100009F440C088F4813009F0A9CF19961C92D9
:100F2000108A409550958189928948235923528B84
:100F3000418B80E290E0BFCF8430D9F1883009F056
:100F400096CF8091FE069091FF068115924041F068
:100F50001B968C911B9791E089271B968C931B976E
:100F60002FE02C9FC0012D9F900D1124A80FB91FB9
:100F700050961C9250974095509551968D919C910A
:100F800052974823592352965C934E93519780E091
:100F900092E091CF81E019968C93108A40955095FC
:100FA0008189928948235923528B418B80E490E0B8
:100FB00082CF82E019968C93108A40955095818952
:100FC000928948235923528B418B80E890E073CF5C
:100FD0008FB7F8948091FD068FBF089584E98093C0
:100FE000BC0085E69091BC0094FF03C08150D1F70E
:100FF000089581E008956EBD00000DB407FEFDCF99
:101000008EB508952A9A299A8C9A83EC90E00197DC
:10101000F1F708952A9A299A469A83EC90E001976D
:10102000F1F70895809195078F5F843018F48093CD
:101030009507089581E0FBCF089588E091E0089539
:1010400082ED94E00895CF93DF93EC0165E070E0CA
:1010500080E090E00E94140482E080939B0181E094
:1010600088AB89AB62E370E080E090E0DF91CF91E4
:101070000C94140487E091E0089589ED94E00895BC
:10108000EF92FF920F93CF93DF931F92CDB7DEB70E
:101090007C01FC018589198203E0970141E0BE01D2
:1010A0006F5F7F4F0E94B805F701833029F01082EF
:1010B0001182128290E016C0808191818830904226
:1010C000C9F0F701858991E4998397012D5F3F4F1E
:1010D0000AE041E0BE016F5F7F4F0E94B80591E0DA
:1010E0008A3041F7892F0F90DF91CF910F91FF90B8
:1010F000EF90089591E0F6CF1F93CF93DF93EC012B
:1011000065E070E080E090E00E94140482E080934B
:101110009B01FE01EC56FF4F808191810E944008A7
:1011200011E018AB1AABFE01EA56FF4F80819181A6
:101130000E94400819AB1BAB62E370E080E090E0D6
:10114000DF91CF911F910C941404EF92FF920F93B3
:10115000CF93DF9300D01F92CDB7DEB77C01FC01A7
:1011600080819181892BC9F09701235F3F4FF7015F
:101170008589408151814830504219F594E5998321
:101180001A821B8208E043E0BE016F5F7F4F0E941E
:10119000B805883081F481E005C0C7010E9440088D
:1011A0008111E2CF0F900F900F90DF91CF910F91AF
:1011B000FF90EF900895F70110821182128280E073
:1011C000F1CFF701928193FB992790F940E449838D
:1011D00043E04A839B8308E0D7CFFC01E656FF4FEC
:1011E0002081222351F033962081222331F0FC010B
:1011F0002781223011F423E0278308958DE091E0C8
:101200000895FC01E456FF4F208121111CC0329744
:101210002081222349F083569F4FFC018081811158
:1012200015C08AEF94E00895FC01E556FF4F208138
:10123000222379F08D559F4FFC01808181110CC0D4
:1012400086E095E0089580EE94E008958CEE94E0B9
:10125000089583E295E0089587E195E008959C0163
:10126000FC01EC56FF4F0190F081E02D44A155A107
:1012700040955095CA0154E0969587955A95E1F7A7
:10128000817090E046FD92E0982B80E047FD84E07D
:10129000982B80E045FD88E0F901EC55FF4F408137
:1012A000982BF9018FE0489FE00DF11D1124908BE0
:1012B00022563F4FD9018C91882319F0982B9F70AB
:1012C000908B08958CBD9DBD08958C988091FB06F0
:1012D0009091FC060E94620983EC90E00197F1F77F
:1012E000089546988091FB069091FC060E94620941
:1012F00083EC90E00197F1F708958F929F92AF925F
:10130000BF92CF92DF92EF92FF920F931F93CF93F2
:10131000DF937C016B015A01022F10E0D0E0C0E0A6
:1013200083EC882E912CC017D107E1F0D701ED9105
:10133000FC910480F581E02D6AE5C114D10421F00F
:10134000D601AC0FBD1F6C91C7010995A114B10462
:1013500021F0F501EC0FFD1F8083C4010197F1F727
:101360002196E1CFDF91CF911F910F91FF90EF90E8
:10137000DF90CF90BF90AF909F908F900895CF92C5
:10138000DF92EF92FF920F931F93CF93DF937C0135
:101390006B01D42F8C010E5F1F4F23E0A8010E9428
:1013A0007D09F70123812F3F61F410E000E0C801BF
:1013B000DF91CF911F910F91FF90EF90DF90CF9031
:1013C000089584818A3511F08111EFCF2F70C22FDB
:1013D000CC0FD33059F0B6016D5F7F4F2DEF2D0F3D
:1013E000A7014B5F5F4FC7010E947D092C2F2D1B6A
:1013F0002D5FE9F24D2F50E0CA01820F911D8197B8
:10140000A4F6400F511F70E060E0C7010E947D0903
:10141000CECFCF92DF92EF92FF920F931F93CF9395
:10142000DF93EC010E9446046B017C01E881F981A5
:101430000190F081E02DCE01099544E06DE374E068
:10144000CE010E94BF098C01E881F9810280F381FD
:10145000E02DCE0109950115110529F0F8018181D2
:10146000807F803F11F56AE070E080E090E00E94AC
:1014700014040E9446046C197D098E099F096B3F74
:1014800071058105910590F2C0E062E370E080E0B3
:1014900090E00E9414048C2FDF91CF911F910F9147
:1014A000FF90EF90DF90CF900895C1E0EECF4F9284
:1014B0005F926F927F928F929F92AF92BF92CF92E4
:1014C000DF92EF92FF920F931F93CF93DF93CDB7ED
:1014D000DEB729970FB6F894DEBF0FBECDBFFC0173
:1014E000E556FF4FD080D110B9C08C010C561F4F6C
:1014F000D801ED90FC900E9446042B013C01D701DD
:10150000ED91FC910190F081E02DC701099544E037
:101510006BE474E0C7010E94BF095C01D701ED9143
:10152000FC910280F381E02DC7010995A114B1045B
:1015300031F0F5018181807F803F09F4A6C06AE027
:1015400070E080E090E00E9414040E944604641958
:101550007509860997096B3F71058105910578F238
:1015600062E370E080E090E00E941404DD2009F462
:1015700075C0D801ED90FC9089E0EDE5F4E0DE0166
:10158000119601900D928A95E1F70E9446044B0155
:101590005C01712CD701ED91FC910190F081E02D5F
:1015A000C701099545E0BE016F5F7F4FC7010E94EB
:1015B000BF096C01D701ED91FC910280F381E02D10
:1015C000C7010995CD2809F07394B2E0B71588F0EA
:1015D0006AE070E080E090E00E9414040E944604FB
:1015E000681979098A099B096B3F71058105910585
:1015F00088F262E370E080E090E00E94140481E0F1
:10160000F70181AFD801ED90FC90D701ED91FC91ED
:101610000190F081E02DC701099543E064E574E095
:10162000C7010E94BF096C01D701ED91FC910280B6
:10163000F381E02DC7010995C114D10451F0F601E1
:101640008381833031F488EB9BE090939D018093FC
:101650009C01D8018D919C910E94090A29960FB690
:10166000F894DEBF0FBECDBFDF91CF911F910F91D8
:10167000FF90EF90DF90CF90BF90AF909F908F90B2
:101680007F906F905F904F900895DD24D39468CF42
:10169000CF92DF92EF92FF921F93CF93DF93EC01F3
:1016A000849A3E9A8C9A469AFC01EA56FF4F8081B2
:1016B00091817E0124E9E20EF11CD7018D939C9368
:1016C0002AEF30E030939D0120939C01DC01ED91E5
:1016D000FC910680F781E02D0995FE01E656FF4F4B
:1016E0006F0110E08823A1F081E035968083D70157
:1016F000ED91FC91119716A11D961C931730B9F42A
:1017000081E0FE01E456FF4F8083CE010E94570A1C
:10171000D6018C918823D1F082E080939B01DF91E8
:10172000CF911F91FF90EF90DF90CF9008951530EB
:1017300031F4F6018083FE01E356FF4FE5CF84A12B
:1017400095A18095909580FDDBCFDFCFFE01E5561A
:10175000FF4F80818111E3CF319680818111DFCFEE
:101760001130E9F4D701ED91FC9184A195A1809508
:1017700090959C01207C3327203C310539F485FF6E
:1017800005C08EE0FE01E256FF4F808382E0809329
:101790009B0181E088AB8AAB89AB8BABC0CF1230A9
:1017A000A9F7D701ED91FC9184A195A1807A9927A1
:1017B000892B61F781A593A5992341F38F3F31F7D9
:1017C00088EE93E090939D0180939C018CE0DACFAA
:1017D000EF92FF920F931F93CF93DF9300D000D02F
:1017E0001F92CDB7DEB78C01DC019B961C929B97B4
:1017F000D8961C92D897ED91FC910190F081E02D44
:101800000995F80181AD811108C082AD803409F0DD
:1018100044C083AD813009F040C085E0E6E4F4E0E7
:10182000DE01119601900D928A95E1F7D801969606
:101830008C919697863059F5DC968C918C8345E097
:10184000BE016F5F7F4FC8010E94BF097C01D801B4
:10185000ED91FC910280F381E02DC8010995E1141E
:10186000F10441F0F7018181807F803FD1F4C8010C
:101870000E94090A80E00F900F900F900F900F9038
:10188000DF91CF911F910F91FF90EF900895F80194
:1018900082AD8C8383AD8D83D2CF43E066E474E068
:1018A000D2CFD80194968D919C91959793969C93C5
:1018B0008E9392972381348195963C932E9394979F
:1018C0008181893781F483E096968C93D80196962E
:1018D0008C919697843041F108F5823029F183305C
:1018E000C9F181E0C8CF982F907F903719F482E03A
:1018F000D801EACF903521F484E0F80186A3E6CF41
:10190000833211F485E0F4CF903E11F486E0F5CFF8
:10191000833611F487E0ECCF81E0EFCF863009F415
:101920005CC030F18730E9F681E0D8019B968C935A
:101930009B97F701858199968C93999786819A96C2
:101940008C939A97878197968C9397978085989692
:101950008C93C7CF81E0F80180AFF70139969C9650
:10196000C701459621912D93E817F907D9F7DCCFE8
:1019700081E09B968C939B97F701958197969C931A
:101980009797D8968C93D8978681D2968C93D29736
:101990009781D3969C93D3974085D4964C93D497B4
:1019A00097FF05C03F7795963C932E93949787FFBA
:1019B0000AC0D80194968D919C9195979F7B95969E
:1019C0009C938E939497403F08F48BCFF80184A1A9
:1019D00095A19B7F95A384A384CF81E09B968C9354
:1019E000F7019681858197FD1AC087FD8FE7D801A1
:1019F00097968C93D80197968C9197978058979645
:101A00008C939797F70185819C968C939C97868100
:101A10009D968C939D9787819E968C9362CF8138FB
:101A200008F481E8F80187A3E5CFFC016093BC00CE
:101A30002FEF3FEF8091BC0087FF06C09091B90067
:101A4000987F908381E008952150310999F780E0D3
:101A50000895CF93DF93EC016093BB0064E80E948C
:101A6000150D882329F081E09881983209F080E0F3
:101A7000DF91CF910895DF92EF92FF920F931F9322
:101A8000CF93DF93EC01D62EF42E8989882329F099
:101A9000411103C00E94EE07198A8E01015F1F4F9A
:101AA0008989811119C0E88864EAC8010E94150D6E
:101AB000882361F08F85883011F0803139F4EE0C85
:101AC000E092BB0064E8C8010E94150D60E0F110CF
:101AD00060E4C8010E94290D6D2DC8010E94290DE6
:101AE00082E0F8120BC089898F5F898BDF91CF91DB
:101AF0001F910F91FF90EF90DF9008950E94EE07E5
:101B0000198AF4CFDC01ED91FC910084F185E02D80
:101B100040E00994FC0127812695269526956217B9
:101B200020F46583606B0C94820D08950F931F93CE
:101B3000CF93FC012681621798F4C62F8C01648331
:101B40006085C60F6C2F6F700E94820D6C2F62959E
:101B50006F706061C801CF911F910F910C94820D3D
:101B6000CF911F910F9108951F93CF93DF93EC01B5
:101B7000142F0E94960D612FCE01DF91CF911F91FE
:101B80000C948A0D2F923F924F925F926F927F92A8
:101B90008F929F92AF92BF92CF92DF92EF92FF927D
:101BA0000F931F93CF93DF9300D000D000D0CDB719
:101BB000DEB7FC01238534852115310509F416C1F2
:101BC0009E838D83F9013296649031964491E42E80
:101BD000F12CF7E0EF0EF11C53E0F594E7945A95E1
:101BE000E1F7E982F901349654913196E4916D3030
:101BF000F1F460E00E94960D81E090E026960FB629
:101C0000F894DEBF0FBECDBFDF91CF911F910F9132
:101C1000FF90EF90DF90CF90BF90AF909F908F900C
:101C20007F906F905F904F903F902F9008956A3013
:101C300081F460E08D819E810E94960DED81FE8190
:101C4000868565818E9D600D1124CF010E948A0DCD
:101C5000D3CF651708F4CAC08E2F90E0FC01E50FC2
:101C6000F11D6E171F060CF0C1C089010A5F1F4FDE
:101C7000651BED81FE8171855685759F502D112460
:101C80005C83F90154912F5F3F4FF9012491352F67
:101C90002230310508F06AC06E9CC0016F9C900D27
:101CA0001124689FF001699FF00D11240E0F1F1F72
:101CB000512CED81FE81F481FA83ED81FE81258036
:101CC000F285FB83862C912CAA24A394B12C312C71
:101CD0008981381608F086C0412CED81FE81868509
:101CE000481608F078C08B818287311002C04420EA
:101CF00041F0ED81FE8145814F5F6A81CF010E94F5
:101D0000B40DD12CC12CC61408F058C0F801EC0D4C
:101D1000FD1D7490552061F0EA14FB0449F4E72D91
:101D2000F0E0052C02C0F595E7950A94E2F77E2EC7
:101D3000ED81FE818685823081F4442009F43AC029
:101D400072948FE07822E72DF0E0EE51FC4F749012
:101D5000672D8D819E810E941505672D8D819E8145
:101D60000E9415058FEFC81AD80ACDCF477028E01A
:101D7000522E541A411101C0512CF801612C30E04F
:101D800020E0661631F04491240F311D63943196A2
:101D9000F8CF600E712E711CF3016490E29EF00189
:101DA000E39EF00DF29EF00D11248E0F9F1F080F81
:101DB000191F7FCFF72DFF707F2EC5CFD12CEC815F
:101DC000DE1639F060E08D819E810E941505D39466
:101DD000F6CF439482CF3394080D191DFFEFAF1A4D
:101DE000BF0A76CF622D8D819E8130CF90E080E05A
:101DF00005CF0F931F93CF93DF938C01D0E0C0E00A
:101E0000F801EC0FFD1F6491662341F08BEA97E027
:101E10000E94C20D892B11F02196F2CFCE01DF91E5
:101E2000CF911F910F910895811104C08CEA93E026
:101E30000C94F90E813019F48BE993E0F9CF8250BC
:101E4000853018F488EA93E0F3CF82EA93E0F0CF8C
:101E5000682F8BEA97E00C94C20DCF92DF92EF923D
:101E6000FF920F931F93CF93DF93EC01F62EC42EB6
:101E7000D22E1A868F81869586958695081710F042
:101E80000FEF080F1D2D011780F0412F6F2DCE0190
:101E90000E94B40DEF2CCE1430F06D85CE010E945F
:101EA0001505E394F8CF1F5FEECF4D2D6F2DCE01BA
:101EB000DF91CF911F910F91FF90EF90DF90CF9026
:101EC0000C94B40D0F93FC010781069506950695B9
:101ED00001504681415020E060E00E942D0F0F919B
:101EE00008954F925F926F927F928F92AF92CF92AE
:101EF000EF92FF920F931F93CF93DF93CDB7DEB78F
:101F00002701380194E0899F80011124F801EC53E6
:101F1000F94F80819181A281B3818E219521A621E3
:101F2000B72131E0892B8A2B8B2B09F430E03C114F
:101F300003C088898823F1F0C11001C0A82C2D5F4F
:101F4000640F422F8BEA97E00E94B40D8A2D0E9405
:101F5000280FF801EC53F94FCC20D1F0808191810A
:101F6000A281B38184299529A629B72980839183E9
:101F7000A283B383DF91CF911F910F91FF90EF90D8
:101F8000CF90AF908F907F906F905F904F9008951B
:101F9000409450946094709480819181A281B38127
:101FA00084219521A621B721E1CF6F927F928F9254
:101FB0009F92AF92BF92CF92DF92EF92FF920F93D8
:101FC0001F93CF93DF933C01D62EC42FE62FF0E072
:101FD000EE0FFF1FEA59FB4FB08007E023E041817D
:101FE0006B2D8BEA97E00E942D0F47E06B2D8BEA5B
:101FF00097E00E94B40DC13091F58EE893E00E9405
:10200000F90E81E08D15E0F0E301C656DF4F8AEF4F
:10201000680E711C99249394E880F9800A811B81D1
:102020009F928F80AE80CC24C3942C814D816B2DE8
:102030008D2D0E94710F28960F90C615D70561F758
:10204000DF91CF911F910F91FF90EF90DF90CF9094
:10205000BF90AF909F908F907F906F90089586E98A
:1020600093E0DF91CF911F910F91FF90EF90DF9060
:10207000CF90BF90AF909F908F907F906F900C9477
:10208000F90E6F927F928F929F92AF92BF92CF92F2
:10209000DF92EF92FF920F931F93CF93DF933C0158
:1020A000D62EC42FE62FF0E0EE0FFF1FEA59FB4FAC
:1020B000B08007E023E041816B2D8BEA97E00E941E
:1020C0002D0F47E06B2D8BEA97E00E94B40DC130D5
:1020D00091F58EE893E00E94F90E81E08D15E0F015
:1020E000E301C256DF4F82EF681A8EEF780A992417
:1020F0009394E880F9800A811B819F928F80AE8043
:10210000C12C2C814D816B2D8D2D0E94710F289635
:102110000F90C615D70569F7DF91CF911F910F91E9
:10212000FF90EF90DF90CF90BF90AF909F908F90F7
:102130007F906F90089586E993E0DF91CF911F9192
:102140000F91FF90EF90DF90CF90BF90AF909F9056
:102150008F907F906F900C94F90E2F923F924F9238
:102160005F926F927F928F929F92AF92BF92CF9227
:10217000DF92EF92FF920F931F93CF93DF93D62EB0
:10218000342E3901B02EFC01E256FF4F2081EC01C4
:102190002E3009F042C0CB5DDE4F2C0123E8421AFD
:1021A0002EEF520AE62FF0E0EE0FFF1FEA59FB4F29
:1021B0009080E880F9800A811B812C814D81AE805E
:1021C0008F806114710459F0F30184A195A1809569
:1021D00090958E219F21CC24C394892B09F4C12C86
:1021E000BF92692D8D2D0E94710F28960F90C415F6
:1021F000D505F9F6DF91CF911F910F91FF90EF90E8
:10220000DF90CF90BF90AF909F908F907F906F9016
:102210005F904F903F902F900895CB55DF4F912CBA
:102220008EEF282E240E462E512C440C551CC20134
:102230008A599B4F2C0191E0921568F48FEF890D1C
:10224000823038F1E5E03E1206C0992011F188EFA6
:10225000890D8230F0F0E880F9800A811B812C81A1
:102260004D81AE808F806114710459F0F30184A117
:1022700095A1809590958E219F21CC24C394892B84
:1022800009F4C12CBF92F20160818D2D0E94710F63
:102290000F9093942896F0E19F12CDCFABCFEF92A1
:1022A000FF920F931F93CF93DF937C01D62FC42F00
:1022B000E62FF0E0EE0FFF1FEA59FB4F108107E019
:1022C00023E04181612F8BEA97E00E942D0F47E0C8
:1022D000612F8BEA97E00E94B40DC43009F449C025
:1022E00070F4C13029F1C230C1F186E993E0DF9189
:1022F000CF911F910F91FF90EF900C94F90EC53084
:10230000B9F088E593E0C63081F70E94F90ED2302B
:1023100040F401E030E020E04C2F6D2FC7010E9417
:10232000AD10DF91CF911F910F91FF90EF90089525
:10233000F701E256FF4F80818E3019F488E893E070
:10234000E4CFF701E656FF4F8081811103C089E792
:1023500093E0DBCF81E893E0D8CFF701E256FF4F5F
:1023600080818C3019F485E793E0CFCF8BE693E042
:10237000CCCF8FE593E0C9CF0F9307E022E04FE782
:1023800060E08BEA97E00E942D0F809195078230E4
:1023900091F08330C1F08130F1F46AE28BEA97E08A
:1023A0000E94960D88EB93E00E94F90E83EB93E078
:1023B0000F910C94F90E66E08BEA97E00E94960D5F
:1023C00085EC93E0F5CF64E28BEA97E00E94960DEE
:1023D0008CEB93E0EDCF0F91089580939A016EEA14
:1023E00081116FEA8BEA97E00E94820D0E944604F9
:1023F0006093960770939707809398079093990737
:1024000008952F923F924F925F926F927F928F9298
:102410009F92AF92BF92CF92DF92EF92FF920F9373
:102420001F93CF93DF93CDB7DEB762970FB6F894C3
:10243000DEBF0FBECDBF9C012C553F4F3A87298789
:10244000D9011C92FC01E556FF4FB081BD83B1114B
:10245000DDC41C018091D80634967F012E503109CD
:102460003901811162C08091D90681115EC08081DD
:1024700081110CC0D9018D919C91DC01ED91FC91F1
:102480000680F781E02D0995F70180838093D806B7
:10249000810100561F4FD8018C9181110EC0F101AE
:1024A000E856FF4F80819181DC01ED91FC9106801F
:1024B000F781E02D0995F80180838093D90681E0AA
:1024C0000E94ED1107E027E04FE760E08BEA97E01C
:1024D0000E942D0F67E08BEA97E00E948A0D60E072
:1024E0008BEA97E00E94960D8091D80681110BC06F
:1024F0008091D906811103C086E993E002C082E988
:1025000093E00E94F90E62E48BEA97E00E94960D38
:102510009091D8068091D906992309F44DC0811174
:1025200004C082E993E00E94F90E66ED862E66E013
:10253000962E78ED472E76E0572E8701E4EDEE2EAD
:10254000E6E0FE2E61011B825101F4E9AF0EB11CE1
:10255000910124563F4F38872F83D3018D919D9150
:102560003D01F50191838083D4011D924D01F2015B
:1025700021912F01222309F43AC4D8012C91211171
:1025800020C0DC01ED91FC910680F781E02D0995DA
:10259000882309F444C021E0F8012083D7011C926C
:1025A000C1010E94570AD501ED91FC9146A16B81B2
:1025B000C1010E944F1133C08111B1CF86E993E070
:1025C000B2CFFC01F6A1FE8312968C918F1719F001
:1025D000C1010E94570A2E81F8012283D501ED9195
:1025E000FC91D601D7969C91D79781AD882309F4A9
:1025F0008DC1D5962C9181E0911101C080E081952B
:1026000082AF23AFD5018D919C910E94E80BF4011C
:1026100031978083882309F482C1F7011082AF814A
:10262000B8858C91882309F4E2C31E82F101EC562F
:10263000FF4FFC83EB83910126563F4F3E872D874A
:10264000C10184569F4F988B8F87D101A256BF4FEF
:10265000BC87AB877096F887EF8380919B01FE81E2
:10266000F81708F0D4C38F2F90E0F101E80FF91F9D
:10267000E156FF4F2081222309F43FC1FC01EA52B9
:10268000F94F0081002309F438C1A985BA85BC90AF
:10269000FC01E55BFF4FEE0FFF1FE20DF31D019004
:1026A000F081E02DAB81BC81ED93FC93AD85BE85BF
:1026B000DC90DD2009F4D6C14B2C512CF201EE5AEE
:1026C000FE4F8081882331F0108245E06B2DC101DF
:1026D0000E944F11AB81BC81ED91FC9162A073A06F
:1026E00084A095A0E7A0D10117967C918D2D6D2D2A
:1026F000772391F060919A07723009F4A2C380E0C9
:10270000662351F061E0713009F060E091E07130D2
:1027100009F090E0862F692F90ADF12C9111F4A86B
:10272000F094882309F407C100E010E0992311F028
:1027300002A913A9AF81B8854C918E2D90E0242F6A
:1027400030E0D1015FE0459FA00DB11D1124BA8B8F
:10275000A98B582F4427840F951F56969C938E93D0
:102760005597C101820F931F41E0DC01D0964C9335
:10277000D097733009F0E8C09E964C939E97D296FE
:102780004C934F2D50E0942F8827840F951FA989D3
:10279000BA8958969C938E935797402F50E0942F68
:1027A0008827840F951F5A969C938E935997412F93
:1027B00050E0942F8827840F951F5C969C938E93EE
:1027C0005B9784A195A180959095BC01672F772791
:1027D00062956F7061707727AC014427587093FF42
:1027E00002C042E050E0462B572BBC0166277072B6
:1027F00095FF02C064E070E0462B572BBC01687067
:10280000772783FF02C068E070E08FE0829FF001CD
:10281000839FF00D1124E20DF31D462B572B528B95
:10282000418BC1010E942F09AF81B8858C9190E046
:102830009C01205B3E4FF9014081BC01625B7E4FF1
:10284000FC01E45BFE4F865B9E4FE41211C0DB018E
:102850004C91F4120DC0408140130AC0DC014C9130
:10286000141306C0DD24D3946814790409F4D12C20
:10287000D901EC92DB01FC920083FC011083DD2086
:10288000C9F1F1E0FB15B0F131012DEB620E711CC5
:10289000EBEF9E2E440C551CC2018A599B4F2C0114
:1028A00091E0991500F5D301ED90FD900D911C91EB
:1028B000AB81BC81ED91FC9184A195A1809590950F
:1028C0008E219F21CC24C394892B09F4C12C1F9203
:1028D000F3018780A68024814581D2016C918B2DE4
:1028E0000E94710F0F909394B8E06B0E711CE8E09A
:1028F0009E12D6CFFD81FD29FD83AF81B8858C91D5
:102900008F5F8C93BE81BF5FBE83A7CE992321F0DA
:10291000B0E4B2AF21E075CE12AE13AE73CED701E4
:102920008C918F5F8C93823008F479CEF8011082FD
:102930001C9240E03CCE00E0911102A9009510E00D
:10294000911113A91095F6CED2961C92D2976623B8
:1029500009F450C09E964C93A989BA895E960C934F
:102960005E975D961C9344A155A140955095CA0170
:10297000892F992782958695877081709927BA014A
:102980006627707154FF02C062E070E0862B972BBF
:10299000BA016627747052FF02C060E170E0862BB6
:1029A000972BBA016627787053FF02C060E270E08F
:1029B000862B972BBA016870772743FF02C060E02F
:1029C00072E04FE0429FF001439FF00D1124E20DB1
:1029D000F31D862B972B928B818B8FE0829FF001CA
:1029E000839FF00D1124E20DF31D20E830E8308FB5
:1029F000278B17CF9E961C9244A155A140955095C8
:102A0000BA01672F772762956F7061707727CA01C7
:102A10008827907255FF02C082E090E0862B972BAA
:102A2000BA016627747052FF02C060E170E0862B25
:102A3000972BBA016627787053FF02C060E270E0FE
:102A4000862B972B60E470E057FD02C070E060E0D9
:102A5000862B972BBA016627707456FFA9CF60E8C2
:102A600070E0A6CFAF85B889FC90F11046CF16A1D3
:102A70008B2C912CF401EE52F94F3F0180811817F5
:102A800029F0412F6B2DC1010E944F11E1E0F0E0D0
:102A9000EC0FFD1FE80DF91D10838FEF810F8530BE
:102AA00008F04CC1C1010E942F09AB81BC81ED919E
:102AB000FC9184A195A180959095AC0144E0549F30
:102AC000412D55271124417055279C012227307232
:102AD00095FF02C022E030E0242B352B44E050E08B
:102AE00097FD02C050E040E0242B352BAC01442779
:102AF000507194FF02C048E050E0242B352BAC010C
:102B00004427547092FF02C040E150E0242B352B43
:102B1000AC014427587093FF02C040E250E0242BE0
:102B2000352BAC014427517090FF02C040E450E0C7
:102B3000242B352BAC014427527091FF02C040E892
:102B400050E0242B352BAC014170552780FF02C08B
:102B500040E051E0242B352BAC014870552783FF12
:102B600002C040E052E0242B352BAC0142705527C7
:102B700081FF02C040E054E0242B352BAC014470AF
:102B8000552782FF02C040E058E0A985BA856C91C4
:102B9000862F90E07101BFE06B9FE00CF11C1124C7
:102BA000242B352BD70152963C932E9351979C01A1
:102BB0002053394F6901D9012C91AB85BC853C91DB
:102BC000311108C0D70150963C9150973F3011F415
:102BD00050962C933FE0389FD001399FB00D1124BF
:102BE000A20DB31D50963C915097F02E231311C0A7
:102BF0009C01220F331F2453394FFF24F394519625
:102C00004D915C91D9012D913C914217530709F4E4
:102C1000F12C23A5222309F4A1C0153009F49EC08C
:102C200077A129E8270F233108F494C0272F60A546
:102C300030E04FE0489FD001499FB00D1124A20D14
:102C4000B31D522F4427240F351F56963C932E93C5
:102C5000559729E8260F233108F47EC0262F30E04F
:102C60004FE0489FD001499FB00D1124A20DB31D24
:102C7000522F4427240F351F58963C932E93579775
:102C80009C01285B3E4FD9014C91DC01AA5BBE4FF1
:102C90002D01471303C04C91EF2C4613E02ED901B0
:102CA0007C93D2016C9323A5222319F0153009F0EF
:102CB0006AC02FE0289FF001299FF00D1124E20D3A
:102CC000F31D20E830E8328F218F348F238F30E8D6
:102CD00020E8DC01AC5BBE4F4C91FC01EE5BFE4F8B
:102CE000421304C04081431301C00E2D2C93308346
:102CF0002FE0289FD001299FB00D1124A20DB31DF4
:102D000050962C915097F6012083880F991FFC0153
:102D1000E453F94F51968D919C91918380830023C8
:102D200069F0F1E0FB1550F0AB81BC812D913C9135
:102D300000E0412F6B2DC1010E94AD10E1E0F0E0F9
:102D4000EC0FFD1FE80DF91D8081F3018083FD81EB
:102D5000FF29D2CD20E86BCF20E881CF2FE0289F3C
:102D6000D001299FB00D1124A20DB31D20E830E839
:102D700056963C932E93559758963C932E9357977F
:102D800060E870E87DCF21A5AB85BC853C913C30E7
:102D900009F420E839E8320F422F333108F440E8D3
:102DA00032A550E06FE0689FF001699FF00D11249B
:102DB000E20DF31D742F6627460F571F528F418F68
:102DC00049E8430F433188F0432F50E06FE0689F9C
:102DD000F001699FF00D1124E20DF31D742F662799
:102DE000460F571F548F438F74CF40E8EECF0F5FCD
:102DF0001F4FEFEFEE1AFE0AF4E0CF0ED11C2B812D
:102E0000213009F412CC31E03B83A7CB1D828D81A8
:102E100062960FB6F894DEBF0FBECDBFDF91CF91A3
:102E20001F910F91FF90EF90DF90CF90BF90AF90E8
:102E30009F908F907F906F905F904F903F902F90DA
:102E40000895662309F468CC61CC90E080E0089591
:102E5000CF93DF93CDB7DEB72F970FB6F894DEBFD1
:102E60000FBECDBF20919B016217E0F42FE0FE0161
:102E70003196DF01322F1D923A95E9F74FEF5FE768
:102E80005F834E83598748875B874A875D874C8776
:102E9000DC01269FA00DB11D1124509601900D92CA
:102EA0002A95E1F72F960FB6F894DEBF0FBECDBF7F
:102EB000DF91CF9108952F923F924F925F926F9240
:102EC0007F928F929F92AF92BF92CF92DF92EF92BA
:102ED000FF920F931F93CF93DF93CDB7DEB7C75504
:102EE000D1090FB6F894DEBF0FBECDBF3C01809173
:102EF0005401882339F01092540140E060E0C3018E
:102F00000E94D50F8091F90681116AC08091FA065E
:102F1000811166C08091F706811109C0F301EC565A
:102F2000FF4F808191810E94A5088093F7068093CE
:102F3000F9068091F806811109C0F301EA56FF4FA6
:102F4000808191810E94A5088093F8068093FA06FB
:102F500081E00E94ED1107E027E04FE760E08BEA97
:102F600097E00E942D0F67E08BEA97E00E948A0DA0
:102F700060E08BEA97E00E94960D8091F90681113E
:102F80000BC08091FA06811103C086E993E002C06C
:102F900082E993E00E94F90E62E48BEA97E00E94D6
:102FA000960D9091F9068091FA06992309F4A4C030
:102FB000811104C082E993E00E94F90E8091F90624
:102FC000882329F041E060E0C3010E94D50F809181
:102FD000FA06882329F041E061E0C3010E94D50F81
:102FE00021961FAE219722961FAE2297512C10E5F5
:102FF000A12E13ECB12E05E1402E88EC882E912CE9
:1030000080919B01581608F08CC0052D10E0F80146
:10301000E750F94F8081882309F46CC07801EE0CE9
:10302000FF1CE60CF71C24E9E20EF11CD7018D9180
:103030009C910E94A508F801E950F94F6F0188237F
:1030400009F45FC0D7012D913C9195E1F901DE01B2
:103050009B9601900D929A95E1F7409EA001419EAA
:10306000500D1124E1E0F0E0EC0FFD1F4E0F5F1F4B
:10307000BA96DA01942D01900D929A95E1F7DA0152
:103080004D915C91FF24F3944115510509F4F12C05
:10309000F3019781911119C041155105B1F0000F4D
:1030A000111F000F111FE00FF11F95A9911105C00D
:1030B00081E097A9911101C080E0D90112969C91FD
:1030C000129780FB93F912969C93F60180818111EF
:1030D0000FC0452B69F0652DC3010E9428179092FF
:1030E0009D0180929C0141E0652DC3010E94D50F96
:1030F000D601FC92539484CF81115ACF86E993E094
:103100005BCF652DC3010E942817B0929D01A0924C
:103110009C0140E0652DC3010E94D50FF60110828D
:10312000E9CF23961FAE2397930128563F4F64960D
:103130003FAF2EAF6497B30167567F4F66967FAF60
:103140006EAF6697C30186509F4F68969FAF8EAF54
:10315000689780919B0123969FAD2397981708F05D
:103160008BC3492E512CF201E950F94F80818823FD
:1031700009F44DC385E1849DF001859DF00D112476
:10318000A1E0B0E0AC0FBD1FEA0FFB1F958586855F
:103190009C0129963FAF2EAF2997D201AA0FBB1FE2
:1031A000AD50B94F2D913C914785D201AF50B94FE9
:1031B0008C91082E000C990B4817190611F55089AF
:1031C000D201A151B94F8C91082E000C990B5817C0
:1031D0001906B9F45189D201A351B94F8C91082E27
:1031E000000C990B5817190661F45289F201E55148
:1031F000F94F8081082E000C990B5817190609F415
:103200005DC3E0E4F0E0EC0FFD1FE40DF51D81E08F
:1032100029966EAD7FAD29972617370709F480E010
:103220008083F301E40DF51D16A685E1849DD00190
:10323000859DB00D112481E090E08C0F9D1FA80F9B
:10324000B91F1E969C9193FB222720F982E092FFE2
:1032500080E0822B95E1949DD001959DB00D1124C5
:1032600021E030E02C0F3D1FA20FB31F1E969C9152
:1032700090FFD5C294E0892B95E1949DD001959D56
:10328000B00D112461E070E06C0F7D1FA60FB71F19
:103290001E969C9191FFC5C298E02FE0249DD0011D
:1032A000259DB00D1124A60DB71D892B50968C932A
:1032B00085E1849DD001859DB00D112481E090E0D1
:1032C0008C0F9D1FA80FB91F1D968C9181FB99270C
:1032D00090F961969FAF619762961FAE629722E068
:1032E00030E080FD02C030E020E06296AEADBFADC0
:1032F00062972A2B3B2B85E1849DD001859DB00DE3
:10330000112461E070E06C0F7D1FA60FB71F1D96A2
:103310008C9183FF88C284E090E0282B392B85E1D3
:10332000849DD001859DB00D112481E090E08C0F2B
:103330009D1FA80FB91F1D968C9182FF77C288E050
:1033400090E0822B932B25E1249DD001259DB00D8B
:10335000112421E030E02C0F3D1FA20FB31F1E9659
:103360002C9124FF66C220E230E0822B932B25E1D2
:10337000249DD001259DB00D112461E070E06C0FFB
:103380007D1FA60FB71F53963C9160E470E0333366
:1033900010F470E060E0862B972B25E1249DD0018E
:1033A000259DB00D112461E070E06C0F7D1FA60F0C
:1033B000B71F54962C9160E870E0233310F470E04E
:1033C00060E0862B972B55E1549DD001559DB00DA3
:1033D000112461E070E06C0F7D1FA60FB71F1D96D2
:1033E0005C9160E072E054FD02C070E060E05FE07C
:1033F000549DD001559DB00D1124A60DB71D862BEF
:10340000972B52969C938E935197D30117968C913C
:10341000882331F090919A07992391F1813081F5B9
:10342000B1E0B6A7303208F430E0203208F420E0F2
:1034300085E1849DF001859DF00D112461E070E02F
:103440006C0F7D1FE60FF71F868586FD3FEF85E138
:10345000849DF001859DF00D112481E090E08C0F9A
:103460009D1FE80FF91F868585FD2FEF8FE0849D56
:10347000F001859DF00D1124E60DF71D358F268F87
:103480006496AEADBFAD6497CC906696EEADFFADE1
:10349000669780814C1508F0CFC195E1949DF001AD
:1034A000959DF00D112421E030E02C0F3D1FE20F1F
:1034B000F31FC78695E1949DF001959DF00D1124B1
:1034C000A1E0B0E0AC0FBD1FEA0FFB1F90899C1577
:1034D00008F0C3C1C08A95E1949DF001959DF00D5F
:1034E000112421E030E02C0F3D1FE20FF31F9189E2
:1034F0009C1508F0B7C1C18A95E1949DF001959D96
:10350000F00D112461E070E06C0F7D1FE60FF71FD6
:1035100092899C1508F0ABC1C28A882E912CB12CDF
:10352000A12CD12CF12CE12C85E1849DF001859D0D
:10353000F00D112481E090E08C0F9D1FE80FF91F22
:1035400097852E969FAF2E97C501B4016C197D0902
:103550008E099F092D966CAF7DAF8EAF9FAF2D97D3
:103560002E967FAD2E97272F30E050E040E02C19AB
:103570003D094E095F09AFEFB0E00E9491322D96F0
:103580002CAD3DAD4EAD5FAD2D970E947232822FB6
:103590002757233108F480E8282F30E08FE0849DFE
:1035A000F001859DF00D1124E60DF71D922F88275F
:1035B000820F931F968B858B85E1849DF001859DFD
:1035C000F00D112481E090E08C0F9D1FE80FF91F92
:1035D00090892F969FAF2F97C701B6016819790977
:1035E0008A099B0927966CAF7DAF8EAF9FAF279757
:1035F0002F967FAD2F97272F30E050E040E028191D
:1036000039094A095B09AFEFB0E00E949132279671
:103610002CAD3DAD4EAD5FAD27970E947232822F2B
:103620002757233108F480E8282F30E08FE0849D6D
:10363000F001859DF00D1124E60DF71D922F8827CE
:10364000820F931F908F878B85E1849DF001859D6C
:10365000F00D112481E090E08C0F9D1FE80FF91F01
:10366000918960969FAF6097292F30E050E040E04D
:103670002C193D094E095F09AFEFB0E00E9491326D
:103680002D962CAD3DAD4EAD5FAD2D970E947232A3
:10369000822F2757233108F480E8282F30E08FE06D
:1036A000849DF001859DF00D1124E60DF71D922FEC
:1036B0008827820F931F928F818F85E1849DF0016F
:1036C000859DF00D1124A1E0B0E0AC0FBD1FEA0F05
:1036D000FB1FD2882D2D30E050E040E02819390939
:1036E0004A095B09AFEFB0E00E94913227962CADFA
:1036F0003DAD4EAD5FAD27970E947232822F2757A6
:10370000233108F480E890E02FE0249DF001259D0E
:10371000F00D1124E60DF71D382F2227820F931F7D
:10372000948F838F1301BAE92B0E311C29968EAD2D
:103730009FAD2997BC0190E080E02D966CAF7DAFE6
:103740008EAF9FAF2D97D201AA0FBB1F2596BFAF9B
:10375000AEAF2597FD01EA59FB4FB080F101E08043
:10376000F180028113812D968CAD9DADAEADBFADC4
:103770002D978E219F21A023B123CC24C394892B84
:103780008A2B8B2B09F4C12C1F92D10117968C9098
:1037900017971696AC90169714962C911497159629
:1037A0004C916B2D23968FAD23970E94710FB8E03B
:1037B0002B0E311C0F906896EEADFFAD6897E215A9
:1037C000F30561F62596EEADFFAD2597ED50F94F67
:1037D00029962EAD3FAD299731832083F201EF501A
:1037E000F94F2E963FAD2E973083F201E151F94FFC
:1037F0002F966FAD2F976083F201E351F94F6096DA
:103800007FAD60977083F201E551F94FD082239626
:103810008FAD23978F5F23968FAF23979ACC90E03D
:103820002ACD90E03ACD90E080E077CD90E080E046
:1038300088CD30E020E099CD841708F03BCE95E1AB
:10384000949DF001959DF00D112461E070E06C0FE6
:103850007D1FE60FF71F87872DCE891708F03BCE17
:10386000808B39CE891708F047CE818B45CE8917DA
:1038700008F053CE828B51CE21968FAD21978111C6
:1038800003C022968FAD2297C95ADF4F0FB6F89426
:10389000DEBF0FBECDBFDF91CF911F910F91FF9083
:1038A000EF90DF90CF90BF90AF909F908F907F90E0
:1038B0006F905F904F903F902F9008952996AEADF6
:1038C000BFAD29972A173B0709F4A1CF9ACCFC0179
:1038D000809182069091830686179707A0F0611564
:1038E000710529F49091E8009E779093E80090E0AC
:1038F0006115710551F4911108C08091E80082FFB3
:1039000035C080E00895BC01F2CF809191078823F3
:10391000C9F18530C9F18091E80083FD31C0809103
:10392000E80082FDEACF8091E80080FFE1CF20919E
:10393000F3008091F200322F282F6115710519F0E4
:103940002034310558F091E02034310509F090E041
:103950002091E8002E772093E800CACF81918093D0
:10396000F100615071092F5F3F4FE7CF80919107C0
:10397000882341F0853041F08091E80083FFBDCF7E
:1039800081E0089582E0089583E008952091E400A5
:103990003091E50085E69091EC0090FF06C0909193
:1039A000E80090FF06C080E008959091E80092FD45
:1039B000FACF90919107992391F0953091F09091E1
:1039C000EB0095FD10C04091E4005091E5002417F4
:1039D000350709F381509A01F1F684E0089582E0F9
:1039E000089583E0089581E0089580917C0687FF23
:1039F00013C08091E80082FF06C08091E8008B77B9
:103A00008093E80004C0809191078111F2CF08955E
:103A1000809191078823D9F38091E80080FFF8CF47
:103A20008091E8008E77ECCF982F973028F08F7038
:103A30008093E90081E008959093E900242F762F88
:103A400050E0981731F07091EC002091ED0050910A
:103A5000F00021FD02C09F5FE8CF3091EB003E7F78
:103A60003093EB003091ED003D7F3093ED003091CD
:103A7000EB0031603093EB007093EC002093ED008D
:103A80005093F0002091EE0027FDE5CF80E00895EF
:103A900042E050E06CE275E08BEA97E00C9452044F
:103AA000CF93DF930E94F90EEC010E94481D8C0F0A
:103AB0009D1FDF91CF9108950F931F93CF93DF93B5
:103AC000CDB7DEB7A4970FB6F894DEBF0FBECDBF5B
:103AD000182F83E0898380EC8A838BE18B8370E0ED
:103AE00040E250E0CE0104960E94133401E09E01B2
:103AF0002C5D3F4F43E2BE016F5F7F4F812F0E94DD
:103B0000B805A4960FB6F894DEBF0FBECDBFDF9107
:103B1000CF911F910F9108950F931F93CF93DF9330
:103B2000CDB7DEB7C754D1090FB6F894DEBF0FBECC
:103B3000CDBF182F83E0898380E88A8381E08B835F
:103B400070E040E250E0CE0104960E94133401E0A0
:103B50009E01295B3F4F43E2BE016F5F7F4F812F84
:103B60000E94B8058091C2019091C301A091C40147
:103B700027968DAF9EAFAFAF279700E29E012C5DD9
:103B80003F4F43E0BE016C5B7F4F812F0E94B80521
:103B9000C95BDF4F0FB6F894DEBF0FBECDBFDF911C
:103BA000CF911F910F910895EF92FF920F931F9362
:103BB000CF93DF931F92CDB7DEB77C01FC018781E5
:103BC000198203E0970141E0BE016F5F7F4F0E94C1
:103BD000B805F701833061F010821182128280E013
:103BE0000F90DF91CF911F910F91FF90EF9008956B
:103BF000828187708130C9F40BE811E0C801019718
:103C0000F1F76EEE87810E948C1DC8010197F1F7D4
:103C100060E8F70187810E948C1DC8010197F1F7C8
:103C200060E0F70187810E945C1D8BE097E20197BD
:103C3000F1F781E0D5CF2F923F924F925F926F9232
:103C40007F928F929F92AF92BF92CF92DF92EF922C
:103C5000FF920F931F93CF93DF93CDB7DEB7E59716
:103C60000FB6F894DEBF0FBECDBF1C018091E906F0
:103C7000811152C08091EA0681114EC08091E70601
:103C8000811109C0F101EA56FF4F808191810E94A4
:103C9000D41D8093E7068093E9068091E8068111A0
:103CA00009C0F101E856FF4F808191810E94D41D27
:103CB0008093E8068093EA0681E00E94ED1107E018
:103CC00027E04FE760E08BEA97E00E942D0F67E066
:103CD0008BEA97E00E948A0D60E08BEA97E00E94F1
:103CE000960D8091E906882309F464C041E060E004
:103CF000C1010E94411062E48BEA97E00E94960D98
:103D00009091E9068091EA0691115BC0811159C03A
:103D100086E993E00E94F90E1D8E1E8E10E051017F
:103D200024E9A20EB11CBBE86B2E7724739480911A
:103D30009B01181708F0F7C0E12EF12CF701E55BA5
:103D4000FF4FEE0FFF1FE20DF31DC080D180D501A4
:103D5000CD92DC92F701EB51F94F4F011082F70140
:103D6000E751F94F8081882309F49DC097012951BB
:103D7000394F2901D9018C9181112EC0C6010E94B1
:103D8000D41D882309F48FC021E0F2012083F701BC
:103D9000ED51F94F1082612FC1010E94281741E0B7
:103DA000612FC1010E9441107EC082E993E00E9410
:103DB000F90EA1CF8091EA068111F7CF86E993E051
:103DC000F6CF811103C082E993E0A4CF41E061E026
:103DD000C1010E944110A0CFD6018D919C91892BE9
:103DE000B9F1F6016281862F8770813099F463FB07
:103DF000882780F99091DA06891761F0C30101974D
:103E0000F1F763FB662760F987810E945C1DC3019F
:103E10000197F1F7F601828183FB882780F980936F
:103E2000DA068781F1E0FE8B04E096012D5F3F4FBB
:103E300041E0BE016A5E7F4F0E94B8058430A9F15F
:103E4000D6011C9211961C92119712961C9205C0D5
:103E5000C6010E94D41D8111C4CFD4018C91F701F9
:103E6000ED51F94F882309F450C01082F101978178
:103E7000911119C0F501A081B181EE0CFF1CEE0C6F
:103E8000FF1CF101EE0DFF1D95A9911105C081E008
:103E900097A9911101C080E012969C91129780FB26
:103EA00093F912969C931F5F42CFD501ED91FC913F
:103EB00087E0DE01569601900D928A95E1F787E042
:103EC000FE017696DE011F9601900D928A95E1F72C
:103ED000B7E0BE9DC001BF9D900D1124E1E0F0E070
:103EE000EC0FFD1F8E0F9F1F3E96DC0127E0019017
:103EF0000D922A95E1F721E0DC018D919C91892BAF
:103F000009F420E0F4012083A8CF80818F5F8083B3
:103F1000823048F2D2011C921082612FC1010E94AE
:103F2000281740E03DCFD12CF101E656FF4FFDA709
:103F3000ECA7910125563F4F3FA72EA7A10143565D
:103F40005F4F59AB48ABC10184569F4F9BAB8AABC7
:103F5000D101A25FBE4FBDABACAB80919B01D81627
:103F600008F084C26D2C712CF301E951F94F808166
:103F7000882309F45CC2F301EB51F94F8081882357
:103F800009F455C287E0869DF001879DF00D11244C
:103F900021E030E02C0F3D1FE20FF31F2381822F21
:103FA00082958F7090E0982F88279295907F2F7040
:103FB00030E0322F2227820F931F2481422F429517
:103FC0004F7030E1439FA0011124840F951F2F7083
:103FD000AC01420F511D58A34F8FC301880F991F89
:103FE0009BA38AA3DC01A152B94F8D919C9125819D
:103FF000D301A352B94FBFA3AEA33C91231308C072
:104000004681F301E552F94F3081431709F457C255
:10401000EDE1F0E0EC0FFD1FE60DF71D31E04F8DF7
:1040200058A18417950709F430E0308387E0869D16
:10403000F001879DF00D112481E090E08C0F9D1F11
:10404000E80FF91F938193FB332730F982E092FF49
:1040500080E0832B97E0969DF001979DF00D112451
:10406000A1E0B0E0AC0FBD1FEA0FFB1F938191FFF1
:10407000E0C194E0892B97E0969DF001979DF00DAB
:10408000112441E050E04C0F5D1FE40FF51F9381B8
:1040900090FFD1C198E03FE0369DF001379DF00DD3
:1040A0001124E20DF31D892B808B87E0869DF001A2
:1040B000879DF00D112481E090E08C0F9D1FE80F8B
:1040C000F91F848182FB992790F99CA31DA280FF90
:1040D000B4C182E090E0ACA1BDA18A2B9B2B37E05C
:1040E000369DF001379DF00D112441E050E04C0F5A
:1040F0005D1FE40FF51F348144E050E031FD02C044
:1041000050E040E0842B952B37E0369DF001379D41
:10411000F00D1124A1E0B0E0AC0FBD1FEA0FFB1FB2
:10412000348148E050E033FD02C050E040E0842B91
:10413000952B37E0369DF001379DF00D112441E0BD
:1041400050E04C0F5D1FE40FF51F348140E150E05B
:1041500035FD02C050E040E0842B952B37E0369DC2
:10416000F001379DF00D1124A1E0B0E0AC0FBD1FB0
:10417000EA0FFB1F348140E250E034FD02C050E002
:1041800040E0842B952B37E0369DF001379DF00DF4
:10419000112441E050E04C0F5D1FE40FF51F338107
:1041A00040E450E036FD02C050E040E0842B952B07
:1041B00037E0369DF001379DF00D1124A1E0B0E00D
:1041C000AC0FBD1FEA0FFB1F338140E850E037FD05
:1041D00002C050E040E0842B952B37E0369DF00183
:1041E000379DF00D112441E050E04C0F5D1FE40FAE
:1041F000F51F338140E051E035FD02C050E040E062
:10420000842B952B37E0369DF001379DF00D11245E
:10421000A1E0B0E0AC0FBD1FEA0FFB1F338140E00F
:1042200052E034FD02C050E040E03FE0369DF00136
:10423000379DF00D1124E20DF31D842B952B928BED
:10424000818B2F3B0CF0FCC087E0869DF001879DA1
:10425000F00D112421E030E02C0F3D1FE20FF31F81
:104260008FEB858387E0869DF001879DF00D1124FB
:1042700081E090E08C0F9D1FE80FF91F86818F3B36
:104280000CF0EFC08FEB8683ACA5BDA58C90082CFD
:10429000000C9908AA08BB0887E0869DF001879D5D
:1042A000F00D112421E030E02C0F3D1FE20FF31F31
:1042B000358139A3232F330F330B440B550B2819AA
:1042C00039094A095B09AFEFB0E00E949132AEA50F
:1042D000BFA52C91022E000C330B440B550B281953
:1042E00039094A095B090E947232822F275723310C
:1042F00008F480E890E02FE0269DF001279DF00D66
:104300001124E20DF31D382F2227820F931F968B65
:10431000858BE8A9F9A9E0800E2C000CFF08000BA2
:10432000110B87E0869DF001879DF00D112421E09F
:1043300030E02C0F3D1FE20FF31F9680292D092C32
:10434000000C330B440B550B2E193F09400B510B3E
:10435000AFEFB0E00E949132AAA9BBA92C91022E26
:10436000000C330B440B550B2E193F09400B510B1E
:104370000E947232822F2757233108F480E890E0A0
:104380002FE0269DF001279DF00D1124E20DF31D75
:10439000382F2227820F931F908F878B2101BEE930
:1043A0004B0E511C4F8D58A19A0150E040E028A7B8
:1043B00039A74AA75BA7EAA1FBA1EA59FB4FB08046
:1043C000D201ED90FD900D911C9188A599A5AAA50B
:1043D000BBA58E219F21A023B123CC24C394892B7C
:1043E0008A2B8B2B09F4C12C1F92F2018780A680A7
:1043F000248145816B2D8D2D0E94710FF8E04F0EA9
:10440000511C0F902CA93DA942165306C9F6EAA1EA
:10441000FBA1E152F94F4F8D58A151834083E9A18F
:10442000AEA1BFA1EC93F301E552F94F9082D39472
:1044300094CD90E01FCE90E02ECE90E080E04BCE69
:1044400022340CF40FCF87E0869DF001879DF00D9C
:10445000112441E050E04C0F5D1FE40FF51F81E493
:1044600000CF82340CF410CF81E40DCF8091E706A9
:10447000811104C08091E806882321F08BE097E247
:104480000197F1F78D8D811101C08E8DE5960FB6E4
:10449000F894DEBF0FBECDBFDF91CF911F910F917A
:1044A000FF90EF90DF90CF90BF90AF909F908F9054
:1044B0007F906F905F904F903F902F9008954F8D19
:1044C00058A18417950709F4B2CFA2CD0E94F83302
:1044D000EF92FF920F931F93CF93DF9300D0CDB74E
:1044E000DEB780919107882309F4DBC08091E90051
:1044F0008F709091EC0090FF4FC090E8F92EF82A51
:104500001092E9008091E80083FFC7C0ECE7F6E075
:104510008091F100819326E0E438F207C9F7E0903A
:104520007D0681E0E8121DC080917C06813AC9F4C5
:104530008091E800877F8093E80080917E069091CB
:104540007F068115934051F568E070E080E091E0CE
:104550000E94671CE0929B078091E8008B77809314
:10456000E8008091E80083FF8AC080917C069091EA
:104570007D069A3008F083C0E92FF0E0EE53FD4D40
:104580000C94CD32122338233F2338233F23992321
:10459000BB233F23EE25FB2590E0B0CFE0919007B1
:1045A000E730D0F6F0E0E952FD4D0C94CD32DE223A
:1045B000E522EA22EF22F422F9220D2364E170E0E1
:1045C0008CE795E00E94671CC7CF60E470E089E645
:1045D00095E0F8CF60E470E081E695E0F3CF60E429
:1045E00070E089E595E0EECF60E470E082E595E06B
:1045F000E9CF81E080934E0582E080934B05809166
:1046000080069091810660E470E0892B19F48EE4B5
:1046100095E0D8CF8BE495E0D5CF60E470E086E4F8
:1046200095E0D0CF803889F0823849F580918006B6
:104630008F70873020F58093E9008091EB0085FB37
:10464000882780F91092E90004C080910307811146
:104650000DC09091E800977F9093E8008093F1005F
:104660001092F1008091E8008E7732C082E0F1CFA5
:10467000282F2D7F21F48823E9F0823071F1809179
:10468000E80083FF0AC08091E800877F8093E800FC
:104690008091EB0080628093EB008F2D8F70809370
:1046A000E9000F900F90DF91CF911F910F91FF9034
:1046B000EF90089580917E06813009F7933009F0DC
:1046C00080E0809303071092E9008091E800877FE3
:1046D0008093E8000E94F51CD2CF80917E06811164
:1046E000F2CF809180068F702FEF280F263038F69A
:1046F0008093E9002091EB0020FFE5CF933031F467
:104700008091EB0080628093EB00DDCF9091EB0015
:1047100090619093EB0021E030E001C0220F8A9578
:10472000EAF72093EA001092EA008091EB0088609B
:10473000EACF8111A4CF10917E061F778091E3000C
:104740008078812B8093E3008091E800877F8093BD
:10475000E8000E94F51C8091E80080FFFCCF80916A
:10476000E30080688093E30083E0111101C082E0E0
:104770008093910784CF8058823008F080CF2091B9
:104780007E0630917F061A821982832F9927833003
:10479000910509F41CC1D0F481309105A9F102976B
:1047A00009F45DC069817A816115710509F467CFEB
:1047B0008091E800877F8093E800C8010E94671C11
:1047C0008091E8008B778093E80059CF8132910582
:1047D00009F49FC1829731F780919007843009F4E2
:1047E000E7C108F0BBC1813009F4C8C1833009F4C6
:1047F000D4C146E450E06AE671E086EE95E00E949E
:10480000533286E490E0C4C180919007882399F0E8
:10481000813001F10091090710910A0742E150E04F
:1048200065EC70E080E995E00E94533200939C05AE
:1048300010939D0508C042E150E069EE70E080E908
:1048400095E00E94533282E190E09A83898300E9E7
:1048500015E0A8CF42E150E067ED70E0F0CF0091A5
:10486000080710919007113009F456C008F44DC0A4
:10487000153009F496C01350143008F0A1C0E12F90
:10488000F0E0E55EFB4F108149E050E064E171E04B
:1048900082EA95E00E94533299E1099F902D1124FC
:1048A000975F9093A4050093A605002309F48AC09E
:1048B00049E150E06BEF70E08BEA95E00E945332E3
:1048C0001092AD051093BB0581E88093BF050230BF
:1048D00008F478C049E150E06BEF70E084EC95E0BB
:1048E0000E94533281E08093C6051093D40582E87C
:1048F0008093D805023009F465C049E150E06BEFC0
:1049000070E08DED95E00E94533281E390E09A8350
:1049100089830AEE13E046CF49E050E068E571E094
:1049200082EA95E00E94533299E1099F902D11246B
:10493000975F9093A4050093A605002361F149E1D8
:1049400050E06FE371E08BEA95E00E9453321092E1
:10495000AD054CE6E42EE092BB0581E88093BF05EF
:104960000230C8F049E150E06FE371E084EC95E07B
:104970000E9453321093C605E092D40582E88093DA
:10498000D805023041F049E150E06FE371E08DED70
:1049900095E00E945332B9E10B9FC00111240996A2
:1049A0000AC042E250E06DE171E082EA95E00E94C7
:1049B000533282E290E09A83898302EA15E0F2CED4
:1049C00016E462CFE9E10E9FC0011124E8CFC901CE
:1049D00099278230910549F18330910509F441C04E
:1049E0008130910509F04AC080919007813089F4A7
:1049F00044E351E0DA010D900020E9F7AD014553A1
:104A0000514064E371E0CE0101960E94AC278C0115
:104A1000C9CE47E251E0FA0101900020E9F7AF0169
:104A20004852514067E271E0EECF809190078130AB
:104A300061F445E151E0DA010D900020E9F7AD01A4
:104A40004651514065E171E0DECF48E051E0FA01A6
:104A500001900020E9F7AF014950514068E071E052
:104A6000D2CF6091060770910707FB0101900020EB
:104A7000E9F73197AF01461B570BC5CF68EE73E0DE
:104A8000E1E0222331F1253039F52FE234E0E0E096
:104A9000FCE0FE0FD9011D919D018E2F90E0019643
:104AA00070E060E0412F42954F7050E0415D5A4FF9
:104AB000DA014C91DC014C93EE5F90E0A12FAF70D6
:104AC000B0E0A15DBA4F4C91DC0111964C93EF130D
:104AD000E1CF4E2F50E097CF20919007880F991F7C
:104AE000222329F0213049F0815E9B4F02C08B5C6C
:104AF0009B4FFC016081718105C0895D9B4FDC018A
:104B00006D917C91FB0101900020E9F73197E61B44
:104B1000E0CF1091900749E050E061E671E08DED43
:104B200095E00E9453328BE5143079F040F48CE626
:104B3000113059F089E5133041F086E406C081E573
:104B4000153019F087E31630C1F78093E40589E04A
:104B500090E09A8389830DED15E024CE853099F19C
:104B6000863009F046CE47E350E060EB71E086EE18
:104B700095E00E94533287E390E00AC04CE650E093
:104B80006CEE72E086EE95E00E9453328CE690E087
:104B90009A83898306EE15E005CE49E550E063E986
:104BA00072E086EE95E00E94533289E590E0F0CF06
:104BB0004BE550E068E372E086EE95E00E945332E8
:104BC0008BE590E0E5CF41E550E067EE71E086EEE1
:104BD00095E00E94533281E590E0DACF803809F009
:104BE0004ECD8091E800877F8093E8008091040794
:104BF0008093F10037CD811142CD10917E061230A5
:104C000008F03DCD8091E800877F8093E800109305
:104C100004070E94F51C1123F9F084E080939107AA
:104C2000009190070023F1F042E360EC82E00E94E3
:104C3000141D11E080910807811708F420CD812F01
:104C40008F70873020F442E361EC0E94141D053020
:104C500009F415CD1F5FEECF8091E30087FDDDCF16
:104C600081E0DCCF42E261EC81E00E94141D46E26B
:104C700060EC82E00E94141D02CD0F931F93CF932E
:104C8000DF938C01EB018091E80085FD10C08091DD
:104C9000E8008B778093E8000E9468220E94C61C7F
:104CA000882389F3DF91CF911F910F91089580910F
:104CB000F100F80181938F01219729F780E0F2CF6D
:104CC0001F920F920FB60F9211242F933F938F9341
:104CD0009F93AF93BF938091A3079091A407A09156
:104CE000A507B091A6073091A20723E0230F2D3727
:104CF00058F50196A11DB11D2093A2078093A3072B
:104D00009093A407A093A507B093A6078091A70747
:104D10009091A807A091A907B091AA070196A11D9B
:104D2000B11D8093A7079093A807A093A907B093FC
:104D3000AA07BF91AF919F918F913F912F910F90B3
:104D40000FBE0F901F90189526E8230F0296A11D05
:104D5000B11DD2CF1F93CF93DF93EC0180E88FA3D7
:104D600088A789A78AA71BA6FE01BC968CE0DF0155
:104D70001D928A95E9F71EA219AE1AAE1BAE1CAEA3
:104D800015E0CE010E94E80B61E070E080E090E069
:104D90000E9414041150A9F7CE01DF91CF911F9109
:104DA0000C94E80BCF93DF93EC01849A8C9A229AAF
:104DB0002A9A219A299A23982B982B9A0E947F0449
:104DC000CE01DF91CF910C94AA26CF93DF93EC0113
:104DD0003E9A469A229A2A9A219A299A23982B989F
:104DE0002B9A0E947F04CE01DF91CF910C94AA26CA
:104DF0001F920F920FB60F9211242F933F934F9350
:104E00005F936F937F938F939F93AF93BF93EF9332
:104E1000FF938091DA0080FF17C08091D80080FF57
:104E200013C08091DA008E7F8093DA008091D900E0
:104E300080FF86C080E189BD82E189BD09B400FEA2
:104E4000FDCF81E0809391078091E10080FF17C042
:104E50008091E20080FF13C08091E2008E7F8093FA
:104E6000E2008091E20080618093E2008091D800AE
:104E700080628093D80019BC85E08093910780916F
:104E8000E10084FF26C08091E20084FF22C080E11F
:104E900089BD82E189BD09B400FEFDCF8091D800B3
:104EA0008F7D8093D8008091E1008F7E8093E10018
:104EB0008091E2008F7E8093E2008091E200816029
:104EC0008093E200809104078823F1F184E08093CD
:104ED00091078091E10083FF22C08091E20083FF6F
:104EE0001EC08091E100877F8093E10082E0809383
:104EF0009107109204078091E1008E7F8093E1007A
:104F00008091E2008E7F8093E2008091E2008061D8
:104F10008093E20042E360E080E00E94141DFF9174
:104F2000EF91BF91AF919F918F917F916F915F9121
:104F30004F913F912F910F900FBE0F901F9018959A
:104F400019BC1092910780CF8091E30087FD02C0C9
:104F500081E0BDCF83E0BBCFCF93DF93DC01403254
:104F6000510514F04FE150E090E0292F30E0241774
:104F7000350784F04F5F5F4F440F551F4D935C938F
:104F80005360509385064093840684E896E0DF9151
:104F9000CF910895F901EE0FFF1FEA57F94F260F41
:104FA000371FE9012881022E000C330B3183208347
:104FB0009F5FDBCFCF93DF93CDB7DEB729970FB6D7
:104FC000F894DEBF0FBECDBF789484B5826084BDF7
:104FD00084B5816084BD85B5826085BD85B58160FD
:104FE00085BD80916E00816080936E00109281007B
:104FF0008091810082608093810080918100816036
:1050000080938100809180008160809380008091F6
:1050100091008260809391008091910081608093E3
:105020009100809190008160809390008091C100F8
:1050300084608093C1008091C10082608093C10030
:105040008091C10081608093C1008091C300816024
:105050008093C3008091C00082608093C0008091E3
:10506000C20081608093C20080917A008460809346
:105070007A0080917A00826080937A0080917A0031
:10508000816080937A0080917A00806880937A00B2
:1050900056985E9A10929B0790E080E00E945C32E6
:1050A000843008F0A5C080939507809195078230E1
:1050B00009F4A0C0833009F4D3C0813009F061C085
:1050C0008DE791E00E94D3328C010E94890384E92C
:1050D00094E0D8018D939C9381E490E00E94D332B8
:1050E000F1E4FF2EFC01BF2C1192BA94E9F728E8F5
:1050F00034E0DC012D933C93F801EA56FF4F918395
:10510000808381E490E00E94D332FC011192FA94F2
:10511000E9F72CE734E0DC012D933C93F801E856E5
:10512000FF4F9183808332961082319610823196A0
:10513000108231961082319610823196108231960B
:1051400010823196108231961082319610823196FB
:105150001082D801AB55BF4F80E8E5ECF1E001903B
:105160000D928A95E1F7D801AB5DBE4F88E5E5E485
:10517000F2E001900D928A95E1F710939D0700935C
:105180009C071092BC078CE38093BB071092B90078
:1051900084E48093BC008CE08093B8001092AF0749
:1051A0001092B007EEE4F6E0C590D490E0E5F6E0AA
:1051B000F490E1E5F6E0E491E093B107E2E5F6E092
:1051C000E491E093B207E3E5F6E0E491E093B307FE
:1051D00010E000E00F1508F075C0F601E00FF11FB8
:1051E00064918BEA97E00E94820D0F5F1F4FF2CF10
:1051F00081E059CF8EE091E00E94D3328C010E9471
:10520000890386EA94E0F8019183808388E090E046
:105210000E94D33225E1DC0117962C93F801EA565F
:10522000FF4F9183808388E090E00E94D33225E095
:10523000FC012783F801E856FF4F91838083329663
:105240009FEB9083319681E48083319690833196F1
:105250008083D801A256BF4F80E7EDE9F2E089CF05
:105260008AEF90E00E94D3328C010E94890388EB80
:1052700094E0D8018D939C9386E190E00E94D33214
:1052800025E1FC01258BF801EC56FF4F91838083CB
:1052900086E190E00E94D33225E0DC0155962C9304
:1052A000F801EA56FF4F9183808332968EE1808326
:1052B000319681EE8083D801A656BF4F80E6EDE09F
:1052C000F3E057CF8BEA97E00E94620F61E88BEA28
:1052D00097E00E94820D61E08BEA97E00E94820DC8
:1052E000E3E6F4E0F093B707E093B6078491E4E6D1
:1052F000F4E0E491F82F319709F0E1C01092B4077F
:105300008BEA97E00E94620F11E01093B9076EE1FB
:105310008BEA97E00E94960D82E08093B9078CE5B6
:1053200094E00E94F90E1093B90762E08BEA97E0CF
:105330000E948A0D0E94BC1181E090E00E945C32C4
:10534000873008F080E0A0919C07B0919D071796E8
:105350008C931797ED91FC9111970190F081E02DBE
:10536000CD01099564E170E080E090E00E941404B2
:1053700080919C0790919D07DC01ED91FC9102804A
:10538000F381E02D099564E170E080E090E00E94F7
:10539000140480919C0790919D07DC01ED91FC9194
:1053A0000280F381E02D0995A0919C07B0919D07A3
:1053B00051968C91519780FF86C081E017968C930F
:1053C00017974E99A6C017961C918BEA97E00E94FA
:1053D000620F45E050E060E475E08BEA97E00E94E0
:1053E00052040E94481D6CED75E080E090E00E9440
:1053F00014048BEA97E00E94620F8FE494E00E940D
:10540000501D81E494E00E94501D84E394E00E94CA
:10541000501D64EF71E080E090E00E94140481E090
:10542000812C912C540101E0FF24F3944E9951C03A
:10543000F12C813051F40E9446044B015C0160E183
:1054400070E080E090E00E9414040E944604681915
:1054500079098A099B09693E73408105910510F419
:105460000C943A328BEA97E00E94620F8CE294E04F
:105470000E94501D85E294E00E94F90E812F0E9447
:10548000140F0E94481D0E94481D81E194E00E9473
:10549000F90E60ED77E080E090E00E941404612F47
:1054A00081E090E00E94643288E19EE00FB6F894BB
:1054B000A895809360000FBE90936000FFCF81E0BD
:1054C0008093B4071DCF81FF7CCF17961C9217974E
:1054D00078CF81110C94373260E170E080E090E089
:1054E0000E94140481E0011106C0882379F01F5F37
:1054F000133008F010E007E025E04FE760E08BEAAA
:1055000097E00E942D0F812F0E94140F00E08F2D35
:105510008BCFED91FC9111970484F585E02DCD01A1
:10552000099561E08BEA97E00E948A0D60E08BEAC2
:1055300097E00E94960DE0919C07F0919D0787816E
:1055400081111CC188E50E94280F80919C079091D1
:105550009D0721E032E0FC01348323830190F08138
:10556000E02D0084F185E02D09958C0180919C0748
:1055700090919D07DC01ED91FC910284F385E02D73
:10558000099520919B01E0919C07F0919D0737813F
:105590003093900790930A07809309072093080798
:1055A000109307070093060784B7877F84BF0FB661
:1055B000F894A895809160008861809360001092B3
:1055C00060000FBE80E830E020E00FB6F8948093D2
:1055D0006100209361000FBE8091D8008F7E809380
:1055E000D8008091D70081608093D70084E082BF8B
:1055F00081E0809305078091D8008E7F8093D8004A
:105600001092E2001092DA001092E1008091D8002E
:105610008F778093D8008091D80080688093D800DD
:105620008091D8008F7D8093D80019BC109291078B
:1056300010920407109203078091E0008B7F809303
:10564000E0008091D80081608093D80042E360E060
:1056500080E00E94141D8091E1008E7F8093E10024
:105660008091E20081608093E2008091E200886096
:105670008093E2008091E0008E7F8093E000809133
:10568000D80080618093D80078940E94EF03009145
:105690009E0710919F072091A0073091A107AB01B1
:1056A000BC01401B510B620B730B80919C019091CC
:1056B0009D01B0E0A0E0C12C481759076A077B079D
:1056C000B0F080919C0790919D07DC01ED91FC91D9
:1056D0000280F381E02D0995C82E0E94EF036093AC
:1056E0009E0770939F078093A0079093A107D12CEA
:1056F00080919B01D81608F01CC680919C07909160
:105700009D07DC01ED91FC910680F781E02D6D2D68
:10571000099500919C0710919D07ED2CF12CF80143
:105720008781843009F487C108F037C0882309F4E1
:1057300069C093E1813009F400C298E0833009F038
:10574000B8C18FE08E9DF0018F9DF00D1124E00F08
:10575000F11FE089EF70E150EA3008F0A9C3F0E0F2
:10576000EC54F44D0C94CD32E32E502F582F542F7F
:10577000562F522F582F4C2F482F4E2F813011F477
:1057800083E5E1CE823011F488E4DDCE83508430AD
:1057900010F48DE4D8CE85E4D6CE853009F469C105
:1057A00095E0863009F0C9CF8FE08E9DF0018F9D86
:1057B000F00D1124E00FF11F21893289A9014170F8
:1057C000552782E021FF80E0842B22FF67C424E07C
:1057D000822B80930B078FE08E9DF0018F9DF00D43
:1057E0001124E00FF11F2589368930930D0720938E
:1057F0000C072789308D30930F0720930E072BE07D
:1058000037E08EC094E18FE08E9DF0018F9DF00D0A
:105810001124E00FF11F2089822F817032E021FFD7
:1058200030E0832B34E022FF30E0832B23FF6FC175
:1058300028E0822B2FE02E9DF0012F9DF00D1124EA
:10584000E00FF11F2189328940E131FF40E0842BD4
:1058500040E230FF40E0842B40E432FF40E0842B04
:1058600040E833FF40E0842B80935701A901E4E036
:1058700056954795EA95E1F7417082E025FF80E073
:10588000842B44E034FF40E0842B40E120FF40E0E3
:10589000842B40E221FF40E0842B40E422FF40E0E3
:1058A000842B40E823FF40E0842B809358018FE055
:1058B0008E9DF0018F9DF00D1124E00FF11F4589A1
:1058C0005689505850935C0140935B014FEF5FE75E
:1058D0006789708DDA01A61BB70BB0935E01A093A8
:1058E0005D01618D728D70587093600160935F01EE
:1058F000638D748D461B570B509362014093610179
:10590000D801AE0DBF1D9E968C91882309F401C16C
:10591000858D80935901868D80935A0125E531E06C
:105920003093940720939307909392078091910767
:10593000843009F074C082E08093E9008091E8002F
:1059400082FF2AC08091E80085FF21C080919007E6
:105950008111C2C40E94C61C811108C050E040E001
:1059600068E070E0CE0101960E943D268981811198
:105970000EC08A81883059F4F701EE0FFF1FEE0F39
:10598000FF1FE00FF11F8C8185AB8D8187AB80916C
:10599000E8008B778093E800870186E0000F111FF5
:1059A0008A95E1F7005F184F4091920750E06091AF
:1059B000930770919407C8010E94FD33892B79F1F8
:1059C00080919007853009F094C481E08093E900CC
:1059D0008091E80080FF23C0E0909207A090930799
:1059E000B09094070E94C61CF12C882309F494C43B
:1059F0008091E8008E778093E800E0909207F12C88
:105A0000A0909307B0909407A701B501C8010E9428
:105A10000A34A70170E060E0C5010E9413340E94BF
:105A20006822E0919C07F0919D078781882309F403
:105A300080C4D3945DCE97E08FE08E9DF0018F9D62
:105A4000F00D1124E00FF11FE089EF70E150EA3012
:105A500008F09BC2F0E0E15DF24D0C94CD325A2F7C
:105A6000BD2FC52FC12FC32FBF2FC52FB92FB52FC6
:105A7000BB2F94E0DD2019F093E0D11002C381E048
:105A800080938B01D8015096EC91EF70E150EA3091
:105A900008F0F2C2F0E0E15BF24D0C94CD32C72F7A
:105AA00034303C3038303A3036303C3030302C30C6
:105AB0003230843018F5882309F4A5CE813009F4FA
:105AC0003CC08FE08E9DF0018F9DF00D1124E00F02
:105AD000F11FE089EF70E150EA3008F0F8C3F0E020
