:100000000C9459030C9481030C9481030C94810388
:100010000C9481030C9481030C9481030C94810350
:100020000C9481030C9481030C942C280C94810370
:100030000C9481030C9481030C9481030C94810330
:100040000C9481030C9481030C9481030C94810320
:100050000C9481030C9481030C9481030C94E2278B
:100060000C9481030C9481030C9481030C94810300
:100070000C9481030C9481030C9481030C948103F0
:100080000C9481030C9481030C9481030C948103E0
:100090000C9481030C9481030C9481030C948103D0
:1000A0000C9481030C9481030C948103AED580A839
:1000B0003FD300408D142002A1C8DA12817FD9F10C
:1000C000DB40A4A6AF1201000200000040D0167E63
:1000D0001200010102030112010002000000400DA4
:1000E0000F920000010102030112010002FFFFFF55
:1000F000405E048E021401010203010904000001A4
:1001000003000000092111010001224600070581BA
:10011000034000010902220001010080320902228D
:100120000001010080320904000001030000000901
:10013000211101000122510007058103400001093E
:1001400004000001030000000921110100012256F2
:100150000007058103400001090229000101008018
:10016000FA09211101000122460005010905A1013A
:10017000150025013500450175019518050919017E
:100180002918810205012507463B01750495016583
:10019000140939814265009501810126FF0046FF5F
:1001A000000930093109350936750895048102C006
:1001B00005010905A10105091901290315002501FA
:1001C0007501950355006500810275019505810350
:1001D00005010901150026FF0375109502A100090C
:1001E0003009318102C0C005010905A1018501A1C5
:1001F0000005091901290C150025019510750181CB
:100200000205010939150025073500463B0175082F
:10021000950165148142C0C005010902A101850252
:100220000901A100093009311581257F3581457FFC
:10023000950275088106C0C005010904A101A1004D
:100240000509190129101500250195107501810274
:1002500005010901A100093009311580257F9502AA
:1002600075088102C009371580257F9501750881C1
:10027000060938150026FF00950175088102093925
:10028000150025073500463B017508950165148169
:1002900042C0C005010905A1011500250135004531
:1002A000017501950E05091901290E81029502813A
:1002B0000105012507463B017504950165140939BF
:1002C000814265009501810126FF0046FF0009304B
:1002D000093275089502810205027508950315001B
:1002E00026FF0009BB09C509C88102C0050109052F
:1002F000A10115002501350045017501951005097D
:1003000019012910810205012507463B0175049555
:100310000165140939814265009501810126FF00BC
:1003200046FF000930093109320935750895048105
:10033000020600FF092009210922092309240925B1
:100340000926092709280929092A092B950C810260
:100350000A21269508B102C056424F59004E545406
:1003600000534E4553004E4553004D554C54492DB6
:10037000544150005043452D36005043452D320026
:100380004D554C54492D54415000504144004E2F7E
:1003900041004E4F4E450053574954434800455283
:1003A000524F52004849440058494E505554004756
:1003B000414D4543554245004E3634204D4F524540
:1003C0002052414E4745004E454F2D47454F005066
:1003D000432D454E47494E45004E45532B534E4500
:1003E000532B56424F5900000000002300260029DD
:1003F000002C002F0000000000250028002B002EFC
:1004000000310000000000240027002A002D0030E9
:1004100000040404040403040502020202040302AB
:10042000020202060606060606040402020204048C
:1004300004080201104080401020408040800802E3
:100440000401804020100201108010204040200054
:10045000030C0F30333C3FC0C3CCCFF0F3FCFF4460
:1004600045564943452057494C4C20524553544129
:100470005254004D4F44453A2000534156454421C3
:100480000A00484F4C443A2020534156450A005038
:10049000524553533A204348414E4745004F555427
:1004A000505554204D4F44450A005245464C45583E
:1004B00000000005072061000000000000005F0050
:1004C000006070787060605048506003070F070349
:1004D0000305090503081C3E7F7F081C22417F7F1E
:1004E0007F3E1C087F41221C08082A1C2A08080895
:1004F0003E08080050300000080808080800606046
:10050000000020100804023E5149453E00427F4051
:100510000042615149462141454B311814127F1068
:1005200027454545393C4A4949300171090503369B
:1005300049494936064949291E00363600003C7EA5
:100540007E7E3C3C4242423C1414141414F0F0F001
:10055000F0F0F0909090F0324979413E7E11111107
:100560007E7F494949363E414141227F4141221C1B
:100570007F494949417F090901013E414151327F8B
:100580000808087F00417F41002040413F017F086B
:100590001422417F404040407F0204027F7F0408D4
:1005A000107F3E4141413E7F090909063E415121EC
:1005B0005E7F09192946464949493101017F0101F8
:1005C0003F4040403F1F2040201F7F2018207F6376
:1005D000140814630304780403615149454300007F
:1005E0007F4141020408102041417F0000383C1E39
:1005F0000F0740404040403824120907205454540B
:10060000787F484444383844444420384444487F40
:100610003854545418087E090102081454543C7F7D
:100620000804047800447D40002040443D00007FE1
:1006300010284400417F40007C041804787C0804A2
:10064000047838444444387C1414140808141418EA
:100650007C7C080404084854545420043F4440203F
:100660003C4040207C1C2040201C3C4030403C440E
:10067000281028440C5050503C4464544C44E0E052
:10068000E0E0E000007F0000E0A0A0A0E008082A71
:100690001C08081C2A08080006090906AC00198075
:1006A00040005245424F4F54494E472E2E2E0000D7
:1006B000A23311241FBECFEFDAE0DEBFCDBF15E0BD
:1006C000A0E0B1E0E4EFFAE602C005900D92A43E8E
:1006D000B107D9F728E0A4EEB5E001C01D92AD3412
:1006E000B207E1F713E0C9E5D3E004C02197FE01AA
:1006F0000E942B34C835D107C9F70E940E290C94EB
:1007000078350C940000CF93DF93EC0182E995E0FB
:10071000998388831A8280E093E09C838B8380E0B6
:100720009CE09E838D831F82188681E089878EE1FD
:10073000E3EAF1E0DE01509601900D928A95E1F72F
:100740001FA61EA619AA18AA1BAA1AAAFE01F49689
:1007500088E0DF011D928A95E9F71CAE1DAE1FAE41
:100760001EAE3C961182108232968FEF9FE79183E6
:1007700080833296918380833296918380833296F0
:100780009183808332961082C55BDF4F1882DF91A0
:10079000CF9108953FB7F894809133089091340831
:1007A000A0913508B091360826B5A89B05C02F3F0B
:1007B00019F00196A11DB11D3FBFBA2FA92F982F87
:1007C0008827BC01CD01620F711D811D911D42E082
:1007D000660F771F881F991F4A95D1F708958F924A
:1007E0009F92AF92BF92CF92DF92EF92FF924B0116
:1007F0005C010E94CA036B017C010E94CA036C1950
:100800007D098E099F09683E734081059105A8F313
:1008100021E0821A9108A108B10888EEC80E83E091
:10082000D81EE11CF11C81149104A104B10429F724
:10083000FF90EF90DF90CF90BF90AF909F908F9000
:100840000895AF92BF92CF92DF92EF92FF920F93F3
:100850001F93CF93DF936C017B018B01040F151F56
:10086000EB015E01AE18BF08C017D10759F06991BE
:10087000D601ED91FC910190F081E02DC601099522
:10088000892B79F7C501DF91CF911F910F91FF90CF
:10089000EF90DF90CF90BF90AF900895CF93DF930C
:1008A000EC018A85882329F081508A87DF91CF91D6
:1008B00008959C818E819817C8F78D856827E881F7
:1008C000F9810084F185E02D42E0CE0109958C810B
:1008D0008F5F8C83EBCFEF920F931F93F901DA01B7
:1008E0002C913E2D309532233C9330813E2930832C
:1008F000FC01D80198E080E030E020E04C914E21EE
:1009000089F02A95D9F720E04C914E2159F02A958B
:10091000D9F720E84C914E2129F02A95D9F73A953C
:1009200061F717C047E04A95F1F7000031E0550F35
:100930004C914E2109F051609A9529F45193839579
:1009400098E0681731F020E84C914E2111F72A9574
:10095000D9F71F910F91EF9008950F931F93F9010D
:100960002081202B2083DA012C91202B2C932081B5
:100970004081202B30E010E00095109550E00423DA
:100980001523DC015D9148E00083550F40F474E0CD
:100990007A95F1F720837AE07A95F1F705C07EE049
:1009A0007A95F1F7000020834A9529F073E07A9553
:1009B000F1F70000E9CF6A9529F071E07A95F1F737
:1009C0000000E0CF72E07A95F1F7000000000083AC
:1009D00074E07A95F1F70000000020831F910F91D9
:1009E00008957F928F929F92AF92BF92CF92DF92A3
:1009F000EF92FF920F931F93CF93DF93DB01642F4E
:100A00005901F02E282F30E0F901E05DFB4FE49012
:100A10002F5E3B4FF901249130E0220F331FF90183
:100A2000ED5FFB4FC591D491F901EB50FC4FC590A0
:100A3000D490F901E951FC4F859094907FB6F894D9
:100A40000E2D9601AE01CD010E94AD0484019601E8
:100A5000AE016F2DC5010E946B047FBEDF91CF9167
:100A60001F910F91FF90EF90DF90CF90BF90AF90CC
:100A70009F908F907F900895CF93DF93FC018781A3
:100A80002FEF3FE7813011F420E830E8462F50E0A7
:100A9000DF018FE0689FA00DB11D112450969C913D
:100AA0006185892F8370823021F1833029F0813074
:100AB00021F580938E071BC0611111C081E08093E6
:100AC0008E079C70983009F457C09C30D1F0943058
:100AD00009F055C0846093E090938D071CC062308C
:100AE00061F480918E07882341F0813021F081E00C
:100AF000E8CF80938E0782E0E4CF10928E0780E0EB
:100B0000E0CF6230E1F590918D079923C1F19330E8
:100B100089F194E0892B9FE0949FD001959FB00DBF
:100B20001124AE0FBF1F50968C9350978085EF0114
:100B3000C40FD51F813031F1823009F46CC088A90F
:100B4000811108C056963C932E93559758963C9326
:100B50002E9357978AA9811155C06FE0649FC001F9
:100B6000659F900D1124E80FF91F328F218F348F6C
:100B7000238F48C098E0CECF886094E0ADCF10922C
:100B80008D07C9CF8AA9811108C05A963C932E932C
:100B900059975C963C932E935B978FE0849FD0018E
:100BA000859FB00D1124AE0FBF1F50968C918C7095
:100BB000843071F1883049F58FEF9FEF2FE0249F4B
:100BC000D001259FB00D1124AE0FBF1F56969C93E8
:100BD0008E93559750968C91837030E020E0813051
:100BE00031F02FEF3FEF823011F02FEF3FE76FE052
:100BF000649FC001659F900D1124E80FF91F308F8D
:100C0000278B108ADF91CF9108958FEF9FE7D6CF82
:100C100090E080E0D3CF88A9811108C056963C931C
:100C20002E93559758963C932E9357978FE0849F19
:100C3000D001859FB00D1124AE0FBF1F50968C912F
:100C40008C70843059F1883031F58FEF9FEF2FE0B1
:100C5000249FD001259FB00D1124AE0FBF1F5A96BF
:100C60009C938E93599750968C91837030E020E03E
:100C7000813031F02FEF3FEF823011F02FEF3FE75F
:100C80006FE0649FC001659F900D1124E80FF91F6C
:100C9000348F238FB6CF8FEF9FE7D9CF90E080E0DE
:100CA000D6CFCF93DF93DC0113962D913C9114970F
:100CB000C62FD0E0FC018FE0689FE00DF11D1124EC
:100CC00061897289C901862397232817390709F09A
:100CD0004BC080898F70823071F128F48130C9F166
:100CE00090E080E021C0843089F08830C9F782E04C
:100CF00018968C93108A20953095818992892823A3
:100D00003923328B218B84E090E00EC081E018966D
:100D10008C93108A209530958189928928233923D4
:100D2000328B218B82E090E090938C0780938B072D
:100D3000DF91CF91089518961C92108A20953095D6
:100D40008189928928233923328B218B81E090E09D
:100D5000EBCF108A20953095262337233061328BD4
:100D6000218B88E090E0E0CF15964D915C9116972D
:100D7000642375234617570709F0B2CF80898F7017
:100D8000823009F440C088F4813009F0A9CF199667
:100D90001C92108A40955095818992894823592345
:100DA000528B418B80E290E0BFCF8430D9F1883004
:100DB00009F096CF80918B0790918C078115924016
:100DC00041F01B968C911B9791E089271B968C9381
:100DD0001B972FE02C9FC0012D9F900D1124A80F71
:100DE000B91F50961C9250974095509551968D91F1
:100DF0009C9152974823592352965C934E93519756
:100E000080E092E091CF81E019968C93108A409512
:100E100050958189928948235923528B418B80E4D4
:100E200090E082CF82E019968C93108A409550957D
:100E30008189928948235923528B418B80E890E025
:100E400073CF84E98093BC0085E69091BC0094FF49
:100E500003C08150D1F7089581E00895EF92FF9289
:100E60000F931F93CF93FC018581828786819781A1
:100E7000948783878085918596878587C381138230
:100E80002C9A8BE290E00197F1F72C9883E190E0A7
:100E90000197F1F730E020E090E080E043E150E09E
:100EA000ACB1A6FB662760F970E0DB01022E02C040
:100EB000AA0FBB1F0A94E2F78A2B9B2B2D98DA010D
:100EC0001197F1F72D9ADA011197F1F72F5F3F4F44
:100ED0002031310529F7492F42954F7051E04D30AF
:100EE00009F450E170E060E030E020E0A3E1EA2E98
:100EF000F12CACB1A6FB002700F910E0D801062EBA
:100F000002C0AA0FBB1F0A94E2F72A2B3B2B2D9895
:100F1000D7011197F1F72D9AD7011197F1F76F5F6C
:100F20007F4F651730F380959095209530954F3021
:100F300029F42E3F5FEF350709F442C0538161E089
:100F4000650F638361E070E0511102C070E060E002
:100F5000411113C0A92FBB27AF70BB271F9769F49E
:100F60004AE0469FD001479FB00D1124AE0FBF1F2E
:100F70004FE015964C93159713C0542F509552FF80
:100F800045C02AE0269FD001279FB00D1124AE0F47
:100F9000BF1F24E015962C9315975370252F30E032
:100FA00019963C932E9318972AE0269FD001279FED
:100FB000B00D1124AE0FBF1F17969C938E931697FA
:100FC00083818C17E8F44AE09FEF21E030E0811143
:100FD00002C030E020E0429FD001439FB00D1124B9
:100FE000AE0FBF1F15969C93159717961C921E92D5
:100FF000169719961C921E9218978F5FC813E5CF0B
:10100000CF911F910F91FF90EF9008955AE0569F56
:10101000D001579FB00D1124AE0FBF1F5FE04527D1
:10102000A8CF809121088F5F863018F48093210823
:10103000089581E0FBCF089588E091E008958AE962
:1010400095E00895CF93DF93EC0165E070E080E0D8
:1010500090E00E94EF0382E080939A0181E088ABE8
:1010600089AB62E370E080E090E0DF91CF910C9477
:10107000EF0387E091E0089581EA95E00895CF932A
:10108000DF93CDB7DEB72E970FB6F894DEBF0FBE55
:10109000CDBFFC0197E0DE01189601900D929A9564
:1010A000E1F787E0FE013896DE01119601900D927E
:1010B0008A95E1F729813A814B815C816D817E813E
:1010C0008F8190E02E960FB6F894DEBF0FBECDBF95
:1010D000DF91CF910895EF92FF920F93CF93DF931B
:1010E0001F92CDB7DEB77C01FC018589198203E030
:1010F000970141E0BE016F5F7F4F0E94F104F7014D
:10110000833029F010821182128290E016C0808113
:10111000918188309042C9F0F701858991E49983E3
:1011200097012D5F3F4F0AE041E0BE016F5F7F4FA7
:101130000E94F10491E08A3041F7892F0F90DF91EE
:10114000CF910F91FF90EF90089591E0F6CF1F930C
:10115000CF93DF93EC0165E070E080E090E00E94C7
:10116000EF0382E080939A01FE01EC56FF4F8081ED
:1011700091810E946B0811E018AB1AABFE01EA5690
:10118000FF4F808191810E946B0819AB1BAB62E31A
:1011900070E080E090E0DF91CF911F910C94EF031D
:1011A000EF92FF920F93CF93DF9300D01F92CDB7B2
:1011B000DEB77C01FC0180819181892BC9F0970108
:1011C000235F3F4FF701858940815181483050426C
:1011D00019F594E599831A821B8208E043E0BE0169
:1011E0006F5F7F4F0E94F104883081F481E005C079
:1011F000C7010E946B088111E2CF0F900F900F90F2
:10120000DF91CF910F91FF90EF900895F701108239
:101210001182128280E0F1CFF701928193FB99272E
:1012200090F940E4498343E04A839B8308E0D7CFA9
:1012300021982998299A3E984698469A3F98479827
:10124000479A57985F985F9A22982A982A9A6E9898
:101250007698769A54985C985C9A24982C982C9A54
:1012600025982D982D9A23982B982B9A10929C01B3
:1012700010929B0164E170E080E090E00C94EF0339
:1012800084E091E0089588EA95E008953E9A4698B2
:10129000549A5C9825982D982D9A24982C982C9ADD
:1012A0006E987698769A57985F985F9AFC01EC56FC
:1012B000FF4F17823896AC0146545F4F2FEF3FEF38
:1012C0001082328321831382358324833696E41778
:1012D000F507B1F7239A2B98229A2A9885988D982A
:1012E0008D9A86988E988E9A87988F988F9A219843
:1012F0002998299A1782FC01EE53FF4F80529F4F85
:101300002FEF3FEF108232832183138235832483B2
:1013100036968E179F07B1F783E290E00197F1F7B9
:1013200082E080939A0162E370E080E090E00C94A8
:10133000EF0383E091E0089582EB95E00895DC01EE
:1013400016961C92169717961C9217978EE1E1EC51
:10135000F1E0189601900D928A95E1F708958E5468
:101360009F4FFC018081811103C081E091E00895CD
:1013700082E091E008958E549F4FFC01808181119D
:1013800003C081EC95E0089589EB95E00895FC0198
:101390009081911106C083819481019699F080E03B
:1013A00008959F3049F4228130E02F7033272F3089
:1013B000310561F482E00895923031F0943031F4D7
:1013C00085E0089583E0089584E0089581E008951C
:1013D000AF92BF92CF92DF92EF92FF920F931F9343
:1013E000CF93DF93FC01E856FF4F1082249A2C988C
:1013F000259A2D9A6E987698769ADC01A955BF4F5A
:101400001C92869A8E98859A8D9A87988F988F9A33
:10141000A3E2B0E01197F1F7208121114BC0EC015C
:1014200082E080939A017E0184E9E80EF11CC701F5
:101430000E942E07FE01E956FF4F008110E0670170
:1014400085E0C80ED11CCE54DF4F3AE0A32EBB245A
:10145000BA941017C1F1111108C0C6010E94C70942
:1014600091E0853009F090E0988381E090E01111DF
:1014700002C090E080E0A89EF001A99EF00D11242A
:10148000EE0DFF1DB5821782168211861086019619
:10149000A89ED001A99EB00D1124AE0DBF1DBC9217
:1014A00086819781948783878085918596878587B4
:1014B0001F5FCFCF82E080939A0188EE93E09093F4
:1014C0009C0180939B0180919B0190919C018230B3
:1014D000910538F0880F991F880F991F059701977C
:1014E000F1F7DF91CF911F910F91FF90EF90DF9077
:1014F000CF90BF90AF900895FC016093BC002FEF98
:101500003FEF8091BC0087FF06C09091B900987FA3
:10151000908381E008952150310999F780E0089582
:10152000CF93DF93EC016093BB0064E80E947C0AD8
:10153000882329F081E09881983209F080E0DF91DA
:10154000CF910895DF92EF92FF920F931F93CF9365
:10155000DF93EC01D62EF42E8989882329F04111DE
:1015600003C00E942107198A8E01015F1F4F8989DC
:10157000811119C0E88864EAC8010E947C0A8823A6
:1015800061F08F85883011F0803139F4EE0CE092F3
:10159000BB0064E8C8010E947C0A60E0F11060E4CE
:1015A000C8010E94900A6D2DC8010E94900A82E035
:1015B000F8120BC089898F5F898BDF91CF911F91C2
:1015C0000F91FF90EF90DF9008950E942107198AF4
:1015D000F4CFDC01ED91FC910084F185E02D40E039
:1015E0000994FC012781269526952695621720F4FB
:1015F0006583606B0C94E90A08950F931F93CF9352
:10160000FC012681621798F4C62F8C0164836085E3
:10161000C60F6C2F6F700E94E90A6C2F62956F7075
:101620006061C801CF911F910F910C94E90ACF918D
:101630001F910F9108951F93CF93DF93EC01142F07
:101640000E94FD0A612FCE01DF91CF911F910C9472
:10165000F10A2F923F924F925F926F927F928F92F8
:101660009F92AF92BF92CF92DF92EF92FF920F9331
:101670001F93CF93DF9300D000D000D0CDB7DEB75B
:10168000FC01238534852115310509F416C19E839B
:101690008D83F9013296649031964491E42EF12CB9
:1016A000F7E0EF0EF11C53E0F594E7945A95E1F75B
:1016B000E982F901349654913196E4916D30F1F458
:1016C00060E00E94FD0A81E090E026960FB6F89453
:1016D000DEBF0FBECDBFDF91CF911F910F91FF9065
:1016E000EF90DF90CF90BF90AF909F908F907F90C2
:1016F0006F905F904F903F902F9008956A3081F4E3
:1017000060E08D819E810E94FD0AED81FE818685CB
:1017100065818E9D600D1124CF010E94F10AD3CF07
:10172000651708F4CAC08E2F90E0FC01E50FF11D8B
:101730006E171F060CF0C1C089010A5F1F4F651BA1
:10174000ED81FE8171855685759F502D11245C8336
:10175000F90154912F5F3F4FF9012491352F223029
:10176000310508F06AC06E9CC0016F9C900D112479
:10177000689FF001699FF00D11240E0F1F1F512C5F
:10178000ED81FE81F481FA83ED81FE812580F28571
:10179000FB83862C912CAA24A394B12C312C898113
:1017A000381608F086C0412CED81FE8186854816EA
:1017B00008F078C08B818287311002C0442041F04C
:1017C000ED81FE8145814F5F6A81CF010E941B0B35
:1017D000D12CC12CC61408F058C0F801EC0DFD1D29
:1017E0007490552061F0EA14FB0449F4E72DF0E011
:1017F000052C02C0F595E7950A94E2F77E2EED815F
:10180000FE818685823081F4442009F43AC07294C6
:101810008FE07822E72DF0E0E15BFB4F7490672DBD
:101820008D819E810E944E04672D8D819E810E9434
:101830004E048FEFC81AD80ACDCF477028E0522E39
:10184000541A411101C0512CF801612C30E020E004
:10185000661631F04491240F311D63943196F8CF10
:10186000600E712E711CF3016490E29EF001E39E04
:10187000F00DF29EF00D11248E0F9F1F080F191FFF
:101880007FCFF72DFF707F2EC5CFD12CEC81DE16D8
:1018900039F060E08D819E810E944E04D394F6CF92
:1018A000439482CF3394080D191DFFEFAF1ABF0A7E
:1018B00076CF622D8D819E8130CF90E080E005CF84
:1018C0000F931F93CF93DF938C01D0E0C0E0F8011A
:1018D000EC0FFD1F6491662341F087E398E00E94BE
:1018E000290B892B11F02196F2CFCE01DF91CF91F8
:1018F0001F910F910895811104C088EA93E00C9420
:10190000600C813019F487E993E0F9CF825085307B
:1019100018F484EA93E0F3CF8EE993E0F0CF682FD8
:1019200087E398E00C94290BCF92DF92EF92FF921D
:101930000F931F93CF93DF93EC01F62EC42ED22E7C
:101940001A868F81869586958695081710F00FEF79
:10195000080F1D2D011780F0412F6F2DCE010E9421
:101960001B0BEF2CCE1430F06D85CE010E944E047F
:10197000E394F8CF1F5FEECF4D2D6F2DCE01DF9199
:10198000CF911F910F91FF90EF90DF90CF900C942B
:101990001B0B0F93FC0107810695069506950150D8
:1019A0004681415020E060E00E94940C0F91089520
:1019B0004F925F926F927F928F92AF92CF92EF92FF
:1019C000FF920F931F93CF93DF93CDB7DEB727011D
:1019D000380194E0899F80011124F801EE59F84FF5
:1019E00080819181A281B3818E219521A621B72189
:1019F00031E0892B8A2B8B2B09F430E03C1103C09A
:101A000088898823F1F0C11001C0A82C2D5F640FD4
:101A1000422F87E398E00E941B0B8A2D0E948F0CB7
:101A2000F801EE59F84FCC20D1F080819181A2814C
:101A3000B38184299529A629B72980839183A2831C
:101A4000B383DF91CF911F910F91FF90EF90CF90D3
:101A5000AF908F907F906F905F904F9008954094DB
:101A600050946094709480819181A281B38184218B
:101A70009521A621B721E1CF6F927F928F929F92FD
:101A8000AF92BF92CF92DF92EF92FF920F931F938C
:101A9000CF93DF933C01D62EC42FE62FF0E0EE0F5C
:101AA000FF1FEE5DFA4FB08007E023E041816B2D10
:101AB00087E398E00E94940C47E06B2D87E398E061
:101AC0000E941B0BC13091F58AE893E00E94600CE4
:101AD00081E08D15E0F0E301C656DF4F8AEF680E16
:101AE000711C99249394E880F9800A811B819F924C
:101AF0008F80AE80CC24C3942C814D816B2D8D2D95
:101B00000E94D80C28960F90C615D70561F7DF9173
:101B1000CF911F910F91FF90EF90DF90CF90BF90EA
:101B2000AF909F908F907F906F90089582E993E09F
:101B3000DF91CF911F910F91FF90EF90DF90CF90A9
:101B4000BF90AF909F908F907F906F900C94600C9F
:101B50006F927F928F929F92AF92BF92CF92DF92BD
:101B6000EF92FF920F931F93CF93DF933C01D62EFA
:101B7000C42FE62FF0E0EE0FFF1FEE5DFA4FB080AE
:101B800007E023E041816B2D87E398E00E94940CED
:101B900047E06B2D87E398E00E941B0BC13091F565
:101BA0008AE893E00E94600C81E08D15E0F0E3018B
:101BB000C256DF4F82EF681A8EEF780A9924939409
:101BC000E880F9800A811B819F928F80AE80C12CB2
:101BD0002C814D816B2D8D2D0E94D80C28960F9055
:101BE000C615D70569F7DF91CF911F910F91FF902F
:101BF000EF90DF90CF90BF90AF909F908F907F90AD
:101C00006F90089582E993E0DF91CF911F910F913A
:101C1000FF90EF90DF90CF90BF90AF909F908F900C
:101C20007F906F900C94600C2F923F924F925F9236
:101C30006F927F928F92AF92CF92DF92EF92FF924C
:101C40000F931F93CF93DF93CDB7DEB760970FB697
:101C5000F894DEBF0FBECDBF3C01809152018823B6
:101C6000C1F11092520107E023E04CE360E087E30A
:101C700098E00E94940C47E060E087E398E00E94BF
:101C80001B0B13010EE9200E311C23011EEE410E29
:101C9000511CDD24D394D101ED90FD900D911C9148
:101CA0001397DF9217968C9017971696AC9016970D
:101CB000C12C14962C91149715964C9163E280E0F8
:101CC0000E94D80CB8E02B0E311C0F904214530424
:101CD00011F763B133B173B1E9B15CB193B149B1FB
:101CE00086B126B1F3B163FB662760F9660F688B96
:101CF0001F8635FB332730F93A8319820F851889FF
:101D0000A981BA810A2B1B2BF695F170FB831C82EB
:101D1000AB81BC810A2B1B2B729571707D831E8257
:101D20006D817E817695762F662777956795062B50
:101D3000172BE295E170EF8318866F817885E6E0D6
:101D4000660F771FEA95E1F7062B172B56FB5527F1
:101D500050F959871A8669857A85F5E0660F771FED
:101D6000FA95E1F7062B172B92FB992790F99B87A1
:101D70001C866B857C85A4E0660F771FAA95E1F72A
:101D8000062B172B042E000C550B4427550F441F10
:101D9000552793E0440F551F9A95E1F7042B152B17
:101DA000082E000C990B8827990F881F9927880FF8
:101DB000991F880F991F082B192B26FB222720F922
:101DC0002D871E868D859E85880F991F082B192BC0
:101DD0001A830983809150019091510180179107D6
:101DE00009F4ACC010935101009350019801209563
:101DF00030952170332780E001FF82E0822BB9818A
:101E000090E0B2FF94E0892BE98190E0E3FF98E055
:101E1000892BD30150968C9389819A8124E09695E1
:101E200087952A95E1F7B1E08B279C012170332734
:101E3000E98190E080E0E5FD02C082E090E0822B45
:101E4000932BF98130E020E0F6FD02C024E030E081
:101E5000822B932B098130E020E007FD02C028E0AF
:101E600030E0822B932B29813A8130FF64C030E02F
:101E700020E0822B932B49815A8130E020E051FDF4
:101E800002C020E032E0822B932BD30152969C9328
:101E90008E935197BEE96B0E711C312C212C44247A
:101EA0004394512CC201022C02C0880F991F0A943E
:101EB000E2F7E981FA818E239F23CC24C394892BF6
:101EC00009F0C12CD301ED90FD900D911C91139759
:101ED0001F9217968C9017971696AC90169714969B
:101EE0002C91149715964C9163E280E00E94D80CD7
:101EF000BFEF2B1A3B0AE8E06E0E711C0F90FAE060
:101F00002F16310479F681E060960FB6F894DEBFA3
:101F10000FBECDBFDF91CF911F910F91FF90EF903A
:101F2000DF90CF90AF908F907F906F905F904F90A9
:101F30003F902F90089520E031E09BCF80E0E4CFE8
:101F40003F924F925F926F927F928F929F92AF9249
:101F5000BF92CF92DF92EF92FF920F931F93CF9396
:101F6000DF93B62E942E2901302EEC01C052DF4FA4
:101F7000D12C662E712C660C771CC3018E5D9A4F96
:101F80003C0192E0991203C0E7E0ED15E8F0E8802B
:101F9000F9800A811B812C814D81AE808F8081E088
:101FA0004114510449F0F201618172816E217F2157
:101FB00081E0672B09F080E03F92C82EF301608139
:101FC0008B2D0E94D80C0F90D3942896FCE0DF1242
:101FD000D8CFDF91CF911F910F91FF90EF90DF90BD
:101FE000CF90BF90AF909F908F907F906F905F90B9
:101FF0004F903F900895EF92FF920F931F93CF93CE
:10200000DF937C01C62FD42FE62FF0E0EE0FFF1FE9
:10201000EE5DFA4F108107E023E04181612F87E3F5
:1020200098E00E94940C47E0612F87E398E00E94BB
:102030001B0BD23061F0D330F9F082E993E0DF91ED
:10204000CF911F910F91FF90EF900C94600C8AE755
:1020500093E00E94600CC23041F001E030E020E0EB
:102060004D2F6C2FC7010E94A00FDF91CF911F91C0
:102070000F91FF90EF90089584E793E0EACF6F927D
:102080007F928F929F92AF92BF92CF92DF92EF9208
:10209000FF920F931F93CF93DF93EC01D62E742EF4
:1020A000E62FF0E0EE0FFF1FEE5DFA4FB08007E085
:1020B00023E041816B2D87E398E00E94940C47E078
:1020C0006B2D87E398E00E941B0B83E0781619F1D3
:1020D0008715B8F0E2E086E693E07E16F1F082E93B
:1020E00093E0DF91CF911F910F91FF90EF90DF90E0
:1020F000CF90BF90AF909F908F907F906F900C94F7
:10210000600CF4E07F1609F442C085E07812E7CF56
:1021100088E593E002C081E693E00E94600CE2E073
:10212000DE1631F1FE01EE54FF4F8081882391F1DC
:102130003E01FDEC6F1AFEEF7F0ACD55DE4F99246C
:102140009394F301E080F180028113819F92878054
:10215000A680CC24C394248145816B2D8D2D0E94B3
:10216000D80CF8E06F0E711C0F906C167D0649F7C5
:10217000DF91CF911F910F91FF90EF90DF90CF9063
:10218000BF90AF909F908F907F906F9008958DE556
:1021900093E0C3CFCD54DF4F612C9924939482E018
:1021A00078121FC0E7E0E615B0F0F3E0F615C8F0CE
:1021B000FE01E05AFF4FE080F180028113819F927F
:1021C0008780A680CC24C394248145816B2D8D2DDE
:1021D0000E94D80C0F90639428968CE06812DFCF91
:1021E000C7CFFE01E8CF0F9307E022E04FE760E0A2
:1021F00087E398E00E94940C80912108833029F1B4
:1022000030F4813081F08230C1F00F910895843034
:1022100021F18530D1F764E287E398E00E94FD0A5E
:102220008FEA93E007C06CE087E398E00E94FD0A24
:1022300089ED93E00F910C94600C64E287E398E0E1
:102240000E94FD0A8FEC93E0F5CF6AE287E398E005
:102250000E94FD0A87EC93E0EDCF66E087E398E00B
:102260000E94FD0A88EB93E0E5CF809399016EEA26
:1022700081116FEA87E398E00E94E90A2FB7F8948A
:1022800080912F0890913008A0913108B0913208C8
:102290002FBF8093220890932308A0932408B09323
:1022A0002508089590E080E00895CF93DF93CDB79F
:1022B000DEB72F970FB6F894DEBF0FBECDBF2091CB
:1022C0009A016217E0F42FE0FE013196DF01322F10
:1022D0001D923A95E9F74FEF5FE75F834E83598789
:1022E00048875B874A875D874C87DC01269FA00D66
:1022F000B11D1124509601900D922A95E1F72F9669
:102300000FB6F894DEBF0FBECDBFDF91CF91089519
:102310002F923F924F925F926F927F928F929F92F5
:10232000AF92BF92CF92DF92EF92FF920F931F93E3
:10233000CF93DF93CDB7DEB7C755D1090FB6F89469
:10234000DEBF0FBECDBF3C0180915301882339F021
:102350001092530140E060E0C3010E943C0D809167
:10236000890781116AC080918A07811166C08091B6
:102370008707811109C0F301EC56FF4F80819181DD
:102380000E94D008809387078093890780918807EF
:10239000811109C0F301EA56FF4F808191810E94AB
:1023A000D0088093880780938A0781E00E943511C6
:1023B00007E027E04FE760E087E398E00E94940C95
:1023C00067E087E398E00E94F10A60E087E398E025
:1023D0000E94FD0A8091890781110BC080918A07B4
:1023E000811103C082E993E002C08EE893E00E946D
:1023F000600C62E487E398E00E94FD0A90918907EF
:1024000080918A07992309F4A4C0811104C08EE841
:1024100093E00E94600C80918907882329F041E0B5
:1024200060E0C3010E943C0D80918A07882329F057
:1024300041E061E0C3010E943C0D21961FAE21974F
:1024400022961FAE2297512C10E5A12E13ECB12E2F
:1024500005E1402E88EC882E912C80919A01581627
:1024600008F08CC0052D10E0F801E757F84F808187
:10247000882309F46CC07801EE0CFF1CE60CF71CF5
:1024800024E9E20EF11CD7018D919C910E94D008A5
:10249000F801E957F84F6F01882309F45FC0D701AD
:1024A0002D913C9195E1F901DE019B9601900D92F1
:1024B0009A95E1F7409EA001419E500D1124E1E064
:1024C000F0E0EC0FFD1F4E0F5F1FBA96DA01942D5E
:1024D00001900D929A95E1F7DA014D915C91FF24FC
:1024E000F3944115510509F4F12CF30197819111F1
:1024F00019C041155105B1F0000F111F000F111F38
:10250000E00FF11F95A9911105C081E097A99111E4
:1025100001C080E0D90112969C91129780FB93F93B
:1025200012969C93F601808181110FC0452B69F0B2
:10253000652DC3010E94551190929C0180929B01D0
:1025400041E0652DC3010E943C0DD601FC925394DD
:1025500084CF81115ACF82E993E05BCF652DC3010F
:102560000E945511B0929C01A0929B0140E0652D04
:10257000C3010E943C0DF6011082E9CF23961FAEE5
:102580002397930128563F4F64963FAF2EAF649731
:10259000B30167567F4F66967FAF6EAF6697C301F4
:1025A00086509F4F68969FAF8EAF689780919A0133
:1025B00023969FAD2397981708F08AC3492E512C74
:1025C000F201E957F84F8081882309F44FC385E170
:1025D000849DF001859DF00D1124A1E0B0E0AC0FC9
:1025E000BD1FEA0FFB1F958586859C0129963FAF8D
:1025F0002EAF2997D201AA0FBB1FAD57B84F2D910F
:102600003C914785D201AF57B84F8C91082E000CF2
:10261000990B4817190611F55089D201A158B84FE6
:102620008C91082E000C990B58171906B9F4518992
:10263000D201A358B84F8C91082E000C990B581753
:10264000190661F45289F201E558F84F8081082E8D
:10265000000C990B5817190609F45CC3E0E4F0E08C
:10266000EC0FFD1FE40DF51D81E029966EAD7FADE9
:1026700029972617370709F480E08083F301E40DDA
:10268000F51D16A685E1849DD001859DB00D112410
:1026900081E090E08C0F9D1FA80FB91F1E969C91A2
:1026A00093FB222720F982E092FF80E0822B95E1C4
:1026B000949DD001959DB00D112421E030E02C0FA8
:1026C0003D1FA20FB31F1E969C9190FFD7C294E0AE
:1026D000892B95E1949DD001959DB00D112461E069
:1026E00070E06C0F7D1FA60FB71F1E969C9191FF87
:1026F000C7C298E02FE0249DD001259DB00D112484
:10270000A60DB71D892B50968C9385E1849DD00131
:10271000859DB00D112481E090E08C0F9D1FA80FC6
:10272000B91F1D968C9181FB992790F961969FAFF7
:10273000619762961FAE629722E030E080FD02C092
:1027400030E020E06296AEADBFAD62972A2B3B2B06
:1027500085E1849DD001859DB00D112461E070E07C
:102760006C0F7D1FA60FB71F1D968C9183FF8AC229
:1027700084E090E0822B932B25E1249DD001259DC0
:10278000B00D112421E030E02C0F3D1FA20FB31F2C
:102790001D962C9122FF79C228E030E0822B932BEA
:1027A00025E1249DD001259DB00D112461E070E04C
:1027B0006C0F7D1FA60FB71F53963C9160E470E02D
:1027C000333310F470E060E0862B972B25E1249DD5
:1027D000D001259DB00D112461E070E06C0F7D1FCC
:1027E000A60FB71F54962C9160E870E0233310F4C5
:1027F00070E060E0862B972B55E1549DD001559DEC
:10280000B00D112461E070E06C0F7D1FA60FB71FA3
:102810001E965C9160E071E054FD02C070E060E0E3
:10282000862B972B55E1549DD001559DB00D112459
:1028300061E070E06C0F7D1FA60FB71F1D965C91C5
:1028400060E072E054FD02C070E060E05FE0549D23
:10285000D001559DB00D1124A60DB71D862B972BC9
:1028600052969C938E935197D30117968C918823FF
:1028700031F090912608992391F1813081F5B1E0F2
:10288000B6A7303208F430E0203208F420E085E1C9
:10289000849DF001859DF00D112461E070E06C0FC6
:1028A0007D1FE60FF71F868586FD3FEF85E1849D3E
:1028B000F001859DF00D112481E090E08C0F9D1FAB
:1028C000E80FF91F868585FD2FEF8FE0849DF001CD
:1028D000859DF00D1124E60DF71D358F268F64962A
:1028E000AEADBFAD6497CC906696EEADFFAD66978A
:1028F00080814C1508F0CCC195E1949DF001959D27
:10290000F00D112421E030E02C0F3D1FE20FF31FEA
:10291000C78695E1949DF001959DF00D1124A1E0ED
:10292000B0E0AC0FBD1FEA0FFB1F90899C1508F0AB
:10293000C0C1C08A95E1949DF001959DF00D1124D0
:1029400021E030E02C0F3D1FE20FF31F91899C1511
:1029500008F0B4C1C18A95E1949DF001959DF00DF8
:10296000112461E070E06C0F7D1FE60FF71F928964
:102970009C1508F0A8C1C28A882E912CB12CA12CDC
:10298000D12CF12CE12C85E1849DF001859DF00D89
:10299000112481E090E08C0F9D1FE80FF91F9785AF
:1029A0002E969FAF2E97C501B4016C197D098E0933
:1029B0009F092D966CAF7DAF8EAF9FAF2D972E9652
:1029C0007FAD2E97272F30E050E040E02C193D09D5
:1029D0004E095F09AFEFB0E00E94EF332D962CADAA
:1029E0003DAD4EAD5FAD2D970E94D033822F27575E
:1029F000233108F480E8282F30E08FE0849DF00137
:102A0000859DF00D1124E60DF71D922F8827820F6A
:102A1000931F968B858B85E1849DF001859DF00D3C
:102A2000112481E090E08C0F9D1FE80FF91F908921
:102A30002F969FAF2F97C701B601681979098A09A8
:102A40009B0927966CAF7DAF8EAF9FAF27972F96D0
:102A50007FAD2F97272F30E050E040E0281939094B
:102A60004A095B09AFEFB0E00E94EF3327962CAD27
:102A70003DAD4EAD5FAD27970E94D033822F2757D3
:102A8000233108F480E8282F30E08FE0849DF001A6
:102A9000859DF00D1124E60DF71D922F8827820FDA
:102AA000931F908F878B85E1849DF001859DF00DAC
:102AB000112481E090E08C0F9D1FE80FF91F918990
:102AC00060969FAF6097292F30E050E040E02C19CE
:102AD0003D094E095F09AFEFB0E00E94EF332D963C
:102AE0002CAD3DAD4EAD5FAD2D970E94D033822F02
:102AF0002757233108F480E8282F30E08FE0849DA9
:102B0000F001859DF00D1124E60DF71D922F882709
:102B1000820F931F928F818F85E1849DF001859DA7
:102B2000F00D1124A1E0B0E0AC0FBD1FEA0FFB1FB8
:102B3000D2882D2D30E050E040E0281939094A09AB
:102B40005B09AFEFB0E00E94EF3327962CAD3DADAF
:102B50004EAD5FAD27970E94D033822F2757233188
:102B600008F480E890E02FE0249DF001259DF00D11
:102B70001124E60DF71D382F2227820F931F948F03
:102B8000838F1301BAE92B0E311C29968EAD9FADB0
:102B90002997BC0190E080E02D966CAF7DAF8EAFA1
:102BA0009FAF2D97D201AA0FBB1F2596BFAFAEAF27
:102BB0002597FD01EE5DFA4FB080F101E080F180D4
:102BC000028113812D968CAD9DADAEADBFAD2D971D
:102BD0008E219F21A023B123CC24C394892B8A2B3F
:102BE0008B2B09F4C12C1F92D10117968C9017974B
:102BF0001696AC90169714962C91149715964C91A6
:102C00006B2D23968FAD23970E94D80CB8E02B0E26
:102C1000311C0F906896EEADFFAD6897E215F30595
:102C200061F62596EEADFFAD2597ED57F84F299645
:102C30002EAD3FAD299731832083F201EF57F84F36
:102C40002E963FAD2E973083F201E158F84F2F9624
:102C50006FAD2F976083F201E358F84F60967FAD18
:102C600060977083F201E558F84FD08223968FADBC
:102C700023978F5F23968FAF239798CC90E028CD32
:102C800090E038CD90E080E075CD30E020E086CD5A
:102C9000841708F03ECE95E1949DF001959DF00DCE
:102CA000112461E070E06C0F7D1FE60FF71F87872E
:102CB00030CE891708F03ECE808B3CCE891708F0C5
:102CC0004ACE818B48CE891708F056CE828B54CEDF
:102CD00021968FAD2197811103C022968FAD229747
:102CE000C95ADF4F0FB6F894DEBF0FBECDBFDF91DC
:102CF000CF911F910F91FF90EF90DF90CF90BF90F9
:102D0000AF909F908F907F906F905F904F903F908B
:102D10002F9008952996AEADBFAD29972A173B078E
:102D200009F4A4CF9BCC2F923F924F925F926F9267
:102D30007F928F929F92AF92BF92CF92DF92EF924B
:102D4000FF920F931F93CF93DF93CDB7DEB72997F1
:102D50000FB6F894DEBF0FBECDBF6C019E012F5F92
:102D60003F4F290186E0D9011D928A95E9F78091AC
:102D70004F01882381F010924F0180919A01833096
:102D800050F045E06EE187E398E00E941B0B80E87D
:102D900093E00E94600CF601E456FF4F36015601A5
:102DA000BAEBAB0EB11C80818383818192819583C4
:102DB00084833696AE16BF06B1F74601E4E98E0E5F
:102DC000911CD4011696EC90169716961C921697A5
:102DD00017961C92469A5C9A83E090E00197F1F76F
:102DE00029B18CB193B133B186FB442740F9440F2C
:102DF000440F822F881F8827881F880F880F880F0D
:102E0000480F35FB882780F9480F94FB882780F905
:102E1000880F480F09F07AC0F401868191E0980F7D
:102E20009683863008F085E0082F10E0F6E08F9F4B
:102E3000C0011124FC013896E80DF91D880D991D7B
:102E4000DC0118968C91882319F051E0833009F445
:102E500052E0F12C63E070E05C98CB010197F1F750
:102E6000A9B19CB123B133B196FB882780F9880FB3
:102E7000880F9A2F991F9927991F990F990F990FCA
:102E8000890F35FB332730F9830F24FB992790F9FD
:102E9000990F890F4698DB011197F1F7B9B19CB1F1
:102EA00033B1A3B196FB222720F9220F220F9B2FCB
:102EB000991F9927991F990F990F990F290FA5FB12
:102EC000AA27A0F92A0F34FB992790F9990F290F07
:102ED000A181B28130E0811141C0B07F322F222721
:102EE000A20FB31FB283A183FF24F3944F5F541347
:102EF0002CC083E0F11001C082E096E0909FF001C9
:102F0000919FF00D1124E80DF91D808746985C987B
:102F100083E290E00197F1F7F401268180E036E04A
:102F20004FEF5FEF281749F1982F863008F095E0B2
:102F3000F401399FE00DF11D112460859385691717
:102F400011F0528741878F5FEDCF413009F084CF78
:102F5000469A5C9ACB010197F1F77ECFA07F8A0F4A
:102F60009B2F911D8F70A4E0220F331FAA95E1F7CC
:102F7000280F391F32832183B9CF8E1590F446E094
:102F80002FEF3FEF982F863008F095E0F401499F2E
:102F9000E00DF11D11241086328721878F5FE81222
:102FA000F1CFF601EE53FF4FC60180529F4F2081B3
:102FB000238321813281358324833696E817F907EC
:102FC000B1F7D5011696EC90169716961C921697A7
:102FD00017961C922B9A2A9A83E090E00197F1F7BA
:102FE00043B19FB18FB12FB146954170440F440F4B
:102FF000440F991F9927991F990F990F490F25FB86
:10300000992790F9490F86FB882780F9880F480F88
:1030100009F076C0F501868191E0980F968386309D
:1030200008F085E0082F10E0F6E08F9FC001112422
:10303000FC013896EA0DFB1D8A0D9B1DDC011896DC
:103040008C91882319F051E0833009F452E0F12C7F
:1030500063E070E02A98CB010197F1F783B12FB1BB
:103060009FB13FB186958170880F880F880F221F0E
:103070002227221F220F220F820F35FB332730F920
:10308000830F96FB992790F9990F890F2B98DB01F5
:103090001197F1F723B13FB19FB1AFB126952170E0
:1030A000220F220F220F331F3327331F330F330F0B
:1030B000230FA5FBAA27A0F92A0F96FB992790F9C1
:1030C000990F290FA181B28130E0811142C0B07FF8
:1030D000322F2227A20FB31FB283A183FF24F394C0
:1030E0004F5F54132DC083E0F11001C082E096E0E1
:1030F000909FF001919FF00D1124EA0DFB1D808738
:103100002B982A9883E290E00197F1F7F5019681D8
:10311000312C26E04FEF5FEF931551F1832DF5E051
:10312000F31508F485E0F501289FE00DF11D112449
:1031300030858385381711F0528741873394ECCF5F
:10314000413009F087CF2B9A2A9ACB010197F1F7EA
:1031500081CFA07F8A0F9B2F911D8F70A4E0220F3B
:10316000331FAA95E1F7280F391F32832183B8CF87
:103170003E1498F4832D46E02FEF3FEF982F8630D2
:1031800008F095E0F501499FE00DF11D112410862E
:10319000328721878F5FE812F1CFF601E656FF4FA5
:1031A0002080222D230D288710E0198600919A0196
:1031B0003885131709F4DBC0101709F4D8C041E0B3
:1031C0004F83121508F41F82812F121570F51630E7
:1031D00008F085E0D401E6E08E9FA00DB11D11241A
:1031E0009D01285F3F4F7901023049F4222069F1A7
:1031F000D9018C91F201BF81EB0FF11D8083D701C2
:103200009C9113968C911397981328C011962D9129
:103210003C91129714968D919C912817390751F57E
:103220001F5FFFE06F0E711CC1CF8219863008F05E
:1032300085E0D501E6E08E9FA00DB11D11249D0112
:10324000285F3F4F79010230D1F63320C1F2F701F8
:103250008081F2012F81E20FF11DD0CF612FC601D5
:103260000E945511023031F4F70140816F81C6018F
:103270000E94FB0FD70111962D913C91A901409519
:1032800050954170552782E022FD80E0842B94E028
:1032900023FD90E0892B98E021FD90E0892BF3013C
:1032A000808BD70111964D915C91CA0125E09695CE
:1032B00087952A95E1F7B1E08B279C012170332790
:1032C00082E090E044FF02C090E080E0822B932BEC
:1032D00020E031E046FF02C030E020E0822B932B5B
:1032E00020E032E047FF02C030E020E0822B932B49
:1032F000F301928B818BD7014C91433041F51196AC
:103300006D917C91E4E0F0E072FF02C0F0E0E0E05B
:1033100028E030E073FF02C030E020E08E2B9F2BCE
:10332000E0E1F0E071FF02C0F0E0E0E0822B932BDF
:1033300020E230E070FF02C030E020E0E82BF92B03
:10334000E22BF32BD3015296FC93EE93519780918D
:103350009A01823049F400E097016F81C6010E9412
:10336000A00FB1E0B9875CCFE1E0E98759CF1981BF
:10337000023059F480914901811739F0111105C0CB
:1033800040E060E0C6010E94FB0F109349011A81E2
:1033900080919A01823059F480914A01811739F065
:1033A000111105C040E061E0C6010E94FB0F1093BF
:1033B0004A0100916B072885201760F4122F809135
:1033C0009A01811739F0612FC6010E9455111F5FC4
:1033D0001017A8F3388530936B07898529960FB6A7
:1033E000F894DEBF0FBECDBFDF91CF911F910F913B
:1033F000FF90EF90DF90CF90BF90AF909F908F9015
:103400007F906F905F904F903F902F9008952F92F4
:103410003F924F925F926F927F928F929F92AF9264
:10342000BF92CF92DF92EF92FF920F931F93CF93B1
:10343000DF93CDB7DEB766970FB6F894DEBF0FBE49
:10344000CDBF3C0186E0FE013196DF011D928A95D9
:10345000E9F780914801882381F01092480180911A
:103460009A01833050F045E064E287E398E00E94DF
:103470001B0B8AE693E00E94600CF301EC56FF4FB1
:10348000FA8BE98BCF010E942E07F301E855FF4F1D
:1034900080818583818192819783868383819481D2
:1034A000918780873597D38013828E9A8BE290E044
:1034B0000197F1F78E9883E190E00197F1F750E0E2
:1034C00040E0512C412C63E170E02FB1022E000C42
:1034D000330B2227330F221F3327042E02C0220F63
:1034E000331F0A94E2F7422A532A8D98CB010197A1
:1034F000F1F78D9ACB010197F1F74F5F5F4F4031A4
:10350000510519F7452D42954F7050E14D3009F0A6
:1035100051E070E060E030E020E013E1E12EF12CBA
:103520000FB1002E000C110B0027110F001F1127E7
:10353000062E02C0000F111F0A94E2F7202B312B38
:103540008D98C7010197F1F78D9AC7010197F1F79F
:103550006F5F7F4F651720F340945094209530950E
:103560004F3029F42E3F8FEF380709F445C083818F
:1035700091E0980F938361E070E0811102C070E0E8
:1035800060E0411114C0852D99278F7099270F97FE
:1035900071F44AE0469FC001479F900D11248E0FA1
:1035A0009F1F4FE0DC0115964C93159714C0942F84
:1035B000909592FF89C08AE0869FA001879F500D59
:1035C00011244E0F5F1F84E0DA0115968C93159736
:1035D0009370292F30E019963C932E9318972AE088
:1035E000269FC001279F900D11248E0F9F1FDC0185
:1035F00017965C924E921697B381BE87BD15F8F46C
:103600002B2F6AE03FEF41E050E0211102C050E073
:1036100040E0649FC001659F900D11248E0F9F1F95
:10362000DC0115963C93159717961C921E921697DF
:1036300019961C921E9218972F5FD212E4CFF301B5
:10364000E956FF4F9080BE85B90DBD8779866886A3
:10365000788A6F86B12CF12C3C96FC8BEB8B930116
:103660002E543F4F3E8B2D8B10919A013D85B31602
:1036700009F463C2B11609F460C2DD24D394B9140D
:1036800008F4D12C21E030E0B91448F5B11002C0A3
:1036900030E020E04AE0429FC001439F900D11249A
:1036A000059629883A88280E391E123061F599202E
:1036B00039F1C1010E94C709E1E0F0E0EC0FFD1F04
:1036C000ED0DF11D80831FC05AE0569FC001579F2A
:1036D000900D11248E0F9F1F5FE0452763CFB91017
:1036E00002C030E020E04AE0429FC001439F900DBD
:1036F000112405962B883C88280E391E123019F4A7
:103700008E858111D6CFD1019C9115968C911597FC
:10371000981316C011962D913C91129716968D9183
:103720009C9117972817390759F413962D913C91BE
:10373000149718968D919C912817390709F47AC02F
:10374000EF85F88912AAD1018C9115969C91159755
:1037500089130CC0811118C013968D919C9101960C
:1037600099F4F10180859185019671F06B2DC3016B
:103770000E945511123041F4C1010E94C709482F1F
:103780006D2DC3010E943F10C1010E94C7098A87A5
:10379000D10111962D913C91C90154E096958795E0
:1037A0005A95E1F7982F917082E025FF80E0892BF0
:1037B00094E026FF90E0892B98E027FF90E0892B8A
:1037C000E885F985808BD10111962D913C91BA85C0
:1037D000A90141705527B230C9F582E090E021FD82
:1037E00002C090E080E0842B952BE885F985928BD0
:1037F000818BF101218180E091E022FD02C090E007
:1038000080E023FFFDC020E032E0A885B985519615
:103810004D915C915297842B952B822B932B529632
:103820009C938E93519780919A01823009F4EBC05A
:10383000FF24F394B394888599850F969987888798
:10384000AF85B8891196B88BAF870ECF82E090E034
:1038500030FD02C090E080E0842B952B44E050E0E6
:1038600021FD02C050E040E0842B952B48E050E061
:1038700031FD02C050E040E0842B952B40E150E048
:1038800032FD02C050E040E0842B952B33FF92C004
:1038900020E230E0822B932BA885B98552969C9329
:1038A0008E935197BA85B43009F08AC0F1014381F3
:1038B000548160E470E052FD02C070E060E020E8F6
:1038C00030E055FD02C030E020E0862B972BE0E091
:1038D000F4E053FD02C0F0E0E0E0282B392B60E07B
:1038E00078E054FD02C070E060E02E2B3F2B80E0BA
:1038F00090E157FD02C090E080E0262B372B282B6B
:10390000392BA885B98552963C932E935197F10196
:1039100023813481A9014170552782E090E021FD87
:1039200002C090E080E0842B952B44E050E022FD23
:1039300002C050E040E0842B952B48E050E023FD8E
:1039400002C050E040E0842B952B40E150E024FD84
:1039500002C050E040E0842B952B40E250E025FD72
:1039600002C050E040E0842B952B40E450E026FD5F
:1039700002C050E040E0842B952B40E850E027FD4A
:1039800002C050E040E0842B952B40E051E030FD38
:1039900002C050E040E0842B952B31FF0EC020E0A8
:1039A00032E0822B932BA885B98554969C938E93F5
:1039B00053971FCF30E020E06DCF30E020E0F1CF13
:1039C000BA85B53009F015CFF10123813481A90101
:1039D0004170552720FF02C040E450E021FF0DC098
:1039E00020E830E0842B952B822B932BA885B9857A
:1039F00052969C938E935197FCCE30E020E0F2CF0C
:103A000030E020E002CFED89FE8980812301882308
:103A100009F455C0FDEC4F1AFEEF5F0A1F82ED2D31
:103A2000F0E0EE0FFF1FEE5DFA4F20812B87D201F1
:103A3000ED90FD900D911C91139714962C91149775
:103A400015964C9115971696AC90169717968C90E4
:103A5000BF81BC3010F5EA85E23091F4B83080F0D7
:103A60001F92C12C6B858D2D0E94D80C0F90FF8169
:103A7000FF5FFF8328E0420E511CFE30C1F6D8CE16
:103A8000D10111968D919C918E219F21CC24C394BC
:103A9000892B09F4C12C1F92E5CFBA85B530D1F737
:103AA000F10163817481D801C7013CE0B695A79507
:103AB000979587953A95D1F786239723E7CF33EBF0
:103AC000430E511C1F828D2D90E0880F991FDC0141
:103AD000AE5DBA4FBC87AB87BA85B23061F5EF8176
:103AE000E83000F5E43038F5F201E05AFF4FE080AD
:103AF000F18002811381D10111968D919C918E21CB
:103B00009F21CC24C394892B09F4C12C1F92878058
:103B1000A68024814581EB85FC8560818D2D0E94E6
:103B2000D80C0F90FF81FF5FFF8328E0420E511CED
:103B3000FC3091F67DCEF201DACF0981123059F4D2
:103B400080914201801739F0011105C040E060E02A
:103B5000C3010E943F10009342011A8180919A0193
:103B6000823059F480914301811739F0111105C059
:103B700040E061E0C3010E943F10109343011091A7
:103B80006A07BD85B11760F4DB2E80919A018D150F
:103B900039F06D2DC3010E945511D394D116A8F3AD
:103BA000ED85E0936A078F2D66960FB6F894DEBF19
:103BB0000FBECDBFDF91CF911F910F91FF90EF907E
:103BC000DF90CF90BF90AF909F908F907F906F903D
:103BD0005F904F903F902F900895FC0180912007B7
:103BE0009091210786179707A0F06115710529F4B8
:103BF0009091E8009E779093E80090E06115710540
:103C000051F4911108C08091E80082FF35C080E036
:103C10000895BC01F2CF80911D088823C9F1853039
:103C2000C9F18091E80083FD31C08091E80082FDF8
:103C3000EACF8091E80080FFE1CF2091F3008091EE
:103C4000F200322F282F6115710519F0203431054B
:103C500058F091E02034310509F090E02091E8001F
:103C60002E772093E800CACF81918093F1006150B4
:103C700071092F5F3F4FE7CF80911D08882341F0E6
:103C8000853041F08091E80083FFBDCF81E0089549
:103C900082E0089583E008952091E4003091E500EA
:103CA00085E69091EC0090FF06C09091E80090FFAF
:103CB00006C080E008959091E80092FDFACF9091BF
:103CC0001D08992391F0953091F09091EB0095FDAE
:103CD00010C04091E4005091E5002417350709F326
:103CE00081509A01F1F684E0089582E0089583E01E
:103CF000089581E0089580911A0787FF13C080918D
:103D0000E80082FF06C08091E8008B778093E8008E
:103D100004C080911D088111F2CF089580911D0883
:103D20008823D9F38091E80080FFF8CF8091E800E4
:103D30008E77ECCF982F973028F08F708093E90022
:103D400081E008959093E900242F762F50E0981792
:103D500031F07091EC002091ED005091F00021FDC8
:103D600002C09F5FE8CF3091EB003E7F3093EB00C5
:103D70003091ED003D7F3093ED003091EB003160EC
:103D80003093EB007093EC002093ED005093F00023
:103D90002091EE0027FDE5CF80E0089542E050E05D
:103DA00069EC75E087E398E00C942104CF93DF93EE
:103DB0000E94600CEC010E94CE1E8C0F9D1FDF91B3
:103DC000CF9108950F931F93CF93DF93CDB7DEB7B5
:103DD000A4970FB6F894DEBF0FBECDBF182F83E0B7
:103DE000898380EC8A838BE18B8370E040E250E032
:103DF000CE0104960E94713501E09E012C5D3F4F7B
:103E000043E2BE016F5F7F4F812F0E94F104A496B1
:103E10000FB6F894DEBF0FBECDBFDF91CF911F91DB
:103E20000F9108950F931F93CF93DF93CDB7DEB714
:103E3000C754D1090FB6F894DEBF0FBECDBF182FFF
:103E400083E0898380E88A8381E08B8370E040E2AD
:103E500050E0CE0104960E94713501E09E01295B7D
:103E60003F4F43E2BE016F5F7F4F812F0E94F104FD
:103E70008091DF019091E001A091E10127968DAF43
:103E80009EAFAFAF279700E29E012C5D3F4F43E00E
:103E9000BE016C5B7F4F812F0E94F104C95BDF4F35
:103EA0000FB6F894DEBF0FBECDBFDF91CF911F914B
:103EB0000F910895EF92FF920F931F93CF93DF938B
:103EC0001F92CDB7DEB77C01FC018781198203E028
:103ED000970141E0BE016F5F7F4F0E94F104F7013F
:103EE000833061F010821182128280E00F90DF91A6
:103EF000CF911F910F91FF90EF900895828187706D
:103F00008130C9F40BE811E0C8010197F1F76EEEBA
:103F100087810E94121FC8010197F1F760E8F7013D
:103F200087810E94121FC8010197F1F760E0F70135
:103F300087810E94E21E8BE891E00197F1F781E012
:103F4000D5CF2F923F924F925F926F927F928F9236
:103F50009F92AF92BF92CF92DF92EF92FF920F9318
:103F60001F93CF93DF93CDB7DEB7AF970FB6F8941B
:103F7000DEBF0FBECDBF1C018091790781116DC0DE
:103F800080917A07811169C007E717E039E7C32EEE
:103F900037E0D32EF12CE12CD8018D918D018111C8
:103FA0000CC0F701EA56FF4FE20DF31D80819181AD
:103FB0000E945A1FF80131978083F60181936F01A7
:103FC00080917907811104C080917A07882371F06C
:103FD00080919B0190919C018230910538F0880F6F
:103FE000991F880F991F05970197F1F7F2E0EF0EDF
:103FF000F11C34E0E316F10479F681E00E943511FA
:1040000007E027E04FE760E087E398E00E94940C28
:1040100067E087E398E00E94F10A60E087E398E0B8
:104020000E94FD0A80917907882309F462C041E06B
:1040300060E0C1010E94A80D62E487E398E00E945D
:10404000FD0A9091790780917A07911159C08111E9
:1040500057C082E993E00E94600C1E8A1F8A10E01C
:10406000510144E9A40EB11C44244394BBE88B2EB7
:104070009924939480919A01181708F0E1C0C12EF9
:10408000D12CF601E55BFF4FEE0FFF1FE20DF31D94
:10409000E080F180D501ED92FC92F601EB58F84FEB
:1040A000FA8FE98F1082F601E758F84F8081882354
:1040B00009F4C4C0A6014958584F3A01DA015C908E
:1040C000511029C0C7010E945A1F882309F4B6C0A5
:1040D000F3014082612FC1010E94551141E0612F1F
:1040E000C1010E94A80DAAC08EE893E00E94600C56
:1040F000A3CF80917A078111F7CF82E993E0F6CFC1
:10410000811103C08EE893E0A6CF41E061E0C101D8
:104110000E94A80DA2CFD7018D919C91892BB1F15E
:10412000F7016281862F8770813099F463FB8827BD
:1041300080F990916C07891761F0C4010197F1F73C
:1041400063FB662760F987810E94E21EC401019724
:10415000F1F7F701828183FB882780F980936C0750
:104160008781488E04E097012D5F3F4F41E0BE01FB
:10417000685E7F4F0E94F1048430A9F0D7011C9241
:1041800011961C92119712961C9205C0C7010E94AD
:104190005A1F8111C5CFD3011C92612FC1010E940A
:1041A000551140E09CCFF501808191810E943F082C
:1041B0002F87388B498B5A8B6B8B7C8B8D8B8F85A4
:1041C0009889892B41F3A98DBA8D4C92B7E0BC9D9B
:1041D0007001BD9DF00C1124E1E0F0E0EC0FFD1F3B
:1041E000EE0EFF1ED5018D919C910E943F08F701B4
:1041F0002083318342835383648375838683D10113
:1042000017968C9181111AC0F501A081B181CC0C57
:10421000DD1CCC0CDD1CF101EC0DFD1D85A981110F
:1042200006C05524539487A9811101C0512C1296C0
:104230008C91129750FA83F912968C931F5F1ACFC4
:10424000D12CA10146565F4F5FA34EA3C1018556F5
:104250009F4F99A788A7D101A356BF4FBBA7AAA775
:10426000F101E456FF4FFDA7ECA74C585F4F5FA745
:104270004EA780919A01D81608F086C26D2C712C39
:10428000F301E958F84F8081882309F45CC287E084
:10429000869DF001879DF00D112481E090E08C0F48
:1042A0009D1FE80FF91F2381822F82958F7090E068
:1042B000982F88279295907F2F7030E0322F2227F9
:1042C000820F931F2481422F42954F70A0E14A9F95
:1042D000A0011124840F951F2F70AC01420F511DB6
:1042E0005A8F498FC301880F991F9C8F8B8FDC01D8
:1042F000AF58B84F8D919C912581D301A159B84FEA
:10430000B9A3A8A33C91231308C04681F301E35944
:10431000F84F3081431709F454C2E6E1F0E0EC0FA6
:10432000FD1FE60DF71D31E0498D5A8D8417950765
:1043300009F430E0308387E0869DF001879DF00D21
:10434000112481E090E08C0F9D1FE80FF91F9381ED
:1043500093FB882780F992FFF8C192E0892B97E0C0
:10436000969DF001979DF00D1124A1E0B0E0AC0FF7
:10437000BD1FEA0FFB1F938191FFE9C194E0892BD8
:1043800097E0969DF001979DF00D112441E050E0DB
:104390004C0F5D1FE40FF51F938190FFDAC198E089
:1043A0003FE0369DF001379DF00D1124E20DF31D25
:1043B000892B808B87E0869DF001879DF00D11246D
:1043C00081E090E08C0F9D1FE80FF91F848182FB34
:1043D000992790F99E8F1F8E80FFBDC182E090E0EB
:1043E000AE8DBF8D8A2B9B2B37E0369DF001379D1C
:1043F000F00D112441E050E04C0F5D1FE40FF51F5C
:10440000348144E050E031FD02C050E040E0842BB4
:10441000952B37E0369DF001379DF00D1124A1E07A
:10442000B0E0AC0FBD1FEA0FFB1F348148E050E045
:1044300033FD02C050E040E0842B952B37E0369DE1
:10444000F001379DF00D112441E050E04C0F5D1F4D
:10445000E40FF51F348140E150E035FD02C050E02B
:1044600040E0842B952B37E0369DF001379DF00D11
:104470001124A1E0B0E0AC0FBD1FEA0FFB1F348197
:1044800040E250E034FD02C050E040E0842B952B28
:1044900037E0369DF001379DF00D112441E050E0EA
:1044A0004C0F5D1FE40FF51F338140E450E036FDF3
:1044B00002C050E040E0842B952B37E0369DF001A0
:1044C000379DF00D1124A1E0B0E0AC0FBD1FEA0F45
:1044D000FB1F338140E850E037FD02C050E040E070
:1044E000842B952B37E0369DF001379DF00D11247C
:1044F00041E050E04C0F5D1FE40FF51F338140E0B9
:1045000051E035FD02C050E040E0842B952B37E0B0
:10451000369DF001379DF00D1124A1E0B0E0AC0F05
:10452000BD1FEA0FFB1F338140E052E034FD02C0A3
:1045300050E040E03FE0369DF001379DF00D112442
:10454000E20DF31D842B952B928B818B2F3B0CF06E
:1045500005C187E0869DF001879DF00D112441E0A3
:1045600050E04C0F5D1FE40FF51F8FEB858387E054
:10457000869DF001879DF00D1124A1E0B0E0AC0F05
:10458000BD1FEA0FFB1F86818F3B0CF0F8C08FEB3D
:104590008683EEA1FFA18080082C000C9908AA0850
:1045A000BB0887E0869DF001879DF00D112441E056
:1045B00050E04C0F5D1FE40FF51F55815D8F252FD7
:1045C000550F330B440B550B281939094A095B0960
:1045D000AFEFB0E00E94EF33A8A5B9A52C91022E51
:1045E000000C330B440B550B281939094A095B0998
:1045F0000E94D033822F2757233108F480E890E0BF
:104600002FE0269DF001279DF00D1124E20DF31DF2
:10461000382F2227820F931F968B858BEAA5FBA547
:10462000E0800E2C000CFF08000B110B87E0869D2C
:10463000F001879DF00D112441E050E04C0F5D1F0B
:10464000E40FF51F9680292D092C000C330B440B29
:10465000550B2E193F09400B510BAFEFB0E00E94F4
:10466000EF33ACA5BDA52C91022E000C330B440BEF
:10467000550B2E193F09400B510B0E94D033822F4E
:104680002757233108F480E890E02FE0269DF001C1
:10469000279DF00D1124E20DF31D382F2227820FE4
:1046A000931F908F878B2101BEE94B0E511CA98D62
:1046B000BA8DCD01B0E0A0E08AA39BA3ACA3BDA3BB
:1046C000EB8DFC8DEE5DFA4FB080F201E080F18061
:1046D000028113818AA19BA1ACA1BDA18E219F2142
:1046E000A023B123CC24C394892B8A2B8B2B09F4D0
:1046F000C12C1F92D20117968C9017971696AC90EA
:10470000169714962C91149715964C916B2D8D2D10
:104710000E94D80CB8E04B0E511C0F90EEA5FFA5DF
:10472000E415F50591F6EB8DFC8DEF58F84F498DAA
:104730005A8D51834083ED8DA8A1B9A1EC93F3016B
:10474000E359F84F9082D39494CD90E007CE90E057
:1047500016CE90E025CE90E080E042CE22340CF4DC
:1047600006CF87E0869DF001879DF00D112481E042
:1047700090E08C0F9D1FE80FF91F81E4F7CE823483
:104780000CF407CF81E404CF8E89811101C08F8999
:10479000AF960FB6F894DEBF0FBECDBFDF91CF91BD
:1047A0001F910F91FF90EF90DF90CF90BF90AF904F
:1047B0009F908F907F906F905F904F903F902F9041
:1047C0000895E98DFA8D8E179F0709F4BCCFA5CD0A
:1047D0000E945635EF92FF920F931F93CF93DF9372
:1047E00000D0CDB7DEB780911D08882309F4DBC067
:1047F0008091E9008F709091EC0090FF4FC090E89D
:10480000F92EF82A1092E9008091E80083FFC7C0D2
:10481000EAE1F7E08091F100819327E0E232F207CC
:10482000C9F7E0901B0781E0E8121DC080911A07CC
:10483000813AC9F48091E800877F8093E8008091F5
:104840001C0790911D078115934051F568E070E0B9
:1048500080E091E00E94ED1DE09227088091E80041
:104860008B778093E8008091E80083FF8AC0809175
:104870001A0790911B079A3008F083C0E92FF0E0E7
:10488000EC5BFB4D0C942B349424BA24C124BA2441
:10489000C1241B253D25C12470277D2790E0B0CF82
:1048A000E0911C08E730D0F6F0E0E75AFB4D0C949D
:1048B0002B34602467246C24712476247B248F2479
:1048C00064E170E08AE196E00E94ED1DC7CF60E4EC
:1048D00070E087E096E0F8CF60E470E08FEF95E05D
:1048E000F3CF60E470E087EF95E0EECF60E470E036
:1048F00080EF95E0E9CF81E08093EC0582E0809342
:10490000E90580911E0790911F0760E470E0892BF4
:1049100019F48CEE95E0D8CF89EE95E0D5CF60E420
:1049200070E084EE95E0D0CF803889F0823849F588
:1049300080911E078F70873020F58093E900809169
:10494000EB0085FB882780F91092E90004C0809174
:104950008F0781110DC09091E800977F9093E80038
:104960008093F1001092F1008091E8008E7732C0C0
:1049700082E0F1CF282F2D7F21F48823E9F08230C7
:1049800071F18091E80083FF0AC08091E800877F81
:104990008093E8008091EB0080628093EB008F2D84
:1049A0008F708093E9000F900F90DF91CF911F914E
:1049B0000F91FF90EF90089580911C07813009F7C7
:1049C000933009F080E080938F071092E900809186
:1049D000E800877F8093E8000E947B1ED2CF809101
:1049E0001C078111F2CF80911E078F702FEF280FC7
:1049F000263038F68093E9002091EB0020FFE5CFC8
:104A0000933031F48091EB0080628093EB00DDCF36
:104A10009091EB0090619093EB0021E030E001C0B9
:104A2000220F8A95EAF72093EA001092EA0080911B
:104A3000EB008860EACF8111A4CF10911C071F778B
:104A40008091E3008078812B8093E3008091E800DF
:104A5000877F8093E8000E947B1E8091E80080FFA2
:104A6000FCCF8091E30080688093E30083E0111124
:104A700001C082E080931D0884CF8058823008F006
:104A800080CF20911C0730911D071A821982832F35
:104A900099278330910509F41CC1D0F48130910528
:104AA000A9F1029709F45DC069817A8161157105E8
:104AB00009F467CF8091E800877F8093E800C80100
:104AC0000E94ED1D8091E8008B778093E80059CF1C
:104AD0008132910509F49FC1829731F780911C08BA
:104AE000843009F4E7C108F0BBC1813009F4C8C1C2
:104AF000833009F4D4C146E450E06AE671E084E80A
:104B000096E00E94B13386E490E0C4C180911C0815
:104B1000882399F0813001F1009195071091960753
:104B200042E150E065EC70E08EE296E00E94B13325
:104B300000933A0610933B0608C042E150E069EE4C
:104B400070E08EE296E00E94B13382E190E09A83B9
:104B500089830EE216E0A8CF42E150E067ED70E0F5
:104B6000F0CF0091940710911C08113009F456C041
:104B700008F44DC0153009F496C01350143008F0F5
:104B8000A1C0E12FF0E0E050FB4F108149E050E080
:104B900064E171E080E496E00E94B13399E1099FFD
:104BA000902D1124975F90934206009344060023B2
:104BB00009F48AC049E150E06BEF70E089E496E0C7
:104BC0000E94B13310924B061093590681E88093EE
:104BD0005D06023008F478C049E150E06BEF70E008
:104BE00082E696E00E94B13381E0809364061093E0
:104BF000720682E880937606023009F465C049E1C6
:104C000050E06BEF70E08BE796E00E94B13381E3F8
:104C100090E09A8389830FEC14E046CF49E050E09E
:104C200068E571E080E496E00E94B13399E1099F64
:104C3000902D1124975F9093420600934406002321
:104C400061F149E150E06FE371E089E496E00E9490
:104C5000B13310924B064CE6E42EE092590681E8FF
:104C600080935D060230C8F049E150E06FE371E0E7
:104C700082E696E00E94B13310936406E0927206D9
:104C800082E880937606023041F049E150E06FE31C
:104C900071E08BE796E00E94B133B9E10B9FC00150
:104CA000112409960AC042E250E06DE171E080E40F
:104CB00096E00E94B13382E290E09A83898300E417
:104CC00016E0F2CE16E462CFE9E10E9FC001112496
:104CD000E8CFC90199278230910549F183309105C8
:104CE00009F441C08130910509F04AC080911C0847
:104CF000813089F444E351E0DA010D900020E9F7B6
:104D0000AD014553514064E371E0CE0101960E942C
:104D1000E0288C01C9CE47E251E0FA010190002061
:104D2000E9F7AF014852514067E271E0EECF809160
:104D30001C08813061F445E151E0DA010D9000205A
:104D4000E9F7AD014651514065E171E0DECF48E041
:104D500051E0FA0101900020E9F7AF0149505140BC
:104D600068E071E0D2CF6091920770919307FB01E8
:104D700001900020E9F73197AF01461B570BC5CFD3
:104D80006DEC74E0E1E0222331F1253039F524E1C6
:104D900035E0E0E0FCE0FE0FD9011D919D018E2F72
:104DA00090E0019670E060E0412F42954F7050E036
:104DB00044535A4FDA014C91DC014C93EE5F90E082
:104DC000A12FAF70B0E0A453BA4F4C91DC01119603
:104DD0004C93EF13E1CF4E2F50E097CF20911C085A
:104DE000880F991F222329F0213049F08C5F9A4FB8
:104DF00002C0865E9A4FFC016081718105C0845FAC
:104E00009A4FDC016D917C91FB0101900020E9F744
:104E10003197E61BE0CF10911C0849E050E061E6B5
:104E200071E08BE796E00E94B1338BE5143079F0A6
:104E300040F48CE6113059F089E5133041F086E4F6
:104E400006C081E5153019F087E31630C1F780936D
:104E5000820689E090E09A8389830BE716E024CEEE
:104E6000853099F1863009F046CE47E350E060EB9B
:104E700071E084E896E00E94B13387E390E00AC0D5
:104E80004CE650E06CEE72E084E896E00E94B133AC
:104E90008CE690E09A83898304E816E005CE49E524
:104EA00050E063E972E084E896E00E94B13389E55E
:104EB00090E0F0CF4BE550E068E372E084E896E0E4
:104EC0000E94B1338BE590E0E5CF41E550E067EE1D
:104ED00071E084E896E00E94B13381E590E0DACF9A
:104EE000803809F04ECD8091E800877F8093E800FC
:104EF000809190078093F10037CD811142CD1091C0
:104F00001C07123008F03DCD8091E800877F809328
:104F1000E800109390070E947B1E1123F9F084E0B3
:104F200080931D0800911C080023F1F042E360EC1F
:104F300082E00E949A1E11E080919407811708F484
:104F400020CD812F8F70873020F442E361EC0E94E6
:104F50009A1E053009F415CD1F5FEECF8091E30056
:104F600087FDDDCF81E0DCCF42E261EC81E00E9491
:104F70009A1E46E260EC82E00E949A1E02CD0F93D8
:104F80001F93CF93DF938C01EB018091E80085FDA7
:104F900010C08091E8008B778093E8000E94EA239C
:104FA0000E944C1E882389F3DF91CF911F910F91AE
:104FB00008958091F100F80181938F01219729F7DD
:104FC00080E0F2CF1F920F920FB60F9211242F9311
:104FD0003F938F939F93AF93BF9380912F089091AE
:104FE0003008A0913108B091320830912E0823E0AA
:104FF000230F2D3758F50196A11DB11D20932E08C2
:1050000080932F0890933008A0933108B093320812
:105010008091330890913408A0913508B0913608FA
:105020000196A11DB11D8093330890933408A0937D
:105030003508B0933608BF91AF919F918F913F9102
:105040002F910F900FBE0F901F90189526E8230FF9
:105050000296A11DB11DD2CF1F920F920FB60F92D3
:1050600011242F933F934F935F936F937F938F936D
:105070009F93AF93BF93EF93FF938091DA0080FFEC
:1050800017C08091D80080FF13C08091DA008E7F16
:105090008093DA008091D90080FF86C080E189BDCD
:1050A00082E189BD09B400FEFDCF81E080931D0837
:1050B0008091E10080FF17C08091E20080FF13C063
:1050C0008091E2008E7F8093E2008091E200806117
:1050D0008093E2008091D80080628093D80019BC50
:1050E00085E080931D088091E10084FF26C08091B7
:1050F000E20084FF22C080E189BD82E189BD09B45C
:1051000000FEFDCF8091D8008F7D8093D8008091E4
:10511000E1008F7E8093E1008091E2008F7E80939A
:10512000E2008091E20081608093E200809190072C
:105130008823F1F184E080931D088091E10083FFD2
:1051400022C08091E20083FF1EC08091E100877F32
:105150008093E10082E080931D0810929007809177
:10516000E1008E7F8093E1008091E2008E7F80934A
:10517000E2008091E20080618093E20042E360E01F
:1051800080E00E949A1EFF91EF91BF91AF919F9195
:105190008F917F916F915F914F913F912F910F90E0
:1051A0000FBE0F901F90189519BC10921D0880CF4C
:1051B0008091E30087FD02C081E0BDCF83E0BBCFDB
:1051C000CF93DF93DC014032510514F04FE150E002
:1051D00090E0292F30E02417350784F04F5F5F4FB0
:1051E000440F551F4D935C93536050932307409396
:1051F000220782E297E0DF91CF910895F901EE0F47
:10520000FF1FEC5DF84F260F371FE9012881022EA2
:10521000000C330B318320839F5FDBCFCF93DF9371
:10522000CDB7DEB729970FB6F894DEBF0FBECDBF5E
:10523000789484B5826084BD84B5816084BD85B571
:10524000826085BD85B5816085BD80916E0081607D
:1052500080936E0010928100809181008260809323
:105260008100809181008160809381008091800025
:105270008160809380008091910082608093910092
:105280008091910081608093910080919000816075
:10529000809390008091C10084608093C1008091D0
:1052A000C10082608093C1008091C10081608093C1
:1052B000C1008091C30081608093C3008091C000D1
:1052C00082608093C0008091C20081608093C200A0
:1052D00080917A00846080937A0080917A00826065
:1052E00080937A0080917A00816080937A00809127
:1052F0007A00806880937A0056985E9A1092270808
:1053000090E080E00E94BA33863008F04BC0809372
:105310002108F0902108F3E0BF2EFB1409F4D4C05B
:10532000BF1408F441C021E0F21609F475C042E050
:10533000F41609F4ACC0109248088CE38093470837
:105340001092B90084E48093BC008CE08093B80094
:1053500010923B0810923C08ECE9F6E0C590D4901E
:10536000EEE9F6E0F490EFE9F6E0E491E0933D0831
:10537000E0EAF6E0E491E0933E08E1EAF6E0E49149
:10538000E0933F0810E000E00F1508F0E6C0F601DA
:10539000E00FF11F649187E398E00E94E90A0F5F34
:1053A0001F4FF2CF81E0B3CF84E0F81609F49FC01D
:1053B00095E0F912C0CF8AEF90E00E9431348C0161
:1053C0000E94830380E895E0D8018D939C9386E149
:1053D00090E00E94313425E1FC01258BF801EC5668
:1053E000FF4F9183808386E190E00E943134DC019D
:1053F0005596FC92F801EA56FF4F918380833296CE
:105400008EE18083319681EE8083D801A656BF4F0E
:1054100080E6E2EEF1E032C083EA91E00E943134AE
:105420008C010E94830388E395E0D8018D939C93BF
:10543000F801EC56FF4F138214828AE03596DF01A3
:10544000B82E1D92BA94E9F73A96138214823596D3
:10545000DF011D928A95E9F73A961082D801AD5482
:10546000BF4F80E8E2E4F2E001900D928A95E1F707
:10547000D801AD5CBE4F80E7E2ECF2E001900D9206
:105480008A95E1F7109329080093280854CF80E407
:1054900091E00E9431348C010E9483038AE495E0FC
:1054A000F80191838083C8018C569F4F0E949F0909
:1054B000C80186549F4F0E949F09D801A052BF4F38
:1054C00080E6E2E3F3E0DACF8EEE90E00E94313442
:1054D0008C010E9483038CE595E0D80111969C9382
:1054E0008E93A256BF4F80E5E2E9F3E0C7CF8EE08E
:1054F00091E00E9431348C010E9483038EE695E096
:10550000F8019183808388E090E00E94313425E1A6
:10551000DC0117962C93F801EA56FF4F91838083A4
:1055200088E090E00E94313425E0FC012783F801F7
:10553000E856FF4F9183808332969FEB908331969C
:1055400081E480833196908331968083D801A2567E
:10555000BF4F80E7E2EEF3E091CF87E398E00E944F
:10556000C90C61E887E398E00E94E90A61E087E3FB
:1055700098E00E94E90AE1EBF4E0F0934308E0933D
:1055800042088491E2EBF4E0E491F82F319709F0BE
:10559000F1C01092400887E398E00E94C90C11E026
:1055A000109345086EE187E398E00E94FD0A82E0CF
:1055B000809345088AEA94E00E94600C10934508A5
:1055C00062E087E398E00E94F10A0E94F31081E014
:1055D00090E00E94BA33873008F080E0A09128085C
:1055E000B091290817968C931797ED91FC9111971C
:1055F0000190F081E02DCD01099564E170E080E03B
:1056000090E00E94EF038091280890912908DC0126
:10561000ED91FC910280F381E02D099564E170E049
:1056200080E090E00E94EF03809128089091290883
:10563000DC01ED91FC910280F381E02D0995A091B0
:105640002808B091290851968C91519780FF96C0F7
:1056500081E017968C9317974E99B6C017961C91B8
:1056600087E398E00E94C90C45E050E06DED75E0DD
:1056700087E398E00E9421040E94CE1E6CED75E045
:1056800080E090E00E94EF0387E398E00E94C90C5D
:105690008DE994E00E94D61E8FE894E00E94D61E09
:1056A00082E894E00E94D61E64EF71E080E090E012
:1056B0000E94EF0381E0812C912C540101E0FF2432
:1056C000F3944E9961C0F12C813089F48FB7F8942E
:1056D00080902F0890903008A0903108B090320848
:1056E0008FBF60E170E080E090E00E94EF032FB791
:1056F000F89480912F0890913008A0913108B091D2
:1057000032082FBF88199909AA09BB09893E93401D
:10571000A105B10510F40C949D3387E398E00E9435
:10572000C90C8AE794E00E94D61E83E794E00E94A9
:10573000600C812F0E947B0C0E94CE1E0E94CE1E08
:105740008FE594E00E94600C60ED77E080E090E0EF
:105750000E94EF03612F81E090E00E94C23388E154
:105760009EE00FB6F894A895809360000FBE9093CA
:105770006000FFCF81E0809340080DCF81FF6CCFA8
:1057800017961C92179768CF81110C949A3360E199
:1057900070E080E090E00E94EF0381E0011106C01C
:1057A000882379F01F5F133008F010E007E025E050
:1057B0004FE760E087E398E00E94940C812F0E94FD
:1057C0007B0C00E08F2D7BCFED91FC911197048431
:1057D000F585E02DCD01099561E087E398E00E9411
:1057E000F10A60E087E398E00E94FD0AE091280852
:1057F000F0912908878181111DC188E50E948F0CD5
:10580000809128089091290821E032E0DC0114966B
:105810003C932E931397ED91FC910084F185E02D3C
:1058200009958C018091280890912908DC01ED915F
:10583000FC910284F385E02D099520919A01E09175
:105840002808F0912908378130931C089093960717
:1058500080939507209394071093930700939207E2
:1058600084B7877F84BF0FB6F894A89580916000B5
:10587000886180936000109260000FBE80E830E085
:1058800020E00FB6F89480936100209361000FBE72
:105890008091D8008F7E8093D8008091D70081605E
:1058A0008093D70084E082BF81E08093910780914C
:1058B000D8008E7F8093D8001092E2001092DA0018
:1058C0001092E1008091D8008F778093D80080916A
:1058D000D80080688093D8008091D8008F7D809315
:1058E000D80019BC10921D081092900710928F07D3
:1058F0008091E0008B7F8093E0008091D8008160F0
:105900008093D80042E360E080E00E949A1E80917C
:10591000E1008E7F8093E1008091E20081608093BE
:10592000E2008091E20088608093E2008091E000D4
:105930008E7F8093E0008091D80080618093D800B2
:1059400078940E94CA0300912A0810912B08209194
:105950002C0830912D08AB01BC01401B510B620B90
:10596000730B80919B0190919C01B0E0A0E0C12C51
:10597000481759076A077B07B0F080912808909173
:105980002908DC01ED91FC910280F381E02D09955D
:10599000C82E0E94CA0360932A0870932B08809334
:1059A0002C0890932D08D12C80919A01D81608F0DC
:1059B0001CC68091280890912908DC01ED91FC918A
:1059C0000680F781E02D6D2D099500912808109132
:1059D0002908ED2CF12CF8018781843009F487C166
:1059E00008F037C0882309F469C093E1813009F4D5
:1059F00000C298E0833009F0B8C18FE08E9DF001BD
:105A00008F9DF00D1124E00FF11FE089EF70E15040
:105A1000EA3008F0A9C3F0E0E05FF24D0C942B34BB
:105A20003F30AC30B430B030B230AE30B430A830EB
:105A3000A430AA30813011F483E5E0CE823011F435
:105A400088E4DCCE8350843010F48DE4D7CE85E436
:105A5000D5CE853009F469C195E0863009F0C9CF0B
:105A60008FE08E9DF0018F9DF00D1124E00FF11F4E
:105A700021893289A9014170552782E021FF80E008
:105A8000842B22FF67C424E0822B809397078FE04A
:105A90008E9DF0018F9DF00D1124E00FF11F2589DF
:105AA000368930939907209398072789308D309352
:105AB0009B0720939A0727E937E08EC094E18FE097
:105AC0008E9DF0018F9DF00D1124E00FF11F2089B4
:105AD000822F817032E021FF30E0832B34E022FFFF
