:100000000C946C030C9494030C9494030C9494033C
:100010000C9494030C9494030C9494030C94940304
:100020000C9494030C9494030C9478270C949403EC
:100030000C9494030C9494030C9494030C949403E4
:100040000C9494030C9494030C9494030C949403D4
:100050000C9494030C9494030C9494030C94E02655
:100060000C9494030C9494030C9494030C949403B4
:100070000C9494030C9494030C9494030C949403A4
:100080000C9494030C9494030C9494030C94940394
:100090000C9494030C9494030C9494030C94940384
:1000A0000C9494030C9494030C949403AED580A800
:1000B0003FD300408D142002A1C8DA12817FD9F10C
:1000C000DB40A4A6AF1201000200000040D0167E63
:1000D0001200010102030112010002000000400DA4
:1000E0000F920000010102030112010002FFFFFF55
:1000F000405E048E021401010203010904000001A4
:1001000003000000092111010001224600070581BA
:10011000034000010902220001010080320902228D
:100120000001010080320904000001030000000901
:10013000211101000122510007058103400001093E
:1001400004000001030000000921110100012256F2
:100150000007058103400001090229000101008018
:10016000FA09211101000122460005010905A1013A
:10017000150025013500450175019518050919017E
:100180002918810205012507463B01750495016583
:10019000140939814265009501810126FF0046FF5F
:1001A000000930093109350936750895048102C006
:1001B00005010905A10105091901290315002501FA
:1001C0007501950355006500810275019505810350
:1001D00005010901150026FF0375109502A100090C
:1001E0003009318102C0C005010905A1018501A1C5
:1001F0000005091901290C150025019510750181CB
:100200000205010939150025073500463B0175082F
:10021000950165148142C0C005010902A101850252
:100220000901A100093009311581257F3581457FFC
:10023000950275088106C0C005010904A101A1004D
:100240000509190129101500250195107501810274
:1002500005010901A100093009311580257F9502AA
:1002600075088102C009371580257F9501750881C1
:10027000060938150026FF00950175088102093925
:10028000150025073500463B017508950165148169
:1002900042C0C005010905A1011500250135004531
:1002A000017501950E05091901290E81029502813A
:1002B0000105012507463B017504950165140939BF
:1002C000814265009501810126FF0046FF0009304B
:1002D000093275089502810205027508950315001B
:1002E00026FF0009BB09C509C88102C0050109052F
:1002F000A10115002501350045017501951005097D
:1003000019012910810205012507463B0175049555
:100310000165140939814265009501810126FF00BC
:1003200046FF000930093109320935750895048105
:10033000020600FF092009210922092309240925B1
:100340000926092709280929092A092B950C810260
:100350000A21269508B102C056424F59004E545406
:1003600000534E4553004E4553004D554C54492DB6
:10037000544150004A4F47434F4E00464C4947486E
:1003800054535449434B004455414C53484F434BFD
:10039000004A4554004449474954414C004E4547A2
:1003A000434F4E00504F50204E00504144004E2FBE
:1003B00041004E4F4E450053574954434800455263
:1003C000524F52004849440058494E505554002B52
:1003D0004E4547005053580047414D45435542450F
:1003E000004E45532B534E45532B56424F59000058
:1003F0000000002300260029002C002F0000030C21
:100400000F30333C3FC0C3CCCFF0F3FCFF00000003
:100410000200090F0000030401000C0000000000AE
:1004200000000000000000000000000044455649A4
:1004300043452057494C4C20524553544152540097
:100440004D4F44453A20005341564544210A004847
:100450004F4C443A2020534156450A0050524553D0
:10046000533A204348414E4745004F555450555448
:10047000204D4F44450A005245464C455800000067
:1004800005072061000000000000005F00006070B0
:10049000787060605048506003070F070303050938
:1004A0000503081C3E7F7F081C22417F7F7F3E1C86
:1004B000087F41221C08082A1C2A0808083E080850
:1004C00000503000000808080808006060000020A4
:1004D000100804023E5149453E00427F40004261FF
:1004E0005149462141454B311814127F102745458B
:1004F00045393C4A494930017109050336494949A2
:1005000036064949291E00363600003C7E7E7E3C78
:100510003C4242423C1414141414F0F0F0F0F0F099
:10052000909090F0324979413E7E1111117E7F49C1
:100530004949363E414141227F4141221C7F494980
:1005400049417F090901013E414151327F080808B4
:100550007F00417F41002040413F017F081422413C
:100560007F404040407F0204027F7F0408107F3EAE
:100570004141413E7F090909063E4151215E7F0903
:10058000192946464949493101017F01013F40404F
:10059000403F1F2040201F7F2018207F6314081435
:1005A000630304780403615149454300007F4141DE
:1005B000020408102041417F0000383C1E0F074014
:1005C00040404040382412090720545454787F4852
:1005D0004444383844444420384444487F385454D0
:1005E0005418087E090102081454543C7F0804047E
:1005F0007800447D40002040443D00007F102844A6
:1006000000417F40007C041804787C08040478389A
:10061000444444387C14141408081414187C7C08CE
:100620000404084854545420043F4440203C4040B3
:10063000207C1C2040201C3C4030403C442810289A
:10064000440C5050503C4464544C44E0E0E0E0E042
:1006500000007F0000E0A0A0A0E008082A1C080815
:100660001C2A08080006090906AC0019804000523F
:1006700045424F4F54494E472E2E2E000000000099
:10068000250028002B002E0031000000000024006F
:1006900027002A002D00300004040404040304058C
:1006A000020202020403020202020606060606060F
:1006B00004040202020404040802011040804010F5
:1006C0002040804080080204018040201002011078
:1006D000801020404020BB3211241FBECFEFDAE053
:1006E000DEBFCDBF15E0A0E0B1E0E0E3F9E602C077
:1006F00005900D92A43DB107D9F728E0A4EDB5E02F
:1007000001C01D92A733B207E1F713E0CCE6D3E0B6
:1007100004C02197FE010E944933CB36D107C9F7A7
:100720000E945A280C9496340C940000CF93DF93C7
:10073000EC018EE495E0998388831A8280E093E04F
:100740009C838B8380E09CE09E838D831F82188630
:1007500081E089878EE1EBEAF1E0DE0150960190BD
:100760000D928A95E1F71FA61EA619AA18AA1BAA20
:100770001AAAFE01F49688E0DF011D928A95E9F736
:100780001CAE1DAE1FAE1EAE3C961182108232967C
:100790008FEF9FE791838083329691838083329697
:1007A0009183808332969183808332961082C55BD9
:1007B000DF4F1882DF91CF91089590E0FC01E9545A
:1007C000F94F24918856994FFC018491882399F020
:1007D00090E0880F991FFC01E657F94FA591B4915D
:1007E000FC01E458F94F859194918FB7F894EC91FE
:1007F000E22BEC938FBF08953FB7F89480911D08CA
:1008000090911E08A0911F08B091200826B5A89BC2
:1008100005C02F3F19F00196A11DB11D3FBFBA2F92
:10082000A92F982F8827BC01CD01620F711D811D52
:10083000911D42E0660F771F881F991F4A95D1F7D7
:1008400008958F929F92AF92BF92CF92DF92EF92D4
:10085000FF924B015C010E94FC036B017C010E9432
:10086000FC036C197D098E099F09683E7340810560
:100870009105A8F321E0821A9108A108B10888EE39
:10088000C80E83E0D81EE11CF11C81149104A10460
:10089000B10429F7FF90EF90DF90CF90BF90AF9019
:1008A0009F908F9008952FB7F894609119087091D8
:1008B0001A0880911B0890911C082FBF0895AF92D1
:1008C000BF92CF92DF92EF92FF920F931F93CF933D
:1008D000DF936C017B018B01040F151FEB015E019F
:1008E000AE18BF08C017D10759F06991D601ED9134
:1008F000FC910190F081E02DC6010995892B79F7D3
:10090000C501DF91CF911F910F91FF90EF90DF9084
:10091000CF90BF90AF900895CF93CFB7F8948091C8
:10092000780781115AC049EA56E0FA01949128ECFF
:1009300036E0F9018491E92FF0E0EE0FFF1FE65752
:10094000F94FA591B4919C91982309F037C0EEE13D
:10095000F4E09491F9012491FA018491882309F437
:100960002DC09923E9F091509F30D0F4E92FF0E0A9
:10097000E454FB4F0C944933FD040105CB04F5040A
:10098000F904D004D004D00404050A050E051205AC
:100990001805D0041C05909180009F7790938000EB
:1009A000E82FF0E0EE0FFF1FE458F94FA591B49146
:1009B0008FB7F8949C91292B2C938FBF81E10E94D3
:1009C000DD038CB580618CBD8CB580648CBD8FE0FF
:1009D0000E94DD0380E10E94DD03809178078F5F34
:1009E00080937807CFBFCF910895909180009F7D2D
:1009F000D5CF90918000977FD1CF94B59F7794BD4C
:100A0000CFCF94B59F7DFBCF909190009F7790932F
:100A10009000C6CF909190009F7DF9CF909190006B
:100A2000977FF5CF9091C0009F779093C000B8CF8B
:100A30009091C0009F7DF9CF9091C200977F9093D5
:100A4000C200AECFCF93DF93EC018A85882329F0D3
:100A500081508A87DF91CF9108959C818E8198176C
:100A6000C8F78D856827E881F9810084F185E02D3C
:100A700042E0CE0109958C818F5F8C83EBCFEF92A2
:100A80000F931F93F901DA012C913E2D30953223FB
:100A90003C9330813E293083FC01D80198E080E00E
:100AA00030E020E04C914E2189F02A95D9F720E0E2
:100AB0004C914E2159F02A95D9F720E84C914E21BE
:100AC00029F02A95D9F73A9561F717C047E04A957A
:100AD000F1F7000031E0550F4C914E2109F05160C3
:100AE0009A9529F45193839598E0681731F020E89E
:100AF0004C914E2111F72A95D9F71F910F91EF9044
:100B000008950F931F93F9012081202B2083DA0190
:100B10002C91202B2C9320814081202B30E010E061
:100B20000095109550E004231523DC015D9148E009
:100B30000083550F40F474E07A95F1F720837AE052
:100B40007A95F1F705C07EE07A95F1F700002083F1
:100B50004A9529F073E07A95F1F70000E9CF6A959C
:100B600029F071E07A95F1F70000E0CF72E07A9514
:100B7000F1F700000000008374E07A95F1F70000BF
:100B8000000020831F910F9108957F928F929F9272
:100B9000AF92BF92CF92DF92EF92FF920F931F938B
:100BA000CF93DF93DB01642F5901F02E282F30E023
:100BB000F901E954F94FE4902856394FF90124918D
:100BC00030E0220F331FF901E657F94FC591D49158
:100BD000F901E458F94FC590D490F901E151FC4F67
:100BE000859094907FB6F8940E2D9601AE01CD01BC
:100BF0000E94810584019601AE016F2DC5010E94FE
:100C00003F057FBEDF91CF911F910F91FF90EF9035
:100C1000DF90CF90BF90AF909F908F907F9008957E
:100C2000CF93DF93FC0187812FEF3FE7813011F4F1
:100C300020E830E8462F50E0DF018FE0689FA00DEC
:100C4000B11D112450969C916185892F837082304B
:100C500021F1833029F0813021F5809377071BC083
:100C6000611111C081E0809377079C70983009F47E
:100C700057C09C30D1F0943009F055C0846093E0A7
:100C8000909376071CC0623061F4809177078823C7
:100C900041F0813021F081E0E8CF8093770782E056
:100CA000E4CF1092770780E0E0CF6230E1F59091D9
:100CB00076079923C1F1933089F194E0892B9FE065
:100CC000949FD001959FB00D1124AE0FBF1F509679
:100CD0008C9350978085EF01C40FD51F813031F17F
:100CE000823009F46CC088A9811108C056963C93E3
:100CF0002E93559758963C932E9357978AA9811116
:100D000055C06FE0649FC001659F900D1124E80FEE
:100D1000F91F328F218F348F238F48C098E0CECFB8
:100D2000886094E0ADCF10927607C9CF8AA981116F
:100D300008C05A963C932E9359975C963C932E93F9
:100D40005B978FE0849FD001859FB00D1124AE0F7B
:100D5000BF1F50968C918C70843071F1883049F5AA
:100D60008FEF9FEF2FE0249FD001259FB00D11241E
:100D7000AE0FBF1F56969C938E93559750968C91AD
:100D8000837030E020E0813031F02FEF3FEF823090
:100D900011F02FEF3FE76FE0649FC001659F900D5A
:100DA0001124E80FF91F308F278B108ADF91CF9124
:100DB00008958FEF9FE7D6CF90E080E0D3CF88A94A
:100DC000811108C056963C932E93559758963C93A4
:100DD0002E9357978FE0849FD001859FB00D1124EB
:100DE000AE0FBF1F50968C918C70843059F18830B3
:100DF00031F58FEF9FEF2FE0249FD001259FB00D9D
:100E00001124AE0FBF1F5A969C938E9359975096FC
:100E10008C91837030E020E0813031F02FEF3FEF94
:100E2000823011F02FEF3FE76FE0649FC001659FB4
:100E3000900D1124E80FF91F348F238FB6CF8FEF59
:100E40009FE7D9CF90E080E0D6CFCF93DF93DC014E
:100E500013962D913C911497C62FD0E0FC018FE0A2
:100E6000689FE00DF11D112461897289C9018623F3
:100E700097232817390709F04BC080898F7082307B
:100E800071F128F48130C9F190E080E021C0843014
:100E900089F08830C9F782E018968C93108A2095E3
:100EA00030958189928928233923328B218B84E0E4
:100EB00090E00EC081E018968C93108A20953095B2
:100EC0008189928928233923328B218B82E090E01B
:100ED0009093750780937407DF91CF9108951896CA
:100EE0001C92108A20953095818992892823392374
:100EF000328B218B81E090E0EBCF108A20953095EA
:100F0000262337233061328B218B88E090E0E0CFBD
:100F100015964D915C9116976423752346175707D4
:100F200009F0B2CF80898F70823009F440C088F414
:100F3000813009F0A9CF19961C92108A40955095DE
:100F40008189928948235923528B418B80E290E01A
:100F5000BFCF8430D9F1883009F096CF80917407E3
:100F6000909175078115924041F01B968C911B97CB
:100F700091E089271B968C931B972FE02C9FC00133
:100F80002D9F900D1124A80FB91F50961C925097B9
:100F90004095509551968D919C9152974823592395
:100FA00052965C934E93519780E092E091CF81E00E
:100FB00019968C93108A409550958189928948237F
:100FC0005923528B418B80E490E082CF82E01996C6
:100FD0008C93108A40955095818992894823592392
:100FE000528B418B80E890E073CF8FB7F89480915B
:100FF00073078FBF089584E98093BC0085E69091C4
:10100000BC0094FF03C08150D1F7089581E008959A
:101010006EBD00000DB407FEFDCF8EB508952A9A6F
:10102000299A8C9A83EC90E00197F1F708952A9A17
:10103000299A469A83EC90E00197F1F70895EF9290
:10104000FF920F931F93CF93FC0185818287868146
:101050009781948783878085918596878587C381CB
:1010600013822C9A8BE290E00197F1F72C9883E1A0
:1010700090E00197F1F730E020E090E080E043E17C
:1010800050E0ACB1A6FB662760F970E0DB01022EF0
:1010900002C0AA0FBB1F0A94E2F78A2B9B2B2D9844
:1010A000DA011197F1F72D9ADA011197F1F72F5F15
:1010B0003F4F2031310529F7492F42954F7051E0BC
:1010C0004D3009F450E170E060E030E020E0A3E151
:1010D000EA2EF12CACB1A6FB002700F910E0D801F4
:1010E000062E02C0AA0FBB1F0A94E2F72A2B3B2B45
:1010F0002D98D7011197F1F72D9AD7011197F1F794
:101100006F5F7F4F651730F38095909520953095F0
:101110004F3029F42E3F5FEF350709F442C0538169
:1011200061E0650F638361E070E0511102C070E01F
:1011300060E0411113C0A92FBB27AF70BB271F97D9
:1011400069F44AE0469FD001479FB00D1124AE0FCD
:10115000BF1F4FE015964C93159713C0542F509511
:1011600052FF45C02AE0269FD001279FB00D1124D1
:10117000AE0FBF1F24E015962C9315975370252FA3
:1011800030E019963C932E9318972AE0269FD001C1
:10119000279FB00D1124AE0FBF1F17969C938E93FF
:1011A000169783818C17E8F44AE09FEF21E030E046
:1011B000811102C030E020E0429FD001439FB00D7A
:1011C0001124AE0FBF1F15969C93159717961C926E
:1011D0001E92169719961C921E9218978F5FC8132D
:1011E000E5CFCF911F910F91FF90EF9008955AE0B6
:1011F000569FD001579FB00D1124AE0FBF1F5FE067
:101200004527A8CF80910B088F5F843018F4809316
:101210000B08089581E0FBCF089588E091E00895E0
:1012200086E595E00895EF92FF920F93CF93DF93B9
:101230001F92CDB7DEB77C01FC018589198203E0DE
:10124000970141E0BE016F5F7F4F0E94C505F70126
:10125000833029F010821182128290E016C08081C2
:10126000918188309042C9F0F701858991E4998392
:1012700097012D5F3F4F0AE041E0BE016F5F7F4F56
:101280000E94C50591E08A3041F7892F0F90DF91C8
:10129000CF910F91FF90EF90089591E0F6CF1F93BB
:1012A000CF93DF93EC0165E070E080E090E00E9476
:1012B000210482E08093A201FE01EC56FF4F808161
:1012C00091810E94130911E018AB1AABFE01EA5696
:1012D000FF4F808191810E94130919AB1BAB62E320
:1012E00070E080E090E0DF91CF911F910C94210499
:1012F000EF92FF920F93CF93DF9300D01F92CDB761
:10130000DEB77C01FC0180819181892BC9F09701B6
:10131000235F3F4FF701858940815181483050421A
:1013200019F594E599831A821B8208E043E0BE0117
:101330006F5F7F4F0E94C505883081F481E005C052
:10134000C7010E9413098111E2CF0F900F900F90F7
:10135000DF91CF910F91FF90EF900895F7011082E8
:101360001182128280E0F1CFF701928193FB9927DD
:1013700090F940E4498343E04A839B8308E0D7CF58
:10138000FC01E656FF4F2081222351F03396208145
:10139000222331F0FC012781223011F423E027833E
:1013A00008958DE091E00895FC01E456FF4F2081FF
:1013B00021111CC032972081222349F083569F4F70
:1013C000FC018081811115C087E795E00895FC013B
:1013D000E556FF4F2081222379F08D559F4FFC0168
:1013E000808181110CC083E895E008958DE595E03A
:1013F000089589E695E0089580EA95E0089584E9E6
:1014000095E008959C01FC01EC56FF4F0190F0819E
:10141000E02D44A155A140955095CA0154E0969500
:1014200087955A95E1F7817090E046FD92E0982B00
:1014300080E047FD84E0982B80E045FD88E0F901DD
:10144000EC55FF4F4081982BF9018FE0489FE00D4C
:10145000F11D1124908B22563F4FD9018C91882386
:1014600019F0982B9F70908B08958CBD9DBD0895A9
:101470008C9880917107909172070E94350A83ECD5
:1014800090E00197F1F70895469880917107909147
:1014900072070E94350A83EC90E00197F1F70895F6
:1014A0008F929F92AF92BF92CF92DF92EF92FF9274
:1014B0000F931F93CF93DF937C016B015A01022F8F
:1014C00010E0D0E0C0E083EC882E912CC017D1074B
:1014D000E1F0D701ED91FC910480F581E02D6AE502
:1014E000C114D10421F0D601AC0FBD1F6C91C7010E
:1014F0000995A114B10421F0F501EC0FFD1F8083C3
:10150000C4010197F1F72196E1CFDF91CF911F91AF
:101510000F91FF90EF90DF90CF90BF90AF909F9092
:101520008F900895CF92DF92EF92FF920F931F93C7
:10153000CF93DF937C016B01D42F8C010E5F1F4F83
:1015400023E0A8010E94500AF70123812F3F61F494
:1015500010E000E0C801DF91CF911F910F91FF9043
:10156000EF90DF90CF90089584818A3511F081113A
:10157000EFCF2F70C22FCC0FD33059F0B6016D5F73
:101580007F4F2DEF2D0FA7014B5F5F4FC7010E94CB
:10159000500A2C2F2D1B2D5FE9F24D2F50E0CA0170
:1015A000820F911D8197A4F6400F511F70E060E0FB
:1015B000C7010E94500ACECFCF92DF92EF92FF92E6
:1015C0000F931F93CF93DF93EC010E9453046B01A1
:1015D0007C01E881F9810190F081E02DCE0109952F
:1015E00044E061EC74E0CE010E94920A8C01E88133
:1015F000F9810280F381E02DCE01099501151105D5
:1016000029F0F8018181807F803F11F56AE070E068
:1016100080E090E00E9421040E9453046C197D092F
:101620008E099F096B3F71058105910590F2C0E01D
:1016300062E370E080E090E00E9421048C2FDF9153
:10164000CF911F910F91FF90EF90DF90CF90089571
:10165000C1E0EECF4F925F926F927F928F929F92F6
:10166000AF92BF92CF92DF92EF92FF920F931F93B0
:10167000CF93DF93CDB7DEB729970FB6F894DEBFCF
:101680000FBECDBFFC01E556FF4FD080D110B9C0D1
:101690008C010C561F4FD801ED90FC900E94530412
:1016A0002B013C01D701ED91FC910190F081E02DDF
:1016B000C701099544E06FEC74E0C7010E94920AEB
:1016C0005C01D701ED91FC910280F381E02DC7010F
:1016D0000995A114B10431F0F5018181807F803F2B
:1016E00009F4A6C06AE070E080E090E00E94210466
:1016F0000E94530464197509860997096B3F7105A7
:101700008105910578F262E370E080E090E00E944C
:101710002104DD2009F475C0D801ED90FC9089E02A
:10172000E1EEF4E0DE01119601900D928A95E1F769
:101730000E9453044B015C01712CD701ED91FC9187
:101740000190F081E02DC701099545E0BE016F5F72
:101750007F4FC7010E94920A6C01D701ED91FC9165
:101760000280F381E02DC7010995CD2809F073941B
:10177000B2E0B71588F06AE070E080E090E00E9487
:1017800021040E945304681979098A099B096B3F57
:1017900071058105910588F262E370E080E090E0D8
:1017A0000E94210481E0F70181AFD801ED90FC9007
:1017B000D701ED91FC910190F081E02DC7010995D1
:1017C00043E068ED74E0C7010E94920A6C01D70102
:1017D000ED91FC910280F381E02DC7010995C114C0
:1017E000D10451F0F6018381833031F488EB9BE022
:1017F0009093A4018093A301D8018D919C910E94A4
:10180000DC0A29960FB6F894DEBF0FBECDBFDF917C
:10181000CF911F910F91FF90EF90DF90CF90BF90ED
:10182000AF909F908F907F906F905F904F900895B2
:10183000DD24D39468CFCF92DF92EF92FF921F9373
:10184000CF93DF93EC01849A3E9A8C9A469AFC01DE
:10185000EA56FF4F808191817E0124E9E20EF11C5E
:10186000D7018D939C932AEF30E03093A40120930D
:10187000A301DC01ED91FC910680F781E02D099533
:10188000FE01E656FF4F6F0110E08823A1F081E0D2
:1018900035968083D701ED91FC91119716A11D9685
:1018A0001C931730B9F481E0FE01E456FF4F8083AA
:1018B000CE010E942A0BD6018C918823D1F082E0C0
:1018C0008093A201DF91CF911F91FF90EF90DF9065
:1018D000CF900895153031F4F6018083FE01E35670
:1018E000FF4FE5CF84A195A18095909580FDDBCF3A
:1018F000DFCFFE01E556FF4F80818111E3CF3196A6
:1019000080818111DFCF1130E9F4D701ED91FC9195
:1019100084A195A1809590959C01207C3327203C43
:10192000310539F485FF05C08EE0FE01E256FF4F18
:10193000808382E08093A20181E088AB8AAB89AB8F
:101940008BABC0CF1230A9F7D701ED91FC9184A1E8
:1019500095A1807A9927892B61F781A593A5992371
:1019600041F38F3F31F788EE93E09093A401809389
:10197000A3018CE0DACFEF92FF920F931F93CF93E6
:10198000DF9300D000D01F92CDB7DEB78C01DC0111
:101990009B961C929B97D8961C92D897ED91FC91A0
:1019A0000190F081E02D0995F80181AD811108C009
:1019B00082AD803409F044C083AD813009F040C06D
:1019C00085E0EAECF4E0DE01119601900D928A9533
:1019D000E1F7D80196968C919697863059F5DC966A
:1019E0008C918C8345E0BE016F5F7F4FC8010E94E0
:1019F000920A7C01D801ED91FC910280F381E02DE7
:101A0000C8010995E114F10441F0F7018181807F5B
:101A1000803FD1F4C8010E94DC0A80E00F900F9053
:101A20000F900F900F90DF91CF911F910F91FF902A
:101A3000EF900895F80182AD8C8383AD8D83D2CF72
:101A400043E06AEC74E0D2CFD80194968D919C91DA
:101A5000959793969C938E93929723813481959634
:101A60003C932E9394978181893781F483E09696F5
:101A70008C93D80196968C919697843041F108F515
:101A8000823029F18330C9F181E0C8CF982F907F4F
:101A9000903719F482E0D801EACF903521F484E040
:101AA000F80186A3E6CF833211F485E0F4CF903EAF
:101AB00011F486E0F5CF833611F487E0ECCF81E0B6
:101AC000EFCF863009F45CC030F18730E9F681E071
:101AD000D8019B968C939B97F701858199968C935F
:101AE000999786819A968C939A97878197968C93EB
:101AF0009797808598968C93C7CF81E0F80180AF47
:101B0000F70139969C96C701459621912D93E817C8
:101B1000F907D9F7DCCF81E09B968C939B97F7016F
:101B2000958197969C939797D8968C93D897868112
:101B3000D2968C93D2979781D3969C93D3974085D6
:101B4000D4964C93D49797FF05C03F7795963C93D6
:101B50002E93949787FF0AC0D80194968D919C91FB
:101B600095979F7B95969C938E939497403F08F40E
:101B70008BCFF80184A195A19B7F95A384A384CFEB
:101B800081E09B968C93F7019681858197FD1AC021
:101B900087FD8FE7D80197968C93D80197968C9103
:101BA0009797805897968C939797F70185819C9685
:101BB0008C939C9786819D968C939D9787819E960A
:101BC0008C9362CF813808F481E8F80187A3E5CFD0
:101BD0008E549F4FFC018081811103C081E091E010
:101BE000089582E091E008958E549F4FFC0180811A
:101BF000811103C081EB95E0089589EA95E008958D
:101C0000FC019081911106C083819481019699F025
:101C100080E008959F3049F4228130E02F7033270F
:101C20002F30310561F482E00895923031F0943024
:101C300031F485E0089583E0089584E0089581E01B
:101C40000895AF92BF92CF92DF92EF92FF920F93DF
:101C50001F93CF93DF93FC01E856FF4F1082249A25
:101C60002C98259A2D9A6E987698769ADC01A9552B
:101C7000BF4F1C92869A8E98859A8D9A87988F98D6
:101C80008F9AA3E2B0E01197F1F7208121114BC0A8
:101C9000EC0182E08093A2017E0184E9E80EF11C50
:101CA000C7010E941F08FE01E956FF4F008110E0A6
:101CB000670185E0C80ED11CCE54DF4F3AE0A32E59
:101CC000BB24BA941017C1F1111108C0C6010E94BB
:101CD000000E91E0853009F090E0988381E090E07B
:101CE000111102C090E080E0A89EF001A99EF00DC5
:101CF0001124EE0DFF1DB582178216821186108603
:101D00000196A89ED001A99EB00D1124AE0DBF1D55
:101D1000BC928681978194878387808591859687F9
:101D200085871F5FCFCF82E08093A20188EE93E08A
:101D30009093A4018093A3018091A3019091A401A9
:101D40008230910538F0880F991F880F991F0597E9
:101D50000197F1F7DF91CF911F910F91FF90EF90D5
:101D6000DF90CF90BF90AF900895FC016093BC00CE
:101D70002FEF3FEF8091BC0087FF06C09091B90024
:101D8000987F908381E008952150310999F780E090
:101D90000895CF93DF93EC016093BB0064E80E9449
:101DA000B50E882329F081E09881983209F080E00F
:101DB000DF91CF910895DF92EF92FF920F931F93DF
:101DC000CF93DF93EC01D62EF42E8989882329F056
:101DD000411103C00E94FB07198A8E01015F1F4F4A
:101DE0008989811119C0E88864EAC8010E94B50E8A
:101DF000882361F08F85883011F0803139F4EE0C42
:101E0000E092BB0064E8C8010E94B50E60E0F110EA
:101E100060E4C8010E94C90E6D2DC8010E94C90E60
:101E200082E0F8120BC089898F5F898BDF91CF9197
:101E30001F910F91FF90EF90DF9008950E94FB0794
:101E4000198AF4CFDC01ED91FC910084F185E02D3D
:101E500040E00994FC012781269526952695621776
:101E600020F46583606B0C94220F08950F931F93E9
:101E7000CF93FC012681621798F4C62F8C016483EE
:101E80006085C60F6C2F6F700E94220F6C2F6295B9
:101E90006F706061C801CF911F910F910C94220F58
:101EA000CF911F910F9108951F93CF93DF93EC0172
:101EB000142F0E94360F612FCE01DF91CF911F9119
:101EC0000C942A0F2F923F924F925F926F927F92C3
:101ED0008F929F92AF92BF92CF92DF92EF92FF923A
:101EE0000F931F93CF93DF9300D000D000D0CDB7D6
:101EF000DEB7FC01238534852115310509F416C1AF
:101F00009E838D83F9013296649031964491E42E3C
:101F1000F12CF7E0EF0EF11C53E0F594E7945A959D
:101F2000E1F7E982F901349654913196E4916D30EC
:101F3000F1F460E00E94360F81E090E026960FB643
:101F4000F894DEBF0FBECDBFDF91CF911F910F91EF
:101F5000FF90EF90DF90CF90BF90AF909F908F90C9
:101F60007F906F905F904F903F902F9008956A30D0
:101F700081F460E08D819E810E94360FED81FE81AB
:101F8000868565818E9D600D1124CF010E942A0FE8
:101F9000D3CF651708F4CAC08E2F90E0FC01E50F7F
:101FA000F11D6E171F060CF0C1C089010A5F1F4F9B
:101FB000651BED81FE8171855685759F502D11241D
:101FC0005C83F90154912F5F3F4FF9012491352F24
:101FD0002230310508F06AC06E9CC0016F9C900DE4
:101FE0001124689FF001699FF00D11240E0F1F1F2F
:101FF000512CED81FE81F481FA83ED81FE812580F3
:10200000F285FB83862C912CAA24A394B12C312C2D
:102010008981381608F086C0412CED81FE818685C5
:10202000481608F078C08B818287311002C04420A6
:1020300041F0ED81FE8145814F5F6A81CF010E94B1
:10204000540FD12CC12CC61408F058C0F801EC0D67
:10205000FD1D7490552061F0EA14FB0449F4E72D4E
:10206000F0E0052C02C0F595E7950A94E2F77E2E84
:10207000ED81FE818685823081F4442009F43AC0E6
:1020800072948FE07822E72DF0E0E350FC4F7490DB
:10209000672D8D819E810E942205672D8D819E81F5
:1020A0000E9422058FEFC81AD80ACDCF477028E0CA
:1020B000522E541A411101C0512CF801612C30E00C
:1020C00020E0661631F04491240F311D639431965F
:1020D000F8CF600E712E711CF3016490E29EF00146
:1020E000E39EF00DF29EF00D11248E0F9F1F080F3E
:1020F000191F7FCFF72DFF707F2EC5CFD12CEC811C
:10210000DE1639F060E08D819E810E942205D39415
:10211000F6CF439482CF3394080D191DFFEFAF1A09
:10212000BF0A76CF622D8D819E8130CF90E080E016
:1021300005CF0F931F93CF93DF938C01D0E0C0E0C6
:10214000F801EC0FFD1F6491662341F081E298E0F5
:102150000E94620F892B11F02196F2CFCE01DF9100
:10216000CF911F910F910895811104C088EC93E0E5
:102170000C949910813019F487EB93E0F9CF8250D9
:10218000853018F484EC93E0F3CF8EEB93E0F0CF3E
:10219000682F81E298E00C94620FCF92DF92EF9269
:1021A000FF920F931F93CF93DF93EC01F62EC42E73
:1021B000D22E1A868F81869586958695081710F0FF
:1021C0000FEF080F1D2D011780F0412F6F2DCE014D
:1021D0000E94540FEF2CCE1430F06D85CE010E947A
:1021E0002205E394F8CF1F5FEECF4D2D6F2DCE016A
:1021F000DF91CF911F910F91FF90EF90DF90CF90E3
:102200000C94540F0F93FC010781069506950695D3
:1022100001504681415020E060E00E94CD100F91B6
:1022200008954F925F926F927F928F92AF92CF926A
:10223000EF92FF920F931F93CF93DF93CDB7DEB74B
:102240002701380194E0899F80011124F801EE5A9A
:10225000F84F80819181A281B3818E219521A621A1
:10226000B72131E0892B8A2B8B2B09F430E03C110C
:1022700003C088898823F1F0C11001C0A82C2D5F0C
:10228000640F422F81E298E00E94540F8A2D0E9431
:10229000C810F801EE5AF84FCC20D1F0808191811E
:1022A000A281B38184299529A629B72980839183A6
:1022B000A283B383DF91CF911F910F91FF90EF9095
:1022C000CF90AF908F907F906F905F904F900895D8
:1022D000409450946094709480819181A281B381E4
:1022E00084219521A621B721E1CF6F927F928F9211
:1022F0009F92AF92BF92CF92DF92EF92FF920F9395
:102300001F93CF93DF933C01D62EC42FE62FF0E02E
:10231000EE0FFF1FE651FB4FB08007E023E0418145
:102320006B2D81E298E00E94CD1047E06B2D81E299
:1023300098E00E94540FC13091F58AEA93E00E9420
:10234000991081E08D15E0F0E301C656DF4F8AEF6A
:10235000680E711C99249394E880F9800A811B818E
:102360009F928F80AE80CC24C3942C814D816B2DA5
:102370008D2D0E94111128960F90C615D70561F773
:10238000DF91CF911F910F91FF90EF90DF90CF9051
:10239000BF90AF909F908F907F906F90089582EB49
:1023A00093E0DF91CF911F910F91FF90EF90DF901D
:1023B000CF90BF90AF909F908F907F906F900C9434
:1023C00099102F923F924F925F926F927F928F92CD
:1023D0009F92AF92BF92CF92DF92EF92FF920F93B4
:1023E0001F93CF93DF93D62E342E3901B02EFC01EC
:1023F000E256FF4F2081EC012E3009F042C0CB5D48
:10240000DE4F2C0123E8421A2EEF520AE62FF0E0AD
:10241000EE0FFF1FE651FB4F9080E880F9800A81A4
:102420001B812C814D81AE808F806114710459F025
:10243000F30184A195A1809590958E219F21CC24B4
:10244000C394892B09F4C12CBF92692D8D2D0E9454
:10245000111128960F90C415D505F9F6DF91CF918B
:102460001F910F91FF90EF90DF90CF90BF90AF90B2
:102470009F908F907F906F905F904F903F902F90A4
:102480000895CB55DF4F912C8EEF282E240E462E2B
:10249000512C440C551CC20186519B4F2C0191E0DC
:1024A000921568F48FEF890D823038F1E5E03E1225
:1024B00006C0992011F188EF890D8230F0F0E88094
:1024C000F9800A811B812C814D81AE808F8061143F
:1024D000710459F0F30184A195A1809590958E2106
:1024E0009F21CC24C394892B09F4C12CBF92F20103
:1024F00060818D2D0E9411110F9093942896F0E128
:102500009F12CDCFABCFEF92FF920F931F93CF933C
:10251000DF937C01D62FC42FE62FF0E0EE0FFF1FD4
:10252000E651FB4F108107E023E04181612F81E2FA
:1025300098E00E94CD1047E0612F81E298E00E9470
:10254000540FC43009F449C070F4C13029F1C230CD
:10255000C1F182EB93E0DF91CF911F910F91FF903A
:10256000EF900C949910C530B9F084E793E0C63031
:1025700081F70E949910D23040F401E030E020E071
:102580004C2F6D2FC7010E94E111DF91CF911F9158
:102590000F91FF90EF900895F701E256FF4F808171
:1025A0008E3019F484EA93E0E4CFF701E656FF4F4A
:1025B0008081811103C085E993E0DBCF8DE993E051
:1025C000D8CFF701E256FF4F80818C3019F481E9B2
:1025D00093E0CFCF87E893E0CCCF8BE793E0C9CFF0
:1025E0006F927F928F929F92AF92BF92CF92DF9223
:1025F000EF92FF920F931F93CF93DF93EC01D62EB0
:10260000742EE62FF0E0EE0FFF1FE651FB4FB08077
:1026100007E023E041816B2D81E298E00E94CD101C
:1026200047E06B2D81E298E00E94540F83E078161A
:1026300019F18715B8F0E2E086E693E07E16F1F036
:1026400082EB93E0DF91CF911F910F91FF90EF907C
:10265000DF90CF90BF90AF909F908F907F906F90C2
:102660000C949910F4E07F1609F442C085E07812CA
:10267000E7CF88E593E002C081E693E00E949910DD
:10268000E2E0DE1631F1FE01EE54FF4F8081882337
:1026900091F13E01FDEC6F1AFEEF7F0ACD55DE4F42
:1026A00099249394F301E080F180028113819F9239
:1026B0008780A680CC24C394248145816B2D8D2DE9
:1026C0000E941111F8E06F0E711C0F906C167D06C0
:1026D00049F7DF91CF911F910F91FF90EF90DF901D
:1026E000CF90BF90AF909F908F907F906F90089504
:1026F0008DE593E0C3CFCD54DF4F612C99249394A3
:1027000082E078121FC0E7E0E615B0F0F3E0F615BE
:10271000C8F0FE01E05AFF4FE080F1800281138192
:102720009F928780A680CC24C394248145816B2D01
:102730008D2D0E9411110F90639428968CE06812E1
:10274000DFCFC7CFFE01E8CF0F9307E022E04FE7CE
:1027500060E081E298E00E94CD1080910B08823009
:1027600071F08330C1F08130F1F46CE081E298E0E7
:102770000E94360F81EE93E00F910C9499106AE25B
:1027800081E298E00E94360F84ED93E00E94991058
:102790008FEC93E0F1CF64E281E298E00E94360F83
:1027A00088ED93E0E9CF0F9108958093A1016EEA3F
:1027B00081116FEA81E298E00E94220F0E94530487
:1027C00060930C0870930D0880930E0890930F0887
:1027D00008952F923F924F925F926F927F928F92C5
:1027E0009F92AF92BF92CF92DF92EF92FF920F93A0
:1027F0001F93CF93DF93CDB7DEB762970FB6F894F0
:10280000DEBF0FBECDBF9C012C553F4F3A872987B5
:10281000D9011C92FC01E556FF4FB081BB83B11179
:102820009AC41C0180915F0734966F012E503109C4
:102830007901811162C08091600781115EC0808141
:1028400081110CC0D9018D919C91DC01ED91FC911D
:102850000680F781E02D0995F601808380935F075C
:10286000810100561F4FD8018C9181110EC0F101DA
:10287000E856FF4F80819181DC01ED91FC9106804B
:10288000F781E02D0995F80180838093600781E04E
:102890000E94D51307E027E04FE760E081E298E06F
:1028A0000E94CD1067E081E298E00E942A0F60E06C
:1028B00081E298E00E94360F80915F0781110BC082
:1028C00080916007811103C082EB93E002C08EEA21
:1028D00093E00E94991062E481E298E00E94360F32
:1028E00090915F0780916007992309F4BCC1811121
:1028F00004C08EEA93E00E9499107DE5872E77E070
:10290000972EEFE56E2EE7E07E2E86016101512CB9
:102910005101F4E9AF0EB11C910124563F4F3D83A4
:102920002C83D7018D919D917D01F5019183808349
:10293000D4011D924D01F30121913F01222309F49D
:10294000FEC3D8012C91211193C1DC01ED91FC91C2
:102950000680F781E02D0995882371F021E0F801C8
:102960002083C1010E942A0BD501ED91FC9146A163
:10297000652DC1010E948312AC81BD818C91882399
:1029800009F4DDC31E82F101EC56FF4FFD83EC8399
:10299000910126563F4F3C872B87C10184569F4F9C
:1029A0009E878D87D101A256BF4FB88BAF87709697
:1029B000F887EF838091A201FE81F81708F0CCC35D
:1029C0008F2F90E0F101E80FF91FE156FF4F2081B2
:1029D000222309F43FC1FC01E35AF84F0081002390
:1029E00009F438C1A985BA85BC90FC01E55BFF4FAD
:1029F000EE0FFF1FE20DF31D0190F081E02DAC8181
:102A0000BD81ED93FC93AB85BC85DC90DD2009F4A2
:102A100010C24B2C512CF201E75AFE4F80818823C3
:102A200031F0108245E06B2DC1010E948312AC8110
:102A3000BD81ED91FC9162A073A084A095A0E7A058
:102A4000D10117967C918D2D6D2D772391F060919A
:102A50001008723009F49AC380E0662351F061E0F7
:102A6000713009F060E091E0713009F090E0862F5C
:102A7000692F90ADF12C9111F4A8F094882309F4FA
:102A80002CC100E010E0992311F002A913A9AF8135
:102A9000B8854C918E2D90E0242F30E0D1015FE07D
:102AA000459FA00DB11D1124BA8BA98B582F442727
:102AB000840F951F56969C938E935597C101820F54
:102AC000931F41E0DC01D0964C93D097733009F00E
:102AD0000DC19E964C939E97D2964C934F2D50E0ED
:102AE000942F8827840F951FA989BA8958969C939B
:102AF0008E935797402F50E0942F8827840F951F6F
:102B00005A969C938E935997412F50E0942F882783
:102B1000840F951F5C969C938E935B9784A195A1DF
:102B200080959095BC01672F772762956F706170D3
:102B30007727AC014427587093FF02C042E050E071
:102B4000462B572BBC016627707295FF02C064E0CC
:102B500070E0462B572BBC016870772783FF02C0BB
:102B600068E070E08FE0829FF001839FF00D1124F8
:102B7000E20DF31D462B572B528B418BC1010E9456
:102B8000020AAF81B8858C9190E09C01295A3E4F92
:102B9000F9014081BC016B5A7E4FFC01ED5AFE4F9A
:102BA0008F5A9E4FE41211C0DB014C91F4120DC0FC
:102BB000408140130AC0DC014C91141306C0DD248F
:102BC000D3946814790409F4D12CD901EC92DB0177
:102BD000FC920083FC011083DD20C9F1F1E0FB15BC
:102BE000B0F131012DEB620E711C7BEF972E440C7E
:102BF000551CC20186519B4F2C0191E0991500F59F
:102C0000D301ED90FD900D911C91AC81BD81ED91B2
:102C1000FC9184A195A1809590958E219F21CC2433
:102C2000C394892B09F4C12C1F92F3018780A680DD
:102C300024814581D2016C918B2D0E9411110F903E
:102C40009394B8E06B0E711CE8E09E12D6CFFB8126
:102C5000FD29FB83EF81F88580818F5F8083FE8172
:102C6000FF5FFE83A7CE811142CE82EB93E043CE7D
:102C7000FC0146A012968C91841519F0C1010E94A6
:102C80002A0BF8014282D501ED91FC91D601D7962D
:102C90009C91D79781AD8823B9F0D5962C9181E08E
:102CA000911101C080E0819582AF23AFD5018D9154
:102CB0009C910E94BB0CF4013197808381115CCE02
:102CC000F801108240E054CE992321F0B0E4B2AF75
:102CD00021E0EBCF12AE13AEE9CF00E0911102A9D3
:102CE000009510E0911113A91095D1CED2961C92A7
:102CF000D297662309F450C09E964C93A989BA894D
:102D00005E960C935E975D961C9384A195A1809529
:102D10009095BC01672F7727629566956770617003
:102D20007727AC014427507194FF02C042E050E085
:102D3000462B572BBC016627747092FF02C060E1DE
:102D400070E0462B572BBC016627787093FF02C0BA
:102D500060E270E0462B572BBC016870772783FF39
:102D600002C060E072E08FE0829FF001839FF00D6F
:102D70001124E20DF31D462B572B528B418B8FE014
:102D8000829FF001839FF00D1124E20DF31D20E8D6
:102D900030E8308F278BF2CE9E961C9244A155A12D
:102DA00040955095BA01672F772762956F706170D3
:102DB0007727CA018827907255FF02C082E090E011
:102DC000862B972BBA016627747052FF02C060E110
:102DD00070E0862B972BBA016627787053FF02C0EC
:102DE00060E270E0862B972B60E470E057FD02C034
:102DF00070E060E0862B972BBA016627707456FF4F
:102E000002C060E870E0862B972BBA0168707727C4
:102E100043FF02C060E072E04FE0429FF001439F39
:102E2000F00D1124E20DF31D862B972B928B818BD5
:102E3000A6CFAD85BE858C9181110CCFFF24F39474
:102E400022A133A184A195A12817390709F4F12CF7
:102E500016A1CB2CD12CF601E55AF84F4F018081F9
:102E6000181729F0412F6B2DC1010E948312E1E058
:102E7000F0E0EC0FFD1FEC0DFD1D10838FEF810FB7
:102E8000853008F002C1C1010E94020AAC81BD81F7
:102E9000ED91FC9124A135A120953095C90184E0E4
:102EA000989F812D9927112481709927A901442782
:102EB000507235FF02C042E050E0842B952B44E075
:102EC00050E037FD02C050E040E0842B952BA90173
:102ED0004427507134FF02C048E050E0842B952B0A
:102EE000A9014427547032FF02C040E150E0842B16
:102EF000952BA9014427587033FF02C040E250E0EF
:102F0000842B952BA9014427517030FF02C040E467
:102F100050E0842B952BA9014427527031FF02C049
:102F200040E850E0842B952BA9014170552720FFE4
:102F300002C040E051E0842B952BA9014870552731
:102F400023FF02C040E052E0842B952BA901427080
:102F5000552721FF02C040E054E0842B952BA901A6
:102F60004470552722FF02C040E058E0A985BA8589
:102F70006C91262F30E0D1017FE0679FA00DB11D3D
:102F80001124842B952B52969C938E93519783A555
:102F9000882309F48BC0153009F488C077A189E82B
:102FA000870F833108F47EC0872F60A590E04FE043
:102FB000429FD001439FB00D1124A20DB31D582F85
:102FC0004427840F951F56969C938E93559789E8B6
:102FD000860F833108F468C0862F90E04FE0429F4F
:102FE000D001439FB00D1124A20DB31D582F4427CB
:102FF000840F951F58969C938E935797C901815BB8
:103000009E4FDC014C91D901A35BBE4F3D0147139C
:1030100003C04C91EF2C4613E02EDC017C93D301CE
:103020006C9383A5882319F0153009F054C08FE004
:10303000829FF001839FF00D1124E20DF31D80E8C3
:1030400090E8928F818F948F838F90E880E8F901C8
:10305000E55BFE4F4081D901A75BBE4F481304C01A
:103060002C91291301C00E2D80839C93002369F0BD
:10307000B1E0BB1550F0EC81FD812081318100E091
:10308000412F6B2DC1010E94E111E1E0F0E0EC0F56
:10309000FD1FEC0DFD1D8081D4018C93BB81BF29E8
:1030A000BB83D8CD80E881CF80E897CF8FE0829F27
:1030B000D001839FB00D1124A20DB31D80E890E8CC
:1030C00056969C938E93559758969C938E935797AC
:1030D00060E870E893CF81A5AF85B8899C919C305A
:1030E00009F480E899E8980F482F933108F440E8F4
:1030F00092A550E06FE0629FF001639FF00D1124F4
:10310000E20DF31D742F6627460F571F528F418F14
:1031100049E8490F433188F0492F50E06FE0629F42
:10312000F001639FF00D1124E20DF31D742F66274B
:10313000460F571F548F438F8ACF40E8EECF0F5F63
:103140001F4F24E0C20ED11C31E0531609F41ACCF3
:1031500055245394E6CB1B828B8162960FB6F8946C
:10316000DEBF0FBECDBFDF91CF911F910F91FF90BA
:10317000EF90DF90CF90BF90AF909F908F907F9017
:103180006F905F904F903F902F900895662309F4C1
:1031900070CC69CC90E080E00895CF93DF93CDB7F9
:1031A000DEB72F970FB6F894DEBF0FBECDBF2091CC
:1031B000A2016217E0F42FE0FE013196DF01322F09
:1031C0001D923A95E9F74FEF5FE75F834E8359878A
:1031D00048875B874A875D874C87DC01269FA00D67
:1031E000B11D1124509601900D922A95E1F72F966A
:1031F0000FB6F894DEBF0FBECDBFDF91CF9108951B
:103200002F923F924F925F926F927F928F929F92F6
:10321000AF92BF92CF92DF92EF92FF920F931F93E4
:10322000CF93DF93CDB7DEB7C755D1090FB6F8946A
:10323000DEBF0FBECDBF3C0180915B01882339F01A
:1032400010925B0140E060E0C3010E947511809123
:103250006F0781116AC080917007811166C08091EB
:103260006D07811109C0F301EC56FF4F80819181F8
:103270000E94780980936D0780936F0780916E0795
:10328000811109C0F301EA56FF4F808191810E94AC
:10329000780980936E078093700781E00E94D513B0
:1032A00007E027E04FE760E081E298E00E94CD1060
:1032B00067E081E298E00E942A0F60E081E298E0F6
:1032C0000E94360F80916F0781110BC080917007AB
:1032D000811103C082EB93E002C08EEA93E00E946A
:1032E000991062E481E298E00E94360F90916F0796
:1032F00080917007992309F4A4C0811104C08EEA5B
:1033000093E00E94991080916F07882329F041E093
:1033100060E0C3010E94751180917007882329F035
:1033200041E061E0C3010E94751121961FAE219713
:1033300022961FAE2297512C10E5A12E13ECB12E30
:1033400005E1402E88EC882E912C8091A201581620
:1033500008F08CC0052D10E0F801E159F84F80818C
:10336000882309F46CC07801EE0CFF1CE60CF71CF6
:1033700024E9E20EF11CD7018D919C910E947809FD
:10338000F801E359F84F6F01882309F45FC0D701B2
:103390002D913C9195E1F901DE019B9601900D92F2
:1033A0009A95E1F7409EA001419E500D1124E1E065
:1033B000F0E0EC0FFD1F4E0F5F1FBA96DA01942D5F
:1033C00001900D929A95E1F7DA014D915C91FF24FD
:1033D000F3944115510509F4F12CF30197819111F2
:1033E00019C041155105B1F0000F111F000F111F39
:1033F000E00FF11F95A9911105C081E097A99111E6
:1034000001C080E0D90112969C91129780FB93F93C
:1034100012969C93F601808181110FC0452B69F0B3
:10342000652DC3010E94CD189092A4018092A30142
:1034300041E0652DC3010E947511D601FC925394A1
:1034400084CF81115ACF82EB93E05BCF652DC3010E
:103450000E94CD18B092A401A092A30140E0652D76
:10346000C3010E947511F6011082E9CF23961FAEA9
:103470002397930128563F4F64963FAF2EAF649732
:10348000B30167567F4F66967FAF6EAF6697C301F5
:1034900086509F4F68969FAF8EAF68978091A2012C
:1034A00023969FAD2397981708F08AC3492E512C75
:1034B000F201E359F84F8081882309F44FC385E175
:1034C000849DF001859DF00D1124A1E0B0E0AC0FCA
:1034D000BD1FEA0FFB1F958586859C0129963FAF8E
:1034E0002EAF2997D201AA0FBB1FA759B84F2D9114
:1034F0003C914785D201A959B84F8C91082E000CF8
:10350000990B4817190611F55089D201AB59B84FDC
:103510008C91082E000C990B58171906B9F4518993
:10352000D201AD59B84F8C91082E000C990B581749
:10353000190661F45289F201EF59F84F8081082E83
:10354000000C990B5817190609F45CC3E0E4F0E08D
:10355000EC0FFD1FE40DF51D81E029966EAD7FADEA
:1035600029972617370709F480E08083F301E40DDB
:10357000F51D16A685E1849DD001859DB00D112411
:1035800081E090E08C0F9D1FA80FB91F1E969C91A3
:1035900093FB222720F982E092FF80E0822B95E1C5
:1035A000949DD001959DB00D112421E030E02C0FA9
:1035B0003D1FA20FB31F1E969C9190FFD7C294E0AF
:1035C000892B95E1949DD001959DB00D112461E06A
:1035D00070E06C0F7D1FA60FB71F1E969C9191FF88
:1035E000C7C298E02FE0249DD001259DB00D112485
:1035F000A60DB71D892B50968C9385E1849DD00133
:10360000859DB00D112481E090E08C0F9D1FA80FC7
:10361000B91F1D968C9181FB992790F961969FAFF8
:10362000619762961FAE629722E030E080FD02C093
:1036300030E020E06296AEADBFAD62972A2B3B2B07
:1036400085E1849DD001859DB00D112461E070E07D
:103650006C0F7D1FA60FB71F1D968C9183FF8AC22A
:1036600084E090E0822B932B25E1249DD001259DC1
:10367000B00D112421E030E02C0F3D1FA20FB31F2D
:103680001D962C9122FF79C228E030E0822B932BEB
:1036900025E1249DD001259DB00D112461E070E04D
:1036A0006C0F7D1FA60FB71F53963C9160E470E02E
:1036B000333310F470E060E0862B972B25E1249DD6
:1036C000D001259DB00D112461E070E06C0F7D1FCD
:1036D000A60FB71F54962C9160E870E0233310F4C6
:1036E00070E060E0862B972B55E1549DD001559DED
:1036F000B00D112461E070E06C0F7D1FA60FB71FA5
:103700001E965C9160E071E054FD02C070E060E0E4
:10371000862B972B55E1549DD001559DB00D11245A
:1037200061E070E06C0F7D1FA60FB71F1D965C91C6
:1037300060E072E054FD02C070E060E05FE0549D24
:10374000D001559DB00D1124A60DB71D862B972BCA
:1037500052969C938E935197D30117968C91882300
:1037600031F090911008992391F1813081F5B1E009
:10377000B6A7303208F430E0203208F420E085E1CA
:10378000849DF001859DF00D112461E070E06C0FC7
:103790007D1FE60FF71F868586FD3FEF85E1849D3F
:1037A000F001859DF00D112481E090E08C0F9D1FAC
:1037B000E80FF91F868585FD2FEF8FE0849DF001CE
:1037C000859DF00D1124E60DF71D358F268F64962B
:1037D000AEADBFAD6497CC906696EEADFFAD66978B
:1037E00080814C1508F0CCC195E1949DF001959D28
:1037F000F00D112421E030E02C0F3D1FE20FF31FEC
:10380000C78695E1949DF001959DF00D1124A1E0EE
:10381000B0E0AC0FBD1FEA0FFB1F90899C1508F0AC
:10382000C0C1C08A95E1949DF001959DF00D1124D1
:1038300021E030E02C0F3D1FE20FF31F91899C1512
:1038400008F0B4C1C18A95E1949DF001959DF00DF9
:10385000112461E070E06C0F7D1FE60FF71F928965
:103860009C1508F0A8C1C28A882E912CB12CA12CDD
:10387000D12CF12CE12C85E1849DF001859DF00D8A
:10388000112481E090E08C0F9D1FE80FF91F9785B0
:103890002E969FAF2E97C501B4016C197D098E0934
:1038A0009F092D966CAF7DAF8EAF9FAF2D972E9653
:1038B0007FAD2E97272F30E050E040E02C193D09D6
:1038C0004E095F09AFEFB0E00E940D332D962CAD8D
:1038D0003DAD4EAD5FAD2D970E94EE32822F275742
:1038E000233108F480E8282F30E08FE0849DF00138
:1038F000859DF00D1124E60DF71D922F8827820F6C
:10390000931F968B858B85E1849DF001859DF00D3D
:10391000112481E090E08C0F9D1FE80FF91F908922
:103920002F969FAF2F97C701B601681979098A09A9
:103930009B0927966CAF7DAF8EAF9FAF27972F96D1
:103940007FAD2F97272F30E050E040E0281939094C
:103950004A095B09AFEFB0E00E940D3327962CAD0A
:103960003DAD4EAD5FAD27970E94EE32822F2757B7
:10397000233108F480E8282F30E08FE0849DF001A7
:10398000859DF00D1124E60DF71D922F8827820FDB
:10399000931F908F878B85E1849DF001859DF00DAD
:1039A000112481E090E08C0F9D1FE80FF91F918991
:1039B00060969FAF6097292F30E050E040E02C19CF
:1039C0003D094E095F09AFEFB0E00E940D332D961F
:1039D0002CAD3DAD4EAD5FAD2D970E94EE32822FE6
:1039E0002757233108F480E8282F30E08FE0849DAA
:1039F000F001859DF00D1124E60DF71D922F88270B
:103A0000820F931F928F818F85E1849DF001859DA8
:103A1000F00D1124A1E0B0E0AC0FBD1FEA0FFB1FB9
:103A2000D2882D2D30E050E040E0281939094A09AC
:103A30005B09AFEFB0E00E940D3327962CAD3DAD92
:103A40004EAD5FAD27970E94EE32822F275723316C
:103A500008F480E890E02FE0249DF001259DF00D12
:103A60001124E60DF71D382F2227820F931F948F04
:103A7000838F1301BAE92B0E311C29968EAD9FADB1
:103A80002997BC0190E080E02D966CAF7DAF8EAFA2
:103A90009FAF2D97D201AA0FBB1F2596BFAFAEAF28
:103AA0002597FD01E651FB4FB080F101E080F180E8
:103AB000028113812D968CAD9DADAEADBFAD2D971E
:103AC0008E219F21A023B123CC24C394892B8A2B40
:103AD0008B2B09F4C12C1F92D10117968C9017974C
:103AE0001696AC90169714962C91149715964C91A7
:103AF0006B2D23968FAD23970E941111B8E02B0EEA
:103B0000311C0F906896EEADFFAD6897E215F30596
:103B100061F62596EEADFFAD2597E759F84F29964A
:103B20002EAD3FAD299731832083F201E959F84F3B
:103B30002E963FAD2E973083F201EB59F84F2F961A
:103B40006FAD2F976083F201ED59F84F60967FAD0E
:103B500060977083F201EF59F84FD08223968FADB2
:103B600023978F5F23968FAF239798CC90E028CD33
:103B700090E038CD90E080E075CD30E020E086CD5B
:103B8000841708F03ECE95E1949DF001959DF00DCF
:103B9000112461E070E06C0F7D1FE60FF71F87872F
:103BA00030CE891708F03ECE808B3CCE891708F0C6
:103BB0004ACE818B48CE891708F056CE828B54CEE0
:103BC00021968FAD2197811103C022968FAD229748
:103BD000C95ADF4F0FB6F894DEBF0FBECDBFDF91DD
:103BE000CF911F910F91FF90EF90DF90CF90BF90FA
:103BF000AF909F908F907F906F905F904F903F908D
:103C00002F9008952996AEADBFAD29972A173B078F
:103C100009F4A4CF9BCC2F923F924F925F926F9268
:103C20007F928F929F92AF92BF92CF92DF92EF924C
:103C3000FF920F931F93CF93DF93CDB7DEB76697B5
:103C40000FB6F894DEBF0FBECDBF3C0186E0FE018B
:103C50003196DF011D928A95E9F78091480188230A
:103C600081F0109248018091A201833050F045E02C
:103C700064E281E298E00E94540F8AE693E00E9499
:103C80009910F301EC56FF4FFA8BE98BCF010E949C
:103C90001F08F301E855FF4F808185838181928160
:103CA0009783868383819481918780873597D3809A
:103CB00013828E9A8BE290E00197F1F78E9883E160
:103CC00090E00197F1F750E040E0512C412C63E186
:103CD00070E02FB1022E000C330B2227330F221F6E
:103CE0003327042E02C0220F331F0A94E2F7422A20
:103CF000532A8D98CB010197F1F78D9ACB0101974B
:103D0000F1F74F5F5F4F4031510519F7452D42954F
:103D10004F7050E14D3009F051E070E060E030E06C
:103D200020E013E1E12EF12C0FB1002E000C110B5D
:103D30000027110F001F1127062E02C0000F111FB0
:103D40000A94E2F7202B312B8D98C7010197F1F7E8
:103D50008D9AC7010197F1F76F5F7F4F651720F3C9
:103D600040945094209530954F3029F42E3F8FEF9A
:103D7000380709F445C0838191E0980F938361E08F
:103D800070E0811102C070E060E0411114C0852D27
:103D900099278F7099270F9771F44AE0469FC001C9
:103DA000479F900D11248E0F9F1F4FE0DC01159649
:103DB0004C93159714C0942F909592FF89C08AE078
:103DC000869FA001879F500D11244E0F5F1F84E036
:103DD000DA0115968C9315979370292F30E0199678
:103DE0003C932E9318972AE0269FC001279F900DA1
:103DF00011248E0F9F1FDC0117965C924E9216972E
:103E0000B381BE87BD15F8F42B2F6AE03FEF41E088
:103E100050E0211102C050E040E0649FC001659F66
:103E2000900D11248E0F9F1FDC0115963C93159762
:103E300017961C921E92169719961C921E9218970E
:103E40002F5FD212E4CFF301E956FF4F9080BE8579
:103E5000B90DBD8779866886788A6F86B12CF12C7A
:103E60003C96FC8BEB8B93012E543F4F3E8B2D8B5E
:103E70001091A2013D85B31609F463C2B11609F48D
:103E800060C2DD24D394B91408F4D12C21E030E0D1
:103E9000B91448F5B11002C030E020E04AE0429F7A
:103EA000C001439F900D1124059629883A88280E59
:103EB000391E123061F5992039F1C1010E94000EBE
:103EC000E1E0F0E0EC0FFD1FED0DF11D80831FC060
:103ED0005AE0569FC001579F900D11248E0F9F1FCF
:103EE0005FE0452763CFB91002C030E020E04AE030
:103EF000429FC001439F900D112405962B883C885A
:103F0000280E391E123019F48E858111D6CFD101B9
:103F10009C9115968C911597981316C011962D911A
:103F20003C91129716968D919C91179728173907F7
:103F300059F413962D913C91149718968D919C915C
:103F40002817390709F47AC0EF85F88912AAD10138
:103F50008C9115969C91159789130CC0811118C0EE
:103F600013968D919C91019699F4F101808591852C
:103F7000019671F06B2DC3010E94CD18123041F4EF
:103F8000C1010E94000E482F6D2DC3010E94F01246
:103F9000C1010E94000E8A87D10111962D913C919A
:103FA000C90154E0969587955A95E1F7982F91703D
:103FB00082E025FF80E0892B94E026FF90E0892BAA
:103FC00098E027FF90E0892BE885F985808BD10167
:103FD00011962D913C91BA85A90141705527B230B7
:103FE000C9F582E090E021FD02C090E080E0842BE2
:103FF000952BE885F985928B818BF101218180E0F9
:1040000091E022FD02C090E080E023FFFDC020E0AF
:1040100032E0A885B98551964D915C915297842BD9
:10402000952B822B932B52969C938E935197809134
:10403000A201823009F4EBC0FF24F394B394888585
:1040400099850F9699878887AF85B8891196B88B1F
:10405000AF870ECF82E090E030FD02C090E080E0BC
:10406000842B952B44E050E021FD02C050E040E05D
:10407000842B952B48E050E031FD02C050E040E039
:10408000842B952B40E150E032FD02C050E040E02F
:10409000842B952B33FF92C020E230E0822B932BB0
:1040A000A885B98552969C938E935197BA85B43062
:1040B00009F08AC0F1014381548160E470E052FD4F
:1040C00002C070E060E020E830E055FD02C030E062
:1040D00020E0862B972BE0E0F4E053FD02C0F0E0F7
:1040E000E0E0282B392B60E078E054FD02C070E05E
:1040F00060E02E2B3F2B80E090E157FD02C090E066
:1041000080E0262B372B282B392BA885B985529692
:104110003C932E935197F10123813481A901417081
:10412000552782E090E021FD02C090E080E0842BE2
:10413000952B44E050E022FD02C050E040E0842B8B
:10414000952B48E050E023FD02C050E040E0842B76
:10415000952B40E150E024FD02C050E040E0842B6C
:10416000952B40E250E025FD02C050E040E0842B5A
:10417000952B40E450E026FD02C050E040E0842B47
:10418000952B40E850E027FD02C050E040E0842B32
:10419000952B40E051E030FD02C050E040E0842B20
:1041A000952B31FF0EC020E032E0822B932BA885A7
:1041B000B98554969C938E9353971FCF30E020E09F
:1041C0006DCF30E020E0F1CFBA85B53009F015CFE2
:1041D000F10123813481A9014170552720FF02C0DC
:1041E00040E450E021FF0DC020E830E0842B952B07
:1041F000822B932BA885B98552969C938E935197C9
:10420000FCCE30E020E0F2CF30E020E002CFED89BC
:10421000FE8980812301882309F455C0FDEC4F1AE3
:10422000FEEF5F0A1F82ED2DF0E0EE0FFF1FE6515B
:10423000FB4F20812B87D201ED90FD900D911C91B9
:10424000139714962C91149715964C9115971696D2
:10425000AC90169717968C90BF81BC3010F5EA850C
:10426000E23091F4B83080F01F92C12C6B858D2D17
:104270000E9411110F90FF81FF5FFF8328E0420E23
:10428000511CFE30C1F6D8CED10111968D919C9172
:104290008E219F21CC24C394892B09F4C12C1F9219
:1042A000E5CFBA85B530D1F7F10163817481D801CA
:1042B000C7013CE0B695A795979587953A95D1F7B4
:1042C00086239723E7CF33EB430E511C1F828D2D9E
:1042D00090E0880F991FDC01A651BB4FBC87AB87CC
:1042E000BA85B23061F5EF81E83000F5E43038F599
:1042F000F201E05AFF4FE080F18002811381D10189
:1043000011968D919C918E219F21CC24C394892B51
:1043100009F4C12C1F928780A68024814581EB85FA
:10432000FC8560818D2D0E9411110F90FF81FF5F30
:10433000FF8328E0420E511CFC3091F67DCEF20145
:10434000DACF0981123059F480914201801739F097
:10435000011105C040E060E0C3010E94F01200932B
:1043600042011A818091A201823059F48091430167
:10437000811739F0111105C040E061E0C3010E94CE
:10438000F0121093430110915A07BD85B11760F4E4
:10439000DB2E8091A2018D1539F06D2DC3010E9495
:1043A000CD18D394D116A8F3ED85E0935A078F2D3D
:1043B00066960FB6F894DEBF0FBECDBFDF91CF91EA
:1043C0001F910F91FF90EF90DF90CF90BF90AF9033
:1043D0009F908F907F906F905F904F903F902F9025
:1043E0000895FC0180911007909111078617970797
:1043F000A0F06115710529F49091E8009E779093E3
:10440000E80090E06115710551F4911108C08091A8
:10441000E80082FF35C080E00895BC01F2CF8091B2
:1044200007088823C9F18530C9F18091E80083FD30
:1044300031C08091E80082FDEACF8091E80080FFE2
:10444000E1CF2091F3008091F200322F282F6115E7
:10445000710519F02034310558F091E02034310510
:1044600009F090E02091E8002E772093E800CACF71
:1044700081918093F100615071092F5F3F4FE7CF29
:1044800080910708882341F0853041F08091E80051
:1044900083FFBDCF81E0089582E0089583E0089511
:1044A0002091E4003091E50085E69091EC0090FFCA
:1044B00006C09091E80090FF06C080E008959091BA
:1044C000E80092FDFACF90910708992391F095307A
:1044D00091F09091EB0095FD10C04091E400509157
:1044E000E5002417350709F381509A01F1F684E0BD
:1044F000089582E0089583E0089581E00895809111
:104500000A0787FF13C08091E80082FF06C08091F0
:10451000E8008B778093E80004C080910708811140
:10452000F2CF0895809107088823D9F38091E8009D
:1045300080FFF8CF8091E8008E77ECCF982F9730EE
:1045400028F08F708093E90081E008959093E9004E
:10455000242F762F50E0981731F07091EC002091C5
:10456000ED005091F00021FD02C09F5FE8CF309137
:10457000EB003E7F3093EB003091ED003D7F3093B8
:10458000ED003091EB0031603093EB007093EC0064
:104590002093ED005093F0002091EE0027FDE5CF31
:1045A00080E0089542E050E069EB75E081E298E038
:1045B0000C945F04CF93DF930E949910EC010E944A
:1045C000D2228C0F9D1FDF91CF9108950E947434E9
:1045D000EF92FF920F931F93CF93DF9300D0CDB74D
:1045E000DEB780910708882309F4DBC08091E900D9
:1045F0008F709091EC0090FF4FC090E8F92EF82A50
:104600001092E9008091E80083FFC7C0EAE0F7E07C
:104610008091F100819327E0E231F207C9F7E09041
:104620000B0781E0E8121DC080910A07813AC9F4A6
:104630008091E800877F8093E80080910C0790913B
:104640000D078115934051F568E070E080E091E03E
:104650000E94F121E09211088091E8008B7780930D
:10466000E8008091E80083FF8AC080910A0790915A
:104670000B079A3008F083C0E92FF0E0EE5BFC4DA9
:104680000C9449339223B823BF23B823BF231924A2
:104690003B24BF236E267B2690E0B0CFE091060836
:1046A000E730D0F6F0E0E95AFC4D0C9449335E2334
:1046B00065236A236F23742379238D2364E170E0DB
:1046C0008AE096E00E94F121C7CF60E470E087EFB6
:1046D00095E0F8CF60E470E08FEE95E0F3CF60E412
:1046E00070E087EE95E0EECF60E470E080EE95E05C
:1046F000E9CF81E08093DC0582E08093D905809149
:104700000E0790910F0760E470E0892B19F48CED8F
:1047100095E0D8CF89ED95E0D5CF60E470E084EDE9
:1047200095E0D0CF803889F0823849F580910E0726
:104730008F70873020F58093E9008091EB0085FB36
:10474000882780F91092E90004C0809179078111CF
:104750000DC09091E800977F9093E8008093F1005E
:104760001092F1008091E8008E7732C082E0F1CFA4
:10477000282F2D7F21F48823E9F0823071F1809178
:10478000E80083FF0AC08091E800877F8093E800FB
:104790008091EB0080628093EB008F2D8F7080936F
:1047A000E9000F900F90DF91CF911F910F91FF9033
:1047B000EF90089580910C07813009F7933009F04C
:1047C00080E0809379071092E9008091E800877F6C
:1047D0008093E8000E947F22D2CF80910C07811144
:1047E000F2CF80910E078F702FEF280F263038F60A
:1047F0008093E9002091EB0020FFE5CF933031F466
:104800008091EB0080628093EB00DDCF9091EB0014
:1048100090619093EB0021E030E001C0220F8A9577
:10482000EAF72093EA001092EA008091EB0088609A
:10483000EACF8111A4CF10910C071F778091E3007C
:104840008078812B8093E3008091E800877F8093BC
:10485000E8000E947F228091E80080FFFCCF8091D9
:10486000E30080688093E30083E0111101C082E0DF
:104870008093070884CF8058823008F080CF209141
:104880000C0730910D071A821982832F99278330E4
:10489000910509F41CC1D0F481309105A9F102976A
:1048A00009F45DC069817A816115710509F467CFEA
:1048B0008091E800877F8093E800C8010E94F12181
:1048C0008091E8008B778093E80059CF8132910581
:1048D00009F49FC1829731F780910608843009F46A
:1048E000E7C108F0BBC1813009F4C8C1833009F4C5
:1048F000D4C146E450E06AE671E084E796E00E94A5
:10490000CF3286E490E0C4C180910608882399F0F4
:10491000813001F100917F071091800742E150E062
:1049200065EC70E08EE196E00E94CF3200932A069B
:1049300010932B0608C042E150E069EE70E08EE172
:1049400096E00E94CF3282E190E09A8389830EE163
:1049500016E0A8CF42E150E067ED70E0F0CF0091A3
:104960007E0710910608113009F456C008F44DC0B6
:10497000153009F496C01350143008F0A1C0E12F8F
:10498000F0E0E156FB4F108149E050E064E171E056
:1049900080E396E00E94CF3299E1099F902D112487
:1049A000975F9093320600933406002309F48AC07F
:1049B00049E150E06BEF70E089E396E00E94CF326E
:1049C00010923B061093490681E880934D06023011
:1049D00008F478C049E150E06BEF70E082E596E0C2
:1049E0000E94CF3281E0809354061093620682E8E1
:1049F00080936606023009F465C049E150E06BEF30
:104A000070E08BE696E00E94CF3281E390E09A83DB
:104A100089830EE614E046CF49E050E068E571E096
:104A200080E396E00E94CF3299E1099F902D1124F6
:104A3000975F9093320600933406002361F149E1B9
:104A400050E06FE371E089E396E00E94CF3210926C
:104A50003B064CE6E42EE092490681E880934D0641
:104A60000230C8F049E150E06FE371E082E596E082
:104A70000E94CF3210935406E092620682E880933F
:104A80006606023041F049E150E06FE371E08BE6E9
:104A900096E00E94CF32B9E10B9FC0011124099624
:104AA0000AC042E250E06DE171E080E396E00E94CE
:104AB000CF3282E290E09A83898300E316E0F2CE5F
:104AC00016E462CFE9E10E9FC0011124E8CFC901CD
:104AD00099278230910549F18330910509F441C04D
:104AE0008130910509F04AC080910608813089F42F
:104AF00044E351E0DA010D900020E9F7AD014553A0
:104B0000514064E371E0CE0101960E942C288C0193
:104B1000C9CE47E251E0FA0101900020E9F7AF0168
:104B20004852514067E271E0EECF80910608813033
:104B300061F445E151E0DA010D900020E9F7AD01A3
:104B40004651514065E171E0DECF48E051E0FA01A5
:104B500001900020E9F7AF014950514068E071E051
:104B6000D2CF60917C0770917D07FB0101900020FE
:104B7000E9F73197AF01461B570BC5CF6CE674E0E0
:104B8000E1E0222331F1253039F523EB34E0E0E098
:104B9000FCE0FE0FD9011D919D018E2F90E0019642
:104BA00070E060E0412F42954F7050E044545A4FFE
:104BB000DA014C91DC014C93EE5F90E0A12FAF70D5
:104BC000B0E0A454BA4F4C91DC0111964C93EF1312
:104BD000E1CF4E2F50E097CF20910608880F991F04
:104BE000222329F0213049F08D559B4F02C0875474
:104BF0009B4FFC016081718105C085559B4FDC0195
:104C00006D917C91FB0101900020E9F73197E61B43
:104C1000E0CF1091060849E050E061E671E08BE6D4
:104C200096E00E94CF328BE5143079F040F48CE6A8
:104C3000113059F089E5133041F086E406C081E572
:104C4000153019F087E31630C1F78093720689E0BA
:104C500090E09A8389830BE616E024CE853099F1A3
:104C6000863009F046CE47E350E060EB71E084E720
:104C700096E00E94CF3287E390E00AC04CE650E015
:104C80006CEE72E084E796E00E94CF328CE690E012
:104C90009A83898304E716E005CE49E550E063E98D
:104CA00072E084E796E00E94CF3289E590E0F0CF91
:104CB0004BE550E068E372E084E796E00E94CF3273
:104CC0008BE590E0E5CF41E550E067EE71E084E7E9
:104CD00096E00E94CF3281E590E0DACF803809F08B
:104CE0004ECD8091E800877F8093E80080917A071D
:104CF0008093F10037CD811142CD10910C07123015
:104D000008F03DCD8091E800877F8093E800109304
:104D10007A070E947F221123F9F084E0809307082C
:104D2000009106080023F1F042E360EC82E00E946B
:104D30009E2211E080917E07811708F420CD812FFB
:104D40008F70873020F442E361EC0E949E22053090
:104D500009F415CD1F5FEECF8091E30087FDDDCF15
:104D600081E0DCCF42E261EC81E00E949E2246E2DB
:104D700060EC82E00E949E2202CD0F931F93CF939E
:104D8000DF938C01EB018091E80085FD10C08091DC
:104D9000E8008B778093E8000E94E8220E9450226E
:104DA000882389F3DF91CF911F910F91089580910E
:104DB000F100F80181938F01219729F780E0F2CF6C
:104DC0001F920F920FB60F9211242F933F938F9340
:104DD0009F93AF93BF938091190890911A08A09167
:104DE0001B08B0911C083091180823E0230F2D37C1
:104DF00058F50196A11DB11D20931808809319083C
:104E000090931A08A0931B08B0931C0880911D086A
:104E100090911E08A0911F08B09120080196A11D35
:104E2000B11D80931D0890931E08A0931F08B09396
:104E30002008BF91AF919F918F913F912F910F903B
:104E40000FBE0F901F90189526E8230F0296A11D04
:104E5000B11DD2CF1F93CF93DF93EC0180E88FA3D6
:104E600088A789A78AA71BA6FE01BC968CE0DF0154
:104E70001D928A95E9F71EA219AE1AAE1BAE1CAEA2
:104E800015E0CE010E94BB0C61E070E080E090E094
:104E90000E9421041150A9F7CE01DF91CF911F91FB
:104EA0000C94BB0CCF93DF93EC01849A8C9A229ADA
:104EB0002A9A219A299A23982B982B9A0E948C043B
:104EC000CE01DF91CF910C942A27CF93DF93EC0191
:104ED0003E9A469A229A2A9A219A299A23982B989E
:104EE0002B9A0E948C04CE01DF91CF910C942A273B
:104EF0001F920F920FB60F9211242F933F934F934F
:104F00005F936F937F938F939F93AF93BF93EF9331
:104F1000FF938091DA0080FF17C08091D80080FF56
:104F200013C08091DA008E7F8093DA008091D900DF
:104F300080FF86C080E189BD82E189BD09B400FEA1
:104F4000FDCF81E0809307088091E10080FF17C0CA
:104F50008091E20080FF13C08091E2008E7F8093F9
:104F6000E2008091E20080618093E2008091D800AD
:104F700080628093D80019BC85E0809307088091F7
:104F8000E10084FF26C08091E20084FF22C080E11E
:104F900089BD82E189BD09B400FEFDCF8091D800B2
:104FA0008F7D8093D8008091E1008F7E8093E10017
:104FB0008091E2008F7E8093E2008091E200816028
:104FC0008093E20080917A078823F1F184E0809356
:104FD00007088091E10083FF22C08091E20083FFF7
:104FE0001EC08091E100877F8093E10082E0809382
:104FF000070810927A078091E1008E7F8093E1008C
:105000008091E2008E7F8093E2008091E2008061D7
:105010008093E20042E360E080E00E949E22FF91E4
:10502000EF91BF91AF919F918F917F916F915F9120
:105030004F913F912F910F900FBE0F901F90189599
:1050400019BC1092070880CF8091E30087FD02C051
:1050500081E0BDCF83E0BBCFCF93DF93DC01403253
:10506000510514F04FE150E090E0292F30E0241773
:10507000350784F04F5F5F4F440F551F4D935C938E
:105080005360509313074093120782E197E0DF913A
:10509000CF910895F901EE0FFF1FEC5EF84F260F38
:1050A000371FE9012881022E000C330B3183208346
:1050B0009F5FDBCFCF93DF93CDB7DEB729970FB6D6
:1050C000F894DEBF0FBECDBF789484B5826084BDF6
:1050D00084B5816084BD85B5826085BD85B58160FC
:1050E00085BD80916E00816080936E00109281007A
:1050F0008091810082608093810080918100816035
:1051000080938100809180008160809380008091F5
:1051100091008260809391008091910081608093E2
:105120009100809190008160809390008091C100F7
:1051300084608093C1008091C10082608093C1002F
:105140008091C10081608093C1008091C300816023
:105150008093C3008091C00082608093C0008091E2
:10516000C20081608093C20080917A008460809345
:105170007A0080917A00826080937A0080917A0030
:10518000816080937A0080917A00806880937A00B1
:1051900056985E9A1092110890E080E00E94D832F2
:1051A000843008F07DC080930B0880910B0882301A
:1051B00009F478C0833009F4CFC08130D1F583EA97
:1051C00091E00E944F338C010E94960380E095E0AD
:1051D000D8018D939C93F801EC56FF4F13821482F3
:1051E0008AE03596DF01B82E1D92BA94E9F73A9617
:1051F000138214823596DF011D928A95E9F73A965B
:105200001082D801AD54BF4F80E8E9ECF1E0019085
:105210000D928A95E1F7D801AD5CBE4F80E7E9E4D5
:10522000F2E001900D928A95E1F710931308009334
:105230001208109232088CE3809331081092B90062
:1052400084E48093BC008CE08093B8001092250821
:1052500010922608E9E6F6E0C590D490EBE6F6E079
:10526000F490ECE6F6E0E491E0932708EDE6F6E052
:10527000E491E0932808EEE6F6E0E491E093290853
:1052800010E000E00F1508F099C0F601E00FF11FE3
:10529000649181E298E00E94220F0F5F1F4FF2CFCE
:1052A00081E081CF8DE791E00E944F338C010E9415
:1052B00096038AE295E0F8019183808381E490E08F
:1052C0000E944F33F1E4FF2EDC01EF2D1D92EA9591
:1052D000E9F72EE135E0DC012D933C93F801EA5625
:1052E000FF4F9183808381E490E00E944F33FC0163
:1052F0001192FA94E9F722E135E0DC012D933C9319
:10530000F801E856FF4F91838083329610823196E0
:105310001082319610823196108231961082319629
:105320001082319610823196108231961082319619
:10533000108231961082D801AB55BF4F80E8E9EB5F
:10534000F2E001900D928A95E1F7D801AB5DBE4F76
:1053500088E5E9E3F3E065CF8AEF90E00E944F3300
:105360008C010E9496038CE395E0F8019183808381
:1053700086E190E00E944F3325E1DC0155962C93A5
:10538000F801EC56FF4F9183808386E190E00E9404
:105390004F3325E0FC01258BF801EA56FF4F91833E
:1053A000808332968EE18083319681EE8083D801AE
:1053B000A656BF4F80E6E1E9F3E033CF81E298E003
:1053C0000E94021161E881E298E00E94220F61E0F0
:1053D00081E298E00E94220FEEE7F4E0F0932D08BE
:1053E000E0932C088491EFE7F4E0E491F82F3197F3
:1053F00009F0E1C010922A0881E298E00E940211AF
:1054000011E010932F086EE181E298E00E94360FC0
:1054100082E080932F0887E794E00E949910109310
:105420002F0862E081E298E00E942A0F0E94A413F4
:1054300081E090E00E94D832873008F080E0A091AF
:105440001208B091130817968C931797ED91FC9161
:1054500011970190F081E02DCD01099564E170E094
:1054600080E090E00E94210480911208909113083E
:10547000DC01ED91FC910280F381E02D099564E15E
:1054800070E080E090E00E942104809112089091E9
:105490001308DC01ED91FC910280F381E02D099568
:1054A000A0911208B091130851968C91519780FFEA
:1054B00086C081E017968C9317974E99A6C01796D1
:1054C0001C9181E298E00E94021145E050E06DECF1
:1054D00075E081E298E00E945F040E94D2226CEDA8
:1054E00075E080E090E00E94210481E298E00E9453
:1054F00002118AE694E00E94DA228CE594E00E9490
:10550000DA228FE494E00E94DA2264EF71E080E016
:1055100090E00E94210481E0812C912C540101E053
:10552000FF24F3944E9951C0F12C813051F40E9424
:1055300053044B015C0160E170E080E090E00E9468
:1055400021040E945304681979098A099B09693E5C
:1055500073408105910510F40C94B63281E298E015
:105560000E94021187E494E00E94DA2280E494E031
:105570000E949910812F0E94B4100E94D2220E9492
:10558000D2228CE294E00E94991060ED77E080E0F6
:1055900090E00E942104612F81E090E00E94E032BF
:1055A00088E19EE00FB6F894A895809360000FBE46
:1055B00090936000FFCF81E080932A081DCF81FF88
:1055C0007CCF17961C92179778CF81110C94B33229
:1055D00060E170E080E090E00E94210481E0011130
:1055E00006C0882379F01F5F133008F010E007E051
:1055F00025E04FE760E081E298E00E94CD10812F26
:105600000E94B41000E08F2D8BCFED91FC9111978B
:105610000484F585E02DCD01099561E081E298E0F3
:105620000E942A0F60E081E298E00E94360FE0912C
:105630001208F0911308878181111CC188E50E942E
:10564000C810809112089091130821E032E0FC010B
:10565000348323830190F081E02D0084F185E02DD7
:1056600009958C018091120890911308DC01ED914D
:10567000FC910284F385E02D09952091A201E0912F
:105680001208F09113083781309306089093800731
:1056900080937F0720937E0710937D0700937C07FC
:1056A00084B7877F84BF0FB6F894A8958091600077
:1056B000886180936000109260000FBE80E830E047
:1056C00020E00FB6F89480936100209361000FBE34
:1056D0008091D8008F7E8093D8008091D700816020
:1056E0008093D70084E082BF81E080937B07809124
:1056F000D8008E7F8093D8001092E2001092DA00DA
:105700001092E1008091D8008F778093D80080912B
:10571000D80080688093D8008091D8008F7D8093D6
:10572000D80019BC1092070810927A0710927907D6
:105730008091E0008B7F8093E0008091D8008160B1
:105740008093D80042E360E080E00E949E22809136
:10575000E1008E7F8093E1008091E2008160809380
:10576000E2008091E20088608093E2008091E00096
:105770008E7F8093E0008091D80080618093D80074
:1057800078940E94FC030091140810911508209150
:10579000160830911708AB01BC01401B510B620B7E
:1057A000730B8091A3019091A401B0E0A0E0C12C03
:1057B000481759076A077B07B0F08091120890914B
:1057C0001308DC01ED91FC910280F381E02D099535
:1057D000C82E0E94FC0360931408709315088093F0
:1057E000160890931708D12C8091A201D81608F0C2
:1057F0001CC68091120890911308DC01ED91FC9178
:105800000680F781E02D6D2D099500911208109109
:105810001308ED2CF12CF8018781843009F487C13D
:1058200008F037C0882309F469C093E1813009F496
:1058300000C298E0833009F0B8C18FE08E9DF0017E
:105840008F9DF00D1124E00FF11FE089EF70E15002
:10585000EA3008F0A9C3F0E0E05DF34D0C94493361
:105860005F2FCC2FD42FD02FD22FCE2FD42FC82FB5
:10587000C42FCA2F813011F483E5E1CE823011F4B8
:1058800088E4DDCE8350843010F48DE4D8CE85E4F6
:10589000D6CE853009F469C195E0863009F0C9CFCC
:1058A0008FE08E9DF0018F9DF00D1124E00FF11F10
:1058B00021893289A9014170552782E021FF80E0CA
:1058C000842B22FF67C424E0822B809381078FE022
:1058D0008E9DF0018F9DF00D1124E00FF11F2589A1
:1058E000368930938307209382072789308D309340
:1058F00085072093840721E837E08EC094E18FE08C
:105900008E9DF0018F9DF00D1124E00FF11F208975
:10591000822F817032E021FF30E0832B34E022FFC0
:1059200030E0832B23FF6FC128E0822B2FE02E9DD8
:10593000F0012F9DF00D1124E00FF11F2189328914
:1059400040E131FF40E0842B40E230FF40E0842B17
:1059500040E432FF40E0842B40E833FF40E0842BFA
:1059600080935E01A901E4E056954795EA95E1F739
:10597000417082E025FF80E0842B44E034FF40E06A
:10598000842B40E120FF40E0842B40E221FF40E0F7
:10599000842B40E422FF40E0842B40E823FF40E0DA
:1059A000842B80935F018FE08E9DF0018F9DF00D21
:1059B0001124E00FF11F4589568950585093630117
:1059C000409362014FEF5FE76789708DDA01A61B94
:1059D000B70BB0936501A0936401618D728D70580F
:1059E0007093670160936601638D748D461B570B3E
:1059F0005093690140936801D801AE0DBF1D9E967A
:105A00008C91882309F401C1858D80936001868D76
:105A1000809361012CE531E030930A082093090856
:105A20009093080880910708843009F074C082E0E0
:105A30008093E9008091E80082FF2AC08091E8000D
:105A400085FF21C0809106088111C2C40E945022A6
:105A5000811108C050E040E068E070E0CE0101969E
:105A60000E94BD26898181110EC08A81883059F437
:105A7000F701EE0FFF1FEE0FFF1FE00FF11F8C81EC
:105A800085AB8D8187AB8091E8008B778093E800B0
:105A9000870186E0000F111F8A95E1F70A57184F1A
:105AA0004091080850E06091090870910A08C80107
:105AB0000E947934892B79F180910608853009F0AC
:105AC00094C481E08093E9008091E80080FF23C0C6
:105AD000E0900808A0900908B0900A080E9450229F
