:100000000C9401030C9429030C9429030C942903E8
:100010000C9429030C9429030C9429030C942903B0
:100020000C9429030C9429030C9486140C94290332
:100030000C9429030C9429030C9429030C94290390
:100040000C9429030C9429030C9429030C94290380
:100050000C9429030C9429030C9429030C943C144C
:100060000C9429030C9429030C9429030C94290360
:100070000C9429030C9429030C9429030C94290350
:100080000C9429030C9429030C9429030C94290340
:100090000C9429030C9429030C9429030C94290330
:1000A0000C9429030C9429030C942903AED580A841
:1000B0003FD300408D142002A1C8DA12817FD9F10C
:1000C000DB40A4A6AF1201000200000040D0167E63
:1000D0001200010102030112010002000000400DA4
:1000E0000F920000010102030112010002FFFFFF55
:1000F000405E048E021401010203010904000001A4
:1001000003000000092111010001224600070581BA
:10011000034000010902220001010080320902228D
:100120000001010080320904000001030000000901
:10013000211101000122510007058103400001093E
:1001400004000001030000000921110100012256F2
:100150000007058103400001090229000101008018
:10016000FA09211101000122460005010905A1013A
:10017000150025013500450175019518050919017E
:100180002918810205012507463B01750495016583
:10019000140939814265009501810126FF0046FF5F
:1001A000000930093109350936750895048102C006
:1001B00005010905A10105091901290315002501FA
:1001C0007501950355006500810275019505810350
:1001D00005010901150026FF0375109502A100090C
:1001E0003009318102C0C005010905A1018501A1C5
:1001F0000005091901290C150025019510750181CB
:100200000205010939150025073500463B0175082F
:10021000950165148142C0C005010902A101850252
:100220000901A100093009311581257F3581457FFC
:10023000950275088106C0C005010904A101A1004D
:100240000509190129101500250195107501810274
:1002500005010901A100093009311580257F9502AA
:1002600075088102C009371580257F9501750881C1
:10027000060938150026FF00950175088102093925
:10028000150025073500463B017508950165148169
:1002900042C0C005010905A1011500250135004531
:1002A000017501950E05091901290E81029502813A
:1002B0000105012507463B017504950165140939BF
:1002C000814265009501810126FF0046FF0009304B
:1002D000093275089502810205027508950315001B
:1002E00026FF0009BB09C509C88102C0050109052F
:1002F000A10115002501350045017501951005097D
:1003000019012910810205012507463B0175049555
:100310000165140939814265009501810126FF00BC
:1003200046FF000930093109320935750895048105
:10033000020600FF092009210922092309240925B1
:100340000926092709280929092A092B950C810260
:100350000A21269508B102C04E4F4E450056424F25
:1003600059004E545400534E4553004E4553004DD2
:10037000554C54492D54415000535749544348005B
:100380004552524F52004849440058494E50555426
:10039000004E45532B534E45532B56424F590000A8
:1003A000030C0F30333C3FC0C3CCCFF0F3FCFF4411
:1003B00045564943452057494C4C205245535441DA
:1003C0005254004D4F44453A200053415645442174
:1003D0000A00484F4C443A2020534156450A0050E9
:1003E000524553533A204348414E4745004F5554D8
:1003F000505554204D4F44450A005245464C4558EF
:1004000000000005072061000000000000005F0000
:10041000006070787060605048506003070F0703F9
:100420000305090503081C3E7F7F081C22417F7FCE
:100430007F3E1C087F41221C08082A1C2A08080845
:100440003E080800503000000808080808006060F6
:10045000000020100804023E5149453E00427F4002
:100460000042615149462141454B311814127F1019
:1004700027454545393C4A4949300171090503364C
:1004800049494936064949291E00363600003C7E56
:100490007E7E3C3C4242423C1414141414F0F0F0B2
:1004A000F0F0F0909090F0324979413E7E111111B8
:1004B0007E7F494949363E414141227F4141221CCC
:1004C0007F494949417F090901013E414151327F3C
:1004D0000808087F00417F41002040413F017F081C
:1004E0001422417F404040407F0204027F7F040885
:1004F000107F3E4141413E7F090909063E4151219D
:100500005E7F09192946464949493101017F0101A8
:100510003F4040403F1F2040201F7F2018207F6326
:10052000140814630304780403615149454300002F
:100530007F4141020408102041417F0000383C1EE9
:100540000F074040404040382412090720545454BB
:10055000787F484444383844444420384444487FF1
:100560003854545418087E090102081454543C7F2E
:100570000804047800447D40002040443D00007F92
:1005800010284400417F40007C041804787C080453
:10059000047838444444387C14141408081414189B
:1005A0007C7C080404084854545420043F444020F0
:1005B0003C4040207C1C2040201C3C4030403C44BF
:1005C000281028440C5050503C4464544C44E0E003
:1005D000E0E0E000007F0000E0A0A0A0E008082A22
:1005E0001C08081C2A08080006090906AC00198026
:1005F00040005245424F4F54494E472E2E2E000088
:10060000911F11241FBECFEFDAE0DEBFCDBF26E081
:10061000A4ECB3E001C01D92AC30B207E1F713E0E7
:10062000A0E0B1E0ECE1F2E402C005900D92A43C40
:10063000B107D9F713E0C1E0D3E004C02197FE0170
:100640000E94BF1FC030D107C9F70E9468150C94E3
:100650000C210C9400003FB7F8948091F205909122
:10066000F305A091F405B091F50526B5A89B05C04A
:100670002F3F19F00196A11DB11D3FBFBA2FA92F21
:10068000982F8827BC01CD01620F711D811D911D1E
:1006900042E0660F771F881F991F4A95D1F708958A
:1006A0008F929F92AF92BF92CF92DF92EF92FF9282
:1006B0004B015C010E942B036B017C010E942B0308
:1006C0006C197D098E099F09683E7340810591056B
:1006D000A8F321E0821A9108A108B10888EEC80E9B
:1006E00083E0D81EE11CF11C81149104A104B10423
:1006F00029F7FF90EF90DF90CF90BF90AF909F9041
:100700008F900895AF92BF92CF92DF92EF92FF92B7
:100710000F931F93CF93DF936C017B018B01040F29
:10072000151FEB015E01AE18BF08C017D10759F0C5
:100730006991D601ED91FC910190F081E02DC60107
:100740000995892B79F7C501DF91CF911F910F9101
:10075000FF90EF90DF90CF90BF90AF900895CF9330
:10076000DF93EC018A85882329F081508A87DF9105
:10077000CF9108959C818E819817C8F78D85682741
:10078000E881F9810084F185E02D42E0CE010995F0
:100790008C818F5F8C83EBCFCF93DF93DC0113963B
:1007A0002D913C911497C62FD0E0FC018FE0689FFB
:1007B000E00DF11D112461897289C90186239723F7
:1007C0002817390709F04BC080898F70823071F18A
:1007D00028F48130C9F190E080E021C0843089F0B4
:1007E0008830C9F782E018968C93108A209530954E
:1007F0008189928928233923328B218B84E090E0F0
:100800000EC081E018968C93108A209530958189CE
:10081000928928233923328B218B82E090E09093B8
:100820004C0580934B05DF91CF91089518961C924B
:10083000108A209530958189928928233923328B1B
:10084000218B81E090E0EBCF108A20953095262314
:1008500037233061328B218B88E090E0E0CF159612
:100860004D915C911697642375234617570709F03D
:10087000B2CF80898F70823009F440C088F4813013
:1008800009F0A9CF19961C92108A4095509581893C
:10089000928948235923528B418B80E290E0BFCF4D
:1008A0008430D9F1883009F096CF80914B05909132
:1008B0004C058115924041F01B968C911B9791E05D
:1008C00089271B968C931B972FE02C9FC0012D9F8F
:1008D000900D1124A80FB91F50961C925097409567
:1008E000509551968D919C91529748235923529639
:1008F0005C934E93519780E092E091CF81E01996FE
:100900008C93108A40955095818992894823592368
:10091000528B418B80E490E082CF82E019968C93D9
:10092000108A409550958189928948235923528B8A
:10093000418B80E890E073CF84E98093BC0085E62A
:100940009091BC0094FF03C08150D1F7089581E0DD
:100950000895EF92FF920F931F93CF93FC0185812F
:100960008287868197819487838780859185968702
:100970008587C38113822C9A8BE290E00197F1F76F
:100980002C9883E190E00197F1F730E020E090E0CF
:1009900080E043E150E0ACB1A6FB662760F970E06F
:1009A000DB01022E02C0AA0FBB1F0A94E2F78A2BBA
:1009B0009B2B2D98DA011197F1F72D9ADA011197F7
:1009C000F1F72F5F3F4F2031310529F7492F42952D
:1009D0004F7051E04D3009F450E170E060E030E0DC
:1009E00020E0A3E1EA2EF12CACB1A6FB002700F930
:1009F00010E0D801062E02C0AA0FBB1F0A94E2F72E
:100A00002A2B3B2B2D98D7011197F1F72D9AD7015F
:100A10001197F1F76F5F7F4F651730F380959095D1
:100A2000209530954F3029F42E3F5FEF350709F4BC
:100A300042C0538161E0650F638361E070E0511152
:100A400002C070E060E0411113C0A92FBB27AF7056
:100A5000BB271F9769F44AE0469FD001479FB00D1E
:100A60001124AE0FBF1F4FE015964C93159713C07E
:100A7000542F509552FF45C02AE0269FD001279F52
:100A8000B00D1124AE0FBF1F24E015962C931597BF
:100A90005370252F30E019963C932E9318972AE037
:100AA000269FD001279FB00D1124AE0FBF1F1796B0
:100AB0009C938E93169783818C17E8F44AE09FEFFE
:100AC00021E030E0811102C030E020E0429FD001FF
:100AD000439FB00D1124AE0FBF1F15969C93159721
:100AE00017961C921E92169719961C921E92189792
:100AF0008F5FC813E5CFCF911F910F91FF90EF90BB
:100B000008955AE0569FD001579FB00D1124AE0FA3
:100B1000BF1F5FE04527A8CF8091E1058F5F82303E
:100B200018F48093E105089581E0FBCF08958E5479
:100B30009F4FFC018081811103C081E091E0089505
:100B400082E091E008958E549F4FFC0180818111D5
:100B500003C082EA93E008958AE993E00895FC01D6
:100B60009081911106C083819481019699F080E073
:100B700008959F3049F4228130E02F7033272F30C1
:100B8000310561F482E00895923031F0943031F40F
:100B900085E0089583E0089584E0089581E0089554
:100BA000AF92BF92CF92DF92EF92FF920F931F937B
:100BB000CF93DF93FC01E856FF4F1082249A2C98C4
:100BC000259A2D9A6E987698769ADC01A955BF4F92
:100BD0001C92869A8E98859A8D9A87988F988F9A6C
:100BE000A3E2B0E01197F1F7208121114BC0EC0195
:100BF00082E080938F017E0184E9E80EF11CC70139
:100C00000E94A904FE01E956FF4F008110E0670130
:100C100085E0C80ED11CCE54DF4F3AE0A32EBB2492
:100C2000BA941017C1F1111108C0C6010E94AF0596
:100C300091E0853009F090E0988381E090E0111117
:100C400002C090E080E0A89EF001A99EF00D112462
:100C5000EE0DFF1DB5821782168211861086019651
:100C6000A89ED001A99EB00D1124AE0DBF1DBC924F
:100C700086819781948783878085918596878587EC
:100C80001F5FCFCF82E080938F0188EE93E0909337
:100C90009101809390018091900190919101823017
:100CA000910538F0880F991F880F991F05970197B4
:100CB000F1F7DF91CF911F910F91FF90EF90DF90AF
:100CC000CF90BF90AF9008958370813041F0823013
:100CD00019F48FEF9FEF08958FEF9FE7089590E04D
:100CE00080E008958C70843041F0883019F48FEFE3
:100CF0009FEF08958FEF9FE7089590E080E00895BB
:100D0000CF93DF93FC0187812FEF3FE7813011F410
:100D100020E830E8462F50E0DF018FE0689FA00D0B
:100D2000B11D112450968C916185982F937092304B
:100D300021F1933029F0913021F590934E051BC09D
:100D4000611111C091E090934E058C70883009F4C8
:100D500057C08C30D1F0843009F055C0946083E0E6
:100D600080934D051CC0623061F490914E0599232B
:100D700041F0913021F091E0E8CF90934E0592E060
:100D8000E4CF10924E0590E0E0CF6230E1F5809123
:100D90004D058823C1F1833089F184E0982B8FE0E1
:100DA000849FD001859FB00D1124AE0FBF1F5096B8
:100DB0009C9350978085EF01C40FD51F813031F18E
:100DC000823009F444C088A9811108C056963C932A
:100DD0002E93559758963C932E9357978AA9811135
:100DE00033C06FE0649FC001659F900D1124E80F30
:100DF000F91F328F218F348F238F26C088E0CECF0A
:100E0000986084E0ADCF10924D05C9CF8AA98111B9
:100E100008C05A963C932E9359975C963C932E9318
:100E20005B978FE0849FE001859FD00D1124CE0F4A
:100E3000DF1F88890E9472069E8B8D8B88890E9495
:100E40006406988F8F8B188ADF91CF91089588A9B7
:100E5000811108C056963C932E93559758963C9313
:100E60002E9357978FE0849FE001859FD00D11242A
:100E7000CE0FDF1F88890E9472069A8F898F88891A
:100E80000E9464069C8F8B8FDECFFC016093BC00B8
:100E90002FEF3FEF8091BC0087FF06C09091B90013
:100EA000987F908381E008952150310999F780E07F
:100EB0000895CF93DF93EC016093BB0064E80E9438
:100EC0004507882329F081E09881983209F080E075
:100ED000DF91CF910895DF92EF92FF920F931F93CE
:100EE000CF93DF93EC01D62EF42E8989882329F045
:100EF000411103C00E949C04198A8E01015F1F4F9B
:100F00008989811119C0E88864EAC8010E944507EF
:100F1000882361F08F85883011F0803139F4EE0C30
:100F2000E092BB0064E8C8010E94450760E0F11050
:100F300060E4C8010E9459076D2DC8010E9459073D
:100F400082E0F8120BC089898F5F898BDF91CF9186
:100F50001F910F91FF90EF90DF9008950E949C04E5
:100F6000198AF4CFDC01ED91FC910084F185E02D2C
:100F700040E00994FC012781269526952695621765
:100F800020F46583606B0C94B20708950F931F9350
:100F9000CF93FC012681621798F4C62F8C016483DD
:100FA0006085C60F6C2F6F700E94B2076C2F629520
:100FB0006F706061C801CF911F910F910C94B207BF
:100FC000CF911F910F9108951F93CF93DF93EC0161
:100FD000142F0E94C607612FCE01DF91CF911F9180
:100FE0000C94BA072F923F924F925F926F927F922A
:100FF0008F929F92AF92BF92CF92DF92EF92FF9229
:101000000F931F93CF93DF9300D000D000D0CDB7C4
:10101000DEB7FC01238534852115310509F416C19D
:101020009E838D83F9013296649031964491E42E2B
:10103000F12CF7E0EF0EF11C53E0F594E7945A958C
:10104000E1F7E982F901349654913196E4916D30DB
:10105000F1F460E00E94C60781E090E026960FB6AA
:10106000F894DEBF0FBECDBFDF91CF911F910F91DE
:10107000FF90EF90DF90CF90BF90AF909F908F90B8
:101080007F906F905F904F903F902F9008956A30BF
:1010900081F460E08D819E810E94C607ED81FE8112
:1010A000868565818E9D600D1124CF010E94BA074F
:1010B000D3CF651708F4CAC08E2F90E0FC01E50F6E
:1010C000F11D6E171F060CF0C1C089010A5F1F4F8A
:1010D000651BED81FE8171855685759F502D11240C
:1010E0005C83F90154912F5F3F4FF9012491352F13
:1010F0002230310508F06AC06E9CC0016F9C900DD3
:101100001124689FF001699FF00D11240E0F1F1F1D
:10111000512CED81FE81F481FA83ED81FE812580E1
:10112000F285FB83862C912CAA24A394B12C312C1C
:101130008981381608F086C0412CED81FE818685B4
:10114000481608F078C08B818287311002C0442095
:1011500041F0ED81FE8145814F5F6A81CF010E94A0
:10116000E407D12CC12CC61408F058C0F801EC0DCE
:10117000FD1D7490552061F0EA14FB0449F4E72D3D
:10118000F0E0052C02C0F595E7950A94E2F77E2E73
:10119000ED81FE818685823081F4442009F43AC0D5
:1011A00072948FE07822E72DF0E0E156FC4F7490C6
:1011B000672D8D819E810E94AF03672D8D819E8159
:1011C0000E94AF038FEFC81AD80ACDCF477028E02E
:1011D000522E541A411101C0512CF801612C30E0FB
:1011E00020E0661631F04491240F311D639431964E
:1011F000F8CF600E712E711CF3016490E29EF00135
:10120000E39EF00DF29EF00D11248E0F9F1F080F2C
:10121000191F7FCFF72DFF707F2EC5CFD12CEC810A
:10122000DE1639F060E08D819E810E94AF03D39479
:10123000F6CF439482CF3394080D191DFFEFAF1AF8
:10124000BF0A76CF622D8D819E8130CF90E080E005
:1012500005CF0F931F93CF93DF938C01D0E0C0E0B5
:10126000F801EC0FFD1F6491662341F086EF95E0D5
:101270000E94F207892B11F02196F2CFCE01DF9167
:10128000CF911F910F910895811104C08AE893E0D6
:101290000C942909813019F489E793E0F9CF825041
:1012A000853018F486E893E0F3CF80E893E0F0CF40
:1012B000682F86EF95E00C94F207CF92DF92EF92C1
:1012C000FF920F931F93CF93DF93EC01F62EC42E62
:1012D000D22E1A868F81869586958695081710F0EE
:1012E0000FEF080F1D2D011780F0412F6F2DCE013C
:1012F0000E94E407EF2CCE1430F06D85CE010E94E1
:10130000AF03E394F8CF1F5FEECF4D2D6F2DCE01CD
:10131000DF91CF911F910F91FF90EF90DF90CF90D1
:101320000C94E4070F93FC0107810695069506953A
:1013300001504681415020E060E00E945D090F911C
:1013400008954F925F926F927F928F92AF92CF9259
:10135000EF92FF920F931F93CF93DF93CDB7DEB73A
:101360002701380194E0899F80011124F801EE5B88
:10137000FA4F80819181A281B3818E219521A6218E
:10138000B72131E0892B8A2B8B2B09F430E03C11FB
:1013900003C088898823F1F0C11001C0A82C2D5FFB
:1013A000640F422F86EF95E00E94E4078A2D0E9489
:1013B0005809F801EE5BFA4FCC20D1F08081918181
:1013C000A281B38184299529A629B7298083918395
:1013D000A283B383DF91CF911F910F91FF90EF9084
:1013E000CF90AF908F907F906F905F904F900895C7
:1013F000409450946094709480819181A281B381D3
:1014000084219521A621B721E1CF6F927F928F92FF
:101410009F92AF92BF92CF92DF92EF92FF920F9383
:101420001F93CF93DF93EC01D62E742EE62FF0E0BE
:10143000EE0FFF1FEA58FC4FB08007E023E0418128
:101440006B2D86EF95E00E945D0947E06B2D86EFDE
:1014500095E00E94E40783E0781619F18715B8F04B
:10146000E2E08BE693E07E16F1F088E593E0DF9111
:10147000CF911F910F91FF90EF90DF90CF90BF9091
:10148000AF909F908F907F906F900C942909F4E01B
:101490007F1609F442C085E07812E7CF8DE593E02E
:1014A00002C086E693E00E942909E2E0DE1631F1EF
:1014B000FE01EE54FF4F8081882391F13E01FDEC47
:1014C0006F1AFEEF7F0ACD55DE4F99249394F301F6
:1014D000E080F180028113819F928780A680CC24D6
:1014E000C394248145816B2D8D2D0E94A109F8E0C4
:1014F0006F0E711C0F906C167D0649F7DF91CF912E
:101500001F910F91FF90EF90DF90CF90BF90AF9021
:101510009F908F907F906F90089582E693E0C3CF65
:10152000CD54DF4F612C9924939482E078121FC030
:10153000E7E0E615B0F0F3E0F615C8F0FE01E05A7A
:10154000FF4FE080F180028113819F928780A68007
:10155000CC24C394248145816B2D8D2D0E94A1093B
:101560000F90639428968CE06812DFCFC7CFFE01FE
:10157000E8CF0F9307E022E04FE760E086EF95E0C9
:101580000E945D098091E105813051F46CE086EFA5
:1015900095E00E94C60781E993E00F910C94290918
:1015A0000F91089580938E016EEA81116FEA86EFA4
:1015B00095E00E94B2072FB7F8948091EE059091C4
:1015C000EF05A091F005B091F1052FBF8093E205E2
:1015D0009093E305A093E405B093E505089590E0AA
:1015E00080E00895CF93DF93CDB7DEB72F970FB686
:1015F000F894DEBF0FBECDBF4FE0FE013196DF0194
:10160000242F1D922A95E9F72FEF3FE73F832E8382
:10161000398728873B872A873D872C87469F800DFF
:10162000911D1124DC0150968FE001900D928A9556
:10163000E1F72F960FB6F894DEBF0FBECDBFDF9156
:10164000CF9108952F923F924F925F926F927F9227
:101650008F929F92AF92BF92CF92DF92EF92FF92C2
:101660000F931F93CF93DF93CDB7DEB766970FB677
:10167000F894DEBF0FBECDBF3C0186E0FE0131967F
:10168000DF011D928A95E9F780914801882381F056
:101690001092480180918F01833050F045E064E260
:1016A00086EF95E00E94E4078FE693E00E94290907
:1016B000F301EC56FF4FFA8BE98BCF010E94A9048E
:1016C000F301E855FF4F8081858381819281978363
:1016D000868383819481918780873597D380138215
:1016E0008E9A8BE290E00197F1F78E9883E190E07B
:1016F0000197F1F750E040E0512C412C63E170E09C
:101700002FB1022E000C330B2227330F221F332759
:10171000042E02C0220F331F0A94E2F7422A532AF2
:101720008D98CB010197F1F78D9ACB010197F1F7D5
:101730004F5F5F4F4031510519F7452D42954F706E
:1017400050E14D3009F051E070E060E030E020E021
:1017500013E1E12EF12C0FB1002E000C110B00272C
:10176000110F001F1127062E02C0000F111F0A942F
:10177000E2F7202B312B8D98C7010197F1F78D9A55
:10178000C7010197F1F76F5F7F4F651720F3409412
:101790005094209530954F3029F42E3F8FEF380725
:1017A00009F445C0838191E0980F938361E070E074
:1017B000811102C070E060E0411114C0852D9927AD
:1017C0008F7099270F9771F44AE0469FC001479F99
:1017D000900D11248E0F9F1F4FE0DC0115964C9346
:1017E000159714C0942F909592FF89C08AE0869F28
:1017F000A001879F500D11244E0F5F1F84E0DA0176
:1018000015968C9315979370292F30E019963C9379
:101810002E9318972AE0269FC001279F900D112430
:101820008E0F9F1FDC0117965C924E921697B38124
:10183000BE87BD15F8F42B2F6AE03FEF41E050E082
:10184000211102C050E040E0649FC001659F900DEF
:1018500011248E0F9F1FDC0115963C931597179648
:101860001C921E92169719961C921E9218972F5F23
:10187000D212E4CFF301E956FF4F9080BE85B90D37
:10188000BD8778866F82788A6F86D12CF12C3C9642
:10189000FC8BEB8B93012E543F4F3E8B2D8B109185
:1018A0008F013D85D31609F4A6C2D11609F4A3C24F
:1018B000BB24B394D91408F4B12C21E030E0D9143E
:1018C00048F5D11002C030E020E04AE0429FC0015C
:1018D000439F900D1124059629883A88280E391EB9
:1018E000123061F5992039F1C1010E94AF05E1E0A4
:1018F000F0E0EC0FFD1FEB0DF11D80831FC05AE0DF
:10190000569FC001579F900D11248E0F9F1F5FE0BF
:10191000452763CFD91002C030E020E04AE0429F63
:10192000C001439F900D112405962B883C88280EFA
:10193000391E123019F48E858111D6CFD1019C91B8
:1019400015968C911597981316C011962D913C9170
:10195000129716968D919C9117972817390759F46D
:1019600013962D913C91149718968D919C91281760
:10197000390709F479C0EF85F88912AAD1018C9151
:1019800015969C91159789130CC081111AC0139656
:101990008D919C910196A9F4F10180859185019624
:1019A00081F0D11620F46D2DC3010E94F20AC1010D
:1019B0000E94AF05123029F4482F6B2DC3010E94FD
:1019C000050AC1010E94AF058A87D10111962D91A8
:1019D0003C91C90154E0969587955A95E1F7982F67
:1019E000917082E025FF80E0892B94E026FF90E053
:1019F000892B98E027FF90E0892BEF81F885808B79
:101A0000D10111962D913C91BA85B230C9F5A90149
:101A10004170552782E090E021FD02C090E080E017
:101A2000842B952BEF81F885928B818BD1011196B8
:101A30002C9180E091E022FD02C090E080E023FF45
:101A40003DC120E032E0EF81F88541895289842B45
:101A5000952B822B932B928B818B80918F018230DF
:101A600009F42FC1FF24F394D3948F8198850F96A6
:101A700098878F83AF85B8891196B88BAF870FCFC2
:101A8000F901EE27F170D901A170BB27A901442704
:101A90005270B901627077278A85853009F053C08A
:101AA00055245394452B09F4512C82E0AB2B09F4B7
:101AB00080E0582A80E0672B09F084E0582A88E00B
:101AC000EF2B09F480E0582A852D0E947206AF8121
:101AD000B8855A969C938E935997852D0E946406DB
:101AE000EF81F885948F838FE1E0AF85B889D29636
:101AF000EC93D10113962D913C91A901417055278A
:101B000082E090E021FD02C090E080E0842B952BE4
:101B1000F1012181328140E150E032FD02C050E00C
:101B200040E0842B952B33FF0BC020E230E0822B6A
:101B3000932BAF81B88552969C938E93519776CF15
:101B400030E020E0F4CF82E090E0EF2B11F490E061
:101B500080E08A2B9B2B672B09F4A1C064E070E026
:101B6000862B972B452B09F49DC048E050E0842B31
:101B7000952B40E150E032FD02C050E040E0842B64
:101B8000952B33FF92C020E230E0822B932BEF8124
:101B9000F885928B818BFA85F43009F047CFD1011B
:101BA00013964D915C9120E430E052FD02C030E08C
:101BB00020E060E870E055FD02C070E060E0822B3C
:101BC000932B20E034E053FD02C030E020E0862B70
:101BD000972B60E078E054FD02C070E060E0822B5B
:101BE000932B57FF65C040E050E1862B972B842B49
:101BF000952BEF81F885928B818BD10113962D91D6
:101C00003C91A9014170552782E090E021FD02C07E
:101C100090E080E0842B952B44E050E022FD02C050
:101C200050E040E0842B952B48E050E023FD02C0BB
:101C300050E040E0842B952B40E150E024FD02C0B1
:101C400050E040E0842B952B40E250E025FD02C09F
:101C500050E040E0842B952B40E450E026FD02C08C
:101C600050E040E0842B952B40E850E027FD02C077
:101C700050E040E0842B952B40E051E030FD02C065
:101C800050E040E0842B952B31FF15C020E032E07E
:101C9000822B932BEF81F885948B838BC7CE70E0DA
:101CA00060E05ECF50E040E062CF30E020E06DCFFA
:101CB00050E040E09ACF30E020E0EACF30E020E092
:101CC000C2CEAD89BE898C912301882309F455C009
:101CD000BDEC4B1ABEEF5B0A1986EB2DF0E0EE0F60
:101CE000FF1FEA58FC4F20812B87D201ED90FD9019
:101CF0000D911C91139714962C91149715964C9155
:101D000015971696AC90169717968C90B985BC309F
:101D100010F5EA85E23091F4B83080F01F92C12CC2
:101D20006B858B2D0E94A1090F90F985FF5FF987C4
:101D300028E0420E511CFE30C1F694CED10111961E
:101D40008D919C918E219F21CC24C394892B09F4E1
:101D5000C12C1F92E5CFBA85B530D1F7F10163816F
:101D60007481D801C7013CE0B695A79597958795F2
:101D70003A95D1F786239723E7CF33EB430E511CD7
:101D800019868B2D90E0880F991FDC01AA58BC4F53
:101D9000BC87AB87BA85B23061F5E985E83000F5DC
:101DA000E43038F5F201E05AFF4FE080F180028123
:101DB0001381D10111968D919C918E219F21CC246C
:101DC000C394892B09F4C12C1F928780A68024819B
:101DD0004581EB85FC8560818B2D0E94A1090F90C8
:101DE000F985FF5FF98728E0420E511CFC3091F61F
:101DF00039CEF201DACF0981123059F480914201D3
:101E0000801739F0011105C040E060E0C3010E9475
:101E1000050A009342011A8180918F01823059F4A2
:101E200080914301811739F0111105C040E061E054
:101E3000C3010E94050A1093430110914A05BD8514
:101E4000B11770F4DB2E80918F018D1549F0D816F3
:101E500020F46D2DC3010E94F20AD394D11698F399
:101E6000ED85E0934A058F2D66960FB6F894DEBF98
:101E70000FBECDBFDF91CF911F910F91FF90EF90DB
:101E8000DF90CF90BF90AF909F908F907F906F909A
:101E90005F904F903F902F900895FC018091000536
:101EA0009091010586179707A0F06115710529F437
:101EB0009091E8009E779093E80090E0611571059D
:101EC00051F4911108C08091E80082FF35C080E094
:101ED0000895BC01F2CF8091DD058823C9F18530DA
:101EE000C9F18091E80083FD31C08091E80082FD56
:101EF000EACF8091E80080FFE1CF2091F30080914C
:101F0000F200322F282F6115710519F020343105A8
:101F100058F091E02034310509F090E02091E8007C
:101F20002E772093E800CACF81918093F100615011
:101F300071092F5F3F4FE7CF8091DD05882341F086
:101F4000853041F08091E80083FFBDCF81E00895A6
:101F500082E0089583E008952091E4003091E50047
:101F600085E69091EC0090FF06C09091E80090FF0C
:101F700006C080E008959091E80092FDFACF90911C
:101F8000DD05992391F0953091F09091EB0095FD4E
:101F900010C04091E4005091E5002417350709F383
:101FA00081509A01F1F684E0089582E0089583E07B
:101FB000089581E008958091FA0487FF13C080910D
:101FC000E80082FF06C08091E8008B778093E800EC
:101FD00004C08091DD058111F2CF08958091DD0567
:101FE0008823D9F38091E80080FFF8CF8091E80042
:101FF0008E77ECCF982F973028F08F708093E90080
:1020000081E008959093E900242F762F50E09817EF
:1020100031F07091EC002091ED005091F00021FD25
:1020200002C09F5FE8CF3091EB003E7F3093EB0022
:102030003091ED003D7F3093ED003091EB00316049
:102040003093EB007093EC002093ED005093F00080
:102050002091EE0027FDE5CF80E0089542E050E0BA
:102060006AEA73E086EF95E00C948203CF93DF93E6
:102070000E942909EC010E942E108C0F9D1FDF91F8
:10208000CF9108950E94EA20EF92FF920F931F9341
:10209000CF93DF9300D0CDB7DEB78091DD058823E5
:1020A00009F4DBC08091E9008F709091EC0090FF03
:1020B0004FC090E8F92EF82A1092E9008091E800CC
:1020C00083FFC7C0EAEFF4E08091F100819325E03F
:1020D000E230F207C9F7E090FB0481E0E8121DC08E
:1020E0008091FA04813AC9F48091E800877F809357
:1020F000E8008091FC049091FD048115934051F516
:1021000068E070E080E091E00E944D0FE092E6050B
:102110008091E8008B778093E8008091E80083FF4E
:102120008AC08091FA049091FB049A3008F083C031
:10213000E92FF0E0E256FF4E0C94BF1FEE10141191
:102140001B1114111B11751197111B11CA13D713F1
:1021500090E0B0CFE091DC05E730D0F6F0E0ED5450
:10216000FF4E0C94BF1FBA10C110C610CB10D01078
:10217000D510E91064E170E08AEF93E00E944D0F02
:10218000C7CF60E470E087EE93E0F8CF60E470E0E2
:102190008FED93E0F3CF60E470E087ED93E0EECF56
:1021A00060E470E080ED93E0E9CF81E08093CC03C0
:1021B00082E08093C9038091FE049091FF0460E463
:1021C00070E0892B19F48CEC93E0D8CF89EC93E084
:1021D000D5CF60E470E084EC93E0D0CF803889F014
:1021E000823849F58091FE048F70873020F5809306
:1021F000E9008091EB0085FB882780F91092E900C7
:1022000004C080914F0581110DC09091E800977F27
:102210009093E8008093F1001092F1008091E80023
:102220008E7732C082E0F1CF282F2D7F21F48823D2
:10223000E9F0823071F18091E80083FF0AC080915B
:10224000E800877F8093E8008091EB0080628093B4
:10225000EB008F2D8F708093E9000F900F90DF912E
:10226000CF911F910F91FF90EF9008958091FC0402
:10227000813009F7933009F080E080934F05109288
:10228000E9008091E800877F8093E8000E94DB0FDF
:10229000D2CF8091FC048111F2CF8091FE048F7027
:1022A0002FEF280F263038F68093E9002091EB00BD
:1022B00020FFE5CF933031F48091EB008062809372
:1022C000EB00DDCF9091EB0090619093EB0021E06B
:1022D00030E001C0220F8A95EAF72093EA001092BD
:1022E000EA008091EB008860EACF8111A4CF1091C1
:1022F000FC041F778091E3008078812B8093E300BA
:102300008091E800877F8093E8000E94DB0F809136
:10231000E80080FFFCCF8091E30080688093E300B9
:1023200083E0111101C082E08093DD0584CF8058E5
:10233000823008F080CF2091FC043091FD041A8295
:102340001982832F99278330910509F41CC1D0F499
:1023500081309105A9F1029709F45DC069817A8104
:102360006115710509F467CF8091E800877F80933C
:10237000E800C8010E944D0F8091E8008B778093A0
:10238000E80059CF8132910509F49FC1829731F756
:102390008091DC05843009F4E7C108F0BBC18130CD
:1023A00009F4C8C1833009F4D4C146E450E06AE6B8
:1023B00071E084E694E00E94A01F86E490E0C4C12E
:1023C0008091DC05882399F0813001F10091550559
:1023D0001091560542E150E065EC70E08EE094E02B
:1023E0000E94A01F00931A0410931B0408C042E12E
:1023F00050E069EE70E08EE094E00E94A01F82E160
:1024000090E09A8389830EE014E0A8CF42E150E087
:1024100067ED70E0F0CF009154051091DC051130AC
:1024200009F456C008F44DC0153009F496C0135095
:10243000143008F0A1C0E12FF0E0EC5AFC4F1081FD
:1024400049E050E064E171E080E294E00E94A01F66
:1024500099E1099F902D1124975F90932204009396
:102460002404002309F48AC049E150E06BEF70E0D6
:1024700089E294E00E94A01F10922B04109339046B
:1024800081E880933D04023008F478C049E150E0CF
:102490006BEF70E082E494E00E94A01F81E08093E3
:1024A00044041093520482E880935604023009F4E5
:1024B00065C049E150E06BEF70E08BE594E00E946D
:1024C000A01F81E390E09A83898303E213E046CF63
:1024D00049E050E068E571E080E294E00E94A01FCE
:1024E00099E1099F902D1124975F90932204009306
:1024F0002404002361F149E150E06FE371E089E2D7
:1025000094E00E94A01F10922B044CE6E42EE0926F
:10251000390481E880933D040230C8F049E150E07D
:102520006FE371E082E494E00E94A01F10934404E2
:10253000E092520482E880935604023041F049E16F
:1025400050E06FE371E08BE594E00E94A01FB9E1D9
:102550000B9FC001112409960AC042E250E06DE1D0
:1025600071E080E294E00E94A01F82E290E09A83F2
:10257000898300E214E0F2CE16E462CFE9E10E9F17
:10258000C0011124E8CFC90199278230910549F192
:102590008330910509F441C08130910509F04AC0AA
:1025A0008091DC05813089F444E351E0DA010D903B
:1025B0000020E9F7AD014553514064E371E0CE01DD
:1025C00001960E943A158C01C9CE47E251E0FA010A
:1025D00001900020E9F7AF014852514067E271E0F5
:1025E000EECF8091DC05813061F445E151E0DA0104
:1025F0000D900020E9F7AD014651514065E171E0D1
:10260000DECF48E051E0FA0101900020E9F7AF0188
:102610004950514068E071E0D2CF6091520570910D
:102620005305FB0101900020E9F73197AF01461BEC
:10263000570BC5CF61E273E0E1E0222331F1253091
:1026400039F528E633E0E0E0FCE0FE0FD9011D910A
:102650009D018E2F90E0019670E060E0412F429541
:102660004F7050E043555C4FDA014C91DC014C93C4
:10267000EE5F90E0A12FAF70B0E0A355BC4F4C913E
:10268000DC0111964C93EF13E1CF4E2F50E097CF22
:102690002091DC05880F991F222329F0213049F071
:1026A000885A9C4F02C082599C4FFC016081718105
:1026B00005C0805A9C4FDC016D917C91FB0101901B
:1026C0000020E9F73197E61BE0CF1091DC0549E0E7
:1026D00050E061E671E08BE594E00E94A01F8BE57D
:1026E000143079F040F48CE6113059F089E513305C
:1026F00041F086E406C081E5153019F087E3163015
:10270000C1F78093620489E090E09A8389830BE5A6
:1027100014E024CE853099F1863009F046CE47E3A7
:1027200050E060EB71E084E694E00E94A01F87E334
:1027300090E00AC04CE650E06CEE72E084E694E073
:102740000E94A01F8CE690E09A83898304E614E03F
:1027500005CE49E550E063E972E084E694E00E942A
:10276000A01F89E590E0F0CF4BE550E068E372E010
:1027700084E694E00E94A01F8BE590E0E5CF41E560
:1027800050E067EE71E084E694E00E94A01F81E5CE
:1027900090E0DACF803809F04ECD8091E800877F55
:1027A0008093E800809150058093F10037CD81112E
:1027B00042CD1091FC04123008F03DCD8091E8002C
:1027C000877F8093E800109350050E94DB0F112350
:1027D000F9F084E08093DD050091DC050023F1F041
:1027E00042E360EC82E00E94FA0F11E08091540510
:1027F000811708F420CD812F8F70873020F442E3B9
:1028000061EC0E94FA0F053009F415CD1F5FEECF81
:102810008091E30087FDDDCF81E0DCCF42E261EC17
:1028200081E00E94FA0F46E260EC82E00E94FA0F1B
:1028300002CD0F931F93CF93DF938C01EB01809117
:10284000E80085FD10C08091E8008B778093E80058
:102850000E9444100E94AC0F882389F3DF91CF912E
:102860001F910F9108958091F100F80181938F01DC
:10287000219729F780E0F2CF1F920F920FB60F92A7
:1028800011242F933F938F939F93AF93BF93809186
:10289000EE059091EF05A091F005B091F105309112
:1028A000ED0523E0230F2D3758F50196A11DB11D2D
:1028B0002093ED058093EE059093EF05A093F0052E
:1028C000B093F1058091F2059091F305A091F40584
:1028D000B091F5050196A11DB11D8093F20590936D
:1028E000F305A093F405B093F505BF91AF919F91C7
:1028F0008F913F912F910F900FBE0F901F901895C1
:1029000026E8230F0296A11DB11DD2CF1F920F9270
:102910000FB60F9211242F933F934F935F936F93B2
:102920007F938F939F93AF93BF93EF93FF93809188
:10293000DA0080FF17C08091D80080FF13C080911B
:10294000DA008E7F8093DA008091D90080FF86C004
:1029500080E189BD82E189BD09B400FEFDCF81E03F
:102960008093DD058091E10080FF17C08091E20037
:1029700080FF13C08091E2008E7F8093E2008091FF
:10298000E20080618093E2008091D80080628093B1
:10299000D80019BC85E08093DD058091E10084FFBB
:1029A00026C08091E20084FF22C080E189BD82E1DF
:1029B00089BD09B400FEFDCF8091D8008F7D809342
:1029C000D8008091E1008F7E8093E1008091E20049
:1029D0008F7E8093E2008091E20081608093E2002C
:1029E000809150058823F1F184E08093DD0580918A
:1029F000E10083FF22C08091E20083FF1EC080912E
:102A0000E100877F8093E10082E08093DD051092F2
:102A100050058091E1008E7F8093E1008091E2007B
:102A20008E7F8093E2008091E20080618093E200DB
:102A300042E360E080E00E94FA0FFF91EF91BF91C6
:102A4000AF919F918F917F916F915F914F913F9146
:102A50002F910F900FBE0F901F90189519BC1092D8
:102A6000DD0580CF8091E30087FD02C081E0BDCF0E
:102A700083E0BBCFCF93DF93DC014032510514F0EC
:102A80004FE150E090E0292F30E02417350784F023
:102A90004F5F5F4F440F551F4D935C9353605093AE
:102AA00003054093020582E095E0DF91CF91089500
:102AB000F901EE0FFF1FEC5FFA4F260F371FE901F8
:102AC0002881022E000C330B318320839F5FDBCFE4
:102AD000CF93DF93CDB7DEB729970FB6F894DEBF5B
:102AE0000FBECDBF789484B5826084BD84B581600B
:102AF00084BD85B5826085BD85B5816085BD8091C9
:102B00006E00816080936E00109281008091810040
:102B10008260809381008091810081608093810038
:102B2000809180008160809380008091910082601C
:102B300080939100809191008160809391008091B9
:102B400090008160809390008091C10084608093A8
:102B5000C1008091C10082608093C1008091C1005A
:102B600081608093C1008091C30081608093C30025
:102B70008091C00082608093C0008091C20081601B
:102B80008093C20080917A00846080937A00809163
:102B90007A00826080937A0080917A0081608093CD
:102BA0007A0080917A00806880937A0056985E9AC5
:102BB0001092E60590E080E00E94A91F823008F0A4
:102BC000BCC08093E1051091E105113009F07FC090
:102BD00083EA91E00E94C51FDC0112961C921297B5
:102BE00020E033E014963C932E93139720E03CE0D2
:102BF00016963C932E93159717961C921797189636
:102C00001C92189719961C9319972EE1E8E9F1E0A8
:102C1000509601900D922A95E1F7FC0117A616A691
:102C200011AA10AA13AA12AAF49628E0DF011D9295
:102C30002A95E9F7FC0114AE15AE17AE16AEE05CAE
:102C4000FF4F1182108232962FEF3FE731832083AE
:102C500032963183208332963183208332963183BA
:102C6000208332961082319610822CE833E0DC010A
:102C70002D933C93E75BFF4F138214822AE0359635
:102C8000DF01B22E1D92BA94E9F73A9613821482AC
:102C90003596DF011D922A95E9F73A961082DC01FC
:102CA000AD54BF4F20E8E6EBF1E001900D922A957C
:102CB000E1F7DC01AD5CBE4F20E7E6E3F2E0019016
:102CC0000D922A95E1F79093E8058093E70510921D
:102CD00007068CE3809306061092B90084E4809383
:102CE000BC008CE08093B8001092FA051092FB05AE
:102CF000ECEEF5E0C590D490EEEEF5E0F490EFEE5A
:102D0000F5E0E491E093FC05E0EFF5E0E491E09379
:102D1000FD05E1EFF5E0E491E093FE0510E000E051
:102D20000F1568F4F601E00FF11F649186EF95E04E
:102D30000E94B2070F5F1F4FF3CF81E042CF86EFB3
:102D400095E00E94920961E886EF95E00E94B20743
:102D500061E086EF95E00E94B207E1E0F4E0F093D5
:102D60000206E09301068491E2E0F4E0E491F82F9A
:102D7000319709F0F1C01092FF0586EF95E00E94AF
:102D8000920911E0109304066EE186EF95E00E942F
:102D9000C60782E0809304068AEF93E00E94290927
:102DA0001093040662E086EF95E00E94BA070E9445
:102DB000B90A81E090E00E94A91F873008F080E006
:102DC000A091E705B091E80517968C931797ED91C0
:102DD000FC9111970190F081E02DCD01099564E1FE
:102DE00070E080E090E00E9450038091E7059091B0
:102DF000E805DC01ED91FC910280F381E02D09955D
:102E000064E170E080E090E00E9450038091E7056B
:102E10009091E805DC01ED91FC910280F381E02DB9
:102E20000995A091E705B091E80551968C915197CD
:102E300080FF96C081E017968C9317974E99B6C085
:102E400017961C9186EF95E00E94920945E050E0AC
:102E50006EEB73E086EF95E00E9482030E942E10D5
:102E60006CED75E080E090E00E94500386EF95E005
:102E70000E9492098DEE93E00E9436108FED93E050
:102E80000E94361082ED93E00E94361064EF71E0EC
:102E900080E090E00E94500381E0812C912C54014D
:102EA00001E0FF24F3944E9961C0F12C813089F444
:102EB0008FB7F8948090EE059090EF05A090F00504
:102EC000B090F1058FBF60E170E080E090E00E947B
:102ED00050032FB7F8948091EE059091EF05A091E3
:102EE000F005B091F1052FBF88199909AA09BB090E
:102EF000893E9340A105B10510F40C948C1F86EF18
:102F000095E00E9492098AEC93E00E94361083ECCF
:102F100093E00E942909812F0E9444090E942E10EB
:102F20000E942E108FEA93E00E94290960ED77E05D
:102F300080E090E00E945003612F81E090E00E94C9
:102F4000B11F88E19EE00FB6F894A89580936000C9
:102F50000FBE90936000FFCF81E08093FF050DCFFF
:102F600081FF6CCF17961C92179768CF81110C9434
:102F7000891F60E170E080E090E00E94500381E0F2
:102F8000011106C0882379F01F5F133008F010E0AC
:102F900007E025E04FE760E086EF95E00E945D09DD
:102FA000812F0E94440900E08F2D7BCFED91FC9191
:102FB00011970484F585E02DCD01099561E086EF38
:102FC00095E00E94BA0760E086EF95E00E94C60790
:102FD000E091E705F091E805878181111DC188E541
:102FE0000E9458098091E7059091E80521E032E0C0
:102FF000DC0114963C932E931397ED91FC91008481
:10300000F185E02D09958C018091E7059091E80507
:10301000DC01ED91FC910284F385E02D099520916E
:103020008F01E091E705F091E80537813093DC05E9
:10303000909356058093550520935405109353059E
:103040000093520584B7877F84BF0FB6F894A89584
:1030500080916000886180936000109260000FBED4
:1030600080E830E020E00FB6F89480936100209370
:1030700061000FBE8091D8008F7E8093D800809130
:10308000D70081608093D70084E082BF81E0809385
:1030900051058091D8008E7F8093D8001092E20075
:1030A0001092DA001092E1008091D8008F7780931F
:1030B000D8008091D80080688093D8008091D80093
:1030C0008F7D8093D80019BC1092DD0510925005B9
:1030D00010924F058091E0008B7F8093E0008091FB
:1030E000D80081608093D80042E360E080E00E94D5
:1030F000FA0F8091E1008E7F8093E1008091E200E1
:1031000081608093E2008091E20088608093E20019
:103110008091E0008E7F8093E0008091D8008061F4
:103120008093D80078940E942B030091E9051091B8
:10313000EA052091EB053091EC05AB01BC01401B89
:10314000510B620B730B8091900190919101B0E053
:10315000A0E0C12C481759076A077B07B0F080919F
:10316000E7059091E805DC01ED91FC910280F38187
:10317000E02D0995C82E0E942B036093E9057093FA
:10318000EA058093EB059093EC05D12C80918F019B
:10319000D81608F01CC68091E7059091E805DC017F
:1031A000ED91FC910680F781E02D6D2D0995009140
:1031B000E7051091E805ED2CF12CF80187818430AA
:1031C00009F487C108F037C0882309F469C093E186
:1031D000813009F400C298E0833009F0B8C18FE073
:1031E0008E9DF0018F9DF00D1124E00FF11FE089FD
:1031F000EF70E150EA3008F0A9C3F0E0EE5FF64E60
:103200000C94BF1F311C9E1CA61CA21CA41CA01C3D
:10321000A61C9A1C961C9C1C813011F483E5E0CE00
:10322000823011F488E4DCCE8350843010F48DE4D5
:10323000D7CE85E4D5CE853009F469C195E08630D6
:1032400009F0C9CF8FE08E9DF0018F9DF00D112404
:10325000E00FF11F21893289A9014170552782E0D1
:1032600021FF80E0842B22FF67C424E0822B80931F
:1032700057058FE08E9DF0018F9DF00D1124E00F1A
:10328000F11F2589368930935905209358052789E0
:10329000308D30935B0520935A0527E535E08EC0CD
:1032A00094E18FE08E9DF0018F9DF00D1124E00FD1
:1032B000F11F2089822F817032E021FF30E0832BC3
:1032C00034E022FF30E0832B23FF6FC128E0822B04
:1032D0002FE02E9DF0012F9DF00D1124E00FF11F26
:1032E0002189328940E131FF40E0842B40E230FF08
:1032F00040E0842B40E432FF40E0842B40E833FF81
:1033000040E0842B80934B01A901E4E0569547955A
:10331000EA95E1F7417082E025FF80E0842B44E0EC
:1033200034FF40E0842B40E120FF40E0842B40E26A
:1033300021FF40E0842B40E422FF40E0842B40E862
:1033400023FF40E0842B80934C018FE08E9DF001A1
:103350008F9DF00D1124E00FF11F458956895058BB
:103360005093500140934F014FEF5FE76789708D95
:10337000DA01A61BB70BB0935201A0935101618DE6
:10338000728D70587093540160935301638D748DE6
:10339000461B570B5093560140935501D801AE0D73
:1033A000BF1D9E968C91882309F401C1858D809361
:1033B0004D01868D80934E0129E431E03093E00584
:1033C0002093DF059093DE058091DD05843009F0C0
:1033D00074C082E08093E9008091E80082FF2AC0F7
:1033E0008091E80085FF21C08091DC058111C2C475
:1033F0000E94AC0F811108C050E040E068E070E02E
:10340000CE0101960E941914898181110EC08A8112
:10341000883059F4F701EE0FFF1FEE0FFF1FE00F8A
:10342000F11F8C8185AB8D8187AB8091E8008B7714
:103430008093E800870186E0000F111F8A95E1F76D
:10344000045A1A4F4091DE0550E06091DF057091FB
:10345000E005C8010E94EF20892B79F18091DC05FD
:10346000853009F094C481E08093E9008091E80000
:1034700080FF23C0E090DE05A090DF05B090E0055E
:103480000E94AC0FF12C882309F494C48091E800C9
:103490008E778093E800E090DE05F12CA090DF05A8
:1034A000B090E005A701B501C8010E94FC20A7016A
:1034B00070E060E0C5010E9405210E944410E09187
:1034C000E705F091E8058781882309F480C4D39447
:1034D0005DCE97E08FE08E9DF0018F9DF00D112461
:1034E000E00FF11FE089EF70E150EA3008F09BC275
:1034F000F0E0E358F54E0C94BF1FA81C0B1D131DE4
:103500000F1D111D0D1D131D071D031D091D94E029
:10351000DD2019F093E0D11002C381E080937F0198
:10352000D8015096EC91EF70E150EA3008F0F2C209
:10353000F0E0E356F54E0C94BF1F151D821D8A1D49
:10354000861D881D841D8A1D7E1D7A1D801D843068
:1035500018F5882309F4A5CE813009F43CC08FE02A
:103560008E9DF0018F9DF00D1124E00FF11FE08979
:10357000EF70E150EA3008F0F8C3F0E0EE53F54E9A
:103580000C94BF1F9E1DAD1EB51EB11EB31EAF1EF7
:10359000B51EA91EA51EAB1E853009F4BCCF08F4CC
:1035A00099CF863009F44ECEDACF20E090CEA90133
:1035B00066E0569547956A95E1F7417041954093CD
:1035C0004D01220F232F221F330B3195217021959E
:1035D00020934E01F1CE8FE08E9DF0018F9DF00D76
:1035E0001124E00FF11F8089E82FEF70E150EA30DD
:1035F00008F028C1F0E0E150F54E0C94BF1F091B04
:103600001A1C221C1E1C201C1C1C221C161C121CFA
:10361000181C10925F012FE02E9DF0012F9DF00DE0
:103620001124E00FF11F218932891901B1E02B2209
:103630003324E2E0F0E020FD02C0F0E0E0E0B90178
:1036400062707727A4E0B0E021FD02C0B0E0A0E006
:103650005901B694A794B694A7944A2D417049870E
:10366000AF01B9844B294A2B5B2BF901E870FF2786
:10367000A8E0B0E023FD02C0B0E0A0E04A2B5B2B45
:103680005901A0E1AA22BB24A0E1B0E024FD02C0C0
:10369000B0E0A0E04A2B5B2B4901B0E28B229924D9
:1036A000A0E2B0E025FD02C0B0E0A0E04A2B5B2B19
:1036B0003901A0E46A227724A0E4B0E026FD02C02C
:1036C000B0E0A0E0A42BB52B290140E8442255240A
:1036D00040E850E027FD02C050E040E0A42BB52BAD
:1036E000A9014427517030FF02C040E051E0A42BF3
:1036F000B52BA9014427527031FF02C040E052E0CF
:10370000A42BB52BA9014427547032FF02C040E01E
:1037100054E0A42BB52BA9014427587033FF02C0F5
:1037200040E058E0A42BB52BA9014427507134FF89
:1037300002C040E050E14A2B5B2BD901AA27B072AE
:1037400035FF02C0A0E0B0E24A2B5B2B50935E0134
:1037500040935D012FE02E9DD0012F9DB00D1124CF
:10376000A00FB11F56962C91569720936001589642
:103770002C915897209361015A962C915A97209337
:1037800062015C962C9120936301282F287021956B
:1037900020936401282F2470219520936501282F00
:1037A0002170219520936601827081958093670135
:1037B00081E0EF2B09F480E081958093680181E03E
:1037C000672B09F480E08195809369012194209210
:1037D0006A014985419540936B0181E0AB2809F46A
:1037E00080E0819580936C0181E0892809F480E074
:1037F000819580936D01F801EE0DFF1D86A588234C
:1038000019F18FE08E9DF0018F9DF00D1124E00FD6
:10381000F11F858D80936E01868D80936F012DE55C
:1038200031E0CCCD21E020935F01F5CE22E0FBCF4B
:1038300023E0F9CF24E0F7CF25E0F5CF26E0F3CF62
:1038400027E0F1CF28E0EFCF81E0672809F480E09E
:10385000819580936E0181E0452809F480E081958F
:10386000DCCF109272018FE08E9DF0018F9DF00DE4
:103870001124E00FF11F218932898091700120FB12
:1038800081F9A9015695479540FB82F9B9017695D2
:10389000679576956795A901B3E056954795BA95D2
:1038A000E1F760FB80F940FB83F9A90164E05695DC
:1038B00047956A95E1F740FB84F9A90175E05695B3
:1038C00047957A95E1F740FB85F9A901A6E0569561
:1038D0004795AA95E1F740FB86F9A901440F452FCA
:1038E000441F550B519540FB87F9809370018091DF
:1038F000710130FB80F931FB81F932FB82F933FB36
:1039000083F934FB84F98093710186898093730174
:10391000208D20937401228D20937501248D209396
:1039200076018093770120E731E048CD81E08093F4
:10393000720199CF82E0FBCF83E0F9CF84E0F7CF2B
:1039400085E0F5CF86E0F3CF87E0F1CF88E0EFCFD9
:1039500010927E018FE08E9DF0018F9DF00D11245D
:10396000E00FF11F218932898091790120FB86F9CE
:10397000A9015695479540FB85F9A90156954795AC
:103980005695479540FB87F9A90163E05695479501
:103990006A95E1F740FB84F9A90174E056954795D3
:1039A0007A95E1F740FB82F9A901A5E05695479584
:1039B000AA95E1F740FB83F9B901B6E076956795E2
:1039C000BA95E1F7A901440F452F441F550B5195B6
:1039D00060FB80F940FB81F9809379018091780147
:1039E00030FB82F931FB83F932FB80F933FB81F93B
:1039F00080937801858980937D01838980937C0100
:103A000028E731E0DBCC81E080937E01A3CF82E028
:103A1000FBCF83E0F9CF84E0F7CF85E0F5CF86E0F8
:103A2000F3CF87E0F1CF88E0EFCF10928201F80169
:103A3000418952899A012170332762E070E041FD8B
:103A400002C070E060E0262B372B60E170E042FDA1
:103A500002C070E060E0262B372B68E070E043FD89
:103A600002C070E060E0262B372B60E470E044FD7C
:103A700002C070E060E0262B372B60E870E045FD67
:103A800002C070E060E0262B372B60E071E046FD5D
:103A900002C070E060E0262B372B60E072E047FD4B
:103AA00002C070E060E0262B372B60E074E050FD30
:103AB00002C070E060E0262B372B60E078E051FD1B
:103AC00002C070E060E0262B372B60E070E252FD10
:103AD00002C070E060E0262B372B53FF1DC040E092
:103AE00050E4242B352B30938101209380012FE764
:103AF00031E064CC81E08093820199CF82E0FBCFFA
:103B000083E0F9CF84E0F7CF85E0F5CF86E0F3CF0F
:103B100087E0F1CF88E0EFCF50E040E0E2CF82E0F5
:103B200080938B01D80153968C9180938C011092D5
:103B30008D012BE831E042CC20E098CB1092860139
:103B40008FE08E9DF0018F9DF00D1124E00FF11F8D
:103B500041895289BA016170772722E030E041FD46
:103B600002C030E020E0262B372B60E170E042FD00
:103B700002C070E060E0262B372B68E070E043FD68
:103B800002C070E060E0262B372B60E470E044FD5B
:103B900002C070E060E0262B372B60E870E045FD46
:103BA00002C070E060E0262B372B60E071E046FD3C
:103BB00002C070E060E0262B372B60E072E047FD2A
:103BC00002C070E060E0262B372B60E074E050FD0F
:103BD00002C070E060E0262B372B60E078E051FDFA
:103BE00002C070E060E0262B372B60E070E252FDEF
:103BF00002C070E060E0262B372B60E070E453FDDC
:103C000002C070E060E0262B372B54FFB0C040E0CC
:103C100050E1242B352B8FE08E9DF0018F9DF00D10
:103C20001124E00FF11F6389748944E050E060FDC6
:103C300002C050E040E0242B352B40E250E061FD13
:103C400002C050E040E0242B352B032E000C440B27
:103C5000612CE0E87E2E812C62FD03C0612C712C6A
:103C6000812C262937294829612C712C882483949A
:103C700063FD03C0612C712C812C2629372948292A
:103C8000612C712C82E0882E64FD03C0612C712CA4
:103C9000812C262937294829612C712CB4E08B2EE0
:103CA00065FD03C0612C712C812C262937294829F8
:103CB000612C712CA8E08A2E66FD03C0612C712C4A
:103CC000812C262937294829612C712CF0E18F2E6F
:103CD00067FD03C0612C712C812C262937294829C6
:103CE000612C712CE0E28E2E70FD03C0612C712CD2
:103CF000812C262937294829612C712C50E4852EE6
:103D000071FD03C0612C712C812C2629372948298B
:103D10002093830130938401409385018FE08E9D31
:103D2000F0018F9DF00D1124E00FF11F8689809323
:103D30008701808D80938801828D80938901848D95
:103D400080938A0123E831E039CB81E080938601BA
:103D5000F7CE82E0FBCF83E0F9CF84E0F7CF85E0B8
:103D6000F5CF86E0F3CF87E0F1CF88E0EFCF50E0EA
:103D700040E04FCF0E94AC0F811157CB50E040E0A4
:103D800067E070E0CE0101960E9419144ECB81E0ED
:103D90008D0D8F7069CB8091E80085FD0FC08091FB
:103DA000E8008E778093E8000E9444100E94AC0FD8
:103DB00081116CCBE114F10471F768CBF5018191AD
:103DC0005F018093F100F1E0EF1AF108F3CF8091E9
:103DD000E605882379F01092E60561E086EF95E02C
:103DE0000E94BA0760E086EF95E00E94C60780E572
:103DF0000E9458098FB7F8948090EE059090EF05D7
:103E0000A090F005B090F1058FBFCC2039F08091E3
:103E10008E01811135C081E00E94D20A80918E010D
:103E20008823B9F08091E2059091E305A091E40523
:103E3000B091E505881A990AAA0ABB0A20EC8216F5
:103E400024ED920621E0A206B10418F080E00E9461
:103E5000D20A4E990DC06CE271E080E090E00E94C1
:103E6000500380918E01811114C081E00E94D20A1A
:103E700080E090E0892B09F456C90E94000053C9E4
:103E80008092E2059092E305A092E405B092E505E8
:103E9000C5CFF090E1050E948C050E94B90A10E0A0
:103EA00000E062E070E080E090E00E9450034E99F4
:103EB0000CC06CE271E080E090E00E9450030E9430
:103EC0008C050E94B90A10E000E00F5F1F4F003D13
:103ED00037E0130731F76091E105F61203C00E9445
:103EE000B90AC6CF90E080E00E94B11F86EF95E04E
:103EF0000E94920982EF95E00E94290988E19EE0E4
:103F00000FB6F894A895809360000FBE9093600060
:103F1000FFCF80E00C94C01701110C94C8170C94CB
:103F2000D317E6EFF5E01382128212861486138609
:103F3000158681E086878EE793E0918380830895DC
:103F4000FB01DC0102C005900D9241505040D8F7B2
:103F50000895F999FECF92BD81BDF89A992780B551
:103F60000895262FF999FECF1FBA92BD81BD20BDBD
:103F70000FB6F894FA9AF99A0FBE01960895EE0FCB
:103F8000FF1F0590F491E02D09940F931F93CF9399
:103F9000DF938230910510F482E090E0E0910A0610
:103FA000F0910B0630E020E0B0E0A0E0309799F40B
:103FB0002115310509F44AC0281B390B243031057D
:103FC000D8F58A819B816115710589F1FB01938385
:103FD0008283FE0111C04081518102811381481703
:103FE0005907E0F04817590799F4109761F01296B5
:103FF0000C93129713961C933296CF01DF91CF91B9
:104000001F910F91089500930A0610930B06F4CFA9
:104010002115310551F04217530738F0A901DB0192
:104020009A01BD01DF01F801C1CFEF01F9CF9093F3
:104030000B0680930A06CDCFFE01E20FF31F81939A
:1040400091932250310939832883D7CF20910806D4
:1040500030910906232B41F4209194013091950170
:104060003093090620930806209192013091930124
:104070002115310541F42DB73EB74091960150917D
:104080009701241B350BE0910806F0910906E21711
:10409000F307A0F42E1B3F0B2817390778F0AC016B
:1040A0004E5F5F4F2417350748F04E0F5F1F509348
:1040B000090640930806819391939FCFF0E0E0E0DA
:1040C0009CCFCF93DF930097E9F0FC0132971382E6
:1040D0001282A0910A06B0910B06ED0130E020E0BB
:1040E0001097A1F420813181820F931F209108063F
:1040F000309109062817390709F061C0F0930906C5
:10410000E0930806DF91CF910895EA01CE17DF070B
:10411000E8F54A815B819E0141155105B1F7E9013E
:10412000FB83EA8349915991C40FD51FEC17FD0712
:1041300061F4808191810296840F951FE901998332
:104140008883828193819B838A83F0E0E0E01296EA
:104150008D919C9113970097B9F52D913C911197F2
:10416000CD010296820F931F209108063091090617
:104170002817390739F6309751F510920B0610922F
:104180000A06B0930906A0930806BCCFD383C28366
:1041900040815181840F951FC817D90761F44E5F84
:1041A0005F4F88819981480F591F518340838A81CD
:1041B0009B81938382832115310509F0B0CFF09361
:1041C0000B06E0930A069ECFFD01DC01C0CF1382EF
:1041D0001282D7CF81E090E0F8940C940C21FB017F
:1041E000DC0104C08D910190801921F441505040B0
:1041F000C8F7881B990B0895FB01DC0102C00190F0
:104200000D9241505040D8F70895DC0101C06D93E4
:0C42100041505040E0F70895F894FFCFB3
:10421C0021260107000000005265666C657820417C
:10422C006461707400504F4B4B454E20434F4E54BD
:10423C00524F4C4C4552004D695354657241646465
:10424C006F6E7300484F524920434F2E2C4C5444F0
:10425C002E0001010101010101001400000000FF0A
:10426C007FFF7FFF7FFF7F00000000000000000841
:10427C008080808000000000000000000000000032
:10428C000000088080808080000000000000080191
:10429C0000000800000008808080800200000101FE
:1042AC00C80000000C0680000000000000FF7FFF2B
:1042BC007FFF7FFF7F00000000000000FF7FFF7F7B
:1042CC00FF7FFF7F00000100000003303B3C020039
:1042DC000000022A3B3C0400000002185E6008004B
:1042EC000000021E5E601000000001062223200068
:1042FC000000030624254000000002002627800051
:10430C000000020C28290001000002363B3C000290
:10431C00000001303B3C0004000000063E3F00085A
:10432C00000000303E3F02000000032A3B3C01002D
:10433C00000003303B3C0400000002187B7D0800A9
:10434C000000021E7B7D01000000033024250200CA
:10435C000000022A26270400000003103B3C080042
:10436C00000003163B3C1000000001062223200035
:10437C0000000306242540000000020026278000D0
:10438C000000020C28290001000002362829000236
:10439C000000013022230004000000063E3F00080C
:1043AC00000000303E3F0010000003203B3C00208A
:1043BC00000003263B3C312E300047503230343065
:1043CC002D43452028442D496E70757429004F707B
:1043DC00656E20537469636B20436F6D6D756E69E8
:1043EC007479000904312E3000504F4B4B454E2050
:1043FC00434F4E54524F4C4C455200484F5249205B
:10440C00434F2E2C4C54442E000904312E300058AE
:10441C00496E707574205354414E444152442047A8
:10442C00414D45504144004D6963726F736F667422
:10443C0000090409023100010100A0FA090400007E
:10444C0002FF5D0100112100010125811400000013
:10445C000013020800000705810320000107050274
:10446C0003200004595B4637D302BE02AA02A602FF
:10447C00F902EB02D902D5020202846A96002103EA
:10448C001703FF02FB02003C427F00000000F20712
:10449C008203EF0A96056B0700000000D005220B83
:1044AC00CC038006A30597059605525A4D56626FAC
:1044BC007900525A4D536E6573000D0A003031323B
:1044CC003334353637383941424344454600534539
:0444DC0054555000E3
:00000001FF
