:100000000C945C030C9484030C9484030C9484037C
:100010000C9484030C9484030C9484030C94840344
:100020000C9484030C9484030C9455260C94840340
:100030000C9484030C9484030C9484030C94840324
:100040000C9484030C9484030C9484030C94840314
:100050000C9484030C9484030C9484030C940B265A
:100060000C9484030C9484030C9484030C948403F4
:100070000C9484030C9484030C9484030C948403E4
:100080000C9484030C9484030C9484030C948403D4
:100090000C9484030C9484030C9484030C948403C4
:1000A0000C9484030C9484030C948403AED580A830
:1000B0003FD300408D142002A1C8DA12817FD9F10C
:1000C000DB40A4A6AF1201000200000040D0167E63
:1000D0001200010102030112010002000000400DA4
:1000E0000F920000010102030112010002FFFFFF55
:1000F000405E048E021401010203010904000001A4
:1001000003000000092111010001224600070581BA
:10011000034000010902220001010080320902228D
:100120000001010080320904000001030000000901
:10013000211101000122510007058103400001093E
:1001400004000001030000000921110100012256F2
:100150000007058103400001090229000101008018
:10016000FA09211101000122460005010905A1013A
:10017000150025013500450175019518050919017E
:100180002918810205012507463B01750495016583
:10019000140939814265009501810126FF0046FF5F
:1001A000000930093109350936750895048102C006
:1001B00005010905A10105091901290315002501FA
:1001C0007501950355006500810275019505810350
:1001D00005010901150026FF0375109502A100090C
:1001E0003009318102C0C005010905A1018501A1C5
:1001F0000005091901290C150025019510750181CB
:100200000205010939150025073500463B0175082F
:10021000950165148142C0C005010902A101850252
:100220000901A100093009311581257F3581457FFC
:10023000950275088106C0C005010904A101A1004D
:100240000509190129101500250195107501810274
:1002500005010901A100093009311580257F9502AA
:1002600075088102C009371580257F9501750881C1
:10027000060938150026FF00950175088102093925
:10028000150025073500463B017508950165148169
:1002900042C0C005010905A1011500250135004531
:1002A000017501950E05091901290E81029502813A
:1002B0000105012507463B017504950165140939BF
:1002C000814265009501810126FF0046FF0009304B
:1002D000093275089502810205027508950315001B
:1002E00026FF0009BB09C509C88102C0050109052F
:1002F000A10115002501350045017501951005097D
:1003000019012910810205012507463B0175049555
:100310000165140939814265009501810126FF00BC
:1003200046FF000930093109320935750895048105
:10033000020600FF092009210922092309240925B1
:100340000926092709280929092A092B950C810260
:100350000A21269508B102C056424F59004E545406
:1003600000534E4553004E4553004D554C54492DB6
:1003700054415000504144004E2F41004E4F4E45D5
:1003800000535749544348004552524F5200484980
:10039000440058494E50555400464D542B4D535827
:1003A0002B5836384B2B50432D583800534D532B78
:1003B00041544152492B4336342B414D494741006A
:1003C00047414D4543554245004E3634204D4F522E
:1003D000452052414E4745004E454F2D47454F0061
:1003E0004E45532B534E45532B56424F5900000058
:1003F00000002300260029002C002F000000000030
:10040000250028002B002E003100000000002400F1
:1004100027002A002D00300004040404040304050E
:100420000202020204030202020206060606060691
:100430000404020202040404080201104080401077
:1004400020408040800802040180402010020110FA
:1004500080102040402000030C0F30333C3FC0C3CD
:10046000CCCFF0F3FCFF4445564943452057494C57
:100470004C2052455354415254004D4F44453A206C
:10048000005341564544210A00484F4C443A20202D
:10049000534156450A0050524553533A2043484170
:1004A0004E4745004F5554505554204D4F44450A32
:1004B000005245464C4558000000050720610000E9
:1004C00000000000005F00006070787060605048BD
:1004D000506003070F07030305090503081C3E7F4F
:1004E0007F081C22417F7F7F3E1C087F41221C0821
:1004F000082A1C2A0808083E080800503000000896
:1005000008080808006060000020100804023E513E
:1005100049453E00427F40004261514946214145E4
:100520004B311814127F1027454545393C4A49493B
:100530003001710905033649494936064949291EE2
:1005400000363600003C7E7E7E3C3C4242423C14FB
:1005500014141414F0F0F0F0F0F0909090F0324990
:1005600079413E7E1111117E7F494949363E414114
:1005700041227F4141221C7F494949417F090901AC
:10058000013E414151327F0808087F00417F410010
:100590002040413F017F081422417F404040407F7E
:1005A0000204027F7F0408107F3E4141413E7F09E3
:1005B0000909063E4151215E7F09192946464949EC
:1005C000493101017F01013F4040403F1F20402051
:1005D0001F7F2018207F631408146303047804032A
:1005E000615149454300007F414102040810204108
:1005F000417F0000383C1E0F0740404040403824F7
:1006000012090720545454787F48444438384444ED
:100610004420384444487F3854545418087E090113
:1006200002081454543C7F0804047800447D4000C0
:100630002040443D00007F10284400417F40007C62
:10064000041804787C0804047838444444387C1442
:10065000141408081414187C7C0804040848545422
:100660005420043F4440203C4040207C1C2040203B
:100670001C3C4030403C44281028440C5050503C16
:100680004464544C44E0E0E0E0E000007F0000E01F
:10069000A0A0A0E008082A1C08081C2A08080006D8
:1006A000090906AC00198040005245424F4F544999
:1006B0004E472E2E2E00B73111241FBECFEFDAE0A9
:1006C000DEBFCDBF15E0A0E0B1E0EEE1F7E602C08D
:1006D00005900D92A83AB107D9F728E0A8EAB5E04D
:1006E00001C01D92A231B207E1F713E0CCE5D3E0DF
:1006F00004C02197FE010E944032CB35D107C9F7D3
:100700000E9437270C948D330C940000CF93DF9315
:10071000EC0180E595E0998388831A8280E093E07C
:100720009C838B8380E09CE09E838D831F82188650
:1007300081E089878EE1EFE9F1E0DE0150960190DA
:100740000D928A95E1F71FA61EA619AA18AA1BAA40
:100750001AAAFE01F49688E0DF011D928A95E9F756
:100760001CAE1DAE1FAE1EAE3C961182108232969C
:100770008FEF9FE7918380833296918380833296B7
:100780009183808332969183808332961082C55BF9
:10079000DF4F1882DF91CF9108953FB7F894809191
:1007A000F8079091F907A091FA07B091FB0726B5D9
:1007B000A89B05C02F3F19F00196A11DB11D3FBF99
:1007C000BA2FA92F982F8827BC01CD01620F711D68
:1007D000811D911D42E0660F771F881F991F4A9562
:1007E000D1F708958F929F92AF92BF92CF92DF92EE
:1007F000EF92FF924B015C010E94CD036B017C01E3
:100800000E94CD036C197D098E099F09683E7340D3
:1008100081059105A8F321E0821A9108A108B10889
:1008200088EEC80E83E0D81EE11CF11C81149104EF
:10083000A104B10429F7FF90EF90DF90CF90BF9013
:10084000AF909F908F900895AF92BF92CF92DF921A
:10085000EF92FF920F931F93CF93DF936C017B0175
:100860008B01040F151FEB015E01AE18BF08C01706
:10087000D10759F06991D601ED91FC910190F08179
:10088000E02DC6010995892B79F7C501DF91CF913C
:100890001F910F91FF90EF90DF90CF90BF90AF909E
:1008A0000895CF93DF93EC018A85882329F0815046
:1008B0008A87DF91CF9108959C818E819817C8F720
:1008C0008D856827E881F9810084F185E02D42E07B
:1008D000CE0109958C818F5F8C83EBCFEF920F93C4
:1008E0001F93F901DA012C913E2D309532233C9370
:1008F00030813E293083FC01D80198E080E030E06F
:1009000020E04C914E2189F02A95D9F720E04C91B6
:100910004E2159F02A95D9F720E84C914E2129F023
:100920002A95D9F73A9561F717C047E04A95F1F74C
:10093000000031E0550F4C914E2109F051609A951D
:1009400029F45193839598E0681731F020E84C9191
:100950004E2111F72A95D9F71F910F91EF90089525
:100960000F931F93F9012081202B2083DA012C9112
:10097000202B2C9320814081202B30E010E000952B
:10098000109550E004231523DC015D9148E00083BD
:10099000550F40F474E07A95F1F720837AE07A9568
:1009A000F1F705C07EE07A95F1F7000020834A95C3
:1009B00029F073E07A95F1F70000E9CF6A9529F004
:1009C00071E07A95F1F70000E0CF72E07A95F1F7E7
:1009D00000000000008374E07A95F1F70000000049
:1009E00020831F910F9108957F928F929F92AF92D3
:1009F000BF92CF92DF92EF92FF920F931F93CF930C
:100A0000DF93DB01642F5901F02E282F30E0F9012C
:100A1000E95CFB4FE490285E3B4FF901249130E004
:100A2000220F331FF901E65FFB4FC591D491F90105
:100A3000E450FC4FC590D490F901E251FC4F8590F1
:100A400094907FB6F8940E2D9601AE01CD010E94D0
:100A5000B00484019601AE016F2DC5010E946E04A1
:100A60007FBEDF91CF911F910F91FF90EF90DF90AC
:100A7000CF90BF90AF909F908F907F900895CF932D
:100A8000DF93FC0187812FEF3FE7813011F420E8ED
:100A900030E8462F50E0DF018FE0689FA00DB11DC8
:100AA000112450969C916185892F8370823021F1A9
:100AB000833029F0813021F5809353071BC06111E9
:100AC00011C081E0809353079C70983009F457C09F
:100AD0009C30D1F0943009F055C0846093E090933D
:100AE00052071CC0623061F480915307882341F0A3
:100AF000813021F081E0E8CF8093530782E0E4CF9A
:100B00001092530780E0E0CF6230E1F590915207F8
:100B10009923C1F1933089F194E0892B9FE0949F50
:100B2000D001959FB00D1124AE0FBF1F50968C932E
:100B300050978085EF01C40FD51F813031F182308D
:100B400009F46CC088A9811108C056963C932E9375
:100B5000559758963C932E9357978AA9811155C063
:100B60006FE0649FC001659F900D1124E80FF91F8D
:100B7000328F218F348F238F48C098E0CECF88608A
:100B800094E0ADCF10925207C9CF8AA9811108C055
:100B90005A963C932E9359975C963C932E935B9771
:100BA0008FE0849FD001859FB00D1124AE0FBF1F31
:100BB00050968C918C70843071F1883049F58FEFAC
:100BC0009FEF2FE0249FD001259FB00D1124AE0F81
:100BD000BF1F56969C938E93559750968C91837019
:100BE00030E020E0813031F02FEF3FEF823011F024
:100BF0002FEF3FE76FE0649FC001659F900D1124C8
:100C0000E80FF91F308F278B108ADF91CF9108955D
:100C10008FEF9FE7D6CF90E080E0D3CF88A98111F6
:100C200008C056963C932E93559758963C932E9316
:100C300057978FE0849FD001859FB00D1124AE0F90
:100C4000BF1F50968C918C70843059F1883031F5EB
:100C50008FEF9FEF2FE0249FD001259FB00D11242F
:100C6000AE0FBF1F5A969C938E93599750968C91B6
:100C7000837030E020E0813031F02FEF3FEF8230A1
:100C800011F02FEF3FE76FE0649FC001659F900D6B
:100C90001124E80FF91F348F238FB6CF8FEF9FE712
:100CA000D9CF90E080E0D6CFCF93DF93DC011396CD
:100CB0002D913C911497C62FD0E0FC018FE0689FE6
:100CC000E00DF11D112461897289C90186239723E2
:100CD0002817390709F04BC080898F70823071F175
:100CE00028F48130C9F190E080E021C0843089F09F
:100CF0008830C9F782E018968C93108A2095309539
:100D00008189928928233923328B218B84E090E0DA
:100D10000EC081E018968C93108A209530958189B9
:100D2000928928233923328B218B82E090E09093A3
:100D3000510780935007DF91CF91089518961C9228
:100D4000108A209530958189928928233923328B06
:100D5000218B81E090E0EBCF108A209530952623FF
:100D600037233061328B218B88E090E0E0CF1596FD
:100D70004D915C911697642375234617570709F028
:100D8000B2CF80898F70823009F440C088F48130FE
:100D900009F0A9CF19961C92108A40955095818927
:100DA000928948235923528B418B80E290E0BFCF38
:100DB0008430D9F1883009F096CF80915007909116
:100DC00051078115924041F01B968C911B9791E041
:100DD00089271B968C931B972FE02C9FC0012D9F7A
:100DE000900D1124A80FB91F50961C925097409552
:100DF000509551968D919C91529748235923529624
:100E00005C934E93519780E092E091CF81E01996E8
:100E10008C93108A40955095818992894823592353
:100E2000528B418B80E490E082CF82E019968C93C4
:100E3000108A409550958189928948235923528B75
:100E4000418B80E890E073CF84E98093BC0085E615
:100E50009091BC0094FF03C08150D1F7089581E0C8
:100E60000895DF92EF92FF920F931F93CF93DF933A
:100E7000FC0186818387878190859587848781851A
:100E8000928597878687D48014822C9A8BE290E093
:100E90000197F1F72C9883E190E00197F1F7208911
:100EA00030E0326750E040E090E080E0C3E1EC2EBB
:100EB000F12C37FF71C05C9A220F331F6CB166FBB7
:100EC000002700F910E0B801042E02C0660F771F5A
:100ED0000A94E2F7862B972B2D98E7012197F1F7DB
:100EE0002D9AE7012197F1F74F5F5F4F4031510590
:100EF00001F75C98492F42954F7051E04D3009F44D
:100F000050E170E060E030E020E0A3E1EA2EF12C57
:100F10001CB116FBAA27A0F9B0E08D01062E02C075
:100F2000000F111F0A94E2F7202B312B2D98E701B7
:100F30002197F1F72D9AE7012197F1F76F5F7F4F26
:100F4000651730F380959095209530954F3029F4B2
:100F50002E3FDFEF3D0709F444C0548161E0650F87
:100F6000648361E070E0511102C070E060E0411103
:100F700015C0A92FBB27AF70BB271F9779F44AE094
:100F8000469FD001479FB00D1124AE0FBF1F4FE009
:100F900016964C93169715C05C988ECF542F50958B
:100FA00052FF47C02AE0269FD001279FB00D112491
:100FB000AE0FBF1F24E016962C9316975370252F63
:100FC00030E01A963C932E9319972AE0269FD00181
:100FD000279FB00D1124AE0FBF1F18969C938E93C0
:100FE000179784818D15E8F44AE09FEF21E030E007
:100FF000811102C030E020E0429FD001439FB00D3C
:101000001124AE0FBF1F16969C93169718961C922C
:101010001E9217971A961C921E9219978F5FD812DC
:10102000E5CFDF91CF911F910F91FF90EF90DF906F
:1010300008955AE0569FD001579FB00D1124AE0F6E
:10104000BF1F5FE04527A4CF8091E6078F5F873001
:1010500018F48093E607089581E0FBCF0895259862
:101060002D982D9A24982C982C9A6E987698769A8A
:1010700057985F985F9A3E984698469A85988D98BB
:101080008D9A86988E988E9A87988F988F9A2198A5
:101090002998299A23982B982B9A2091E607FC01EE
:1010A000EE55FF4F91E0263009F090E09083263016
:1010B000C9F454985C985C9A22982A982A9A3F9A84
:1010C0004798269A2E9882E390E090939801809317
:1010D000970182E08093960164E170E080E090E007
:1010E0000C94F2033F984798479A26982E982E9A88
:1010F000EACF8E559F4FFC018081811103C08AE0A9
:1011000091E008958BE091E008958E559F4FFC018A
:101110008081811103C08FE595E0089588E595E011
:101120000895CF93DF93EC010E94860384EE94E050
:1011300099838883DE01AD55BF4F80E4EDEBF1E08C
:1011400001900D928A95E1F7DF91CF91089588E0A3
:1011500091E0089586E695E00895CF93DF93EC0142
:1011600065E070E080E090E00E94F20382E080930E
:10117000960181E088AB89AB62E370E080E090E0AB
:10118000DF91CF910C94F20387E091E008958DE612
:1011900095E00895EF92FF920F93CF93DF931F9204
:1011A000CDB7DEB77C01FC018589198203E0970188
:1011B00041E0BE016F5F7F4F0E94F404F70183306E
:1011C00029F010821182128290E016C080819181F4
:1011D00088309042C9F0F701858991E4998397019D
:1011E0002D5F3F4F0AE041E0BE016F5F7F4F0E94DD
:1011F000F40491E08A3041F7892F0F90DF91CF916D
:101200000F91FF90EF90089591E0F6CF1F93CF9349
:10121000DF93EC0165E070E080E090E00E94F20373
:1012200082E080939601FE01EC56FF4F8081918110
:101230000E94CA0811E018AB1AABFE01EA56FF4F34
:10124000808191810E94CA0819AB1BAB62E370E0F8
:1012500080E090E0DF91CF911F910C94F203EF9228
:10126000FF920F93CF93DF9300D01F92CDB7DEB7DD
:101270007C01FC0180819181892BC9F09701235F5A
:101280003F4FF7018589408151814830504219F51F
:1012900094E599831A821B8208E043E0BE016F5FE8
:1012A0007F4F0E94F404883081F481E005C0C701BB
:1012B0000E94CA088111E2CF0F900F900F90DF912A
:1012C000CF910F91FF90EF900895F7011082118256
:1012D000128280E0F1CFF701928193FB992790F978
:1012E00040E4498343E04A839B8308E0D7CF2198B9
:1012F0002998299A3E984698469A3F984798479A3F
:1013000057985F985F9A22982A982A9A6E987698AA
:10131000769A54985C985C9A24982C982C9A2598E4
:101320002D982D9A23982B982B9A10929801109211
:10133000970164E170E080E090E00C94F20384E0B7
:1013400091E0089584E795E008958A549F4FFC0149
:101350008081811103C081E091E0089582E091E0F5
:1013600008958A549F4FFC018081811103C086E853
:1013700095E008958EE795E00895FC019081911124
:1013800006C083819481019699F080E008959F3092
:1013900049F4228130E02F7033272F30310561F47A
:1013A00082E00895923031F0943031F485E0089570
:1013B00083E0089584E0089581E00895AF92BF929C
:1013C000CF92DF92EF92FF920F931F93CF93DF9311
:1013D000FC01E756FF4F1082249A2C98259A2D9AEB
:1013E0006E987698769A549A5C98DC01A655BF4F11
:1013F0001C92869A8E98859A8D9A87988F988F9A44
:10140000229A2A98A3E2B0E01197F1F720812111E6
:101410003EC0EC0182E0809396018E010C561F4F76
:10142000C8010E943107FE01E856FF4FB080D12C61
:10143000780186E0E80EF11CCA54DF4F3AE0A32E93
:10144000CC24CA94DB1461F1D11008C0C7010E94FA
:10145000BD0991E0853009F090E0988381E090E04B
:10146000D11002C090E080E0A89EF001A99EF00D8E
:101470001124E00FF11FC682108617821286118692
:10148000C3861586148617861686D394DBCF82E032
:101490008093960188EE93E0909398018093970152
:1014A00080919701909198018230910538F0880FD2
:1014B000991F880F991F05970197F1F7DF91CF9139
:1014C0001F910F91FF90EF90DF90CF90BF90AF9062
:1014D0000895FC016093BC002FEF3FEF8091BC00AA
:1014E00087FF06C09091B900987F908381E00895AE
:1014F0002150310999F780E00895CF93DF93EC01F3
:101500006093BB0064E80E94690A882329F081E0A7
:101510009881983209F080E0DF91CF910895DF92B1
:10152000EF92FF920F931F93CF93DF93EC01D62E90
:10153000F42E8989882329F0411103C00E942407D1
:10154000198A8E01015F1F4F8989811119C0E888AE
:1015500064EAC8010E94690A882361F08F85883097
:1015600011F0803139F4EE0CE092BB0064E8C80160
:101570000E94690A60E0F11060E4C8010E947D0ADF
:101580006D2DC8010E947D0A82E0F8120BC0898986
:101590008F5F898BDF91CF911F910F91FF90EF901B
:1015A000DF9008950E942407198AF4CFDC01ED91A1
:1015B000FC910084F185E02D40E00994FC01278135
:1015C000269526952695621720F46583606B0C940A
:1015D000D60A08950F931F93CF93FC0126816217BB
:1015E00098F4C62F8C0164836085C60F6C2F6F70D2
:1015F0000E94D60A6C2F62956F706061C801CF910E
:101600001F910F910C94D60ACF911F910F910895BD
:101610001F93CF93DF93EC01142F0E94EA0A612FEE
:10162000CE01DF91CF911F910C94DE0A2F923F9251
:101630004F925F926F927F928F929F92AF92BF92E2
:10164000CF92DF92EF92FF920F931F93CF93DF938E
:1016500000D000D000D0CDB7DEB7FC0123853485A3
:101660002115310509F416C19E838D83F901329647
:10167000649031964491E42EF12CF7E0EF0EF11CCA
:1016800053E0F594E7945A95E1F7E982F90134962D
:1016900054913196E4916D30F1F460E00E94EA0AD1
:1016A00081E090E026960FB6F894DEBF0FBECDBF66
:1016B000DF91CF911F910F91FF90EF90DF90CF902E
:1016C000BF90AF909F908F907F906F905F904F9062
:1016D0003F902F9008956A3081F460E08D819E8163
:1016E0000E94EA0AED81FE81868565818E9D600DEE
:1016F0001124CF010E94DE0AD3CF651708F4CAC0B7
:101700008E2F90E0FC01E50FF11D6E171F060CF007
:10171000C1C089010A5F1F4F651BED81FE81718584
:101720005685759F502D11245C83F90154912F5FCC
:101730003F4FF9012491352F2230310508F06AC05E
:101740006E9CC0016F9C900D1124689FF001699FF1
:10175000F00D11240E0F1F1F512CED81FE81F4811D
:10176000FA83ED81FE812580F285FB83862C912C06
:10177000AA24A394B12C312C8981381608F086C094
:10178000412CED81FE818685481608F078C08B815A
:101790008287311002C0442041F0ED81FE814581F5
:1017A0004F5F6A81CF010E94080BD12CC12CC61457
:1017B00008F058C0F801EC0DFD1D7490552061F043
:1017C000EA14FB0449F4E72DF0E0052C02C0F5957E
:1017D000E7950A94E2F77E2EED81FE8186858230C0
:1017E00081F4442009F43AC072948FE07822E72D06
:1017F000F0E0EA5AFB4F7490672D8D819E810E9424
:101800005104672D8D819E810E9451048FEFC81A6B
:10181000D80ACDCF477028E0522E541A411101C08A
:10182000512CF801612C30E020E0661631F0449133
:10183000240F311D63943196F8CF600E712E711C08
:10184000F3016490E29EF001E39EF00DF29EF00D34
:1018500011248E0F9F1F080F191F7FCFF72DFF70C8
:101860007F2EC5CFD12CEC81DE1639F060E08D8162
:101870009E810E945104D394F6CF439482CF339437
:10188000080D191DFFEFAF1ABF0A76CF622D8D81AB
:101890009E8130CF90E080E005CF0F931F93CF93D0
:1018A000DF938C01D0E0C0E0F801EC0FFD1F6491E4
:1018B000662341F08CEF97E00E94160B892B11F004
:1018C0002196F2CFCE01DF91CF911F910F91089514
:1018D000811104C082E993E00C944D0C813019F41D
:1018E00081E893E0F9CF8250853018F48EE893E0D8
:1018F000F3CF88E893E0F0CF682F8CEF97E00C945B
:10190000160BCF92DF92EF92FF920F931F93CF931C
:10191000DF93EC01F62EC42ED22E1A868F81869587
:1019200086958695081710F00FEF080F1D2D0117EB
:1019300080F0412F6F2DCE010E94080BEF2CCE14AA
:1019400030F06D85CE010E945104E394F8CF1F5F03
:10195000EECF4D2D6F2DCE01DF91CF911F910F91C5
:10196000FF90EF90DF90CF900C94080B0F93FC0149
:10197000078106950695069501504681415020E065
:1019800060E00E94810C0F9108954F925F926F92D8
:101990007F928F92AF92CF92EF92FF920F931F930D
:1019A000CF93DF93CDB7DEB72701380194E0899F4D
:1019B00080011124F801EA5DF84F80819181A281B4
:1019C000B3818E219521A621B72131E0892B8A2B65
:1019D0008B2B09F430E03C1103C088898823F1F097
:1019E000C11001C0A82C2D5F640F422F8CEF97E02F
:1019F0000E94080B8A2D0E947C0CF801EA5DF84FCA
:101A0000CC20D1F080819181A281B3818429952954
:101A1000A629B72980839183A283B383DF91CF91D5
:101A20001F910F91FF90EF90CF90AF908F907F908C
:101A30006F905F904F90089540945094609470948C
:101A400080819181A281B38184219521A621B72132
:101A5000E1CF2F923F924F925F926F927F928F923F
:101A60009F92AF92BF92CF92DF92EF92FF920F932D
:101A70001F93CF93DF93CDB7DEB7A2970FB6F8943D
:101A8000DEBF0FBECDBF1C0180914F01882309F43A
:101A90004BC010924F0172EF672E74E0772ED12C5D
:101AA000210122EA420E511CF301908007E023E05D
:101AB0004181692D8CEF97E00E94810C47E0692DF0
:101AC0008CEF97E00E94080BF2018081811194C095
:101AD000F6E0F983C1018D559F4F9AA389A3B12CDC
:101AE000E9A1FAA1E080F18002811381F1E0FF9386
:101AF000E9A1FAA18780A680C12C24814581692DA6
:101B00008D2D0E94C50CB39429A13AA1285F3F4FA7
:101B10003AA329A30F9039813B11E2CF82E0680EEE
:101B2000711C91E0D91265C0D12C80E0F101EE5515
:101B3000FF4FFA83E98390919601D91608F0AAC164
:101B4000E981FA819081992309F491C0DD2009F49B
:101B500056C043B123B1E3B13FB17FB16FB143FB95
:101B6000442740F94B831C824B815C81F5E0440F94
:101B7000551FFA95E1F722FB222720F92D831E82BB
:101B8000AD81BE8114E0AA0FBB1F1A95E1F7242F87
:101B90002A2B65FB442740F9242BE695E170EF835F
:101BA00018864F81588503E0440F551F0A95E1F7C9
:101BB000242B432F330F550B4427550F441F552714
:101BC000440F551F440F551F242B76FB772770F9C0
:101BD00079871A8649855A85440F551F242B322F41
:101BE000337009F052C1322F3C7009F489C020686B
:101BF00087C0DD24D39458CF28E029836BCF56B11A
:101C000029B149B17CB163B133B156FB552750F9C5
:101C10005B871C86EB85FC85A5E0EE0FFF1FAA9570
:101C2000E1F720712E2B35FB332730F9232B042EBF
:101C3000000C550B4427550F441F552713E0440F44
:101C4000551F1A95E1F7242B76FB772770F97D87CE
:101C50001E864D855E85440F551F440F551F242B4E
:101C6000629561706F87188A4F855889B5CFDD20DE
:101C700009F4C8C043B123B1E3B13FB17FB16FB143
:101C800046FB442740F9498B1A8A49895A89F5E06D
:101C9000440F551FFA95E1F723FB222720F92B8BE0
:101CA0001C8AAB89BC8914E0AA0FBB1F1A95E1F707
:101CB000242F2A2B65FB442740F9242BE695E1705D
:101CC000ED8B1E8A4D895E8903E0440F551F0A95EE
:101CD000E1F7242B432F330F550B4427550F441F97
:101CE0005527440F551F440F551F242B76FB77278C
:101CF00070F97F8B188E4F89588D440F551F242BF8
:101D00006D2D70E0FB01E35BFE4F3081321709F46B
:101D100077C02083622E712C322F3095317080E095
:101D200021FF82E0832B30E022FF34E0832B30E080
:101D300023FF38E0832BF101808B822F82958F70F7
:101D4000F1E08F2781708F8F18A250E040E025FDD1
:101D500002C042E050E0EF8DF8A14E2B5F2B99239B
:101D600021F0E0E0F1E026FF02C0F0E0E0E04E2BE1
:101D70005F2B992309F48BC027FD89C020E032E056
:101D8000422B532BF101528B418B660F771FFB01C6
:101D9000EE50FB4F908088E0B82E911102C096E083
:101DA000B92E91012D553F4F3AA329A3512C412C17
:101DB000C301042C02C0959587950A94E2F780959B
:101DC0009095382F3170C32EE9A1FAA1E080F180FF
:101DD000028113811F928780A68024814581692D0D
:101DE0008D2D0E94C50CFFEF4F1A5F0A29A13AA161
:101DF000285F3F4F3AA329A30F904B14C8F281E00C
:101E0000D39499CE66B126B149B1FCB1E3B153B1D7
:101E100026FB222720F9298F1A8E298D3A8D74E00E
:101E2000220F331F7A95E1F7062E000C770B6627F9
:101E3000770F661F7727B5E0660F771FBA95E1F732
:101E4000262B55FB332730F9232B042E000C550B82
:101E50004427550F441F552703E0440F551F0A958B
:101E6000E1F7242BF6FBFF27F0F9FB8F1C8E4B8D3F
:101E70005C8D440F551F440F551F242BE295E170D4
:101E8000ED8F1E8E4D8D5E8D38CF2064ACCE30E050
:101E900020E076CFA2960FB6F894DEBF0FBECDBF7E
:101EA000DF91CF911F910F91FF90EF90DF90CF9036
:101EB000BF90AF909F908F907F906F905F904F906A
:101EC0003F902F9008956F927F928F929F92AF9242
:101ED000BF92CF92DF92EF92FF920F931F93CF9317
:101EE000DF933C01D62EC42FE62FF0E0EE0FFF1F4C
:101EF000EE50FB4FB08007E023E041816B2D8CEF6B
:101F000097E00E94810C47E06B2D8CEF97E00E94D8
:101F1000080BC13091F584E793E00E944D0C81E0FD
:101F20008D15E0F0E301C656DF4F8AEF680E711C95
:101F300099249394E880F9800A811B819F928F8075
:101F4000AE80CC24C3942C814D816B2D8D2D0E94AD
:101F5000C50C28960F90C615D70561F7DF91CF9174
:101F60001F910F91FF90EF90DF90CF90BF90AF90B7
:101F70009F908F907F906F9008958CE793E0DF9112
:101F8000CF911F910F91FF90EF90DF90CF90BF9076
:101F9000AF909F908F907F906F900C944D0C6F92AC
:101FA0007F928F929F92AF92BF92CF92DF92EF92E9
:101FB000FF920F931F93CF93DF933C01D62EC42F34
:101FC000E62FF0E0EE0FFF1FEE50FB4FB08007E072
:101FD00023E041816B2D8CEF97E00E94810C47E05C
:101FE0006B2D8CEF97E00E94080BC13091F584E7D0
:101FF00093E00E944D0C81E08D15E0F0E301C256A4
:10200000DF4F82EF681A8EEF780A99249394E88064
:10201000F9800A811B819F928F80AE80C12C2C8118
:102020004D816B2D8D2D0E94C50C28960F90C615E5
:10203000D70569F7DF91CF911F910F91FF90EF9036
:10204000DF90CF90BF90AF909F908F907F906F90D8
:1020500008958CE793E0DF91CF911F910F91FF904E
:10206000EF90DF90CF90BF90AF909F908F907F9038
:102070006F900C944D0C2F923F924F925F926F9203
:102080007F928F92AF92CF92DF92EF92FF920F9357
:102090001F93CF93DF93CDB7DEB760970FB6F89459
:1020A000DEBF0FBECDBF3C0180914B018823C1F143
:1020B00010924B0107E023E04CE360E08CEF97E0E7
:1020C0000E94810C47E060E08CEF97E00E94080BD3
:1020D00013010EE9200E311C23011EEE410E511C8E
:1020E000DD24D394D101ED90FD900D911C911397B7
:1020F000DF9217968C9017971696AC901697C12C76
:1021000014962C91149715964C9163E280E00E94EE
:10211000C50CB8E02B0E311C0F904214530411F77C
:1021200063B133B173B1E9B15CB193B149B186B177
:1021300026B1F3B163FB662760F9660F688B1F86D3
:1021400035FB332730F93A8319820F851889A98125
:10215000BA810A2B1B2BF695F170FB831C82AB8195
:10216000BC810A2B1B2B729571707D831E826D8141
:102170007E817695762F662777956795062B172BA8
:10218000E295E170EF8318866F817885E6E0660F4F
:10219000771FEA95E1F7062B172B56FB552750F9C9
:1021A00059871A8669857A85F5E0660F771FFA9553
:1021B000E1F7062B172B92FB992790F99B871C863A
:1021C0006B857C85A4E0660F771FAA95E1F7062B47
:1021D000172B042E000C550B4427550F441F552771
:1021E00093E0440F551F9A95E1F7042B152B082E09
:1021F000000C990B8827990F881F9927880F991F22
:10220000880F991F082B192B26FB222720F92D87D1
:102210001E868D859E85880F991F082B192B1A8382
:1022200009838091490190914A018017910709F42F
:10223000ACC010934A010093490198012095309554
:102240002170332780E001FF82E0822BB98190E08A
:10225000B2FF94E0892BE98190E0E3FF98E0892BBD
:10226000D30150968C9389819A8124E09695879525
:102270002A95E1F7B1E08B279C0121703327E98192
:1022800090E080E0E5FD02C082E090E0822B932B9D
:10229000F98130E020E0F6FD02C024E030E0822B3E
:1022A000932B098130E020E007FD02C028E030E0F8
:1022B000822B932B29813A8130FF64C030E020E0EB
:1022C000822B932B49815A8130E020E051FD02C0DE
:1022D00020E032E0822B932BD30152969C938E9375
:1022E0005197BEE96B0E711C312C212C4424439470
:1022F000512CC201022C02C0880F991F0A94E2F7E8
:10230000E981FA818E239F23CC24C394892B09F081
:10231000C12CD301ED90FD900D911C9113971F924C
:1023200017968C9017971696AC90169714962C913A
:10233000149715964C9163E280E00E94C50CBFEFA4
:102340002B1A3B0AE8E06E0E711C0F90FAE02F1674
:10235000310479F681E060960FB6F894DEBF0FBEC7
:10236000CDBFDF91CF911F910F91FF90EF90DF9044
:10237000CF90AF908F907F906F905F904F903F90F5
:102380002F90089520E031E09BCF80E0E4CF6F9262
:102390007F928F929F92AF92BF92CF92DF92EF92F5
:1023A000FF920F931F93CF93DF93EC01D62E742EE1
:1023B000E62FF0E0EE0FFF1FEE50FB4FB08007E07E
:1023C00023E041816B2D8CEF97E00E94810C47E068
:1023D0006B2D8CEF97E00E94080B83E0781619F1C3
:1023E0008715B8F0E2E086E693E07E16F1F08CE720
:1023F00093E0DF91CF911F910F91FF90EF90DF90CD
:10240000CF90BF90AF909F908F907F906F900C94E3
:102410004D0CF4E07F1609F442C085E07812E7CF56
:1024200088E593E002C081E693E00E944D0CE2E073
:10243000DE1631F1FE01EA54FF4F8081882391F1CD
:102440003E01F9EC6F1AFEEF7F0AC955DE4F992461
:102450009394F301E080F180028113819F92878041
:10246000A680CC24C394248145816B2D8D2D0E94A0
:10247000C50CF8E06F0E711C0F906C167D0649F7C5
:10248000DF91CF911F910F91FF90EF90DF90CF9050
:10249000BF90AF909F908F907F906F9008958DE543
:1024A00093E0C3CFC954DF4F612C9924939482E009
:1024B00078121FC0E7E0E615B0F0F3E0F615C8F0BB
:1024C000FE01E05AFF4FE080F180028113819F926C
:1024D0008780A680CC24C394248145816B2D8D2DCB
:1024E0000E94C50C0F90639428968CE06812DFCF91
:1024F000C7CFFE01E8CF0F9307E022E04FE760E08F
:102500008CEF97E00E94810C8091E607833031F1D7
:1025100030F4813089F08230C9F00F910895853010
:1025200069F120F18630C9F76CE08CEF97E00E94EA
:10253000EA0A89E993E007C06CE08CEF97E00E941B
:10254000EA0A80EE93E00F910C944D0C6AE28CEF56
:1025500097E00E94EA0A88ED93E0F5CF66E08CEF01
:1025600097E00E94EA0A89EC93E0EDCF64E28CEFF9
:1025700097E00E94EA0A80EC93E0E5CF66E08CEFFA
:1025800097E00E94EA0A8CEA93E0DDCF8093950100
:102590006EEA81116FEA8CEF97E00E94D60A2FB79E
:1025A000F8948091F4079091F507A091F607B09107
:1025B000F7072FBF8093E7079093E807A093E907F9
:1025C000B093EA07089590E080E00895CF93DF93F9
:1025D000CDB7DEB72F970FB6F894DEBF0FBECDBFD5
:1025E000209196016217E0F42FE0FE013196DF01A1
:1025F000322F1D923A95E9F74FEF5FE75F834E83E5
:10260000598748875B874A875D874C87DC01269F0F
:10261000A00DB11D1124509601900D922A95E1F75D
:102620002F960FB6F894DEBF0FBECDBFDF91CF91CE
:1026300008952F923F924F925F926F927F928F9266
:102640009F92AF92BF92CF92DF92EF92FF920F9341
:102650001F93CF93DF93CDB7DEB7C755D1090FB620
:10266000F894DEBF0FBECDBF3C0180914C018823A2
:1026700039F010924C0140E060E0C3010E94630F0A
:1026800080914E0781116AC080914F07811166C009
:1026900080914C07811109C0F301EC56FF4F8081F6
:1026A00091810E942F0980934C0780934E0780915F
:1026B0004D07811109C0F301EA56FF4F80819181D6
:1026C0000E942F0980934D0780934F0781E00E945D
:1026D000C61207E027E04FE760E08CEF97E00E942A
:1026E000810C67E08CEF97E00E94DE0A60E08CEFDF
:1026F00097E00E94EA0A80914E0781110BC08091F9
:102700004F07811103C08CE793E002C088E793E094
:102710000E944D0C62E48CEF97E00E94EA0A9091CF
:102720004E0780914F07992309F4A4C0811104C07A
:1027300088E793E00E944D0C80914E07882329F092
:1027400041E060E0C3010E94630F80914F0788233E
:1027500029F041E061E0C3010E94630F21961FAEA2
:10276000219722961FAE2297512C10E5A12E13EC33
:10277000B12E05E1402E88EC882E912C8091960197
:10278000581608F08CC0052D10E0F801E25BF84FF8
:102790008081882309F46CC07801EE0CFF1CE60CE4
:1027A000F71C24E9E20EF11CD7018D919C910E9447
:1027B0002F09F801E45BF84F6F01882309F45FC02B
:1027C000D7012D913C9195E1F901DE019B96019095
:1027D0000D929A95E1F7409EA001419E500D112463
:1027E000E1E0F0E0EC0FFD1F4E0F5F1FBA96DA013B
:1027F000942D01900D929A95E1F7DA014D915C913B
:10280000FF24F3944115510509F4F12CF30197814C
:10281000911119C041155105B1F0000F111F000FA2
:10282000111FE00FF11F95A9911105C081E097A933
:10283000911101C080E0D90112969C91129780FB02
:1028400093F912969C93F601808181110FC0452B5C
:1028500069F0652DC3010E94E61290929801809262
:10286000970141E0652DC3010E94630FD601FC92E0
:10287000539484CF81115ACF8CE793E05BCF652DC1
:10288000C3010E94E612B0929801A092970140E025
:10289000652DC3010E94630FF6011082E9CF2396D4
:1028A0001FAE2397930128563F4F64963FAF2EAF3C
:1028B0006497B30167567F4F66967FAF6EAF66979A
:1028C000C30186509F4F68969FAF8EAF68978091E7
:1028D000960123969FAD2397981708F08BC3492E36
:1028E000512CF201E45BF84F8081882309F44DC339
:1028F00085E1849DF001859DF00D1124A1E0B0E0FB
:10290000AC0FBD1FEA0FFB1F958586859C0129969C
:102910003FAF2EAF2997D201AA0FBB1FA85BB84FBC
:102920002D913C914785D201AA5BB84F8C91082E1E
:10293000000C990B4817190611F55089D201AC5BB0
:10294000B84F8C91082E000C990B58171906B9F442
:102950005189D201AE5BB84F8C91082E000C990BB7
:102960005817190661F45289F201E05CF84F808132
:10297000082E000C990B5817190609F45DC3E0E402
:10298000F0E0EC0FFD1FE40DF51D81E029966EAD22
:102990007FAD29972617370709F480E08083F3017C
:1029A000E40DF51D16A685E1849DD001859DB00D31
:1029B000112481E090E08C0F9D1FA80FB91F1E9677
:1029C0009C9193FB222720F982E092FF80E0822BEA
:1029D00095E1949DD001959DB00D112421E030E04A
:1029E0002C0F3D1FA20FB31F1E969C9190FFD5C2C6
:1029F00094E0892B95E1949DD001959DB00D112413
:102A000061E070E06C0F7D1FA60FB71F1E969C91B2
:102A100091FFC5C298E02FE0249DD001259DB00D07
:102A20001124A60DB71D892B50968C9385E1849DAA
:102A3000D001859DB00D112481E090E08C0F9D1F89
:102A4000A80FB91F1D968C9181FB992790F961966B
:102A50009FAF619762961FAE629722E030E080FDE3
:102A600002C030E020E06296AEADBFAD62972A2B87
:102A70003B2B85E1849DD001859DB00D112461E043
:102A800070E06C0F7D1FA60FB71F1D968C9183FF02
:102A900088C284E090E0282B392B85E1849DD00109
:102AA000859DB00D112481E090E08C0F9D1FA80F33
:102AB000B91F1D968C9182FF77C288E090E0822B2F
:102AC000932B25E1249DD001259DB00D112421E0FB
:102AD00030E02C0F3D1FA20FB31F1E962C9124FF38
:102AE00066C220E230E0822B932B25E1249DD001A9
:102AF000259DB00D112461E070E06C0F7D1FA60FC5
:102B0000B71F53963C9160E470E0333310F470E0EB
:102B100060E0862B972B25E1249DD001259DB00DEB
:102B2000112461E070E06C0F7D1FA60FB71F549653
:102B30002C9160E870E0233310F470E060E0862BA5
:102B4000972B55E1549DD001559DB00D112461E0A6
:102B500070E06C0F7D1FA60FB71F1D965C9160E0A3
:102B600072E054FD02C070E060E05FE0549DD0016F
:102B7000559DB00D1124A60DB71D862B972B52968F
:102B80009C938E935197D30117968C91882331F0A3
:102B90009091EB07992391F1813081F5B1E0B6A7CF
:102BA000303208F430E0203208F420E085E1849DE2
:102BB000F001859DF00D112461E070E06C0F7D1F28
:102BC000E60FF71F868586FD3FEF85E1849DF001C6
:102BD000859DF00D112481E090E08C0F9D1FE80F82
:102BE000F91F868585FD2FEF8FE0849DF001859D7F
:102BF000F00D1124E60DF71D358F268F6496AEADCE
:102C0000BFAD6497CC906696EEADFFAD66978081C0
:102C10004C1508F0CFC195E1949DF001959DF00D04
:102C2000112421E030E02C0F3D1FE20FF31FC78677
:102C300095E1949DF001959DF00D1124A1E0B0E087
:102C4000AC0FBD1FEA0FFB1F90899C1508F0C3C194
:102C5000C08A95E1949DF001959DF00D112421E02D
:102C600030E02C0F3D1FE20FF31F91899C1508F0F7
:102C7000B7C1C18A95E1949DF001959DF00D112495
:102C800061E070E06C0F7D1FE60FF71F92899C15C5
:102C900008F0ABC1C28A882E912CB12CA12CD12C6A
:102CA000F12CE12C85E1849DF001859DF00D11242E
:102CB00081E090E08C0F9D1FE80FF91F97852E96FD
:102CC0009FAF2E97C501B4016C197D098E099F092C
:102CD0002D966CAF7DAF8EAF9FAF2D972E967FADAB
:102CE0002E97272F30E050E040E02C193D094E0987
:102CF0005F09AFEFB0E00E9404322D962CAD3DADE0
:102D00004EAD5FAD2D970E94E531822F27572331BD
:102D100008F480E8282F30E08FE0849DF001859D45
:102D2000F00D1124E60DF71D922F8827820F931FB7
:102D3000968B858B85E1849DF001859DF00D112496
:102D400081E090E08C0F9D1FE80FF91F90892F966E
:102D50009FAF2F97C701B601681979098A099B09A6
:102D600027966CAF7DAF8EAF9FAF27972F967FAD25
:102D70002F97272F30E050E040E0281939094A0901
:102D80005B09AFEFB0E00E94043227962CAD3DAD59
:102D90004EAD5FAD27970E94E531822F2757233133
:102DA00008F480E8282F30E08FE0849DF001859DB5
:102DB000F00D1124E60DF71D922F8827820F931F27
:102DC000908F878B85E1849DF001859DF00D112406
:102DD00081E090E08C0F9D1FE80FF91F91896096AC
:102DE0009FAF6097292F30E050E040E02C193D095B
:102DF0004E095F09AFEFB0E00E9404322D962CAD72
:102E00003DAD4EAD5FAD2D970E94E531822F275726
:102E1000233108F480E8282F30E08FE0849DF00112
:102E2000859DF00D1124E60DF71D922F8827820F46
:102E3000931F928F818F85E1849DF001859DF00D18
:102E40001124A1E0B0E0AC0FBD1FEA0FFB1FD28838
:102E50002D2D30E050E040E0281939094A095B097E
:102E6000AFEFB0E00E94043227962CAD3DAD4EADE1
:102E70005FAD27970E94E531822F2757233108F451
:102E800080E890E02FE0249DF001259DF00D1124B5
:102E9000E60DF71D382F2227820F931F948F838F03
:102EA0001301BAE92B0E311C29968EAD9FAD2997DF
:102EB000BC0190E080E02D966CAF7DAF8EAF9FAFF0
:102EC0002D97D201AA0FBB1F2596BFAFAEAF259796
:102ED000FD01EE50FB4FB080F101E080F1800281F6
:102EE00013812D968CAD9DADAEADBFAD2D978E21CE
:102EF0009F21A023B123CC24C394892B8A2B8B2B15
:102F000009F4C12C1F92D10117968C901797169631
:102F1000AC90169714962C91149715964C916B2D96
:102F200023968FAD23970E94C50CB8E02B0E311C61
:102F30000F906896EEADFFAD6897E215F30561F668
:102F40002596EEADFFAD2597E85BF84F29962EAD9F
:102F50003FAD299731832083F201EA5BF84F2E962B
:102F60003FAD2E973083F201EC5BF84F2F966FAD9B
:102F70002F976083F201EE5BF84F60967FAD60970C
:102F80007083F201E05CF84FD08223968FAD2397D7
:102F90008F5F23968FAF23979ACC90E02ACD90E055
:102FA0003ACD90E080E077CD90E080E088CD30E0D1
:102FB00020E099CD841708F03BCE95E1949DF00177
:102FC000959DF00D112461E070E06C0F7D1FE60F00
:102FD000F71F87872DCE891708F03BCE808B39CE1F
:102FE000891708F047CE818B45CE891708F053CE5C
:102FF000828B51CE21968FAD2197811103C02296ED
:103000008FAD2297C95ADF4F0FB6F894DEBF0FBEBF
:10301000CDBFDF91CF911F910F91FF90EF90DF9087
:10302000CF90BF90AF909F908F907F906F905F9068
:103030004F903F902F9008952996AEADBFAD299740
:103040002A173B0709F4A1CF9ACC2F923F924F92B7
:103050005F926F927F928F929F92AF92BF92CF9228
:10306000DF92EF92FF920F931F93CF93DF93CDB731
:10307000DEB766970FB6F894DEBF0FBECDBF3C013A
:1030800086E0FE013196DF011D928A95E9F7809175
:103090004801882381F01092480180919601833085
:1030A00050F045E064E28CEF97E00E94080B8AE65E
:1030B00093E00E944D0CF301EC55FF4FD301D596E0
:1030C0009C91D597907FD7968C9182958F70892B04
:1030D00080837097FA8BE98BCF010E943107F3014F
:1030E000E555FF4F80818583818192819783868317
:1030F00083819481918780873697D48014828E9AB9
:103100008BE290E00197F1F78E9883E190E00197D0
:10311000F1F7408950E0526770E060E090E080E0B5
:1031200003E110E057FF76C02A9A440F551F2FB1D4
:10313000022E000C330B2227330F221F3327062EBB
:1031400002C0220F331F0A94E2F7822B932B8D9833
:10315000D8011197F1F78D9AD8011197F1F76F5FA8
:103160007F4F60317105F1F62A98492F42954F70D3
:1031700050E14D3009F051E070E060E030E020E0D7
:1031800003E110E0AFB10A2E000CBB0BAA27BB0F66
:10319000AA1FBB27062E02C0AA0FBB1F0A94E2F784
:1031A0002A2B3B2B8D98D8011197F1F78D9AD801D6
:1031B0001197F1F76F5F7F4F651720F38C01009532
:1031C0001095209530954F3029F42E3FBFEF3B07E7
:1031D00009F447C0848191E0980F948361E070E026
:1031E000811102C070E060E0411116C0812F992763
:1031F0008F7099270F9781F44AE0469FC001479F3F
:10320000900D11248E0F9F1F4FE0DC0116964C93FA
:10321000169716C02A9889CF942F909592FF8AC04E
:103220008AE0869FA001879F500D11244E0F5F1FDB
:1032300084E0DA0116968C9316979370292F30E06C
:103240001A963C932E9319972AE0269FC001279F38
:10325000900D11248E0F9F1FDC0118961C930E9366
:103260001797B481BE87BD15F0F48B2F4AE09FEF0E
:1032700021E030E0811102C030E020E0429FD00127
:10328000439FB00D1124AE0FBF1F16969C93169747
:1032900018961C921E9217971A961C921E921997B6
:1032A0008F5FD812E5CFF301E856FF4F9080EE858F
:1032B000E90DED8779866886788A6F86B12CF12CC6
:1032C00093012B553F4F3C8B2B8BC3018A549F4F4F
:1032D0009E8B8D8B109196019D85B91609F452C273
:1032E000B11609F44FC2DD24D394B91408F4D12CDB
:1032F00021E030E0B91448F5B11002C030E020E020
:103300004AE0429FC001439F900D112406962988F0
:103310003A88280E391E123061F5992039F1C10121
:103320000E94BD09E1E0F0E0EC0FFD1FED0DF11D85
:1033300080831FC05AE0569FC001579F900D1124F3
:103340008E0F9F1F5FE0452760CFB91002C030E0AD
:1033500020E04AE0429FC001439F900D1124069651
:103360002B883C88280E391E123019F4AE85A11125
:10337000D6CFF1019081858198130FC021813281D0
:10338000868197812817390741F42381348180850C
:1033900091852817390709F477C0AF85B889D29687
:1033A0001C92F1018081958189130CC0811118C094
:1033B000838194810196A1F4D10118968D919C91FD
:1033C000019671F06B2DC3010E94E612123041F498
:1033D000C1010E94BD09482F6D2DC3010E94C71174
:1033E000C1010E94BD098A87F10121813281C90191
:1033F00054E0969587955A95E1F7982F917082E061
:1034000025FF80E0892B94E026FF90E0892B98E04F
:1034100027FF90E0892BA885B98550968C93F10100
:1034200021813281FA85A90141705527F230C1F519
:1034300082E090E021FD02C090E080E0842B952B9B
:10344000A885B98552969C938E935197D101119678
:103450002C9180E091E022FD02C090E080E023FF0B
:10346000F4C020E032E0E885F98541895289842B57
:10347000952B822B932B928B818B8091960182309E
:1034800009F4E6C0FF24F394B394888599850F96D8
:1034900099878887AF85B8891196B88BAF871ACF7F
:1034A00082E090E030FD02C090E080E0842B952B1C
:1034B00044E050E021FD02C050E040E0842B952B19
:1034C00048E050E031FD02C050E040E0842B952BF5
:1034D00040E150E032FD02C050E040E0842B952BEB
:1034E00033FF8EC020E230E0822B932BE885F985F4
:1034F000928B818BFA85F43009F088C0D101139644
:103500004D915C9160E470E052FD02C070E060E0BB
:1035100020E830E055FD02C030E020E0862B972BFC
:10352000E0E0F4E053FD02C0F0E0E0E0282B392BAE
:1035300060E078E054FD02C070E060E02E2B3F2B8D
:1035400080E090E157FD02C090E080E0262B372B11
:10355000282B392BE885F985328B218BD1011396E5
:103560002D913C91A9014170552782E090E021FD09
:1035700002C090E080E0842B952B44E050E022FDD7
:1035800002C050E040E0842B952B48E050E023FD42
:1035900002C050E040E0842B952B40E150E024FD38
:1035A00002C050E040E0842B952B40E250E025FD26
:1035B00002C050E040E0842B952B40E450E026FD13
:1035C00002C050E040E0842B952B40E850E027FDFE
:1035D00002C050E040E0842B952B40E051E030FDEC
:1035E00002C050E040E0842B952B31FF0CC020E05E
:1035F00032E0822B932BE885F985948B838B26CF41
:1036000030E020E071CF30E020E0F3CFFA85F530F4
:1036100009F01CCFD10113962D913C91A901417065
:10362000552720FF02C040E450E021FF0BC020E8F6
:1036300030E0842B952B822B932BE885F985928B98
:10364000818B04CF30E020E0F4CF30E020E00BCFDE
:10365000AD89BE898C912301882309F455C0B9EC4A
:103660004B1ABEEF5B0A1F82ED2DF0E0EE0FFF1F3D
:10367000EE50FB4F20812B87D201ED90FD900D91F4
:103680001C91139714962C91149715964C9115979D
:103690001696AC90169717968C90BF81BC3010F59B
:1036A000EA85E23091F4B83080F01F92C12C6B852E
:1036B0008D2D0E94C50C0F90FF81FF5FFF8328E0D6
:1036C000420E511CFE30C1F6DDCED10111968D9116
:1036D0009C918E219F21CC24C394892B09F4C12C69
:1036E0001F92E5CFBA85B530D1F7F10163817481BE
:1036F000D801C7013CE0B695A795979587953A956F
:10370000D1F786239723E7CF37EB430E511C1F8257
:103710008D2D90E0880F991FDC01AE50BB4FBC8708
:10372000AB87BA85B23061F5EF81E83000F5E4305F
:1037300038F5F201E05AFF4FE080F18002811381F9
:10374000D10111968D919C918E219F21CC24C394FF
:10375000892B09F4C12C1F928780A6802481458182
:10376000EB85FC8560818D2D0E94C50C0F90FF813B
:10377000FF5FFF8328E0420E511CFC3091F682CEA1
:10378000F201DACF0981123059F480914201801799
:1037900039F0011105C040E060E0C3010E94C7118B
:1037A000009342011A8180919601823059F48091F0
:1037B0004301811739F0111105C040E061E0C301F8
:1037C0000E94C7111093430110912E07BD85B117B8
:1037D00060F4DB2E809196018D1539F06D2DC301BB
:1037E0000E94E612D394D116A8F3ED85E0932E073C
:1037F0008F2D66960FB6F894DEBF0FBECDBFDF915A
:10380000CF911F910F91FF90EF90DF90CF90BF90DD
:10381000AF909F908F907F906F905F904F903F9070
:103820002F900895FC018091E4069091E50686179B
:103830009707A0F06115710529F49091E8009E7733
:103840009093E80090E06115710551F4911108C062
:103850008091E80082FF35C080E00895BC01F2CF7E
:103860008091E2078823C9F18530C9F18091E80091
:1038700083FD31C08091E80082FDEACF8091E800AD
:1038800080FFE1CF2091F3008091F200322F282FAA
:103890006115710519F02034310558F091E020349C
:1038A000310509F090E02091E8002E772093E800A0
:1038B000CACF81918093F100615071092F5F3F4F12
:1038C000E7CF8091E207882341F0853041F0809175
:1038D000E80083FFBDCF81E0089582E0089583E092
:1038E00008952091E4003091E50085E69091EC0088
:1038F00090FF06C09091E80090FF06C080E0089518
:103900009091E80092FDFACF9091E207992391F00F
:10391000953091F09091EB0095FD10C04091E4003E
:103920005091E5002417350709F381509A01F1F60B
:1039300084E0089582E0089583E0089581E0089589
:103940008091DE0687FF13C08091E80082FF06C0E9
:103950008091E8008B778093E80004C08091E207B3
:103960008111F2CF08958091E2078823D9F38091E5
:10397000E80080FFF8CF8091E8008E77ECCF982F99
:10398000973028F08F708093E90081E0089590933C
:10399000E900242F762F50E0981731F07091EC0059
:1039A0002091ED005091F00021FD02C09F5FE8CF13
:1039B0003091EB003E7F3093EB003091ED003D7F86
:1039C0003093ED003091EB0031603093EB00709359
:1039D000EC002093ED005093F0002091EE0027FDC5
:1039E000E5CF80E0089542E050E06EE875E08CEFAE
:1039F00097E00C942404CF93DF930E944D0CEC01CC
:103A00000E94F31C8C0F9D1FDF91CF9108950F939F
:103A10001F93CF93DF93CDB7DEB7A4970FB6F8947B
:103A2000DEBF0FBECDBF182F83E0898380EC8A8371
:103A30008BE18B8370E040E250E0CE0104960E945F
:103A4000863301E09E012C5D3F4F43E2BE016F5F74
:103A50007F4F812F0E94F404A4960FB6F894DEBF26
:103A60000FBECDBFDF91CF911F910F9108950F939E
:103A70001F93CF93DF93CDB7DEB7C754D1090FB6ED
:103A8000F894DEBF0FBECDBF182F83E0898380E896
:103A90008A8381E08B8370E040E250E0CE0104969F
:103AA0000E94863301E09E01295B3F4F43E2BE0145
:103AB0006F5F7F4F812F0E94F4048091FD019091F0
:103AC000FE01A091FF0127968DAF9EAFAFAF279764
:103AD00000E29E012C5D3F4F43E0BE016C5B7F4FD7
:103AE000812F0E94F404C95BDF4F0FB6F894DEBF4C
:103AF0000FBECDBFDF91CF911F910F910895EF922F
:103B0000FF920F931F93CF93DF931F92CDB7DEB732
:103B10007C01FC018781198203E0970141E0BE012D
:103B20006F5F7F4F0E94F404F701833061F01082D1
:103B30001182128280E00F90DF91CF911F910F913F
:103B4000FF90EF900895828187708130C9F40BE86F
:103B500011E0C8010197F1F76EEE87810E94371DD1
:103B6000C8010197F1F760E8F70187810E94371DCE
:103B7000C8010197F1F760E0F70187810E94071DF6
:103B80008BE097E20197F1F781E0D5CF2F923F923A
:103B90004F925F926F927F928F929F92AF92BF925D
:103BA000CF92DF92EF92FF920F931F93CF93DF9309
:103BB000CDB7DEB7E5970FB6F894DEBF0FBECDBF29
:103BC0001C0180913E07811152C080913F078111F5
:103BD0004EC080913C07811109C0F101EA56FF4FA8
:103BE000808191810E947F1D80933C0780933E07D6
:103BF00080913D07811109C0F101E856FF4F808196
:103C000091810E947F1D80933D0780933F0781E053
:103C10000E94C61207E027E04FE760E08CEF97E0D4
:103C20000E94810C67E08CEF97E00E94DE0A60E062
:103C30008CEF97E00E94EA0A80913E07882309F4FE
:103C400064C041E060E0C1010E94CF0F62E48CEFEC
:103C500097E00E94EA0A90913E0780913F079111F8
:103C60005BC0811159C08CE793E00E944D0C1D8E02
:103C70001E8E10E0510124E9A20EB11CBBE86B2E90
:103C80007724739480919601181708F0F7C0E12EFD
:103C9000F12CF701E55BFF4FEE0FFF1FE20DF31D67
:103CA000C080D180D501CD92DC92F701E65CF84F5F
:103CB0004F011082F701E25CF84F8081882309F4FC
:103CC0009DC09701245C384F2901D9018C91811145
:103CD0002EC0C6010E947F1D882309F48FC021E0F9
:103CE000F2012083F701E85CF84F1082612FC101D7
:103CF0000E94E61241E0612FC1010E94CF0F7EC0F9
:103D000088E793E00E944D0CA1CF80913F0781117D
:103D1000F7CF8CE793E0F6CF811103C088E793E0FB
:103D2000A4CF41E061E0C1010E94CF0FA0CFD60136
:103D30008D919C91892BB9F1F6016281862F877054
:103D4000813099F463FB882780F990912F078917B8
:103D500061F0C3010197F1F763FB662760F9878182
:103D60000E94071DC3010197F1F7F601828183FBD1
:103D7000882780F980932F078781F1E0FE8B04E08C
:103D800096012D5F3F4F41E0BE016A5E7F4F0E946A
:103D9000F4048430A9F1D6011C9211961C9211975B
:103DA00012961C9205C0C6010E947F1D8111C4CFCE
:103DB000D4018C91F701E85CF84F882309F450C0D6
:103DC0001082F1019781911119C0F501A081B18193
:103DD000EE0CFF1CEE0CFF1CF101EE0DFF1D95A972
:103DE000911105C081E097A9911101C080E0129660
:103DF0009C91129780FB93F912969C931F5F42CF80
:103E0000D501ED91FC9187E0DE01569601900D926F
:103E10008A95E1F787E0FE017696DE011F96019014
:103E20000D928A95E1F7B7E0BE9DC001BF9D900D50
:103E30001124E1E0F0E0EC0FFD1F8E0F9F1F3E9676
:103E4000DC0127E001900D922A95E1F721E0DC01E9
:103E50008D919C91892B09F420E0F4012083A8CF57
:103E600080818F5F8083823048F2D2011C92108261
:103E7000612FC1010E94E61240E03DCFD12CF1013B
:103E8000E656FF4FFDA7ECA7910125563F4F3FA7F0
:103E90002EA7A10143565F4F59AB48ABC1018456D1
:103EA0009F4F9BAB8AABD101A25FBE4FBDABACAB0A
:103EB00080919601D81608F084C26D2C712CF30104
:103EC000E45CF84F8081882309F45CC2F301E65C6E
:103ED000F84F8081882309F455C287E0869DF00160
:103EE000879DF00D112421E030E02C0F3D1FE20FE3
:103EF000F31F2381822F82958F7090E0982F88275F
:103F00009295907F2F7030E0322F2227820F931FDF
:103F10002481422F42954F7030E1439FA00111242C
:103F2000840F951F2F70AC01420F511D58A34F8F66
:103F3000C301880F991F9BA38AA3DC01AC5CB84F17
:103F40008D919C912581D301AE5CB84FBFA3AEA3E8
:103F50003C91231308C04681F301E05DF84F3081A6
:103F6000431709F457C2EDE1F0E0EC0FFD1FE60D39
:103F7000F71D31E04F8D58A18417950709F430E003
:103F8000308387E0869DF001879DF00D112481E04C
:103F900090E08C0F9D1FE80FF91F938193FB33274F
:103FA00030F982E092FF80E0832B97E0969DF0014C
:103FB000979DF00D1124A1E0B0E0AC0FBD1FEA0FFA
:103FC000FB1F938191FFE0C194E0892B97E0969DC0
:103FD000F001979DF00D112441E050E04C0F5D1F62
:103FE000E40FF51F938190FFD1C198E03FE0369D2B
:103FF000F001379DF00D1124E20DF31D892B808B0C
:1040000087E0869DF001879DF00D112481E090E00E
:104010008C0F9D1FE80FF91F848182FB992790F96F
:104020009CA31DA280FFB4C182E090E0ACA1BDA121
:104030008A2B9B2B37E0369DF001379DF00D112424
:1040400041E050E04C0F5D1FE40FF51F348144E068
:1040500050E031FD02C050E040E0842B952B37E06A
:10406000369DF001379DF00D1124A1E0B0E0AC0FBA
:10407000BD1FEA0FFB1F348148E050E033FD02C052
:1040800050E040E0842B952B37E0369DF001379DC2
:10409000F00D112441E050E04C0F5D1FE40FF51FBF
:1040A000348140E150E035FD02C050E040E0842B17
:1040B000952B37E0369DF001379DF00D1124A1E0DE
:1040C000B0E0AC0FBD1FEA0FFB1F348140E250E0AF
:1040D00034FD02C050E040E0842B952B37E0369D44
:1040E000F001379DF00D112441E050E04C0F5D1FB1
:1040F000E40FF51F338140E450E036FD02C050E08C
:1041000040E0842B952B37E0369DF001379DF00D74
:104110001124A1E0B0E0AC0FBD1FEA0FFB1F3381FB
:1041200040E850E037FD02C050E040E0842B952B82
:1041300037E0369DF001379DF00D112441E050E04D
:104140004C0F5D1FE40FF51F338140E051E035FD5A
:1041500002C050E040E0842B952B37E0369DF00103
:10416000379DF00D1124A1E0B0E0AC0FBD1FEA0FA8
:10417000FB1F338140E052E034FD02C050E040E0DC
:104180003FE0369DF001379DF00D1124E20DF31D47
:10419000842B952B928B818B2F3B0CF0FCC087E0FE
:1041A000869DF001879DF00D112421E030E02C0F59
:1041B0003D1FE20FF31F8FEB858387E0869DF001A3
:1041C000879DF00D112481E090E08C0F9D1FE80F7A
:1041D000F91F86818F3B0CF0EFC08FEB8683ACA577
:1041E000BDA58C90082C000C9908AA08BB0887E094
:1041F000869DF001879DF00D112421E030E02C0F09
:104200003D1FE20FF31F358139A3232F330F330BEB
:10421000440B550B281939094A095B09AFEFB0E087
:104220000E940432AEA5BFA52C91022E000C330BC8
:10423000440B550B281939094A095B090E94E531DD
:10424000822F2757233108F480E890E02FE0269D45
:10425000F001279DF00D1124E20DF31D382F2227C8
:10426000820F931F968B858BE8A9F9A9E0800E2C0D
:10427000000CFF08000B110B87E0869DF001879D65
:10428000F00D112421E030E02C0F3D1FE20FF31F51
:104290009680292D092C000C330B440B550B2E193D
:1042A0003F09400B510BAFEFB0E00E940432AAA9C6
:1042B000BBA92C91022E000C330B440B550B2E196D
:1042C0003F09400B510B0E94E531822F27572331C4
:1042D00008F480E890E02FE0269DF001279DF00D86
:1042E0001124E20DF31D382F2227820F931F908F88
:1042F000878B2101BEE94B0E511C4F8D58A19A01AD
:1043000050E040E028A739A74AA75BA7EAA1FBA194
:10431000EE50FB4FB080D201ED90FD900D911C91BD
:1043200088A599A5AAA5BBA58E219F21A023B1236D
:10433000CC24C394892B8A2B8B2B09F4C12C1F927C
:10434000F2018780A680248145816B2D8D2D0E94EE
:10435000C50CF8E04F0E511C0F902CA93DA9421638
:104360005306C9F6EAA1FBA1EC5CF84F4F8D58A1AA
:1043700051834083E9A1AEA1BFA1EC93F301E05DBD
:10438000F84F9082D39494CD90E01FCE90E02ECE43
:1043900090E080E04BCE22340CF40FCF87E0869D76
:1043A000F001879DF00D112441E050E04C0F5D1F9E
:1043B000E40FF51F81E400CF82340CF410CF81E4C8
:1043C0000DCF80913C07811104C080913D07882367
:1043D00021F08BE097E20197F1F78D8D811101C0FB
:1043E0008E8DE5960FB6F894DEBF0FBECDBFDF9180
:1043F000CF911F910F91FF90EF90DF90CF90BF90E2
:10440000AF909F908F907F906F905F904F903F9074
:104410002F9008954F8D58A18417950709F4B2CFB6
:10442000A2CD0E946B33EF92FF920F931F93CF9315
:10443000DF9300D0CDB7DEB78091E207882309F47F
:10444000DBC08091E9008F709091EC0090FF4FC02D
:1044500090E8F92EF82A1092E9008091E80083FF95
:10446000C7C0EEEDF6E08091F100819326E0E63ED4
:10447000F207C9F7E090DF0681E0E8121DC08091E5
:10448000DE06813AC9F48091E800877F8093E800D6
:104490008091E0069091E1068115934051F568E026
:1044A00070E080E091E00E94121CE092EC078091A5
:1044B000E8008B778093E8008091E80083FF8AC052
:1044C0008091DE069091DF069A3008F083C0E92FD4
:1044D000F0E0E359FD4D0C944032BD22E322EA2284
:1044E000E322EA2244236623EA229925A62590E0C6
:1044F000B0CFE091E107E730D0F6F0E0EE57FD4DA8
:104500000C9440328922902295229A229F22A42242
:10451000B82264E170E08EED95E00E94121CC7CFD6
:1045200060E470E08BEC95E0F8CF60E470E083EC41
:1045300095E0F3CF60E470E08BEB95E0EECF60E4C4
:1045400070E084EB95E0E9CF81E08093B00582E0F4
:104550008093AD058091E2069091E30660E470E0FF
:10456000892B19F480EB95E0D8CF8DEA95E0D5CF73
:1045700060E470E088EA95E0D0CF803889F0823836
:1045800049F58091E2068F70873020F58093E9002D
:104590008091EB0085FB882780F91092E90004C028
:1045A0008091540781110DC09091E800977F9093FE
:1045B000E8008093F1001092F1008091E8008E777E
:1045C00032C082E0F1CF282F2D7F21F48823E9F03B
:1045D000823071F18091E80083FF0AC08091E80089
:1045E000877F8093E8008091EB0080628093EB00EE
:1045F0008F2D8F708093E9000F900F90DF91CF91F6
:104600001F910F91FF90EF9008958091E006813007
:1046100009F7933009F080E0809354071092E90085
:104620008091E800877F8093E8000E94A01CD2CF91
:104630008091E0068111F2CF8091E2068F702FEF1A
:10464000280F263038F68093E9002091EB0020FFF8
:10465000E5CF933031F48091EB0080628093EB00E2
:10466000DDCF9091EB0090619093EB0021E030E082
:1046700001C0220F8A95EAF72093EA001092EA001F
:104680008091EB008860EACF8111A4CF1091E00601
:104690001F778091E3008078812B8093E3008091E5
:1046A000E800877F8093E8000E94A01C8091E800CA
:1046B00080FFFCCF8091E30080688093E30083E07B
:1046C000111101C082E08093E20784CF80588230CC
:1046D00008F080CF2091E0063091E1061A8219821D
:1046E000832F99278330910509F41CC1D0F48130C0
:1046F0009105A9F1029709F45DC069817A8161157C
:10470000710509F467CF8091E800877F8093E80006
:10471000C8010E94121C8091E8008B778093E8000A
:1047200059CF8132910509F49FC1829731F7809169
:10473000E107843009F4E7C108F0BBC1813009F416
:10474000C8C1833009F4D4C146E450E06AE671E0A0
:1047500088E496E00E94C63186E490E0C4C180916E
:10476000E107882399F0813001F100915A071091F7
:104770005B0742E150E065EC70E082EF95E00E945B
:10478000C6310093FE051093FF0508C042E150E0DA
:1047900069EE70E082EF95E00E94C63182E190E020
:1047A0009A83898302EF15E0A8CF42E150E067EDDC
:1047B00070E0F0CF009159071091E107113009F432
:1047C00056C008F44DC0153009F496C0135014308B
:1047D00008F0A1C0E12FF0E0E254FB4F108149E066
:1047E00050E064E171E084E096E00E94C63199E116
:1047F000099F902D1124975F909306060093080659
:10480000002309F48AC049E150E06BEF70E08DE0CD
:1048100096E00E94C63110920F0610931D0681E8A3
:1048200080932106023008F478C049E150E06BEF34
:1048300070E086E296E00E94C63181E0809328060F
:104840001093360682E880933A06023009F465C078
:1048500049E150E06BEF70E08FE396E00E94C631D3
:1048600081E390E09A8389830DE814E046CF49E024
:1048700050E068E571E084E096E00E94C63199E17D
:10488000099F902D1124975F9093060600930806C8
:10489000002361F149E150E06FE371E08DE096E0C3
:1048A0000E94C63110920F064CE6E42EE0921D06DF
:1048B00081E8809321060230C8F049E150E06FE3BF
:1048C00071E086E296E00E94C63110932806E092DD
:1048D000360682E880933A06023041F049E150E022
:1048E0006FE371E08FE396E00E94C631B9E10B9F60
:1048F000C001112409960AC042E250E06DE171E066
:1049000084E096E00E94C63182E290E09A83898337
:1049100004E016E0F2CE16E462CFE9E10E9FC0019A
:104920001124E8CFC90199278230910549F18330DC
:10493000910509F441C08130910509F04AC0809188
:10494000E107813089F444E351E0DA010D90002061
:10495000E9F7AD014553514064E371E0CE010196A2
:104960000E9409278C01C9CE47E251E0FA0101906B
:104970000020E9F7AF014852514067E271E0EECF05
:104980008091E107813061F445E151E0DA010D9059
:104990000020E9F7AD014651514065E171E0DECFFD
:1049A00048E051E0FA0101900020E9F7AF014950D9
:1049B000514068E071E0D2CF60915707709158077D
:1049C000FB0101900020E9F73197AF01461B570B1F
:1049D000C5CF6BE874E0E1E0222331F1253039F5F1
:1049E00022ED34E0E0E0FCE0FE0FD9011D919D01D5
:1049F0008E2F90E0019670E060E0412F42954F705D
:104A000050E04F565A4FDA014C91DC014C93EE5F67
:104A100090E0A12FAF70B0E0AF56BA4F4C91DC01DF
:104A200011964C93EF13E1CF4E2F50E097CF20918A
:104A3000E107880F991F222329F0213049F08E5376
:104A40009B4F02C088529B4FFC016081718105C061
:104A500086539B4FDC016D917C91FB0101900020FE
:104A6000E9F73197E61BE0CF1091E10749E050E00C
:104A700061E671E08FE396E00E94C6318BE5143069
:104A800079F040F48CE6113059F089E5133041F0AB
:104A900086E406C081E5153019F087E31630C1F7CA
:104AA0008093460689E090E09A8389830FE316E0BD
:104AB00024CE853099F1863009F046CE47E350E0A8
:104AC00060EB71E088E496E00E94C63187E390E0F5
:104AD0000AC04CE650E06CEE72E088E496E00E947A
:104AE000C6318CE690E09A83898308E416E005CE0F
:104AF00049E550E063E972E088E496E00E94C6313F
:104B000089E590E0F0CF4BE550E068E372E088E49F
:104B100096E00E94C6318BE590E0E5CF41E550E09C
:104B200067EE71E088E496E00E94C63181E590E08E
:104B3000DACF803809F04ECD8091E800877F8093EE
:104B4000E800809155078093F10037CD811142CD67
:104B50001091E006123008F03DCD8091E800877F8B
:104B60008093E800109355070E94A01C1123F9F0D0
:104B700084E08093E2070091E1070023F1F042E333
:104B800060EC82E00E94BF1C11E080915907811700
:104B900008F420CD812F8F70873020F442E361EC40
:104BA0000E94BF1C053009F415CD1F5FEECF809128
:104BB000E30087FDDDCF81E0DCCF42E261EC81E004
:104BC0000E94BF1C46E260EC82E00E94BF1C02CD46
:104BD0000F931F93CF93DF938C01EB018091E8003B
:104BE00085FD10C08091E8008B778093E8000E94DB
:104BF00013220E94711C882389F3DF91CF911F91AA
:104C00000F9108958091F100F80181938F01219710
:104C100029F780E0F2CF1F920F920FB60F92112466
:104C20002F933F938F939F93AF93BF938091F407FC
:104C30009091F507A091F607B091F7073091F3072F
:104C400023E0230F2D3758F50196A11DB11D2093A8
:104C5000F3078093F4079093F507A093F607B093BA
:104C6000F7078091F8079091F907A091FA07B091A2
:104C7000FB070196A11DB11D8093F8079093F907DA
:104C8000A093FA07B093FB07BF91AF919F918F91CB
:104C90003F912F910F900FBE0F901F90189526E80F
:104CA000230F0296A11DB11DD2CF1F920F920FB6F6
:104CB0000F9211242F933F934F935F936F937F93A2
:104CC0008F939F93AF93BF93EF93FF938091DA00FD
:104CD00080FF17C08091D80080FF13C08091DA0058
:104CE0008E7F8093DA008091D90080FF86C080E1BA
:104CF00089BD82E189BD09B400FEFDCF81E08093CA
:104D0000E2078091E10080FF17C08091E20080FF00
:104D100013C08091E2008E7F8093E2008091E200D8
:104D200080618093E2008091D80080628093D800F7
:104D300019BC85E08093E2078091E10084FF26C0E2
:104D40008091E20084FF22C080E189BD82E189BDBB
:104D500009B400FEFDCF8091D8008F7D8093D800EC
:104D60008091E1008F7E8093E1008091E2008F7E50
:104D70008093E2008091E20081608093E200809164
:104D800055078823F1F184E08093E2078091E100E8
:104D900083FF22C08091E20083FF1EC08091E1006A
:104DA000877F8093E10082E08093E20710925507AD
:104DB0008091E1008E7F8093E1008091E2008E7F00
:104DC0008093E2008091E20080618093E20042E300
:104DD00060E080E00E94BF1CFF91EF91BF91AF9116
:104DE0009F918F917F916F915F914F913F912F9103
:104DF0000F900FBE0F901F90189519BC1092E207EC
:104E000080CF8091E30087FD02C081E0BDCF83E0C9
:104E1000BBCFCF93DF93DC014032510514F04FE15B
:104E200050E090E0292F30E02417350784F04F5FE1
:104E30005F4F440F551F4D935C9353605093E706AB
:104E40004093E60686EE96E0DF91CF910895F90152
:104E5000EE0FFF1FE851F94F260F371FE901288198
:104E6000022E000C330B318320839F5FDBCFCF9367
:104E7000DF93CDB7DEB729970FB6F894DEBF0FBE2C
:104E8000CDBF789484B5826084BD84B5816084BDD3
:104E900085B5826085BD85B5816085BD80916E00D8
:104EA000816080936E001092810080918100826009
:104EB0008093810080918100816080938100809146
:104EC0008000816080938000809191008260809357
:104ED0009100809191008160809391008091900079
:104EE0008160809390008091C10084608093C100B4
:104EF0008091C10082608093C1008091C100816077
:104F00008093C1008091C30081608093C300809131
:104F1000C00082608093C0008091C2008160809355
:104F2000C20080917A00846080937A0080917A0038
:104F3000826080937A0080917A00816080937A0009
:104F400080917A00806880937A0056985E9A1092D9
:104F5000EC0790E080E00E94CF31873008F046C037
:104F60008093E6078091E607833009F4A3C008F038
:104F70003FC0813009F44BC0823009F488C01092E0
:104F80000D088CE380930C081092B90084E48093A0
:104F9000BC008CE08093B8001092000810920108C9
:104FA000E3EAF6E0C590D490E5EAF6E0F490E6EAAC
:104FB000F6E0E491E0930208E7EAF6E0E491E0939A
:104FC0000308E8EAF6E0E491E093040810E000E06A
:104FD0000F1508F0D7C0F601E00FF11F64918CEFB8
:104FE00097E00E94D60A0F5F1F4FF2CF81E0B8CF43
:104FF000853029F008F494C0863009F0C0CF83EEE4
:1050000090E00E9446328C010E9491083BC087EAE2
:1050100091E00E9446328C010E94860388E095E070
:10502000D8018D939C93F801EC56FF4F14821582A2
:105030008AE09F012A5F3F4FD901B82E1D92BA9492
:10504000E9F7108A7196148215822F5E3F4FD901BD
:105050001D928A95E9F7108A71961082D801A95499
:10506000BF4F80E8E0E0F2E001900D928A95E1F711
:10507000D801A95CBE4F80E7E0E8F2E001900D9214
:105080008A95E1F71093EE070093ED0778CF8EEE47
:1050900090E00E9446328C010E9486038AE195E0EE
:1050A000F80191838083D801A256BF4F80E5E0EFDD
:1050B000F2E0E4CF8EE091E00E9446328C010E9443
:1050C00086038CE295E0D8018D939C9388E090E074
:1050D0000E94463225E1FC012783F801EA56FF4F82
:1050E0009183808388E090E00E94463225E0DC01D5
:1050F00017962C93F801E856FF4F918380833296E0
:105100009FEB9083319681E4808331969083319632
:105110008083D801A256BF4F80E7E0E4F3E0AECF32
:105120008AEF90E00E9446328C010E9486038EE353
:1051300095E0F8019183808386E190E00E944632F9
:1051400025E1DC0155962C93F801EC56FF4F918335
:10515000808386E190E00E94463225E0FC01258BA9
:10516000F801EA56FF4F9183808332968EE1808367
:10517000319681EE8083D801A656BF4F80E6E0EBE2
:10518000F3E07CCF8CEF97E00E94B60C61E88CEFE7
:1051900097E00E94D60A61E08CEF97E00E94D60A61
:1051A000E8EBF4E0F0930808E09307088491E9EB5A
:1051B000F4E0E491F82F319709F0F1C0109205085E
:1051C0008CEF97E00E94B60C11E010930A086EE194
:1051D0008CEF97E00E94EA0A82E080930A0881EB54
:1051E00094E00E944D0C10930A0862E08CEF97E067
:1051F0000E94DE0A0E947B1281E090E00E94CF3183
:10520000873008F080E0A091ED07B091EE07179687
:105210008C931797ED91FC9111970190F081E02DFF
:10522000CD01099564E170E080E090E00E94F20316
:105230008091ED079091EE07DC01ED91FC910280E9
:10524000F381E02D099564E170E080E090E00E9438
:10525000F2038091ED079091EE07DC01ED91FC9156
:105260000280F381E02D0995A091ED07B091EE0742
:1052700051968C91519780FF96C081E017968C9340
:1052800017974E99B6C017961C918CEF97E00E9425
:10529000B60C45E050E062EA75E08CEF97E00E94C2
:1052A00024040E94F31C6CED75E080E090E00E9405
:1052B000F2038CEF97E00E94B60C84EA94E00E941F
:1052C000FB1C86E994E00E94FB1C89E894E00E94A4
:1052D000FB1C64EF71E080E090E00E94F20381E04B
:1052E000812C912C540101E0FF24F3944E9961C06C
:1052F000F12C813089F48FB7F8948090F407909066
:10530000F507A090F607B090F7078FBF60E170E057
:1053100080E090E00E94F2032FB7F8948091F407A8
:105320009091F507A091F607B091F7072FBF881964
:105330009909AA09BB09893E9340A105B10510F45A
:105340000C94B2318CEF97E00E94B60C81E894E0A7
:105350000E94FB1C8AE794E00E944D0C812F0E9462
:10536000680C0E94F31C0E94F31C86E694E00E94E5
:105370004D0C60ED77E080E090E00E94F203612F39
:1053800081E090E00E94D73188E19EE00FB6F8946A
:10539000A895809360000FBE90936000FFCF81E0DE
:1053A000809305080DCF81FF6CCF17961C9217973D
:1053B00068CF81110C94AF3160E170E080E090E043
:1053C0000E94F20381E0011106C0882379F01F5F7B
:1053D000133008F010E007E025E04FE760E08CEFC5
:1053E00097E00E94810C812F0E94680C00E08F2DB5
:1053F0007BCFED91FC9111970484F585E02DCD01D3
:10540000099561E08CEF97E00E94DE0A60E08CEF86
:1054100097E00E94EA0AE091ED07F091EE0787819C
:1054200081111DC188E50E947C0C8091ED0790914F
:10543000EE0721E032E0DC0114963C932E931397A3
:10544000ED91FC910084F185E02D09958C0180910E
:10545000ED079091EE07DC01ED91FC910284F3855C
:10546000E02D099520919601E091ED07F091EE076E
:1054700037813093E10790935B0780935A0720931D
:105480005907109358070093570784B7877F84BF45
:105490000FB6F894A89580916000886180936000B1
:1054A000109260000FBE80E830E020E00FB6F89464
:1054B00080936100209361000FBE8091D8008F7EA1
:1054C0008093D8008091D70081608093D70084E0DA
:1054D00082BF81E0809356078091D8008E7F8093B1
:1054E000D8001092E2001092DA001092E100809150
:1054F000D8008F778093D8008091D80080688093FF
:10550000D8008091D8008F7D8093D80019BC10926C
:10551000E20710925507109254078091E0008B7FAC
:105520008093E0008091D80081608093D80042E3AE
:1055300060E080E00E94BF1C8091E1008E7F80933C
:10554000E1008091E20081608093E2008091E200BE
:1055500088608093E2008091E0008E7F8093E0007D
:105560008091D80080618093D80078940E94CD0308
:105570000091EF071091F0072091F1073091F207A9
:10558000AB01BC01401B510B620B730B8091970167
:1055900090919801B0E0A0E0C12C481759076A0724
:1055A0007B07B0F08091ED079091EE07DC01ED9163
:1055B000FC910280F381E02D0995C82E0E94CD0355
:1055C0006093EF077093F0078093F1079093F207D1
:1055D000D12C80919601D81608F01CC68091ED0759
:1055E0009091EE07DC01ED91FC910680F781E02DB2
:1055F0006D2D09950091ED071091EE07ED2CF12C22
:10560000F8018781843009F487C108F037C0882306
:1056100009F469C093E1813009F400C298E0833055
:1056200009F0B8C18FE08E9DF0018F9DF00D11241F
:10563000E00FF11FE089EF70E150EA3008F0A9C3F4
:10564000F0E0EB5DF44D0C944032542EC12EC92E87
:10565000C52EC72EC32EC92EBD2EB92EBF2E81300A
:1056600011F483E5E0CE823011F488E4DCCE83507F
:10567000843010F48DE4D7CE85E4D5CE853009F49E
:1056800069C195E0863009F0C9CF8FE08E9DF001A9
:105690008F9DF00D1124E00FF11F21893289A9019E
:1056A0004170552782E021FF80E0842B22FF67C4F0
:1056B00024E0822B80935C078FE08E9DF0018F9D0C
:1056C000F00D1124E00FF11F2589368930935E0714
:1056D00020935D072789308D3093600720935F0703
:1056E0002CE537E08EC094E18FE08E9DF0018F9D18
:1056F000F00D1124E00FF11F2089822F817032E01C
:1057000021FF30E0832B34E022FF30E0832B23FFA6
:105710006FC128E0822B2FE02E9DF0012F9DF00D10
:105720001124E00FF11F2189328940E131FF40E06F
:10573000842B40E230FF40E0842B40E432FF40E025
:10574000842B40E833FF40E0842B80935201A90171
:10575000E4E056954795EA95E1F7417082E025FF30
:1057600080E0842B44E034FF40E0842B40E120FFC4
:1057700040E0842B40E221FF40E0842B40E422FF04
:1057800040E0842B40E823FF40E0842B80935301CA
:105790008FE08E9DF0018F9DF00D1124E00FF11F21
:1057A00045895689505850935701409356014FEF01
:1057B0005FE76789708DDA01A61BB70BB0935901BB
:1057C000A0935801618D728D705870935B01609346
:1057D0005A01638D748D461B570B50935D014093A6
:1057E0005C01D801AE0DBF1D9E968C91882309F4F3
:1057F00001C1858D80935401868D8093550120E5EC
:1058000031E03093E5072093E4079093E30780911C
:10581000E207843009F074C082E08093E90080914F
:10582000E80082FF2AC08091E80085FF21C08091B6
:10583000E1078111C2C40E94711C811108C050E0AF
:1058400040E068E070E0CE0101960E94E825898181
:1058500081110EC08A81883059F4F701EE0FFF1FC5
:10586000EE0FFF1FE00FF11F8C8185AB8D8187ABA1
:105870008091E8008B778093E800870186E0000F35
:10588000111F8A95E1F70F59184F4091E30750E037
:105890006091E4077091E507C8010E947033892B7D
:1058A00079F18091E107853009F094C481E080931B
:1058B000E9008091E80080FF23C0E090E307A0901A
:1058C000E407B090E5070E94711CF12C882309F4CD
:1058D00094C48091E8008E778093E800E090E3071D
:1058E000F12CA090E407B090E507A701B501C8012D
:1058F0000E947D33A70170E060E0C5010E948633FD
:105900000E941322E091ED07F091EE078781882332
:1059100009F480C4D3945DCE97E08FE08E9DF001B2
:105920008F9DF00D1124E00FF11FE089EF70E15021
:10593000EA3008F09BC2F0E0E056F34D0C944032A0
:10594000CB2E2E2F362F322F342F302F362F2A2FBB
:10595000262F2C2F94E0DD2019F093E0D11002C304
:1059600081E080938601D8015096EC91EF70E15070
:10597000EA3008F0F2C2F0E0E054F34D0C9440320B
:10598000382FA52FAD2FA92FAB2FA72FAD2FA12FCC
:105990009D2FA32F843018F5882309F4A5CE8130DC
:1059A00009F43CC08FE08E9DF0018F9DF00D112415
:1059B000E00FF11FE089EF70E150EA3008F0F8C322
:1059C000F0E0EB51F34D0C944032C12FD030D83081
:1059D000D430D630D230D830CC30C830CE3085300C
:1059E00009F4BCCF08F499CF863009F44ECEDACF53
:1059F00020E090CEA90166E0569547956A95E1F7BB
:105A00004170419540935401220F232F221F330BE5
:105A100031952170219520935501F1CE8FE08E9D17
:105A2000F0018F9DF00D1124E00FF11F8089E82F08
:105A3000EF70E150EA3008F028C1F0E0EE5DF24D81
:105A40000C9440322C2D3D2E452E412E432E3F2EC0
:105A5000452E392E352E3B2E109266012FE02E9DBD
:105A6000F0012F9DF00D1124E00FF11F21893289E3
:105A70001901B1E02B223324E2E0F0E020FD02C066
:105A8000F0E0E0E0B90162707727A4E0B0E021FD2A
:105A900002C0B0E0A0E05901B694A794B694A794D0
:105AA0004A2D41704987AF01B9844B294A2B5B2BA2
:105AB000F901E870FF27A8E0B0E023FD02C0B0E0E4
:105AC000A0E04A2B5B2B5901A0E1AA22BB24A0E154
:105AD000B0E024FD02C0B0E0A0E04A2B5B2B4901FE
