:100000000C9461030C9489030C9489030C94890368
:100010000C9489030C9489030C9489030C94890330
:100020000C9489030C9489030C94B6270C948903CF
:100030000C9489030C9489030C9489030C94890310
:100040000C9489030C9489030C9489030C94890300
:100050000C9489030C9489030C9489030C94A61EB8
:100060000C9489030C9489030C9489030C948903E0
:100070000C9489030C9489030C9489030C948903D0
:100080000C9489030C9489030C9489030C948903C0
:100090000C9489030C9489030C9489030C948903B0
:1000A0000C9489030C9489030C948903AED580A821
:1000B0003FD300408D142002A1C8DA12817FD9F10C
:1000C000DB40A4A6AF1201000200000040D0167E63
:1000D0001200010102030112010002000000400DA4
:1000E0000F920000010102030112010002FFFFFF55
:1000F000405E048E021401010203010904000001A4
:1001000003000000092111010001224600070581BA
:10011000034000010902220001010080320902228D
:100120000001010080320904000001030000000901
:10013000211101000122510007058103400001093E
:1001400004000001030000000921110100012256F2
:100150000007058103400001090229000101008018
:10016000FA09211101000122460005010905A1013A
:10017000150025013500450175019518050919017E
:100180002918810205012507463B01750495016583
:10019000140939814265009501810126FF0046FF5F
:1001A000000930093109350936750895048102C006
:1001B00005010905A10105091901290315002501FA
:1001C0007501950355006500810275019505810350
:1001D00005010901150026FF0375109502A100090C
:1001E0003009318102C0C005010905A1018501A1C5
:1001F0000005091901290C150025019510750181CB
:100200000205010939150025073500463B0175082F
:10021000950165148142C0C005010902A101850252
:100220000901A100093009311581257F3581457FFC
:10023000950275088106C0C005010904A101A1004D
:100240000509190129101500250195107501810274
:1002500005010901A100093009311580257F9502AA
:1002600075088102C009371580257F9501750881C1
:10027000060938150026FF00950175088102093925
:10028000150025073500463B017508950165148169
:1002900042C0C005010905A1011500250135004531
:1002A000017501950E05091901290E81029502813A
:1002B0000105012507463B017504950165140939BF
:1002C000814265009501810126FF0046FF0009304B
:1002D000093275089502810205027508950315001B
:1002E00026FF0009BB09C509C88102C0050109052F
:1002F000A10115002501350045017501951005097D
:1003000019012910810205012507463B0175049555
:100310000165140939814265009501810126FF00BC
:1003200046FF000930093109320935750895048105
:10033000020600FF092009210922092309240925B1
:100340000926092709280929092A092B950C810260
:100350000A21269508B102C056424F59004E545406
:1003600000534E4553004E4553004D554C54492DB6
:1003700054415000504144004E2F410053574954BE
:100380004348004552524F52004849440058494E94
:10039000505554004E45532B534E45532B56424F08
:1003A00059005749490047414D45435542450000D2
:1003B0000000002300260029002C002F0000000070
:1003C00000250028002B002E003100000000002432
:1003D0000027002A002D0030000404040404030454
:1003E00005020202020403020202020606060606D3
:1003F00006040402020204040408020110408040C2
:10040000102040804080080204018040201002013A
:100410001080102040402000030C0F30333C3FC0C0
:10042000C3CCCFF0F3FCFF44455649434520574920
:100430004C4C2052455354415254004D4F44453A80
:1004400020005341564544210A00484F4C443A206D
:1004500020534156450A0050524553533A204348D1
:10046000414E4745004F5554505554204D4F44453B
:100470000A005245464C455800000005072061001F
:100480000000000000005F00006070787060605045
:1004900048506003070F07030305090503081C3EC6
:1004A0007F7F081C22417F7F7F3E1C087F41221CEA
:1004B00008082A1C2A0808083E08080050300000D6
:1004C0000808080808006060000020100804023EC8
:1004D0005149453E00427F40004261514946214119
:1004E000454B311814127F1027454545393C4A4980
:1004F00049300171090503364949493606494929F8
:100500001E00363600003C7E7E7E3C3C4242423C31
:100510001414141414F0F0F0F0F0F0909090F03205
:100520004979413E7E1111117E7F494949363E414C
:100530004141227F4141221C7F494949417F0909AC
:1005400001013E414151327F0808087F00417F414F
:10055000002040413F017F081422417F404040403D
:100560007F0204027F7F0408107F3E4141413E7FAD
:10057000090909063E4151215E7F0919294646496C
:1005800049493101017F01013F4040403F1F204068
:10059000201F7F2018207F6314081463030478044D
:1005A00003615149454300007F4141020408102086
:1005B00041417F0000383C1E0F074040404040381A
:1005C0002412090720545454787F4844443838444E
:1005D000444420384444487F3854545418087E0911
:1005E0000102081454543C7F0804047800447D4000
:1005F000002040443D00007F10284400417F40001F
:100600007C041804787C0804047838444444387C1A
:1006100014141408081414187C7C080404084854A2
:10062000545420043F4440203C4040207C1C204047
:10063000201C3C4030403C44281028440C50505072
:100640003C4464544C44E0E0E0E0E000007F000003
:10065000E0A0A0A0E008082A1C08081C2A0808003E
:1006600006090906AC00198040005245424F4F541C
:10067000494E472E2E2E004E4F4E45004E4F5420D1
:10068000535550504F525445440044524157534FD4
:100690004D45005544524157005455524E54414225
:1006A0004C45004452554D00475549544152004372
:1006B0004C4153534943004E554E4348554B00005F
:1006C000B83211241FBECFEFDAE0DEBFCDBF15E098
:1006D000A0E0B1E0E0E4F9E602C005900D92AA3096
:1006E000B107D9F727E0AAE0B5E001C01D92AE3905
:1006F000B207E1F713E0C1E6D3E004C02197FE01A1
:100700000E945133C036D107C9F70E9498280C9433
:100710009E340C940000CF93DF93EC018AEC94E0BC
:10072000998388831A8280E093E09C838B8380E0A6
:100730009CE09E838D831F82188681E089878EE1ED
:10074000EEE9F1E0DE01509601900D928A95E1F715
:100750001FA61EA619AA18AA1BAA1AAAFE01F49679
:1007600088E0DF011D928A95E9F71CAE1DAE1FAE31
:100770001EAE3C961182108232968FEF9FE79183D6
:1007800080833296918380833296918380833296E0
:100790009183808332961082C55BDF4F1882DF9190
:1007A000CF9108953FB7F894809184079091850781
:1007B000A0918607B091870726B5A89B05C02F3F5B
:1007C00019F00196A11DB11D3FBFBA2FA92F982F77
:1007D0008827BC01CD01620F711D811D911D42E072
:1007E000660F771F881F991F4A95D1F708958F923A
:1007F0009F92AF92BF92CF92DF92EF92FF924B0106
:100800005C010E94D2036B017C010E94D2036C192F
:100810007D098E099F09683E734081059105A8F303
:1008200021E0821A9108A108B10888EEC80E83E081
:10083000D81EE11CF11C81149104A104B10429F714
:10084000FF90EF90DF90CF90BF90AF909F908F90F0
:1008500008952FB7F8946091800770918107809177
:100860008207909183072FBF08954F925F926F92F6
:100870007F92AF92BF92CF92DF92EF92FF920F934F
:100880001F93CF93DF93EC016B017B01E40EF51E08
:100890008B015801AC18BD080E151F0511F10E94FF
:1008A0002904688779878A879B87E881F981028490
:1008B000F385E02DCE01099597FF23C00E942904FE
:1008C000488459846A847B84641975098609970968
:1008D0004C805D806E807F80641575058605970568
:1008E00020F3C501DF91CF911F910F91FF90EF9001
:1008F000DF90CF90BF90AF907F906F905F904F90C0
:100900000895F80181938F01C4CFAF92BF92CF9227
:10091000DF92EF92FF920F931F93CF93DF936C01BF
:100920007B018B01040F151FEB015E01AE18BF08A0
:10093000C017D10759F06991D601ED91FC91019052
:10094000F081E02DC6010995892B79F7C501DF916A
:10095000CF911F910F91FF90EF90DF90CF90BF90BC
:10096000AF900895CF93DF93EC018A85882329F017
:1009700081508A87DF91CF9108959C818E8198174D
:10098000C8F78D856827E881F9810084F185E02D1D
:1009900042E0CE0109958C818F5F8C83EBCF81E0A3
:1009A0000895CF93DF93EC01E881F9810280F38110
:1009B000E02D0995EA81FB819281981731F0813011
:1009C00011F4911103C080E001C081E0DF91CF916B
:1009D000089581E0089583E00895DC011296ED9179
:1009E000FC91139714968C9181110BC0808590E037
:1009F00023E0959587952A95E1F7809590958170EC
:100A000008958285F4CFDC011296ED91FC91139745
:100A100014968C9181110BC0808590E024E095950F
:100A200087952A95E1F78095909581700895828544
:100A3000F4CFDC011296ED91FC91139714968C91F2
:100A400081110AC0808590E0959587959595879549
:100A500080959095817008958285F5CFDC0112967E
:100A6000ED91FC91139714968C9181110AC08185A8
:100A700090E095958795959587958095909581704F
:100A800008958385F5CFDC011296ED91FC911397C3
:100A900014968C9181110AC0818590E0880F892F6E
:100AA000881F990BB1E08B2781700895838590E0B2
:100AB000880F892F881F990B21E08227F5CFDC0151
:100AC0001296ED91FC91139714968C91811108C0A8
:100AD000808590E095958795809590958170089593
:100AE0008285F7CFDC011296ED91FC911397149655
:100AF0008C9181110BC0808590E025E095958795BC
:100B00002A95E1F780959095817008958285F4CFBC
:100B1000DC011296ED91FC91139714968C91811142
:100B20000BC0818590E025E0959587952A95E1F7A2
:100B300080959095817008958385F4CFDC0112969D
:100B4000ED91FC91139714968C9181110BC08185C6
:100B500090E023E0959587952A95E1F7809590950B
:100B6000817008958385F4CFDC011296ED91FC919C
:100B7000139714968C9181110BC0818590E026E02B
:100B8000959587952A95E1F78095909581700895C0
:100B90008385F4CFDC011296ED91FC9113971496A6
:100BA0008C9181110BC0818590E024E0959587950B
:100BB0002A95E1F780959095817008958385F4CF0B
:100BC000DC011296ED91FC91139714968C91811192
:100BD00008C0818590E09595879580959095817066
:100BE00008958385F7CFDC011296ED91FC91139760
:100BF00014968C9181110BC0808590E026E095952C
:100C000087952A95E1F78095909581700895828562
:100C1000F4CF84E00895EF920F931F93F901DA0166
:100C20002C913E2D309532233C9330813E293083E8
:100C3000FC01D80198E080E030E020E04C914E21AA
:100C400089F02A95D9F720E04C914E2159F02A9548
:100C5000D9F720E84C914E2129F02A95D9F73A95F9
:100C600061F717C047E04A95F1F7000031E0550FF2
:100C70004C914E2109F051609A9529F45193839536
:100C800098E0681731F020E84C914E2111F72A9531
:100C9000D9F71F910F91EF9008950F931F93F901CA
:100CA0002081202B2083DA012C91202B2C93208172
:100CB0004081202B30E010E00095109550E0042397
:100CC0001523DC015D9148E00083550F40F474E08A
:100CD0007A95F1F720837AE07A95F1F705C07EE006
:100CE0007A95F1F7000020834A9529F073E07A9510
:100CF000F1F70000E9CF6A9529F071E07A95F1F7F4
:100D00000000E0CF72E07A95F1F700000000008368
:100D100074E07A95F1F70000000020831F910F9195
:100D200008957F928F929F92AF92BF92CF92DF925F
:100D3000EF92FF920F931F93CF93DF93DB01642F0A
:100D40005901F02E282F30E0F901E850FC4FE490D3
:100D500027523C4FF901249130E0220F331FF90153
:100D6000E553FC4FC591D491F901E354FC4FC59074
:100D7000D490F901E155FC4F859094907FB6F8949A
:100D80000E2D9601AE01CD010E944D068401960103
:100D9000AE016F2DC5010E940B067FBEDF91CF9182
:100DA0001F910F91FF90EF90DF90CF90BF90AF9089
:100DB0009F908F907F900895CF93DF93FC01878160
:100DC0002FEF3FE7813011F420E830E8462F50E064
:100DD000DF018FE0689FA00DB11D112450969C91FA
:100DE0006185892F8370823021F1833029F0813031
:100DF00021F58093DF061BC0611111C081E0809353
:100E0000DF069C70983009F457C09C30D1F09430C4
:100E100009F055C0846093E09093DE061CC06230F8
:100E200061F48091DF06882341F0813021F081E078
:100E3000E8CF8093DF0682E0E4CF1092DF0680E007
:100E4000E0CF6230E1F59091DE069923C1F1933055
:100E500089F194E0892B9FE0949FD001959FB00D7C
:100E60001124AE0FBF1F50968C9350978085EF01D1
:100E7000C40FD51F813031F1823009F46CC088A9CC
:100E8000811108C056963C932E93559758963C93E3
:100E90002E9357978AA9811155C06FE0649FC001B6
:100EA000659F900D1124E80FF91F328F218F348F29
:100EB000238F48C098E0CECF886094E0ADCF1092E9
:100EC000DE06C9CF8AA9811108C05A963C932E9399
:100ED00059975C963C932E935B978FE0849FD0014B
:100EE000859FB00D1124AE0FBF1F50968C918C7052
:100EF000843071F1883049F58FEF9FEF2FE0249F08
:100F0000D001259FB00D1124AE0FBF1F56969C93A4
:100F10008E93559750968C91837030E020E081300D
:100F200031F02FEF3FEF823011F02FEF3FE76FE00E
:100F3000649FC001659F900D1124E80FF91F308F49
:100F4000278B108ADF91CF9108958FEF9FE7D6CF3F
:100F500090E080E0D3CF88A9811108C056963C93D9
:100F60002E93559758963C932E9357978FE0849FD6
:100F7000D001859FB00D1124AE0FBF1F50968C91EC
:100F80008C70843059F1883031F58FEF9FEF2FE06E
:100F9000249FD001259FB00D1124AE0FBF1F5A967C
:100FA0009C938E93599750968C91837030E020E0FB
:100FB000813031F02FEF3FEF823011F02FEF3FE71C
:100FC0006FE0649FC001659F900D1124E80FF91F29
:100FD000348F238FB6CF8FEF9FE7D9CF90E080E09B
:100FE000D6CFCF93DF93DC0113962D913C911497CC
:100FF000C62FD0E0FC018FE0689FE00DF11D1124A9
:1010000061897289C901862397232817390709F056
:101010004BC080898F70823071F128F48130C9F122
:1010200090E080E021C0843089F08830C9F782E008
:1010300018968C93108A209530958189928928235F
:101040003923328B218B84E090E00EC081E018962A
:101050008C93108A20953095818992892823392391
:10106000328B218B82E090E09093DD068093DC064A
:10107000DF91CF91089518961C92108A2095309593
:101080008189928928233923328B218B81E090E05A
:10109000EBCF108A20953095262337233061328B91
:1010A000218B88E090E0E0CF15964D915C911697EA
:1010B000642375234617570709F0B2CF80898F70D4
:1010C000823009F440C088F4813009F0A9CF199624
:1010D0001C92108A40955095818992894823592302
:1010E000528B418B80E290E0BFCF8430D9F18830C1
:1010F00009F096CF8091DC069091DD068115924033
:1011000041F01B968C911B9791E089271B968C933D
:101110001B972FE02C9FC0012D9F900D1124A80F2D
:10112000B91F50961C9250974095509551968D91AD
:101130009C9152974823592352965C934E93519712
:1011400080E092E091CF81E019968C93108A4095CF
:1011500050958189928948235923528B418B80E491
:1011600090E082CF82E019968C93108A409550953A
:101170008189928948235923528B418B80E890E0E2
:1011800073CF84E98093BC0085E69091BC0094FF06
:1011900003C08150D1F7089581E00895DF92EF9266
:1011A000FF920F931F93CF93DF93FC018681838778
:1011B00087819085958784878185928597878687A3
:1011C000D48014822C9A8BE290E00197F1F72C984E
:1011D00083E190E00197F1F7208930E0326750E039
:1011E00040E090E080E0C3E1EC2EF12C37FF71C0CD
:1011F0005C9A220F331F6CB166FB002700F910E0E8
:10120000B801042E02C0660F771F0A94E2F7862BFE
:10121000972B2D98E7012197F1F72D9AE701219758
:10122000F1F74F5F5F4F4031510501F75C98492F4F
:1012300042954F7051E04D3009F450E170E060E0AC
:1012400030E020E0A3E1EA2EF12C1CB116FBAA2726
:10125000A0F9B0E08D01062E02C0000F111F0A9404
:10126000E2F7202B312B2D98E7012197F1F72D9AEA
:10127000E7012197F1F76F5F7F4F651730F3809596
:101280009095209530954F3029F42E3FDFEF3D07A4
:1012900009F444C0548161E0650F648361E070E04B
:1012A000511102C070E060E0411115C0A92FBB27A9
:1012B000AF70BB271F9779F44AE0469FD001479F44
:1012C000B00D1124AE0FBF1F4FE016964C9316972A
:1012D00015C05C988ECF542F509552FF47C02AE01E
:1012E000269FD001279FB00D1124AE0FBF1F24E011
:1012F00016962C9316975370252F30E01A963C9330
:101300002E9319972AE0269FD001279FB00D112414
:10131000AE0FBF1F18969C938E93179784818D15DF
:10132000E8F44AE09FEF21E030E0811102C030E0B4
:1013300020E0429FD001439FB00D1124AE0FBF1F8C
:1013400016969C93169718961C921E9217971A96AB
:101350001C921E9219978F5FD812E5CFDF91CF9123
:101360001F910F91FF90EF90DF9008955AE0569FE4
:10137000D001579FB00D1124AE0FBF1F5FE045276E
:10138000A4CF809172078F5F843018F48093720726
:10139000089581E0FBCF86569F4F21E0FC0120831A
:1013A000089589E091E0089582ED94E0089508950C
:1013B000DC019C96EC919C979D962C91E21730F461
:1013C000E80FF92FF11D848590E008958FEF9FEFCE
:1013D0000895FC0194A585A52FEF3FEF981740F4E1
:1013E000DF01A90FB11D1C962C9130E09F5F94A7DF
:1013F000C9010895FC0185A594A5891B990B089541
:10140000CF92DF92EF92FF920F931F93CF93DF93D0
:101410006C01EB017B01E40EF51E10E000E0CE153F
:10142000DF0561F06991D601ED91FC910190F081A9
:10143000E02DC6010995080F191FF1CFC801DF91F2
:10144000CF911F910F91FF90EF90DF90CF90089573
:10145000089588E091E0089589ED94E00895EF9271
:10146000FF920F93CF93DF931F92CDB7DEB77C012E
:10147000FC018589198203E0970141E0BE016F5F9D
:101480007F4F0E949106F701833029F0108211826C
:10149000128290E016C08081918188309042C9F01C
:1014A000F701858991E4998397012D5F3F4F0AE009
:1014B00041E0BE016F5F7F4F0E94910691E08A304C
:1014C00041F7892F0F90DF91CF910F91FF90EF900F
:1014D000089591E0F6CF1F93CF93DF93EC0165E081
:1014E00070E080E090E00E94F70382E08093950135
:1014F000FE01EC56FF4F808191810E942F0A11E07E
:1015000018AB1AABFE01EA56FF4F808191810E9411
:101510002F0A19AB1BAB62E370E080E090E0DF9133
:10152000CF911F910C94F703EF92FF920F93CF93FB
:10153000DF9300D01F92CDB7DEB77C01FC01808124
:101540009181892BC9F09701235F3F4FF70185896E
:10155000408151814830504219F594E599831A82AF
:101560001B8208E043E0BE016F5F7F4F0E9491063F
:10157000883081F481E005C0C7010E942F0A8111E3
:10158000E2CF0F900F900F90DF91CF910F91FF90CE
:10159000EF900895F70110821182128280E0F1CF5E
:1015A000F701928193FB992790F940E4498343E046
:1015B0004A839B8308E0D7CF8A549F4FFC018081E8
:1015C000811103C081E091E0089582E091E00895E7
:1015D0008A549F4FFC018081811103C088EE94E002
:1015E000089580EE94E00895FC019081911106C069
:1015F00083819481019699F080E008959F3049F4A9
:10160000228130E02F7033272F30310561F482E0E2
:101610000895923031F0943031F485E0089583E0FC
:10162000089584E0089581E00895AF92BF92CF922B
:10163000DF92EF92FF920F931F93CF93DF93FC0102
:10164000E756FF4F1082249A2C98259A2D9A6E986F
:101650007698769A549A5C98DC01A655BF4F1C92F6
:10166000869A8E98859A8D9A87988F988F9A229AC3
:101670002A98A3E2B0E01197F1F7208121113EC032
:10168000EC0182E0809395018E010C561F4FC8013A
:101690000E94CE08FE01E856FF4FB080D12C7801A1
:1016A00086E0E80EF11CCA54DF4F3AE0A32ECC24AA
:1016B000CA94DB1461F1D11008C0C7010E94F40A7A
:1016C00091E0853009F090E0988381E090E0D110BE
:1016D00002C090E080E0A89EF001A99EF00D1124C8
:1016E000E00FF11FC6821086178212861186C3860C
:1016F0001586148617861686D394DBCF82E08093F6
:10170000950188EE93E090939701809396018091E4
:101710009601909197018230910538F0880F991FBA
:10172000880F991F05970197F1F7DF91CF911F91CE
:101730000F91FF90EF90DF90CF90BF90AF90089502
:10174000FC016093BC002FEF3FEF8091BC0087FF4E
:1017500006C09091B900987F908381E00895215050
:10176000310999F780E00895CF93DF93EC016093FE
:10177000BB0064E80E94A00B882329F081E09881D7
:10178000983209F080E0DF91CF910895DF92EF92D7
:10179000FF920F931F93CF93DF93EC01D62EF42E7D
:1017A0008989882329F0411103C00E94C108198A40
:1017B0008E01015F1F4F8989811119C0E88864EA91
:1017C000C8010E94A00B882361F08F85883011F03A
:1017D000803139F4EE0CE092BB0064E8C8010E944D
:1017E000A00B60E0F11060E4C8010E94B40B6D2D05
:1017F000C8010E94B40B82E0F8120BC089898F5F88
:10180000898BDF91CF911F910F91FF90EF90DF9027
:1018100008950E94C108198AF4CFDC01ED91FC9172
:101820000084F185E02D40E00994FC012781269594
:1018300026952695621720F46583606B0C940D0C39
:1018400008950F931F93CF93FC012681621798F49C
:10185000C62F8C0164836085C60F6C2F6F700E9449
:101860000D0C6C2F62956F706061C801CF911F9154
:101870000F910C940D0CCF911F910F9108951F9310
:10188000CF93DF93EC01142F0E94210C612FCE0126
:10189000DF91CF911F910C94150C2F923F924F9294
:1018A0005F926F927F928F929F92AF92BF92CF92F0
:1018B000DF92EF92FF920F931F93CF93DF9300D0AD
:1018C00000D000D0CDB7DEB7FC01238534852115CB
:1018D000310509F416C19E838D83F9013296649017
:1018E00031964491E42EF12CF7E0EF0EF11C53E019
:1018F000F594E7945A95E1F7E982F9013496549109
:101900003196E4916D30F1F460E00E94210C81E0A9
:1019100090E026960FB6F894DEBF0FBECDBFDF91E4
:10192000CF911F910F91FF90EF90DF90CF90BF90DC
:10193000AF909F908F907F906F905F904F903F906F
:101940002F9008956A3081F460E08D819E810E941D
:10195000210CED81FE81868565818E9D600D1124AF
:10196000CF010E94150CD3CF651708F4CAC08E2F83
:1019700090E0FC01E50FF11D6E171F060CF0C1C0D1
:1019800089010A5F1F4F651BED81FE8171855685B8
:10199000759F502D11245C83F90154912F5F3F4FA7
:1019A000F9012491352F2230310508F06AC06E9C70
:1019B000C0016F9C900D1124689FF001699FF00D8C
:1019C00011240E0F1F1F512CED81FE81F481FA832B
:1019D000ED81FE812580F285FB83862C912CAA2443
:1019E000A394B12C312C8981381608F086C0412C83
:1019F000ED81FE818685481608F078C08B8182874C
:101A0000311002C0442041F0ED81FE8145814F5FDD
:101A10006A81CF010E943F0CD12CC12CC61408F062
:101A200058C0F801EC0DFD1D7490552061F0EA14CA
:101A3000FB0449F4E72DF0E0052C02C0F595E7958D
:101A40000A94E2F77E2EED81FE818685823081F454
:101A5000442009F43AC072948FE07822E72DF0E038
:101A6000E95EFB4F7490672D8D819E810E94B204C8
:101A7000672D8D819E810E94B2048FEFC81AD80A0B
:101A8000CDCF477028E0522E541A411101C0512C7D
:101A9000F801612C30E020E0661631F04491240F0B
:101AA000311D63943196F8CF600E712E711CF301D5
:101AB0006490E29EF001E39EF00DF29EF00D112481
:101AC0008E0F9F1F080F191F7FCFF72DFF707F2EDE
:101AD000C5CFD12CEC81DE1639F060E08D819E817E
:101AE0000E94B204D394F6CF439482CF3394080D6E
:101AF000191DFFEFAF1ABF0A76CF622D8D819E812F
:101B000030CF90E080E005CF0F931F93CF93DF930A
:101B10008C01D0E0C0E0F801EC0FFD1F649166235A
:101B200041F088E897E00E944D0C892B11F0219636
:101B3000F2CFCE01DF91CF911F910F9108958111C6
:101B400004C08DE893E00C94840D813019F48CE787
:101B500093E0F9CF8250853018F489E893E0F3CF11
:101B600083E893E0F0CF682F88E897E00C944D0C61
:101B7000CF92DF92EF92FF920F931F93CF93DF9359
:101B8000EC01F62EC42ED22E1A868F81869586956C
:101B90008695081710F00FEF080F1D2D011780F024
:101BA000412F6F2DCE010E943F0CEF2CCE1430F050
:101BB0006D85CE010E94B204E394F8CF1F5FEECF93
:101BC0004D2D6F2DCE01DF91CF911F910F91FF9081
:101BD000EF90DF90CF900C943F0C0F93FC010781A6
:101BE00006950695069501504681415020E060E03B
:101BF0000E94B80D0F9108954F925F926F927F925D
:101C00008F92AF92CF92EF92FF920F931F93CF9349
:101C1000DF93CDB7DEB72701380194E0899F8001BB
:101C20001124F801E857F94F80819181A281B38195
:101C30008E219521A621B72131E0892B8A2B8B2B70
:101C400009F430E03C1103C088898823F1F0C11009
:101C500001C0A82C2D5F640F422F88E897E00E94F6
:101C60003F0C8A2D0E94B30DF801E857F94FCC20A4
:101C7000D1F080819181A281B38184299529A629FF
:101C8000B72980839183A283B383DF91CF911F9182
:101C90000F91FF90EF90CF90AF908F907F906F90CB
:101CA0005F904F9008954094509460947094808118
:101CB0009181A281B38184219521A621B721E1CF11
:101CC0006F927F928F92AF92CF92DF92EF92FF92BC
:101CD0000F931F93CF93DF93EC01162F07E023E0C0
:101CE0004CE360E088E897E00E94B80D47E060E0D0
:101CF00088E897E00E943F0C1250183008F0A4C00A
:101D0000E12FF0E0EA57F14F0C945133210F8E0E82
:101D1000E10E050F150F180F1B0F1E0F87EB96E036
:101D20000E94840D9E012E553F4FCE018F559F4F2F
:101D3000FE01E556FF4FE080F18002811381DE0154
:101D4000A156BF4FAE0140565F4F772473947F92E8
:101D5000F9018080FC01A080CC24C3942C91FA016D
:101D6000408160E080E00E94FC0DCE0186559F4FCF
:101D7000DE01A755BF4FFE01ED55FF4FE080F1801A
:101D8000028113819E0129553F4FC855DF4F7F9235
:101D9000FC018080AC90F9012081488160E080E006
:101DA0000E94FC0D0F900F90DF91CF911F910F912A
:101DB000FF90EF90DF90CF90AF908F907F906F90DB
:101DC00008958FEA96E00E94840D3E01FBE96F0EB4
:101DD000711CCD5EDE4FDD24D394F301E080F180F1
:101DE00002811381DF928780A680CC24C394248152
:101DF000458160E080E00E94FC0DF8E06F0E711CF0
:101E00000F906C167D0649F7CFCF88EA96E0DF91F8
:101E1000CF911F910F91FF90EF90DF90CF90AF90F7
:101E20008F907F906F900C94840D83EA96E0EFCFB3
:101E300089E996E0ECCF83E996E0E9CF8AE896E07D
:101E4000E6CF8CE796E0E3CF87E796E0E0CF6F92AE
:101E50007F928F929F92AF92BF92CF92DF92EF923A
:101E6000FF920F931F93CF93DF933C01D62EC42F85
:101E7000E62FF0E0EE0FFF1FEE53FB4FB08007E0C0
:101E800023E041816B2D88E897E00E94B80D47E080
:101E90006B2D88E897E00E943F0CC13091F584E7F4
:101EA00093E00E94840D81E08D15E0F0E301C656B9
:101EB000DF4F8AEF680E711C99249394E880F980B3
:101EC0000A811B819F928F80AE80CC24C3942C8189
:101ED0004D816B2D8D2D0E94FC0D28960F90C615FF
:101EE000D70561F7DF91CF911F910F91FF90EF9090
:101EF000DF90CF90BF90AF909F908F907F906F902A
:101F0000089587E796E0DF91CF911F910F91FF90A1
:101F1000EF90DF90CF90BF90AF909F908F907F9089
:101F20006F900C94840D6F927F928F929F92AF92DC
:101F3000BF92CF92DF92EF92FF920F931F93CF93B6
:101F4000DF93EC01D62E742EE62FF0E0EE0FFF1F8C
:101F5000EE53FB4FB08007E023E041816B2D88E812
:101F600097E00E94B80D47E06B2D88E897E00E944B
:101F70003F0C83E0781619F18715B8F0E2E086E6A9
:101F800093E07E16F1F087E796E0DF91CF911F9105
:101F90000F91FF90EF90DF90CF90BF90AF909F9008
:101FA0008F907F906F900C94840DF4E07F1609F46D
:101FB00042C085E07812E7CF88E593E002C081E671
:101FC00093E00E94840DE2E0DE1631F1FE01EA5456
:101FD000FF4F8081882391F13E01F9EC6F1AFEEFEB
:101FE0007F0AC955DE4F99249394F301E080F18074
:101FF000028113819F928780A680CC24C394248180
:1020000045816B2D8D2D0E94FC0DF8E06F0E711C2B
:102010000F906C167D0649F7DF91CF911F910F91BC
:10202000FF90EF90DF90CF90BF90AF909F908F90F8
:102030007F906F9008958DE593E0C3CFC954DF4F33
:10204000612C9924939482E078121FC0E7E0E61592
:10205000B0F0F3E0F615C8F0FE01E05AFF4FE08063
:10206000F180028113819F928780A680CC24C39443
:10207000248145816B2D8D2D0E94FC0D0F90639462
:1020800028968CE06812DFCFC7CFFE01E8CF0F9310
:1020900007E022E04FE760E088E897E00E94B80D93
:1020A00080917207823071F08330A1F08130D1F4D9
:1020B0006CE088E897E00E94210C84E993E00F919E
:1020C0000C94840D64E288E897E00E94210C86EA73
:1020D00093E0F5CF66E388E897E00E94210C82EA5E
:1020E00093E0EDCF0F910895809394016EEA8111F2
:1020F0006FEA88E897E00E940D0C0E942904609323
:10210000730770937407809375079093760708950B
:1021100090E080E00895CF93DF93CDB7DEB72F979F
:102120000FB6F894DEBF0FBECDBF209195016217A8
:10213000E0F42FE0FE013196DF01322F1D923A9537
:10214000E9F74FEF5FE75F834E83598748875B87E7
:102150004A875D874C87DC01269FA00DB11D1124A5
:10216000509601900D922A95E1F72F960FB6F894AC
:10217000DEBF0FBECDBFDF91CF9108952F923F926A
:102180004F925F926F927F928F929F92AF92BF9287
:10219000CF92DF92EF92FF920F931F93CF93DF9333
:1021A000CDB7DEB7C755D1090FB6F894DEBF0FBE65
:1021B000CDBF3C0180914901882339F0109249013B
:1021C00040E060E0C3010E94270F80919F068111CB
:1021D0006AC08091A006811166C080919D06811120
:1021E00009C0F301EC56FF4F808191810E94940A4F
:1021F00080939D0680939F0680919E06811109C061
:10220000F301EA56FF4F808191810E94940A8093E6
:102210009E068093A00681E00E94741007E027E0EC
:102220004FE760E088E897E00E94B80D67E088E833
:1022300097E00E94150C60E088E897E00E94210C6E
:1022400080919F0681110BC08091A006811103C06F
:1022500087E796E002C088E793E00E94840D62E47D
:1022600088E897E00E94210C90919F068091A0063B
:10227000992309F4A4C0811104C088E793E00E9467
:10228000840D80919F06882329F041E060E0C3011E
:102290000E94270F8091A006882329F041E061E089
:1022A000C3010E94270F21961FAE219722961FAED1
:1022B0002297512C10E5A12E13ECB12E05E1402EF2
:1022C00088EC882E912C80919501581608F08CC0CE
:1022D000052D10E0F801E156F94F8081882309F4BB
:1022E0006CC07801EE0CFF1CE60CF71C24E9E20E32
:1022F000F11CD7018D919C910E94940AF801E3563C
:10230000F94F6F01882309F45FC0D7012D913C91EB
:1023100095E1F901DE019B9601900D929A95E1F706
:10232000409EA001419E500D1124E1E0F0E0EC0F31
:10233000FD1F4E0F5F1FBA96DA01942D01900D928A
:102340009A95E1F7DA014D915C91FF24F3944115E0
:10235000510509F4F12CF3019781911119C0411530
:102360005105B1F0000F111F000F111FE00FF11FF9
:1023700095A9911105C081E097A9911101C080E054
:10238000D90112969C91129780FB93F912969C9317
:10239000F601808181110FC0452B69F0652DC301C5
:1023A0000E948B10909297018092960141E0652DDA
:1023B000C3010E94270FD601FC92539484CF811150
:1023C0005ACF87E796E05BCF652DC3010E948B1043
:1023D000B0929701A092960140E0652DC3010E9442
:1023E000270FF6011082E9CF23961FAE23979301A2
:1023F00028563F4F64963FAF2EAF6497B3016756A0
:102400007F4F66967FAF6EAF6697C30186509F4F32
:1024100068969FAF8EAF68978091950123969FAD88
:102420002397981708F08BC3492E512CF201E356DD
:10243000F94F8081882309F44DC385E1849DF00123
:10244000859DF00D1124A1E0B0E0AC0FBD1FEA0F97
:10245000FB1F958586859C0129963FAF2EAF299756
:10246000D201AA0FBB1FA756B94F2D913C914785AA
:10247000D201A956B94F8C91082E000C990B481720
:10248000190611F55089D201AB56B94F8C91082E1F
:10249000000C990B58171906B9F45189D201AD56A1
:1024A000B94F8C91082E000C990B5817190661F43E
:1024B0005289F201EF56F94F8081082E000C990BDA
:1024C0005817190609F45DC3E0E4F0E0EC0FFD1FB6
:1024D000E40DF51D81E029966EAD7FAD2997261795
:1024E000370709F480E08083F301E40DF51D16A69B
:1024F00085E1849DD001859DB00D112481E090E09F
:102500008C0F9D1FA80FB91F1E969C9193FB22272D
:1025100020F982E092FF80E0822B95E1949DD0012A
:10252000959DB00D112421E030E02C0F3D1FA20F2E
:10253000B31F1E969C9190FFD5C294E0892B95E124
:10254000949DD001959DB00D112461E070E06C0F59
:102550007D1FA60FB71F1E969C9191FFC5C298E0E4
:102560002FE0249DD001259DB00D1124A60DB71D8F
:10257000892B50968C9385E1849DD001859DB00D6B
:10258000112481E090E08C0F9D1FA80FB91F1D96AC
:102590008C9181FB992790F961969FAF6197629624
:1025A0001FAE629722E030E080FD02C030E020E004
:1025B0006296AEADBFAD62972A2B3B2B85E1849D21
:1025C000D001859DB00D112461E070E06C0F7D1F7E
:1025D000A60FB71F1D968C9183FF88C284E090E000
:1025E000282B392B85E1849DD001859DB00D1124C8
:1025F00081E090E08C0F9D1FA80FB91F1D968C9154
:1026000082FF77C288E090E0822B932B25E1249D06
:10261000D001259DB00D112421E030E02C0F3D1F8D
:10262000A20FB31F1E962C9124FF66C220E230E059
:10263000822B932B25E1249DD001259DB00D1124E3
:1026400061E070E06C0F7D1FA60FB71F53963C91A1
:1026500060E470E0333310F470E060E0862B972B79
:1026600025E1249DD001259DB00D112461E070E08D
:102670006C0F7D1FA60FB71F54962C9160E870E079
:10268000233310F470E060E0862B972B55E1549DC6
:10269000D001559DB00D112461E070E06C0F7D1FDD
:1026A000A60FB71F1D965C9160E072E054FD02C05A
:1026B00070E060E05FE0549DD001559DB00D1124A5
:1026C000A60DB71D862B972B52969C938E935197F0
:1026D000D30117968C91882331F090917707992335
:1026E00091F1813081F5B1E0B6A7303208F430E0E5
:1026F000203208F420E085E1849DF001859DF00DF5
:10270000112461E070E06C0F7D1FE60FF71F8685D6
:1027100086FD3FEF85E1849DF001859DF00D11243C
:1027200081E090E08C0F9D1FE80FF91F868585FDE5
:102730002FEF8FE0849DF001859DF00D1124E60DB3
:10274000F71D358F268F6496AEADBFAD6497CC90E4
:102750006696EEADFFAD669780814C1508F0CFC14F
:1027600095E1949DF001959DF00D112421E030E05C
:102770002C0F3D1FE20FF31FC78695E1949DF001DA
:10278000959DF00D1124A1E0B0E0AC0FBD1FEA0F44
:10279000FB1F90899C1508F0C3C1C08A95E1949DE8
:1027A000F001959DF00D112421E030E02C0F3D1F2C
:1027B000E20FF31F91899C1508F0B7C1C18A95E11A
:1027C000949DF001959DF00D112461E070E06C0F77
:1027D0007D1FE60FF71F92899C1508F0ABC1C28AD6
:1027E000882E912CB12CA12CD12CF12CE12C85E13F
:1027F000849DF001859DF00D112481E090E08C0F07
:102800009D1FE80FF91F97852E969FAF2E97C50144
:10281000B4016C197D098E099F092D966CAF7DAFAF
:102820008EAF9FAF2D972E967FAD2E97272F30E03E
:1028300050E040E02C193D094E095F09AFEFB0E0D0
:102840000E9415332D962CAD3DAD4EAD5FAD2D974D
:102850000E94F632822F2757233108F480E8282F70
:1028600030E08FE0849DF001859DF00D1124E60D90
:10287000F71D922F8827820F931F968B858B85E1FA
:10288000849DF001859DF00D112481E090E08C0F76
:102890009D1FE80FF91F90892F969FAF2F97C701B3
:1028A000B601681979098A099B0927966CAF7DAF33
:1028B0008EAF9FAF27972F967FAD2F97272F30E0B2
:1028C00050E040E0281939094A095B09AFEFB0E050
:1028D0000E94153327962CAD3DAD4EAD5FAD2797C9
:1028E0000E94F632822F2757233108F480E8282FE0
:1028F00030E08FE0849DF001859DF00D1124E60D00
:10290000F71D922F8827820F931F908F878B85E169
:10291000849DF001859DF00D112481E090E08C0FE5
:102920009D1FE80FF91F918960969FAF6097292F2F
:1029300030E050E040E02C193D094E095F09AFEF4F
:10294000B0E00E9415332D962CAD3DAD4EAD5FAD80
:102950002D970E94F632822F2757233108F480E802
:10296000282F30E08FE0849DF001859DF00D11242B
:10297000E60DF71D922F8827820F931F928F818F6C
:1029800085E1849DF001859DF00D1124A1E0B0E06A
:10299000AC0FBD1FEA0FFB1FD2882D2D30E050E099
:1029A00040E0281939094A095B09AFEFB0E00E94FD
:1029B000153327962CAD3DAD4EAD5FAD27970E94E8
:1029C000F632822F2757233108F480E890E02FE079
:1029D000249DF001259DF00D1124E60DF71D382FE3
:1029E0002227820F931F948F838F1301BAE92B0E36
:1029F000311C29968EAD9FAD2997BC0190E080E0F7
:102A00002D966CAF7DAF8EAF9FAF2D97D201AA0FE1
:102A1000BB1F2596BFAFAEAF2597FD01EE53FB4F11
:102A2000B080F101E080F180028113812D968CADA0
:102A30009DADAEADBFAD2D978E219F21A023B123BB
:102A4000CC24C394892B8A2B8B2B09F4C12C1F9285
:102A5000D10117968C9017971696AC9016971496EE
:102A60002C91149715964C916B2D23968FAD23972F
:102A70000E94FC0DB8E02B0E311C0F906896EEAD55
:102A8000FFAD6897E215F30561F62596EEADFFAD53
:102A90002597E756F94F29962EAD3FAD29973183FB
:102AA0002083F201E956F94F2E963FAD2E973083E1
:102AB000F201EB56F94F2F966FAD2F976083F2011D
:102AC000ED56F94F60967FAD60977083F201EF5637
:102AD000F94FD08223968FAD23978F5F23968FAFC8
:102AE00023979ACC90E02ACD90E03ACD90E080E018
:102AF00077CD90E080E088CD30E020E099CD84175C
:102B000008F03BCE95E1949DF001959DF00D1124C8
:102B100061E070E06C0F7D1FE60FF71F87872DCEF9
:102B2000891708F03BCE808B39CE891708F047CE45
:102B3000818B45CE891708F053CE828B51CE2196DA
:102B40008FAD2197811103C022968FAD2297C95A6C
:102B5000DF4F0FB6F894DEBF0FBECDBFDF91CF9130
:102B60001F910F91FF90EF90DF90CF90BF90AF90AB
:102B70009F908F907F906F905F904F903F902F909D
:102B800008952996AEADBFAD29972A173B0709F4E2
:102B9000A1CF9ACC2F923F924F925F926F927F92E9
:102BA0008F929F92AF92BF92CF92DF92EF92FF925D
:102BB0000F931F93CF93DF93CDB7DEB766970FB612
:102BC000F894DEBF0FBECDBF3C0186E0FE0131961A
:102BD000DF011D928A95E9F780914801882381F0F1
:102BE0001092480180919501833050F045E064E2F5
:102BF00088E897E00E943F0C8AE693E00E94840DEB
:102C0000F301EC55FF4FD301D5969C91D597907F5A
:102C1000D7968C9182958F70892B80837097FA8BD1
:102C2000E98BCF010E94CE08F301E555FF4F80816B
:102C30008583818192819783868383819481918723
:102C400080873697D48014828E9A8BE290E0019729
:102C5000F1F78E9883E190E00197F1F7408950E019
:102C6000526770E060E090E080E003E110E057FF21
:102C700076C02A9A440F551F2FB1022E000C330B39
:102C80002227330F221F3327062E02C0220F331FA5
:102C90000A94E2F7822B932B8D98D8011197F1F7C4
:102CA0008D9AD8011197F1F76F5F7F4F60317105F1
:102CB000F1F62A98492F42954F7050E14D3009F0B6
:102CC00051E070E060E030E020E003E110E0AFB1FF
:102CD0000A2E000CBB0BAA27BB0FAA1FBB27062E70
:102CE00002C0AA0FBB1F0A94E2F72A2B3B2B8D9838
:102CF000D8011197F1F78D9AD8011197F1F76F5F0D
:102D00007F4F651720F38C01009510952095309525
:102D10004F3029F42E3FBFEF3B0709F447C08481B1
:102D200091E0980F948361E070E0811102C070E03F
:102D300060E0411116C0812F99278F7099270F9756
:102D400081F44AE0469FC001479F900D11248E0FE9
:102D50009F1F4FE0DC0116964C93169716C02A98D9
:102D600089CF942F909592FF8AC08AE0869FA00118
:102D7000879F500D11244E0F5F1F84E0DA011696D5
:102D80008C9316979370292F30E01A963C932E93CC
:102D900019972AE0269FC001279F900D11248E0FBE
:102DA0009F1FDC0118961C930E931797B481BE8762
:102DB000BD15F0F48B2F4AE09FEF21E030E0811148
:102DC00002C030E020E0429FD001439FB00D1124AB
:102DD000AE0FBF1F16969C93169718961C921E92C4
:102DE00017971A961C921E9219978F5FD812E5CFEB
:102DF000F301E856FF4F9080EE85E90DED87798667
:102E00006886788A6F86B12CF12C93012B553F4F41
:102E10003C8B2B8BC3018A549F4F9E8B8D8B1091C3
:102E200095019D85B91609F452C2B11609F44FC235
:102E3000DD24D394B91408F4D12C21E030E0B91486
:102E400048F5B11002C030E020E04AE0429FC001E6
:102E5000439F900D1124069629883A88280E391E22
:102E6000123061F5992039F1C1010E94F40AE1E0C4
:102E7000F0E0EC0FFD1FED0DF11D80831FC05AE047
:102E8000569FC001579F900D11248E0F9F1F5FE02A
:102E9000452760CFB91002C030E020E04AE0429FF1
:102EA000C001439F900D112406962B883C88280E64
:102EB000391E123019F4AE85A111D6CFF1019081DF
:102EC000858198130FC021813281868197812817CF
:102ED000390741F42381348180859185281739078A
:102EE00009F477C0AF85B889D2961C92F101808130
:102EF000958189130CC0811118C08381948101963A
:102F0000A1F4D10118968D919C91019671F06B2DD1
:102F1000C3010E948B10123041F4C1010E94F40AD7
:102F2000482F6D2DC3010E94930FC1010E94F40A26
:102F30008A87F10121813281C90154E096958795F4
:102F40005A95E1F7982F917082E025FF80E0892B58
:102F500094E026FF90E0892B98E027FF90E0892BF2
:102F6000A885B98550968C93F10121813281FA852B
:102F7000A90141705527F230C1F582E090E021FDB2
:102F800002C090E080E0842B952BA885B9855296ED
:102F90009C938E935197D10111962C9180E091E0F2
:102FA00022FD02C090E080E023FFF4C020E032E088
:102FB000E885F98541895289842B952B822B932BA7
:102FC000928B818B80919501823009F4E6C0FF24B9
:102FD000F394B394888599850F9699878887AF85F0
:102FE000B8891196B88BAF871ACF82E090E030FD98
:102FF00002C090E080E0842B952B44E050E021FD5E
:1030000002C050E040E0842B952B48E050E031FDB9
:1030100002C050E040E0842B952B40E150E032FDAF
:1030200002C050E040E0842B952B33FF8EC020E29D
:1030300030E0822B932BE885F985928B818BFA8582
:10304000F43009F088C0D10113964D915C9160E491
:1030500070E052FD02C070E060E020E830E055FD15
:1030600002C030E020E0862B972BE0E0F4E053FD37
:1030700002C0F0E0E0E0282B392B60E078E054FD5E
:1030800002C070E060E02E2B3F2B80E090E157FD06
:1030900002C090E080E0262B372B282B392BE885C7
:1030A000F985328B218BD10113962D913C91A90189
:1030B0004170552782E090E021FD02C090E080E061
:1030C000842B952B44E050E022FD02C050E040E00C
:1030D000842B952B48E050E023FD02C050E040E0F7
:1030E000842B952B40E150E024FD02C050E040E0ED
:1030F000842B952B40E250E025FD02C050E040E0DB
:10310000842B952B40E450E026FD02C050E040E0C7
:10311000842B952B40E850E027FD02C050E040E0B2
:10312000842B952B40E051E030FD02C050E040E0A0
:10313000842B952B31FF0CC020E032E0822B932BA7
:10314000E885F985948B838B26CF30E020E071CF22
:1031500030E020E0F3CFFA85F53009F01CCFD10143
:1031600013962D913C91A9014170552720FF02C073
:1031700040E450E021FF0BC020E830E0842B952B89
:10318000822B932BE885F985928B818B04CF30E0DD
:1031900020E0F4CF30E020E00BCFAD89BE898C91E8
:1031A0002301882309F455C0B9EC4B1ABEEF5B0A22
:1031B0001F82ED2DF0E0EE0FFF1FEE53FB4F20813D
:1031C0002B87D201ED90FD900D911C9113971496D1
:1031D0002C91149715964C9115971696AC901697BE
:1031E00017968C90BF81BC3010F5EA85E23091F4DF
:1031F000B83080F01F92C12C6B858D2D0E94FC0D84
:103200000F90FF81FF5FFF8328E0420E511CFE30CC
:10321000C1F6DDCED10111968D919C918E219F2119
:10322000CC24C394892B09F4C12C1F92E5CFBA8515
:10323000B530D1F7F10163817481D801C7013CE059
:10324000B695A795979587953A95D1F786239723B5
:10325000E7CF37EB430E511C1F828D2D90E0880F76
:10326000991FDC01AE53BB4FBC87AB87BA85B23028
:1032700061F5EF81E83000F5E43038F5F201E05A0D
:10328000FF4FE080F18002811381D10111968D9171
:103290009C918E219F21CC24C394892B09F4C12CAD
:1032A0001F928780A68024814581EB85FC85608103
:1032B0008D2D0E94FC0D0F90FF81FF5FFF8328E0A2
:1032C000420E511CFC3091F682CEF201DACF098118
:1032D000123059F480914201801739F0011105C074
:1032E00040E060E0C3010E94930F009342011A8105
:1032F00080919501823059F480914301811739F012
:10330000111105C040E061E0C3010E94930F1093CA
:10331000430110919006BD85B11760F4DB2E8091BA
:1033200095018D1539F06D2DC3010E948B10D3943A
:10333000D116A8F3ED85E09390068F2D66960FB613
:10334000F894DEBF0FBECDBFDF91CF911F910F91DB
:10335000FF90EF90DF90CF90BF90AF909F908F90B5
:103360007F906F905F904F903F902F900895FC0159
:10337000809146069091470686179707A0F0611541
:10338000710529F49091E8009E779093E80090E011
:103390006115710551F4911108C08091E80082FF18
:1033A00035C080E00895BC01F2CF80916E0788237C
:1033B000C9F18530C9F18091E80083FD31C0809169
:1033C000E80082FDEACF8091E80080FFE1CF209104
:1033D000F3008091F200322F282F6115710519F04A
:1033E0002034310558F091E02034310509F090E0A7
:1033F0002091E8002E772093E800CACF8191809336
:10340000F100615071092F5F3F4FE7CF80916E0748
:10341000882341F0853041F08091E80083FFBDCFE3
:1034200081E0089582E0089583E008952091E4000A
:103430003091E50085E69091EC0090FF06C09091F8
:10344000E80090FF06C080E008959091E80092FDAA
:10345000FACF90916E07992391F0953091F0909169
:10346000EB0095FD10C04091E4005091E500241759
:10347000350709F381509A01F1F684E0089582E05E
:10348000089583E0089581E008958091400687FFC4
:1034900013C08091E80082FF06C08091E8008B771E
:1034A0008093E80004C080916E078111F2CF0895E7
:1034B00080916E078823D9F38091E80080FFF8CFD0
:1034C0008091E8008E77ECCF982F973028F08F709E
:1034D0008093E90081E008959093E900242F762FEE
:1034E00050E0981731F07091EC002091ED00509170
:1034F000F00021FD02C09F5FE8CF3091EB003E7FDE
:103500003093EB003091ED003D7F3093ED00309132
:10351000EB0031603093EB007093EC002093ED00F2
:103520005093F0002091EE0027FDE5CF80E0089554
:1035300042E050E060EF74E088E897E00C94850486
:10354000CF93DF930E94840DEC010E94981A8C0F98
:103550009D1FDF91CF9108950E947C34EF92FF92DE
:103560000F931F93CF93DF9300D0CDB7DEB7809139
:103570006E07882309F4DBC08091E9008F70909179
:10358000EC0090FF4FC090E8F92EF82A1092E90065
:103590008091E80083FFC7C0E0E4F6E08091F1008D
:1035A000819326E0E834F207C9F7E090410681E014
:1035B000E8121DC080914006813AC9F48091E8006C
:1035C000877F8093E80080914206909143068115A1
:1035D000934051F568E070E080E091E00E94B719F7
:1035E000E09278078091E8008B778093E8008091E3
:1035F000E80083FF8AC080914006909141069A308E
:1036000008F083C0E92FF0E0E85FF44E0C945133EA
:10361000581B7E1B851B7E1B851BDF1B011C851B0E
:10362000341E411E90E0B0CFE0916D07E730D0F638
:10363000F0E0E35EF44E0C945133241B2B1B301B43
:10364000351B3A1B3F1B531B64E170E080E495E09F
:103650000E94B719C7CF60E470E08DE295E0F8CF23
:1036600060E470E085E295E0F3CF60E470E08DE126
:1036700095E0EECF60E470E086E195E0E9CF81E08F
:103680008093120582E080930F058091440690910B
:10369000450660E470E0892B19F482E195E0D8CF0B
:1036A0008FE095E0D5CF60E470E08AE095E0D0CF80
:1036B000803889F0823849F5809144068F708730D0
:1036C00020F58093E9008091EB0085FB882780F945
:1036D0001092E90004C08091E00681110DC0909124
:1036E000E800977F9093E8008093F1001092F1003A
:1036F0008091E8008E7732C082E0F1CF282F2D7FB5
:1037000021F48823E9F0823071F18091E80083FF91
:103710000AC08091E800877F8093E8008091EB00E9
:1037200080628093EB008F2D8F708093E9000F9063
:103730000F90DF91CF911F910F91FF90EF9008951F
:1037400080914206813009F7933009F080E0809340
:10375000E0061092E9008091E800877F8093E800FE
:103760000E94451AD2CF809142068111F2CF8091FA
:1037700044068F702FEF280F263038F68093E9002B
:103780002091EB0020FFE5CF933031F48091EB00E6
:1037900080628093EB00DDCF9091EB00906190937D
:1037A000EB0021E030E001C0220F8A95EAF7209378
:1037B000EA001092EA008091EB008860EACF811164
:1037C000A4CF109142061F778091E3008078812B6F
:1037D0008093E3008091E800877F8093E8000E9457
:1037E000451A8091E80080FFFCCF8091E30080685B
:1037F0008093E30083E0111101C082E080936E07A3
:1038000084CF8058823008F080CF209142063091DA
:1038100043061A821982832F99278330910509F470
:103820001CC1D0F481309105A9F1029709F45DC063
:1038300069817A816115710509F467CF8091E8008B
:10384000877F8093E800C8010E94B7198091E80043
:103850008B778093E80059CF8132910509F49FC19D
:10386000829731F780916D07843009F4E7C108F041
:10387000BBC1813009F4C8C1833009F4D4C146E426
:1038800050E06AE671E08AEA95E00E94D73286E469
:1038900090E0C4C180916D07882399F0813001F1D7
:1038A0000091E6061091E70642E150E065EC70E019
:1038B00084E595E00E94D73200936005109361057E
:1038C00008C042E150E069EE70E084E595E00E94B6
:1038D000D73282E190E09A83898304E515E0A8CF8E
:1038E00042E150E067ED70E0F0CF0091E506109105
:1038F0006D07113009F456C008F44DC0153009F4B5
:1039000096C01350143008F0A1C0E12FF0E0EE5C37
:10391000FB4F108149E050E064E171E086E695E0FC
:103920000E94D73299E1099F902D1124975F9093BF
:10393000680500936A05002309F48AC049E150E054
:103940006BEF70E08FE695E00E94D7321092710520
:1039500010937F0581E880938305023008F478C0D6
:1039600049E150E06BEF70E088E895E00E94D732C3
:1039700081E080938A051093980582E880939C05E6
:10398000023009F465C049E150E06BEF70E081EA74
:1039900095E00E94D73281E390E09A83898301E029
:1039A00014E046CF49E050E068E571E086E695E036
:1039B0000E94D73299E1099F902D1124975F90932F
:1039C000680500936A05002361F149E150E06FE367
:1039D00071E08FE695E00E94D732109271054CE6B7
:1039E000E42EE0927F0581E8809383050230C8F0E1
:1039F00049E150E06FE371E088E895E00E94D7323A
:103A000010938A05E092980582E880939C05023025
:103A100041F049E150E06FE371E081EA95E00E94F6
:103A2000D732B9E10B9FC001112409960AC042E2C6
:103A300050E06DE171E086E695E00E94D73282E2C7
:103A400090E09A83898306E615E0F2CE16E462CF11
:103A5000E9E10E9FC0011124E8CFC9019927823006
:103A6000910549F18330910509F441C081309105F8
:103A700009F04AC080916D07813089F444E351E038
:103A8000DA010D900020E9F7AD014553514064E3A0
:103A900071E0CE0101960E946A288C01C9CE47E2EE
:103AA00051E0FA0101900020E9F7AF01485251407E
:103AB00067E271E0EECF80916D07813061F445E1FE
:103AC00051E0DA010D900020E9F7AD014651514077
:103AD00065E171E0DECF48E051E0FA01019000209D
:103AE000E9F7AF014950514068E071E0D2CF6091F1
:103AF000E3067091E406FB0101900020E9F731979D
:103B0000AF01461B570BC5CF6FEF73E0E1E02223F7
:103B100031F1253039F526E434E0E0E0FCE0FE0F39
:103B2000D9011D919D018E2F90E0019670E060E01B
:103B3000412F42954F7050E04D505B4FDA014C9150
:103B4000DC014C93EE5F90E0A12FAF70B0E0AD5080
:103B5000BB4F4C91DC0111964C93EF13E1CF4E2FEC
:103B600050E097CF20916D07880F991F222329F0ED
:103B7000213049F08A5C9B4F02C0845B9B4FFC0163
:103B80006081718105C0825C9B4FDC016D917C91ED
:103B9000FB0101900020E9F73197E61BE0CF10917F
:103BA0006D0749E050E061E671E081EA95E00E942E
:103BB000D7328BE5143079F040F48CE6113059F0AF
:103BC00089E5133041F086E406C081E5153019F02F
:103BD00087E31630C1F78093A80589E090E09A83C7
:103BE000898301EA15E024CE853099F1863009F009
:103BF00046CE47E350E060EB71E08AEA95E00E9430
:103C0000D73287E390E00AC04CE650E06CEE72E0F9
:103C10008AEA95E00E94D7328CE690E09A83898305
:103C20000AEA15E005CE49E550E063E972E08AEA68
:103C300095E00E94D73289E590E0F0CF4BE550E067
:103C400068E372E08AEA95E00E94D7328BE590E063
:103C5000E5CF41E550E067EE71E08AEA95E00E9429
:103C6000D73281E590E0DACF803809F04ECD8091EF
:103C7000E800877F8093E8008091E1068093F1005F
:103C800037CD811142CD10914206123008F03DCD62
:103C90008091E800877F8093E8001093E1060E94FE
:103CA000451A1123F9F084E080936E0700916D07A7
:103CB0000023F1F042E360EC82E00E94641A11E01C
:103CC0008091E506811708F420CD812F8F70873011
:103CD00020F442E361EC0E94641A053009F415CD2A
:103CE0001F5FEECF8091E30087FDDDCF81E0DCCF69
:103CF00042E261EC81E00E94641A46E260EC82E0FC
:103D00000E94641A02CD0F931F93CF93DF938C010F
:103D1000EB018091E80085FD10C08091E8008B7771
:103D20008093E8000E94AE1A0E94161A882389F335
:103D3000DF91CF911F910F9108958091F100F801CB
:103D400081938F01219729F780E0F2CF1F920F9284
:103D50000FB60F9211242F933F938F939F93AF939E
:103D6000BF938091800790918107A0918207B091C5
:103D7000830730917F0723E0230F2D3758F50196F5
:103D8000A11DB11D20937F07809380079093810729
:103D9000A0938207B0938307809184079091850751
:103DA000A0918607B09187070196A11DB11D809350
:103DB000840790938507A0938607B0938707BF91E8
:103DC000AF919F918F913F912F910F900FBE0F90C8
:103DD0001F90189526E8230F0296A11DB11DD2CF82
:103DE00071E02D98259A24982C9A0000000000007C
:103DF0000E94B12725982D9A0E94B127A89400000F
:103E0000000000001D9B0E949927F2F088941C99E5
:103E10000894771F30F72D98259A803021F0249848
:103E20002C9A0C94151F2C98249A00000000000076
:103E30000E94B12725982D9AA894000000001D9B90
:103E40000E9499270E94B127000000002D98259A12
:103E5000872F9927089580E208950894881F0C946D
:103E6000321F880F11F12D98259A000000000000E4
:103E700028F4000024982C9A0C94421F2C98249A21
:103E80000C94421F0E94B12725982D9AA8940000F7
:103E9000000000001D9B0E9499271AF488270C94AB
:103EA0006B1F0E94B1270C94311F2D98259A00009A
:103EB000000024982C9A0E94B127992788272598DA
:103EC0002D9AA89400001D9B0E9499273AF31C9BF1
:103ED00081E00E94B127000000002D98259A0895E6
:103EE00081E00895CF93DF93EC01862F0E942D1F70
:103EF000811108C08FA5811102C083E08FA790E0D7
:103F000080E002C081E090E0DF91CF9108952D988C
:103F1000259A2C98249A0E94B12725982D9A0E94C0
:103F2000B1271D9B0E94992724982C9A0E94B127A3
:103F300008958F93F1E0E4EF8F918F931D9B0E9482
:103F400099272C98249A0E94B1270E942D1F88231C
:103F500031F40E94871F319711F00C949C1F992710
:103F60000F90089581E008952D98259A0E94B12719
:103F700024982C9A0E94B12725982D9A0E94B12747
:103F80001D9B0E9499272C98249A0E94B1270E9479
:103F90002D1F089581E008951D9B0E9499272C985C
:103FA000249A0E94B1270E942D1F089581E0089550
:103FB0001F93CF93DF93EC011EA584EA112371F0C8
:103FC0000E94B41F811108C082E08FA781E08EA7F4
:103FD000DF91CF911F91089580E0F7CF0E94CC1F11
:103FE000811101C012E01FA7F1CFFF920F931F9321
:103FF000CF93DF93EC01F62E042F122F0E94D81FCF
:10400000E881F9810190F081E02D6F2DCE010995B5
:10401000E881F9810190F081E02D602FCE010995B2
:104020000FA50E94871F1EA61FA680E0011107C0D2
:10403000112321F087EB92E00197F1F781E0DF9106
:10404000CF911F910F91FF900895AF92BF92CF92A1
:10405000DF92EF92FF921F93CF93DF93EC011FA6A5
:10406000162F613208F010E28EA5882331F185EA1F
:104070000E94B41F91E089279FA5911104C0882355
:1040800011F082E08FA76E018CE0C80ED11CF12CDC
:10409000E12CE12FE150FF0B5F01E11690F481E08C
:1040A000AE14BF0409F080E00E94F01EF601819377
:1040B0006F01FFEFEF1AFF0AF0CF85EA0E94CC1FD5
:1040C000D9CF1CA68FA5811110E01DA71EA60E94A6
:1040D000871F8DA5DF91CF911F91FF90EF90DF900B
:1040E000CF90BF90AF900895EF92FF920F931F93E0
:1040F000CF93DF93EC01162F7A010E94D81FE8813D
:10410000F9810190F081E02D60E0CE0109950FA5C5
:104110000E94871F1EA61FA6011110C087EB92E008
:104120000197F1F7612FCE010E942520482F50E022
:10413000B701CE010E94350491E0181390E0892F59
:10414000DF91CF911F910F91FF90EF900895AF9263
:10415000BF92CF92DF92EF92FF920F931F93CF9374
:10416000DF93CDB7DEB760970FB6F894DEBF0FBE12
:10417000CDBF8C0197EBE92E92E0F92EC701019794
:10418000F1F7D8011296ED91FC9121E043E06EEF3A
:10419000808191810E94F51FFE0131966F0181118E
:1041A00011C0D8011296ED91FC91A60166E070E075
:1041B000808191810E947420882309F443C0C70143
:1041C0000197F1F788E05E01B9E0AB0EB11CF50193
:1041D000282F11922A95E9F7D6011D928A95E9F7C1
:1041E00087EBE82E82E0F82ED8011296ED91FC9133
:1041F000A50168E070E0808191810E94742088238D
:1042000009F443C0C7010197F1F7D8011296ED9167
:10421000FC91A60168E070E0808191810E94742089
:10422000882399F12985998129131DC02A859A81AE
:10423000291319C09F8591111AC09889911117C02F
:10424000F801148260960FB6F894DEBF0FBECDBFA2
:10425000DF91CF911F910F91FF90EF90DF90CF9062
:10426000BF90AF900895C7010197F1F7BDCF91E0DE
:10427000D80114969C9314971296ED91FC9193811A
:10428000983000F798E09383DDCF80E0DBCF2F926A
:104290003F924F925F926F927F928F929F92AF92D6
:1042A000BF92CF92DF92EF92FF920F931F93CF9323
:1042B000DF93CDB7DEB72E970FB6F894DEBF0FBEF3
:1042C000CDBF8C0180914E01882331F010924E01B8
:1042D00060E0C8010E94600EB090AB06380124E98E
:1042E000620E711CD301ED90FC90B1101CC1D7017E
:1042F0001296ED91FC91C080D18020E045E560EF01
:10430000C6010E94F51F882309F4A9C06AE070E085
:1043100080E090E00E94F70320E040E06BEFC601F0
:104320000E94F51F882309F49AC064E170E080E0E0
:1043300090E00E94F703F70182809380D401CD9032
:10434000DC90C6010E94D81FD601ED91FC9101902E
:10435000F081E02D6AEFC6010995F601A7A40E943D
:10436000871FD6019E961C929E979F961C92AA200C
:1043700031F180E0F4018283C7010E94D104D82E7C
:104380008823D1F0D7011296ED91FC91349685E106
:10439000DF011D928A95E9F7D7011296ED91FC9104
:1043A000139786E08383ED91FC910190F081E02DDD
:1043B000C7010995811159C080E593EC8EC087EB48
:1043C00092E00197F1F766E0C6010E942520482F90
:1043D00050E0BE016F5F7F4FC6010E9435048630FA
:1043E00041F68B81843A49F58C81803231F58D819B
:1043F000811103C09E81992381F199812A81923094
:1044000048F421111CC0843008F52E81213021F49C
:1044100084E0B0CF211113C08130C1F48E8183308C
:1044200081F485E0992309F4A5CF86E0913009F461
:10443000A1CF87E0933009F49DCF82E09BCF8130FC
:1044400029F48E818231C9F788E094CF8111F5CFAC
:104450008E81833191F789E08DCF83E08BCFD701B7
:104460001296ED91FC911282A7CFF701E58CF68CA4
:10447000E114F10409F453C0D7018D909C90C4015C
:104480000E94D104882309F446C0D401ED91FC9127
:104490000190F081E02DC4010995D82E8823D9F12F
:1044A00081E08093AB06F801E656FF4F80831092BF
:1044B000AA0680919501882321F060E0C8010E943E
:1044C0008B10D301ED91FC910280F381E02D62818C
:1044D000C8010E94600E88EC90E090939701809351
:1044E00096018B2D2E960FB6F894DEBF0FBECDBF72
:1044F000DF91CF911F910F91FF90EF90DF90CF90C0
:10450000BF90AF909F908F907F906F905F904F90F3
:104510003F902F900895F701E480F580A9CFDD202A
:1045200009F44ACFBDCFC7010E94D104882309F402
:10453000BDC1D7011296ED91FC91AF014C5F5F4F69
:10454000638170E0808191810E947420B82E88235D
:1045500009F4ACC1F70182819381DC0113964C917F
:104560000496FC012FEF30E050E0BF01681B790B8F
:104570006417750724F46191362B2623F6CF332375
:1045800009F494C12F3F09F491C1D301ED91FC913D
:104590000280F381E02D22808DEF820D823008F4BD
:1045A000A2C1BFEFB987EFEFE887C12C512CD12C06
:1045B000A12C1F82712C612C8091A8069091A906D4
:1045C0008615970541F4BB24B3948091A306FF811F
:1045D0008F1301C0B12C80914D018A1117C08091B9
:1045E0004C018D1113C080914B0185110FC080913A
:1045F0004A018C110BC08091A2062885821306C047
:104600008091A1063985831709F4E0C38091A7063C
:104610004A2D481B550B9A01473E510514F026EED2
:1046200030E08091A6066D2D681B770B7B0177EE3D
:10463000E716F1041CF0E6EEEE2EF12C8091A506B3
:10464000A52DA81BBB0B4D01B7EE8B1691041CF0DA
:1046500076EE872E912C8091A406C81ADD08E7EE2D
:10466000CE16D1041CF066EEC62ED12C29313105B0
:1046700014F429E130E0032E000C440B550B2951B2
:10468000310941095109AFEFB0E00E9415332DEC1B
:1046900030E040E050E00E94F6322A87970129314D
:1046A000310514F429E130E0032E000C440B550BC6
:1046B0002951310941095109AFEFB0E00E9415338A
:1046C0002DEC30E040E050E00E94F6322C8794015F
:1046D0002931310514F429E130E0032E000C440B9C
:1046E000550B2951310941095109AFEFB0E00E9442
:1046F00015332DEC30E040E050E00E94F632922E6F
:1047000096012931310514F429E130E0032E000C23
:10471000440B550B2951310941095109AFEFB0E064
:104720000E9415332DEC30E040E050E00E94F6325C
:10473000D22E8A858757833108F431C38A8590E069
:10474000382F2227820F931FD80156969C938E9361
:1047500055978C85809599E8980F933108F480E8F7
:1047600090E0382F2227820F931FF801908F878BBC
:1047700089E8890D833108F414C3892D90E0382F1E
:104780002227820F931FD8015A969C938E93599794
:104790008D2D809599E8980F933108F480E890E08A
:1047A000382F2227820F931FF801948F838F8091D7
:1047B000AA068823D9F0F885FE3008F418862985E2
:1047C0002E3008F41986F801EA56FF4FE080F18098
:1047D000C7010E947205882311F03FEF3887C70197
:1047E0000E945F05882311F04FEF4987E885D801C3
:1047F0005D96EC935D97F9855E96FC938CEF820D48
:10480000823008F0D0C22FE02B8728014BE9440EFC
:10481000511C312C212C7F81672F70E07E876D87A2
:10482000D201ED90FD900D911C91139714962C914F
:10483000149715964C9115971696AC901697179657
:104840008C90BAE0B21508F4B1C2C301022C02C0C8
:10485000969587950A94E2F7E82FE170CE2E1F9285
:1048600060E080E00E94FC0D0F908FEF281A380A5C
:1048700098E0490E511CAB852A1690F27092A90659
:104880006092A806BF81B093A306EA85E0934D012C
:10489000FC85F0934C0190924B01D0924A012885FF
:1048A0002093A20639853093A1061BCE1092AB0649
:1048B000D8019E961C9280E593EC9093970180938B
:1048C000960180919501882321F060E0C8010E9443
:1048D0008B101092A9061092A80660E0C8010E94F1
:1048E000600EB12CFECDB4E0F8012B122CC2EA56BA
:1048F000FF4FE080F180F701348082809380311097
:1049000091C1D40119968C918095817091E089278D
:104910008F83C7010E94F305811103C0FF81F260FC
:10492000FF83C7010E94E005811103C02F8124602D
:104930002F8331107AC1D40118968C9190E0880FA2
:10494000892F881F990BB1E08B27817019F42F8173
:1049500028602F83C7010E948805682E712CC7012B
:104960000E94B405882311F0689461F8C7010E9481
:10497000CA05882311F0689462F8C7010E949E0559
:10498000882311F0689463F8C7010E947205882398
:1049900011F0689464F8C7010E945F05882311F044
:1049A000689465F8C7010E944305882311F0689454
:1049B00066F8C7010E942E05882311F0689467F8F5
:1049C000C7010E940305882311F0689470F8C7019D
:1049D0000E941905882311F0689471F8C7010E949C
:1049E000ED04882311F0689472F8D4011496AC9009
:1049F00014971696DC90169715965C901597179657
:104A0000CC90179731101BC1852D8F739A2D907CF8
:104A1000969596959695B52DB07C5B2E52945694AE
:104A200037E05322592A2D2D207830E0220F232FF2
:104A3000221F330B522A550C550C550C9D2D9F717E
:104A40002D2D207626952695DC2CD294D69457E0F1
:104A5000D522D22ADD0CDD0CDD0CD886CC0CCC0C9A
:104A6000CC0CC986AA0CAA0CD82EDD0CDD0CC92EE4
:104A7000CC0CCC0CCC0CF801E656FF4F808188237F
:104A800069F11082EEE781E88A0DEA1510F08FE7F0
:104A90008A198093A706FEE781E88D0DFD1510F0B9
:104AA0008FE78D198093A6062EE781E8850D2515E1
:104AB00010F08FE785198093A5063EE781E88C0DFD
:104AC0003C1510F08FE78C198093A4064885442389
:104AD00019F059855111BAC01092AA063110CAC0F6
:104AE000D40119964C904094B42DB1704B2EC7014F
:104AF0000E94F305882309F4C4C082E0482AC70154
:104B00000E94E005882309F4BEC084E0482A3110E1
:104B1000BCC0D40118968C9190E0880F892F881F13
:104B2000990BB1E08B27817009F4B9C088E0482A5D
:104B3000D80150964C92C7010E94B405882E912C42
:104B4000C7010E94CA05882309F4ABC082E090E047
:104B5000882A992AC7010E948805882309F4A4C0DD
:104B600084E090E0882A992AC7010E949E05882344
:104B700009F49DC088E090E0882A992AC7010E9424
:104B80000305882309F496C080E091E0882A992AD9
:104B9000C7010E941905882309F48FC080E092E0C4
:104BA000882A992AC7010E94ED04882309F488C045
:104BB00080E090E1882A992AF801928A818A80917E
:104BC000AA06882309F48BC0C7010E9443058823E5
:104BD00009F479C080E190E0882A992AC7010E94EF
:104BE0002E05882309F472C080E290E0882A992A71
:104BF000C7010E947205882309F46BC080E490E02D
:104C0000882A992AC7010E945F05882309F464C095
:104C100080E890E0882A992AD80152969C928E9238
:104C20005197CACCF40183856FCEF401828590E060
:104C3000880F892F881F990BF1E08F2786CEF4010A
:104C4000F085F8871996BC91B98715CF81E08093DC
:104C5000AA06D80117968C91882341F09091770786
:104C6000992309F43BCF813009F038CF81E0F80176
:104C700086A734CFF40143844094F42DF1704F2E75
:104C800036CF80E03BCF80E041CFF401828590E0D9
:104C9000880F892F881F990BF1E08F2744CF80E080
:104CA00046CF90E080E054CF90E080E05BCF90E092
:104CB00080E062CF90E080E069CF90E080E070CF4C
:104CC00090E080E077CF90E080E086CF90E080E0D9
:104CD0008DCF90E080E094CF90E080E09BCFC70143
:104CE0000E947205882319F180E190E0882A992AB0
:104CF000C7010E945F058823E9F080E290E0882ADE
:104D0000992AC7010E9443058823B9F080E490E006
:104D1000882A992AC7010E942E05882389F080E8F5
:104D200090E0882A992AF801928A818A45CC90E0FD
:104D300080E0DCCF90E080E0E2CF90E080E0E8CF60
:104D400090E080E0EECFE856FF4F0190F081E02D3B
:104D50000280F381E02D2185822F90E09595879543
:104D600080959095817099273C0120FD15C068942D
:104D700061F822E030E0822B932BD80152969C936D
:104D80008E935197A480D580BFEFB987EFEFE88766
:104D9000C12C512C1F8210CC30E020E0ECCF80E8F9
:104DA000CECC80E8EBCC32E03B872FCDC1010B9716
:104DB0006D857E8502C0759567958A95E2F7CB0172
:104DC00080959095782F7170C72E49CDBB2009F43E
:104DD00088CB1CCC249825982C9A2D9A8827992723
:104DE0001C9B08951D9B089581E0089581E008951E
:104DF000AF92BF92CF92DF92EF92FF920F931F93E9
:104E0000CF93DF938C0165E070E080E090E00E943A
:104E1000F7031092D8061092D9061092DB06109272
:104E2000DA060E94EA268FE190E00E945733EC01F7
:104E30006C0184E0C80ED11C8CEA96E09D838C83C3
:104E40001E8286E08F83DB82CA8288E594E09983A4
:104E50008883F801EC56FF4FD183C0838BE090E04C
:104E60000E945733FC01D382C282148280E694E010
:104E7000918380837F01A5E0EA0EF11C5E01BDE114
:104E8000AB0EB11CF683E583B086A782128611862D
:104E9000FE8EED8ED801AA56BF4FED93FC938AE0AB
:104EA00090E00E945733FC01D382C28288E694E0EE
:104EB00091838083CF010496F583E483B782A68231
:104EC00011861086E114F10439F59E8F8D8FD8017B
:104ED000A856BF4FED93FC93EC81FD8114A615A657
:104EE00017A616A60E94EA2681E0F80180AB82ABE5
:104EF000E656FF4F808362E370E080E090E0DF9150
:104F0000CF911F910F91FF90EF90DF90CF90BF90C6
:104F1000AF900C94F7037901D70114962D913C9131
:104F2000159721153105B9F715969C938E93149713
:104F3000CECFBFE0A0EA00240E94A9273AF40A9449
:104F4000D9F71197C1F728940C94B027A8940C9422
:104F5000B027A8941D990C94AE27289400000895BA
:104F6000089597E19A95F1F7089508951F920F9289
:104F70000FB60F9211242F933F934F935F936F932C
:104F80007F938F939F93AF93BF93EF93FF93809102
:104F9000DA0080FF17C08091D80080FF13C0809195
:104FA000DA008E7F8093DA008091D90080FF86C07E
:104FB00080E189BD82E189BD09B400FEFDCF81E0B9
:104FC00080936E078091E10080FF17C08091E2001E
:104FD00080FF13C08091E2008E7F8093E200809179
:104FE000E20080618093E2008091D800806280932B
:104FF000D80019BC85E080936E078091E10084FFA2
:1050000026C08091E20084FF22C080E189BD82E158
:1050100089BD09B400FEFDCF8091D8008F7D8093BB
:10502000D8008091E1008F7E8093E1008091E200C2
:105030008F7E8093E2008091E20081608093E200A5
:105040008091E1068823F1F184E080936E078091DE
:10505000E10083FF22C08091E20083FF1EC08091A7
:10506000E100877F8093E10082E080936E071092D9
:10507000E1068091E1008E7F8093E1008091E20063
:105080008E7F8093E2008091E20080618093E20055
:1050900042E360E080E00E94641AFF91EF91BF91CB
:1050A000AF919F918F917F916F915F914F913F91C0
:1050B0002F910F900FBE0F901F90189519BC109252
:1050C0006E0780CF8091E30087FD02C081E0BDCFF5
:1050D00083E0BBCFCF93DF93DC014032510514F066
:1050E0004FE150E090E0292F30E02417350784F09D
:1050F0004F5F5F4F440F551F4D935C935360509328
:1051000049064093480688E496E0DF91CF910895E0
:10511000F901EE0FFF1FE65BF94F260F371FE9017C
:105120002881022E000C330B318320839F5FDBCF5D
:10513000CF93DF93CDB7DEB729970FB6F894DEBFD4
:105140000FBECDBF789484B5826084BD84B5816084
:1051500084BD85B5826085BD85B5816085BD809142
:105160006E00816080936E001092810080918100BA
:1051700082608093810080918100816080938100B2
:105180008091800081608093800080919100826096
:105190008093910080919100816080939100809133
:1051A00090008160809390008091C1008460809322
:1051B000C1008091C10082608093C1008091C100D4
:1051C00081608093C1008091C30081608093C3009F
:1051D0008091C00082608093C0008091C200816095
:1051E0008093C20080917A00846080937A008091DD
:1051F0007A00826080937A0080917A008160809347
:105200007A0080917A00806880937A0056985E9A3E
:105210001092780790E080E00E94E032843008F03D
:1052200083C08093720780917207823009F47EC038
:10523000833009F4ADC0813009F03FC087EA91E0C6
:105240000E9457338C010E948B0380E994E0D801BF
:105250008D939C93F801EC56FF4F148215828AE0DF
:105260009F012A5F3F4FD901B82E1D92BA94E9F7EA
:10527000108A7196148215822F5E3F4FD9011D92BC
:105280008A95E9F7108A71961082D801A954BF4F08
:1052900080E8ECEBF1E001900D928A95E1F7D801FE
:1052A000A95CBE4F80E7ECE3F2E001900D928A9595
:1052B000E1F710937A0700937907109299078CE32E
:1052C000809398071092B90084E48093BC008CE02E
:1052D0008093B80010928C0710928D07E4E6F6E0F8
:1052E000C590D490E6E6F6E0F490E7E6F6E0E491C7
:1052F000E0938E07E8E6F6E0E491E0938F07E9E6B5
:10530000F6E0E491E093900710E000E00F1508F05C
:1053100052C0F601E00FF11F649188E897E00E9407
:105320000D0C0F5F1F4FF2CF81E07BCF8AEF90E033
:105330000E9457338C010E948B0382EA94E0F801AB
:105340009183808386E190E00E94573325E1DC0160
:1053500055962C93F801EC56FF4F9183808386E19C
:1053600090E00E94573325E0FC01258BF801EA56B6
:10537000FF4F9183808332968EE18083319681EE58
:105380008083D801A656BF4F80E6ECEAF2E08DCFCD
:1053900083E191E00E9457338C010E948B0384EBE0
:1053A00094E0D80111969C938E93A556BF4F88E741
:1053B000ECE0F3E07ACF88E897E00E94ED0D61E839
:1053C00088E897E00E940D0C61E088E897E00E9471
:1053D0000D0CE9E7F4E0F0939407E09393078491D0
:1053E000EAE7F4E0E491F82F319709F0E1C0109278
:1053F000910788E897E00E94ED0D11E01093960761
:105400006EE188E897E00E94210C82E08093960785
:1054100082E794E00E94840D1093960762E088E88A
:1054200097E00E94150C0E94471081E090E00E94D6
:10543000E032873008F080E0A0917907B0917A07D8
:1054400017968C931797ED91FC9111970190F0812D
:10545000E02DCD01099564E170E080E090E00E94CC
:10546000F7038091790790917A07DC01ED91FC9127
:105470000280F381E02D099564E170E080E090E026
:105480000E94F7038091790790917A07DC01ED91F2
:10549000FC910280F381E02D0995A0917907B091EC
:1054A0007A0751968C91519780FF86C081E01796BC
:1054B0008C9317974E99A6C017961C9188E897E091
:1054C0000E94ED0D45E050E064E075E088E897E06B
:1054D0000E9485040E94981A6CED75E080E090E0CF
:1054E0000E94F70388E897E00E94ED0D85E694E0BE
:1054F0000E94A01A87E594E00E94A01A8AE494E032
:105500000E94A01A64EF71E080E090E00E94F7032F
:1055100081E0812C912C540101E0FF24F3944E99F9
:1055200051C0F12C813051F40E9429044B015C01DF
:1055300060E170E080E090E00E94F7030E9429049F
:10554000681979098A099B09693E734081059105AB
:1055500010F40C94B33288E897E00E94ED0D82E4D9
:1055600094E00E94A01A8BE394E00E94840D812FA6
:105570000E949F0D0E94981A0E94981A87E294E058
:105580000E94840D60ED77E080E090E00E94F703D8
:10559000612F81E090E00E94E83288E19EE00FB642
:1055A000F894A895809360000FBE90936000FFCFA1
:1055B00081E0809391071DCF81FF7CCF17961C92CD
:1055C000179778CF81110C94B03260E170E080E0E1
:1055D00090E00E94F70381E0011106C0882379F072
:1055E0001F5F133008F010E007E025E04FE760E0B0
:1055F00088E897E00E94B80D812F0E949F0D00E07F
:105600008F2D8BCFED91FC9111970484F585E02DC2
:10561000CD01099561E088E897E00E94150C60E0F3
:1056200088E897E00E94210CE0917907F0917A07D1
:10563000878181111CC188E50E94B30D8091790793
:1056400090917A0721E032E0FC01348323830190BA
:10565000F081E02D0084F185E02D09958C01809189
:10566000790790917A07DC01ED91FC910284F38532
:10567000E02D099520919501E0917907F0917A0745
:10568000378130936D079093E7068093E606209369
:10569000E5061093E4060093E30684B7877F84BF92
:1056A0000FB6F894A895809160008861809360009F
:1056B000109260000FBE80E830E020E00FB6F89452
:1056C00080936100209361000FBE8091D8008F7E8F
:1056D0008093D8008091D70081608093D70084E0C8
:1056E00082BF81E08093E2068091D8008E7F809314
:1056F000D8001092E2001092DA001092E10080913E
:10570000D8008F778093D8008091D80080688093EC
:10571000D8008091D8008F7D8093D80019BC10925A
:105720006E071092E1061092E0068091E0008B7FF8
:105730008093E0008091D80081608093D80042E39C
:1057400060E080E00E94641A8091E1008E7F809387
:10575000E1008091E20081608093E2008091E200AC
:1057600088608093E2008091E0008E7F8093E0006B
:105770008091D80080618093D80078940E94D203F1
:1057800000917B0710917C0720917D0730917E0767
:10579000AB01BC01401B510B620B730B8091960156
:1057A00090919701B0E0A0E0C12C481759076A0713
:1057B0007B07B0F08091790790917A07DC01ED9139
:1057C000FC910280F381E02D0995C82E0E94D2033E
:1057D00060937B0770937C0780937D0790937E078F
:1057E000D12C80919501D81608F01CC680917907BC
:1057F00090917A07DC01ED91FC910680F781E02D14
:105800006D2D09950091790710917A07ED2CF12CF7
:10581000F8018781843009F487C108F037C08823F4
:1058200009F469C093E1813009F400C298E0833043
:1058300009F0B8C18FE08E9DF0018F9DF00D11240D
:10584000E00FF11FE089EF70E150EA3008F0A9C3E2
:10585000F0E0E35DF34D0C9451335C2FC92FD12F51
:10586000CD2FCF2FCB2FD12FC52FC12FC72F8130B9
:1058700011F483E5E1CE823011F488E4DDCE83506B
:10588000843010F48DE4D8CE85E4D6CE853009F48A
:1058900069C195E0863009F0C9CF8FE08E9DF00197
:1058A0008F9DF00D1124E00FF11F21893289A9018C
:1058B0004170552782E021FF80E0842B22FF67C4DE
:1058C00024E0822B8093E8068FE08E9DF0018F9D6F
:1058D000F00D1124E00FF11F258936893093EA0677
:1058E0002093E9062789308D3093EC062093EB0650
:1058F00028EE36E08EC094E18FE08E9DF0018F9D02
:10590000F00D1124E00FF11F2089822F817032E009
:1059100021FF30E0832B34E022FF30E0832B23FF94
:105920006FC128E0822B2FE02E9DF0012F9DF00DFE
:105930001124E00FF11F2189328940E131FF40E05D
:10594000842B40E230FF40E0842B40E432FF40E013
:10595000842B40E833FF40E0842B80935101A90160
:10596000E4E056954795EA95E1F7417082E025FF1E
:1059700080E0842B44E034FF40E0842B40E120FFB2
:1059800040E0842B40E221FF40E0842B40E422FFF2
:1059900040E0842B40E823FF40E0842B80935201B9
:1059A0008FE08E9DF0018F9DF00D1124E00FF11F0F
:1059B00045895689505850935601409355014FEFF1
:1059C0005FE76789708DDA01A61BB70BB0935801AA
:1059D000A0935701618D728D705870935A01609336
:1059E0005901638D748D461B570B50935C01409396
:1059F0005B01D801AE0DBF1D9E968C91882309F4E2
:105A000001C1858D80935301868D809354012FE4CD
:105A100031E0309371072093700790936F07809166
:105A20006E07843009F074C082E08093E9008091B1
:105A3000E80082FF2AC08091E80085FF21C08091A4
:105A40006D078111C2C40E94161A811108C050E06E
:105A500040E068E070E0CE0101960E94831E8981DB
:105A600081110EC08A81883059F4F701EE0FFF1FB3
:105A7000EE0FFF1FE00FF11F8C8185AB8D8187AB8F
:105A80008091E8008B778093E800870186E0000F23
:105A9000111F8A95E1F70351194F40916F0750E0AC
:105AA0006091700770917107C8010E948134892B41
:105AB00079F180916D07853009F094C481E080937D
:105AC000E9008091E80080FF23C0E0906F07A0907C
:105AD0007007B09071070E94161AF12C882309F400
