:100000000C945C030C9484030C9484030C9484037C
:100010000C9484030C9484030C9484030C94840344
:100020000C9484030C9484030C946E260C94840327
:100030000C9484030C9484030C9484030C94840324
:100040000C9484030C9484030C9484030C94840314
:100050000C9484030C9484030C9484030C94242641
:100060000C9484030C9484030C9484030C948403F4
:100070000C9484030C9484030C9484030C948403E4
:100080000C9484030C9484030C9484030C948403D4
:100090000C9484030C9484030C9484030C948403C4
:1000A0000C9484030C9484030C948403AED580A830
:1000B0003FD300408D142002A1C8DA12817FD9F10C
:1000C000DB40A4A6AF1201000200000040D0167E63
:1000D0001200010102030112010002000000400DA4
:1000E0000F920000010102030112010002FFFFFF55
:1000F000405E048E021401010203010904000001A4
:1001000003000000092111010001224600070581BA
:10011000034000010902220001010080320902228D
:100120000001010080320904000001030000000901
:10013000211101000122510007058103400001093E
:1001400004000001030000000921110100012256F2
:100150000007058103400001090229000101008018
:10016000FA09211101000122460005010905A1013A
:10017000150025013500450175019518050919017E
:100180002918810205012507463B01750495016583
:10019000140939814265009501810126FF0046FF5F
:1001A000000930093109350936750895048102C006
:1001B00005010905A10105091901290315002501FA
:1001C0007501950355006500810275019505810350
:1001D00005010901150026FF0375109502A100090C
:1001E0003009318102C0C005010905A1018501A1C5
:1001F0000005091901290C150025019510750181CB
:100200000205010939150025073500463B0175082F
:10021000950165148142C0C005010902A101850252
:100220000901A100093009311581257F3581457FFC
:10023000950275088106C0C005010904A101A1004D
:100240000509190129101500250195107501810274
:1002500005010901A100093009311580257F9502AA
:1002600075088102C009371580257F9501750881C1
:10027000060938150026FF00950175088102093925
:10028000150025073500463B017508950165148169
:1002900042C0C005010905A1011500250135004531
:1002A000017501950E05091901290E81029502813A
:1002B0000105012507463B017504950165140939BF
:1002C000814265009501810126FF0046FF0009304B
:1002D000093275089502810205027508950315001B
:1002E00026FF0009BB09C509C88102C0050109052F
:1002F000A10115002501350045017501951005097D
:1003000019012910810205012507463B0175049555
:100310000165140939814265009501810126FF00BC
:1003200046FF000930093109320935750895048105
:10033000020600FF092009210922092309240925B1
:100340000926092709280929092A092B950C810260
:100350000A21269508B102C056424F59004E545406
:1003600000534E4553004E4553004D554C54492DB6
:1003700054415000504144004E2F41004E4F4E45D5
:1003800000535749544348004552524F5200484980
:10039000440058494E50555400464D542B4D535827
:1003A0002B5836384B2B50432D583800534D532B78
:1003B00041544152492B4336342B414D494741006A
:1003C00047414D4543554245004E3634204D4F522E
:1003D000452052414E4745004E454F2D47454F0061
:1003E0004E45532B534E45532B56424F5900000058
:1003F00000002300260029002C002F000000000030
:10040000250028002B002E003100000000002400F1
:1004100027002A002D00300004040404040304050E
:100420000202020204030202020206060606060691
:100430000404020202040404080201104080401077
:1004400020408040800802040180402010020110FA
:1004500080102040402000030C0F30333C3FC0C3CD
:10046000CCCFF0F3FCFF4445564943452057494C57
:100470004C2052455354415254004D4F44453A206C
:10048000005341564544210A00484F4C443A20202D
:10049000534156450A0050524553533A2043484170
:1004A0004E4745004F5554505554204D4F44450A32
:1004B000005245464C4558000000050720610000E9
:1004C00000000000005F00006070787060605048BD
:1004D000506003070F07030305090503081C3E7F4F
:1004E0007F081C22417F7F7F3E1C087F41221C0821
:1004F000082A1C2A0808083E080800503000000896
:1005000008080808006060000020100804023E513E
:1005100049453E00427F40004261514946214145E4
:100520004B311814127F1027454545393C4A49493B
:100530003001710905033649494936064949291EE2
:1005400000363600003C7E7E7E3C3C4242423C14FB
:1005500014141414F0F0F0F0F0F0909090F0324990
:1005600079413E7E1111117E7F494949363E414114
:1005700041227F4141221C7F494949417F090901AC
:10058000013E414151327F0808087F00417F410010
:100590002040413F017F081422417F404040407F7E
:1005A0000204027F7F0408107F3E4141413E7F09E3
:1005B0000909063E4151215E7F09192946464949EC
:1005C000493101017F01013F4040403F1F20402051
:1005D0001F7F2018207F631408146303047804032A
:1005E000615149454300007F414102040810204108
:1005F000417F0000383C1E0F0740404040403824F7
:1006000012090720545454787F48444438384444ED
:100610004420384444487F3854545418087E090113
:1006200002081454543C7F0804047800447D4000C0
:100630002040443D00007F10284400417F40007C62
:10064000041804787C0804047838444444387C1442
:10065000141408081414187C7C0804040848545422
:100660005420043F4440203C4040207C1C2040203B
:100670001C3C4030403C44281028440C5050503C16
:100680004464544C44E0E0E0E0E000007F0000E01F
:10069000A0A0A0E008082A1C08081C2A08080006D8
:1006A000090906AC00198040005245424F4F544999
:1006B0004E472E2E2E00CB3111241FBECFEFDAE095
:1006C000DEBFCDBF15E0A0E0B1E0E6E4F7E602C092
:1006D00005900D92A83AB107D9F728E0A8EAB5E04D
:1006E00001C01D92A031B207E1F713E0CCE5D3E0E1
:1006F00004C02197FE010E945432CB35D107C9F7BF
:100700000E9450270C94A1330C940000CF93DF93E8
:10071000EC0180E595E0998388831A8280E093E07C
:100720009C838B8380E09CE09E838D831F82188650
:1007300081E089878EE1EFE9F1E0DE0150960190DA
:100740000D928A95E1F71FA61EA619AA18AA1BAA40
:100750001AAAFE01F49688E0DF011D928A95E9F756
:100760001CAE1DAE1FAE1EAE3C961182108232969C
:100770008FEF9FE7918380833296918380833296B7
:100780009183808332969183808332961082C55BF9
:10079000DF4F1882DF91CF9108953FB7F894809191
:1007A000F6079091F707A091F807B091F90726B5E1
:1007B000A89B05C02F3F19F00196A11DB11D3FBF99
:1007C000BA2FA92F982F8827BC01CD01620F711D68
:1007D000811D911D42E0660F771F881F991F4A9562
:1007E000D1F708958F929F92AF92BF92CF92DF92EE
:1007F000EF92FF924B015C010E94CD036B017C01E3
:100800000E94CD036C197D098E099F09683E7340D3
:1008100081059105A8F321E0821A9108A108B10889
:1008200088EEC80E83E0D81EE11CF11C81149104EF
:10083000A104B10429F7FF90EF90DF90CF90BF9013
:10084000AF909F908F900895AF92BF92CF92DF921A
:10085000EF92FF920F931F93CF93DF936C017B0175
:100860008B01040F151FEB015E01AE18BF08C01706
:10087000D10759F06991D601ED91FC910190F08179
:10088000E02DC6010995892B79F7C501DF91CF913C
:100890001F910F91FF90EF90DF90CF90BF90AF909E
:1008A0000895CF93DF93EC018A85882329F0815046
:1008B0008A87DF91CF9108959C818E819817C8F720
:1008C0008D856827E881F9810084F185E02D42E07B
:1008D000CE0109958C818F5F8C83EBCFEF920F93C4
:1008E0001F93F901DA012C913E2D309532233C9370
:1008F00030813E293083FC01D80198E080E030E06F
:1009000020E04C914E2189F02A95D9F720E04C91B6
:100910004E2159F02A95D9F720E84C914E2129F023
:100920002A95D9F73A9561F717C047E04A95F1F74C
:10093000000031E0550F4C914E2109F051609A951D
:1009400029F45193839598E0681731F020E84C9191
:100950004E2111F72A95D9F71F910F91EF90089525
:100960000F931F93F9012081202B2083DA012C9112
:10097000202B2C9320814081202B30E010E000952B
:10098000109550E004231523DC015D9148E00083BD
:10099000550F40F474E07A95F1F720837AE07A9568
:1009A000F1F705C07EE07A95F1F7000020834A95C3
:1009B00029F073E07A95F1F70000E9CF6A9529F004
:1009C00071E07A95F1F70000E0CF72E07A95F1F7E7
:1009D00000000000008374E07A95F1F70000000049
:1009E00020831F910F9108957F928F929F92AF92D3
:1009F000BF92CF92DF92EF92FF920F931F93CF930C
:100A0000DF93DB01642F5901F02E282F30E0F9012C
:100A1000E95CFB4FE490285E3B4FF901249130E004
:100A2000220F331FF901E65FFB4FC591D491F90105
:100A3000E450FC4FC590D490F901E251FC4F8590F1
:100A400094907FB6F8940E2D9601AE01CD010E94D0
:100A5000B00484019601AE016F2DC5010E946E04A1
:100A60007FBEDF91CF911F910F91FF90EF90DF90AC
:100A7000CF90BF90AF909F908F907F900895CF932D
:100A8000DF93FC0187812FEF3FE7813011F420E8ED
:100A900030E8462F50E0DF018FE0689FA00DB11DC8
:100AA000112450969C916185892F8370823021F1A9
:100AB000833029F0813021F5809351071BC06111EB
:100AC00011C081E0809351079C70983009F457C0A1
:100AD0009C30D1F0943009F055C0846093E090933D
:100AE00050071CC0623061F480915107882341F0A7
:100AF000813021F081E0E8CF8093510782E0E4CF9C
:100B00001092510780E0E0CF6230E1F590915007FC
:100B10009923C1F1933089F194E0892B9FE0949F50
:100B2000D001959FB00D1124AE0FBF1F50968C932E
:100B300050978085EF01C40FD51F813031F182308D
:100B400009F46CC088A9811108C056963C932E9375
:100B5000559758963C932E9357978AA9811155C063
:100B60006FE0649FC001659F900D1124E80FF91F8D
:100B7000328F218F348F238F48C098E0CECF88608A
:100B800094E0ADCF10925007C9CF8AA9811108C057
:100B90005A963C932E9359975C963C932E935B9771
:100BA0008FE0849FD001859FB00D1124AE0FBF1F31
:100BB00050968C918C70843071F1883049F58FEFAC
:100BC0009FEF2FE0249FD001259FB00D1124AE0F81
:100BD000BF1F56969C938E93559750968C91837019
:100BE00030E020E0813031F02FEF3FEF823011F024
:100BF0002FEF3FE76FE0649FC001659F900D1124C8
:100C0000E80FF91F308F278B108ADF91CF9108955D
:100C10008FEF9FE7D6CF90E080E0D3CF88A98111F6
:100C200008C056963C932E93559758963C932E9316
:100C300057978FE0849FD001859FB00D1124AE0F90
:100C4000BF1F50968C918C70843059F1883031F5EB
:100C50008FEF9FEF2FE0249FD001259FB00D11242F
:100C6000AE0FBF1F5A969C938E93599750968C91B6
:100C7000837030E020E0813031F02FEF3FEF8230A1
:100C800011F02FEF3FE76FE0649FC001659F900D6B
:100C90001124E80FF91F348F238FB6CF8FEF9FE712
:100CA000D9CF90E080E0D6CFCF93DF93DC011396CD
:100CB0002D913C911497C62FD0E0FC018FE0689FE6
:100CC000E00DF11D112461897289C90186239723E2
:100CD0002817390709F04BC080898F70823071F175
:100CE00028F48130C9F190E080E021C0843089F09F
:100CF0008830C9F782E018968C93108A2095309539
:100D00008189928928233923328B218B84E090E0DA
:100D10000EC081E018968C93108A209530958189B9
:100D2000928928233923328B218B82E090E09093A3
:100D30004F0780934E07DF91CF91089518961C922C
:100D4000108A209530958189928928233923328B06
:100D5000218B81E090E0EBCF108A209530952623FF
:100D600037233061328B218B88E090E0E0CF1596FD
:100D70004D915C911697642375234617570709F028
:100D8000B2CF80898F70823009F440C088F48130FE
:100D900009F0A9CF19961C92108A40955095818927
:100DA000928948235923528B418B80E290E0BFCF38
:100DB0008430D9F1883009F096CF80914E07909118
:100DC0004F078115924041F01B968C911B9791E043
:100DD00089271B968C931B972FE02C9FC0012D9F7A
:100DE000900D1124A80FB91F50961C925097409552
:100DF000509551968D919C91529748235923529624
:100E00005C934E93519780E092E091CF81E01996E8
:100E10008C93108A40955095818992894823592353
:100E2000528B418B80E490E082CF82E019968C93C4
:100E3000108A409550958189928948235923528B75
:100E4000418B80E890E073CF84E98093BC0085E615
:100E50009091BC0094FF03C08150D1F7089581E0C8
:100E60000895EF92FF920F931F93CF93FC0185811A
:100E700082878681978194878387808591859687ED
:100E80008587C38113822C9A8BE290E00197F1F75A
:100E90002C9883E190E00197F1F730E020E090E0BA
:100EA00080E043E150E0ACB1A6FB662760F970E05A
:100EB000DB01022E02C0AA0FBB1F0A94E2F78A2BA5
:100EC0009B2B2D98DA011197F1F72D9ADA011197E2
:100ED000F1F72F5F3F4F2031310529F7492F429518
:100EE0004F7051E04D3009F450E170E060E030E0C7
:100EF00020E0A3E1EA2EF12CACB1A6FB002700F91B
:100F000010E0D801062E02C0AA0FBB1F0A94E2F718
:100F10002A2B3B2B2D98D7011197F1F72D9AD7014A
:100F20001197F1F76F5F7F4F651730F380959095BC
:100F3000209530954F3029F42E3F5FEF350709F4A7
:100F400042C0538161E0650F638361E070E051113D
:100F500002C070E060E0411113C0A92FBB27AF7041
:100F6000BB271F9769F44AE0469FD001479FB00D09
:100F70001124AE0FBF1F4FE015964C93159713C069
:100F8000542F509552FF45C02AE0269FD001279F3D
:100F9000B00D1124AE0FBF1F24E015962C931597AA
:100FA0005370252F30E019963C932E9318972AE022
:100FB000269FD001279FB00D1124AE0FBF1F17969B
:100FC0009C938E93169783818C17E8F44AE09FEFE9
:100FD00021E030E0811102C030E020E0429FD001EA
:100FE000439FB00D1124AE0FBF1F15969C9315970C
:100FF00017961C921E92169719961C921E9218977D
:101000008F5FC813E5CFCF911F910F91FF90EF90A5
:1010100008955AE0569FD001579FB00D1124AE0F8E
:10102000BF1F5FE04527A8CF8091E4078F5F87301F
:1010300018F48093E407089581E0FBCF0895259884
:101040002D982D9A24982C982C9A6E987698769AAA
:1010500057985F985F9A3E984698469A85988D98DB
:101060008D9A86988E988E9A87988F988F9A2198C5
:101070002998299A23982B982B9A2091E407FC0110
:10108000EE55FF4F91E0263009F090E09083263036
:10109000C9F454985C985C9A22982A982A9A3F9AA4
:1010A0004798269A2E9882E390E090939801809337
:1010B000970182E08093960164E170E080E090E027
:1010C0000C94F2033F984798479A26982E982E9AA8
:1010D000EACF8E559F4FFC018081811103C08AE0C9
:1010E00091E008958BE091E008958E559F4FFC01AB
:1010F0008081811103C08FE595E0089588E595E032
:101100000895CF93DF93EC010E94860384EE94E070
:1011100099838883DE01AD55BF4F80E4EDEBF1E0AC
:1011200001900D928A95E1F7DF91CF91089588E0C3
:1011300091E0089586E695E00895CF93DF93EC0162
:1011400065E070E080E090E00E94F20382E080932E
:10115000960181E088AB89AB62E370E080E090E0CB
:10116000DF91CF910C94F20387E091E008958DE632
:1011700095E00895CF93DF93CDB7DEB72E970FB6E6
:10118000F894DEBF0FBECDBFFC0197E0DE011896DC
:1011900001900D929A95E1F787E0FE013896DE0105
:1011A000119601900D928A95E1F729813A814B8140
:1011B0005C816D817E818F8190E02E960FB6F894D0
:1011C000DEBF0FBECDBFDF91CF910895EF92FF92AA
:1011D0000F93CF93DF931F92CDB7DEB77C01FC0155
:1011E0008589198203E0970141E0BE016F5F7F4F5F
:1011F0000E94F404F701833029F0108211821282D8
:1012000090E016C08081918188309042C9F0F7014A
:10121000858991E4998397012D5F3F4F0AE041E072
:10122000BE016F5F7F4F0E94F40491E08A3041F766
:10123000892F0F90DF91CF910F91FF90EF9008953C
:1012400091E0F6CF1F93CF93DF93EC0165E070E060
:1012500080E090E00E94F20382E080939601FE011C
:10126000EC56FF4F808191810E94E60811E018AB97
:101270001AABFE01EA56FF4F808191810E94E60879
:1012800019AB1BAB62E370E080E090E0DF91CF919F
:101290001F910C94F203EF92FF920F93CF93DF9381
:1012A00000D01F92CDB7DEB77C01FC018081918117
:1012B000892BC9F09701235F3F4FF7018589408152
:1012C00051814830504219F594E599831A821B8266
:1012D00008E043E0BE016F5F7F4F0E94F404883056
:1012E00081F481E005C0C7010E94E6088111E2CFC8
:1012F0000F900F900F90DF91CF910F91FF90EF9093
:101300000895F70110821182128280E0F1CFF70177
:10131000928193FB992790F940E4498343E04A8303
:101320009B8308E0D7CF21982998299A3E98469820
:10133000469A3F984798479A57985F985F9A22989D
:101340002A982A9A6E987698769A54985C985C9A1D
:1013500024982C982C9A25982D982D9A23982B9880
:101360002B9A109298011092970164E170E080E04E
:1013700090E00C94F20384E091E0089584E795E016
:1013800008958E549F4FFC018081811103C081E03C
:1013900091E0089582E091E008958E549F4FFC0102
:1013A0008081811103C086E895E008958EE795E07D
:1013B0000895FC019081911106C08381948101966A
:1013C00099F080E008959F3049F4228130E02F7039
:1013D00033272F30310561F482E00895923031F0E7
:1013E000943031F485E0089583E0089584E0089511
:1013F00081E00895AF92BF92CF92DF92EF92FF9279
:101400000F931F93CF93DF93FC01E856FF4F108299
:10141000249A2C98259A2D9A6E987698769ADC01C3
:10142000A955BF4F1C92869A8E98859A8D9A879857
:101430008F988F9AA3E2B0E01197F1F720812111E4
:101440004BC0EC0182E0809396017E0184E9E80EB6
:10145000F11CC7010E943107FE01E956FF4F0081D0
:1014600010E0670185E0C80ED11CCE54DF4F3AE092
:10147000A32EBB24BA941017C1F1111108C0C601E4
:101480000E94D90991E0853009F090E0988381E0CD
:1014900090E0111102C090E080E0A89EF001A99EAA
:1014A000F00D1124EE0DFF1DB582178216821186F4
:1014B00010860196A89ED001A99EB00D1124AE0DF4
:1014C000BF1DBC9286819781948783878085918593
:1014D000968785871F5FCFCF82E08093960188EE45
:1014E00093E0909398018093970180919701909158
:1014F00098018230910538F0880F991F880F991F45
:1015000005970197F1F7DF91CF911F910F91FF9010
:10151000EF90DF90CF90BF90AF900895FC01609363
:10152000BC002FEF3FEF8091BC0087FF06C0909179
:10153000B900987F908381E008952150310999F78F
:1015400080E00895CF93DF93EC016093BB0064E8E3
:101550000E948E0A882329F081E09881983209F050
:1015600080E0DF91CF910895DF92EF92FF920F9389
:101570001F93CF93DF93EC01D62EF42E8989882315
:1015800029F0411103C00E942407198A8E01015FCE
:101590001F4F8989811119C0E88864EAC8010E9437
:1015A0008E0A882361F08F85883011F0803139F4FC
:1015B000EE0CE092BB0064E8C8010E948E0A60E075
:1015C000F11060E4C8010E94A20A6D2DC8010E94BA
:1015D000A20A82E0F8120BC089898F5F898BDF91A4
:1015E000CF911F910F91FF90EF90DF9008950E948F
:1015F0002407198AF4CFDC01ED91FC910084F18578
:10160000E02D40E00994FC0127812695269526953A
:10161000621720F46583606B0C94FB0A08950F93A6
:101620001F93CF93FC012681621798F4C62F8C017B
:1016300064836085C60F6C2F6F700E94FB0A6C2F4D
:1016400062956F706061C801CF911F910F910C94EA
:10165000FB0ACF911F910F9108951F93CF93DF93B2
:10166000EC01142F0E940F0B612FCE01DF91CF915F
:101670001F910C94030B2F923F924F925F926F92A7
:101680007F928F929F92AF92BF92CF92DF92EF9212
:10169000FF920F931F93CF93DF9300D000D000D021
:1016A000CDB7DEB7FC01238534852115310509F45A
:1016B00016C19E838D83F9013296649031964491D0
:1016C000E42EF12CF7E0EF0EF11C53E0F594E794D3
:1016D0005A95E1F7E982F901349654913196E491F3
:1016E0006D30F1F460E00E940F0B81E090E02696EF
:1016F0000FB6F894DEBF0FBECDBFDF91CF911F9123
:101700000F91FF90EF90DF90CF90BF90AF909F90A0
:101710008F907F906F905F904F903F902F900895A3
:101720006A3081F460E08D819E810E940F0BED8113
:10173000FE81868565818E9D600D1124CF010E94FA
:10174000030BD3CF651708F4CAC08E2F90E0FC01BD
:10175000E50FF11D6E171F060CF0C1C089010A5F6D
:101760001F4F651BED81FE8171855685759F502D3C
:1017700011245C83F90154912F5F3F4FF9012491AB
:10178000352F2230310508F06AC06E9CC0016F9C75
:10179000900D1124689FF001699FF00D11240E0F28
:1017A0001F1F512CED81FE81F481FA83ED81FE81B2
:1017B0002580F285FB83862C912CAA24A394B12C3E
:1017C000312C8981381608F086C0412CED81FE81CC
:1017D0008685481608F078C08B818287311002C058
:1017E000442041F0ED81FE8145814F5F6A81CF0148
:1017F0000E942D0BD12CC12CC61408F058C0F80142
:10180000EC0DFD1D7490552061F0EA14FB0449F4C1
:10181000E72DF0E0052C02C0F595E7950A94E2F774
:101820007E2EED81FE818685823081F4442009F48C
:101830003AC072948FE07822E72DF0E0EA5AFB4F2D
:101840007490672D8D819E810E945104672D8D813A
:101850009E810E9451048FEFC81AD80ACDCF4770DD
:1018600028E0522E541A411101C0512CF801612C6C
:1018700030E020E0661631F04491240F311D63946E
:101880003196F8CF600E712E711CF3016490E29EC8
:10189000F001E39EF00DF29EF00D11248E0F9F1FBC
:1018A000080F191F7FCFF72DFF707F2EC5CFD12CCA
:1018B000EC81DE1639F060E08D819E810E9451043A
:1018C000D394F6CF439482CF3394080D191DFFEFC4
:1018D000AF1ABF0A76CF622D8D819E8130CF90E006
:1018E00080E005CF0F931F93CF93DF938C01D0E05F
:1018F000C0E0F801EC0FFD1F6491662341F08AEF10
:1019000097E00E943B0B892B11F02196F2CFCE017C
:10191000DF91CF911F910F910895811104C082E949
:1019200093E00C94720C813019F481E893E0F9CFC4
:101930008250853018F48EE893E0F3CF88E893E086
:10194000F0CF682F8AEF97E00C943B0BCF92DF9299
:10195000EF92FF920F931F93CF93DF93EC01F62E3C
:10196000C42ED22E1A868F81869586958695081765
:1019700010F00FEF080F1D2D011780F0412F6F2D74
:10198000CE010E942D0BEF2CCE1430F06D85CE01D0
:101990000E945104E394F8CF1F5FEECF4D2D6F2DC1
:1019A000CE01DF91CF911F910F91FF90EF90DF90CB
:1019B000CF900C942D0B0F93FC0107810695069593
:1019C000069501504681415020E060E00E94A60C3F
:1019D0000F9108954F925F926F927F928F92AF9284
:1019E000CF92EF92FF920F931F93CF93DF93CDB7D8
:1019F000DEB72701380194E0899F80011124F801A6
:101A0000EA5DF84F80819181A281B3818E21952179
:101A1000A621B72131E0892B8A2B8B2B09F430E0EA
:101A20003C1103C088898823F1F0C11001C0A82CA3
:101A30002D5F640F422F8AEF97E00E942D0B8A2DB5
:101A40000E94A10CF801EA5DF84FCC20D1F0808112
:101A50009181A281B38184299529A629B729808300
:101A60009183A283B383DF91CF911F910F91FF9058
:101A7000EF90CF90AF908F907F906F905F904F904E
:101A80000895409450946094709480819181A281D3
:101A9000B38184219521A621B721E1CF2F923F92D6
:101AA0004F925F926F927F928F929F92AF92BF926E
:101AB000CF92DF92EF92FF920F931F93CF93DF931A
:101AC000CDB7DEB7A2970FB6F894DEBF0FBECDBF7D
:101AD0001C0180914F01882309F44BC010924F01E3
:101AE00072EF672E74E0772ED12C210122EA420E8C
:101AF000511CF301908007E023E04181692D8AEFBA
:101B000097E00E94A60C47E0692D8AEF97E00E94BB
:101B10002D0BF2018081811194C0F6E0F983C1019F
:101B20008D559F4F9AA389A3B12CE9A1FAA1E0801A
:101B3000F18002811381F1E0FF93E9A1FAA187808E
:101B4000A680C12C24814581692D8D2D0E94EA0C2F
:101B5000B39429A13AA1285F3F4F3AA329A30F903C
:101B600039813B11E2CF82E0680E711C91E0D912FD
:101B700065C0D12C80E0F101EE55FF4FFA83E98377
:101B800090919601D91608F0AAC1E981FA81908155
:101B9000992309F491C0DD2009F456C043B123B163
:101BA000E3B13FB17FB16FB143FB442740F94B83B1
:101BB0001C824B815C81F5E0440F551FFA95E1F7DB
:101BC00022FB222720F92D831E82AD81BE8114E0E5
:101BD000AA0FBB1F1A95E1F7242F2A2B65FB442778
:101BE00040F9242BE695E170EF8318864F815885E4
:101BF00003E0440F551F0A95E1F7242B432F330FC1
:101C0000550B4427550F441F5527440F551F440FAC
:101C1000551F242B76FB772770F979871A8649851B
:101C20005A85440F551F242B322F337009F052C1AF
:101C3000322F3C7009F489C0206887C0DD24D3941A
:101C400058CF28E029836BCF56B129B149B17CB177
:101C500063B133B156FB552750F95B871C86EB8582
:101C6000FC85A5E0EE0FFF1FAA95E1F720712E2B52
:101C700035FB332730F9232B042E000C550B44275A
:101C8000550F441F552713E0440F551F1A95E1F7D0
:101C9000242B76FB772770F97D871E864D855E8520
:101CA000440F551F440F551F242B629561706F8799
:101CB000188A4F855889B5CFDD2009F4C8C043B1D3
:101CC00023B1E3B13FB17FB16FB146FB442740F987
:101CD000498B1A8A49895A89F5E0440F551FFA95AC
:101CE000E1F723FB222720F92B8B1C8AAB89BC89C7
:101CF00014E0AA0FBB1F1A95E1F7242F2A2B65FBCE
:101D0000442740F9242BE695E170ED8B1E8A4D891E
:101D10005E8903E0440F551F0A95E1F7242B432FFA
:101D2000330F550B4427550F441F5527440F551F9C
:101D3000440F551F242B76FB772770F97F8B188E65
:101D40004F89588D440F551F242B6D2D70E0FB01DA
:101D5000E35BFE4F3081321709F477C02083622E97
:101D6000712C322F3095317080E021FF82E0832B7F
:101D700030E022FF34E0832B30E023FF38E0832B78
:101D8000F101808B822F82958F70F1E08F27817017
:101D90008F8F18A250E040E025FD02C042E050E0E5
:101DA000EF8DF8A14E2B5F2B992321F0E0E0F1E0BD
:101DB00026FF02C0F0E0E0E04E2B5F2B992309F4F0
:101DC0008BC027FD89C020E032E0422B532BF1016C
:101DD000528B418B660F771FFB01EE50FB4F9080BB
:101DE00088E0B82E911102C096E0B92E91012D55D0
:101DF0003F4F3AA329A3512C412CC301042C02C00C
:101E0000959587950A94E2F780959095382F3170D3
:101E1000C32EE9A1FAA1E080F180028113811F9213
:101E20008780A68024814581692D8D2D0E94EA0C32
:101E3000FFEF4F1A5F0A29A13AA1285F3F4F3AA34B
:101E400029A30F904B14C8F281E0D39499CE66B1C8
:101E500026B149B1FCB1E3B153B126FB222720F9E9
:101E6000298F1A8E298D3A8D74E0220F331F7A95AF
:101E7000E1F7062E000C770B6627770F661F772792
:101E8000B5E0660F771FBA95E1F7262B55FB332790
:101E900030F9232B042E000C550B4427550F441FFB
:101EA000552703E0440F551F0A95E1F7242BF6FB55
:101EB000FF27F0F9FB8F1C8E4B8D5C8D440F551F57
:101EC000440F551F242BE295E170ED8F1E8E4D8D32
:101ED0005E8D38CF2064ACCE30E020E076CFA29685
:101EE0000FB6F894DEBF0FBECDBFDF91CF911F912B
:101EF0000F91FF90EF90DF90CF90BF90AF909F90A9
:101F00008F907F906F905F904F903F902F900895AB
:101F10006F927F928F929F92AF92BF92CF92DF92F9
:101F2000EF92FF920F931F93CF93DF933C01D62E36
:101F3000C42FE62FF0E0EE0FFF1FEE50FB4FB080F6
:101F400007E023E041816B2D8AEF97E00E94A60C09
:101F500047E06B2D8AEF97E00E942D0BC13091F581
:101F600084E793E00E94720C81E08D15E0F0E301BC
:101F7000C656DF4F8AEF680E711C99249394E8804F
:101F8000F9800A811B819F928F80AE80CC24C394FC
:101F90002C814D816B2D8D2D0E94EA0C28960F907F
:101FA000C615D70561F7DF91CF911F910F91FF9073
:101FB000EF90DF90CF90BF90AF909F908F907F90E9
:101FC0006F9008958CE793E0DF91CF911F910F916F
:101FD000FF90EF90DF90CF90BF90AF909F908F9049
:101FE0007F906F900C94720C6F927F928F929F9261
:101FF000AF92BF92CF92DF92EF92FF920F931F9317
:10200000CF93DF933C01D62EC42FE62FF0E0EE0FE6
:10201000FF1FEE50FB4FB08007E023E041816B2DA6
:102020008AEF97E00E94A60C47E06B2D8AEF97E0BD
:102030000E942D0BC13091F584E793E00E94720C51
:1020400081E08D15E0F0E301C256DF4F82EF681AA0
:102050008EEF780A99249394E880F9800A811B8195
:102060009F928F80AE80C12C2C814D816B2D8D2D48
:102070000E94EA0C28960F90C615D70569F7DF91E4
:10208000CF911F910F91FF90EF90DF90CF90BF9075
:10209000AF909F908F907F906F9008958CE793E022
:1020A000DF91CF911F910F91FF90EF90DF90CF9034
:1020B000BF90AF909F908F907F906F900C94720C18
:1020C0002F923F924F925F926F927F928F92AF9238
:1020D000CF92DF92EF92FF920F931F93CF93DF93F4
:1020E000CDB7DEB760970FB6F894DEBF0FBECDBF99
:1020F0003C0180914B018823C1F110924B0107E014
:1021000023E04CE360E08AEF97E00E94A60C47E0F2
:1021100060E08AEF97E00E942D0B13010EE9200E7C
:10212000311C23011EEE410E511CDD24D394D1013C
:10213000ED90FD900D911C911397DF9217968C9066
:1021400017971696AC901697C12C14962C9114974D
:1021500015964C9163E280E00E94EA0CB8E02B0EE9
:10216000311C0F904214530411F763B133B173B1B2
:10217000E9B15CB193B149B186B126B1F3B163FB6A
:10218000662760F9660F688B1F8635FB332730F9A9
:102190003A8319820F851889A981BA810A2B1B2BD2
:1021A000F695F170FB831C82AB81BC810A2B1B2B43
:1021B000729571707D831E826D817E817695762FFA
:1021C000662777956795062B172BE295E170EF83CD
:1021D00018866F817885E6E0660F771FEA95E1F74C
:1021E000062B172B56FB552750F959871A866985F8
:1021F0007A85F5E0660F771FFA95E1F7062B172B26
:1022000092FB992790F99B871C866B857C85A4E0BF
:10221000660F771FAA95E1F7062B172B042E000CEB
:10222000550B4427550F441F552793E0440F551F66
:102230009A95E1F7042B152B082E000C990B882793
:10224000990F881F9927880F991F880F991F082BAE
:10225000192B26FB222720F92D871E868D859E852A
:10226000880F991F082B192B1A8309838091490124
:1022700090914A018017910709F4ACC010934A016C
:10228000009349019801209530952170332780E013
:1022900001FF82E0822BB98190E0B2FF94E0892BAC
:1022A000E98190E0E3FF98E0892BD30150968C936D
:1022B00089819A8124E0969587952A95E1F7B1E086
:1022C0008B279C0121703327E98190E080E0E5FDB8
:1022D00002C082E090E0822B932BF98130E020E075
:1022E000F6FD02C024E030E0822B932B098130E020
:1022F00020E007FD02C028E030E0822B932B2981EB
:102300003A8130FF64C030E020E0822B932B49817A
:102310005A8130E020E051FD02C020E032E0822B03
:10232000932BD30152969C938E935197BEE96B0EDB
:10233000711C312C212C44244394512CC201022CB9
:1023400002C0880F991F0A94E2F7E981FA818E236F
:102350009F23CC24C394892B09F0C12CD301ED9089
:10236000FD900D911C9113971F9217968C901797C3
:102370001696AC90169714962C91149715964C912E
:1023800063E280E00E94EA0CBFEF2B1A3B0AE8E010
:102390006E0E711C0F90FAE02F16310479F681E071
:1023A00060960FB6F894DEBF0FBECDBFDF91CF9120
:1023B0001F910F91FF90EF90DF90CF90AF908F9093
:1023C0007F906F905F904F903F902F90089520E006
:1023D00031E09BCF80E0E4CF6F927F928F929F920B
:1023E000AF92BF92CF92DF92EF92FF920F931F9323
:1023F000CF93DF93EC01D62E742EE62FF0E0EE0F94
:10240000FF1FEE50FB4FB08007E023E041816B2DB2
:102410008AEF97E00E94A60C47E06B2D8AEF97E0C9
:102420000E942D0B83E0781619F18715B8F0E2E0D1
:1024300086E693E07E16F1F08CE793E0DF91CF9192
:102440001F910F91FF90EF90DF90CF90BF90AF90D2
:102450009F908F907F906F900C94720CF4E07F1699
:1024600009F442C085E07812E7CF88E593E002C026
:1024700081E693E00E94720CE2E0DE1631F1FE018B
:10248000EE54FF4F8081882391F13E01FDEC6F1ADD
:10249000FEEF7F0ACD55DE4F99249394F301E0803F
:1024A000F180028113819F928780A680CC24C394FF
:1024B000248145816B2D8D2D0E94EA0CF8E06F0E72
:1024C000711C0F906C167D0649F7DF91CF911F911B
:1024D0000F91FF90EF90DF90CF90BF90AF909F90C3
:1024E0008F907F906F9008958DE593E0C3CFCD548A
:1024F000DF4F612C9924939482E078121FC0E7E0AB
:10250000E615B0F0F3E0F615C8F0FE01E05AFF4F13
:10251000E080F180028113819F928780A680CC2485
:10252000C394248145816B2D8D2D0E94EA0C0F9060
:10253000639428968CE06812DFCFC7CFFE01E8CF06
:102540000F9307E022E04FE760E08AEF97E00E94F8
:10255000A60C8091E407833031F130F4813089F0AA
:102560008230C9F00F910895853069F120F18630ED
:10257000C9F76CE08AEF97E00E940F0B89E993E0BE
:1025800007C06CE08AEF97E00E940F0B80EE93E0AB
:102590000F910C94720C6AE28AEF97E00E940F0B85
:1025A00088ED93E0F5CF66E08AEF97E00E940F0B8D
:1025B00089EC93E0EDCF64E28AEF97E00E940F0B85
:1025C00080EC93E0E5CF66E08AEF97E00E940F0B86
:1025D0008CEA93E0DDCF809395016EEA81116FEA7A
:1025E0008AEF97E00E94FB0A2FB7F8948091F207D8
:1025F0009091F307A091F407B091F5072FBF809356
:10260000E5079093E607A093E707B093E8070895DE
:1026100090E080E00895CF93DF93CDB7DEB72F979A
:102620000FB6F894DEBF0FBECDBF209196016217A2
:10263000E0F42FE0FE013196DF01322F1D923A9532
:10264000E9F74FEF5FE75F834E83598748875B87E2
:102650004A875D874C87DC01269FA00DB11D1124A0
:10266000509601900D922A95E1F72F960FB6F894A7
:10267000DEBF0FBECDBFDF91CF9108952F923F9265
:102680004F925F926F927F928F929F92AF92BF9282
:10269000CF92DF92EF92FF920F931F93CF93DF932E
:1026A000CDB7DEB7C755D1090FB6F894DEBF0FBE60
:1026B000CDBF3C0180914C01882339F010924C0130
:1026C00040E060E0C3010E94880F80914C078111B7
:1026D0006AC080914D07811166C080914A078111BF
:1026E00009C0F301EC56FF4F808191810E944B0994
:1026F00080934A0780934C0780914B07811109C052
:10270000F301EA56FF4F808191810E944B0980932B
:102710004B0780934D0781E00E94EB1207E027E012
:102720004FE760E08AEF97E00E94A60C67E08AEF2F
:1027300097E00E94030B60E08AEF97E00E940F0B86
:1027400080914C0781110BC080914D07811103C00E
:102750008CE793E002C088E793E00E94720C62E489
:102760008AEF97E00E940F0B90914C0780914D07E4
:10277000992309F4A4C0811104C088E793E00E9462
:10278000720C80914C07882329F041E060E0C3017E
:102790000E94880F80914D07882329F041E061E075
:1027A000C3010E94880F21961FAE219722961FAE6B
:1027B0002297512C10E5A12E13ECB12E05E1402EED
:1027C00088EC882E912C80919601581608F08CC0C8
:1027D000052D10E0F801E45BF84F8081882309F4AF
:1027E0006CC07801EE0CFF1CE60CF71C24E9E20E2D
:1027F000F11CD7018D919C910E944B09F801E65B79
:10280000F84F6F01882309F45FC0D7012D913C91E7
:1028100095E1F901DE019B9601900D929A95E1F701
:10282000409EA001419E500D1124E1E0F0E0EC0F2C
:10283000FD1F4E0F5F1FBA96DA01942D01900D9285
:102840009A95E1F7DA014D915C91FF24F3944115DB
:10285000510509F4F12CF3019781911119C041152B
:102860005105B1F0000F111F000F111FE00FF11FF4
:1028700095A9911105C081E097A9911101C080E04F
:10288000D90112969C91129780FB93F912969C9312
:10289000F601808181110FC0452B69F0652DC301C0
:1028A0000E940B13909298018092970141E0652D50
:1028B000C3010E94880FD601FC92539484CF8111EA
:1028C0005ACF8CE793E05BCF652DC3010E940B13B9
:1028D000B0929801A092970140E0652DC3010E943B
:1028E000880FF6011082E9CF23961FAE239793013C
:1028F00028563F4F64963FAF2EAF6497B30167569B
:102900007F4F66967FAF6EAF6697C30186509F4F2D
:1029100068969FAF8EAF68978091960123969FAD82
:102920002397981708F08AC3492E512CF201E65BD1
:10293000F84F8081882309F44FC385E1849DF0011D
:10294000859DF00D1124A1E0B0E0AC0FBD1FEA0F92
:10295000FB1F958586859C0129963FAF2EAF299751
:10296000D201AA0FBB1FAA5BB84F2D913C9147859E
:10297000D201AC5BB84F8C91082E000C990B481714
:10298000190611F55089D201AE5BB84F8C91082E13
:10299000000C990B58171906B9F45189D201A05CA3
:1029A000B84F8C91082E000C990B5817190661F43A
:1029B0005289F201E25CF84F8081082E000C990BDD
:1029C0005817190609F45CC3E0E4F0E0EC0FFD1FB2
:1029D000E40DF51D81E029966EAD7FAD2997261790
:1029E000370709F480E08083F301E40DF51D16A696
:1029F00085E1849DD001859DB00D112481E090E09A
:102A00008C0F9D1FA80FB91F1E969C9193FB222728
:102A100020F982E092FF80E0822B95E1949DD00125
:102A2000959DB00D112421E030E02C0F3D1FA20F29
:102A3000B31F1E969C9190FFD7C294E0892B95E11D
:102A4000949DD001959DB00D112461E070E06C0F54
:102A50007D1FA60FB71F1E969C9191FFC7C298E0DD
:102A60002FE0249DD001259DB00D1124A60DB71D8A
:102A7000892B50968C9385E1849DD001859DB00D66
:102A8000112481E090E08C0F9D1FA80FB91F1D96A7
:102A90008C9181FB992790F961969FAF619762961F
:102AA0001FAE629722E030E080FD02C030E020E0FF
:102AB0006296AEADBFAD62972A2B3B2B85E1849D1C
:102AC000D001859DB00D112461E070E06C0F7D1F79
:102AD000A60FB71F1D968C9183FF8AC284E090E0F9
:102AE000822B932B25E1249DD001259DB00D11242F
:102AF00021E030E02C0F3D1FA20FB31F1D962C913B
:102B000022FF79C228E030E0822B932B25E1249D1F
:102B1000D001259DB00D112461E070E06C0F7D1F88
:102B2000A60FB71F53963C9160E470E0333310F466
:102B300070E060E0862B972B25E1249DD001259D38
:102B4000B00D112461E070E06C0F7D1FA60FB71F60
:102B500054962C9160E870E0233310F470E060E04C
:102B6000862B972B55E1549DD001559DB00D112416
:102B700061E070E06C0F7D1FA60FB71F1E965C9181
:102B800060E071E054FD02C070E060E0862B972B9E
:102B900055E1549DD001559DB00D112461E070E0C8
:102BA0006C0F7D1FA60FB71F1D965C9160E072E051
:102BB00054FD02C070E060E05FE0549DD001559D7F
:102BC000B00D1124A60DB71D862B972B52969C9302
:102BD0008E935197D30117968C91882331F0909161
:102BE000E907992391F1813081F5B1E0B6A7303240
:102BF00008F430E0203208F420E085E1849DF00103
:102C0000859DF00D112461E070E06C0F7D1FE60FD3
:102C1000F71F868586FD3FEF85E1849DF001859D48
:102C2000F00D112481E090E08C0F9D1FE80FF91F3B
:102C3000868585FD2FEF8FE0849DF001859DF00D49
:102C40001124E60DF71D358F268F6496AEADBFAD0E
:102C50006497CC906696EEADFFAD669780814C157B
:102C600008F0CCC195E1949DF001959DF00D1124E3
:102C700021E030E02C0F3D1FE20FF31FC78695E1E6
:102C8000949DF001959DF00D1124A1E0B0E0AC0FF2
:102C9000BD1FEA0FFB1F90899C1508F0C0C1C08AB8
:102CA00095E1949DF001959DF00D112421E030E017
:102CB0002C0F3D1FE20FF31F91899C1508F0B4C142
:102CC000C18A95E1949DF001959DF00D112461E07C
:102CD00070E06C0F7D1FE60FF71F92899C1508F0BE
:102CE000A8C1C28A882E912CB12CA12CD12CF12CF8
:102CF000E12C85E1849DF001859DF00D112481E09A
:102D000090E08C0F9D1FE80FF91F97852E969FAFBF
:102D10002E97C501B4016C197D098E099F092D9666
:102D20006CAF7DAF8EAF9FAF2D972E967FAD2E9758
:102D3000272F30E050E040E02C193D094E095F0993
:102D4000AFEFB0E00E9418322D962CAD3DAD4EADE8
:102D50005FAD2D970E94F931822F2757233108F458
:102D600080E8282F30E08FE0849DF001859DF00DF4
:102D70001124E60DF71D922F8827820F931F968B43
:102D8000858B85E1849DF001859DF00D112481E006
:102D900090E08C0F9D1FE80FF91F90892F969FAF31
:102DA0002F97C701B601681979098A099B092796E7
:102DB0006CAF7DAF8EAF9FAF27972F967FAD2F97CC
:102DC000272F30E050E040E0281939094A095B0913
:102DD000AFEFB0E00E94183227962CAD3DAD4EAD5E
:102DE0005FAD27970E94F931822F2757233108F4CE
:102DF00080E8282F30E08FE0849DF001859DF00D64
:102E00001124E60DF71D922F8827820F931F908FB4
:102E1000878B85E1849DF001859DF00D112481E073
:102E200090E08C0F9D1FE80FF91F918960969FAF6E
:102E30006097292F30E050E040E02C193D094E0901
:102E40005F09AFEFB0E00E9418322D962CAD3DAD7A
:102E50004EAD5FAD2D970E94F931822F2757233158
:102E600008F480E8282F30E08FE0849DF001859DF4
:102E7000F00D1124E60DF71D922F8827820F931F66
:102E8000928F818F85E1849DF001859DF00D112445
:102E9000A1E0B0E0AC0FBD1FEA0FFB1FD2882D2DC3
:102EA00030E050E040E0281939094A095B09AFEFEA
:102EB000B0E00E94183227962CAD3DAD4EAD5FAD0F
:102EC00027970E94F931822F2757233108F480E891
:102ED00090E02FE0249DF001259DF00D1124E60DDA
:102EE000F71D382F2227820F931F948F838F130192
:102EF000BAE92B0E311C29968EAD9FAD2997BC01E6
:102F000090E080E02D966CAF7DAF8EAF9FAF2D9798
:102F1000D201AA0FBB1F2596BFAFAEAF2597FD010B
:102F2000EE50FB4FB080F101E080F180028113810F
:102F30002D968CAD9DADAEADBFAD2D978E219F2151
:102F4000A023B123CC24C394892B8A2B8B2B09F487
:102F5000C12C1F92D10117968C9017971696AC90A2
:102F6000169714962C91149715964C916B2D2396C9
:102F70008FAD23970E94EA0CB8E02B0E311C0F9006
:102F80006896EEADFFAD6897E215F30561F62596FC
:102F9000EEADFFAD2597EA5BF84F29962EAD3FAD1C
:102FA000299731832083F201EC5BF84F2E963FADD9
:102FB0002E973083F201EE5BF84F2F966FAD2F976F
:102FC0006083F201E05CF84F60967FAD609770839C
:102FD000F201E25CF84FD08223968FAD23978F5F8A
:102FE00023968FAF239798CC90E028CD90E038CDF2
:102FF00090E080E075CD30E020E086CD841708F0C9
:103000003ECE95E1949DF001959DF00D112461E077
:1030100070E06C0F7D1FE60FF71F878730CE891792
:1030200008F03ECE808B3CCE891708F04ACE818BCB
:1030300048CE891708F056CE828B54CE21968FAD9C
:103040002197811103C022968FAD2297C95ADF4F75
:103050000FB6F894DEBF0FBECDBFDF91CF911F91A9
:103060000F91FF90EF90DF90CF90BF90AF909F9027
:103070008F907F906F905F904F903F902F9008952A
:103080002996AEADBFAD29972A173B0709F4A4CF07
:103090009BCC2F923F924F925F926F927F928F9232
:1030A0009F92AF92BF92CF92DF92EF92FF920F93D7
:1030B0001F93CF93DF93CDB7DEB766970FB6F89423
:1030C000DEBF0FBECDBF3C0186E0FE013196DF01C1
:1030D0001D928A95E9F780914801882381F010922A
:1030E000480180919601833050F045E064E28AEF18
:1030F00097E00E942D0B8AE693E00E94720CF30188
:10310000EC56FF4FFA8BE98BCF010E943107F30198
:10311000E855FF4F808185838181928197838683E3
:1031200083819481918780873597D38013828E9A8B
:103130008BE290E00197F1F78E9883E190E00197A0
:10314000F1F750E040E0512C412C63E170E02FB1E9
:10315000022E000C330B2227330F221F3327042E9D
:1031600002C0220F331F0A94E2F7422A532A8D9895
:10317000CB010197F1F78D9ACB010197F1F74F5FE2
:103180005F4F4031510519F7452D42954F7050E181
:103190004D3009F051E070E060E030E020E013E1F4
:1031A000E12EF12C0FB1002E000C110B0027110F96
:1031B000001F1127062E02C0000F111F0A94E2F70C
:1031C000202B312B8D98C7010197F1F78D9AC701FC
:1031D0000197F1F76F5F7F4F651720F3409450948C
:1031E000209530954F3029F42E3F8FEF380709F4A2
:1031F00045C0838191E0980F938361E070E0811175
:1032000002C070E060E0411114C0852D99278F70D5
:1032100099270F9771F44AE0469FC001479F900D90
:1032200011248E0F9F1F4FE0DC0115964C931597CC
:1032300014C0942F909592FF89C08AE0869FA001C8
:10324000879F500D11244E0F5F1F84E0DA01159601
:103250008C9315979370292F30E019963C932E93F9
:1032600018972AE0269FC001279F900D11248E0FEA
:103270009F1FDC0117965C924E921697B381BE8712
:10328000BD15F8F42B2F6AE03FEF41E050E021112B
:1032900002C050E040E0649FC001659F900D112482
:1032A0008E0F9F1FDC0115963C93159717961C9265
:1032B0001E92169719961C921E9218972F5FD21283
:1032C000E4CFF301E956FF4F9080BE85B90DBD876D
:1032D00079866886788A6F86B12CF12C3C96FC8BB7
:1032E000EB8B93012E543F4F3E8B2D8B109196010B
:1032F0003D85B31609F463C2B11609F460C2DD243A
:10330000D394B91408F4D12C21E030E0B91448F575
:10331000B11002C030E020E04AE0429FC001439F6C
:10332000900D1124059629883A88280E391E1230EE
:1033300061F5992039F1C1010E94D909E1E0F0E07D
:10334000EC0FFD1FED0DF11D80831FC05AE0569F4D
:10335000C001579F900D11248E0F9F1F5FE04527DE
:1033600063CFB91002C030E020E04AE0429FC001C4
:10337000439F900D112405962B883C88280E391EFA
:10338000123019F48E858111D6CFD1019C911596FA
:103390008C911597981316C011962D913C91129708
:1033A00016968D919C9117972817390759F4139603
:1033B0002D913C91149718968D919C91281739075F
:1033C00009F47AC0EF85F88912AAD1018C9115967B
:1033D0009C91159789130CC0811118C013968D917B
:1033E0009C91019699F4F10180859185019671F087
:1033F0006B2DC3010E940B13123041F4C1010E94D6
:10340000D909482F6D2DC3010E94EC11C1010E9402
:10341000D9098A87D10111962D913C91C90154E0B7
:10342000969587955A95E1F7982F917082E025FF40
:1034300080E0892B94E026FF90E0892B98E027FF1D
:1034400090E0892BE885F985808BD10111962D912B
:103450003C91BA85A90141705527B230C9F582E087
:1034600090E021FD02C090E080E0842B952BE88560
:10347000F985928B818BF101218180E091E022FD21
:1034800002C090E080E023FFFDC020E032E0A8858C
:10349000B98551964D915C915297842B952B822B37
:1034A000932B52969C938E935197809196018230E4
:1034B00009F4EBC0FF24F394B394888599850F96A3
:1034C00099878887AF85B8891196B88BAF870ECF5B
:1034D00082E090E030FD02C090E080E0842B952BEC
:1034E00044E050E021FD02C050E040E0842B952BE9
:1034F00048E050E031FD02C050E040E0842B952BC5
:1035000040E150E032FD02C050E040E0842B952BBA
:1035100033FF92C020E230E0822B932BA885B9853F
:1035200052969C938E935197BA85B43009F08AC015
:10353000F1014381548160E470E052FD02C070E00B
:1035400060E020E830E055FD02C030E020E0862B4E
:10355000972BE0E0F4E053FD02C0F0E0E0E0282B20
:10356000392B60E078E054FD02C070E060E02E2B63
:103570003F2B80E090E157FD02C090E080E0262BD9
:10358000372B282B392BA885B98552963C932E933F
:103590005197F10123813481A9014170552782E0BF
:1035A00090E021FD02C090E080E0842B952B44E068
:1035B00050E022FD02C050E040E0842B952B48E013
:1035C00050E023FD02C050E040E0842B952B40E109
:1035D00050E024FD02C050E040E0842B952B40E2F7
:1035E00050E025FD02C050E040E0842B952B40E4E4
:1035F00050E026FD02C050E040E0842B952B40E8CF
:1036000050E027FD02C050E040E0842B952B40E0C5
:1036100051E030FD02C050E040E0842B952B31FF9B
:103620000EC020E032E0822B932BA885B9855496FA
:103630009C938E9353971FCF30E020E06DCF30E006
:1036400020E0F1CFBA85B53009F015CFF101238123
:103650003481A9014170552720FF02C040E450E0A9
:1036600021FF0DC020E830E0842B952B822B932B7B
:10367000A885B98552969C938E935197FCCE30E0E5
:1036800020E0F2CF30E020E002CFED89FE8980819A
:103690002301882309F455C0FDEC4F1AFEEF5F0AA1
:1036A0001F82ED2DF0E0EE0FFF1FEE50FB4F20814B
:1036B0002B87D201ED90FD900D911C9113971496DC
:1036C0002C91149715964C9115971696AC901697C9
:1036D00017968C90BF81BC3010F5EA85E23091F4EA
:1036E000B83080F01F92C12C6B858D2D0E94EA0CA2
:1036F0000F90FF81FF5FFF8328E0420E511CFE30D8
:10370000C1F6D8CED10111968D919C918E219F2129
:10371000CC24C394892B09F4C12C1F92E5CFBA8520
:10372000B530D1F7F10163817481D801C7013CE064
:10373000B695A795979587953A95D1F786239723C0
:10374000E7CF33EB430E511C1F828D2D90E0880F85
:10375000991FDC01AE50BB4FBC87AB87BA85B23036
:1037600061F5EF81E83000F5E43038F5F201E05A18
:10377000FF4FE080F18002811381D10111968D917C
:103780009C918E219F21CC24C394892B09F4C12CB8
:103790001F928780A68024814581EB85FC8560810E
:1037A0008D2D0E94EA0C0F90FF81FF5FFF8328E0C0
:1037B000420E511CFC3091F67DCEF201DACF098128
:1037C000123059F480914201801739F0011105C07F
:1037D00040E060E0C3010E94EC11009342011A81B5
:1037E00080919601823059F480914301811739F01C
:1037F000111105C040E061E0C3010E94EC1110937B
:10380000430110912E07BD85B11760F4DB2E809126
:1038100096018D1539F06D2DC3010E940B13D394C1
:10382000D116A8F3ED85E0932E078F2D66960FB67F
:10383000F894DEBF0FBECDBFDF91CF911F910F91E6
:10384000FF90EF90DF90CF90BF90AF909F908F90C0
:103850007F906F905F904F903F902F900895FC0164
:103860008091E4069091E50686179707A0F0611510
:10387000710529F49091E8009E779093E80090E01C
:103880006115710551F4911108C08091E80082FF23
:1038900035C080E00895BC01F2CF8091E007882315
:1038A000C9F18530C9F18091E80083FD31C0809174
:1038B000E80082FDEACF8091E80080FFE1CF20910F
:1038C000F3008091F200322F282F6115710519F055
:1038D0002034310558F091E02034310509F090E0B2
:1038E0002091E8002E772093E800CACF8191809341
:1038F000F100615071092F5F3F4FE7CF8091E007E2
:10390000882341F0853041F08091E80083FFBDCFEE
:1039100081E0089582E0089583E008952091E40015
:103920003091E50085E69091EC0090FF06C0909103
:10393000E80090FF06C080E008959091E80092FDB5
:10394000FACF9091E007992391F0953091F0909102
:10395000EB0095FD10C04091E4005091E500241764
:10396000350709F381509A01F1F684E0089582E069
:10397000089583E0089581E008958091DE0687FF31
:1039800013C08091E80082FF06C08091E8008B7729
:103990008093E80004C08091E0078111F2CF089580
:1039A0008091E0078823D9F38091E80080FFF8CF69
:1039B0008091E8008E77ECCF982F973028F08F70A9
:1039C0008093E90081E008959093E900242F762FF9
:1039D00050E0981731F07091EC002091ED0050917B
:1039E000F00021FD02C09F5FE8CF3091EB003E7FE9
:1039F0003093EB003091ED003D7F3093ED0030913E
:103A0000EB0031603093EB007093EC002093ED00FD
:103A10005093F0002091EE0027FDE5CF80E008955F
:103A200042E050E06EE875E08AEF97E00C942404E1
:103A3000CF93DF930E94720CEC010E94101D8C0F3B
:103A40009D1FDF91CF9108950F931F93CF93DF9325
:103A5000CDB7DEB7A4970FB6F894DEBF0FBECDBFCB
:103A6000182F83E0898380EC8A838BE18B8370E05D
:103A700040E250E0CE0104960E949A3301E09E019C
:103A80002C5D3F4F43E2BE016F5F7F4F812F0E944D
:103A9000F404A4960FB6F894DEBF0FBECDBFDF913D
:103AA000CF911F910F9108950F931F93CF93DF93A1
:103AB000CDB7DEB7C754D1090FB6F894DEBF0FBE3D
:103AC000CDBF182F83E0898380E88A8381E08B83D0
:103AD00070E040E250E0CE0104960E949A3301E08B
:103AE0009E01295B3F4F43E2BE016F5F7F4F812FF5
:103AF0000E94F4048091FD019091FE01A091FF01CC
:103B000027968DAF9EAFAFAF279700E29E012C5D49
:103B10003F4F43E0BE016C5B7F4F812F0E94F40456
:103B2000C95BDF4F0FB6F894DEBF0FBECDBFDF918C
:103B3000CF911F910F910895EF92FF920F931F93D2
:103B4000CF93DF931F92CDB7DEB77C01FC01878155
:103B5000198203E0970141E0BE016F5F7F4F0E9431
:103B6000F404F701833061F010821182128280E048
:103B70000F90DF91CF911F910F91FF90EF900895DB
:103B8000828187708130C9F40BE811E0C801019788
:103B9000F1F76EEE87810E94541DC8010197F1F77D
:103BA00060E8F70187810E94541DC8010197F1F771
:103BB00060E0F70187810E94241D8BE891E0019766
:103BC000F1F781E0D5CF2F923F924F925F926F92A3
:103BD0007F928F929F92AF92BF92CF92DF92EF929D
:103BE000FF920F931F93CF93DF93CDB7DEB7AF97BD
:103BF0000FB6F894DEBF0FBECDBF1C0180913C070D
:103C000081116DC080913D07811169C00AE317E001
:103C10003CE3C32E37E0D32EF12CE12CD8018D915B
:103C20008D0181110CC0F701EA56FF4FE20DF31D23
:103C3000808191810E949C1DF80131978083F6015B
:103C400081936F0180913C07811104C080913D07F1
:103C5000882371F0809197019091980182309105AD
:103C600038F0880F991F880F991F05970197F1F772
:103C7000F2E0EF0EF11C34E0E316F10479F681E096
:103C80000E94EB1207E027E04FE760E08AEF97E041
:103C90000E94A60C67E08AEF97E00E94030B60E0A9
:103CA0008AEF97E00E940F0B80913C07882309F46C
:103CB00062C041E060E0C1010E94F40F62E48AEF5B
:103CC00097E00E940F0B90913C0780913D07911166
:103CD00059C0811157C08CE793E00E94720C1E8A74
:103CE0001F8A10E0510144E9A40EB11C44244394FE
:103CF000BBE88B2E9924939480919601181708F0B5
:103D0000E1C0C12ED12CF601E55BFF4FEE0FFF1F86
:103D1000E20DF31DE080F180D501ED92FC92F601F9
:103D2000E85CF84FFA8FE98F1082F601E45CF84FF7
:103D30008081882309F4C4C0A601465C584F3A012B
:103D4000DA015C90511029C0C7010E949C1D882394
:103D500009F4B6C0F3014082612FC1010E940B1328
:103D600041E0612FC1010E94F40FAAC088E793E0EF
:103D70000E94720CA3CF80913D078111F7CF8CE791
:103D800093E0F6CF811103C088E793E0A6CF41E02E
:103D900061E0C1010E94F40FA2CFD7018D919C91E7
:103DA000892BB1F1F7016281862F8770813099F4F8
:103DB00063FB882780F990912F07891761F0C40170
:103DC0000197F1F763FB662760F987810E94241D44
:103DD000C4010197F1F7F701828183FB882780F9FD
:103DE00080932F078781488E04E097012D5F3F4F16
:103DF00041E0BE01685E7F4F0E94F4048430A9F068
:103E0000D7011C9211961C92119712961C9205C014
:103E1000C7010E949C1D8111C5CFD3011C92612F47
:103E2000C1010E940B1340E09CCFF501808191817C
:103E30000E94BA082F87388B498B5A8B6B8B7C8BEF
:103E40008D8B8F859889892B41F3A98DBA8D4C92E2
:103E5000B7E0BC9D7001BD9DF00C1124E1E0F0E0E5
:103E6000EC0FFD1FEE0EFF1ED5018D919C910E945F
:103E7000BA08F701208331834283538364837583B7
:103E80008683D10117968C9181111AC0F501A0810A
:103E9000B181CC0CDD1CCC0CDD1CF101EC0DFD1D49
:103EA00085A9811106C05524539487A9811101C0A9
:103EB000512C12968C91129750FA83F912968C938A
:103EC0001F5F1ACFD12CA10146565F4F5FA34EA3AF
:103ED000C10185569F4F99A788A7D101A356BF4F0F
:103EE000BBA7AAA7F101E456FF4FFDA7ECA74C58CA
:103EF0005F4F5FA74EA780919601D81608F086C243
:103F00006D2C712CF301E65CF84F8081882309F455
:103F10005CC287E0869DF001879DF00D112481E051
:103F200090E08C0F9D1FE80FF91F2381822F82954F
:103F30008F7090E0982F88279295907F2F7030E0B7
:103F4000322F2227820F931F2481422F42954F70D8
:103F5000A0E14A9FA0011124840F951F2F70AC018E
:103F6000420F511D5A8F498FC301880F991F9C8F93
:103F70008B8FDC01AC5CB84F8D919C912581D30176
:103F8000AE5CB84FB9A3A8A33C91231308C04681E7
:103F9000F301E05DF84F3081431709F454C2E6E1C4
:103FA000F0E0EC0FFD1FE60DF71D31E0498D5A8D55
:103FB0008417950709F430E0308387E0869DF0018F
:103FC000879DF00D112481E090E08C0F9D1FE80F7C
:103FD000F91F938193FB882780F992FFF8C192E043
:103FE000892B97E0969DF001979DF00D1124A1E09B
:103FF000B0E0AC0FBD1FEA0FFB1F938191FFE9C139
:1040000094E0892B97E0969DF001979DF00D112487
:1040100041E050E04C0F5D1FE40FF51F938190FFCE
:10402000DAC198E03FE0369DF001379DF00D112494
:10403000E20DF31D892B808B87E0869DF001879D23
:10404000F00D112481E090E08C0F9D1FE80FF91F07
:10405000848182FB992790F99E8F1F8E80FFBDC1BE
:1040600082E090E0AE8DBF8D8A2B9B2B37E0369D92
:10407000F001379DF00D112441E050E04C0F5D1F21
:10408000E40FF51F348144E050E031FD02C050E000
:1040900040E0842B952B37E0369DF001379DF00DE5
:1040A0001124A1E0B0E0AC0FBD1FEA0FFB1F34816B
:1040B00048E050E033FD02C050E040E0842B952BF7
:1040C00037E0369DF001379DF00D112441E050E0BE
:1040D0004C0F5D1FE40FF51F348140E150E035FDCA
:1040E00002C050E040E0842B952B37E0369DF00174
:1040F000379DF00D1124A1E0B0E0AC0FBD1FEA0F19
:10410000FB1F348140E250E034FD02C050E040E04B
:10411000842B952B37E0369DF001379DF00D11244F
:1041200041E050E04C0F5D1FE40FF51F338140E488
:1041300050E036FD02C050E040E0842B952B37E084
:10414000369DF001379DF00D1124A1E0B0E0AC0FD9
:10415000BD1FEA0FFB1F338140E850E037FD02C06E
:1041600050E040E0842B952B37E0369DF001379DE1
:10417000F00D112441E050E04C0F5D1FE40FF51FDE
:10418000338140E051E035FD02C050E040E0842B37
:10419000952B37E0369DF001379DF00D1124A1E0FD
:1041A000B0E0AC0FBD1FEA0FFB1F338140E052E0CF
:1041B00034FD02C050E040E03FE0369DF001379D05
:1041C000F00D1124E20DF31D842B952B928B818B26
:1041D0002F3B0CF005C187E0869DF001879DF00D17
:1041E000112441E050E04C0F5D1FE40FF51F8FEBF1
:1041F000858387E0869DF001879DF00D1124A1E065
:10420000B0E0AC0FBD1FEA0FFB1F86818F3B0CF0A7
:10421000F8C08FEB8683EEA1FFA18080082C000CF4
:104220009908AA08BB0887E0869DF001879DF00DDC
:10423000112441E050E04C0F5D1FE40FF51F558144
:104240005D8F252F550F330B440B550B281939095A
:104250004A095B09AFEFB0E00E941832A8A5B9A5E2
:104260002C91022E000C330B440B550B28193909E5
:104270004A095B090E94F931822F2757233108F43C
:1042800080E890E02FE0269DF001279DF00D11249D
:10429000E20DF31D382F2227820F931F968B858BFB
:1042A000EAA5FBA5E0800E2C000CFF08000B110B0B
:1042B00087E0869DF001879DF00D112441E050E0DC
:1042C0004C0F5D1FE40FF51F9680292D092C000C63
:1042D000330B440B550B2E193F09400B510BAFEF1D
:1042E000B0E00E941832ACA5BDA52C91022E000CA6
:1042F000330B440B550B2E193F09400B510B0E94F9
:10430000F931822F2757233108F480E890E02FE01D
:10431000269DF001279DF00D1124E20DF31D382F8D
:104320002227820F931F908F878B2101BEE94B0EAE
:10433000511CA98DBA8DCD01B0E0A0E08AA39BA34A
:10434000ACA3BDA3EB8DFC8DEE50FB4FB080F20112
:10435000E080F180028113818AA19BA1ACA1BDA163
:104360008E219F21A023B123CC24C394892B8A2B97
:104370008B2B09F4C12C1F92D20117968C901797A2
:104380001696AC90169714962C91149715964C91FE
:104390006B2D8D2D0E94EA0CB8E04B0E511C0F9036
:1043A000EEA5FFA5E415F50591F6EB8DFC8DEC5C13
:1043B000F84F498D5A8D51834083ED8DA8A1B9A145
:1043C000EC93F301E05DF84F9082D39494CD90E0AC
:1043D00007CE90E016CE90E025CE90E080E042CE71
:1043E00022340CF406CF87E0869DF001879DF00D06
:1043F000112481E090E08C0F9D1FE80FF91F81E4EC
:10440000F7CE82340CF407CF81E404CF8E8981117A
:1044100001C08F89AF960FB6F894DEBF0FBECDBF37
:10442000DF91CF911F910F91FF90EF90DF90CF9090
:10443000BF90AF909F908F907F906F905F904F90C4
:104440003F902F900895E98DFA8D8E179F0709F4FC
:10445000BCCFA5CD0E947F33EF92FF920F931F93A5
:10446000CF93DF9300D0CDB7DEB78091E0078823EC
:1044700009F4DBC08091E9008F709091EC0090FF0F
:104480004FC090E8F92EF82A1092E9008091E800D8
:1044900083FFC7C0EEEDF6E08091F100819326E046
:1044A000E63EF207C9F7E090DF0681E0E8121DC0A2
:1044B0008091DE06813AC9F48091E800877F80937D
:1044C000E8008091E0069091E1068115934051F556
:1044D00068E070E080E091E00E942F1CE092EA0723
:1044E0008091E8008B778093E8008091E80083FF5B
:1044F0008AC08091DE069091DF069A3008F083C072
:10450000E92FF0E0EA57FD4D0C945432D622FC22FC
:104510000323FC2203235D237F230323B225BF252E
:1045200090E0B0CFE091DF07E730D0F6F0E0E5565D
:10453000FD4D0C945432A222A922AE22B322B822FD
:10454000BD22D12264E170E08EED95E00E942F1C27
:10455000C7CF60E470E08BEC95E0F8CF60E470E0EA
:1045600083EC95E0F3CF60E470E08BEB95E0EECF69
:1045700060E470E084EB95E0E9CF81E08093B005E2
:1045800082E08093AD058091E2069091E30660E4BD
:1045900070E0892B19F480EB95E0D8CF8DEA95E097
:1045A000D5CF60E470E088EA95E0D0CF803889F01C
:1045B000823849F58091E2068F70873020F580932C
:1045C000E9008091EB0085FB882780F91092E900D3
:1045D00004C08091520781110DC09091E800977F2F
:1045E0009093E8008093F1001092F1008091E80030
:1045F0008E7732C082E0F1CF282F2D7F21F48823DF
:10460000E9F0823071F18091E80083FF0AC0809167
:10461000E800877F8093E8008091EB0080628093C0
:10462000EB008F2D8F708093E9000F900F90DF913A
:10463000CF911F910F91FF90EF9008958091E00628
:10464000813009F7933009F080E08093520710928F
:10465000E9008091E800877F8093E8000E94BD1CFC
:10466000D2CF8091E0068111F2CF8091E2068F7067
:104670002FEF280F263038F68093E9002091EB00C9
:1046800020FFE5CF933031F48091EB00806280937E
:10469000EB00DDCF9091EB0090619093EB0021E077
:1046A00030E001C0220F8A95EAF72093EA001092C9
:1046B000EA008091EB008860EACF8111A4CF1091CD
:1046C000E0061F778091E3008078812B8093E300E0
:1046D0008091E800877F8093E8000E94BD1C809154
:1046E000E80080FFFCCF8091E30080688093E300C6
:1046F00083E0111101C082E08093E00784CF8058ED
:10470000823008F080CF2091E0063091E1061A82D5
:104710001982832F99278330910509F41CC1D0F4A5
:1047200081309105A9F1029709F45DC069817A8110
:104730006115710509F467CF8091E800877F809348
:10474000E800C8010E942F1C8091E8008B778093BD
:10475000E80059CF8132910509F49FC1829731F762
:104760008091DF07843009F4E7C108F0BBC18130D4
:1047700009F4C8C1833009F4D4C146E450E06AE6C4
:1047800071E088E496E00E94DA3186E490E0C4C1EA
:104790008091DF07882399F0813001F1009158075B
:1047A0001091590742E150E065EC70E082EF95E02E
:1047B0000E94DA310093FE051093FF0508C042E124
:1047C00050E069EE70E082EF95E00E94DA3182E11C
:1047D00090E09A83898302EF15E0A8CF42E150E090
:1047E00067ED70E0F0CF009157071091DF071130AF
:1047F00009F456C008F44DC0153009F496C01350A2
:10480000143008F0A1C0E12FF0E0E254FB4F10811A
:1048100049E050E064E171E084E096E00E94DA3122
:1048200099E1099F902D1124975F909306060093BC
:104830000806002309F48AC049E150E06BEF70E0FC
:104840008DE096E00E94DA3110920F0610931D065B
:1048500081E880932106023008F478C049E150E0F5
:104860006BEF70E086E296E00E94DA3181E080939F
:1048700028061093360682E880933A06023009F43F
:1048800065C049E150E06BEF70E08FE396E00E9475
:10489000DA3181E390E09A8389830DE814E046CF12
:1048A00049E050E068E571E084E096E00E94DA318A
:1048B00099E1099F902D1124975F9093060600932C
:1048C0000806002361F149E150E06FE371E08DE0FB
:1048D00096E00E94DA3110920F064CE6E42EE09248
:1048E0001D0681E8809321060230C8F049E150E0BE
:1048F0006FE371E086E296E00E94DA3110932806B9
:10490000E092360682E880933A06023041F049E1AF
:1049100050E06FE371E08FE396E00E94DA31B9E195
:104920000B9FC001112409960AC042E250E06DE1DC
:1049300071E084E096E00E94DA3182E290E09A83AE
:10494000898304E016E0F2CE16E462CFE9E10E9F1F
:10495000C0011124E8CFC90199278230910549F19E
:104960008330910509F441C08130910509F04AC0B6
:104970008091DF07813089F444E351E0DA010D9042
:104980000020E9F7AD014553514064E371E0CE01E9
:1049900001960E9422278C01C9CE47E251E0FA011C
:1049A00001900020E9F7AF014852514067E271E001
:1049B000EECF8091DF07813061F445E151E0DA010B
:1049C0000D900020E9F7AD014651514065E171E0DD
:1049D000DECF48E051E0FA0101900020E9F7AF0195
:1049E0004950514068E071E0D2CF60915507709115
:1049F0005607FB0101900020E9F73197AF01461BF4
:104A0000570BC5CF6BE874E0E1E0222331F125308C
:104A100039F522ED34E0E0E0FCE0FE0FD9011D9114
:104A20009D018E2F90E0019670E060E0412F42954D
:104A30004F7050E04F565A4FDA014C91DC014C93C5
:104A4000EE5F90E0A12FAF70B0E0AF56BA4F4C913F
:104A5000DC0111964C93EF13E1CF4E2F50E097CF2E
:104A60002091DF07880F991F222329F0213049F078
:104A70008E539B4F02C088529B4FFC016081718115
:104A800005C086539B4FDC016D917C91FB01019029
:104A90000020E9F73197E61BE0CF1091DF0749E0EE
:104AA00050E061E671E08FE396E00E94DA318BE539
:104AB000143079F040F48CE6113059F089E5133068
:104AC00041F086E406C081E5153019F087E3163021
:104AD000C1F78093460689E090E09A8389830FE3CB
:104AE00016E024CE853099F1863009F046CE47E3B2
:104AF00050E060EB71E088E496E00E94DA3187E3F1
:104B000090E00AC04CE650E06CEE72E088E496E07B
:104B10000E94DA318CE690E09A83898308E416E0FB
:104B200005CE49E550E063E972E088E496E00E9432
:104B3000DA3189E590E0F0CF4BE550E068E372E0D0
:104B400088E496E00E94DA318BE590E0E5CF41E51C
:104B500050E067EE71E088E496E00E94DA3181E58A
:104B600090E0DACF803809F04ECD8091E800877F61
:104B70008093E800809153078093F10037CD811135
:104B800042CD1091E006123008F03DCD8091E80052
:104B9000877F8093E800109353070E94BD1C112368
:104BA000F9F084E08093E0070091DF070023F1F043
:104BB00042E360EC82E00E94DC1C11E08091570728
:104BC000811708F420CD812F8F70873020F442E3C5
:104BD00061EC0E94DC1C053009F415CD1F5FEECF9F
:104BE0008091E30087FDDDCF81E0DCCF42E261EC24
:104BF00081E00E94DC1C46E260EC82E00E94DC1C4A
:104C000002CD0F931F93CF93DF938C01EB01809123
:104C1000E80085FD10C08091E8008B778093E80064
:104C20000E942C220E948E1C882389F3DF91CF9151
:104C30001F910F9108958091F100F80181938F01E8
:104C4000219729F780E0F2CF1F920F920FB60F92B3
:104C500011242F933F938F939F93AF93BF93809192
:104C6000F2079091F307A091F407B091F507309106
:104C7000F10723E0230F2D3758F50196A11DB11D33
:104C80002093F1078093F2079093F307A093F40722
:104C9000B093F5078091F6079091F707A091F80778
:104CA000B091F9070196A11DB11D8093F60790936D
:104CB000F707A093F807B093F907BF91AF919F91C1
:104CC0008F913F912F910F900FBE0F901F901895CD
:104CD00026E8230F0296A11DB11DD2CF1F920F927D
:104CE0000FB60F9211242F933F934F935F936F93BF
:104CF0007F938F939F93AF93BF93EF93FF93809195
:104D0000DA0080FF17C08091D80080FF13C0809127
:104D1000DA008E7F8093DA008091D90080FF86C010
:104D200080E189BD82E189BD09B400FEFDCF81E04B
:104D30008093E0078091E10080FF17C08091E2003E
:104D400080FF13C08091E2008E7F8093E20080910B
:104D5000E20080618093E2008091D80080628093BD
:104D6000D80019BC85E08093E0078091E10084FFC2
:104D700026C08091E20084FF22C080E189BD82E1EB
:104D800089BD09B400FEFDCF8091D8008F7D80934E
:104D9000D8008091E1008F7E8093E1008091E20055
:104DA0008F7E8093E2008091E20081608093E20038
:104DB000809153078823F1F184E08093E00780918C
:104DC000E10083FF22C08091E20083FF1EC080913A
:104DD000E100877F8093E10082E08093E0071092FA
:104DE00053078091E1008E7F8093E1008091E20083
:104DF0008E7F8093E2008091E20080618093E200E8
:104E000042E360E080E00E94DC1CFF91EF91BF91E3
:104E1000AF919F918F917F916F915F914F913F9152
:104E20002F910F900FBE0F901F90189519BC1092E4
:104E3000E00780CF8091E30087FD02C081E0BDCF15
:104E400083E0BBCFCF93DF93DC014032510514F0F8
:104E50004FE150E090E0292F30E02417350784F02F
:104E60004F5F5F4F440F551F4D935C9353605093BA
:104E7000E7064093E60686EE96E0DF91CF9108952F
:104E8000F901EE0FFF1FE851F94F260F371FE90117
:104E90002881022E000C330B318320839F5FDBCFF0
:104EA000CF93DF93CDB7DEB729970FB6F894DEBF67
:104EB0000FBECDBF789484B5826084BD84B5816017
:104EC00084BD85B5826085BD85B5816085BD8091D5
:104ED0006E00816080936E0010928100809181004D
:104EE0008260809381008091810081608093810045
:104EF0008091800081608093800080919100826029
:104F000080939100809191008160809391008091C5
:104F100090008160809390008091C10084608093B4
:104F2000C1008091C10082608093C1008091C10066
:104F300081608093C1008091C30081608093C30031
:104F40008091C00082608093C0008091C200816027
:104F50008093C20080917A00846080937A0080916F
:104F60007A00826080937A0080917A0081608093D9
:104F70007A0080917A00806880937A0056985E9AD1
:104F80001092EA0790E080E00E94E331873008F059
:104F900046C08093E4078091E407833009F49EC003
:104FA00008F03FC0813009F44BC0823009F483C05F
:104FB00010920B088CE380930A081092B90084E4E5
:104FC0008093BC008CE08093B8001092FE07109292
:104FD000FF07E3EAF6E0C590D490E5EAF6E0F49046
:104FE000E6EAF6E0E491E0930008E7EAF6E0E4910F
:104FF000E0930108E8EAF6E0E491E093020810E0AB
:1050000000E00F1508F0D2C0F601E00FF11F649127
:105010008AEF97E00E94FB0A0F5F1F4FF2CF81E0FB
:10502000B8CF853029F008F48FC0863009F0C0CFA2
:1050300083EE90E00E945A328C010E94810836C0B3
:1050400083EA91E00E945A328C010E94860388E034
:1050500095E0D8018D939C93F801EC56FF4F138295
:1050600014828AE03596DF01B82E1D92BA94E9F7D2
:105070003A96138214823596DF011D928A95E9F7DC
:105080003A961082D801AD54BF4F80E8E0E0F2E0DC
:1050900001900D928A95E1F7D801AD5CBE4F80E793
:1050A000E0E8F2E001900D928A95E1F71093EC07A9
:1050B0000093EB077DCF8EEE90E00E945A328C0178
:1050C0000E9486038AE195E0F80191838083D801EC
:1050D000A256BF4F80E5E0EFF2E0E4CF8EE091E032
:1050E0000E945A328C010E9486038CE295E0D8011E
:1050F0008D939C9388E090E00E945A3225E1FC0158
:105100002783F801EA56FF4F9183808388E090E07F
:105110000E945A3225E0DC0117962C93F801E856DC
:10512000FF4F9183808332969FEB9083319681E489
:1051300080833196908331968083D801A256BF4FE9
:1051400080E7E0E4F3E0AECF8AEF90E00E945A32CD
:105150008C010E9486038EE395E0F80191838083A1
:1051600086E190E00E945A3225E1DC0155962C93AD
:10517000F801EC56FF4F9183808386E190E00E9416
:105180005A3225E0FC01258BF801EA56FF4F918346
:10519000808332968EE18083319681EE8083D801C0
:1051A000A656BF4F80E6E0EBF3E07CCF8AEF97E0B6
:1051B0000E94DB0C61E88AEF97E00E94FB0A61E045
:1051C0008AEF97E00E94FB0AE8EBF4E0F093060810
:1051D000E09305088491E9EBF4E0E491F82F31972E
:1051E00009F0F1C0109203088AEF97E00E94DB0CEF
:1051F00011E0109308086EE18AEF97E00E940F0B10
:1052000082E08093080881EB94E00E94720C109376
:10521000080862E08AEF97E00E94030B0E94A01248
:1052200081E090E00E94E331873008F080E0A091B7
:10523000EB07B091EC0717968C931797ED91FC91C3
:1052400011970190F081E02DCD01099564E170E0A6
:1052500080E090E00E94F2038091EB079091EC07D0
:10526000DC01ED91FC910280F381E02D099564E170
:1052700070E080E090E00E94F2038091EB07909153
:10528000EC07DC01ED91FC910280F381E02D0995A2
:10529000A091EB07B091EC0751968C91519780FF4C
:1052A00096C081E017968C9317974E99B6C01796C3
:1052B0001C918AEF97E00E94DB0C45E050E062EA27
:1052C00075E08AEF97E00E9424040E94101D6CEDA7
:1052D00075E080E090E00E94F2038AEF97E00E9480
:1052E000DB0C84EA94E00E94181D86E994E00E9499
:1052F000181D89E894E00E94181D64EF71E080E0B9
:1053000090E00E94F20381E0812C912C540101E095
:10531000FF24F3944E9961C0F12C813089F48FB74A
:10532000F8948090F2079090F307A090F407B09063
:10533000F5078FBF60E170E080E090E00E94F2032B
:105340002FB7F8948091F2079091F307A091F4079A
:10535000B091F5072FBF88199909AA09BB09893EA1
:105360009340A105B10510F40C94C6318AEF97E083
:105370000E94DB0C81E894E00E94181D8AE794E00B
:105380000E94720C812F0E948D0C0E94101D0E94A1
:10539000101D86E694E00E94720C60ED77E080E0DC
:1053A00090E00E94F203612F81E090E00E94EB31D7
:1053B00088E19EE00FB6F894A895809360000FBE38
:1053C00090936000FFCF81E0809303080DCF81FFB1
:1053D0006CCF17961C92179768CF81110C94C3312C
:1053E00060E170E080E090E00E94F20381E0011152
:1053F00006C0882379F01F5F133008F010E007E043
:1054000025E04FE760E08AEF97E00E94A60C812F2D
:105410000E948D0C00E08F2D7BCFED91FC911197B8
:105420000484F585E02DCD01099561E08AEF97E0D0
:105430000E94030B60E08AEF97E00E940F0BE0915F
:10544000EB07F091EC07878181111DC188E50E946F
:10545000A10C8091EB079091EC0721E032E0DC0198
:1054600014963C932E931397ED91FC910084F18553
:10547000E02D09958C018091EB079091EC07DC0100
:10548000ED91FC910284F385E02D09952091960120
:10549000E091EB07F091EC0737813093DF079093B1
:1054A0005907809358072093570710935607009386
:1054B000550784B7877F84BF0FB6F894A89580916D
:1054C0006000886180936000109260000FBE80E8E9
:1054D00030E020E00FB6F8948093610020936100E3
:1054E0000FBE8091D8008F7E8093D8008091D70026
:1054F00081608093D70084E082BF81E0809354076D
:105500008091D8008E7F8093D8001092E200109294
:10551000DA001092E1008091D8008F778093D80054
:105520008091D80080688093D8008091D8008F7DCA
:105530008093D80019BC1092E00710925307109284
:1055400052078091E0008B7F8093E0008091D8002B
:1055500081608093D80042E360E080E00E94DC1C20
:105560008091E1008E7F8093E1008091E200816074
:105570008093E2008091E20088608093E200809155
:10558000E0008E7F8093E0008091D800806180935E
:10559000D80078940E94CD030091ED071091EE079A
:1055A0002091EF073091F007AB01BC01401B510B7C
:1055B000620B730B8091970190919801B0E0A0E08D
:1055C000C12C481759076A077B07B0F08091EB0799
:1055D0009091EC07DC01ED91FC910280F381E02DCC
:1055E0000995C82E0E94CD036093ED077093EE07D6
:1055F0008093EF079093F007D12C80919601D816F5
:1056000008F01CC68091EB079091EC07DC01ED914E
:10561000FC910680F781E02D6D2D09950091EB0737
:105620001091EC07ED2CF12CF8018781843009F4FE
:1056300087C108F037C0882309F469C093E181303D
:1056400009F400C298E0833009F0B8C18FE08E9D64
:10565000F0018F9DF00D1124E00FF11FE089EF7034
:10566000E150EA3008F0A9C3F0E0E75CF44D0C9497
:105670005432682ED52EDD2ED92EDB2ED72EDD2EE0
:10568000D12ECD2ED32E813011F483E5E0CE8230A1
:1056900011F488E4DCCE8350843010F48DE4D7CE4E
:1056A00085E4D5CE853009F469C195E0863009F0EE
:1056B000C9CF8FE08E9DF0018F9DF00D1124E00F7A
:1056C000F11F21893289A9014170552782E021FF0C
:1056D00080E0842B22FF67C424E0822B80935A074A
:1056E0008FE08E9DF0018F9DF00D1124E00FF11FD2
:1056F0002589368930935C0720935B072789308D95
:1057000030935E0720935D072AE537E08EC094E171
:105710008FE08E9DF0018F9DF00D1124E00FF11FA1
:105720002089822F817032E021FF30E0832B34E02A
:1057300022FF30E0832B23FF6FC128E0822B2FE074
:105740002E9DF0012F9DF00D1124E00FF11F2189F6
:10575000328940E131FF40E0842B40E230FF40E0FD
:10576000842B40E432FF40E0842B40E833FF40E0EC
:10577000842B80935201A901E4E056954795EA9560
:10578000E1F7417082E025FF80E0842B44E034FFA4
:1057900040E0842B40E120FF40E0842B40E221FFE9
:1057A00040E0842B40E422FF40E0842B40E823FFCC
:1057B00040E0842B809353018FE08E9DF0018F9DFC
:1057C000F00D1124E00FF11F458956895058509370
:1057D0005701409356014FEF5FE76789708DDA01FB
:1057E000A61BB70BB0935901A0935801618D728D20
:1057F000705870935B0160935A01638D748D461BE2
:10580000570B50935D0140935C01D801AE0DBF1D55
:105810009E968C91882309F401C1858D8093540153
:10582000868D8093550120E531E03093E307209386
:10583000E2079093E1078091E007843009F074C09B
:1058400082E08093E9008091E80082FF2AC0809185
:10585000E80085FF21C08091DF078111C2C40E944A
:105860008E1C811108C050E040E068E070E0CE017D
:1058700001960E940126898181110EC08A8188309B
:1058800059F4F701EE0FFF1FEE0FFF1FE00FF11F9E
:105890008C8185AB8D8187AB8091E8008B7780937D
:1058A000E800870186E0000F111F8A95E1F7015A91
:1058B000184F4091E10750E06091E2077091E307D3
:1058C000C8010E948433892B79F18091DF078530EC
:1058D00009F094C481E08093E9008091E80080FFA2
:1058E00023C0E090E107A090E207B090E3070E9498
:1058F0008E1CF12C882309F494C48091E8008E77E3
:105900008093E800E090E107F12CA090E207B090CE
:10591000E307A701B501C8010E949133A70170E018
:1059200060E0C5010E949A330E942C22E091EB07AF
:10593000F091EC078781882309F480C4D3945DCE6D
:1059400097E08FE08E9DF0018F9DF00D1124E00F08
:10595000F11FE089EF70E150EA3008F09BC2F0E0FF
:10596000EC54F34D0C945432DF2E422F4A2F462F25
:10597000482F442F4A2F3E2F3A2F402F94E0DD200E
:1059800019F093E0D11002C381E080938601D80121
:105990005096EC91EF70E150EA3008F0F2C2F0E07E
:1059A000EC52F34D0C9454324C2FB92FC12FBD2F14
:1059B000BF2FBB2FC12FB52FB12FB72F843018F5B4
:1059C000882309F4A5CE813009F43CC08FE08E9D78
:1059D000F0018F9DF00D1124E00FF11FE089EF70B1
:1059E000E150EA3008F0F8C3F0E0E750F34D0C94D2
:1059F0005432D52FE430EC30E830EA30E630EC3089
:105A0000E030DC30E230853009F4BCCF08F499CFC7
:105A1000863009F44ECEDACF20E090CEA90166E0C0
:105A2000569547956A95E1F7417041954093540129
:105A3000220F232F221F330B3195217021952093A4
:105A40005501F1CE8FE08E9DF0018F9DF00D112458
:105A5000E00FF11F8089E82FEF70E150EA3008F085
:105A600028C1F0E0EA5CF24D0C945432402D512EE6
:105A7000592E552E572E532E592E4D2E492E4F2E20
:105A8000109266012FE02E9DF0012F9DF00D112444
:105A9000E00FF11F218932891901B1E02B22332453
:105AA000E2E0F0E020FD02C0F0E0E0E0B901627069
:105AB0007727A4E0B0E021FD02C0B0E0A0E05901EA
:105AC000B694A794B694A7944A2D41704987AF0124
:105AD000B9844B294A2B5B2BF901E870FF27A8E01A
