:100000000C946F030C9497030C9497030C94970330
:100010000C9497030C9497030C9497030C949703F8
:100020000C9497030C9497030C940D270C9497034E
:100030000C9497030C9497030C9497030C949703D8
:100040000C9497030C9497030C9497030C949703C8
:100050000C9497030C9497030C9497030C947526B7
:100060000C9497030C9497030C9497030C949703A8
:100070000C9497030C9497030C9497030C94970398
:100080000C9497030C9497030C9497030C94970388
:100090000C9497030C9497030C9497030C94970378
:1000A0000C9497030C9497030C949703AED580A8F7
:1000B0003FD300408D142002A1C8DA12817FD9F10C
:1000C000DB40A4A6AF1201000200000040D0167E63
:1000D0001200010102030112010002000000400DA4
:1000E0000F920000010102030112010002FFFFFF55
:1000F000405E048E021401010203010904000001A4
:1001000003000000092111010001224600070581BA
:10011000034000010902220001010080320902228D
:100120000001010080320904000001030000000901
:10013000211101000122510007058103400001093E
:1001400004000001030000000921110100012256F2
:100150000007058103400001090229000101008018
:10016000FA09211101000122460005010905A1013A
:10017000150025013500450175019518050919017E
:100180002918810205012507463B01750495016583
:10019000140939814265009501810126FF0046FF5F
:1001A000000930093109350936750895048102C006
:1001B00005010905A10105091901290315002501FA
:1001C0007501950355006500810275019505810350
:1001D00005010901150026FF0375109502A100090C
:1001E0003009318102C0C005010905A1018501A1C5
:1001F0000005091901290C150025019510750181CB
:100200000205010939150025073500463B0175082F
:10021000950165148142C0C005010902A101850252
:100220000901A100093009311581257F3581457FFC
:10023000950275088106C0C005010904A101A1004D
:100240000509190129101500250195107501810274
:1002500005010901A100093009311580257F9502AA
:1002600075088102C009371580257F9501750881C1
:10027000060938150026FF00950175088102093925
:10028000150025073500463B017508950165148169
:1002900042C0C005010905A1011500250135004531
:1002A000017501950E05091901290E81029502813A
:1002B0000105012507463B017504950165140939BF
:1002C000814265009501810126FF0046FF0009304B
:1002D000093275089502810205027508950315001B
:1002E00026FF0009BB09C509C88102C0050109052F
:1002F000A10115002501350045017501951005097D
:1003000019012910810205012507463B0175049555
:100310000165140939814265009501810126FF00BC
:1003200046FF000930093109320935750895048105
:10033000020600FF092009210922092309240925B1
:100340000926092709280929092A092B950C810260
:100350000A21269508B102C056424F59004E545406
:1003600000534E4553004E4553004D554C54492DB6
:10037000544150004A4F47434F4E00464C4947486E
:1003800054535449434B004455414C53484F434BFD
:10039000004A4554004449474954414C004E4547A2
:1003A000434F4E00504F50204E00504144004E2FBE
:1003B00041004E4F4E450053574954434800455263
:1003C000524F52004849440058494E505554002B52
:1003D0004E454700505358004E3634204D4F52453D
:1003E0002052414E4745004E45532B534E45532B0B
:1003F00056424F5900000000002300260029002C1F
:10040000002F0000030C0F30333C3FC0C3CCCFF0B3
:10041000F3FCFF0000000200090F000003040100CC
:100420000C000000000000000000000000000000C0
:1004300000004445564943452057494C4C205245FD
:100440005354415254004D4F44453A2000534156B5
:100450004544210A00484F4C443A20205341564518
:100460000A0050524553533A204348414E474500F5
:100470004F5554505554204D4F44450A005245465F
:100480004C455800000005072061000000000000F6
:10049000005F000060707870606050485060030733
:1004A0000F07030305090503081C3E7F7F081C2274
:1004B000417F7F7F3E1C087F41221C08082A1C2A9E
:1004C0000808083E0808005030000008080808081E
:1004D000006060000020100804023E5149453E00C3
:1004E000427F400042615149462141454B31181439
:1004F000127F1027454545393C4A49493001710969
:1005000005033649494936064949291E0036360051
:10051000003C7E7E7E3C3C4242423C141414141447
:10052000F0F0F0F0F0F0909090F0324979413E7E9A
:100530001111117E7F494949363E414141227F4197
:1005400041221C7F494949417F090901013E41413E
:1005500051327F0808087F00417F41002040413F21
:10056000017F081422417F404040407F0204027F07
:100570007F0408107F3E4141413E7F090909063E44
:100580004151215E7F0919294646494949310101F6
:100590007F01013F4040403F1F2040201F7F201827
:1005A000207F6314081463030478040361514945F0
:1005B0004300007F4141020408102041417F0000B8
:1005C000383C1E0F074040404040382412090720A5
:1005D000545454787F484444383844444420384480
:1005E00044487F3854545418087E090102081454B2
:1005F000543C7F0804047800447D40002040443D82
:1006000000007F10284400417F40007C04180478DB
:100610007C0804047838444444387C1414140808D2
:100620001414187C7C080404084854545420043FD3
:100630004440203C4040207C1C2040201C3C40305A
:10064000403C44281028440C5050503C4464544CC6
:1006500044E0E0E0E0E000007F0000E0A0A0A0E0D7
:1006600008082A1C08081C2A08080006090906AC04
:1006700000198040005245424F4F54494E472E2E9C
:100680002E0000000000250028002B002E00310065
:1006900000000000240027002A002D003000040480
:1006A000040404030405020202020403020202021B
:1006B00006060606060604040202020404040802F2
:1006C00001104080401020408040800802040180DA
:1006D000402010020110801020404020543211248C
:1006E0001FBECFEFDAE0DEBFCDBF15E0A0E0B1E086
:1006F000E2E6F8E602C005900D92A63EB107D9F7F2
:1007000028E0A6EEB5E001C01D92A834B207E1F7DB
:1007100013E0CFE6D3E004C02197FE010E94E2324D
:10072000CE36D107C9F70E94EF270C942F340C94D2
:100730000000CF93DF93EC0180E695E099838883F6
:100740001A8280E093E09C838B8380E09CE09E8310
:100750008D831F82188681E089878EE1EAEAF1E0C5
:10076000DE01509601900D928A95E1F71FA61EA614
:1007700019AA18AA1BAA1AAAFE01F49688E0DF019A
:100780001D928A95E9F71CAE1DAE1FAE1EAE3C96BB
:100790001182108232968FEF9FE791838083329689
:1007A0009183808332969183808332969183808374
:1007B00032961082C55BDF4F1882DF91CF9108958A
:1007C00090E0FC01E354F94F24918256994FFC01CB
:1007D0008491882399F090E0880F991FFC01E057DD
:1007E000F94FA591B491FC01EE57F94F8591949181
:1007F0008FB7F894EC91E22BEC938FBF08953FB73D
:10080000F89480912E0890912F08A0913008B09113
:10081000310826B5A89B05C02F3F19F00196A11DF0
:10082000B11D3FBFBA2FA92F982F8827BC01CD013A
:10083000620F711D811D911D42E0660F771F881F99
:10084000991F4A95D1F708958F929F92AF92BF92C8
:10085000CF92DF92EF92FF924B015C010E94FF0367
:100860006B017C010E94FF036C197D098E099F09B1
:10087000683E734081059105A8F321E0821A910832
:10088000A108B10888EEC80E83E0D81EE11CF11C57
:1008900081149104A104B10429F7FF90EF90DF9037
:1008A000CF90BF90AF909F908F9008952FB7F894FE
:1008B00060912A0870912B0880912C0890912D0846
:1008C0002FBF0895AF92BF92CF92DF92EF92FF9227
:1008D0000F931F93CF93DF936C017B018B01040F68
:1008E000151FEB015E01AE18BF08C017D10759F004
:1008F0006991D601ED91FC910190F081E02DC60146
:100900000995892B79F7C501DF91CF911F910F913F
:10091000FF90EF90DF90CF90BF90AF900895CF936E
:10092000CFB7F8948091890781115AC04FEA56E0F9
:10093000FA0194912EEC36E0F9018491E92FF0E070
:10094000EE0FFF1FE057F94FA591B4919C919823AA
:1009500009F037C0E4E2F4E09491F9012491FA013E
:100960008491882309F42DC09923E9F091509F3098
:10097000D0F4E92FF0E0E154FB4F0C94E232000593
:100980000405CE04F804FC04D304D304D3040705FF
:100990000D05110515051B05D3041F059091800059
:1009A0009F7790938000E82FF0E0EE0FFF1FEE5747
:1009B000F94FA591B4918FB7F8949C91292B2C9362
:1009C0008FBF81E10E94E0038CB580618CBD8CB546
:1009D00080648CBD8FE00E94E00380E10E94E00310
:1009E000809189078F5F80938907CFBFCF9108954A
:1009F000909180009F7DD5CF90918000977FD1CF3F
:100A000094B59F7794BDCFCF94B59F7DFBCF909148
:100A100090009F7790939000C6CF909190009F7D1B
:100A2000F9CF90919000977FF5CF9091C0009F777C
:100A30009093C000B8CF9091C0009F7DF9CF909166
:100A4000C200977F9093C200AECFCF93DF93EC01AB
:100A50008A85882329F081508A87DF91CF91089574
:100A60009C818E819817C8F78D856827E881F98168
:100A70000084F185E02D42E0CE0109958C818F5FE5
:100A80008C83EBCFEF920F931F93F901DA012C9136
:100A90003E2D309532233C9330813E293083FC013A
:100AA000D80198E080E030E020E04C914E2189F0C0
:100AB0002A95D9F720E04C914E2159F02A95D9F783
:100AC00020E84C914E2129F02A95D9F73A9561F703
:100AD00017C047E04A95F1F7000031E0550F4C91FF
:100AE0004E2109F051609A9529F45193839598E02D
:100AF000681731F020E84C914E2111F72A95D9F76B
:100B00001F910F91EF9008950F931F93F90120818A
:100B1000202B2083DA012C91202B2C9320814081E3
:100B2000202B30E010E00095109550E004231523B1
:100B3000DC015D9148E00083550F40F474E07A9544
:100B4000F1F720837AE07A95F1F705C07EE07A9597
:100B5000F1F7000020834A9529F073E07A95F1F7C8
:100B60000000E9CF6A9529F071E07A95F1F700006D
:100B7000E0CF72E07A95F1F700000000008374E0A6
:100B80007A95F1F70000000020831F910F910895DE
:100B90007F928F929F92AF92BF92CF92DF92EF920D
:100BA000FF920F931F93CF93DF93DB01642F5901C3
:100BB000F02E282F30E0F901E354F94FE49022564B
:100BC000394FF901249130E0220F331FF901E0572A
:100BD000F94FC591D491F901EE57F94FC590D490D2
:100BE000F901EB50FC4F859094907FB6F8940E2D50
:100BF0009601AE01CD010E94840584019601AE01EB
:100C00006F2DC5010E9442057FBEDF91CF911F91DC
:100C10000F91FF90EF90DF90CF90BF90AF909F909B
:100C20008F907F900895CF93DF93FC0187812FEF02
:100C30003FE7813011F420E830E8462F50E0DF0133
:100C40008FE0689FA00DB11D112450969C91618585
:100C5000892F8370823021F1833029F0813021F592
:100C6000809388071BC0611111C081E080938807C1
:100C70009C70983009F457C09C30D1F0943009F042
:100C800055C0846093E0909387071CC0623061F484
:100C900080918807882341F0813021F081E0E8CFFE
:100CA0008093880782E0E4CF1092880780E0E0CF4D
:100CB0006230E1F5909187079923C1F1933089F172
:100CC00094E0892B9FE0949FD001959FB00D112453
:100CD000AE0FBF1F50968C9350978085EF01C40FC5
:100CE000D51F813031F1823009F46CC088A981119F
:100CF00008C056963C932E93559758963C932E9346
:100D000057978AA9811155C06FE0649FC001659F04
:100D1000900D1124E80FF91F328F218F348F238F0C
:100D200048C098E0CECF886094E0ADCF109287079E
:100D3000C9CF8AA9811108C05A963C932E9359971E
:100D40005C963C932E935B978FE0849FD001859FA8
:100D5000B00D1124AE0FBF1F50968C918C70843053
:100D600071F1883049F58FEF9FEF2FE0249FD0017C
:100D7000259FB00D1124AE0FBF1F56969C938E93E6
:100D8000559750968C91837030E020E0813031F09F
:100D90002FEF3FEF823011F02FEF3FE76FE0649FBE
:100DA000C001659F900D1124E80FF91F308F278B2C
:100DB000108ADF91CF9108958FEF9FE7D6CF90E013
:100DC00080E0D3CF88A9811108C056963C932E931A
:100DD000559758963C932E9357978FE0849FD00158
:100DE000859FB00D1124AE0FBF1F50968C918C7053
:100DF000843059F1883031F58FEF9FEF2FE0249F39
:100E0000D001259FB00D1124AE0FBF1F5A969C93A1
:100E10008E93599750968C91837030E020E081300A
:100E200031F02FEF3FEF823011F02FEF3FE76FE00F
:100E3000649FC001659F900D1124E80FF91F348F46
:100E4000238FB6CF8FEF9FE7D9CF90E080E0D6CF4A
:100E5000CF93DF93DC0113962D913C911497C62F0D
:100E6000D0E0FC018FE0689FE00DF11D1124618945
:100E70007289C901862397232817390709F04BC0C7
:100E800080898F70823071F128F48130C9F190E04F
:100E900080E021C0843089F08830C9F782E018965C
:100EA0008C93108A20953095818992892823392343
:100EB000328B218B84E090E00EC081E018968C93F9
:100EC000108A209530958189928928233923328B85
:100ED000218B82E090E09093860780938507DF91D5
:100EE000CF91089518961C92108A2095309581898B
:100EF000928928233923328B218B81E090E0EBCF3C
:100F0000108A20953095262337233061328B218B30
:100F100088E090E0E0CF15964D915C9116976423A0
:100F200075234617570709F0B2CF80898F7082303A
:100F300009F440C088F4813009F0A9CF19961C92B9
:100F4000108A409550958189928948235923528B64
:100F5000418B80E290E0BFCF8430D9F1883009F036
:100F600096CF80918507909186078115924041F038
:100F70001B968C911B9791E089271B968C931B974E
:100F80002FE02C9FC0012D9F900D1124A80FB91F99
:100F900050961C9250974095509551968D919C91EA
:100FA00052974823592352965C934E93519780E071
:100FB00092E091CF81E019968C93108A40955095DC
:100FC0008189928948235923528B418B80E490E098
:100FD00082CF82E019968C93108A40955095818932
:100FE000928948235923528B418B80E890E073CF3C
:100FF0008FB7F894809184078FBF089584E9809318
:10100000BC0085E69091BC0094FF03C08150D1F7ED
:10101000089581E008956EBD00000DB407FEFDCF78
:101020008EB508952A9A299A8C9A83EC90E00197BC
:10103000F1F708952A9A299A469A83EC90E001974D
:10104000F1F70895EF92FF920F931F93CF93FC0156
:101050008581828786819781948783878085918522
:1010600096878587C38113822C9A8BE290E0019743
:10107000F1F72C9883E190E00197F1F730E020E060
:1010800090E080E043E150E0ACB1A6FB662760F958
:1010900070E0DB01022E02C0AA0FBB1F0A94E2F728
:1010A0008A2B9B2B2D98DA011197F1F72D9ADA01F3
:1010B0001197F1F72F5F3F4F2031310529F7492F65
:1010C00042954F7051E04D3009F450E170E060E01E
:1010D00030E020E0A3E1EA2EF12CACB1A6FB002722
:1010E00000F910E0D801062E02C0AA0FBB1F0A9417
:1010F000E2F72A2B3B2B2D98D7011197F1F72D9A68
:10110000D7011197F1F76F5F7F4F651730F3809527
:101110009095209530954F3029F42E3F5FEF35079D
:1011200009F442C0538161E0650F638361E070E0C0
:10113000511102C070E060E0411113C0A92FBB271C
:10114000AF70BB271F9769F44AE0469FD001479FC5
:10115000B00D1124AE0FBF1F4FE015964C9315979D
:1011600013C0542F509552FF45C02AE0269FD0014E
:10117000279FB00D1124AE0FBF1F24E015962C93AE
:1011800015975370252F30E019963C932E9318979E
:101190002AE0269FD001279FB00D1124AE0FBF1F5C
:1011A00017969C938E93169783818C17E8F44AE0E8
:1011B0009FEF21E030E0811102C030E020E0429F4B
:1011C000D001439FB00D1124AE0FBF1F15969C9305
:1011D000159717961C921E92169719961C921E929E
:1011E00018978F5FC813E5CFCF911F910F91FF9094
:1011F000EF9008955AE0569FD001579FB00D1124EB
:10120000AE0FBF1F5FE04527A8CF80911C088F5FFE
:10121000843018F480931C08089581E0FBCF089572
:10122000CF93DF93EC0165E070E080E090E00E94F6
:10123000240482E08093A10181E088AB89AB62E362
:1012400070E080E090E0DF91CF910C94240487E07F
:1012500091E0089588E695E00895CF93DF93CDB7A8
:10126000DEB72E970FB6F894DEBF0FBECDBFFC01E0
:1012700097E0DE01189601900D929A95E1F787E0CC
:10128000FE013896DE01119601900D928A95E1F7E4
:1012900029813A814B815C816D817E818F8190E0D3
:1012A0002E960FB6F894DEBF0FBECDBFDF91CF9163
:1012B0000895FC01E656FF4F2081222351F033961A
:1012C0002081222331F0FC012781223011F423E018
:1012D000278308958DE091E00895FC01E456FF4FC7
:1012E000208121111CC032972081222349F083568E
:1012F0009F4FFC018081811115C089E895E0089518
:10130000FC01E556FF4F2081222379F08D559F4F38
:10131000FC01808181110CC085E995E008958FE67C
:1013200095E008958BE795E0089582EB95E00895A8
:1013300086EA95E008959C01FC01EC56FF4F019070
:10134000F081E02D44A155A140955095CA0154E08B
:10135000969587955A95E1F7817090E046FD92E069
:10136000982B80E047FD84E0982B80E045FD88E0E5
:10137000F901EC55FF4F4081982BF9018FE0489F10
:10138000E00DF11D1124908B22563F4FD9018C9115
:10139000882319F0982B9F70908B08958CBD9DBD6C
:1013A00008958C9880918207909183070E94CE09BE
:1013B00083EC90E00197F1F70895469880918207B9
:1013C000909183070E94CE0983EC90E00197F1F79A
:1013D00008958F929F92AF92BF92CF92DF92EF9239
:1013E000FF920F931F93CF93DF937C016B015A0100
:1013F000022F10E0D0E0C0E083EC882E912CC017C3
:10140000D107E1F0D701ED91FC910480F581E02D49
:101410006AE5C114D10421F0D601AC0FBD1F6C9157
:10142000C7010995A114B10421F0F501EC0FFD1FCE
:101430008083C4010197F1F72196E1CFDF91CF912D
:101440001F910F91FF90EF90DF90CF90BF90AF90E2
:101450009F908F900895CF92DF92EF92FF920F931B
:101460001F93CF93DF937C016B01D42F8C010E5F10
:101470001F4F23E0A8010E94E909F70123812F3FB4
:1014800061F410E000E0C801DF91CF911F910F914E
:10149000FF90EF90DF90CF90089584818A3511F00E
:1014A0008111EFCF2F70C22FCC0FD33059F0B6017E
:1014B0006D5F7F4F2DEF2D0FA7014B5F5F4FC70172
:1014C0000E94E9092C2F2D1B2D5FE9F24D2F50E0D2
:1014D000CA01820F911D8197A4F6400F511F70E041
:1014E00060E0C7010E94E909CECFCF92DF92EF9270
:1014F000FF920F931F93CF93DF93EC010E9456044A
:101500006B017C01E881F9810190F081E02DCE0131
:10151000099544E063ED74E0CE010E942B0A8C0132
:10152000E881F9810280F381E02DCE010995011552
:10153000110529F0F8018181807F803F11F56AE073
:1015400070E080E090E00E9424040E9456046C1930
:101550007D098E099F096B3F71058105910590F208
:10156000C0E062E370E080E090E00E9424048C2FF1
:10157000DF91CF911F910F91FF90EF90DF90CF906F
:101580000895C1E0EECF4F925F926F927F928F925B
:101590009F92AF92BF92CF92DF92EF92FF920F9302
:1015A0001F93CF93DF93CDB7DEB729970FB6F8948B
:1015B000DEBF0FBECDBFFC01E556FF4FD080D1107E
:1015C000B9C08C010C561F4FD801ED90FC900E94C1
:1015D00056042B013C01D701ED91FC910190F08163
:1015E000E02DC701099544E061EE74E0C7010E9457
:1015F0002B0A5C01D701ED91FC910280F381E02D73
:10160000C7010995A114B10431F0F5018181807FF2
:10161000803F09F4A6C06AE070E080E090E00E949C
:1016200024040E94560464197509860997096B3FC2
:1016300071058105910578F262E370E080E090E049
:101640000E942404DD2009F475C0D801ED90FC90BF
:1016500089E0E3EFF4E0DE01119601900D928A95A6
:10166000E1F70E9456044B015C01712CD701ED910A
:10167000FC910190F081E02DC701099545E0BE0184
:101680006F5F7F4FC7010E942B0A6C01D701ED915C
:10169000FC910280F381E02DC7010995CD2809F066
:1016A0007394B2E0B71588F06AE070E080E090E0F3
:1016B0000E9424040E945604681979098A099B092A
:1016C0006B3F71058105910588F262E370E080E06F
:1016D00090E00E94240481E0F70181AFD801ED90F1
:1016E000FC90D701ED91FC910190F081E02DC701B4
:1016F000099543E06AEE74E0C7010E942B0A6C0171
:10170000D701ED91FC910280F381E02DC70109958D
:10171000C114D10451F0F6018381833031F488EB98
:101720009BE09093A3018093A201D8018D919C919D
:101730000E94750A29960FB6F894DEBF0FBECDBF82
:10174000DF91CF911F910F91FF90EF90DF90CF909D
:10175000BF90AF909F908F907F906F905F904F90D1
:101760000895DD24D39468CFCF92DF92EF92FF9259
:101770001F93CF93DF93EC01849A3E9A8C9A469AFA
:10178000FC01EA56FF4F808191817E0124E9E20E3F
:10179000F11CD7018D939C932AEF30E03093A30185
:1017A0002093A201DC01ED91FC910680F781E02DF0
:1017B0000995FE01E656FF4F6F0110E08823A1F066
:1017C00081E035968083D701ED91FC91119716A1A8
:1017D0001D961C931730B9F481E0FE01E456FF4FCB
:1017E0008083CE010E94C30AD6018C918823D1F058
:1017F00082E08093A101DF91CF911F91FF90EF9044
:10180000DF90CF900895153031F4F6018083FE010A
:10181000E356FF4FE5CF84A195A18095909580FD7B
:10182000DBCFDFCFFE01E556FF4F80818111E3CF93
:10183000319680818111DFCF1130E9F4D701ED912C
:10184000FC9184A195A1809590959C01207C3327E3
:10185000203C310539F485FF05C08EE0FE01E256DB
:10186000FF4F808382E08093A10181E088AB8AAB47
:1018700089AB8BABC0CF1230A9F7D701ED91FC91AA
:1018800084A195A1807A9927892B61F781A593A5D9
:10189000992341F38F3F31F788EE93E09093A301B2
:1018A0008093A2018CE0DACFEF92FF920F931F9307
:1018B000CF93DF9300D000D01F92CDB7DEB78C015D
:1018C000DC019B961C929B97D8961C92D897ED9121
:1018D000FC910190F081E02D0995F80181AD811115
:1018E00008C082AD803409F044C083AD813009F076
:1018F00040C085E0ECEDF4E0DE01119601900D9220
:101900008A95E1F7D80196968C919697863059F58D
:10191000DC968C918C8345E0BE016F5F7F4FC801E0
:101920000E942B0A7C01D801ED91FC910280F38189
:10193000E02DC8010995E114F10441F0F70181811E
:10194000807F803FD1F4C8010E94750A80E00F902B
:101950000F900F900F900F90DF91CF911F910F91EB
:10196000FF90EF900895F80182AD8C8383AD8D8355
:10197000D2CF43E06CED74E0D2CFD80194968D9134
:101980009C91959793969C938E9392972381348103
:1019900095963C932E9394978181893781F483E0C7
:1019A00096968C93D80196968C919697843041F1B7
:1019B00008F5823029F18330C9F181E0C8CF982F32
:1019C000907F903719F482E0D801EACF903521F466
:1019D00084E0F80186A3E6CF833211F485E0F4CFEA
:1019E000903E11F486E0F5CF833611F487E0ECCF1A
:1019F00081E0EFCF863009F45CC030F18730E9F642
:101A000081E0D8019B968C939B97F70185819996ED
:101A10008C93999786819A968C939A9787819796BB
:101A20008C939797808598968C93C7CF81E0F80127
:101A300080AFF70139969C96C701459621912D9369
:101A4000E817F907D9F7DCCF81E09B968C939B9739
:101A5000F701958197969C939797D8968C93D897F2
:101A60008681D2968C93D2979781D3969C93D39765
:101A70004085D4964C93D49797FF05C03F779596B1
:101A80003C932E93949787FF0AC0D80194968D912A
:101A90009C9195979F7B95969C938E939497403FAE
:101AA00008F48BCFF80184A195A19B7F95A384A313
:101AB00084CF81E09B968C93F7019681858197FD79
:101AC0001AC087FD8FE7D80197968C93D801979617
:101AD0008C919797805897968C939797F70185816B
:101AE0009C968C939C9786819D968C939D978781DD
:101AF0009E968C9362CF813808F481E8F80187A321
:101B0000E5CF8E549F4FFC018081811103C081E09D
:101B100091E0089582E091E008958E549F4FFC017A
:101B20008081811103C083EC95E008958BEB95E0F3
:101B30000895FC019081911106C0838194810196E2
:101B400099F080E008959F3049F4228130E02F70B1
:101B500033272F30310561F482E00895923031F05F
:101B6000943031F485E0089583E0089584E0089589
:101B700081E00895AF92BF92CF92DF92EF92FF92F1
:101B80000F931F93CF93DF93FC01E856FF4F108212
:101B9000249A2C98259A2D9A6E987698769ADC013C
:101BA000A955BF4F1C92869A8E98859A8D9A8798D0
:101BB0008F988F9AA3E2B0E01197F1F7208121115D
:101BC0004BC0EC0182E08093A1017E0184E9E80E24
:101BD000F11CC7010E942208FE01E956FF4F008157
:101BE00010E0670185E0C80ED11CCE54DF4F3AE00B
:101BF000A32EBB24BA941017C1F1111108C0C6015D
:101C00000E94990D91E0853009F090E0988381E081
:101C100090E0111102C090E080E0A89EF001A99E22
:101C2000F00D1124EE0DFF1DB5821782168211866C
:101C300010860196A89ED001A99EB00D1124AE0D6C
:101C4000BF1DBC928681978194878387808591850B
:101C5000968785871F5FCFCF82E08093A10188EEB2
:101C600093E09093A3018093A2018091A2019091AF
:101C7000A3018230910538F0880F991F880F991FB2
:101C800005970197F1F7DF91CF911F910F91FF9089
:101C9000EF90DF90CF90BF90AF900895FC016093DC
:101CA000BC002FEF3FEF8091BC0087FF06C09091F2
:101CB000B900987F908381E008952150310999F708
:101CC00080E00895CF93DF93EC016093BB0064E85C
:101CD0000E944E0E882329F081E09881983209F005
:101CE00080E0DF91CF910895DF92EF92FF920F9302
:101CF0001F93CF93DF93EC01D62EF42E898988238E
:101D000029F0411103C00E94FE07198A8E01015F6C
:101D10001F4F8989811119C0E88864EAC8010E94AF
:101D20004E0E882361F08F85883011F0803139F4B0
:101D3000EE0CE092BB0064E8C8010E944E0E60E029
:101D4000F11060E4C8010E94620E6D2DC8010E946E
:101D5000620E82E0F8120BC089898F5F898BDF9158
:101D6000CF911F910F91FF90EF90DF9008950E9407
:101D7000FE07198AF4CFDC01ED91FC910084F18516
:101D8000E02D40E00994FC012781269526952695B3
:101D9000621720F46583606B0C94BB0E08950F935B
:101DA0001F93CF93FC012681621798F4C62F8C01F4
:101DB00064836085C60F6C2F6F700E94BB0E6C2F02
:101DC00062956F706061C801CF911F910F910C9463
:101DD000BB0ECF911F910F9108951F93CF93DF9367
:101DE000EC01142F0E94CF0E612FCE01DF91CF9115
:101DF0001F910C94C30E2F923F924F925F926F925D
:101E00007F928F929F92AF92BF92CF92DF92EF928A
:101E1000FF920F931F93CF93DF9300D000D000D099
:101E2000CDB7DEB7FC01238534852115310509F4D2
:101E300016C19E838D83F901329664903196449148
:101E4000E42EF12CF7E0EF0EF11C53E0F594E7944B
:101E50005A95E1F7E982F901349654913196E4916B
:101E60006D30F1F460E00E94CF0E81E090E02696A4
:101E70000FB6F894DEBF0FBECDBFDF91CF911F919B
:101E80000F91FF90EF90DF90CF90BF90AF909F9019
:101E90008F907F906F905F904F903F902F9008951C
:101EA0006A3081F460E08D819E810E94CF0EED81C9
:101EB000FE81868565818E9D600D1124CF010E9473
:101EC000C30ED3CF651708F4CAC08E2F90E0FC0173
:101ED000E50FF11D6E171F060CF0C1C089010A5FE6
:101EE0001F4F651BED81FE8171855685759F502DB5
:101EF00011245C83F90154912F5F3F4FF901249124
:101F0000352F2230310508F06AC06E9CC0016F9CED
:101F1000900D1124689FF001699FF00D11240E0FA0
:101F20001F1F512CED81FE81F481FA83ED81FE812A
:101F30002580F285FB83862C912CAA24A394B12CB6
:101F4000312C8981381608F086C0412CED81FE8144
:101F50008685481608F078C08B818287311002C0D0
:101F6000442041F0ED81FE8145814F5F6A81CF01C0
:101F70000E94ED0ED12CC12CC61408F058C0F801F7
:101F8000EC0DFD1D7490552061F0EA14FB0449F43A
:101F9000E72DF0E0052C02C0F595E7950A94E2F7ED
:101FA0007E2EED81FE818685823081F4442009F405
:101FB0003AC072948FE07822E72DF0E0ED5FFB4F9E
:101FC0007490672D8D819E810E942505672D8D81DE
:101FD0009E810E9425058FEFC81AD80ACDCF477081
:101FE00028E0522E541A411101C0512CF801612CE5
:101FF00030E020E0661631F04491240F311D6394E7
:102000003196F8CF600E712E711CF3016490E29E40
:10201000F001E39EF00DF29EF00D11248E0F9F1F34
:10202000080F191F7FCFF72DFF707F2EC5CFD12C42
:10203000EC81DE1639F060E08D819E810E942505DD
:10204000D394F6CF439482CF3394080D191DFFEF3C
:10205000AF1ABF0A76CF622D8D819E8130CF90E07E
:1020600080E005CF0F931F93CF93DF938C01D0E0D7
:10207000C0E0F801EC0FFD1F6491662341F082E39C
:1020800098E00E94FB0E892B11F02196F2CFCE0131
:10209000DF91CF911F910F910895811104C088ECB9
:1020A00093E00C943210813019F487EB93E0F9CF70
:1020B0008250853018F484EC93E0F3CF8EEB93E0FC
:1020C000F0CF682F82E398E00C94FB0ECF92DF9262
:1020D000EF92FF920F931F93CF93DF93EC01F62EB5
:1020E000C42ED22E1A868F818695869586950817DE
:1020F00010F00FEF080F1D2D011780F0412F6F2DED
:10210000CE010E94ED0EEF2CCE1430F06D85CE0185
:102110000E942505E394F8CF1F5FEECF4D2D6F2D64
:10212000CE01DF91CF911F910F91FF90EF90DF9043
:10213000CF900C94ED0E0F93FC0107810695069548
:10214000069501504681415020E060E00E946610F3
:102150000F9108954F925F926F927F928F92AF92FC
:10216000CF92EF92FF920F931F93CF93DF93CDB750
:10217000DEB72701380194E0899F80011124F8011E
:10218000EC59F84F80819181A281B3818E219521F4
:10219000A621B72131E0892B8A2B8B2B09F430E063
:1021A0003C1103C088898823F1F0C11001C0A82C1C
:1021B0002D5F640F422F82E398E00E94ED0E8A2D7E
:1021C0000E946110F801EC59F84FCC20D1F08081C9
:1021D0009181A281B38184299529A629B729808379
:1021E0009183A283B383DF91CF911F910F91FF90D1
:1021F000EF90CF90AF908F907F906F905F904F90C7
:102200000895409450946094709480819181A2814B
:10221000B38184219521A621B721E1CF6F927F92CE
:102220008F929F92AF92BF92CF92DF92EF92FF92E6
:102230000F931F93CF93DF933C01D62EC42FE62F2D
:10224000F0E0EE0FFF1FE450FB4FB08007E023E00B
:1022500041816B2D82E398E00E94661047E06B2D70
:1022600082E398E00E94ED0EC13091F58AEA93E096
:102270000E94321081E08D15E0F0E301C256DF4F7D
:1022800082EF681A8EEF780A99249394E880F98097
:102290000A811B819F928F80AE80C12C2C814D8141
:1022A0006B2D8D2D0E94AA1028960F90C615D7056C
:1022B00069F7DF91CF911F910F91FF90EF90DF9021
:1022C000CF90BF90AF909F908F907F906F90089528
:1022D00082EB93E0DF91CF911F910F91FF90EF90F0
:1022E000DF90CF90BF90AF909F908F907F906F9036
:1022F0000C9432102F923F924F925F926F927F9286
:102300008F929F92AF92BF92CF92DF92EF92FF9205
:102310000F931F93CF93DF93D62E342E3901B02E17
:10232000FC01E256FF4F2081EC012E3009F042C043
:10233000CB5DDE4F2C0123E8421A2EEF520AE62F26
:10234000F0E0EE0FFF1FE450FB4F9080E880F98033
:102350000A811B812C814D81AE808F8061147104B4
:1023600059F0F30184A195A1809590958E219F212C
:10237000CC24C394892B09F4C12CBF92692D8D2DD7
:102380000E94AA1028960F90C415D505F9F6DF9182
:10239000CF911F910F91FF90EF90DF90CF90BF9062
:1023A000AF909F908F907F906F905F904F903F90F5
:1023B0002F900895CB55DF4F912C8EEF282E240EB1
:1023C000462E512C440C551CC20184509B4F2C01AD
:1023D00091E0921568F48FEF890D823038F1E5E0D5
:1023E0003E1206C0992011F188EF890D8230F0F07D
:1023F000E880F9800A811B812C814D81AE808F801D
:102400006114710459F0F30184A195A18095909510
:102410008E219F21CC24C394892B09F4C12CBF9217
:10242000F20160818D2D0E94AA100F90939428963E
:10243000F0E19F12CDCFABCFEF92FF920F931F939E
:10244000CF93DF937C01D62FC42FE62FF0E0EE0F61
:10245000FF1FE450FB4F108107E023E04181612F13
:1024600082E398E00E94661047E0612F82E398E0E3
:102470000E94ED0EC43009F449C070F4C13029F156
:10248000C230C1F182EB93E0DF91CF911F910F91A8
:10249000FF90EF900C943210C530B9F084E793E0D0
:1024A000C63081F70E943210D23040F401E030E0B3
:1024B00020E04C2F6D2FC7010E947A11DF91CF9140
:1024C0001F910F91FF90EF900895F701E256FF4F93
:1024D00080818E3019F484EA93E0E4CFF701E65668
:1024E000FF4F8081811103C085E993E0DBCF8DE947
:1024F00093E0D8CFF701E256FF4F80818C3019F47A
:1025000081E993E0CFCF87E893E0CCCF8BE793E0EE
:10251000C9CF6F927F928F929F92AF92BF92CF92CC
:10252000DF92EF92FF920F931F93CF93DF93EC0113
:10253000D62E742EE62FF0E0EE0FFF1FE450FB4F77
:10254000B08007E023E041816B2D82E398E00E9498
:10255000661047E06B2D82E398E00E94ED0E83E069
:10256000781619F18715B8F0E2E086E693E07E165A
:10257000F1F082EB93E0DF91CF911F910F91FF90EB
:10258000EF90DF90CF90BF90AF909F908F907F9013
:102590006F900C943210F4E07F1609F442C085E08D
:1025A0007812E7CF88E593E002C081E693E00E94CD
:1025B0003210E2E0DE1631F1FE01EE54FF4F808171
:1025C000882391F13E01FDEC6F1AFEEF7F0ACD5595
:1025D000DE4F99249394F301E080F180028113810E
:1025E0009F928780A680CC24C394248145816B2D43
:1025F0008D2D0E94AA10F8E06F0E711C0F906C16C2
:102600007D0649F7DF91CF911F910F91FF90EF90D9
:10261000DF90CF90BF90AF909F908F907F906F9002
:1026200008958DE593E0C3CFCD54DF4F612C9924FD
:10263000939482E078121FC0E7E0E615B0F0F3E073
:10264000F615C8F0FE01E05AFF4FE080F1800281EC
:1026500013819F928780A680CC24C39424814581D6
:102660006B2D8D2D0E94AA100F90639428968CE0FC
:102670006812DFCFC7CFFE01E8CF0F9307E022E05B
:102680004FE760E082E398E00E94661080911C08AA
:10269000823071F08330C1F08130F1F46CE082E37C
:1026A00098E00E94CF0E87EE93E00F910C943210C9
:1026B0006AE282E398E00E94CF0E84ED93E00E94EC
:1026C00032108FEC93E0F1CF66E082E398E00E9455
:1026D000CF0E88ED93E0E9CF0F9108958093A0018C
:1026E0006EEA81116FEA82E398E00E94BB0E0E94BD
:1026F000560460931D0870931E0880931F089093E2
:10270000200808952F923F924F925F926F927F928E
:102710008F929F92AF92BF92CF92DF92EF92FF92F1
:102720000F931F93CF93DF93CDB7DEB762970FB6AA
:10273000F894DEBF0FBECDBF9C012C553F4F3A87AA
:102740002987D9011C92FC01E556FF4FB081BB835C
:10275000B1119AC41C018091710734966F012E50FB
:1027600031097901811162C08091720781115EC0C7
:10277000808181110CC0D9018D919C91DC01ED917A
:10278000FC910680F781E02D0995F6018083809306
:102790007107810100561F4FD8018C9181110EC025
:1027A000F101E856FF4F80819181DC01ED91FC91B0
:1027B0000680F781E02D0995F801808380937207E8
:1027C00081E00E946E1307E027E04FE760E082E3BC
:1027D00098E00E94661067E082E398E00E94C30ED2
:1027E00060E082E398E00E94CF0E80917107811132
:1027F0000BC080917207811103C082EB93E002C08D
:102800008EEA93E00E94321062E482E398E00E9434
:10281000CF0E9091710780917207992309F4BCC182
:10282000811104C08EEA93E00E9432107FE6872E69
:1028300077E0972EE1E76E2EE7E07E2E86016101BC
:10284000512C5101F4E9AF0EB11C910124563F4FB8
:102850003D832C83D7018D919D917D01F50191835D
:102860008083D4011D924D01F30121913F01222368
:1028700009F4FEC3D8012C91211193C1DC01ED9123
:10288000FC910680F781E02D0995882371F021E005
:10289000F8012083C1010E94C30AD501ED91FC918A
:1028A00046A1652DC1010E941C12AC81BD818C9195
:1028B000882309F4DDC31E82F101EC56FF4FFD832E
:1028C000EC83910126563F4F3C872B87C1018456EC
:1028D0009F4F9E878D87D101A256BF4FB88BAF8780
:1028E0007096F887EF838091A101FE81F81708F0B8
:1028F000CCC38F2F90E0F101E80FF91FE156FF4F95
:102900002081222309F43FC1FC01E159F84F0081E5
:10291000002309F438C1A985BA85BC90FC01E55BA8
:10292000FF4FEE0FFF1FE20DF31D0190F081E02D30
:10293000AC81BD81ED93FC93AB85BC85DC90DD2043
:1029400009F410C24B2C512CF201E75AFE4F808142
:10295000882331F0108245E06B2DC1010E941C12CA
:10296000AC81BD81ED91FC9162A073A084A095A083
:10297000E7A0D10117967C918D2D6D2D772391F0D5
:1029800060912108723009F49AC380E0662351F007
:1029900061E0713009F060E091E0713009F090E0A1
:1029A000862F692F90ADF12C9111F4A8F094882313
:1029B00009F42CC100E010E0992311F002A913A939
:1029C000AF81B8854C918E2D90E0242F30E0D1015D
:1029D0005FE0459FA00DB11D1124BA8BA98B582F24
:1029E0004427840F951F56969C938E935597C1014B
:1029F000820F931F41E0DC01D0964C93D097733047
:102A000009F00DC19E964C939E97D2964C934F2DF4
:102A100050E0942F8827840F951FA989BA8958966A
:102A20009C938E935797402F50E0942F8827840FC4
:102A3000951F5A969C938E935997412F50E0942F4F
:102A40008827840F951F5C969C938E935B9784A137
:102A500095A180959095BC01672F772762956F703F
:102A600061707727AC014427587093FF02C042E0A1
:102A700050E0462B572BBC016627707295FF02C0B1
:102A800064E070E0462B572BBC016870772783FF0A
:102A900002C068E070E08FE0829FF001839FF00D3C
:102AA0001124E20DF31D462B572B528B418BC10194
:102AB0000E949B09AF81B8858C9190E09C01295AB6
:102AC0003E4FF9014081BC016B5A7E4FFC01ED5A2B
:102AD000FE4F8F5A9E4FE41211C0DB014C91F4124D
:102AE0000DC0408140130AC0DC014C91141306C094
:102AF000DD24D3946814790409F4D12CD901EC9223
:102B0000DB01FC920083FC011083DD20C9F1F1E0C0
:102B1000FB15B0F131012DEB620E711C7BEF972E8E
:102B2000440C551CC20184509B4F2C0191E0991517
:102B300000F5D301ED90FD900D911C91AC81BD810C
:102B4000ED91FC9184A195A1809590958E219F2176
:102B5000CC24C394892B09F4C12C1F92F3018780E4
:102B6000A68024814581D2016C918B2D0E94AA10F0
:102B70000F909394B8E06B0E711CE8E09E12D6CFD4
:102B8000FB81FD29FB83EF81F88580818F5F808346
:102B9000FE81FF5FFE83A7CE811142CE82EB93E0E0
:102BA00043CEFC0146A012968C91841519F0C10108
:102BB0000E94C30AF8014282D501ED91FC91D60131
:102BC000D7969C91D79781AD8823B9F0D5962C9153
:102BD00081E0911101C080E0819582AF23AFD501E2
:102BE0008D919C910E94540CF40131978083811146
:102BF0005CCEF801108240E054CE992321F0B0E47D
:102C0000B2AF21E0EBCF12AE13AEE9CF00E09111ED
:102C100002A9009510E0911113A91095D1CED2967A
:102C20001C92D297662309F450C09E964C93A989B2
:102C3000BA895E960C935E975D961C9384A195A1CC
:102C400080959095BC01672F772762956695677090
:102C500061707727AC014427507194FF02C042E0B5
:102C600050E0462B572BBC016627747092FF02C0C0
:102C700060E170E0462B572BBC016627787093FF0C
:102C800002C060E270E0462B572BBC0168707727CA
:102C900083FF02C060E072E08FE0829FF001839FBB
:102CA000F00D1124E20DF31D462B572B528B418B57
:102CB0008FE0829FF001839FF00D1124E20DF31D40
:102CC00020E830E8308F278BF2CE9E961C9244A1EC
:102CD00055A140955095BA01672F772762956F707F
:102CE00061707727CA018827907255FF02C082E081
:102CF00090E0862B972BBA016627747052FF02C0B2
:102D000060E170E0862B972BBA016627787053FF3D
:102D100002C060E270E0862B972B60E470E057FD04
:102D200002C070E060E0862B972BBA0166277074B2
:102D300056FF02C060E870E0862B972BBA016870DE
:102D4000772743FF02C060E072E04FE0429FF0014E
:102D5000439FF00D1124E20DF31D862B972B928BD0
:102D6000818BA6CFAD85BE858C9181110CCFFF24C0
:102D7000F39422A133A184A195A12817390709F45E
:102D8000F12C16A1CB2CD12CF601E359F84F4F01B1
:102D90008081181729F0412F6B2DC1010E941C1250
:102DA000E1E0F0E0EC0FFD1FEC0DFD1D10838FEF57
:102DB000810F853008F002C1C1010E949B09AC81DE
:102DC000BD81ED91FC9124A135A120953095C901DB
:102DD00084E0989F812D9927112481709927A9015A
:102DE0004427507235FF02C042E050E0842B952BFF
:102DF00044E050E037FD02C050E040E0842B952BCA
:102E0000A9014427507134FF02C048E050E0842BF0
:102E1000952BA9014427547032FF02C040E150E0D5
:102E2000842B952BA9014427587033FF02C040E240
:102E300050E0842B952BA9014427517030FF02C02C
:102E400040E450E0842B952BA9014427527031FFB8
:102E500002C040E850E0842B952BA9014170552712
:102E600020FF02C040E051E0842B952BA90148705F
:102E7000552723FF02C040E052E0842B952BA90187
:102E80004270552721FF02C040E054E0842B952B6F
:102E9000A9014470552722FF02C040E058E0A985EF
:102EA000BA856C91262F30E0D1017FE0679FA00D9D
:102EB000B11D1124842B952B52969C938E93519780
:102EC00083A5882309F48BC0153009F488C077A145
:102ED00089E8870F833108F47EC0872F60A590E0D2
:102EE0004FE0429FD001439FB00D1124A20DB31DAE
:102EF000582F4427840F951F56969C938E93559771
:102F000089E8860F833108F468C0862F90E04FE08F
:102F1000429FD001439FB00D1124A20DB31D582F25
:102F20004427840F951F58969C938E935797C901F9
:102F3000815B9E4FDC014C91D901A35BBE4F3D01EB
:102F4000471303C04C91EF2C4613E02EDC017C9319
:102F5000D3016C9383A5882319F0153009F054C070
:102F60008FE0829FF001839FF00D1124E20DF31D8D
:102F700080E890E8928F818F948F838F90E880E82B
:102F8000F901E55BFE4F4081D901A75BBE4F4813B5
:102F900004C02C91291301C00E2D80839C93002323
:102FA00069F0B1E0BB1550F0EC81FD8120813181E9
:102FB00000E0412F6B2DC1010E947A11E1E0F0E0A9
:102FC000EC0FFD1FEC0DFD1D8081D4018C93BB81A6
:102FD000BF29BB83D8CD80E881CF80E897CF8FE031
:102FE000829FD001839FB00D1124A20DB31D80E8F4
:102FF00090E856969C938E93559758969C938E93F3
:10300000579760E870E893CF81A5AF85B8899C9108
:103010009C3009F480E899E8980F482F933108F420
:1030200040E892A550E06FE0629FF001639FF00DD1
:103030001124E20DF31D742F6627460F571F528F80
:10304000418F49E8490F433188F0492F50E06FE044
:10305000629FF001639FF00D1124E20DF31D742FA8
:103060006627460F571F548F438F8ACF40E8EECF15
:103070000F5F1F4F24E0C20ED11C31E0531609F43C
:103080001ACC55245394E6CB1B828B8162960FB6E3
:10309000F894DEBF0FBECDBFDF91CF911F910F918E
:1030A000FF90EF90DF90CF90BF90AF909F908F9068
:1030B0007F906F905F904F903F902F900895662380
:1030C00009F470CC69CC90E080E00895CF93DF9351
:1030D000CDB7DEB72F970FB6F894DEBF0FBECDBFCA
:1030E0004FE0FE013196DF01242F1D922A95E9F76A
:1030F0002FEF3FE73F832E83398728873B872A8737
:103100003D872C87469F800D911D1124DC01509630
:103110008FE001900D928A95E1F72F960FB6F89403
:10312000DEBF0FBECDBFDF91CF9108952F923F92AA
:103130004F925F926F927F928F929F92AF92BF92C7
:10314000CF92DF92EF92FF920F931F93CF93DF9373
:10315000CDB7DEB766970FB6F894DEBF0FBECDBF12
:103160003C0186E0FE013196DF011D928A95E9F768
:1031700080914801882381F0109248018091A1013B
:10318000833050F045E064E282E398E00E94ED0E67
:103190008AE693E00E943210F301EC56FF4FFA8B5F
:1031A000E98BCF010E942208F301E855FF4F80818F
:1031B000858381819281978386838381948191879E
:1031C00080873597D38013828E9A8BE290E00197A7
:1031D000F1F78E9883E190E00197F1F750E040E03D
:1031E000512C412C63E170E02FB1022E000C330B07
:1031F0002227330F221F3327042E02C0220F331F32
:103200000A94E2F7422A532A8D98CB010197F1F7ED
:103210008D9ACB010197F1F74F5F5F4F4031510518
:1032200019F7452D42954F7050E14D3009F051E0AE
:1032300070E060E030E020E013E1E12EF12C0FB10E
:10324000002E000C110B0027110F001F1127062E56
:1032500002C0000F111F0A94E2F7202B312B8D982A
:10326000C7010197F1F78D9AC7010197F1F76F5FD9
:103270007F4F651720F340945094209530954F3040
:1032800029F42E3F8FEF380709F445C0838191E080
:10329000980F938361E070E0811102C070E060E0FC
:1032A000411114C0852D99278F7099270F9771F4BC
:1032B0004AE0469FC001479F900D11248E0F9F1F2B
:1032C0004FE0DC0115964C93159714C0942F909500
:1032D00092FF89C08AE0869FA001879F500D11242C
:1032E0004E0F5F1F84E0DA0115968C93159793704B
:1032F000292F30E019963C932E9318972AE0269FA9
:10330000C001279F900D11248E0F9F1FDC0117967F
:103310005C924E921697B381BE87BD15F8F42B2FA1
:103320006AE03FEF41E050E0211102C050E040E090
:10333000649FC001659F900D11248E0F9F1FDC01BB
:1033400015963C93159717961C921E9216971996F0
:103350001C921E9218972F5FD212E4CFF301E95608
:10336000FF4F9080BE85B90DBD8779866886788AC3
:103370006F86D12CF12C3C96FC8BEB8B93012E5459
:103380003F4F3E8B2D8B1091A1013D85D31609F443
:1033900065C2D11609F462C2BB24B394D91408F4EF
:1033A000B12C21E030E0D91448F5D11002C030E052
:1033B00020E04AE0429FC001439F900D11240596F2
:1033C00029883A88280E391E123061F5992039F182
:1033D000C1010E94990DE1E0F0E0EC0FFD1FEB0D43
:1033E000F11D80831FC05AE0569FC001579F900D6A
:1033F00011248E0F9F1F5FE0452763CFD91002C0B5
:1034000030E020E04AE0429FC001439F900D11242C
:1034100005962B883C88280E391E123019F48E85AB
:103420008111D6CFD1019C9115968C911597981347
:1034300016C011962D913C91129716968D919C91E4
:1034400017972817390759F413962D913C91149723
:1034500018968D919C912817390709F47CC0EF8547
:10346000F88912AAD1018C9115969C911597891310
:103470000CC081111AC013968D919C910196A9F4EC
:10348000F10180859185019681F0D11620F46D2D92
:10349000C3010E946618C1010E94990D123029F4DF
:1034A000482F6B2DC3010E948912C1010E94990D02
:1034B0008A87D10111962D913C91C90154E09695CE
:1034C00087955A95E1F7982F917082E025FF80E06B
:1034D000892B94E026FF90E0892B98E027FF90E06D
:1034E000892BE885F985808BD10111962D913C912E
:1034F000BA85A90141705527B230C9F582E090E044
:1035000021FD02C090E080E0842B952BE885F985B1
:10351000928B818BF101218180E091E022FD02C03C
:1035200090E080E023FFFDC020E032E0A885B9856F
:1035300051964D915C915297842B952B822B932B16
:1035400052969C938E9351978091A101823009F4F9
:10355000EBC0FF24F394D394888599850F969987BF
:103560008887AF85B8891196B88BAF870CCF82E07A
:1035700090E030FD02C090E080E0842B952B44E089
:1035800050E021FD02C050E040E0842B952B48E044
:1035900050E031FD02C050E040E0842B952B40E12B
:1035A00050E032FD02C050E040E0842B952B33FF09
:1035B00092C020E230E0822B932BA885B9855296E9
:1035C0009C938E935197BA85B43009F08AC0F1016B
:1035D0004381548160E470E052FD02C070E060E01D
:1035E00020E830E055FD02C030E020E0862B972B2C
:1035F000E0E0F4E053FD02C0F0E0E0E0282B392BDE
:1036000060E078E054FD02C070E060E02E2B3F2BBC
:1036100080E090E157FD02C090E080E0262B372B40
:10362000282B392BA885B98552963C932E93519718
:10363000F10123813481A9014170552782E090E096
:1036400021FD02C090E080E0842B952B44E050E007
:1036500022FD02C050E040E0842B952B48E050E072
:1036600023FD02C050E040E0842B952B40E150E068
:1036700024FD02C050E040E0842B952B40E250E056
:1036800025FD02C050E040E0842B952B40E450E043
:1036900026FD02C050E040E0842B952B40E850E02E
:1036A00027FD02C050E040E0842B952B40E051E024
:1036B00030FD02C050E040E0842B952B31FF0EC05E
:1036C00020E032E0822B932BA885B98554969C93F9
:1036D0008E9353971FCF30E020E06DCF30E020E095
:1036E000F1CFBA85B53009F015CFF10123813481CE
:1036F000A9014170552720FF02C040E450E021FF9E
:103700000DC020E830E0842B952B822B932BA885CD
:10371000B98552969C938E935197FCCE30E020E071
:10372000F2CF30E020E002CFED89FE8980812301D5
:10373000882309F455C0FDEC4F1AFEEF5F0A1F8283
:10374000EB2DF0E0EE0FFF1FE450FB4F20812B87A5
:10375000D201ED90FD900D911C91139714962C9130
:10376000149715964C9115971696AC901697179638
:103770008C90BF81BC3010F5EA85E23091F4B8300E
:1037800080F01F92C12C6B858B2D0E94AA100F9088
:10379000FF81FF5FFF8328E0420E511CFE30C1F61F
:1037A000D8CED10111968D919C918E219F21CC2450
:1037B000C394892B09F4C12C1F92E5CFBA85B5308B
:1037C000D1F7F10163817481D801C7013CE0B6955E
:1037D000A795979587953A95D1F786239723E7CFB5
:1037E00033EB430E511C1F828B2D90E0880F991FE5
:1037F000DC01A450BB4FBC87AB87BA85B23061F502
:10380000EF81E83000F5E43038F5F201E05AFF4F7F
:10381000E080F18002811381D10111968D919C91FC
:103820008E219F21CC24C394892B09F4C12C1F9293
:103830008780A68024814581EB85FC8560818B2D66
:103840000E94AA100F90FF81FF5FFF8328E0420EC5
:10385000511CFC3091F67DCEF201DACF0981123095
:1038600059F480914201801739F0011105C040E000
:1038700060E0C3010E948912009342011A81809185
:10388000A101823059F480914301811739F011115F
:1038900005C040E061E0C3010E948912109343011A
:1038A00010916C07BD85B11770F4DB2E8091A101DA
:1038B0008D1549F0D81620F46D2DC3010E946618AD
:1038C000D394D11698F3ED85E0936C078F2D66960F
:1038D0000FB6F894DEBF0FBECDBFDF91CF911F9121
:1038E0000F91FF90EF90DF90CF90BF90AF909F909F
:1038F0008F907F906F905F904F903F902F900895A2
:10390000FC01809122079091230786179707A0F06A
:103910006115710529F49091E8009E779093E80075
:1039200090E06115710551F4911108C08091E80093
:1039300082FF35C080E00895BC01F2CF8091180865
:103940008823C9F18530C9F18091E80083FD31C039
:103950008091E80082FDEACF8091E80080FFE1CF0E
:103960002091F3008091F200322F282F611571050C
:1039700019F02034310558F091E02034310509F078
:1039800090E02091E8002E772093E800CACF819143
:103990008093F100615071092F5F3F4FE7CF809115
:1039A0001808882341F0853041F08091E80083FFBA
:1039B000BDCF81E0089582E0089583E008952091CD
:1039C000E4003091E50085E69091EC0090FF06C0A0
:1039D0009091E80090FF06C080E008959091E80083
:1039E00092FDFACF90911808992391F0953091F0BB
:1039F0009091EB0095FD10C04091E4005091E500DE
:103A00002417350709F381509A01F1F684E00895EF
:103A100082E0089583E0089581E0089580911C0775
:103A200087FF13C08091E80082FF06C08091E80004
:103A30008B778093E80004C0809118088111F2CF41
:103A40000895809118088823D9F38091E80080FFB9
:103A5000F8CF8091E8008E77ECCF982F973028F040
:103A60008F708093E90081E008959093E900242FFE
:103A7000762F50E0981731F07091EC002091ED0016
:103A80005091F00021FD02C09F5FE8CF3091EB0024
:103A90003E7F3093EB003091ED003D7F3093ED00A1
:103AA0003091EB0031603093EB007093EC00209389
:103AB000ED005093F0002091EE0027FDE5CF80E06F
:103AC000089542E050E06BEC75E082E398E00C94DE
:103AD0006204CF93DF930E943210EC010E94611DBB
:103AE0008C0F9D1FDF91CF9108950F931F93CF935C
:103AF000DF93CDB7DEB7A4970FB6F894DEBF0FBE45
:103B0000CDBF182F83E0898380EC8A838BE18B8380
:103B100070E040E250E0CE0104960E94283401E0BB
:103B20009E012C5D3F4F43E2BE016F5F7F4F812FAF
:103B30000E94C805A4960FB6F894DEBF0FBECDBF95
:103B4000DF91CF911F910F9108950F931F93CF9302
:103B5000DF93CDB7DEB7C754D1090FB6F894DEBFF7
:103B60000FBECDBF182F83E0898380E88A8381E070
:103B70008B8370E040E250E0CE0104960E9428342E
:103B800001E09E01295B3F4F43E2BE016F5F7F4F23
:103B9000812F0E94C8058091C8019091C901A09110
:103BA000CA0127968DAF9EAFAFAF279700E29E0167
:103BB0002C5D3F4F43E0BE016C5B7F4F812F0E9425
:103BC000C805C95BDF4F0FB6F894DEBF0FBECDBF8F
:103BD000DF91CF911F910F910895EF92FF920F9374
:103BE0001F93CF93DF931F92CDB7DEB77C01FC010B
:103BF0008781198203E0970141E0BE016F5F7F4F2B
:103C00000E94C805F701833061F010821182128290
:103C100080E00F90DF91CF911F910F91FF90EF9077
:103C20000895828187708130C9F40BE811E0C801E2
:103C30000197F1F76EEE87810E94A51DC8010197DB
:103C4000F1F760E8F70187810E94A51DC80101977F
:103C5000F1F760E0F70187810E94751D8BE891E024
:103C60000197F1F781E0D5CF2F923F924F925F926B
:103C70006F927F928F929F92AF92BF92CF92DF927C
:103C8000EF92FF920F931F93CF93DF93CDB7DEB7E1
:103C9000AF970FB6F894DEBF0FBECDBF1C01809169
:103CA000800781116DC080918107811169C00EE785
:103CB00017E030E8C32E37E0D32EF12CE12CD801E9
:103CC0008D918D0181110CC0F701EA56FF4FE20D75
:103CD000F31D808191810E94ED1DF8013197808351
:103CE000F60181936F0180918007811104C080915A
:103CF0008107882371F08091A2019091A301823005
:103D0000910538F0880F991F880F991F0597019723
:103D1000F1F7F2E0EF0EF11C34E0E316F10479F66E
:103D200081E00E946E1307E027E04FE760E082E346
:103D300098E00E94661067E082E398E00E94C30E5C
:103D400060E082E398E00E94CF0E80918007882394
:103D500009F462C041E060E0C1010E940E1162E41A
:103D600082E398E00E94CF0E9091800780918107B6
:103D7000911159C0811157C082EB93E00E9432101B
:103D80001E8A1F8A10E0510144E9A40EB11C44248C
:103D90004394BBE88B2E992493948091A10118172A
:103DA00008F0E1C0C12ED12CF601E55BFF4FEE0F0C
:103DB000FF1FE20DF31DE080F180D501ED92FC9232
:103DC000F601E458F84FFA8FE98F1082F601E058B7
:103DD000F84F8081882309F4C4C0A6014258584F87
:103DE0003A01DA015C90511029C0C7010E94ED1D13
:103DF000882309F4B6C0F3014082612FC1010E94FB
:103E0000661841E0612FC1010E940E11AAC08EEA1E
:103E100093E00E943210A3CF809181078111F7CFE8
:103E200082EB93E0F6CF811103C08EEA93E0A6CF38
:103E300041E061E0C1010E940E11A2CFD7018D9136
:103E40009C91892BB1F1F7016281862F87708130B7
:103E500099F463FB882780F990917307891761F0C3
:103E6000C4010197F1F763FB662760F987810E941F
:103E7000751DC4010197F1F7F701828183FB882743
:103E800080F9809373078781488E04E097012D5F46
:103E90003F4F41E0BE01685E7F4F0E94C8058430FD
:103EA000A9F0D7011C9211961C92119712961C92A0
:103EB00005C0C7010E94ED1D8111C5CFD3011C9221
:103EC000612FC1010E94661840E09CCFF5018081FE
:103ED00091810E942D092F87388B498B5A8B6B8BD0
:103EE0007C8B8D8B8F859889892B41F3A98DBA8D19
:103EF0004C92B7E0BC9D7001BD9DF00C1124E1E037
:103F0000F0E0EC0FFD1FEE0EFF1ED5018D919C9190
:103F10000E942D09F70120833183428353836483F8
:103F200075838683D10117968C9181111AC0F50192
:103F3000A081B181CC0CDD1CCC0CDD1CF101EC0DA1
:103F4000FD1D85A9811106C05524539487A98111AF
:103F500001C0512C12968C91129750FA83F9129647
:103F60008C931F5F1ACFD12CA10146565F4F5FA3E0
:103F70004EA3C10185569F4F99A788A7D101A3568B
:103F8000BF4FBBA7AAA7F101E456FF4FFDA7ECA7BF
:103F90004C585F4F5FA74EA78091A101D81608F03B
:103FA00086C26D2C712CF301E258F84F8081882372
:103FB00009F45CC287E0869DF001879DF00D112415
:103FC00081E090E08C0F9D1FE80FF91F2381822F65
:103FD00082958F7090E0982F88279295907F2F7010
:103FE00030E0322F2227820F931F2481422F4295E7
:103FF0004F70A0E14A9FA0011124840F951F2F70DC
:10400000AC01420F511D5A8F498FC301880F991F70
:104010009C8F8B8FDC01A858B84F8D919C91258186
:10402000D301AA58B84FB9A3A8A33C91231308C041
:104030004681F301EC58F84F3081431709F454C21C
:10404000E6E1F0E0EC0FFD1FE60DF71D31E0498DD4
:104050005A8D8417950709F430E0308387E0869DF8
:10406000F001879DF00D112481E090E08C0F9D1FE1
:10407000E80FF91F938193FB882780F992FFF8C11D
:1040800092E0892B97E0969DF001979DF00D112409
:10409000A1E0B0E0AC0FBD1FEA0FFB1F938191FFC1
:1040A000E9C194E0892B97E0969DF001979DF00D72
:1040B000112441E050E04C0F5D1FE40FF51F938188
:1040C00090FFDAC198E03FE0369DF001379DF00D9A
:1040D0001124E20DF31D892B808B87E0869DF00172
:1040E000879DF00D112481E090E08C0F9D1FE80F5B
:1040F000F91F848182FB992790F99E8F1F8E80FF84
:10410000BDC182E090E0AE8DBF8D8A2B9B2B37E046
:10411000369DF001379DF00D112441E050E04C0F29
:104120005D1FE40FF51F348144E050E031FD02C013
:1041300050E040E0842B952B37E0369DF001379D11
:10414000F00D1124A1E0B0E0AC0FBD1FEA0FFB1F82
:10415000348148E050E033FD02C050E040E0842B61
:10416000952B37E0369DF001379DF00D112441E08D
:1041700050E04C0F5D1FE40FF51F348140E150E02B
:1041800035FD02C050E040E0842B952B37E0369D92
:10419000F001379DF00D1124A1E0B0E0AC0FBD1F80
:1041A000EA0FFB1F348140E250E034FD02C050E0D2
:1041B00040E0842B952B37E0369DF001379DF00DC4
:1041C000112441E050E04C0F5D1FE40FF51F3381D7
:1041D00040E450E036FD02C050E040E0842B952BD7
:1041E00037E0369DF001379DF00D1124A1E0B0E0DD
:1041F000AC0FBD1FEA0FFB1F338140E850E037FDD5
:1042000002C050E040E0842B952B37E0369DF00152
:10421000379DF00D112441E050E04C0F5D1FE40F7D
:10422000F51F338140E051E035FD02C050E040E031
:10423000842B952B37E0369DF001379DF00D11242E
:10424000A1E0B0E0AC0FBD1FEA0FFB1F338140E0DF
:1042500052E034FD02C050E040E03FE0369DF00106
:10426000379DF00D1124E20DF31D842B952B928BBD
:10427000818B2F3B0CF005C187E0869DF001879D67
:10428000F00D112441E050E04C0F5D1FE40FF51FCD
:104290008FEB858387E0869DF001879DF00D1124CB
:1042A000A1E0B0E0AC0FBD1FEA0FFB1F86818F3B82
:1042B0000CF0F8C08FEB8683EEA1FFA18080082C64
:1042C000000C9908AA08BB0887E0869DF001879D2D
:1042D000F00D112441E050E04C0F5D1FE40FF51F7D
:1042E00055815D8F252F550F330B440B550B281926
:1042F00039094A095B09AFEFB0E00E94A632A8A5D0
:10430000B9A52C91022E000C330B440B550B281928
:1043100039094A095B090E948732822F27572331C6
:1043200008F480E890E02FE0269DF001279DF00D35
:104330001124E20DF31D382F2227820F931F968B35
:10434000858BEAA5FBA5E0800E2C000CFF08000B76
:10435000110B87E0869DF001879DF00D112441E04F
:1043600050E04C0F5D1FE40FF51F9680292D092C9E
:10437000000C330B440B550B2E193F09400B510B0E
:10438000AFEFB0E00E94A632ACA5BDA52C91022EE5
:10439000000C330B440B550B2E193F09400B510BEE
:1043A0000E948732822F2757233108F480E890E05B
:1043B0002FE0269DF001279DF00D1124E20DF31D45
:1043C000382F2227820F931F908F878B2101BEE900
:1043D0004B0E511CA98DBA8DCD01B0E0A0E08AA38F
:1043E0009BA3ACA3BDA3EB8DFC8DE450FB4FB08031
:1043F000F201E080F180028113818AA19BA1ACA12E
:10440000BDA18E219F21A023B123CC24C394892B4D
:104410008A2B8B2B09F4C12C1F92D20117968C90FA
:1044200017971696AC90169714962C91149715968C
:104430004C916B2D8D2D0E94AA10B8E04B0E511C93
:104440000F90EEA5FFA5E415F50591F6EB8DFC8D1B
:10445000E858F84F498D5A8D51834083ED8DA8A1BE
:10446000B9A1EC93F301EC58F84F9082D39494CD1A
:1044700090E007CE90E016CE90E025CE90E080E070
:1044800042CE22340CF406CF87E0869DF001879D52
:10449000F00D112481E090E08C0F9D1FE80FF91FB3
:1044A00081E4F7CE82340CF407CF81E404CF8E8907
:1044B000811101C08F89AF960FB6F894DEBF0FBE91
:1044C000CDBFDF91CF911F910F91FF90EF90DF90C3
:1044D000CF90BF90AF909F908F907F906F905F90A4
:1044E0004F903F902F900895E98DFA8D8E179F077A
:1044F00009F4BCCFA5CD0E940D34EF92FF920F932B
:104500001F93CF93DF9300D0CDB7DEB7809118080B
:10451000882309F4DBC08091E9008F709091EC0052
:1045200090FF4FC090E8F92EF82A1092E900809190
:10453000E80083FFC7C0ECE1F7E08091F1008193D0
:1045400027E0E432F207C9F7E0901D0781E0E812A6
:104550001DC080911C07813AC9F48091E800877FD3
:104560008093E80080911E0790911F07811593406A
:1045700051F568E070E080E091E00E94801CE092DC
:1045800022088091E8008B778093E8008091E80012
:1045900083FF8AC080911C0790911D079A3008F014
:1045A00083C0E92FF0E0E952FD4D0C94E23227235D
:1045B0004D2354234D235423AE23D02354230326C9
:1045C000102690E0B0CFE0911708E730D0F6F0E089
:1045D000E451FD4D0C94E232F322FA22FF2204232F
:1045E00009230E23222364E170E08CE196E00E940F
:1045F000801CC7CF60E470E089E096E0F8CF60E40B
:1046000070E081E096E0F3CF60E470E089EF95E040
:10461000EECF60E470E082EF95E0E9CF81E0809337
:10462000EE0582E08093EB058091200790912107B1
:1046300060E470E0892B19F48EEE95E0D8CF8BEE14
:1046400095E0D5CF60E470E086EE95E0D0CF80387D
:1046500089F0823849F5809120078F70873020F5E6
:104660008093E9008091EB0085FB882780F9109208
:10467000E90004C080918A0781110DC09091E80083
:10468000977F9093E8008093F1001092F100809161
:10469000E8008E7732C082E0F1CF282F2D7F21F401
:1046A0008823E9F0823071F18091E80083FF0AC02D
:1046B0008091E800877F8093E8008091EB00806222
:1046C0008093EB008F2D8F708093E9000F900F90F7
:1046D000DF91CF911F910F91FF90EF9008958091FE
:1046E0001E07813009F7933009F080E080938A0734
:1046F0001092E9008091E800877F8093E8000E9493
:104700000E1DD2CF80911E078111F2CF809120071C
:104710008F702FEF280F263038F68093E900209114
:10472000EB0020FFE5CF933031F48091EB00806205
:104730008093EB00DDCF9091EB0090619093EB00C4
:1047400021E030E001C0220F8A95EAF72093EA00C9
:104750001092EA008091EB008860EACF8111A4CF2B
:1047600010911E071F778091E3008078812B809342
:10477000E3008091E800877F8093E8000E940E1D8F
:104780008091E80080FFFCCF8091E30080688093F7
:10479000E30083E0111101C082E08093180884CF08
:1047A0008058823008F080CF20911E0730911F077B
:1047B0001A821982832F99278330910509F41CC12D
:1047C000D0F481309105A9F1029709F45DC06981A7
:1047D0007A816115710509F467CF8091E800877FC0
:1047E0008093E800C8010E94801C8091E8008B77CC
:1047F0008093E80059CF8132910509F49FC18297D7
:1048000031F780911708843009F4E7C108F0BBC183
:10481000813009F4C8C1833009F4D4C146E450E0C2
:104820006AE671E086E896E00E94683286E490E0ED
:10483000C4C180911708882399F0813001F100915B
:1048400090071091910742E150E065EC70E080E341
:1048500096E00E94683200933C0610933D0608C023
:1048600042E150E069EE70E080E396E00E94683239
:1048700082E190E09A83898300E316E0A8CF42E1C9
:1048800050E067ED70E0F0CF00918F0710911708AE
:10489000113009F456C008F44DC0153009F496C023
:1048A0001350143008F0A1C0E12FF0E0EF54FB4F9B
:1048B000108149E050E064E171E082E496E00E94FA
:1048C000683299E1099F902D1124975F90934406D7
:1048D00000934606002309F48AC049E150E06BEFDB
:1048E00070E08BE496E00E94683210924D061093BF
:1048F0005B0681E880935F06023008F478C049E1E6
:1049000050E06BEF70E084E696E00E94683281E050
:10491000809366061093740682E8809378060230CE
:1049200009F465C049E150E06BEF70E08DE796E077
:104930000E94683281E390E09A83898300E814E062
:1049400046CF49E050E068E571E082E496E00E94DD
:10495000683299E1099F902D1124975F9093440646
:1049600000934606002361F149E150E06FE371E0F6
:104970008BE496E00E94683210924D064CE6E42EDD
:10498000E0925B0681E880935F060230C8F049E15F
:1049900050E06FE371E084E696E00E946832109385
:1049A0006606E092740682E880937806023041F051
:1049B00049E150E06FE371E08DE796E00E946832D4
:1049C000B9E10B9FC001112409960AC042E250E0F0
:1049D0006DE171E082E496E00E94683282E290E04C
:1049E0009A83898302E416E0F2CE16E462CFE9E10D
:1049F0000E9FC0011124E8CFC9019927823091058B
:104A000049F18330910509F441C08130910509F0E5
:104A10004AC080911708813089F444E351E0DA01FB
:104A20000D900020E9F7AD014553514064E371E07A
:104A3000CE0101960E94C1278C01C9CE47E251E008
:104A4000FA0101900020E9F7AF014852514067E2B6
:104A500071E0EECF80911708813061F445E151E0BB
:104A6000DA010D900020E9F7AD014651514065E1B2
:104A700071E0DECF48E051E0FA0101900020E9F753
:104A8000AF014950514068E071E0D2CF60918D078D
:104A900070918E07FB0101900020E9F73197AF017B
:104AA000461B570BC5CF6EE774E0E1E0222331F1DE
:104AB000253039F525EC34E0E0E0FCE0FE0FD901CB
:104AC0001D919D018E2F90E0019670E060E0412FD6
:104AD00042954F7050E042535A4FDA014C91DC013D
:104AE0004C93EE5F90E0A12FAF70B0E0A253BA4FAD
:104AF0004C91DC0111964C93EF13E1CF4E2F50E017
:104B000097CF20911708880F991F222329F0213071
:104B100049F08B549B4F02C085539B4FFC01608131
:104B2000718105C083549B4FDC016D917C91FB0129
:104B300001900020E9F73197E61BE0CF10911708AC
:104B400049E050E061E671E08DE796E00E9468324E
:104B50008BE5143079F040F48CE6113059F089E59A
:104B6000133041F086E406C081E5153019F087E383
:104B70001630C1F78093840689E090E09A83898398
:104B80000DE716E024CE853099F1863009F046CE47
:104B900047E350E060EB71E086E896E00E946832FF
:104BA00087E390E00AC04CE650E06CEE72E086E8E5
:104BB00096E00E9468328CE690E09A83898306E84A
:104BC00016E005CE49E550E063E972E086E896E03C
:104BD0000E94683289E590E0F0CF4BE550E068E351
:104BE00072E086E896E00E9468328BE590E0E5CFBF
:104BF00041E550E067EE71E086E896E00E94683299
:104C000081E590E0DACF803809F04ECD8091E80060
:104C1000877F8093E80080918B078093F10037CDE8
:104C2000811142CD10911E07123008F03DCD8091C8
:104C3000E800877F8093E80010938B070E940E1D89
:104C40001123F9F084E080931808009117080023DD
:104C5000F1F042E360EC82E00E942D1D11E08091B2
:104C60008F07811708F420CD812F8F70873020F4B3
:104C700042E361EC0E942D1D053009F415CD1F5F44
:104C8000EECF8091E30087FDDDCF81E0DCCF42E213
:104C900061EC81E00E942D1D46E260EC82E00E9402
:104CA0002D1D02CD0F931F93CF93DF938C01EB014A
:104CB0008091E80085FD10C08091E8008B7780939B
:104CC000E8000E947D220E94DF1C882389F3DF9187
:104CD000CF911F910F9108958091F100F801819378
:104CE0008F01219729F780E0F2CF1F920F920FB624
:104CF0000F9211242F933F938F939F93AF93BF9362
:104D000080912A0890912B08A0912C08B0912D0831
:104D10003091290823E0230F2D3758F50196A11D66
:104D2000B11D2093290880932A0890932B08A09303
:104D30002C08B0932D0880912E0890912F08A091F7
:104D40003008B09131080196A11DB11D80932E0845
:104D500090932F08A0933008B0933108BF91AF9182
:104D60009F918F913F912F910F900FBE0F901F90A9
:104D7000189526E8230F0296A11DB11DD2CF1F93CF
:104D8000CF93DF93EC0180E88FA388A789A78AA738
:104D90001BA6FE01BC968CE0DF011D928A95E9F707
:104DA0001EA219AE1AAE1BAE1CAE15E0CE010E94BB
:104DB000540C61E070E080E090E00E942404115007
:104DC000A9F7CE01DF91CF911F910C94540CCF9392
:104DD000DF93EC01849A8C9A229A2A9A219A299A32
:104DE00023982B982B9A0E948F04CE01DF91CF91AC
:104DF0000C94BF26CF93DF93EC013E9A469A229AF9
:104E00002A9A219A299A23982B982B9A0E948F04E8
:104E1000CE01DF91CF910C94BF261F920F920FB657
:104E20000F9211242F933F934F935F936F937F9330
:104E30008F939F93AF93BF93EF93FF938091DA008B
:104E400080FF17C08091D80080FF13C08091DA00E6
:104E50008E7F8093DA008091D90080FF86C080E148
:104E600089BD82E189BD09B400FEFDCF81E0809358
:104E700018088091E10080FF17C08091E20080FF58
:104E800013C08091E2008E7F8093E2008091E20067
:104E900080618093E2008091D80080628093D80086
:104EA00019BC85E0809318088091E10084FF26C03A
:104EB0008091E20084FF22C080E189BD82E189BD4A
:104EC00009B400FEFDCF8091D8008F7D8093D8007B
:104ED0008091E1008F7E8093E1008091E2008F7EDF
:104EE0008093E2008091E20081608093E2008091F3
:104EF0008B078823F1F184E0809318088091E1000A
:104F000083FF22C08091E20083FF1EC08091E100F8
:104F1000877F8093E10082E08093180810928B07CE
:104F20008091E1008E7F8093E1008091E2008E7F8E
:104F30008093E2008091E20080618093E20042E38E
:104F400060E080E00E942D1DFF91EF91BF91AF9135
:104F50009F918F917F916F915F914F913F912F9191
:104F60000F900FBE0F901F90189519BC1092180843
:104F700080CF8091E30087FD02C081E0BDCF83E058
:104F8000BBCFCF93DF93DC014032510514F04FE1EA
:104F900050E090E0292F30E02417350784F04F5F70
:104FA0005F4F440F551F4D935C93536050932507FB
:104FB0004093240784E297E0DF91CF910895F901AF
:104FC000EE0FFF1FEA5DF84F260F371FE90128811A
:104FD000022E000C330B318320839F5FDBCFCF93F6
:104FE000DF93CDB7DEB729970FB6F894DEBF0FBEBB
:104FF000CDBF789484B5826084BD84B5816084BD62
:1050000085B5826085BD85B5816085BD80916E0066
:10501000816080936E001092810080918100826097
:1050200080938100809181008160809381008091D4
:1050300080008160809380008091910082608093E5
:105040009100809191008160809391008091900007
:105050008160809390008091C10084608093C10042
:105060008091C10082608093C1008091C100816005
:105070008093C1008091C30081608093C3008091C0
:10508000C00082608093C0008091C20081608093E4
:10509000C20080917A00846080937A0080917A00C7
:1050A000826080937A0080917A00816080937A0098
:1050B00080917A00806880937A0056985E9A109268
:1050C000220890E080E00E947132843008F07DC0B8
:1050D00080931C0880911C08823009F478C08330CA
:1050E00009F4CFC08130D1F583EA91E00E94E83223
:1050F0008C010E94990382E195E0D8018D939C93E5
:10510000F801EC56FF4F138214828AE03596DF01D6
:10511000B82E1D92BA94E9F73A9613821482359606
:10512000DF011D928A95E9F73A961082D801AD54B5
:10513000BF4F80E8EBECF1E001900D928A95E1F72A
:10514000D801AD5CBE4F80E7EBE4F2E001900D9238
:105150008A95E1F7109324080093230810924308DE
:105160008CE3809342081092B90084E48093BC00E1
:105170008CE08093B8001092360810923708EFE662
:10518000F6E0C590D490E1E7F6E0F490E2E7F6E0CF
:10519000E491E0933808E3E7F6E0E491E09339081E
:1051A000E4E7F6E0E491E0933A0810E000E00F1540
:1051B00008F09DC0F601E00FF11F649182E398E0D2
:1051C0000E94BB0E0F5F1F4FF2CF81E081CF8DE7B2
:1051D00091E00E94E8328C010E9499038CE395E0F3
:1051E000F8019183808381E490E00E94E832F1E449
:1051F000FF2EDC01EF2D1D92EA95E9F720E335E063
:10520000DC012D933C93F801EA56FF4F9183808394
:1052100081E490E00E94E832FC011192FA94E9F7EF
:1052200024E235E0DC012D933C93F801E856FF4F72
:10523000918380833296108231961082319610824B
:1052400031961082319610823196108231961082FA
:1052500031961082319610823196108231961082EA
:10526000D801AB55BF4F80E8EBEBF2E001900D9217
:105270008A95E1F7D801AB5DBE4F88E5EBE3F3E03B
:1052800065CF8EE091E00E94E8328C010E94990384
:105290008EE495E0F8019183808388E090E00E949D
:1052A000E83225E1DC0117962C93F801EA56FF4F0E
:1052B0009183808388E090E00E94E83225E0FC0141
:1052C0002783F801E856FF4F9183808332969FEB46
:1052D0009083319681E480833196908331968083E8
:1052E000D801A256BF4F80E7E3E9F3E02FCF82E376
:1052F00098E00E949B1061E882E398E00E94BB0E58
:1053000061E082E398E00E94BB0EE4E8F4E0F093F1
:105310003E08E0933D088491E5E8F4E0E491F82F3D
:10532000319709F0E1C010923B0882E398E00E94B7
:105330009B1011E0109340086EE182E398E00E9418
:10534000CF0E82E0809340088DE794E00E943210F7
:105350001093400862E082E398E00E94C30E0E942E
:105360003D1381E090E00E947132873008F080E0C8
:10537000A0912308B091240817968C931797ED916C
:10538000FC9111970190F081E02DCD01099564E128
:1053900070E080E090E00E942404809123089091C6
:1053A0002408DC01ED91FC910280F381E02D099548
:1053B00064E170E080E090E00E9424048091230882
:1053C00090912408DC01ED91FC910280F381E02DA5
:1053D0000995A0912308B091240851968C9151977A
:1053E00080FF86C081E017968C9317974E99A6C0D0
:1053F00017961C9182E398E00E949B1045E050E0D4
:105400006FED75E082E398E00E9462040E94611DE6
:105410006CED75E080E090E00E94240482E398E067
:105420000E949B1080E794E00E94691D82E694E050
:105430000E94691D85E594E00E94691D64EF71E09A
:1054400080E090E00E94240481E0812C912C5401A2
:1054500001E0FF24F3944E9951C0F12C813051F4B6
:105460000E9456044B015C0160E170E080E090E036
:105470000E9424040E945604681979098A099B092C
:10548000693E73408105910510F40C944F3282E31C
:1054900098E00E949B108DE494E00E94691D86E4D0
:1054A00094E00E943210812F0E944D100E94611DD5
:1054B0000E94611D82E394E00E94321060ED77E06B
:1054C00080E090E00E942404612F81E090E00E943F
:1054D000793288E19EE00FB6F894A8958093600039
:1054E0000FBE90936000FFCF81E080933B081DCFFB
:1054F00081FF7CCF17961C92179778CF81110C945F
:105500004C3260E170E080E090E00E94240481E091
:10551000011106C0882379F01F5F133008F010E0F6
:1055200007E025E04FE760E082E398E00E94661024
:10553000812F0E944D1000E08F2D8BCFED91FC91BB
:1055400011970484F585E02DCD01099561E082E392
:1055500098E00E94C30E60E082E398E00E94CF0EC4
:10556000E0912308F0912408878181111CC188E50E
:105570000E946110809123089091240821E032E07C
:10558000FC01348323830190F081E02D0084F185B8
:10559000E02D09958C018091230890912408DC016D
:1055A000ED91FC910284F385E02D09952091A101F4
:1055B000E0912308F09124083781309317089093E5
:1055C00091078093900720938F0710938E07009385
:1055D0008D0784B7877F84BF0FB6F894A895809114
:1055E0006000886180936000109260000FBE80E8C8
:1055F00030E020E00FB6F8948093610020936100C2
:105600000FBE8091D8008F7E8093D8008091D70004
:1056100081608093D70084E082BF81E080938C0713
:105620008091D8008E7F8093D8001092E200109273
:10563000DA001092E1008091D8008F778093D80033
:105640008091D80080688093D8008091D8008F7DA9
:105650008093D80019BC1092180810928B071092F2
:105660008A078091E0008B7F8093E0008091D800D2
:1056700081608093D80042E360E080E00E942D1DAD
:105680008091E1008E7F8093E1008091E200816053
:105690008093E2008091E20088608093E200809134
:1056A000E0008E7F8093E0008091D800806180933D
:1056B000D80078940E94FF030091250810912608D5
:1056C0002091270830912808AB01BC01401B510BE9
:1056D000620B730B8091A2019091A301B0E0A0E056
:1056E000C12C481759076A077B07B0F0809123083F
:1056F00090912408DC01ED91FC910280F381E02D72
:105700000995C82E0E94FF03609325087093260810
:105710008093270890932808D12C8091A101D81656
:1057200008F01CC68091230890912408DC01ED91BB
:10573000FC910680F781E02D6D2D099500912308DD
:1057400010912408ED2CF12CF8018781843009F4A4
:1057500087C108F037C0882309F469C093E181301C
:1057600009F400C298E0833009F0B8C18FE08E9D43
:10577000F0018F9DF00D1124E00FF11FE089EF7013
:10578000E150EA3008F0A9C3F0E0E753F44D0C947F
:10579000E232F82E652F6D2F692F6B2F672F6D2F3B
:1057A000612F5D2F632F813011F483E5E1CE8230CC
:1057B00011F488E4DDCE8350843010F48DE4D8CE2B
:1057C00085E4D6CE853009F469C195E0863009F0CC
:1057D000C9CF8FE08E9DF0018F9DF00D1124E00F59
:1057E000F11F21893289A9014170552782E021FFEB
:1057F00080E0842B22FF67C424E0822B80939207F1
:105800008FE08E9DF0018F9DF00D1124E00FF11FB0
:105810002589368930939407209393072789308D03
:10582000309396072093950722E937E08EC094E1E4
:105830008FE08E9DF0018F9DF00D1124E00FF11F80
:105840002089822F817032E021FF30E0832B34E009
:1058500022FF30E0832B23FF6FC128E0822B2FE053
:105860002E9DF0012F9DF00D1124E00FF11F2189D5
:10587000328940E131FF40E0842B40E230FF40E0DC
:10588000842B40E432FF40E0842B40E833FF40E0CB
:10589000842B80935D01A901E4E056954795EA9534
:1058A000E1F7417082E025FF80E0842B44E034FF83
:1058B00040E0842B40E120FF40E0842B40E221FFC8
:1058C00040E0842B40E422FF40E0842B40E823FFAB
:1058D00040E0842B80935E018FE08E9DF0018F9DD0
:1058E000F00D1124E00FF11F45895689505850934F
:1058F0006201409361014FEF5FE76789708DDA01C4
:10590000A61BB70BB0936401A0936301618D728DE8
:1059100070587093660160936501638D748D461BAA
:10592000570B5093680140936701D801AE0DBF1D1E
:105930009E968C91882309F401C1858D80935F0127
:10594000868D809360012BE531E030931B08209316
:105950001A089093190880911808843009F074C0CF
:1059600082E08093E9008091E80082FF2AC0809164
:10597000E80085FF21C0809117088111C2C40E94F0
:10598000DF1C811108C050E040E068E070E0CE010B
:1059900001960E945226898181110EC08A81883029
:1059A00059F4F701EE0FFF1FEE0FFF1FE00FF11F7D
:1059B0008C8185AB8D8187AB8091E8008B7780935C
:1059C000E800870186E0000F111F8A95E1F709566C
:1059D000184F4091190850E060911A0870911B0807
:1059E000C8010E941234892B79F180911708853003
:1059F00009F094C481E08093E9008091E80080FF81
:105A000023C0E0901908A0901A08B0901B080E94CB
:105A1000DF1CF12C882309F494C48091E8008E7770
:105A20008093E800E0901908F12CA0901A08B0903B
:105A30001B08A701B501C8010E941F34A70170E02F
:105A400060E0C5010E9428340E947D22E091230875
:105A5000F09124088781882309F480C4D3945DCE13
:105A600097E08FE08E9DF0018F9DF00D1124E00FE7
:105A7000F11FE089EF70E150EA3008F09BC2F0E0DE
:105A8000EC5BF24D0C94E2326F2FD22FDA2FD62F2F
:105A9000D82FD42FDA2FCE2FCA2FD02F94E0DD208D
:105AA00019F093E0D11002C381E080939101D801F5
:105AB0005096EC91EF70E150EA3008F0F2C2F0E05D
:105AC000EC59F24D0C94E232DC2F493051304D301C
:105AD0004F304B305130453041304730843018F52D
