:100000000C9478030C94A0030C94A0030C94A0030C
:100010000C94A0030C94A0030C94A0030C94A003D4
:100020000C94A0030C94A0030C942A280C94A00315
:100030000C94A0030C94A0030C94A0030C94A003B4
:100040000C94A0030C94A0030C94A0030C94A003A4
:100050000C94A0030C94A0030C94A0030C9492277E
:100060000C94A0030C94A0030C94A0030C94A00384
:100070000C94A0030C94A0030C94A0030C94A00374
:100080000C94A0030C94A0030C94A0030C94A00364
:100090000C94A0030C94A0030C94A0030C94A00354
:1000A0000C94A0030C94A0030C94A003AED580A8DC
:1000B0003FD300408D142002A1C8DA12817FD9F10C
:1000C000DB40A4A6AF1201000200000040D0167E63
:1000D0001200010102030112010002000000400DA4
:1000E0000F920000010102030112010002FFFFFF55
:1000F000405E048E021401010203010904000001A4
:1001000003000000092111010001224600070581BA
:10011000034000010902220001010080320902228D
:100120000001010080320904000001030000000901
:10013000211101000122510007058103400001093E
:1001400004000001030000000921110100012256F2
:100150000007058103400001090229000101008018
:10016000FA09211101000122460005010905A1013A
:10017000150025013500450175019518050919017E
:100180002918810205012507463B01750495016583
:10019000140939814265009501810126FF0046FF5F
:1001A000000930093109350936750895048102C006
:1001B00005010905A10105091901290315002501FA
:1001C0007501950355006500810275019505810350
:1001D00005010901150026FF0375109502A100090C
:1001E0003009318102C0C005010905A1018501A1C5
:1001F0000005091901290C150025019510750181CB
:100200000205010939150025073500463B0175082F
:10021000950165148142C0C005010902A101850252
:100220000901A100093009311581257F3581457FFC
:10023000950275088106C0C005010904A101A1004D
:100240000509190129101500250195107501810274
:1002500005010901A100093009311580257F9502AA
:1002600075088102C009371580257F9501750881C1
:10027000060938150026FF00950175088102093925
:10028000150025073500463B017508950165148169
:1002900042C0C005010905A1011500250135004531
:1002A000017501950E05091901290E81029502813A
:1002B0000105012507463B017504950165140939BF
:1002C000814265009501810126FF0046FF0009304B
:1002D000093275089502810205027508950315001B
:1002E00026FF0009BB09C509C88102C0050109052F
:1002F000A10115002501350045017501951005097D
:1003000019012910810205012507463B0175049555
:100310000165140939814265009501810126FF00BC
:1003200046FF000930093109320935750895048105
:10033000020600FF092009210922092309240925B1
:100340000926092709280929092A092B950C810260
:100350000A21269508B102C05341542D57484545FE
:100360004C005341542D33440053415455524E00D8
:1003700047454E455349532D360047454E45534951
:10038000532D33004D554C54492D544150004A4F84
:1003900047434F4E00464C49474854535449434BFA
:1003A000004455414C53484F434B004A4554004488
:1003B00049474954414C004E4547434F4E00504F2A
:1003C00050204E004E2F41004E4F4E45005357498E
:1003D000544348004552524F52004849440058493E
:1003E0004E5055540047454E455349532B534154A5
:1003F00055524E00534D532B41544152492B4336D5
:10040000342B414D494741004E454F2D47454F0044
:100410005053580000030C0F30333C3FC0C3CCCFC7
:10042000F0F3FCFF0000000200090F0000030401CC
:10043000000C0000000000000000000000000000B0
:100440000000004445564943452057494C4C205232
:10045000455354415254004D4F44453A20005341B6
:10046000564544210A00484F4C443A2020534156F7
:10047000450A0050524553533A204348414E4745A0
:10048000004F5554505554204D4F44450A00524595
:10049000464C4558000000050720610000000000A0
:1004A00000005F000060707870606050485060032A
:1004B000070F07030305090503081C3E7F7F081C7F
:1004C00022417F7F7F3E1C087F41221C08082A1C96
:1004D0002A0808083E0808005030000008080808EC
:1004E00008006060000020100804023E5149453EAB
:1004F00000427F400042615149462141454B31183D
:1005000014127F1027454545393C4A49493001714D
:100510000905033649494936064949291E00363638
:1005200000003C7E7E7E3C3C4242423C141414144B
:1005300014F0F0F0F0F0F0909090F0324979413EF4
:100540007E1111117E7F494949363E414141227F4A
:100550004141221C7F494949417F090901013E412E
:100560004151327F0808087F00417F41002040410F
:100570003F017F081422417F404040407F02040237
:100580007F7F0408107F3E4141413E7F09090906F3
:100590003E4151215E7F09192946464949493101A9
:1005A000017F01013F4040403F1F2040201F7F202E
:1005B00018207F631408146303047804036151490D
:1005C000454300007F4141020408102041417F0063
:1005D00000383C1E0F0740404040403824120907B5
:1005E00020545454787F4844443838444444203894
:1005F0004444487F3854545418087E0901020814B2
:1006000054543C7F0804047800447D40002040445A
:100610003D00007F10284400417F40007C04180406
:10062000787C0804047838444444387C1414140852
:10063000081414187C7C08040408485454542004FA
:100640003F4440203C4040207C1C2040201C3C403B
:1006500030403C44281028440C5050503C446454D2
:100660004C44E0E0E0E0E000007F0000E0A0A0A05B
:10067000E008082A1C08081C2A08080006090906C0
:10068000AC00198040005245424F4F54494E472E0E
:100690002E2E0000000000250028002B002E003127
:1006A0000000000000240027002A002D0030000474
:1006B0000404040403040502020202040302020209
:1006C00002060606060606040402020204040408E2
:1006D0000201104080401020408040800802040148
:1006E0008040201002011080102040402000523332
:1006F00011241FBECFEFDAE0DEBFCDBF28E0AAEEA7
:10070000B5E001C01D92AD33B207E1F715E0A0E0FE
:10071000B1E0E8EAF9E602C005900D92AA3EB10701
:10072000D9F713E0C8E7D3E004C02197FE010E9487
:100730008533C737D107C9F70E940C290C94D234EE
:100740000C940000CF93DF93EC018DE595E0998345
:1007500088831A8280E093E09C838B8380E09CE016
:100760009E838D831F82188681E089878EE1E6EA69
:10077000F1E0DE01509601900D928A95E1F71FA6F7
:100780001EA619AA18AA1BAA1AAAFE01F49688E0A6
:10079000DF011D928A95E9F71CAE1DAE1FAE1EAE9D
:1007A0003C961182108232968FEF9FE7918380836F
:1007B000329691838083329691838083329691839F
:1007C000808332961082C55BDF4F1882DF91CF9114
:1007D000089590E0FC01E253F94F24918155994F1F
:1007E000FC018491882399F090E0880F991FFC0107
:1007F000EF55F94FA591B491FC01ED56F94F859154
:1008000094918FB7F894EC91E22BEC938FBF0895FD
:10081000FC01611109C081819281807F480F592FAD
:10082000511D528341830895613051F48181928139
:100830008F7020E1429FA0011124480F591FF1CF72
:10084000623039F481819281907F50E0542F4427A7
:10085000F4CF633049F4818192819F7050E0542F2E
:1008600044275295507FE9CF643011F443830895B3
:10087000653011F444830895663011F4458308957A
:10088000673009F4468308953FB7F89480912308B0
:1008900090912408A0912508B091260826B5A89B20
:1008A00005C02F3F19F00196A11DB11D3FBFBA2F02
:1008B000A92F982F8827BC01CD01620F711D811DC2
:1008C000911D42E0660F771F881F991F4A95D1F747
:1008D00008958F929F92AF92BF92CF92DF92EF9244
:1008E000FF924B015C010E9444046B017C010E9459
:1008F00044046C197D098E099F09683E7340810587
:100900009105A8F321E0821A9108A108B10888EEA8
:10091000C80E83E0D81EE11CF11C81149104A104CF
:10092000B10429F7FF90EF90DF90CF90BF90AF9088
:100930009F908F9008952FB7F89460911F08709141
:10094000200880912108909122082FBF0895AF922E
:10095000BF92CF92DF92EF92FF920F931F93CF93AC
:10096000DF936C017B018B01040F151FEB015E010E
:10097000AE18BF08C017D10759F06991D601ED91A3
:10098000FC910190F081E02DC6010995892B79F742
:10099000C501DF91CF911F910F91FF90EF90DF90F4
:1009A000CF90BF90AF900895CF93CFB7F894809138
:1009B0007E0781115AC040EC56E0FA0194912FED68
:1009C00036E0F9018491E92FF0E0EE0FFF1FEF55BB
:1009D000F94FA591B4919C91982309F037C0E5E3B4
:1009E000F4E09491F9012491FA018491882309F4A7
:1009F0002DC09923E9F091509F30D0F4E92FF0E019
:100A0000EC5FFA4F0C9485334505490513053D0508
:100A100041051805180518054C05520556055A05D7
:100A2000600518056405909180009F779093800081
:100A3000E82FF0E0EE0FFF1FED56F94FA591B491AE
:100A40008FB7F8949C91292B2C938FBF81E10E9442
:100A5000E9038CB580618CBD8CB580648CBD8FE062
:100A60000E94E90380E10E94E90380917E078F5F85
:100A700080937E07CFBFCF910895909180009F7D96
:100A8000D5CF90918000977FD1CF94B59F7794BDBB
:100A9000CFCF94B59F7DFBCF909190009F7790939F
:100AA0009000C6CF909190009F7DF9CF90919000DB
:100AB000977FF5CF9091C0009F779093C000B8CFFB
:100AC0009091C0009F7DF9CF9091C200977F909345
:100AD000C200AECFCF93DF93EC018A85882329F043
:100AE00081508A87DF91CF9108959C818E819817DC
:100AF000C8F78D856827E881F9810084F185E02DAC
:100B000042E0CE0109958C818F5F8C83EBCFCF9330
:100B1000DF93FC0187812FEF3FE7813011F420E85C
:100B200030E8462F50E0DF018FE0689FA00DB11D37
:100B3000112450969C916185892F8370823021F118
:100B4000833029F0813021F580937D071BC061112E
:100B500011C081E080937D079C70983009F457C0E4
:100B60009C30D1F0943009F055C0846093E09093AC
:100B70007C071CC0623061F480917D07882341F0BE
:100B8000813021F081E0E8CF80937D0782E0E4CFDF
:100B900010927D0780E0E0CF6230E1F590917C0714
:100BA0009923C1F1933089F194E0892B9FE0949FC0
:100BB000D001959FB00D1124AE0FBF1F50968C939E
:100BC00050978085EF01C40FD51F813031F18230FD
:100BD00009F46CC088A9811108C056963C932E93E5
:100BE000559758963C932E9357978AA9811155C0D3
:100BF0006FE0649FC001659F900D1124E80FF91FFD
:100C0000328F218F348F238F48C098E0CECF8860F9
:100C100094E0ADCF10927C07C9CF8AA9811108C09A
:100C20005A963C932E9359975C963C932E935B97E0
:100C30008FE0849FD001859FB00D1124AE0FBF1FA0
:100C400050968C918C70843071F1883049F58FEF1B
:100C50009FEF2FE0249FD001259FB00D1124AE0FF0
:100C6000BF1F56969C938E93559750968C91837088
:100C700030E020E0813031F02FEF3FEF823011F093
:100C80002FEF3FE76FE0649FC001659F900D112437
:100C9000E80FF91F308F278B108ADF91CF910895CD
:100CA0008FEF9FE7D6CF90E080E0D3CF88A9811166
:100CB00008C056963C932E93559758963C932E9386
:100CC00057978FE0849FD001859FB00D1124AE0F00
:100CD000BF1F50968C918C70843059F1883031F55B
:100CE0008FEF9FEF2FE0249FD001259FB00D11249F
:100CF000AE0FBF1F5A969C938E93599750968C9126
:100D0000837030E020E0813031F02FEF3FEF823010
:100D100011F02FEF3FE76FE0649FC001659F900DDA
:100D20001124E80FF91F348F238FB6CF8FEF9FE781
:100D3000D9CF90E080E0D6CFCF93DF93DC0113963C
:100D40002D913C911497C62FD0E0FC018FE0689F55
:100D5000E00DF11D112461897289C9018623972351
:100D60002817390709F04BC080898F70823071F1E4
:100D700028F48130C9F190E080E021C0843089F00E
:100D80008830C9F782E018968C93108A20953095A8
:100D90008189928928233923328B218B84E090E04A
:100DA0000EC081E018968C93108A20953095818929
:100DB000928928233923328B218B82E090E0909313
:100DC0007B0780937A07DF91CF91089518961C9244
:100DD000108A209530958189928928233923328B76
:100DE000218B81E090E0EBCF108A2095309526236F
:100DF00037233061328B218B88E090E0E0CF15966D
:100E00004D915C911697642375234617570709F097
:100E1000B2CF80898F70823009F440C088F481306D
:100E200009F0A9CF19961C92108A40955095818996
:100E3000928948235923528B418B80E290E0BFCFA7
:100E40008430D9F1883009F096CF80917A0790915B
:100E50007B078115924041F01B968C911B9791E086
:100E600089271B968C931B972FE02C9FC0012D9FE9
:100E7000900D1124A80FB91F50961C9250974095C1
:100E8000509551968D919C91529748235923529693
:100E90005C934E93519780E092E091CF81E0199658
:100EA0008C93108A409550958189928948235923C3
:100EB000528B418B80E490E082CF82E019968C9334
:100EC000108A409550958189928948235923528BE5
:100ED000418B80E890E073CF93B13FB12FB14FB118
:100EE00096959170990F990F990F331F3327331FE0
:100EF000330F330F930F45FB332730F9930F26FB46
:100F0000222720F9220F920F813021F01B99906146
:100F10001E999062892F089549B12CB133B153B114
:100F200026FB992790F9990F990F242F221F22272A
:100F3000221F220F220F220F920F55FB222720F98A
:100F4000920F34FB222720F9220F920F813021F0DB
:100F50003699906137999062892F08958FB7F894E8
:100F6000809179078FBF0895982F8F3479F0823060
:100F700069F0863169F0833169F0803E69F0813E25
:100F800069F081E09F3F59F480E0089584E008957E
:100F900085E0089586E0089582E0089583E008954D
:100FA00084E98093BC0085E69091BC0094FF03C067
:100FB0008150D1F7089581E008956EBD00000DB411
:100FC00007FEFDCF8EB508952A9A299A8C9A83EC54
:100FD00090E00197F1F708952A9A299A469A83ECAE
:100FE00090E00197F1F70895809111088F5F8530A7
:100FF00018F480931108089581E0FBCF0895259897
:101000002D982D9A24982C982C9A6E987698769AEA
:1010100057985F985F9A3E984698469A85988D981B
:101020008D9A86988E988E9A87988F988F9A219805
:101030002998299A23982B982B9A8E559F4FFC011B
:1010400010823F984798479A26982E982E9A82E3C6
:1010500090E090939F0180939E0182E080939D0198
:1010600064E170E080E090E00C9469048E559F4F3D
:10107000FC018081811103C08AE091E008958BE03A
:1010800091E008958E559F4FFC018081811103C02E
:101090008CE695E0089585E695E0089521982998D5
:1010A000299A3E984698469A3F984798479A579863
:1010B0005F985F9A22982A982A9A6E987698769ADC
:1010C00054985C985C9A24982C982C9A25982D9882
:1010D0002D9A23982B982B9A10929F0110929E0183
:1010E00064E170E080E090E00C94690484E091E0B9
:1010F000089583E795E008958DE091E00895FC015F
:10110000E456FF4F208121111CC0329720812223F9
:1011100049F083569F4FFC018081811115C087E9FA
:1011200095E00895FC01E556FF4F2081222379F0D8
:101130008D559F4FFC01808181110CC083EA95E0A1
:1011400008958DE795E0089589E895E0089580EC8D
:1011500095E0089584EB95E008958CBD9DBD0895BC
:101160008C9880917707909178070E94AD0883EC66
:1011700090E00197F1F70895469880917707909154
:1011800078070E94AD0883EC90E00197F1F708958D
:101190008F929F92AF92BF92CF92DF92EF92FF9287
:1011A0000F931F93CF93DF937C016B015A01022FA2
:1011B00010E0D0E0C0E083EC882E912CC017D1075E
:1011C000E1F0D701ED91FC910480F581E02D6AE515
:1011D000C114D10421F0D601AC0FBD1F6C91C70121
:1011E0000995A114B10421F0F501EC0FFD1F8083D6
:1011F000C4010197F1F72196E1CFDF91CF911F91C3
:101200000F91FF90EF90DF90CF90BF90AF909F90A5
:101210008F900895CF92DF92EF92FF920F931F93DA
:10122000CF93DF937C016B01D42F8C010E5F1F4F96
:1012300023E0A8010E94C808F70123812F3F61F431
:1012400010E000E0C801DF91CF911F910F91FF9056
:10125000EF90DF90CF90089584818A3511F081114D
:10126000EFCF2F70C22FCC0FD33059F0B6016D5F86
:101270007F4F2DEF2D0FA7014B5F5F4FC7010E94DE
:10128000C8082C2F2D1B2D5FE9F24D2F50E0CA010D
:10129000820F911D8197A4F6400F511F70E060E00E
:1012A000C7010E94C808CECFCF92DF92EF92FF9283
:1012B0000F931F93CF93DF93EC010E949B046B016C
:1012C0007C01E881F9810190F081E02DCE01099542
:1012D00044E06EEB74E0CE010E940A098C01E881C3
:1012E000F9810280F381E02DCE01099501151105E8
:1012F00029F0F8018181807F803F11F56AE070E07C
:1013000080E090E00E9469040E949B046C197D09B2
:101310008E099F096B3F71058105910590F2C0E030
:1013200062E370E080E090E00E9469048C2FDF911E
:10133000CF911F910F91FF90EF90DF90CF90089584
:10134000C1E0EECF4F925F926F927F928F929F9209
:10135000AF92BF92CF92DF92EF92FF920F931F93C3
:10136000CF93DF93CDB7DEB729970FB6F894DEBFE2
:101370000FBECDBFFC01E556FF4FD080D110B9C0E4
:101380008C010C561F4FD801ED90FC900E949B04DD
:101390002B013C01D701ED91FC910190F081E02DF2
:1013A000C701099544E06CEC74E0C7010E940A098A
:1013B0005C01D701ED91FC910280F381E02DC70122
:1013C0000995A114B10431F0F5018181807F803F3E
:1013D00009F4A6C06AE070E080E090E00E94690431
:1013E0000E949B0464197509860997096B3F710572
:1013F0008105910578F262E370E080E090E00E9460
:101400006904DD2009F475C0D801ED90FC9089E0F5
:10141000EEEDF4E0DE01119601900D928A95E1F770
:101420000E949B044B015C01712CD701ED91FC9152
:101430000190F081E02DC701099545E0BE016F5F85
:101440007F4FC7010E940A096C01D701ED91FC9101
:101450000280F381E02DC7010995CD2809F073942E
:10146000B2E0B71588F06AE070E080E090E00E949A
:1014700069040E949B04681979098A099B096B3FDA
:1014800071058105910588F262E370E080E090E0EB
:101490000E94690481E0F70181AFD801ED90FC90D2
:1014A000D701ED91FC910190F081E02DC7010995E4
:1014B00043E065ED74E0C7010E940A096C01D701A1
:1014C000ED91FC910280F381E02DC7010995C114D3
:1014D000D10451F0F6018381833031F488EB9BE035
:1014E00090939F0180939E01D8018D919C910E94C1
:1014F000540929960FB6F894DEBF0FBECDBFDF9119
:10150000CF911F910F91FF90EF90DF90CF90BF9000
:10151000AF909F908F907F906F905F904F900895C5
:10152000DD24D39468CFCF92DF92EF92FF921F9386
:10153000CF93DF93EC01849A3E9A8C9A469AFC01F1
:10154000EA56FF4F808191817E0124E9E20EF11C71
:10155000D7018D939C932AEF30E030939F01209325
:101560009E01DC01ED91FC910680F781E02D09954B
:10157000FE01E656FF4F6F0110E08823A1F091E0D5
:1015800035969083D701ED91FC91119716A11D9688
:101590001C931730E1F581E0FE01E456FF4F808394
:1015A000CE010E94A209F6018081811128C0FE01AE
:1015B000E556FF4F8081811122C0319680818111D3
:1015C0001EC01130D9F5D701ED91FC9184A195A1F0
:1015D000809590959C01207C3327203C310539F47F
:1015E00085FF05C08EE0FE01E256FF4F808382E05A
:1015F00080939D0181E088AB8AAB89AB8BABDF9197
:10160000CF911F91FF90EF90DF90CF90089515300C
:1016100071F4D6019C9324A135A12095309535FF16
:10162000BFCFFE01E356FF4F80818927B8CF84A149
:1016300095A18095909580FDAECFB2CF1230B9F6CE
:10164000D701ED91FC9184A195A1807A9927892BEE
:1016500071F681A593A5992351F28F3F41F688EE4B
:1016600093E090939F0180939E018CE0BCCFEF921A
:10167000FF920F931F93CF93DF9300D000D01F9260
:10168000CDB7DEB78C01DC019B961C929B97D89658
:101690001C92D897ED91FC910190F081E02D099575
:1016A000F80181AD811108C082AD803409F044C0D9
:1016B00083AD813009F040C085E0E7ECF4E0DE0165
:1016C000119601900D928A95E1F7D80196968C912A
:1016D0009697863059F5DC968C918C8345E0BE0157
:1016E0006F5F7F4FC8010E940A097C01D801ED910C
:1016F000FC910280F381E02DC8010995E114F10409
:1017000041F0F7018181807F803FD1F4C8010E94C0
:10171000540980E00F900F900F900F900F90DF9181
:10172000CF911F910F91FF90EF900895F80182AD36
:101730008C8383AD8D83D2CF43E067EC74E0D2CF4E
:10174000D80194968D919C91959793969C938E93A6
:1017500092972381348195963C932E93949781811F
:10176000893781F483E096968C93D80196968C9174
:101770009697843041F108F5823029F18330C9F120
:1017800081E0C8CF982F907F903719F482E0D8017C
:10179000EACF903521F484E0F80186A3E6CF8332C6
:1017A00011F485E0F4CF903E11F486E0F5CF833656
:1017B00011F487E0ECCF81E0EFCF863009F45CC014
:1017C00030F18730E9F681E0D8019B968C939B97A6
:1017D000F701858199968C93999786819A968C9337
:1017E0009A97878197968C939797808598968C93F4
:1017F000C7CF81E0F80180AFF70139969C96C70109
:10180000459621912D93E817F907D9F7DCCF81E0B0
:101810009B968C939B97F701958197969C939797AE
:10182000D8968C93D8978681D2968C93D2979781AD
:10183000D3969C93D3974085D4964C93D49797FF97
:1018400005C03F7795963C932E93949787FF0AC0E7
:10185000D80194968D919C9195979F7B95969C939A
:101860008E939497403F08F48BCFF80184A195A103
:101870009B7F95A384A384CF81E09B968C93F701F3
:101880009681858197FD1AC087FD8FE7D8019796CD
:101890008C93D80197968C919797805897968C93B4
:1018A0009797F70185819C968C939C9786819D964E
:1018B0008C939D9787819E968C9362CF813808F494
:1018C00081E8F80187A3E5CF8CE091E0089589ECE9
:1018D00095E00895DC0117961C92179718961C92B4
:1018E000189719961C9219978AE5E4ECF1E01A967C
:1018F00001900D928A95E1F70895FC01808187831C
:101900008181928191878087838182878481838787
:10191000858184878681858708958F929F92AF9273
:10192000BF92CF92DF92EF92FF920F931F93CF93CC
:10193000DF937C01549A5C9A25982D982D9A2498CF
:101940002C982C9A6E987698769A57985F985F9A0A
:101950003E984698469A3F984798479AEC01CC564D
:10196000DF4F18868C0102561F4F5C0188EFA80ECE
:10197000B11CCC24CA9488248A94982C30E8D32EA5
:10198000F801C082168692828182D382D482158227
:101990001682C8010E947D0C015F1F4F0A151B05AE
:1019A00079F7229A2A9A85988D988D9A86988E989A
:1019B0008E9A87988F988F9A21982998299A239898
:1019C0002B982B9A26982E982E9AF801108687012C
:1019D0000E5F1E4FF4EAEF1AFEEFFF0ACC24CA9402
:1019E000AA24AA94BA2C90E8D92EF801C0821686AF
:1019F000B282A182D382D48215821682C8010E944B
:101A00007D0C015F1F4FE016F10679F762E370E08D
:101A100080E090E00E94690480ED97E02BE030E0E8
:101A2000369940C0F9013197F1F70197C9F782E083
:101A300080939D0162E370E080E090E0DF91CF91C0
:101A40001F910F91FF90EF90DF90CF90BF90AF90DC
:101A50009F908F900C946904213009F06AC0813006
:101A600009F067C09985913019F089873F9A479AA4
:101A7000E1E060E0F1E04BE050E04798362F3F278F
:101A800080ED97E026B126FB222720F932135BC0B8
:101A9000DA011197F1F70197A9F7C9CFE82F61E0B3
:101AA000479AECCF39B18CB193B143B186FB222771
:101AB00020F9220F220F832F881F8827881F880F65
:101AC000880F880F280F45FB882780F9280F94FB83
:101AD000882780F9880F280F5C988BE090E00197A9
:101AE000F1F749B19CB133B153B196FB882780F926
:101AF000880F880F942F991F9927991F990F990F75
:101B0000990F890F55FB992790F9890F34FB992775
:101B100090F9990F890F233009F09ECF8F3049F447
:101B20008985813021F081E089873F9A479A84E056
:101B300088875C9A8985813009F4479A8BE090E028
:101B40000197F1F774CFCA010197F1F739B19CB150
:101B500023B173B196FB882780F9880F880F932FE4
:101B6000991F9927991F990F990F990F890F75FB45
:101B7000992790F9890F24FB992790F9990F890FDC
:101B8000662309F48BCF613009F089CFE43089F600
:101B9000813079F686E0CCCFFC016093BC002FEF5A
:101BA0003FEF8091BC0087FF06C09091B900987FFD
:101BB000908381E008952150310999F780E00895DC
:101BC000CF93DF93EC016093BB0064E80E94CC0DDF
:101BD000882329F081E09881983209F080E0DF9134
:101BE000CF910895DF92EF92FF920F931F93CF93BF
:101BF000DF93EC01D62EF42E8989882329F0411138
:101C000003C00E94D007198A8E01015F1F4F898986
:101C1000811119C0E88864EAC8010E94CC0D8823AC
:101C200061F08F85883011F0803139F4EE0CE0924C
:101C3000BB0064E8C8010E94CC0D60E0F11060E4D4
:101C4000C8010E94E00D6D2DC8010E94E00D82E0E8
:101C5000F8120BC089898F5F898BDF91CF911F911B
:101C60000F91FF90EF90DF9008950E94D007198A9E
:101C7000F4CFDC01ED91FC910084F185E02D40E092
:101C80000994FC012781269526952695621720F454
:101C90006583606B0C94390E08950F931F93CF9357
:101CA000FC012681621798F4C62F8C01648360853D
:101CB000C60F6C2F6F700E94390E6C2F62956F707B
:101CC0006061C801CF911F910F910C94390ECF9193
:101CD0001F910F9108951F93CF93DF93EC01142F61
:101CE0000E944D0E612FCE01DF91CF911F910C9478
:101CF000410E2F923F924F925F926F927F928F92FE
:101D00009F92AF92BF92CF92DF92EF92FF920F938A
:101D10001F93CF93DF9300D000D000D0CDB7DEB7B4
:101D2000FC01238534852115310509F416C19E83F4
:101D30008D83F9013296649031964491E42EF12C12
:101D4000F7E0EF0EF11C53E0F594E7945A95E1F7B4
:101D5000E982F901349654913196E4916D30F1F4B1
:101D600060E00E944D0E81E090E026960FB6F89458
:101D7000DEBF0FBECDBFDF91CF911F910F91FF90BE
:101D8000EF90DF90CF90BF90AF909F908F907F901B
:101D90006F905F904F903F902F9008956A3081F43C
:101DA00060E08D819E810E944D0EED81FE818685D1
:101DB00065818E9D600D1124CF010E94410ED3CF0D
:101DC000651708F4CAC08E2F90E0FC01E50FF11DE5
:101DD0006E171F060CF0C1C089010A5F1F4F651BFB
:101DE000ED81FE8171855685759F502D11245C8390
:101DF000F90154912F5F3F4FF9012491352F223083
:101E0000310508F06AC06E9CC0016F9C900D1124D2
:101E1000689FF001699FF00D11240E0F1F1F512CB8
:101E2000ED81FE81F481FA83ED81FE812580F285CA
:101E3000FB83862C912CAA24A394B12C312C89816C
:101E4000381608F086C0412CED81FE818685481643
:101E500008F078C08B818287311002C0442041F0A5
:101E6000ED81FE8145814F5F6A81CF010E946B0E3B
:101E7000D12CC12CC61408F058C0F801EC0DFD1D82
:101E80007490552061F0EA14FB0449F4E72DF0E06A
:101E9000052C02C0F595E7950A94E2F77E2EED81B8
:101EA000FE818685823081F4442009F43AC0729420
:101EB0008FE07822E72DF0E0EC5EFB4F7490672D09
:101EC0008D819E810E946A05672D8D819E810E9471
:101ED0006A058FEFC81AD80ACDCF477028E0522E76
:101EE000541A411101C0512CF801612C30E020E05E
:101EF000661631F04491240F311D63943196F8CF6A
:101F0000600E712E711CF3016490E29EF001E39E5D
:101F1000F00DF29EF00D11248E0F9F1F080F191F58
:101F20007FCFF72DFF707F2EC5CFD12CEC81DE1631
:101F300039F060E08D819E810E946A05D394F6CFCE
:101F4000439482CF3394080D191DFFEFAF1ABF0AD7
:101F500076CF622D8D819E8130CF90E080E005CFDD
:101F60000F931F93CF93DF938C01D0E0C0E0F80173
:101F7000EC0FFD1F6491662341F087E298E00E9418
:101F8000790E892B11F02196F2CFCE01DF91CF91FE
:101F90001F910F910895811104C08EED93E00C9470
:101FA000B00F813019F48DEC93E0F9CF8250853079
:101FB00018F48AED93E0F3CF84ED93E0F0CF682F2F
:101FC00087E298E00C94790ECF92DF92EF92FF9225
:101FD0000F931F93CF93DF93EC01F62EC42ED22ED6
:101FE0001A868F81869586958695081710F00FEFD3
:101FF000080F1D2D011780F0412F6F2DCE010E947B
:102000006B0EEF2CCE1430F06D85CE010E946A0568
:10201000E394F8CF1F5FEECF4D2D6F2DCE01DF91F2
:10202000CF911F910F91FF90EF90DF90CF900C9484
:102030006B0E0F93FC0107810695069506950150DE
:102040004681415020E060E00E94E40F0F91089526
:102050004F925F926F927F928F92AF92CF92EF9258
:10206000FF920F931F93CF93DF93CDB7DEB7270176
:10207000380194E0899F80011124F801E859F84F54
:1020800080819181A281B3818E219521A621B721E2
:1020900031E0892B8A2B8B2B09F430E03C1103C0F3
:1020A00088898823F1F0C11001C0A82C2D5F640F2E
:1020B000422F87E298E00E946B0E8A2D0E94DF0F6C
:1020C000F801E859F84FCC20D1F080819181A281AC
:1020D000B38184299529A629B72980839183A28376
:1020E000B383DF91CF911F910F91FF90EF90CF902D
:1020F000AF908F907F906F905F904F900895409435
:1021000050946094709480819181A281B3818421E4
:102110009521A621B721E1CF2F923F924F925F9256
:102120006F927F928F929F92AF92BF92CF92DF92E7
:10213000EF92FF920F931F93CF93DF93CDB7DEB74C
:10214000A2970FB6F894DEBF0FBECDBF1C018091E1
:102150005601882309F44BC01092560177EE672E82
:1021600074E0772ED12C210122EA420E511CF3019A
:10217000908007E023E04181692D87E298E00E948A
:10218000E40F47E0692D87E298E00E946B0EF201B0
:102190008081811194C0F6E0F983C1018D559F4F74
:1021A0009AA389A3B12CE9A1FAA1E080F180028170
:1021B0001381F1E0FF93E9A1FAA18780A680C12CE9
:1021C00024814581692D8D2D0E942810B39429A169
:1021D0003AA1285F3F4F3AA329A30F9039813B11C1
:1021E000E2CF82E0680E711C91E0D91265C0D12C5B
:1021F00080E0F101EE55FF4FFA83E98390919D0154
:10220000D91608F0AAC1E981FA819081992309F4CD
:1022100091C0DD2009F456C043B123B1E3B13FB111
:102220007FB16FB143FB442740F94B831C824B8144
:102230005C81F5E0440F551FFA95E1F722FB222758
:1022400020F92D831E82AD81BE8114E0AA0FBB1F31
:102250001A95E1F7242F2A2B65FB442740F9242BFC
:10226000E695E170EF8318864F81588503E0440FAF
:10227000551F0A95E1F7242B432F330F550B4427A5
:10228000550F441F5527440F551F440F551F242B2E
:1022900076FB772770F979871A8649855A85440F26
:1022A000551F242B322F337009F052C1322F3C704E
:1022B00009F489C0206887C0DD24D39458CF28E072
:1022C00029836BCF56B129B149B17CB163B133B128
:1022D00056FB552750F95B871C86EB85FC85A5E0EE
:1022E000EE0FFF1FAA95E1F720712E2B35FB332748
:1022F00030F9232B042E000C550B4427550F441F97
:10230000552713E0440F551F1A95E1F7242B76FB50
:10231000772770F97D871E864D855E85440F551F92
:10232000440F551F242B629561706F87188A4F8563
:102330005889B5CFDD2009F4C8C043B123B1E3B15A
:102340003FB17FB16FB146FB442740F9498B1A8AF0
:1023500049895A89F5E0440F551FFA95E1F723FBA7
:10236000222720F92B8B1C8AAB89BC8914E0AA0F89
:10237000BB1F1A95E1F7242F2A2B65FB442740F950
:10238000242BE695E170ED8B1E8A4D895E8903E072
:10239000440F551F0A95E1F7242B432F330F550B9C
:1023A0004427550F441F5527440F551F440F551FF1
:1023B000242B76FB772770F97F8B188E4F89588DE9
:1023C000440F551F242B6D2D70E0FB01EC5AFE4F7E
:1023D0003081321709F477C02083622E712C322F9E
:1023E0003095317080E021FF82E0832B30E022FFC6
:1023F00034E0832B30E023FF38E0832BF101808B26
:10240000822F82958F70F1E08F2781708F8F18A2B5
:1024100050E040E025FD02C042E050E0EF8DF8A121
:102420004E2B5F2B992321F0E0E0F1E026FF02C064
:10243000F0E0E0E04E2B5F2B992309F48BC027FDE1
:1024400089C020E032E0422B532BF101528B418BAB
:10245000660F771FFB01E951FB4F908088E0B82E93
:10246000911102C096E0B92E91012D553F4F3AA32C
:1024700029A3512C412CC301042C02C095958795AA
:102480000A94E2F780959095382F3170C32EE9A118
:10249000FAA1E080F180028113811F928780A680DB
:1024A00024814581692D8D2D0E942810FFEF4F1A40
:1024B0005F0A29A13AA1285F3F4F3AA329A30F90B1
:1024C0004B14C8F281E0D39499CE66B126B149B1DC
:1024D000FCB1E3B153B126FB222720F9298F1A8ED4
:1024E000298D3A8D74E0220F331F7A95E1F7062E7D
:1024F000000C770B6627770F661F7727B5E0660F0E
:10250000771FBA95E1F7262B55FB332730F9232B9C
:10251000042E000C550B4427550F441F552703E08C
:10252000440F551F0A95E1F7242BF6FBFF27F0F91E
:10253000FB8F1C8E4B8D5C8D440F551F440F551F18
:10254000242BE295E170ED8F1E8E4D8D5E8D38CF80
:102550002064ACCE30E020E076CFA2960FB6F8949F
:10256000DEBF0FBECDBFDF91CF911F910F91FF90C6
:10257000EF90DF90CF90BF90AF909F908F907F9023
:102580006F905F904F903F902F9008952F923F92C1
:102590004F925F926F927F928F92AF92CF92DF9223
:1025A000EF92FF920F931F93CF93DF93CDB7DEB7D8
:1025B00060970FB6F894DEBF0FBECDBF3C0180918F
:1025C00053018823C1F11092530107E023E04CE34B
:1025D00060E087E298E00E94E40F47E060E087E275
:1025E00098E00E946B0E13010EE9200E311C2301AE
:1025F0001EEE410E511CDD24D394D101ED90FD90CF
:102600000D911C911397DF9217968C901797169641
:10261000AC901697C12C14962C91149715964C914A
:1026200063E280E00E942810B8E02B0E311C0F906E
:102630004214530411F763B133B173B1E9B15CB122
:1026400093B149B186B126B1F3B163FB662760F956
:10265000660F688B1F8635FB332730F93A83198262
:102660000F851889A981BA810A2B1B2BF695F17069
:10267000FB831C82AB81BC810A2B1B2B7295717072
:102680007D831E826D817E817695762F6627779574
:102690006795062B172BE295E170EF8318866F8103
:1026A0007885E6E0660F771FEA95E1F7062B172B92
:1026B00056FB552750F959871A8669857A85F5E0C2
:1026C000660F771FFA95E1F7062B172B92FB9927D8
:1026D00090F99B871C866B857C85A4E0660F771F2D
:1026E000AA95E1F7062B172B042E000C550B442757
:1026F000550F441F552793E0440F551F9A95E1F756
:10270000042B152B082E000C990B8827990F881F76
:102710009927880F991F880F991F082B192B26FBC3
:10272000222720F92D871E868D859E85880F991F6B
:10273000082B192B1A830983809151019091520122
:102740008017910709F4ACC0109352010093510116
:102750009801209530952170332780E001FF82E0B9
:10276000822BB98190E0B2FF94E0892BE98190E05F
:10277000E3FF98E0892BD30150968C9389819A814D
:1027800024E0969587952A95E1F7B1E08B279C0187
:1027900021703327E98190E080E0E5FD02C082E00E
:1027A00090E0822B932BF98130E020E0F6FD02C00F
:1027B00024E030E0822B932B098130E020E007FDFC
:1027C00002C028E030E0822B932B29813A8130FF30
:1027D00064C030E020E0822B932B49815A8130E0A5
:1027E00020E051FD02C020E032E0822B932BD30188
:1027F00052969C938E935197BEE96B0E711C312CAF
:10280000212C44244394512CC201022C02C0880F75
:10281000991F0A94E2F7E981FA818E239F23CC2441
:10282000C394892B09F0C12CD301ED90FD900D913B
:102830001C9113971F9217968C9017971696AC9031
:10284000169714962C91149715964C9163E280E09C
:102850000E942810BFEF2B1A3B0AE8E06E0E711C95
:102860000F90FAE02F16310479F681E060960FB6EA
:10287000F894DEBF0FBECDBFDF91CF911F910F91B6
:10288000FF90EF90DF90CF90AF908F907F906F9000
:102890005F904F903F902F90089520E031E09BCFC4
:1028A00080E0E4CF2F923F924F925F926F927F929F
:1028B0008F929F92AF92BF92CF92DF92EF92FF9250
:1028C0000F931F93CF93DF93D62E342E3901B02E62
:1028D000FC01E256FF4F2081EC012E3009F042C08E
:1028E000CB5DDE4F2C0123E8421A2EEF520AE62F71
:1028F000F0E0EE0FFF1FE951FB4F9080E880F98078
:102900000A811B812C814D81AE808F8061147104FE
:1029100059F0F30184A195A1809590958E219F2176
:10292000CC24C394892B09F4C12CBF92692D8D2D21
:102930000E94281028960F90C415D505F9F6DF914E
:10294000CF911F910F91FF90EF90DF90CF90BF90AC
:10295000AF909F908F907F906F905F904F903F903F
:102960002F900895CB55DF4F912C8EEF282E240EFB
:10297000462E512C440C551CC20189519B4F2C01F1
:1029800091E0921568F48FEF890D823038F1E5E01F
:102990003E1206C0992011F188EF890D8230F0F0C7
:1029A000E880F9800A811B812C814D81AE808F8067
:1029B0006114710459F0F30184A195A1809590955B
:1029C0008E219F21CC24C394892B09F4C12CBF9262
:1029D000F20160818D2D0E9428100F90939428960B
:1029E000F0E19F12CDCFABCFEF92FF920F931F93E9
:1029F000CF93DF937C01D62FC42FE62FF0E0EE0FAC
:102A0000FF1FE951FB4F108107E023E04181612F57
:102A100087E298E00E94E40F47E0612F87E298E0A8
:102A20000E946B0EC43009F449C070F4C13029F122
:102A3000C230C1F188EC93E0DF91CF911F910F91EB
:102A4000FF90EF900C94B00FC530B9F08EE893E092
:102A5000C63081F70E94B00FD23040F401E030E080
:102A600020E04C2F6D2FC7010E945214DF91CF91AF
:102A70001F910F91FF90EF900895F701E256FF4FDD
:102A800080818E3019F48EEB93E0E4CFF701E656A7
:102A9000FF4F8081811103C08FEA93E0DBCF87EB8A
:102AA00093E0D8CFF701E256FF4F80818C3019F4C4
:102AB0008BEA93E0CFCF81EA93E0CCCF85E993E036
:102AC000C9CF3F924F925F926F927F928F929F9267
:102AD000AF92BF92CF92DF92EF92FF920F931F932C
:102AE000CF93DF93B62E942E2901302EEC01C45AD9
:102AF000DE4FD12C662E712C660C771CC3018951D8
:102B00009B4F3C0192E0991215C0E8E0DE1218C01C
:102B1000DF91CF911F910F91FF90EF90DF90CF90B9
:102B2000BF90AF909F908F907F906F905F904F90ED
:102B30003F900895F3E09F1203C08CE0D816E9F0AF
:102B4000E880F9800A811B812C814D81AE808F80C5
:102B500081E04114510449F0F201618172816E21DA
:102B60007F2181E0672B09F080E03F92C82EF301BE
:102B700060818B2D0E9428100F90D3942896FDE041
:102B8000DF12C0CFC5CFEF92FF920F931F93CF9369
:102B9000DF937C01D62FC42FE62FF0E0EE0FFF1F4E
:102BA000E951FB4F108107E023E04181612F87E26B
:102BB00098E00E94E40F47E0612F87E298E00E94CE
:102BC0006B0EC43069F180F4C23039F180E793E0D4
:102BD000C33081F088EC93E0DF91CF911F910F918A
:102BE000FF90EF900C94B00FC530E9F088E593E0CA
:102BF000C63081F70E94B00FD23041F001E030E0E2
:102C000020E04C2F6D2FC7010E946115DF91CF91FD
:102C10001F910F91FF90EF9008958AE793E0EACF1C
:102C200089E693E0E7CF82E693E0E4CF0F9307E0F5
:102C300022E04FE760E087E298E00E94E40F809195
:102C400011088230D9F020F4813071F00F9108958D
:102C50008330E1F08430D1F766E087E298E00E94AB
:102C60004D0E84EF93E007C06CE087E298E00E948D
:102C70004D0E85EE93E00F910C94B00F66E387E262
:102C800098E00E944D0E80E194E0F5CF6AE287E281
:102C900098E00E944D0E88E094E0EDCF80939C0177
:102CA0006EEA81116FEA87E298E00E94390E0E9475
:102CB0009B046093120870931308809314089093F8
:102CC000150808952F923F924F925F926F927F92D4
:102CD0008F929F92AF92BF92CF92DF92EF92FF922C
:102CE0000F931F93CF93DF93CDB7DEB760970FB6E7
:102CF000F894DEBF0FBECDBF9C012C553F4F3E83E5
:102D00002D83D9011C92FC01E556FF4F2080211034
:102D1000F4C23C018091750734966F012E50310941
:102D20007901811162C08091760781115EC0808136
:102D300081110CC0D9018D919C91DC01ED91FC9128
:102D40000680F781E02D0995F60180838093750751
:102D5000830100561F4FD8018C9181110EC0F301E1
:102D6000E856FF4F80819181DC01ED91FC91068056
:102D7000F781E02D0995F80180838093760781E043
:102D80000E944E1607E027E04FE760E087E298E0F8
:102D90000E94E40F67E087E298E00E94410E60E045
:102DA00087E298E00E944D0E8091750781110BC05B
:102DB00080917607811103C088EC93E002C084EC17
:102DC00093E00E94B00F62E487E298E00E944D0E0B
:102DD0009091750780917607992309F4FAC18111C2
:102DE00004C084EC93E00E94B00F83E7A82E87E034
:102DF000B82E95E7892E97E0992E86016301512C14
:102E000093012C563F4F3C832B83C30184569F4F25
:102E100098878F8344244394D7018D919D917D01A0
:102E2000EB81FC8191838083D5011D925D01F401CA
:102E300021914F01222309F454C2D8012C91211170
:102E4000CDC1DC01ED91FC910680F781E02D099563
:102E5000882371F0F8014082C3010E94A209AB816E
:102E6000BC81ED91FC9146A1652DC3010E94F41433
:102E7000EF81F8858081882309F433C2F12C930116
:102E800026563F4F3A872987C30184569F4F9C8718
:102E90008B8723019EE9490E511CD301AC56BF4FCD
:102EA000BE87AD8700E8A02EBA2C80919D01F81650
:102EB00008F024C28F2D90E0F301E80FF91FE156CE
:102EC000FF4F2081222309F47DC1FC01ED58F84F0A
:102ED0000081002309F476C1ED81FE81E080FC01D0
:102EE000E55BFF4FEE0FFF1FE60DF71D0190F08130
:102EF000E02DAB81BC81ED93FC93A985BA858C91C3
:102F0000811160C1AB85BC858C9181115BC1CC24E2
:102F1000C39422A133A184A195A12817390709F4EC
:102F2000C12C16A18E2C912CF401EF58F84FF88784
:102F3000EF838081181729F0412F6E2DC3010E9465
:102F4000F414E1E0F0E0EC0FFD1FE80DF91D108333
:102F50008FEF810F853008F02AC1AB81BC81ED91E4
:102F6000FC9124A135A120953095C901B4E0969536
:102F70008795BA95E1F7817092E026FF90E0892B62
:102F800094E027FF90E0892B25FF5FC128E0AD8109
:102F9000BE819C91822B292F30E0B301BFE09B9F23
:102FA000600D711D1124DB0150968C93D2019C9110
:102FB000992329F0892B8F70DB0150968C9384A183
:102FC00095A180959095BC0164E0769F612D77274F
:102FD000112461707727AC014427507295FF02C01D
:102FE00042E050E0642B752B44E050E097FD02C0B6
:102FF00050E040E0642B752BAC014427507194FFE6
:1030000002C048E050E0642B752BAC01442754709B
:1030100092FF02C040E150E0642B752BAC014427C5
:10302000587093FF02C040E250E0642B752BAC0156
:103030004427517090FF02C040E450E0642B752B90
:10304000AC014427527091FF02C040E850E0642B6D
:10305000752BAC014170552780FF02C040E051E064
:10306000642B752BAC014870552783FF02C040E0EC
:1030700052E0462B572BBC016270772781FF02C0BC
:1030800060E074E0462B572BBC016470772782FF09
:1030900002C060E078E08FE0829FD001839FB00D96
:1030A0001124A60DB71D462B572B52965C934E93B9
:1030B000519783A5882309F4CEC0153009F4CBC0FD
:1030C00077A189E8870F833108F4C1C0872F60A5F5
:1030D00090E04FE0429FD001439FB00D1124A60D18
:1030E000B71D582F4427840F951F56969C938E9397
:1030F000559789E8860F833108F4ABC0862F90E09E
:103100004FE0429FD001439FB00D1124A60DB71D83
:10311000582F4427840F951F58969C938E9357974A
:10312000C901815B9E4FDC014C91D901A35BBE4F6D
:10313000B88BAF87471303C04C91DC2C4613D02EBD
:10314000DC017C93AF85B8896C9383A5882319F043
:10315000153009F093C08FE0829FF001839FF00D3E
:103160001124E60DF71DB28EA18EB48EA38E80E8D9
:1031700090E8F901E55BFE4F4081D901A75BBE4FA6
:10318000491304C02C91281301C00D2D90838C93FA
:10319000002369F0B1E0BE1550F0ED85FE85208179
:1031A000318100E0412F6E2DC3010E945214E1E0F5
:1031B000F0E0EC0FFD1FE80DF91D8081AF81B885AF
:1031C0008C932C28ED81FE8180818F5F8083F39426
:1031D0006CCE811104CE88EC93E005CEFC0136A0C4
:1031E00012968C91831519F0C3010E94A209F8016F
:1031F0003282AB81BC81ED91FC91D601D7969C9136
:10320000D79781AD8823C1F0D5962C9181E091119B
:1032100001C080E0819582AF23AFEB81FC8180818A
:1032200091810E94370BF50131978083811120CE67
:10323000D8011C9240E018CE992321F0B0E4B2AF3F
:1032400043AEEBCF12AE13AEE8CF20E0A0CE80E8C5
:103250003ECF80E854CF8FE0829FD001839FB00D96
:103260001124A60DB71D5696BC92AE92559758964E
:10327000BC92AE92579760E870E852CF91A5D20108
:103280008C918C3009F490E889E8890F492F8331BB
:1032900008F440E882A550E06FE0629FF001639F70
:1032A000F00D1124E60DF71D742F6627460F571FEA
:1032B000528F418F49E8480F433188F0482F50E042
:1032C0006FE0629FF001639FF00D1124E60DF71D82
:1032D000742F6627460F571F548F438F4ACF40E8FD
:1032E000EECF0F5F1F4FF4E0CF0ED11C21E052163E
:1032F00009F4C4CD552453948FCD212C822D609692
:103300000FB6F894DEBF0FBECDBFDF91CF911F91F6
:103310000F91FF90EF90DF90CF90BF90AF909F9074
:103320008F907F906F905F904F903F902F90089577
:1033300090E080E00895CF93DF93CDB7DEB72F976D
:103340000FB6F894DEBF0FBECDBF4FE0FE01319641
:10335000DF01242F1D922A95E9F72FEF3FE73F83E6
:103360002E83398728873B872A873D872C87469F6E
:10337000800D911D1124DC0150968FE001900D927B
:103380008A95E1F72F960FB6F894DEBF0FBECDBF3A
:10339000DF91CF910895FC01809126079091270736
:1033A00086179707A0F06115710529F49091E80040
:1033B0009E779093E80090E06115710551F49111AA
:1033C00008C08091E80082FF35C080E00895BC010C
:1033D000F2CF80910D088823C9F18530C9F1809121
:1033E000E80083FD31C08091E80082FDEACF809142
:1033F000E80080FFE1CF2091F3008091F200322FAE
:10340000282F6115710519F02034310558F091E02D
:103410002034310509F090E02091E8002E772093C8
:10342000E800CACF81918093F100615071092F5F4C
:103430003F4FE7CF80910D08882341F0853041F060
:103440008091E80083FFBDCF81E0089582E0089578
:1034500083E008952091E4003091E50085E69091A5
:10346000EC0090FF06C09091E80090FF06C080E05D
:1034700008959091E80092FDFACF90910D0899235C
:1034800091F0953091F09091EB0095FD10C0409136
:10349000E4005091E5002417350709F381509A01A3
:1034A000F1F684E0089582E0089583E0089581E0D4
:1034B00008958091200787FF13C08091E80082FF64
:1034C00006C08091E8008B778093E80004C080916B
:1034D0000D088111F2CF089580910D088823D9F34A
:1034E0008091E80080FFF8CF8091E8008E77ECCFE4
:1034F000982F973028F08F708093E90081E008952D
:103500009093E900242F762F50E0981731F07091B6
:10351000EC002091ED005091F00021FD02C09F5F72
:10352000E8CF3091EB003E7F3093EB003091ED001F
:103530003D7F3093ED003091EB0031603093EB0034
:103540007093EC002093ED005093F0002091EE007A
:1035500027FDE5CF80E0089542E050E060ED75E0A2
:1035600087E298E00C94A704CF93DF930E94B00FFA
:10357000EC010E94AC1A8C0F9D1FDF91CF91089532
:103580000E94B0342F923F924F925F926F927F923F
:103590008F929F92AF92BF92CF92DF92EF92FF9263
:1035A0000F931F93CF93DF93CDB7DEB764970FB61A
:1035B000F894DEBF0FBECDBF6C019E012F5F3F4F61
:1035C00038872F8386E0D9011D928A95E9F780918B
:1035D0004801882381F01092480180919D01833039
:1035E00050F045E06EE187E298E00E946B0E84E8BF
:1035F00093E00E94B00F860102561F4FDA86C986FB
:103600002601B8EF4B0E511CC8010E947D0C015FD2
:103610001F4F04151505C1F71601E4E92E0E311CE4
:10362000D10117969C90179717961C92179718968A
:103630001C925C9A0BE010E0C8010197F1F776014B
:10364000BDE9EB0EF11CF70180810E948C07782EFA
:103650005C98C8010197F1F7D7018C910E948C0703
:10366000272D2770F1019185372D3F70243009F007
:10367000B5C0913021F091E091873F9A479AD101EE
:1036800017969C91179721E0290F17962C93973046
:1036900008F096E0F101BFE09B9FE00DF11D1124C1
:1036A0009FE49287438554855F70232F30E0322F4B
:1036B00022273295307F240F351F207F8F70280FEF
:1036C000311D348723875C9A47982BE030E0C9018D
:1036D0000197F1F759B19CB143B163B196FB8827CB
:1036E00080F9880F880F952F991F9927991F990F97
:1036F000990F990F890F65FB992790F9890F44FB62
:10370000992790F9990F890F40E1849FC0011124F6
:10371000438554854F70840F951F948783875C98E9
:103720004798C9010197F1F739B19CB123B143B171
:1037300096FB882780F9880F880F932F991F992768
:10374000991F990F990F990F890F45FB992790F9A8
:10375000890F24FB992790F9990F890F90E0982FF2
:10376000882723853485307F820F931F9487838732
:103770005C9AF1018185813009F4479A83E290E0F7
:103780000197F1F7D10117961C9160E07FE04FEFB0
:103790005FEF00E8161709F414C2862F673008F0AF
:1037A00086E0282F30E0F101789FE00DF11D112413
:1037B00092858189981781F054874387058706870A
:1037C0002F5F3F4F729FC001739F900D1124820D98
:1037D000931DDC011C92108A6F5FDCCF313009F041
:1037E0003AC1282F2F70213009F035C1913019F0DE
:1037F00021873F9A479A60E041E02BE030E047980C
:10380000762F742780ED97E056B156FB552750F977
:103810007513F9C6F9013197F1F70197A9F7A8CF08
:1038200079B19CB153B1E3B196FB882780F9880F39
:10383000880F972F991F9927991F990F990F990F03
:10384000890FE5FB992790F9890F54FB992790F987
:10385000990F890F613009F0F5C6B4E0BB1203C0BF
:10386000813009F485CFF82EFF0CB11020C08230D2
:1038700029F190E080E051E06BE070E0F91609F486
:1038800077CF882309F494C0479A8527A82FA17081
:1038900020ED37E046B146FB442740F9FB01A41375
:1038A000D4C63197F1F721503109A1F761CFE1E09A
:1038B000BE1270C0863011F08330D9F6D101179650
:1038C0009C91179721E0290F17962C93973008F0B9
:1038D00096E0292F30E06FE0A101969F400D511D29
:1038E0001124FA013A96FC87EB87629FA001639F3F
:1038F000500D1124FEE0420D531DBF125BC0BB24CE
:10390000BA94B80E80EEB826DA011A96BC9210E08E
:10391000E12C00E083E0682E712C8FE0829F500143
:10392000839FB00C1124A20CB31CA501405F5F4F14
:103930005E874D872F5F3F4F829FA001839F500D71
:103940001124B101640F751F788B6F87C5010E9626
:103950009A8B898BD5011D96BC8BAB8BBBE0AB0ED4
:10396000B11CF11609F404CFEE2069F1479A81E009
:10397000E8263E2D317080ED97E026B126FB222708
:1039800020F9321366C6EBE0F0E03197F1F70197CA
:10399000A1F7EECEFEE0BF1204C0833008F48ECF54
:1039A00068CF2FE0B21265CF8F3009F062CFE0CE42
:1039B00047986BCFB0E1BB9EB0011124B82EB6265C
:1039C000FA01B286A4CF4798D2CF133079F4F5012B
:1039D000208131813F70487050E0542F4427529528
:1039E000507F420F531F5183408356C6143089F1D4
:1039F000153049F4F0E10F9FC0011124482BAB8929
:103A0000BC894C9349C6163021F1173049F4B0E116
:103A10000B9FC0011124482BE989FA8940833CC6D9
:103A20001830B9F0193041F4F0E10F9FC0011124B2
:103A3000482BAF85B889E5CF1A3059F01B3009F013
:103A40002BC6B0E10B9FC0011124482BED85FE85EC
:103A5000E5CF042F21C6282F2C7009F09BC0992395
:103A600031F0D10119961C923F984798479AF1017D
:103A7000978121E0290F2783973008F096E0A92E3F
:103A8000B12CF1012FE0929FE00DF11D112490EE79
:103A90009287972D9C7009F46BCE43855485407FA7
:103AA000BA01630F711D9B012F707294AFE07A22EF
:103AB00086958695782A70E1779EC0011124280F9B
:103AC000391F3487238784E091E04BE050E021E008
:103AD000992309F45DC05C9AFA013197F1F79227B6
:103AE0008150B1F7D7018C910E948C079FE09A9D7D
:103AF000F0019B9DF00D1124E20DF31D908D992393
:103B000021F021EE22879150908F8F7009F030CEF6
:103B10008FE08A9D80018B9D100D1124020D131DD5
:103B200084E6F801808F5C9A3BE0A32EB12CC5019E
:103B30000197F1F7D7018C910E948C07782E5C9841
:103B4000C5010197F1F7F70180810E948C0791EE82
:103B5000D8011A969C931A971B962D913C911C970D
:103B6000307F472D4F7050E0542F4427240F351FCE
:103B70003F70880F880F880F90E0982F88279295C4
:103B8000907F280F391F1C963C932E931B97F0CDE6
:103B90005C98A2CF333061F48F708F3049F491304C
:103BA00009F4E6CD81E0F10181873F9A479AE0CDA3
:103BB000992309F4DDCDD10119961C923F984798BD
:103BC000F5CF691528F57FE01FEF4FEF5FEF00E8B5
:103BD000862F673008F086E0282F30E0F101789FCB
:103BE000E00DF11D11241287108E5487438705873D
:103BF00006872F5F3F4F729FC001739F900D112466
:103C0000820D931DDC011C92108A6F5F9612E0CF2B
:103C10007601BEEFEB1AFB0A8601045A1E4FC7015C
:103C20000E947D0CEFE0EE0EF11CE016F106B9F7F4
:103C3000D20117969C90179717961C921797189673
:103C40001C922A9A0BE010E0C8010197F1F7760167
:103C5000B1E0EB0EFB1EF70180810E946C07782E0D
:103C60002A98C8010197F1F7D7018C910E946C073F
:103C7000272D2770F2019185372D3F70243009F0F0
:103C8000B2C0913021F091E09187269A2E9AD2010C
:103C900017969C91179721E0290F17962C93973030
:103CA00008F096E0F201BFE09B9FE00DF11D1124AA
:103CB0009FE49287438554855F70232F30E0322F35
:103CC00022273295307F240F351F207F8F70280FD9
:103CD000311D348723872A9A2E982BE030E0C901C2
:103CE0000197F1F783B14FB19FB15FB186958170B4
:103CF000880F880F880F441F4427441F440F440F28
:103D0000840F55FB442740F9840F96FB992790F9BF
:103D1000990F890F40E1849FC00111244385548588
:103D20004F70840F951F948783872A982E98C90116
:103D30000197F1F783B12FB19FB13FB186958170A3
:103D4000880F880F880F221F2227221F220F220F81
:103D5000820F35FB222720F9820F96FB992790F9D5
:103D6000990F890F90E0982F882723853485307F1D
:103D7000820F931F948783872A9AF201818581306D
:103D800009F42E9A83E290E00197F1F7D201179699
:103D90001C91A12C6FE04FEF5FEF70E81A1509F44A
:103DA0001BC28A2DB6E0BA1508F486E0282F30E051
:103DB000F201689FE00DF11D112492858189981709
:103DC00081F054874387758776872F5F3F4F629FC7
:103DD000C001639F900D1124840D951DDC011C9280
:103DE000108AA394DBCF313009F03EC1282F2F7009
:103DF000213009F039C1913019F02187269A2E9A85
:103E000060E041E02BE030E02E98762F742780EDC3
:103E100097E053B153FB552750F975133FC4F9018F
:103E20003197F1F70197A9F7A7CF83B15FB19FB1A0
:103E30007FB186958170880F880F880F551F552791
:103E4000551F550F550F850F75FB552750F9850FD9
:103E500096FB992790F9990F890F613009F03CC4BE
:103E6000B4E08B1203C0813009F486CF782E770C32
:103E7000811020C0823029F190E080E051E06BE0B9
:103E800070E0791609F478CF882309F491C02E9A4E
:103E90008527A82FA17020ED37E043B143FB4427CD
:103EA00040F9FB01A4131BC43197F1F721503109EC
:103EB000A1F762CFE1E08E126DC0863011F0833041
:103EC000D9F6D20117969C91179721E0290F1796E2
:103ED0002C93973008F096E0492F50E06FE0920164
:103EE000969F200D311D1124F9013A96FC87EB872E
:103EF000649F9001659F300D1124FEE0240D351D57
:103F00008F1258C0815090EE8927D9011A968C9350
:103F1000B12C812CA12C6FE0649F8001659F100D56
:103F20001124C60188509F4F7C01E00EF11E9701BD
:103F3000205F3F4F3E872D874F5F5F4F649F90010B
:103F4000659F300D1124AC01420F531F588B4F87D2
:103F5000B701625F7F4F7A8B698B040D151D055F7A
:103F60001F4F7B1409F408CF882069F12E9A81E055
:103F70008826382D317080ED97E023B123FB22276E
:103F800020F93213B0C3EBE0F0E03197F1F701977D
:103F9000A1F7F2CEFEE08F1204C0833008F491CF77
:103FA0006BCF2FE0821268CF8F3009F065CFE4CE5F
:103FB0002E986ECFB0E18B9EB0011124882E8626FC
:103FC000F9018286A5CF2E98D2CF73E0B71210C028
:103FD000D8012D913C9111973F70487050E0542FBB
:103FE00044275295507F420F531F4D935C93A0C3BB
:103FF000B4E0BB16B9F1E5E0BE1209C0F0E1AF9E36
:10400000C0011124482BD7011D964C9391C3B6E0F3
:10401000BB1641F1E7E0BE1209C0F0E1AF9EC0015E
:104020001124482BA989BA894C9382C3B8E0BB16E6
:10403000C9F0E9E0BE1208C0F0E1AF9EC001112452
:10404000482BAF85B889F0CFBAE0BB1659F0EBE04A
:10405000BE126EC3F0E1AF9EC0011124482BAD85A6
:10406000BE85E2CFA42E64C3282F2C7009F09DC01A
:10407000992329F0F201118626982E982E9AD201C2
:1040800017969C91179721E0290F17962C9397303C
:1040900008F096E0A92EB12CF201BFE09B9FE00D45
:1040A000F11D112490EE9287972D9C7009F464CE37
:1040B00043855485407FBA01630F711D9B012F70AA
:1040C0007294AFE07A2286958695782A70E1779E81
:1040D000C0011124280F391F3487238784E091E021
:1040E0004BE050E021E0992309F45DC02A9AFA01DF
:1040F0003197F1F792278150B1F7D7018C910E9447
:104100006C079FE09A9DF0019B9DF00D1124E40D3A
:10411000F51D908D992321F021EE22879150908FEB
:104120008F7009F029CE8FE08A9D80018B9D100D44
:104130001124040D151D84E6F801808F2A9A5BE096
:10414000A52EB12CC5010197F1F7D7018C910E94E2
:104150006C07882E2A98C5010197F1F7F701808135
:104160000E946C0791EED8011A969C931A971B96A1
:104170002D913C911C97307F482D4F7050E0542F6B
:104180004427240F351F3F70880F880F880F90E059
:10419000982F88279295907F280F391F1C963C9363
:1041A0002E931B97E9CD2A98A2CF333061F48F70FC
:1041B0008F3049F4913009F4DFCD81E0F20181873D
:1041C000269A2E9AD9CD992309F4D6CDD2011996E3
:1041D0001C9226982E98F5CFA91430F56A2D7FE011
:1041E0001FEF4FEF5FEF00E8862F673008F086E0A3
:1041F000282F30E0F201789FE00DF11D1124128785
:10420000108E54874387058706872F5F3F4F729F25
:10421000C001739F900D1124840D951DDC011C922B
:10422000108A6F5F9612E0CFF601E556FF4F60806F
:10423000B62CBA0C460110E01B8600919D011B159F
:1042400009F46AC1101709F467C17724739416152D
:1042500008F4712C812F161508F034C1173008F0BE
:1042600086E0F1012FE0829FE00DF11D1124AF01E6
:10427000465F5F4F7A01033008F43AC1D7019C9141
:1042800017968C91179798132BC011962D913C91EE
:10429000129718968D919C9119972817390701F557
:1042A00013969C9113971A968C911A97981318C08D
:1042B00014969C9114971B968C911B97981310C081
:1042C00015969C9115971C968C911C97981308C075
:1042D00016969C9116971D968C91981709F4E7C035
:1042E000F40116A610AAD7019C9117968C919817E5
:1042F00089F0101720F4612FC6010E949B1903302A
:1043000048F4F70180810E94B407482F672DC60149
:104310000E94C315D70111962D913C91A90140959A
:1043200050954170552782E021FD80E0842B94E078
:1043300022FD90E0892B98E023FD90E0892BE98510
:10434000FA85808BD70111962D913C91C90146E0E9
:10435000969587954A95E1F7B1E08B27AC014170BE
:10436000552782E090E024FF02C090E080E0842B9B
:10437000952B44E050E032FF02C050E040E0842B37
:10438000952B48E050E031FF02C050E040E0842B24
:10439000952B40E150E030FF02C050E040E0842B1C
:1043A000952B40E250E025FF02C050E040E0842B16
:1043B000952B40E450E037FF02C050E040E0842BF2
:1043C000952B40E850E033FF02C050E040E0842BE2
:1043D000952B27FD9BC020E032E0822B932BE985B3
:1043E000FA85928B818BD7018C91807F803109F087
:1043F0004AC021E0F40120AB13968C9199E8980F04
:10440000933108F480E890E0382F2227820F931F21
:10441000A985BA8556969C938E935597F70184810A
:1044200099E8980F933108F480E890E0382F22271C
:10443000820F931FA985BA8558969C938E935797A0
:10444000F6018781882331F090911608992381F035
:10445000813071F4E1E0D4019E96EC93D701169679
:104460008C911697E985FA85858F15968C91868FA4
:10447000D7018C910E94B407863029F4E985FA852A
:1044800080898360808B80919D01833008F041C0DA
:10449000E1E0F0E0EC0FFD1FE70DF11D00E09701FA
:1044A0004081672DC6010E946115F1E0FB871F5F07
:1044B00049855A85415F5F4F5A8749875FEF851A63
:1044C000950ABBCE8619873008F086E0B201AFE0CE
:1044D0008A9F600D711D1124FB013A967F01033004
:1044E00008F0CCCEAA2009F4C9CEF701808104C01F
:1044F0006620C1F3DA018C910E94B407E1E0F0E09C
:10450000EC0FFD1FE70DF11D8083B8CE30E020E0F9
:1045100064CF21E02B87CBCF1981033058F48091F1
:104520004201811739F0111105C040E060E0C60179
:104530000E94C315109342011A8180919D0183301E
:1045400058F480914301811739F0111105C040E002
:1045500061E0C6010E94C3151093430100917007EA
:10456000B01670F41B2D80919D01811749F018172A
:1045700020F4612FC6010E949B191F5F101798F34A
:10458000B0927007F601E456FF4F8081843089F1C4
:10459000EC59FF4F9081943061F1890F89F18B2D97
:1045A00090E0019644EF51E0849F9001859F300D8B
:1045B000949F300D112430939F0120939E018B8591
:1045C00064960FB6F894DEBF0FBECDBFDF91CF91DA
:1045D0001F910F91FF90EF90DF90CF90BF90AF9021
:1045E0009F908F907F906F905F904F903F902F9013
:1045F000089580ED97E090939F0180939E01DFCF17
:1046000084E690E0F8CFC9010197F1F7611108C97C
:1046100059B18CB193B163B186FBBB24B0F8BB0C2C
:10462000BB0C852F881F8827881F880F880F880F4D
:10463000B80E65FB882780F9B80E94FB882780F9AF
:10464000880FB80E61E0479ADBC83197F1F79F5F9A
:1046500015C9C3010197F1F799B14CB183B123B1E9
:1046600046FB442740F9440F440F991F9927991F8F
:10467000990F990F990F490F25FB992790F9490F29
:1046800082958170880F480F133008F09EC9612F02
:104690008B859C850E9408041F5F63C9C90101972F
:1046A000F1F76111C2CB83B09FB18FB15FB181FAD5
:1046B000882480F8880C880C880C991F9927991FEA
:1046C000990F990F890E55FB992790F9890E86FB52
:1046D000882780F9880F880E61E02E9A96CB319753
:1046E000F1F79F5FCECB83E090E00197F1F743B104
:1046F0009FB18FB12FB146954170440F440F440FC5
:10470000991F9927991F990F990F490F25FB9927F1
:1047100090F9490F86FB882780F9880F480F62E0DF
:104720006B1508F452CC6B2D8B859C850E94080478
:10473000B39417CCEF92FF920F931F93CF93DF9315
:1047400000D0CDB7DEB780910D08882309F4DBC017
:104750008091E9008F709091EC0090FF4FC090E83D
:10476000F92EF82A1092E9008091E80083FFC7C073
:10477000E0E2F7E08091F100819327E0E832F20770
:10478000C9F7E090210781E0E8121DC08091200761
:10479000813AC9F48091E800877F8093E800809196
:1047A0002207909123078115934051F568E070E04E
:1047B00080E091E00E94CB19E09217088091E80018
:1047C0008B778093E8008091E80083FF8AC0809116
:1047D0002007909121079A3008F083C0E92FF0E07C
:1047E000EC50FC4D0C94853344246A2471246A24D3
:1047F0007124CB24ED24712420272D2790E0B0CF05
:10480000E0910C08E730D0F6F0E0E75FFB4D0C9448
:104810008533102417241C24212426242B243F24F0
:1048200064E170E080E296E00E94CB19C7CF60E4BB
:1048300070E08DE096E0F8CF60E470E085E096E00F
:10484000F3CF60E470E08DEF95E0EECF60E470E0D0
:1048500086EF95E0E9CF81E08093F20582E08093D6
:10486000EF05809124079091250760E470E0892B83
:1048700019F482EF95E0D8CF8FEE95E0D5CF60E4C4
:1048800070E08AEE95E0D0CF803889F0823849F523
:10489000809124078F70873020F58093E900809104
:1048A000EB0085FB882780F91092E90004C0809115
:1048B0007F0781110DC09091E800977F9093E800E9
:1048C0008093F1001092F1008091E8008E7732C061
:1048D00082E0F1CF282F2D7F21F48823E9F0823068
:1048E00071F18091E80083FF0AC08091E800877F22
:1048F0008093E8008091EB0080628093EB008F2D25
:104900008F708093E9000F900F90DF91CF911F91EE
:104910000F91FF90EF90089580912207813009F761
:10492000933009F080E080937F071092E900809136
:10493000E800877F8093E8000E94591AD2CF8091C7
:1049400022078111F2CF809124078F702FEF280F5B
:10495000263038F68093E9002091EB0020FFE5CF68
:10496000933031F48091EB0080628093EB00DDCFD7
:104970009091EB0090619093EB0021E030E001C05A
:10498000220F8A95EAF72093EA001092EA008091BC
:10499000EB008860EACF8111A4CF109122071F7726
:1049A0008091E3008078812B8093E3008091E80080
:1049B000877F8093E8000E94591A8091E80080FF69
:1049C000FCCF8091E30080688093E30083E01111C5
:1049D00001C082E080930D0884CF8058823008F0B7
:1049E00080CF20912207309123071A821982832FCA
:1049F00099278330910509F41CC1D0F481309105C9
:104A0000A9F1029709F45DC069817A816115710588
:104A100009F467CF8091E800877F8093E800C801A0
:104A20000E94CB198091E8008B778093E80059CFE2
:104A30008132910509F49FC1829731F780910C086A
:104A4000843009F4E7C108F0BBC1813009F4C8C162
:104A5000833009F4D4C146E450E06AE671E08AE8A4
:104A600096E00E94663386E490E0C4C180910C0811
:104A7000882399F0813001F1009185071091860714
:104A800042E150E065EC70E084E396E00E9466331A
:104A9000009340061093410608C042E150E069EEE1
:104AA00070E084E396E00E94663382E190E09A83AE
:104AB000898304E316E0A8CF42E150E067ED70E09F
:104AC000F0CF0091840710910C08113009F456C002
:104AD00008F44DC0153009F496C01350143008F096
:104AE000A1C0E12FF0E0E456FB4F108149E050E017
:104AF00064E171E086E496E00E94663399E1099FE3
:104B0000902D1124975F9093480600934A06002346
:104B100009F48AC049E150E06BEF70E08FE496E061
:104B20000E9466331092510610935F0681E88093CD
:104B30006306023008F478C049E150E06BEF70E0A2
:104B400088E696E00E94663381E080936A061093BF
:104B5000780682E880937C06023009F465C049E15A
:104B600050E06BEF70E081E896E00E94663381E3ED
:104B700090E09A8389830BE614E046CF49E050E049
:104B800068E571E086E496E00E94663399E1099F4A
:104B9000902D1124975F9093480600934A060023B6
:104BA00061F149E150E06FE371E08FE496E00E942B
:104BB0006633109251064CE6E42EE0925F0681E8DF
:104BC000809363060230C8F049E150E06FE371E082
:104BD00088E696E00E94663310936A06E0927806B3
:104BE00082E880937C06023041F049E150E06FE3B7
:104BF00071E081E896E00E946633B9E10B9FC00145
:104C0000112409960AC042E250E06DE171E086E4A9
:104C100096E00E94663382E290E09A83898306E4FC
:104C200016E0F2CE16E462CFE9E10E9FC001112436
:104C3000E8CFC90199278230910549F18330910568
:104C400009F441C08130910509F04AC080910C08F7
:104C5000813089F444E351E0DA010D900020E9F756
:104C6000AD014553514064E371E0CE0101960E94CD
:104C7000DE288C01C9CE47E251E0FA010190002004
:104C8000E9F7AF014852514067E271E0EECF809101
:104C90000C08813061F445E151E0DA010D9000200B
:104CA000E9F7AD014651514065E171E0DECF48E0E2
:104CB00051E0FA0101900020E9F7AF01495051405D
:104CC00068E071E0D2CF6091820770918307FB01A9
:104CD00001900020E9F73197AF01461B570BC5CF74
:104CE00069E674E0E1E0222331F1253039F520EB6B
:104CF00034E0E0E0FCE0FE0FD9011D919D018E2F14
:104D000090E0019670E060E0412F42954F7050E0D6
:104D10004D525A4FDA014C91DC014C93EE5F90E01A
:104D2000A12FAF70B0E0AD52BA4F4C91DC0111969B
:104D30004C93EF13E1CF4E2F50E097CF20910C080A
:104D4000880F991F222329F0213049F080569B4F6C
:104D500002C08A549B4FFC016081718105C0885557
:104D60009B4FDC016D917C91FB0101900020E9F7E4
:104D70003197E61BE0CF10910C0849E050E061E666
:104D800071E081E896E00E9466338BE5143079F09B
:104D900040F48CE6113059F089E5133041F086E497
:104DA00006C081E5153019F087E31630C1F780930E
:104DB000880689E090E09A83898301E816E024CE92
:104DC000853099F1863009F046CE47E350E060EB3C
:104DD00071E08AE896E00E94663387E390E00AC0BB
:104DE0004CE650E06CEE72E08AE896E00E94663392
:104DF0008CE690E09A8389830AE816E005CE49E5BF
:104E000050E063E972E08AE896E00E94663389E543
:104E100090E0F0CF4BE550E068E372E08AE896E07E
:104E20000E9466338BE590E0E5CF41E550E067EE08
:104E300071E08AE896E00E94663381E590E0DACF7F
:104E4000803809F04ECD8091E800877F8093E8009C
:104E5000809180078093F10037CD811142CD109170
:104E60002207123008F03DCD8091E800877F8093C3
:104E7000E800109380070E94591A1123F9F084E08A
:104E800080930D0800910C080023F1F042E360ECE0
:104E900082E00E94781A11E080918407811708F45B
:104EA00020CD812F8F70873020F442E361EC0E9487
:104EB000781A053009F415CD1F5FEECF8091E3001D
:104EC00087FDDDCF81E0DCCF42E261EC81E00E9432
:104ED000781A46E260EC82E00E94781A02CD0F93C5
:104EE0001F93CF93DF938C01EB018091E80085FD48
:104EF00010C08091E8008B778093E8000E949A238D
:104F00000E942A1A882389F3DF91CF911F910F9174
:104F100008958091F100F80181938F01219729F77D
:104F200080E0F2CF1F920F920FB60F9211242F93B1
:104F30003F938F939F93AF93BF9380911F0890915E
:104F40002008A0912108B091220830911E0823E08A
:104F5000230F2D3758F50196A11DB11D20931E0872
:104F600080931F0890932008A0932108B0932208F3
:104F70008091230890912408A0912508B0912608DB
:104F80000196A11DB11D8093230890932408A0933E
:104F90002508B0932608BF91AF919F918F913F91C3
:104FA0002F910F900FBE0F901F90189526E8230F9A
:104FB0000296A11DB11DD2CF1F93CF93DF93EC01B9
:104FC00080E88FA388A789A78AA71BA6FE01BC96A5
:104FD0008CE0DF011D928A95E9F71EA219AE1AAE88
:104FE0001BAE1CAE15E0CE010E94370B61E070E0F5
:104FF00080E090E00E9469041150A9F7CE01DF9192
:10500000CF911F910C94370BCF93DF93EC01849ACF
:105010008C9A229A2A9A219A299A23982B982B9A29
:105020000E94D404CE01DF91CF910C94DC27CF9362
:10503000DF93EC013E9A469A229A2A9A219A299A5B
:1050400023982B982B9A0E94D404CE01DF91CF9104
:105050000C94DC271F920F920FB60F9211242F93FE
:105060003F934F935F936F937F938F939F93AF93F0
:10507000BF93EF93FF938091DA0080FF17C0809178
:10508000D80080FF13C08091DA008E7F8093DA0011
:105090008091D90080FF86C080E189BD82E189BD11
:1050A00009B400FEFDCF81E080930D088091E100FE
:1050B00080FF17C08091E20080FF13C08091E20062
:1050C0008E7F8093E2008091E20080618093E20015
:1050D0008091D80080628093D80019BC85E08093CD
:1050E0000D088091E10084FF26C08091E20084FFDA
:1050F00022C080E189BD82E189BD09B400FEFDCFF7
:105100008091D8008F7D8093D8008091E1008F7EC0
:105110008093E1008091E2008F7E8093E200809195
:10512000E20081608093E200809180078823F1F1A2
:1051300084E080930D088091E10083FF22C080917C
:10514000E20083FF1EC08091E100877F8093E10031
:1051500082E080930D08109280078091E1008E7F9D
:105160008093E1008091E2008E7F8093E200809145
:10517000E20080618093E20042E360E080E00E9410
:10518000781AFF91EF91BF91AF919F918F917F918D
:105190006F915F914F913F912F910F900FBE0F90A4
:1051A0001F90189519BC10920D0880CF8091E300D4
:1051B00087FD02C081E0BDCF83E0BBCFCF93DF93FB
:1051C000DC014032510514F04FE150E090E0292F0E
:1051D00030E02417350784F04F5F5F4F440F551FB1
:1051E0004D935C935360509329074093280788E2BE
:1051F00097E0DF91CF910895F901EE0FFF1FE65D73
:10520000F84F260F371FE9012881022E000C330BBF
:10521000318320839F5FDBCFCF93DF93CDB7DEB7A2
:1052200029970FB6F894DEBF0FBECDBF789484B532
:10523000826084BD84B5816084BD85B5826085BD92
:1052400085B5816085BD80916E00816080936E0020
:105250001092810080918100826080938100809112
:1052600081008160809381008091800081608093C3
:1052700080008091910082608093910080919100E4
:105280008160809391008091900081608093900074
:105290008091C10084608093C1008091C1008260D0
:1052A0008093C1008091C10081608093C100809192
:1052B000C30081608093C3008091C00082608093AE
:1052C000C0008091C20081608093C20080917A000A
:1052D000846080937A0080917A00826080937A0063
:1052E00080917A00816080937A0080917A00806852
:1052F00080937A0056985E9A1092170890E080E0AA
:105300000E946F33853008F043C08093110880916C
:105310001108823009F47CC008F03CC0813009F4E7
:1053200052C0109238088CE3809337081092B9006D
:1053300084E48093BC008CE08093B80010922B082A
:1053400010922C08E0E8F6E0C590D490E2E8F6E090
:10535000F490E3E8F6E0E491E0932D08E4E8F6E069
:10536000E491E0932E08E5E8F6E0E491E0932F085D
:1053700010E000E00F1508F0B8C0F601E00FF11FD3
:10538000649187E298E00E94390E0F5F1F4FF2CFC1
:1053900081E0BBCF833009F495C0843009F0C1CFE0
:1053A00083EE90E00E948B338C010E94A2038BE479
:1053B00095E0D80111969C938E93AD55BF4F80E434
:1053C000EEE1F2E01CC084EC91E00E948B338C0192
:1053D0000E94A2038DEF94E0D8018D939C93C801A5
:1053E0008C569F4F0E946A0CC80188509F4F0E94A4
:1053F0006A0CD801A45ABE4F88E6EEE5F2E00190AF
:105400000D928A95E1F7109319080093180889CF37
:105410008DE791E00E948B338C010E94A20387E20A
:1054200095E0F8019183808381E490E00E948B33C2
:10543000F1E4FF2EDC01EF2D1D92EA95E9F72BE157
:1054400035E0DC012D933C93F801EA56FF4F918340
:10545000808381E490E00E948B33FC011192FA94E6
:10546000E9F72FE035E0DC012D933C93F801E85695
:10547000FF4F91838083329610823196108231964D
:1054800010823196108231961082319610823196B8
:1054900010823196108231961082319610823196A8
:1054A0001082D801AB55BF4F80E8E6ECF2E00190E6
:1054B0000D928A95E1F7D801AB5DBE4F88E5E6E431
:1054C000F3E09DCF8EEE90E00E948B338C010E9422
:1054D000A20389E395E0F80191838083D801A25665
:1054E000BF4F80E5EEE9F3E08ACF87E298E00E94C3
:1054F000191061E887E298E00E94390E61E087E2C6
:1055000098E00E94390EE5E9F4E0F0933308E09367
:1055100032088491E6E9F4E0E491F82F319709F03C
:10552000E1C01092300887E298E00E94191011E063
:10553000109335086EE187E298E00E944D0E82E0FC
:10554000809335088EE894E00E94B00F10933508E0
:1055500062E087E298E00E94410E0E94161681E008
:1055600090E00E946F33873008F080E0A091180827
:10557000B091190817968C931797ED91FC9111979C
:105580000190F081E02DCD01099564E170E080E0AB
:1055900090E00E9469048091180890911908DC013C
:1055A000ED91FC910280F381E02D099564E170E0BA
:1055B00080E090E00E946904809118089091190899
:1055C000DC01ED91FC910280F381E02D0995A09121
:1055D0001808B091190851968C91519780FF86C098
:1055E00081E017968C9317974E99A6C017961C9139
:1055F00087E298E00E94191045E050E064EE75E003
:1056000087E298E00E94A7040E94AC1A6CED75E056
:1056100080E090E00E94690487E298E00E941910FF
:1056200081E894E00E94B41A83E794E00E94B41ADF
:1056300086E694E00E94B41A64EF71E080E090E0A6
:105640000E94690481E0812C912C540101E0FF2427
:10565000F3944E9951C0F12C813051F40E949B0477
:105660004B015C0160E170E080E090E00E94690421
:105670000E949B04681979098A099B09693E734055
:105680008105910510F40C944D3387E298E00E9457
:1056900019108EE594E00E94B41A87E594E00E9408
:1056A000B00F812F0E94CB0F0E94AC1A0E94AC1A3F
:1056B00083E494E00E94B00F60ED77E080E090E03A
:1056C0000E946904612F81E090E00E94773388E1B5
:1056D0009EE00FB6F894A895809360000FBE90935B
:1056E0006000FFCF81E0809330081DCF81FF7CCF29
:1056F00017961C92179778CF81110C944A3360E16A
:1057000070E080E090E00E94690481E0011106C031
:10571000882379F01F5F133008F010E007E025E0E0
:105720004FE760E087E298E00E94E40F812F0E943B
:10573000CB0F00E08F2D8BCFED91FC91119704845E
:10574000F585E02DCD01099561E087E298E00E94A2
:10575000410E60E087E298E00E944D0EE09118084B
:10576000F0911908878181111CC188E50E94DF0F23
:10577000809118089091190821E032E0FC013483EF
:1057800023830190F081E02D0084F185E02D0995BF
:105790008C018091180890911908DC01ED91FC9121
:1057A0000284F385E02D099520919D01E091180870
:1057B000F0911908378130930C08909386078093F5
:1057C000850720938407109383070093820784B78B
:1057D000877F84BF0FB6F894A89580916000886198
:1057E00080936000109260000FBE80E830E020E0FF
:1057F0000FB6F89480936100209361000FBE8091F2
:10580000D8008F7E8093D8008091D70081608093EC
:10581000D70084E082BF81E0809381078091D80027
:105820008E7F8093D8001092E2001092DA001092DE
:10583000E1008091D8008F778093D8008091D800C4
:1058400080688093D8008091D8008F7D8093D800A5
:1058500019BC10920D081092800710927F0780915A
:10586000E0008B7F8093E0008091D800816080937E
:10587000D80042E360E080E00E94781A8091E10065
:105880008E7F8093E1008091E20081608093E2004E
:105890008091E20088608093E2008091E0008E7F3A
:1058A0008093E0008091D80080618093D800789444
:1058B0000E94440400911A0810911B0820911C08B2
:1058C00030911D08AB01BC01401B510B620B730BE7
:1058D00080919E0190919F01B0E0A0E0C12C4817FB
:1058E00059076A077B07B0F0809118089091190852
:1058F000DC01ED91FC910280F381E02D0995C82E29
:105900000E94440460931A0870931B0880931C083B
:1059100090931D08D12C80919D01D81608F01CC6CB
:105920008091180890911908DC01ED91FC91068096
:10593000F781E02D6D2D0995009118081091190837
:10594000ED2CF12CF8018781843009F487C108F02F
:1059500037C0882309F469C093E1813009F400C29B
:1059600098E0833009F0B8C18FE08E9DF0018F9DE3
:10597000F00D1124E00FF11FE089EF70E150EA30E3
:1059800008F0A9C3F0E0E953F34D0C948533F62FEA
:1059900063306B306730693065306B305F305B305F
:1059A0006130813011F483E5E1CE823011F488E476
:1059B000DDCE8350843010F48DE4D8CE85E4D6CE8D
:1059C000853009F469C195E0863009F0C9CF8FE0D0
:1059D0008E9DF0018F9DF00D1124E00FF11F2189A4
:1059E0003289A9014170552782E021FF80E0842B94
:1059F00022FF67C424E0822B809387078FE08E9D6F
:105A0000F0018F9DF00D1124E00FF11F25893689DB
:105A100030938907209388072789308D30938B072F
:105A200020938A0727E837E08EC094E18FE08E9DAF
:105A3000F0018F9DF00D1124E00FF11F2089822FBE
:105A4000817032E021FF30E0832B34E022FF30E030
:105A5000832B23FF6FC128E0822B2FE02E9DF001C6
:105A60002F9DF00D1124E00FF11F2189328940E1B3
:105A700031FF40E0842B40E230FF40E0842B40E4E3
:105A800032FF40E0842B40E833FF40E0842B8093DA
:105A90005901A901E4E056954795EA95E1F741706F
:105AA00082E025FF80E0842B44E034FF40E0842B3B
:105AB00040E120FF40E0842B40E221FF40E0842BC6
:105AC00040E422FF40E0842B40E823FF40E0842BA9
:105AD00080935A018FE08E9DF0018F9DF00D11246F
